{
	"data": {
		"bytecode": {
			"linkReferences": {},
			"object": "608060405234801561000f575f80fd5b506102728061001d5f395ff3fe608060405234801561000f575f80fd5b5060043610610029575f3560e01c8063cad0899b1461002d575b5f80fd5b61004760048036038101906100429190610105565b61005d565b6040516100549190610152565b60405180910390f35b5f8082841161006c578261006e565b835b90505f600190505f600190505b8281116100c2575f818761008f9190610198565b1480156100a657505f81866100a49190610198565b145b156100af578091505b80806100ba906101f5565b91505061007b565b50809250505092915050565b5f80fd5b5f819050919050565b6100e4816100d2565b81146100ee575f80fd5b50565b5f813590506100ff816100db565b92915050565b5f806040838503121561011b5761011a6100ce565b5b5f610128858286016100f1565b9250506020610139858286016100f1565b9150509250929050565b61014c816100d2565b82525050565b5f6020820190506101655f830184610143565b92915050565b7f4e487b71000000000000000000000000000000000000000000000000000000005f52601260045260245ffd5b5f6101a2826100d2565b91506101ad836100d2565b9250826101bd576101bc61016b565b5b828206905092915050565b7f4e487b71000000000000000000000000000000000000000000000000000000005f52601160045260245ffd5b5f6101ff826100d2565b91507fffffffffffffffffffffffffffffffffffffffffffffffffffffffffffffffff8203610231576102306101c8565b5b60018201905091905056fea26469706673582212208f70e7a5a2a78210cdbcfe3c441fa2d108d3146275962fe4c538aa0c563335f464736f6c63430008150033",
			"opcodes": "PUSH1 0x80 PUSH1 0x40 MSTORE CALLVALUE DUP1 ISZERO PUSH2 0xF JUMPI PUSH0 DUP1 REVERT JUMPDEST POP PUSH2 0x272 DUP1 PUSH2 0x1D PUSH0 CODECOPY PUSH0 RETURN INVALID PUSH1 0x80 PUSH1 0x40 MSTORE CALLVALUE DUP1 ISZERO PUSH2 0xF JUMPI PUSH0 DUP1 REVERT JUMPDEST POP PUSH1 0x4 CALLDATASIZE LT PUSH2 0x29 JUMPI PUSH0 CALLDATALOAD PUSH1 0xE0 SHR DUP1 PUSH4 0xCAD0899B EQ PUSH2 0x2D JUMPI JUMPDEST PUSH0 DUP1 REVERT JUMPDEST PUSH2 0x47 PUSH1 0x4 DUP1 CALLDATASIZE SUB DUP2 ADD SWAP1 PUSH2 0x42 SWAP2 SWAP1 PUSH2 0x105 JUMP JUMPDEST PUSH2 0x5D JUMP JUMPDEST PUSH1 0x40 MLOAD PUSH2 0x54 SWAP2 SWAP1 PUSH2 0x152 JUMP JUMPDEST PUSH1 0x40 MLOAD DUP1 SWAP2 SUB SWAP1 RETURN JUMPDEST PUSH0 DUP1 DUP3 DUP5 GT PUSH2 0x6C JUMPI DUP3 PUSH2 0x6E JUMP JUMPDEST DUP4 JUMPDEST SWAP1 POP PUSH0 PUSH1 0x1 SWAP1 POP PUSH0 PUSH1 0x1 SWAP1 POP JUMPDEST DUP3 DUP2 GT PUSH2 0xC2 JUMPI PUSH0 DUP2 DUP8 PUSH2 0x8F SWAP2 SWAP1 PUSH2 0x198 JUMP JUMPDEST EQ DUP1 ISZERO PUSH2 0xA6 JUMPI POP PUSH0 DUP2 DUP7 PUSH2 0xA4 SWAP2 SWAP1 PUSH2 0x198 JUMP JUMPDEST EQ JUMPDEST ISZERO PUSH2 0xAF JUMPI DUP1 SWAP2 POP JUMPDEST DUP1 DUP1 PUSH2 0xBA SWAP1 PUSH2 0x1F5 JUMP JUMPDEST SWAP2 POP POP PUSH2 0x7B JUMP JUMPDEST POP DUP1 SWAP3 POP POP POP SWAP3 SWAP2 POP POP JUMP JUMPDEST PUSH0 DUP1 REVERT JUMPDEST PUSH0 DUP2 SWAP1 POP SWAP2 SWAP1 POP JUMP JUMPDEST PUSH2 0xE4 DUP2 PUSH2 0xD2 JUMP JUMPDEST DUP2 EQ PUSH2 0xEE JUMPI PUSH0 DUP1 REVERT JUMPDEST POP JUMP JUMPDEST PUSH0 DUP2 CALLDATALOAD SWAP1 POP PUSH2 0xFF DUP2 PUSH2 0xDB JUMP JUMPDEST SWAP3 SWAP2 POP POP JUMP JUMPDEST PUSH0 DUP1 PUSH1 0x40 DUP4 DUP6 SUB SLT ISZERO PUSH2 0x11B JUMPI PUSH2 0x11A PUSH2 0xCE JUMP JUMPDEST JUMPDEST PUSH0 PUSH2 0x128 DUP6 DUP3 DUP7 ADD PUSH2 0xF1 JUMP JUMPDEST SWAP3 POP POP PUSH1 0x20 PUSH2 0x139 DUP6 DUP3 DUP7 ADD PUSH2 0xF1 JUMP JUMPDEST SWAP2 POP POP SWAP3 POP SWAP3 SWAP1 POP JUMP JUMPDEST PUSH2 0x14C DUP2 PUSH2 0xD2 JUMP JUMPDEST DUP3 MSTORE POP POP JUMP JUMPDEST PUSH0 PUSH1 0x20 DUP3 ADD SWAP1 POP PUSH2 0x165 PUSH0 DUP4 ADD DUP5 PUSH2 0x143 JUMP JUMPDEST SWAP3 SWAP2 POP POP JUMP JUMPDEST PUSH32 0x4E487B7100000000000000000000000000000000000000000000000000000000 PUSH0 MSTORE PUSH1 0x12 PUSH1 0x4 MSTORE PUSH1 0x24 PUSH0 REVERT JUMPDEST PUSH0 PUSH2 0x1A2 DUP3 PUSH2 0xD2 JUMP JUMPDEST SWAP2 POP PUSH2 0x1AD DUP4 PUSH2 0xD2 JUMP JUMPDEST SWAP3 POP DUP3 PUSH2 0x1BD JUMPI PUSH2 0x1BC PUSH2 0x16B JUMP JUMPDEST JUMPDEST DUP3 DUP3 MOD SWAP1 POP SWAP3 SWAP2 POP POP JUMP JUMPDEST PUSH32 0x4E487B7100000000000000000000000000000000000000000000000000000000 PUSH0 MSTORE PUSH1 0x11 PUSH1 0x4 MSTORE PUSH1 0x24 PUSH0 REVERT JUMPDEST PUSH0 PUSH2 0x1FF DUP3 PUSH2 0xD2 JUMP JUMPDEST SWAP2 POP PUSH32 0xFFFFFFFFFFFFFFFFFFFFFFFFFFFFFFFFFFFFFFFFFFFFFFFFFFFFFFFFFFFFFFFF DUP3 SUB PUSH2 0x231 JUMPI PUSH2 0x230 PUSH2 0x1C8 JUMP JUMPDEST JUMPDEST PUSH1 0x1 DUP3 ADD SWAP1 POP SWAP2 SWAP1 POP JUMP INVALID LOG2 PUSH5 0x6970667358 0x22 SLT KECCAK256 DUP16 PUSH17 0xE7A5A2A78210CDBCFE3C441FA2D108D314 PUSH3 0x75962F 0xE4 0xC5 CODESIZE 0xAA 0xC JUMP CALLER CALLDATALOAD DELEGATECALL PUSH5 0x736F6C6343 STOP ADDMOD ISZERO STOP CALLER "
		},
		"gasEstimates": {
			"creation": {
				"codeDepositCost": "125200",
				"executionCost": "169",
				"totalCost": "125369"
			},
			"external": {
				"sum(uint256,uint256)": "infinite"
			}
		},
		"methodIdentifiers": {
			"sum(uint256,uint256)": "cad0899b"
		}
	},
	"abi": [
		{
			"inputs": [
				{
					"internalType": "uint256",
					"name": "a",
					"type": "uint256"
				},
				{
					"internalType": "uint256",
					"name": "b",
					"type": "uint256"
				}
			],
			"name": "sum",
			"outputs": [
				{
					"internalType": "uint256",
					"name": "",
					"type": "uint256"
				}
			],
			"stateMutability": "pure",
			"type": "function"
		}
	]
}