{
	"data": {
		"bytecode": {
			"linkReferences": {},
			"object": "6080604052348015600e575f5ffd5b506103d08061001c5f395ff3fe608060405234801561000f575f5ffd5b5060043610610029575f3560e01c80634feb57141461002d575b5f5ffd5b610047600480360381019061004291906100f1565b61005d565b604051610054919061015b565b60405180910390f35b5f60028361006b91906102dc565b60028561007891906102dc565b6100829190610326565b60028361008f91906102dc565b1480156100b157505f8284866100a59190610359565b6100af9190610359565b115b90509392505050565b5f5ffd5b5f819050919050565b6100d0816100be565b81146100da575f5ffd5b50565b5f813590506100eb816100c7565b92915050565b5f5f5f60608486031215610108576101076100ba565b5b5f610115868287016100dd565b9350506020610126868287016100dd565b9250506040610137868287016100dd565b9150509250925092565b5f8115159050919050565b61015581610141565b82525050565b5f60208201905061016e5f83018461014c565b92915050565b7f4e487b71000000000000000000000000000000000000000000000000000000005f52601160045260245ffd5b5f8160011c9050919050565b5f5f8291508390505b60018511156101f6578086048111156101d2576101d1610174565b5b60018516156101e15780820291505b80810290506101ef856101a1565b94506101b6565b94509492505050565b5f8261020e57600190506102c9565b8161021b575f90506102c9565b8160018114610231576002811461023b5761026a565b60019150506102c9565b60ff84111561024d5761024c610174565b5b8360020a91508482111561026457610263610174565b5b506102c9565b5060208310610133831016604e8410600b841016171561029f5782820a90508381111561029a57610299610174565b5b6102c9565b6102ac84848460016101ad565b925090508184048111156102c3576102c2610174565b5b81810290505b9392505050565b5f60ff82169050919050565b5f6102e6826100be565b91506102f1836102d0565b925061031e7fffffffffffffffffffffffffffffffffffffffffffffffffffffffffffffffff84846101ff565b905092915050565b5f610330826100be565b915061033b836100be565b925082820190508082111561035357610352610174565b5b92915050565b5f610363826100be565b915061036e836100be565b925082820261037c816100be565b9150828204841483151761039357610392610174565b5b509291505056fea2646970667358221220d3da541d4608eea4f7cab1e3e8b5a31415cd0c4f8618c68b911766ed0b62b71c64736f6c634300081c0033",
			"opcodes": "PUSH1 0x80 PUSH1 0x40 MSTORE CALLVALUE DUP1 ISZERO PUSH1 0xE JUMPI PUSH0 PUSH0 REVERT JUMPDEST POP PUSH2 0x3D0 DUP1 PUSH2 0x1C PUSH0 CODECOPY PUSH0 RETURN INVALID PUSH1 0x80 PUSH1 0x40 MSTORE CALLVALUE DUP1 ISZERO PUSH2 0xF JUMPI PUSH0 PUSH0 REVERT JUMPDEST POP PUSH1 0x4 CALLDATASIZE LT PUSH2 0x29 JUMPI PUSH0 CALLDATALOAD PUSH1 0xE0 SHR DUP1 PUSH4 0x4FEB5714 EQ PUSH2 0x2D JUMPI JUMPDEST PUSH0 PUSH0 REVERT JUMPDEST PUSH2 0x47 PUSH1 0x4 DUP1 CALLDATASIZE SUB DUP2 ADD SWAP1 PUSH2 0x42 SWAP2 SWAP1 PUSH2 0xF1 JUMP JUMPDEST PUSH2 0x5D JUMP JUMPDEST PUSH1 0x40 MLOAD PUSH2 0x54 SWAP2 SWAP1 PUSH2 0x15B JUMP JUMPDEST PUSH1 0x40 MLOAD DUP1 SWAP2 SUB SWAP1 RETURN JUMPDEST PUSH0 PUSH1 0x2 DUP4 PUSH2 0x6B SWAP2 SWAP1 PUSH2 0x2DC JUMP JUMPDEST PUSH1 0x2 DUP6 PUSH2 0x78 SWAP2 SWAP1 PUSH2 0x2DC JUMP JUMPDEST PUSH2 0x82 SWAP2 SWAP1 PUSH2 0x326 JUMP JUMPDEST PUSH1 0x2 DUP4 PUSH2 0x8F SWAP2 SWAP1 PUSH2 0x2DC JUMP JUMPDEST EQ DUP1 ISZERO PUSH2 0xB1 JUMPI POP PUSH0 DUP3 DUP5 DUP7 PUSH2 0xA5 SWAP2 SWAP1 PUSH2 0x359 JUMP JUMPDEST PUSH2 0xAF SWAP2 SWAP1 PUSH2 0x359 JUMP JUMPDEST GT JUMPDEST SWAP1 POP SWAP4 SWAP3 POP POP POP JUMP JUMPDEST PUSH0 PUSH0 REVERT JUMPDEST PUSH0 DUP2 SWAP1 POP SWAP2 SWAP1 POP JUMP JUMPDEST PUSH2 0xD0 DUP2 PUSH2 0xBE JUMP JUMPDEST DUP2 EQ PUSH2 0xDA JUMPI PUSH0 PUSH0 REVERT JUMPDEST POP JUMP JUMPDEST PUSH0 DUP2 CALLDATALOAD SWAP1 POP PUSH2 0xEB DUP2 PUSH2 0xC7 JUMP JUMPDEST SWAP3 SWAP2 POP POP JUMP JUMPDEST PUSH0 PUSH0 PUSH0 PUSH1 0x60 DUP5 DUP7 SUB SLT ISZERO PUSH2 0x108 JUMPI PUSH2 0x107 PUSH2 0xBA JUMP JUMPDEST JUMPDEST PUSH0 PUSH2 0x115 DUP7 DUP3 DUP8 ADD PUSH2 0xDD JUMP JUMPDEST SWAP4 POP POP PUSH1 0x20 PUSH2 0x126 DUP7 DUP3 DUP8 ADD PUSH2 0xDD JUMP JUMPDEST SWAP3 POP POP PUSH1 0x40 PUSH2 0x137 DUP7 DUP3 DUP8 ADD PUSH2 0xDD JUMP JUMPDEST SWAP2 POP POP SWAP3 POP SWAP3 POP SWAP3 JUMP JUMPDEST PUSH0 DUP2 ISZERO ISZERO SWAP1 POP SWAP2 SWAP1 POP JUMP JUMPDEST PUSH2 0x155 DUP2 PUSH2 0x141 JUMP JUMPDEST DUP3 MSTORE POP POP JUMP JUMPDEST PUSH0 PUSH1 0x20 DUP3 ADD SWAP1 POP PUSH2 0x16E PUSH0 DUP4 ADD DUP5 PUSH2 0x14C JUMP JUMPDEST SWAP3 SWAP2 POP POP JUMP JUMPDEST PUSH32 0x4E487B7100000000000000000000000000000000000000000000000000000000 PUSH0 MSTORE PUSH1 0x11 PUSH1 0x4 MSTORE PUSH1 0x24 PUSH0 REVERT JUMPDEST PUSH0 DUP2 PUSH1 0x1 SHR SWAP1 POP SWAP2 SWAP1 POP JUMP JUMPDEST PUSH0 PUSH0 DUP3 SWAP2 POP DUP4 SWAP1 POP JUMPDEST PUSH1 0x1 DUP6 GT ISZERO PUSH2 0x1F6 JUMPI DUP1 DUP7 DIV DUP2 GT ISZERO PUSH2 0x1D2 JUMPI PUSH2 0x1D1 PUSH2 0x174 JUMP JUMPDEST JUMPDEST PUSH1 0x1 DUP6 AND ISZERO PUSH2 0x1E1 JUMPI DUP1 DUP3 MUL SWAP2 POP JUMPDEST DUP1 DUP2 MUL SWAP1 POP PUSH2 0x1EF DUP6 PUSH2 0x1A1 JUMP JUMPDEST SWAP5 POP PUSH2 0x1B6 JUMP JUMPDEST SWAP5 POP SWAP5 SWAP3 POP POP POP JUMP JUMPDEST PUSH0 DUP3 PUSH2 0x20E JUMPI PUSH1 0x1 SWAP1 POP PUSH2 0x2C9 JUMP JUMPDEST DUP2 PUSH2 0x21B JUMPI PUSH0 SWAP1 POP PUSH2 0x2C9 JUMP JUMPDEST DUP2 PUSH1 0x1 DUP2 EQ PUSH2 0x231 JUMPI PUSH1 0x2 DUP2 EQ PUSH2 0x23B JUMPI PUSH2 0x26A JUMP JUMPDEST PUSH1 0x1 SWAP2 POP POP PUSH2 0x2C9 JUMP JUMPDEST PUSH1 0xFF DUP5 GT ISZERO PUSH2 0x24D JUMPI PUSH2 0x24C PUSH2 0x174 JUMP JUMPDEST JUMPDEST DUP4 PUSH1 0x2 EXP SWAP2 POP DUP5 DUP3 GT ISZERO PUSH2 0x264 JUMPI PUSH2 0x263 PUSH2 0x174 JUMP JUMPDEST JUMPDEST POP PUSH2 0x2C9 JUMP JUMPDEST POP PUSH1 0x20 DUP4 LT PUSH2 0x133 DUP4 LT AND PUSH1 0x4E DUP5 LT PUSH1 0xB DUP5 LT AND OR ISZERO PUSH2 0x29F JUMPI DUP3 DUP3 EXP SWAP1 POP DUP4 DUP2 GT ISZERO PUSH2 0x29A JUMPI PUSH2 0x299 PUSH2 0x174 JUMP JUMPDEST JUMPDEST PUSH2 0x2C9 JUMP JUMPDEST PUSH2 0x2AC DUP5 DUP5 DUP5 PUSH1 0x1 PUSH2 0x1AD JUMP JUMPDEST SWAP3 POP SWAP1 POP DUP2 DUP5 DIV DUP2 GT ISZERO PUSH2 0x2C3 JUMPI PUSH2 0x2C2 PUSH2 0x174 JUMP JUMPDEST JUMPDEST DUP2 DUP2 MUL SWAP1 POP JUMPDEST SWAP4 SWAP3 POP POP POP JUMP JUMPDEST PUSH0 PUSH1 0xFF DUP3 AND SWAP1 POP SWAP2 SWAP1 POP JUMP JUMPDEST PUSH0 PUSH2 0x2E6 DUP3 PUSH2 0xBE JUMP JUMPDEST SWAP2 POP PUSH2 0x2F1 DUP4 PUSH2 0x2D0 JUMP JUMPDEST SWAP3 POP PUSH2 0x31E PUSH32 0xFFFFFFFFFFFFFFFFFFFFFFFFFFFFFFFFFFFFFFFFFFFFFFFFFFFFFFFFFFFFFFFF DUP5 DUP5 PUSH2 0x1FF JUMP JUMPDEST SWAP1 POP SWAP3 SWAP2 POP POP JUMP JUMPDEST PUSH0 PUSH2 0x330 DUP3 PUSH2 0xBE JUMP JUMPDEST SWAP2 POP PUSH2 0x33B DUP4 PUSH2 0xBE JUMP JUMPDEST SWAP3 POP DUP3 DUP3 ADD SWAP1 POP DUP1 DUP3 GT ISZERO PUSH2 0x353 JUMPI PUSH2 0x352 PUSH2 0x174 JUMP JUMPDEST JUMPDEST SWAP3 SWAP2 POP POP JUMP JUMPDEST PUSH0 PUSH2 0x363 DUP3 PUSH2 0xBE JUMP JUMPDEST SWAP2 POP PUSH2 0x36E DUP4 PUSH2 0xBE JUMP JUMPDEST SWAP3 POP DUP3 DUP3 MUL PUSH2 0x37C DUP2 PUSH2 0xBE JUMP JUMPDEST SWAP2 POP DUP3 DUP3 DIV DUP5 EQ DUP4 ISZERO OR PUSH2 0x393 JUMPI PUSH2 0x392 PUSH2 0x174 JUMP JUMPDEST JUMPDEST POP SWAP3 SWAP2 POP POP JUMP INVALID LOG2 PUSH5 0x6970667358 0x22 SLT KECCAK256 0xD3 0xDA SLOAD SAR CHAINID ADDMOD 0xEE LOG4 0xF7 0xCA 0xB1 0xE3 0xE8 0xB5 LOG3 EQ ISZERO 0xCD 0xC 0x4F DUP7 XOR 0xC6 DUP12 SWAP2 OR PUSH7 0xED0B62B71C6473 PUSH16 0x6C634300081C00330000000000000000 "
		},
		"gasEstimates": {
			"creation": {
				"codeDepositCost": "195200",
				"executionCost": "236",
				"totalCost": "195436"
			},
			"external": {
				"check(uint256,uint256,uint256)": "infinite"
			}
		},
		"methodIdentifiers": {
			"check(uint256,uint256,uint256)": "4feb5714"
		}
	},
	"abi": [
		{
			"inputs": [
				{
					"internalType": "uint256",
					"name": "a",
					"type": "uint256"
				},
				{
					"internalType": "uint256",
					"name": "b",
					"type": "uint256"
				},
				{
					"internalType": "uint256",
					"name": "c",
					"type": "uint256"
				}
			],
			"name": "check",
			"outputs": [
				{
					"internalType": "bool",
					"name": "",
					"type": "bool"
				}
			],
			"stateMutability": "pure",
			"type": "function"
		}
	]
}