{
	"data": {
		"bytecode": {
			"linkReferences": {},
			"object": "6080604052348015600e575f5ffd5b506102288061001c5f395ff3fe608060405234801561000f575f5ffd5b5060043610610029575f3560e01c80634feb57141461002d575b5f5ffd5b6100476004803603810190610042919061010f565b61005d565b6040516100549190610179565b60405180910390f35b5f5f8411158061006d57505f8311155b8061007857505f8211155b15610085575f90506100d1565b81838561009291906101bf565b1180156100a957508382846100a791906101bf565b115b80156100bf57508284836100bd91906101bf565b115b156100cd57600190506100d1565b5f90505b9392505050565b5f5ffd5b5f819050919050565b6100ee816100dc565b81146100f8575f5ffd5b50565b5f81359050610109816100e5565b92915050565b5f5f5f60608486031215610126576101256100d8565b5b5f610133868287016100fb565b9350506020610144868287016100fb565b9250506040610155868287016100fb565b9150509250925092565b5f8115159050919050565b6101738161015f565b82525050565b5f60208201905061018c5f83018461016a565b92915050565b7f4e487b71000000000000000000000000000000000000000000000000000000005f52601160045260245ffd5b5f6101c9826100dc565b91506101d4836100dc565b92508282019050808211156101ec576101eb610192565b5b9291505056fea2646970667358221220aceece4b849bbcadd9085ab9e1bf6abbc26e095ff58a493db8fa1ccf48366a2d64736f6c634300081c0033",
			"opcodes": "PUSH1 0x80 PUSH1 0x40 MSTORE CALLVALUE DUP1 ISZERO PUSH1 0xE JUMPI PUSH0 PUSH0 REVERT JUMPDEST POP PUSH2 0x228 DUP1 PUSH2 0x1C PUSH0 CODECOPY PUSH0 RETURN INVALID PUSH1 0x80 PUSH1 0x40 MSTORE CALLVALUE DUP1 ISZERO PUSH2 0xF JUMPI PUSH0 PUSH0 REVERT JUMPDEST POP PUSH1 0x4 CALLDATASIZE LT PUSH2 0x29 JUMPI PUSH0 CALLDATALOAD PUSH1 0xE0 SHR DUP1 PUSH4 0x4FEB5714 EQ PUSH2 0x2D JUMPI JUMPDEST PUSH0 PUSH0 REVERT JUMPDEST PUSH2 0x47 PUSH1 0x4 DUP1 CALLDATASIZE SUB DUP2 ADD SWAP1 PUSH2 0x42 SWAP2 SWAP1 PUSH2 0x10F JUMP JUMPDEST PUSH2 0x5D JUMP JUMPDEST PUSH1 0x40 MLOAD PUSH2 0x54 SWAP2 SWAP1 PUSH2 0x179 JUMP JUMPDEST PUSH1 0x40 MLOAD DUP1 SWAP2 SUB SWAP1 RETURN JUMPDEST PUSH0 PUSH0 DUP5 GT ISZERO DUP1 PUSH2 0x6D JUMPI POP PUSH0 DUP4 GT ISZERO JUMPDEST DUP1 PUSH2 0x78 JUMPI POP PUSH0 DUP3 GT ISZERO JUMPDEST ISZERO PUSH2 0x85 JUMPI PUSH0 SWAP1 POP PUSH2 0xD1 JUMP JUMPDEST DUP2 DUP4 DUP6 PUSH2 0x92 SWAP2 SWAP1 PUSH2 0x1BF JUMP JUMPDEST GT DUP1 ISZERO PUSH2 0xA9 JUMPI POP DUP4 DUP3 DUP5 PUSH2 0xA7 SWAP2 SWAP1 PUSH2 0x1BF JUMP JUMPDEST GT JUMPDEST DUP1 ISZERO PUSH2 0xBF JUMPI POP DUP3 DUP5 DUP4 PUSH2 0xBD SWAP2 SWAP1 PUSH2 0x1BF JUMP JUMPDEST GT JUMPDEST ISZERO PUSH2 0xCD JUMPI PUSH1 0x1 SWAP1 POP PUSH2 0xD1 JUMP JUMPDEST PUSH0 SWAP1 POP JUMPDEST SWAP4 SWAP3 POP POP POP JUMP JUMPDEST PUSH0 PUSH0 REVERT JUMPDEST PUSH0 DUP2 SWAP1 POP SWAP2 SWAP1 POP JUMP JUMPDEST PUSH2 0xEE DUP2 PUSH2 0xDC JUMP JUMPDEST DUP2 EQ PUSH2 0xF8 JUMPI PUSH0 PUSH0 REVERT JUMPDEST POP JUMP JUMPDEST PUSH0 DUP2 CALLDATALOAD SWAP1 POP PUSH2 0x109 DUP2 PUSH2 0xE5 JUMP JUMPDEST SWAP3 SWAP2 POP POP JUMP JUMPDEST PUSH0 PUSH0 PUSH0 PUSH1 0x60 DUP5 DUP7 SUB SLT ISZERO PUSH2 0x126 JUMPI PUSH2 0x125 PUSH2 0xD8 JUMP JUMPDEST JUMPDEST PUSH0 PUSH2 0x133 DUP7 DUP3 DUP8 ADD PUSH2 0xFB JUMP JUMPDEST SWAP4 POP POP PUSH1 0x20 PUSH2 0x144 DUP7 DUP3 DUP8 ADD PUSH2 0xFB JUMP JUMPDEST SWAP3 POP POP PUSH1 0x40 PUSH2 0x155 DUP7 DUP3 DUP8 ADD PUSH2 0xFB JUMP JUMPDEST SWAP2 POP POP SWAP3 POP SWAP3 POP SWAP3 JUMP JUMPDEST PUSH0 DUP2 ISZERO ISZERO SWAP1 POP SWAP2 SWAP1 POP JUMP JUMPDEST PUSH2 0x173 DUP2 PUSH2 0x15F JUMP JUMPDEST DUP3 MSTORE POP POP JUMP JUMPDEST PUSH0 PUSH1 0x20 DUP3 ADD SWAP1 POP PUSH2 0x18C PUSH0 DUP4 ADD DUP5 PUSH2 0x16A JUMP JUMPDEST SWAP3 SWAP2 POP POP JUMP JUMPDEST PUSH32 0x4E487B7100000000000000000000000000000000000000000000000000000000 PUSH0 MSTORE PUSH1 0x11 PUSH1 0x4 MSTORE PUSH1 0x24 PUSH0 REVERT JUMPDEST PUSH0 PUSH2 0x1C9 DUP3 PUSH2 0xDC JUMP JUMPDEST SWAP2 POP PUSH2 0x1D4 DUP4 PUSH2 0xDC JUMP JUMPDEST SWAP3 POP DUP3 DUP3 ADD SWAP1 POP DUP1 DUP3 GT ISZERO PUSH2 0x1EC JUMPI PUSH2 0x1EB PUSH2 0x192 JUMP JUMPDEST JUMPDEST SWAP3 SWAP2 POP POP JUMP INVALID LOG2 PUSH5 0x6970667358 0x22 SLT KECCAK256 0xAC 0xEE 0xCE 0x4B DUP5 SWAP12 0xBC 0xAD 0xD9 ADDMOD GAS 0xB9 0xE1 0xBF PUSH11 0xBBC26E095FF58A493DB8FA SHR 0xCF BASEFEE CALLDATASIZE PUSH11 0x2D64736F6C634300081C00 CALLER "
		},
		"gasEstimates": {
			"creation": {
				"codeDepositCost": "110400",
				"executionCost": "157",
				"totalCost": "110557"
			},
			"external": {
				"check(uint256,uint256,uint256)": "infinite"
			}
		},
		"methodIdentifiers": {
			"check(uint256,uint256,uint256)": "4feb5714"
		}
	},
	"abi": [
		{
			"inputs": [
				{
					"internalType": "uint256",
					"name": "a",
					"type": "uint256"
				},
				{
					"internalType": "uint256",
					"name": "b",
					"type": "uint256"
				},
				{
					"internalType": "uint256",
					"name": "c",
					"type": "uint256"
				}
			],
			"name": "check",
			"outputs": [
				{
					"internalType": "bool",
					"name": "",
					"type": "bool"
				}
			],
			"stateMutability": "pure",
			"type": "function"
		}
	]
}