{
	"data": {
		"bytecode": {
			"linkReferences": {},
			"object": "6080604052348015600e575f5ffd5b506103b38061001c5f395ff3fe608060405234801561000f575f5ffd5b5060043610610029575f3560e01c806366df6d081461002d575b5f5ffd5b6100476004803603810190610042919061013e565b61005d565b60405161005491906101d9565b60405180910390f35b60605f60405180602001604052805f81525090505f600190505b8381116100fd575f8490505b8181116100bf578260405160200161009b919061027d565b604051602081830303815290604052925080806100b7906102cb565b915050610083565b508381146100ea57816040516020016100d8919061035c565b60405160208183030381529060405291505b80806100f5906102cb565b915050610077565b5080915050919050565b5f5ffd5b5f819050919050565b61011d8161010b565b8114610127575f5ffd5b50565b5f8135905061013881610114565b92915050565b5f6020828403121561015357610152610107565b5b5f6101608482850161012a565b91505092915050565b5f81519050919050565b5f82825260208201905092915050565b8281835e5f83830152505050565b5f601f19601f8301169050919050565b5f6101ab82610169565b6101b58185610173565b93506101c5818560208601610183565b6101ce81610191565b840191505092915050565b5f6020820190508181035f8301526101f181846101a1565b905092915050565b5f81905092915050565b5f61020d82610169565b61021781856101f9565b9350610227818560208601610183565b80840191505092915050565b7f2a000000000000000000000000000000000000000000000000000000000000005f82015250565b5f6102676001836101f9565b915061027282610233565b600182019050919050565b5f6102888284610203565b91506102938261025b565b915081905092915050565b7f4e487b71000000000000000000000000000000000000000000000000000000005f52601160045260245ffd5b5f6102d58261010b565b91507fffffffffffffffffffffffffffffffffffffffffffffffffffffffffffffffff82036103075761030661029e565b5b600182019050919050565b7f0a000000000000000000000000000000000000000000000000000000000000005f82015250565b5f6103466001836101f9565b915061035182610312565b600182019050919050565b5f6103678284610203565b91506103728261033a565b91508190509291505056fea2646970667358221220543baed56419f1e13db6129a0a4e6054149068cec1634d640f8801c293b4056664736f6c634300081c0033",
			"opcodes": "PUSH1 0x80 PUSH1 0x40 MSTORE CALLVALUE DUP1 ISZERO PUSH1 0xE JUMPI PUSH0 PUSH0 REVERT JUMPDEST POP PUSH2 0x3B3 DUP1 PUSH2 0x1C PUSH0 CODECOPY PUSH0 RETURN INVALID PUSH1 0x80 PUSH1 0x40 MSTORE CALLVALUE DUP1 ISZERO PUSH2 0xF JUMPI PUSH0 PUSH0 REVERT JUMPDEST POP PUSH1 0x4 CALLDATASIZE LT PUSH2 0x29 JUMPI PUSH0 CALLDATALOAD PUSH1 0xE0 SHR DUP1 PUSH4 0x66DF6D08 EQ PUSH2 0x2D JUMPI JUMPDEST PUSH0 PUSH0 REVERT JUMPDEST PUSH2 0x47 PUSH1 0x4 DUP1 CALLDATASIZE SUB DUP2 ADD SWAP1 PUSH2 0x42 SWAP2 SWAP1 PUSH2 0x13E JUMP JUMPDEST PUSH2 0x5D JUMP JUMPDEST PUSH1 0x40 MLOAD PUSH2 0x54 SWAP2 SWAP1 PUSH2 0x1D9 JUMP JUMPDEST PUSH1 0x40 MLOAD DUP1 SWAP2 SUB SWAP1 RETURN JUMPDEST PUSH1 0x60 PUSH0 PUSH1 0x40 MLOAD DUP1 PUSH1 0x20 ADD PUSH1 0x40 MSTORE DUP1 PUSH0 DUP2 MSTORE POP SWAP1 POP PUSH0 PUSH1 0x1 SWAP1 POP JUMPDEST DUP4 DUP2 GT PUSH2 0xFD JUMPI PUSH0 DUP5 SWAP1 POP JUMPDEST DUP2 DUP2 GT PUSH2 0xBF JUMPI DUP3 PUSH1 0x40 MLOAD PUSH1 0x20 ADD PUSH2 0x9B SWAP2 SWAP1 PUSH2 0x27D JUMP JUMPDEST PUSH1 0x40 MLOAD PUSH1 0x20 DUP2 DUP4 SUB SUB DUP2 MSTORE SWAP1 PUSH1 0x40 MSTORE SWAP3 POP DUP1 DUP1 PUSH2 0xB7 SWAP1 PUSH2 0x2CB JUMP JUMPDEST SWAP2 POP POP PUSH2 0x83 JUMP JUMPDEST POP DUP4 DUP2 EQ PUSH2 0xEA JUMPI DUP2 PUSH1 0x40 MLOAD PUSH1 0x20 ADD PUSH2 0xD8 SWAP2 SWAP1 PUSH2 0x35C JUMP JUMPDEST PUSH1 0x40 MLOAD PUSH1 0x20 DUP2 DUP4 SUB SUB DUP2 MSTORE SWAP1 PUSH1 0x40 MSTORE SWAP2 POP JUMPDEST DUP1 DUP1 PUSH2 0xF5 SWAP1 PUSH2 0x2CB JUMP JUMPDEST SWAP2 POP POP PUSH2 0x77 JUMP JUMPDEST POP DUP1 SWAP2 POP POP SWAP2 SWAP1 POP JUMP JUMPDEST PUSH0 PUSH0 REVERT JUMPDEST PUSH0 DUP2 SWAP1 POP SWAP2 SWAP1 POP JUMP JUMPDEST PUSH2 0x11D DUP2 PUSH2 0x10B JUMP JUMPDEST DUP2 EQ PUSH2 0x127 JUMPI PUSH0 PUSH0 REVERT JUMPDEST POP JUMP JUMPDEST PUSH0 DUP2 CALLDATALOAD SWAP1 POP PUSH2 0x138 DUP2 PUSH2 0x114 JUMP JUMPDEST SWAP3 SWAP2 POP POP JUMP JUMPDEST PUSH0 PUSH1 0x20 DUP3 DUP5 SUB SLT ISZERO PUSH2 0x153 JUMPI PUSH2 0x152 PUSH2 0x107 JUMP JUMPDEST JUMPDEST PUSH0 PUSH2 0x160 DUP5 DUP3 DUP6 ADD PUSH2 0x12A JUMP JUMPDEST SWAP2 POP POP SWAP3 SWAP2 POP POP JUMP JUMPDEST PUSH0 DUP2 MLOAD SWAP1 POP SWAP2 SWAP1 POP JUMP JUMPDEST PUSH0 DUP3 DUP3 MSTORE PUSH1 0x20 DUP3 ADD SWAP1 POP SWAP3 SWAP2 POP POP JUMP JUMPDEST DUP3 DUP2 DUP4 MCOPY PUSH0 DUP4 DUP4 ADD MSTORE POP POP POP JUMP JUMPDEST PUSH0 PUSH1 0x1F NOT PUSH1 0x1F DUP4 ADD AND SWAP1 POP SWAP2 SWAP1 POP JUMP JUMPDEST PUSH0 PUSH2 0x1AB DUP3 PUSH2 0x169 JUMP JUMPDEST PUSH2 0x1B5 DUP2 DUP6 PUSH2 0x173 JUMP JUMPDEST SWAP4 POP PUSH2 0x1C5 DUP2 DUP6 PUSH1 0x20 DUP7 ADD PUSH2 0x183 JUMP JUMPDEST PUSH2 0x1CE DUP2 PUSH2 0x191 JUMP JUMPDEST DUP5 ADD SWAP2 POP POP SWAP3 SWAP2 POP POP JUMP JUMPDEST PUSH0 PUSH1 0x20 DUP3 ADD SWAP1 POP DUP2 DUP2 SUB PUSH0 DUP4 ADD MSTORE PUSH2 0x1F1 DUP2 DUP5 PUSH2 0x1A1 JUMP JUMPDEST SWAP1 POP SWAP3 SWAP2 POP POP JUMP JUMPDEST PUSH0 DUP2 SWAP1 POP SWAP3 SWAP2 POP POP JUMP JUMPDEST PUSH0 PUSH2 0x20D DUP3 PUSH2 0x169 JUMP JUMPDEST PUSH2 0x217 DUP2 DUP6 PUSH2 0x1F9 JUMP JUMPDEST SWAP4 POP PUSH2 0x227 DUP2 DUP6 PUSH1 0x20 DUP7 ADD PUSH2 0x183 JUMP JUMPDEST DUP1 DUP5 ADD SWAP2 POP POP SWAP3 SWAP2 POP POP JUMP JUMPDEST PUSH32 0x2A00000000000000000000000000000000000000000000000000000000000000 PUSH0 DUP3 ADD MSTORE POP JUMP JUMPDEST PUSH0 PUSH2 0x267 PUSH1 0x1 DUP4 PUSH2 0x1F9 JUMP JUMPDEST SWAP2 POP PUSH2 0x272 DUP3 PUSH2 0x233 JUMP JUMPDEST PUSH1 0x1 DUP3 ADD SWAP1 POP SWAP2 SWAP1 POP JUMP JUMPDEST PUSH0 PUSH2 0x288 DUP3 DUP5 PUSH2 0x203 JUMP JUMPDEST SWAP2 POP PUSH2 0x293 DUP3 PUSH2 0x25B JUMP JUMPDEST SWAP2 POP DUP2 SWAP1 POP SWAP3 SWAP2 POP POP JUMP JUMPDEST PUSH32 0x4E487B7100000000000000000000000000000000000000000000000000000000 PUSH0 MSTORE PUSH1 0x11 PUSH1 0x4 MSTORE PUSH1 0x24 PUSH0 REVERT JUMPDEST PUSH0 PUSH2 0x2D5 DUP3 PUSH2 0x10B JUMP JUMPDEST SWAP2 POP PUSH32 0xFFFFFFFFFFFFFFFFFFFFFFFFFFFFFFFFFFFFFFFFFFFFFFFFFFFFFFFFFFFFFFFF DUP3 SUB PUSH2 0x307 JUMPI PUSH2 0x306 PUSH2 0x29E JUMP JUMPDEST JUMPDEST PUSH1 0x1 DUP3 ADD SWAP1 POP SWAP2 SWAP1 POP JUMP JUMPDEST PUSH32 0xA00000000000000000000000000000000000000000000000000000000000000 PUSH0 DUP3 ADD MSTORE POP JUMP JUMPDEST PUSH0 PUSH2 0x346 PUSH1 0x1 DUP4 PUSH2 0x1F9 JUMP JUMPDEST SWAP2 POP PUSH2 0x351 DUP3 PUSH2 0x312 JUMP JUMPDEST PUSH1 0x1 DUP3 ADD SWAP1 POP SWAP2 SWAP1 POP JUMP JUMPDEST PUSH0 PUSH2 0x367 DUP3 DUP5 PUSH2 0x203 JUMP JUMPDEST SWAP2 POP PUSH2 0x372 DUP3 PUSH2 0x33A JUMP JUMPDEST SWAP2 POP DUP2 SWAP1 POP SWAP3 SWAP2 POP POP JUMP INVALID LOG2 PUSH5 0x6970667358 0x22 SLT KECCAK256 SLOAD EXTCODESIZE 0xAE 0xD5 PUSH5 0x19F1E13DB6 SLT SWAP11 EXP 0x4E PUSH1 0x54 EQ SWAP1 PUSH9 0xCEC1634D640F8801C2 SWAP4 0xB4 SDIV PUSH7 0x64736F6C634300 ADDMOD SHR STOP CALLER "
		},
		"gasEstimates": {
			"creation": {
				"codeDepositCost": "189400",
				"executionCost": "230",
				"totalCost": "189630"
			},
			"external": {
				"countNonZero(uint256)": "infinite"
			}
		},
		"methodIdentifiers": {
			"countNonZero(uint256)": "66df6d08"
		}
	},
	"abi": [
		{
			"inputs": [
				{
					"internalType": "uint256",
					"name": "n",
					"type": "uint256"
				}
			],
			"name": "countNonZero",
			"outputs": [
				{
					"internalType": "string",
					"name": "",
					"type": "string"
				}
			],
			"stateMutability": "pure",
			"type": "function"
		}
	]
}