{
	"contracts/PRACTICE/Basic Team Registration.sol": {
		"Team": {
			"abi": [
				{
					"inputs": [
						{
							"internalType": "int256",
							"name": "playerAddress",
							"type": "int256"
						},
						{
							"internalType": "uint256",
							"name": "jerseyNumber",
							"type": "uint256"
						}
					],
					"name": "addPlayer",
					"outputs": [],
					"stateMutability": "nonpayable",
					"type": "function"
				},
				{
					"inputs": [],
					"name": "getTeamPlayers",
					"outputs": [
						{
							"internalType": "int256[16]",
							"name": "",
							"type": "int256[16]"
						}
					],
					"stateMutability": "view",
					"type": "function"
				},
				{
					"inputs": [],
					"name": "initializeTeam",
					"outputs": [],
					"stateMutability": "nonpayable",
					"type": "function"
				},
				{
					"inputs": [
						{
							"internalType": "uint256",
							"name": "jerseyNumber",
							"type": "uint256"
						}
					],
					"name": "removePlayer",
					"outputs": [],
					"stateMutability": "nonpayable",
					"type": "function"
				},
				{
					"inputs": [
						{
							"internalType": "uint256",
							"name": "jerseyNumber",
							"type": "uint256"
						}
					],
					"name": "selectJerseyNumber",
					"outputs": [
						{
							"internalType": "int256",
							"name": "",
							"type": "int256"
						}
					],
					"stateMutability": "view",
					"type": "function"
				},
				{
					"inputs": [
						{
							"internalType": "uint256",
							"name": "",
							"type": "uint256"
						}
					],
					"name": "teamPlayers",
					"outputs": [
						{
							"internalType": "int256",
							"name": "",
							"type": "int256"
						}
					],
					"stateMutability": "view",
					"type": "function"
				},
				{
					"inputs": [
						{
							"internalType": "int256",
							"name": "newAddress",
							"type": "int256"
						},
						{
							"internalType": "uint256",
							"name": "jerseyNumber",
							"type": "uint256"
						}
					],
					"name": "updatePlayerAddress",
					"outputs": [],
					"stateMutability": "nonpayable",
					"type": "function"
				}
			],
			"devdoc": {
				"kind": "dev",
				"methods": {},
				"version": 1
			},
			"evm": {
				"assembly": "    /* \"contracts/PRACTICE/Basic Team Registration.sol\":60:1364  contract Team {... */\n  mstore(0x40, 0x80)\n  callvalue\n  dup1\n  iszero\n  tag_1\n  jumpi\n  revert(0x00, 0x00)\ntag_1:\n  pop\n  dataSize(sub_0)\n  dup1\n  dataOffset(sub_0)\n  0x00\n  codecopy\n  0x00\n  return\nstop\n\nsub_0: assembly {\n        /* \"contracts/PRACTICE/Basic Team Registration.sol\":60:1364  contract Team {... */\n      mstore(0x40, 0x80)\n      callvalue\n      dup1\n      iszero\n      tag_1\n      jumpi\n      revert(0x00, 0x00)\n    tag_1:\n      pop\n      jumpi(tag_2, lt(calldatasize, 0x04))\n      shr(0xe0, calldataload(0x00))\n      dup1\n      0xa04fa049\n      gt\n      tag_10\n      jumpi\n      dup1\n      0xa04fa049\n      eq\n      tag_6\n      jumpi\n      dup1\n      0xa87b9e52\n      eq\n      tag_7\n      jumpi\n      dup1\n      0xbc975512\n      eq\n      tag_8\n      jumpi\n      dup1\n      0xfa530409\n      eq\n      tag_9\n      jumpi\n      jump(tag_2)\n    tag_10:\n      dup1\n      0x2d4a9892\n      eq\n      tag_3\n      jumpi\n      dup1\n      0x30244cbf\n      eq\n      tag_4\n      jumpi\n      dup1\n      0x9697f8ab\n      eq\n      tag_5\n      jumpi\n    tag_2:\n      revert(0x00, 0x00)\n        /* \"contracts/PRACTICE/Basic Team Registration.sol\":569:832  function addPlayer(int playerAddress, uint jerseyNumber) public {... */\n    tag_3:\n      tag_11\n      0x04\n      dup1\n      calldatasize\n      sub\n      dup2\n      add\n      swap1\n      tag_12\n      swap2\n      swap1\n      tag_13\n      jump\t// in\n    tag_12:\n      tag_14\n      jump\t// in\n    tag_11:\n      stop\n        /* \"contracts/PRACTICE/Basic Team Registration.sol\":83:109  int[16] public teamPlayers */\n    tag_4:\n      tag_15\n      0x04\n      dup1\n      calldatasize\n      sub\n      dup2\n      add\n      swap1\n      tag_16\n      swap2\n      swap1\n      tag_17\n      jump\t// in\n    tag_16:\n      tag_18\n      jump\t// in\n    tag_15:\n      mload(0x40)\n      tag_19\n      swap2\n      swap1\n      tag_20\n      jump\t// in\n    tag_19:\n      mload(0x40)\n      dup1\n      swap2\n      sub\n      swap1\n      return\n        /* \"contracts/PRACTICE/Basic Team Registration.sol\":375:560  function selectJerseyNumber(uint jerseyNumber) public view returns (int) {... */\n    tag_5:\n      tag_21\n      0x04\n      dup1\n      calldatasize\n      sub\n      dup2\n      add\n      swap1\n      tag_22\n      swap2\n      swap1\n      tag_17\n      jump\t// in\n    tag_22:\n      tag_23\n      jump\t// in\n    tag_21:\n      mload(0x40)\n      tag_24\n      swap2\n      swap1\n      tag_20\n      jump\t// in\n    tag_24:\n      mload(0x40)\n      dup1\n      swap2\n      sub\n      swap1\n      return\n        /* \"contracts/PRACTICE/Basic Team Registration.sol\":269:367  function getTeamPlayers() public view returns (int[16] memory) {... */\n    tag_6:\n      tag_25\n      tag_26\n      jump\t// in\n    tag_25:\n      mload(0x40)\n      tag_27\n      swap2\n      swap1\n      tag_28\n      jump\t// in\n    tag_27:\n      mload(0x40)\n      dup1\n      swap2\n      sub\n      swap1\n      return\n        /* \"contracts/PRACTICE/Basic Team Registration.sol\":1092:1361  function updatePlayerAddress(int newAddress, uint jerseyNumber) public {... */\n    tag_7:\n      tag_29\n      0x04\n      dup1\n      calldatasize\n      sub\n      dup2\n      add\n      swap1\n      tag_30\n      swap2\n      swap1\n      tag_13\n      jump\t// in\n    tag_30:\n      tag_31\n      jump\t// in\n    tag_29:\n      stop\n        /* \"contracts/PRACTICE/Basic Team Registration.sol\":841:1083  function removePlayer(uint jerseyNumber) public {... */\n    tag_8:\n      tag_32\n      0x04\n      dup1\n      calldatasize\n      sub\n      dup2\n      add\n      swap1\n      tag_33\n      swap2\n      swap1\n      tag_17\n      jump\t// in\n    tag_33:\n      tag_34\n      jump\t// in\n    tag_32:\n      stop\n        /* \"contracts/PRACTICE/Basic Team Registration.sol\":118:261  function initializeTeam() public {... */\n    tag_9:\n      tag_35\n      tag_36\n      jump\t// in\n    tag_35:\n      stop\n        /* \"contracts/PRACTICE/Basic Team Registration.sol\":569:832  function addPlayer(int playerAddress, uint jerseyNumber) public {... */\n    tag_14:\n        /* \"contracts/PRACTICE/Basic Team Registration.sol\":666:668  16 */\n      0x10\n        /* \"contracts/PRACTICE/Basic Team Registration.sol\":653:665  jerseyNumber */\n      dup2\n        /* \"contracts/PRACTICE/Basic Team Registration.sol\":653:668  jerseyNumber<16 */\n      lt\n        /* \"contracts/PRACTICE/Basic Team Registration.sol\":644:693  require (jerseyNumber<16,\"invalid Jersey Number\") */\n      tag_38\n      jumpi\n      mload(0x40)\n      0x08c379a000000000000000000000000000000000000000000000000000000000\n      dup2\n      mstore\n      0x04\n      add\n      tag_39\n      swap1\n      tag_40\n      jump\t// in\n    tag_39:\n      mload(0x40)\n      dup1\n      swap2\n      sub\n      swap1\n      revert\n    tag_38:\n        /* \"contracts/PRACTICE/Basic Team Registration.sol\":741:743  -1 */\n      0xffffffffffffffffffffffffffffffffffffffffffffffffffffffffffffffff\n        /* \"contracts/PRACTICE/Basic Team Registration.sol\":712:723  teamPlayers */\n      0x00\n        /* \"contracts/PRACTICE/Basic Team Registration.sol\":724:736  jerseyNumber */\n      dup3\n        /* \"contracts/PRACTICE/Basic Team Registration.sol\":712:737  teamPlayers[jerseyNumber] */\n      0x10\n      dup2\n      lt\n      tag_41\n      jumpi\n      tag_42\n      tag_43\n      jump\t// in\n    tag_42:\n    tag_41:\n      add\n      sload\n        /* \"contracts/PRACTICE/Basic Team Registration.sol\":712:743  teamPlayers[jerseyNumber] == -1 */\n      eq\n        /* \"contracts/PRACTICE/Basic Team Registration.sol\":704:776  require(teamPlayers[jerseyNumber] == -1, \"Jersey number already taken.\") */\n      tag_45\n      jumpi\n      mload(0x40)\n      0x08c379a000000000000000000000000000000000000000000000000000000000\n      dup2\n      mstore\n      0x04\n      add\n      tag_46\n      swap1\n      tag_47\n      jump\t// in\n    tag_46:\n      mload(0x40)\n      dup1\n      swap2\n      sub\n      swap1\n      revert\n    tag_45:\n        /* \"contracts/PRACTICE/Basic Team Registration.sol\":811:824  playerAddress */\n      dup2\n        /* \"contracts/PRACTICE/Basic Team Registration.sol\":783:794  teamPlayers */\n      0x00\n        /* \"contracts/PRACTICE/Basic Team Registration.sol\":795:807  jerseyNumber */\n      dup3\n        /* \"contracts/PRACTICE/Basic Team Registration.sol\":783:808  teamPlayers[jerseyNumber] */\n      0x10\n      dup2\n      lt\n      tag_48\n      jumpi\n      tag_49\n      tag_43\n      jump\t// in\n    tag_49:\n    tag_48:\n      add\n        /* \"contracts/PRACTICE/Basic Team Registration.sol\":783:824  teamPlayers[jerseyNumber] = playerAddress */\n      dup2\n      swap1\n      sstore\n      pop\n        /* \"contracts/PRACTICE/Basic Team Registration.sol\":569:832  function addPlayer(int playerAddress, uint jerseyNumber) public {... */\n      pop\n      pop\n      jump\t// out\n        /* \"contracts/PRACTICE/Basic Team Registration.sol\":83:109  int[16] public teamPlayers */\n    tag_18:\n      0x00\n      dup2\n      0x10\n      dup2\n      lt\n      tag_51\n      jumpi\n      0x00\n      dup1\n      revert\n    tag_51:\n      add\n      0x00\n      swap2\n      pop\n      swap1\n      pop\n      sload\n      dup2\n      jump\t// out\n        /* \"contracts/PRACTICE/Basic Team Registration.sol\":375:560  function selectJerseyNumber(uint jerseyNumber) public view returns (int) {... */\n    tag_23:\n        /* \"contracts/PRACTICE/Basic Team Registration.sol\":443:446  int */\n      0x00\n        /* \"contracts/PRACTICE/Basic Team Registration.sol\":481:483  16 */\n      0x10\n        /* \"contracts/PRACTICE/Basic Team Registration.sol\":468:480  jerseyNumber */\n      dup3\n        /* \"contracts/PRACTICE/Basic Team Registration.sol\":468:483  jerseyNumber<16 */\n      lt\n        /* \"contracts/PRACTICE/Basic Team Registration.sol\":459:508  require (jerseyNumber<16,\"invalid Jersey Number\") */\n      tag_54\n      jumpi\n      mload(0x40)\n      0x08c379a000000000000000000000000000000000000000000000000000000000\n      dup2\n      mstore\n      0x04\n      add\n      tag_55\n      swap1\n      tag_40\n      jump\t// in\n    tag_55:\n      mload(0x40)\n      dup1\n      swap2\n      sub\n      swap1\n      revert\n    tag_54:\n        /* \"contracts/PRACTICE/Basic Team Registration.sol\":526:537  teamPlayers */\n      0x00\n        /* \"contracts/PRACTICE/Basic Team Registration.sol\":538:550  jerseyNumber */\n      dup3\n        /* \"contracts/PRACTICE/Basic Team Registration.sol\":526:551  teamPlayers[jerseyNumber] */\n      0x10\n      dup2\n      lt\n      tag_56\n      jumpi\n      tag_57\n      tag_43\n      jump\t// in\n    tag_57:\n    tag_56:\n      add\n      sload\n        /* \"contracts/PRACTICE/Basic Team Registration.sol\":519:551  return teamPlayers[jerseyNumber] */\n      swap1\n      pop\n        /* \"contracts/PRACTICE/Basic Team Registration.sol\":375:560  function selectJerseyNumber(uint jerseyNumber) public view returns (int) {... */\n      swap2\n      swap1\n      pop\n      jump\t// out\n        /* \"contracts/PRACTICE/Basic Team Registration.sol\":269:367  function getTeamPlayers() public view returns (int[16] memory) {... */\n    tag_26:\n        /* \"contracts/PRACTICE/Basic Team Registration.sol\":316:330  int[16] memory */\n      tag_59\n      tag_60\n      jump\t// in\n    tag_59:\n        /* \"contracts/PRACTICE/Basic Team Registration.sol\":348:359  teamPlayers */\n      0x00\n        /* \"contracts/PRACTICE/Basic Team Registration.sol\":341:359  return teamPlayers */\n      0x10\n      dup1\n      0x20\n      mul\n      mload(0x40)\n      swap1\n      dup2\n      add\n      0x40\n      mstore\n      dup1\n      swap3\n      swap2\n      swap1\n      dup3\n      0x10\n      dup1\n      iszero\n      tag_62\n      jumpi\n      0x20\n      mul\n      dup3\n      add\n      swap2\n    tag_63:\n      dup2\n      sload\n      dup2\n      mstore\n      0x20\n      add\n      swap1\n      0x01\n      add\n      swap1\n      dup1\n      dup4\n      gt\n      tag_63\n      jumpi\n    tag_62:\n      pop\n      pop\n      pop\n      pop\n      pop\n      swap1\n      pop\n        /* \"contracts/PRACTICE/Basic Team Registration.sol\":269:367  function getTeamPlayers() public view returns (int[16] memory) {... */\n      swap1\n      jump\t// out\n        /* \"contracts/PRACTICE/Basic Team Registration.sol\":1092:1361  function updatePlayerAddress(int newAddress, uint jerseyNumber) public {... */\n    tag_31:\n        /* \"contracts/PRACTICE/Basic Team Registration.sol\":1199:1201  16 */\n      0x10\n        /* \"contracts/PRACTICE/Basic Team Registration.sol\":1184:1196  jerseyNumber */\n      dup2\n        /* \"contracts/PRACTICE/Basic Team Registration.sol\":1184:1201  jerseyNumber < 16 */\n      lt\n        /* \"contracts/PRACTICE/Basic Team Registration.sol\":1176:1228  require(jerseyNumber < 16, \"Invalid jersey number.\") */\n      tag_65\n      jumpi\n      mload(0x40)\n      0x08c379a000000000000000000000000000000000000000000000000000000000\n      dup2\n      mstore\n      0x04\n      add\n      tag_66\n      swap1\n      tag_67\n      jump\t// in\n    tag_66:\n      mload(0x40)\n      dup1\n      swap2\n      sub\n      swap1\n      revert\n    tag_65:\n        /* \"contracts/PRACTICE/Basic Team Registration.sol\":1279:1281  -1 */\n      0xffffffffffffffffffffffffffffffffffffffffffffffffffffffffffffffff\n        /* \"contracts/PRACTICE/Basic Team Registration.sol\":1250:1261  teamPlayers */\n      0x00\n        /* \"contracts/PRACTICE/Basic Team Registration.sol\":1262:1274  jerseyNumber */\n      dup3\n        /* \"contracts/PRACTICE/Basic Team Registration.sol\":1250:1275  teamPlayers[jerseyNumber] */\n      0x10\n      dup2\n      lt\n      tag_68\n      jumpi\n      tag_69\n      tag_43\n      jump\t// in\n    tag_69:\n    tag_68:\n      add\n      sload\n        /* \"contracts/PRACTICE/Basic Team Registration.sol\":1250:1281  teamPlayers[jerseyNumber] != -1 */\n      sub\n        /* \"contracts/PRACTICE/Basic Team Registration.sol\":1242:1306  require(teamPlayers[jerseyNumber] != -1, \"No player to update.\") */\n      tag_71\n      jumpi\n      mload(0x40)\n      0x08c379a000000000000000000000000000000000000000000000000000000000\n      dup2\n      mstore\n      0x04\n      add\n      tag_72\n      swap1\n      tag_73\n      jump\t// in\n    tag_72:\n      mload(0x40)\n      dup1\n      swap2\n      sub\n      swap1\n      revert\n    tag_71:\n        /* \"contracts/PRACTICE/Basic Team Registration.sol\":1341:1351  newAddress */\n      dup2\n        /* \"contracts/PRACTICE/Basic Team Registration.sol\":1313:1324  teamPlayers */\n      0x00\n        /* \"contracts/PRACTICE/Basic Team Registration.sol\":1325:1337  jerseyNumber */\n      dup3\n        /* \"contracts/PRACTICE/Basic Team Registration.sol\":1313:1338  teamPlayers[jerseyNumber] */\n      0x10\n      dup2\n      lt\n      tag_74\n      jumpi\n      tag_75\n      tag_43\n      jump\t// in\n    tag_75:\n    tag_74:\n      add\n        /* \"contracts/PRACTICE/Basic Team Registration.sol\":1313:1351  teamPlayers[jerseyNumber] = newAddress */\n      dup2\n      swap1\n      sstore\n      pop\n        /* \"contracts/PRACTICE/Basic Team Registration.sol\":1092:1361  function updatePlayerAddress(int newAddress, uint jerseyNumber) public {... */\n      pop\n      pop\n      jump\t// out\n        /* \"contracts/PRACTICE/Basic Team Registration.sol\":841:1083  function removePlayer(uint jerseyNumber) public {... */\n    tag_34:\n        /* \"contracts/PRACTICE/Basic Team Registration.sol\":924:926  16 */\n      0x10\n        /* \"contracts/PRACTICE/Basic Team Registration.sol\":909:921  jerseyNumber */\n      dup2\n        /* \"contracts/PRACTICE/Basic Team Registration.sol\":909:926  jerseyNumber < 16 */\n      lt\n        /* \"contracts/PRACTICE/Basic Team Registration.sol\":901:953  require(jerseyNumber < 16, \"Invalid jersey number.\") */\n      tag_78\n      jumpi\n      mload(0x40)\n      0x08c379a000000000000000000000000000000000000000000000000000000000\n      dup2\n      mstore\n      0x04\n      add\n      tag_79\n      swap1\n      tag_67\n      jump\t// in\n    tag_79:\n      mload(0x40)\n      dup1\n      swap2\n      sub\n      swap1\n      revert\n    tag_78:\n        /* \"contracts/PRACTICE/Basic Team Registration.sol\":997:999  -1 */\n      0xffffffffffffffffffffffffffffffffffffffffffffffffffffffffffffffff\n        /* \"contracts/PRACTICE/Basic Team Registration.sol\":968:979  teamPlayers */\n      0x00\n        /* \"contracts/PRACTICE/Basic Team Registration.sol\":980:992  jerseyNumber */\n      dup3\n        /* \"contracts/PRACTICE/Basic Team Registration.sol\":968:993  teamPlayers[jerseyNumber] */\n      0x10\n      dup2\n      lt\n      tag_80\n      jumpi\n      tag_81\n      tag_43\n      jump\t// in\n    tag_81:\n    tag_80:\n      add\n      sload\n        /* \"contracts/PRACTICE/Basic Team Registration.sol\":968:999  teamPlayers[jerseyNumber] != -1 */\n      sub\n        /* \"contracts/PRACTICE/Basic Team Registration.sol\":960:1036  require(teamPlayers[jerseyNumber] != -1, \"No player in this jersey number.\") */\n      tag_83\n      jumpi\n      mload(0x40)\n      0x08c379a000000000000000000000000000000000000000000000000000000000\n      dup2\n      mstore\n      0x04\n      add\n      tag_84\n      swap1\n      tag_85\n      jump\t// in\n    tag_84:\n      mload(0x40)\n      dup1\n      swap2\n      sub\n      swap1\n      revert\n    tag_83:\n        /* \"contracts/PRACTICE/Basic Team Registration.sol\":1072:1074  -1 */\n      0xffffffffffffffffffffffffffffffffffffffffffffffffffffffffffffffff\n        /* \"contracts/PRACTICE/Basic Team Registration.sol\":1044:1055  teamPlayers */\n      0x00\n        /* \"contracts/PRACTICE/Basic Team Registration.sol\":1056:1068  jerseyNumber */\n      dup3\n        /* \"contracts/PRACTICE/Basic Team Registration.sol\":1044:1069  teamPlayers[jerseyNumber] */\n      0x10\n      dup2\n      lt\n      tag_86\n      jumpi\n      tag_87\n      tag_43\n      jump\t// in\n    tag_87:\n    tag_86:\n      add\n        /* \"contracts/PRACTICE/Basic Team Registration.sol\":1044:1074  teamPlayers[jerseyNumber] = -1 */\n      dup2\n      swap1\n      sstore\n      pop\n        /* \"contracts/PRACTICE/Basic Team Registration.sol\":841:1083  function removePlayer(uint jerseyNumber) public {... */\n      pop\n      jump\t// out\n        /* \"contracts/PRACTICE/Basic Team Registration.sol\":118:261  function initializeTeam() public {... */\n    tag_36:\n        /* \"contracts/PRACTICE/Basic Team Registration.sol\":167:173  uint i */\n      0x00\n        /* \"contracts/PRACTICE/Basic Team Registration.sol\":176:177  0 */\n      0x00\n        /* \"contracts/PRACTICE/Basic Team Registration.sol\":167:177  uint i = 0 */\n      swap1\n      pop\n        /* \"contracts/PRACTICE/Basic Team Registration.sol\":162:254  for (uint i = 0; i < teamPlayers.length; i++) {... */\n    tag_90:\n        /* \"contracts/PRACTICE/Basic Team Registration.sol\":183:201  teamPlayers.length */\n      0x10\n        /* \"contracts/PRACTICE/Basic Team Registration.sol\":179:180  i */\n      dup2\n        /* \"contracts/PRACTICE/Basic Team Registration.sol\":179:201  i < teamPlayers.length */\n      lt\n        /* \"contracts/PRACTICE/Basic Team Registration.sol\":162:254  for (uint i = 0; i < teamPlayers.length; i++) {... */\n      iszero\n      tag_91\n      jumpi\n        /* \"contracts/PRACTICE/Basic Team Registration.sol\":240:242  -1 */\n      0xffffffffffffffffffffffffffffffffffffffffffffffffffffffffffffffff\n        /* \"contracts/PRACTICE/Basic Team Registration.sol\":223:234  teamPlayers */\n      0x00\n        /* \"contracts/PRACTICE/Basic Team Registration.sol\":235:236  i */\n      dup3\n        /* \"contracts/PRACTICE/Basic Team Registration.sol\":223:237  teamPlayers[i] */\n      0x10\n      dup2\n      lt\n      tag_93\n      jumpi\n      tag_94\n      tag_43\n      jump\t// in\n    tag_94:\n    tag_93:\n      add\n        /* \"contracts/PRACTICE/Basic Team Registration.sol\":223:242  teamPlayers[i] = -1 */\n      dup2\n      swap1\n      sstore\n      pop\n        /* \"contracts/PRACTICE/Basic Team Registration.sol\":203:206  i++ */\n      dup1\n      dup1\n      0x01\n      add\n      swap2\n      pop\n      pop\n        /* \"contracts/PRACTICE/Basic Team Registration.sol\":162:254  for (uint i = 0; i < teamPlayers.length; i++) {... */\n      jump(tag_90)\n    tag_91:\n      pop\n        /* \"contracts/PRACTICE/Basic Team Registration.sol\":118:261  function initializeTeam() public {... */\n      jump\t// out\n    tag_60:\n      mload(0x40)\n      dup1\n      0x0200\n      add\n      0x40\n      mstore\n      dup1\n      0x10\n      swap1\n      0x20\n      dup3\n      mul\n      dup1\n      calldatasize\n      dup4\n      calldatacopy\n      dup1\n      dup3\n      add\n      swap2\n      pop\n      pop\n      swap1\n      pop\n      pop\n      swap1\n      jump\t// out\n        /* \"#utility.yul\":88:205   */\n    tag_97:\n        /* \"#utility.yul\":197:198   */\n      0x00\n        /* \"#utility.yul\":194:195   */\n      0x00\n        /* \"#utility.yul\":187:199   */\n      revert\n        /* \"#utility.yul\":334:410   */\n    tag_99:\n        /* \"#utility.yul\":370:377   */\n      0x00\n        /* \"#utility.yul\":399:404   */\n      dup2\n        /* \"#utility.yul\":388:404   */\n      swap1\n      pop\n        /* \"#utility.yul\":334:410   */\n      swap2\n      swap1\n      pop\n      jump\t// out\n        /* \"#utility.yul\":416:536   */\n    tag_100:\n        /* \"#utility.yul\":488:511   */\n      tag_130\n        /* \"#utility.yul\":505:510   */\n      dup2\n        /* \"#utility.yul\":488:511   */\n      tag_99\n      jump\t// in\n    tag_130:\n        /* \"#utility.yul\":481:486   */\n      dup2\n        /* \"#utility.yul\":478:512   */\n      eq\n        /* \"#utility.yul\":468:530   */\n      tag_131\n      jumpi\n        /* \"#utility.yul\":526:527   */\n      0x00\n        /* \"#utility.yul\":523:524   */\n      0x00\n        /* \"#utility.yul\":516:528   */\n      revert\n        /* \"#utility.yul\":468:530   */\n    tag_131:\n        /* \"#utility.yul\":416:536   */\n      pop\n      jump\t// out\n        /* \"#utility.yul\":542:679   */\n    tag_101:\n        /* \"#utility.yul\":587:592   */\n      0x00\n        /* \"#utility.yul\":625:631   */\n      dup2\n        /* \"#utility.yul\":612:632   */\n      calldataload\n        /* \"#utility.yul\":603:632   */\n      swap1\n      pop\n        /* \"#utility.yul\":641:673   */\n      tag_133\n        /* \"#utility.yul\":667:672   */\n      dup2\n        /* \"#utility.yul\":641:673   */\n      tag_100\n      jump\t// in\n    tag_133:\n        /* \"#utility.yul\":542:679   */\n      swap3\n      swap2\n      pop\n      pop\n      jump\t// out\n        /* \"#utility.yul\":685:762   */\n    tag_102:\n        /* \"#utility.yul\":722:729   */\n      0x00\n        /* \"#utility.yul\":751:756   */\n      dup2\n        /* \"#utility.yul\":740:756   */\n      swap1\n      pop\n        /* \"#utility.yul\":685:762   */\n      swap2\n      swap1\n      pop\n      jump\t// out\n        /* \"#utility.yul\":768:890   */\n    tag_103:\n        /* \"#utility.yul\":841:865   */\n      tag_136\n        /* \"#utility.yul\":859:864   */\n      dup2\n        /* \"#utility.yul\":841:865   */\n      tag_102\n      jump\t// in\n    tag_136:\n        /* \"#utility.yul\":834:839   */\n      dup2\n        /* \"#utility.yul\":831:866   */\n      eq\n        /* \"#utility.yul\":821:884   */\n      tag_137\n      jumpi\n        /* \"#utility.yul\":880:881   */\n      0x00\n        /* \"#utility.yul\":877:878   */\n      0x00\n        /* \"#utility.yul\":870:882   */\n      revert\n        /* \"#utility.yul\":821:884   */\n    tag_137:\n        /* \"#utility.yul\":768:890   */\n      pop\n      jump\t// out\n        /* \"#utility.yul\":896:1035   */\n    tag_104:\n        /* \"#utility.yul\":942:947   */\n      0x00\n        /* \"#utility.yul\":980:986   */\n      dup2\n        /* \"#utility.yul\":967:987   */\n      calldataload\n        /* \"#utility.yul\":958:987   */\n      swap1\n      pop\n        /* \"#utility.yul\":996:1029   */\n      tag_139\n        /* \"#utility.yul\":1023:1028   */\n      dup2\n        /* \"#utility.yul\":996:1029   */\n      tag_103\n      jump\t// in\n    tag_139:\n        /* \"#utility.yul\":896:1035   */\n      swap3\n      swap2\n      pop\n      pop\n      jump\t// out\n        /* \"#utility.yul\":1041:1513   */\n    tag_13:\n        /* \"#utility.yul\":1108:1114   */\n      0x00\n        /* \"#utility.yul\":1116:1122   */\n      0x00\n        /* \"#utility.yul\":1165:1167   */\n      0x40\n        /* \"#utility.yul\":1153:1162   */\n      dup4\n        /* \"#utility.yul\":1144:1151   */\n      dup6\n        /* \"#utility.yul\":1140:1163   */\n      sub\n        /* \"#utility.yul\":1136:1168   */\n      slt\n        /* \"#utility.yul\":1133:1252   */\n      iszero\n      tag_141\n      jumpi\n        /* \"#utility.yul\":1171:1250   */\n      tag_142\n      tag_97\n      jump\t// in\n    tag_142:\n        /* \"#utility.yul\":1133:1252   */\n    tag_141:\n        /* \"#utility.yul\":1291:1292   */\n      0x00\n        /* \"#utility.yul\":1316:1368   */\n      tag_143\n        /* \"#utility.yul\":1360:1367   */\n      dup6\n        /* \"#utility.yul\":1351:1357   */\n      dup3\n        /* \"#utility.yul\":1340:1349   */\n      dup7\n        /* \"#utility.yul\":1336:1358   */\n      add\n        /* \"#utility.yul\":1316:1368   */\n      tag_101\n      jump\t// in\n    tag_143:\n        /* \"#utility.yul\":1306:1368   */\n      swap3\n      pop\n        /* \"#utility.yul\":1262:1378   */\n      pop\n        /* \"#utility.yul\":1417:1419   */\n      0x20\n        /* \"#utility.yul\":1443:1496   */\n      tag_144\n        /* \"#utility.yul\":1488:1495   */\n      dup6\n        /* \"#utility.yul\":1479:1485   */\n      dup3\n        /* \"#utility.yul\":1468:1477   */\n      dup7\n        /* \"#utility.yul\":1464:1486   */\n      add\n        /* \"#utility.yul\":1443:1496   */\n      tag_104\n      jump\t// in\n    tag_144:\n        /* \"#utility.yul\":1433:1496   */\n      swap2\n      pop\n        /* \"#utility.yul\":1388:1506   */\n      pop\n        /* \"#utility.yul\":1041:1513   */\n      swap3\n      pop\n      swap3\n      swap1\n      pop\n      jump\t// out\n        /* \"#utility.yul\":1519:1848   */\n    tag_17:\n        /* \"#utility.yul\":1578:1584   */\n      0x00\n        /* \"#utility.yul\":1627:1629   */\n      0x20\n        /* \"#utility.yul\":1615:1624   */\n      dup3\n        /* \"#utility.yul\":1606:1613   */\n      dup5\n        /* \"#utility.yul\":1602:1625   */\n      sub\n        /* \"#utility.yul\":1598:1630   */\n      slt\n        /* \"#utility.yul\":1595:1714   */\n      iszero\n      tag_146\n      jumpi\n        /* \"#utility.yul\":1633:1712   */\n      tag_147\n      tag_97\n      jump\t// in\n    tag_147:\n        /* \"#utility.yul\":1595:1714   */\n    tag_146:\n        /* \"#utility.yul\":1753:1754   */\n      0x00\n        /* \"#utility.yul\":1778:1831   */\n      tag_148\n        /* \"#utility.yul\":1823:1830   */\n      dup5\n        /* \"#utility.yul\":1814:1820   */\n      dup3\n        /* \"#utility.yul\":1803:1812   */\n      dup6\n        /* \"#utility.yul\":1799:1821   */\n      add\n        /* \"#utility.yul\":1778:1831   */\n      tag_104\n      jump\t// in\n    tag_148:\n        /* \"#utility.yul\":1768:1831   */\n      swap2\n      pop\n        /* \"#utility.yul\":1724:1841   */\n      pop\n        /* \"#utility.yul\":1519:1848   */\n      swap3\n      swap2\n      pop\n      pop\n      jump\t// out\n        /* \"#utility.yul\":1854:1969   */\n    tag_105:\n        /* \"#utility.yul\":1939:1962   */\n      tag_150\n        /* \"#utility.yul\":1956:1961   */\n      dup2\n        /* \"#utility.yul\":1939:1962   */\n      tag_99\n      jump\t// in\n    tag_150:\n        /* \"#utility.yul\":1934:1937   */\n      dup3\n        /* \"#utility.yul\":1927:1963   */\n      mstore\n        /* \"#utility.yul\":1854:1969   */\n      pop\n      pop\n      jump\t// out\n        /* \"#utility.yul\":1975:2193   */\n    tag_20:\n        /* \"#utility.yul\":2066:2070   */\n      0x00\n        /* \"#utility.yul\":2104:2106   */\n      0x20\n        /* \"#utility.yul\":2093:2102   */\n      dup3\n        /* \"#utility.yul\":2089:2107   */\n      add\n        /* \"#utility.yul\":2081:2107   */\n      swap1\n      pop\n        /* \"#utility.yul\":2117:2186   */\n      tag_152\n        /* \"#utility.yul\":2183:2184   */\n      0x00\n        /* \"#utility.yul\":2172:2181   */\n      dup4\n        /* \"#utility.yul\":2168:2185   */\n      add\n        /* \"#utility.yul\":2159:2165   */\n      dup5\n        /* \"#utility.yul\":2117:2186   */\n      tag_105\n      jump\t// in\n    tag_152:\n        /* \"#utility.yul\":1975:2193   */\n      swap3\n      swap2\n      pop\n      pop\n      jump\t// out\n        /* \"#utility.yul\":2199:2303   */\n    tag_106:\n        /* \"#utility.yul\":2264:2270   */\n      0x00\n        /* \"#utility.yul\":2292:2296   */\n      0x10\n        /* \"#utility.yul\":2282:2296   */\n      swap1\n      pop\n        /* \"#utility.yul\":2199:2303   */\n      swap2\n      swap1\n      pop\n      jump\t// out\n        /* \"#utility.yul\":2309:2452   */\n    tag_107:\n        /* \"#utility.yul\":2406:2417   */\n      0x00\n        /* \"#utility.yul\":2443:2446   */\n      dup2\n        /* \"#utility.yul\":2428:2446   */\n      swap1\n      pop\n        /* \"#utility.yul\":2309:2452   */\n      swap3\n      swap2\n      pop\n      pop\n      jump\t// out\n        /* \"#utility.yul\":2458:2556   */\n    tag_108:\n        /* \"#utility.yul\":2523:2527   */\n      0x00\n        /* \"#utility.yul\":2546:2549   */\n      dup2\n        /* \"#utility.yul\":2538:2549   */\n      swap1\n      pop\n        /* \"#utility.yul\":2458:2556   */\n      swap2\n      swap1\n      pop\n      jump\t// out\n        /* \"#utility.yul\":2562:2667   */\n    tag_109:\n        /* \"#utility.yul\":2637:2660   */\n      tag_157\n        /* \"#utility.yul\":2654:2659   */\n      dup2\n        /* \"#utility.yul\":2637:2660   */\n      tag_99\n      jump\t// in\n    tag_157:\n        /* \"#utility.yul\":2632:2635   */\n      dup3\n        /* \"#utility.yul\":2625:2661   */\n      mstore\n        /* \"#utility.yul\":2562:2667   */\n      pop\n      pop\n      jump\t// out\n        /* \"#utility.yul\":2673:2848   */\n    tag_110:\n        /* \"#utility.yul\":2740:2750   */\n      0x00\n        /* \"#utility.yul\":2761:2805   */\n      tag_159\n        /* \"#utility.yul\":2801:2804   */\n      dup4\n        /* \"#utility.yul\":2793:2799   */\n      dup4\n        /* \"#utility.yul\":2761:2805   */\n      tag_109\n      jump\t// in\n    tag_159:\n        /* \"#utility.yul\":2837:2841   */\n      0x20\n        /* \"#utility.yul\":2832:2835   */\n      dup4\n        /* \"#utility.yul\":2828:2842   */\n      add\n        /* \"#utility.yul\":2814:2842   */\n      swap1\n      pop\n        /* \"#utility.yul\":2673:2848   */\n      swap3\n      swap2\n      pop\n      pop\n      jump\t// out\n        /* \"#utility.yul\":2854:2965   */\n    tag_111:\n        /* \"#utility.yul\":2922:2926   */\n      0x00\n        /* \"#utility.yul\":2954:2958   */\n      0x20\n        /* \"#utility.yul\":2949:2952   */\n      dup3\n        /* \"#utility.yul\":2945:2959   */\n      add\n        /* \"#utility.yul\":2937:2959   */\n      swap1\n      pop\n        /* \"#utility.yul\":2854:2965   */\n      swap2\n      swap1\n      pop\n      jump\t// out\n        /* \"#utility.yul\":3003:3695   */\n    tag_112:\n        /* \"#utility.yul\":3139:3191   */\n      tag_162\n        /* \"#utility.yul\":3185:3190   */\n      dup2\n        /* \"#utility.yul\":3139:3191   */\n      tag_106\n      jump\t// in\n    tag_162:\n        /* \"#utility.yul\":3207:3291   */\n      tag_163\n        /* \"#utility.yul\":3284:3290   */\n      dup2\n        /* \"#utility.yul\":3279:3282   */\n      dup5\n        /* \"#utility.yul\":3207:3291   */\n      tag_107\n      jump\t// in\n    tag_163:\n        /* \"#utility.yul\":3200:3291   */\n      swap3\n      pop\n        /* \"#utility.yul\":3315:3369   */\n      tag_164\n        /* \"#utility.yul\":3363:3368   */\n      dup3\n        /* \"#utility.yul\":3315:3369   */\n      tag_108\n      jump\t// in\n    tag_164:\n        /* \"#utility.yul\":3392:3399   */\n      dup1\n        /* \"#utility.yul\":3423:3424   */\n      0x00\n        /* \"#utility.yul\":3408:3688   */\n    tag_165:\n        /* \"#utility.yul\":3433:3439   */\n      dup4\n        /* \"#utility.yul\":3430:3431   */\n      dup2\n        /* \"#utility.yul\":3427:3440   */\n      lt\n        /* \"#utility.yul\":3408:3688   */\n      iszero\n      tag_167\n      jumpi\n        /* \"#utility.yul\":3509:3515   */\n      dup2\n        /* \"#utility.yul\":3503:3516   */\n      mload\n        /* \"#utility.yul\":3536:3597   */\n      tag_168\n        /* \"#utility.yul\":3593:3596   */\n      dup8\n        /* \"#utility.yul\":3578:3591   */\n      dup3\n        /* \"#utility.yul\":3536:3597   */\n      tag_110\n      jump\t// in\n    tag_168:\n        /* \"#utility.yul\":3529:3597   */\n      swap7\n      pop\n        /* \"#utility.yul\":3620:3678   */\n      tag_169\n        /* \"#utility.yul\":3671:3677   */\n      dup4\n        /* \"#utility.yul\":3620:3678   */\n      tag_111\n      jump\t// in\n    tag_169:\n        /* \"#utility.yul\":3610:3678   */\n      swap3\n      pop\n        /* \"#utility.yul\":3468:3688   */\n      pop\n        /* \"#utility.yul\":3455:3456   */\n      0x01\n        /* \"#utility.yul\":3452:3453   */\n      dup2\n        /* \"#utility.yul\":3448:3457   */\n      add\n        /* \"#utility.yul\":3443:3457   */\n      swap1\n      pop\n        /* \"#utility.yul\":3408:3688   */\n      jump(tag_165)\n    tag_167:\n        /* \"#utility.yul\":3412:3426   */\n      pop\n        /* \"#utility.yul\":3115:3695   */\n      pop\n      pop\n      pop\n        /* \"#utility.yul\":3003:3695   */\n      pop\n      pop\n      jump\t// out\n        /* \"#utility.yul\":3701:4016   */\n    tag_28:\n        /* \"#utility.yul\":3840:3844   */\n      0x00\n        /* \"#utility.yul\":3878:3881   */\n      0x0200\n        /* \"#utility.yul\":3867:3876   */\n      dup3\n        /* \"#utility.yul\":3863:3882   */\n      add\n        /* \"#utility.yul\":3855:3882   */\n      swap1\n      pop\n        /* \"#utility.yul\":3892:4009   */\n      tag_171\n        /* \"#utility.yul\":4006:4007   */\n      0x00\n        /* \"#utility.yul\":3995:4004   */\n      dup4\n        /* \"#utility.yul\":3991:4008   */\n      add\n        /* \"#utility.yul\":3982:3988   */\n      dup5\n        /* \"#utility.yul\":3892:4009   */\n      tag_112\n      jump\t// in\n    tag_171:\n        /* \"#utility.yul\":3701:4016   */\n      swap3\n      swap2\n      pop\n      pop\n      jump\t// out\n        /* \"#utility.yul\":4022:4191   */\n    tag_113:\n        /* \"#utility.yul\":4106:4117   */\n      0x00\n        /* \"#utility.yul\":4140:4146   */\n      dup3\n        /* \"#utility.yul\":4135:4138   */\n      dup3\n        /* \"#utility.yul\":4128:4147   */\n      mstore\n        /* \"#utility.yul\":4180:4184   */\n      0x20\n        /* \"#utility.yul\":4175:4178   */\n      dup3\n        /* \"#utility.yul\":4171:4185   */\n      add\n        /* \"#utility.yul\":4156:4185   */\n      swap1\n      pop\n        /* \"#utility.yul\":4022:4191   */\n      swap3\n      swap2\n      pop\n      pop\n      jump\t// out\n        /* \"#utility.yul\":4197:4368   */\n    tag_114:\n        /* \"#utility.yul\":4337:4360   */\n      0x696e76616c6964204a6572736579204e756d6265720000000000000000000000\n        /* \"#utility.yul\":4333:4334   */\n      0x00\n        /* \"#utility.yul\":4325:4331   */\n      dup3\n        /* \"#utility.yul\":4321:4335   */\n      add\n        /* \"#utility.yul\":4314:4361   */\n      mstore\n        /* \"#utility.yul\":4197:4368   */\n      pop\n      jump\t// out\n        /* \"#utility.yul\":4374:4740   */\n    tag_115:\n        /* \"#utility.yul\":4516:4519   */\n      0x00\n        /* \"#utility.yul\":4537:4604   */\n      tag_175\n        /* \"#utility.yul\":4601:4603   */\n      0x15\n        /* \"#utility.yul\":4596:4599   */\n      dup4\n        /* \"#utility.yul\":4537:4604   */\n      tag_113\n      jump\t// in\n    tag_175:\n        /* \"#utility.yul\":4530:4604   */\n      swap2\n      pop\n        /* \"#utility.yul\":4613:4706   */\n      tag_176\n        /* \"#utility.yul\":4702:4705   */\n      dup3\n        /* \"#utility.yul\":4613:4706   */\n      tag_114\n      jump\t// in\n    tag_176:\n        /* \"#utility.yul\":4731:4733   */\n      0x20\n        /* \"#utility.yul\":4726:4729   */\n      dup3\n        /* \"#utility.yul\":4722:4734   */\n      add\n        /* \"#utility.yul\":4715:4734   */\n      swap1\n      pop\n        /* \"#utility.yul\":4374:4740   */\n      swap2\n      swap1\n      pop\n      jump\t// out\n        /* \"#utility.yul\":4746:5165   */\n    tag_40:\n        /* \"#utility.yul\":4912:4916   */\n      0x00\n        /* \"#utility.yul\":4950:4952   */\n      0x20\n        /* \"#utility.yul\":4939:4948   */\n      dup3\n        /* \"#utility.yul\":4935:4953   */\n      add\n        /* \"#utility.yul\":4927:4953   */\n      swap1\n      pop\n        /* \"#utility.yul\":4999:5008   */\n      dup2\n        /* \"#utility.yul\":4993:4997   */\n      dup2\n        /* \"#utility.yul\":4989:5009   */\n      sub\n        /* \"#utility.yul\":4985:4986   */\n      0x00\n        /* \"#utility.yul\":4974:4983   */\n      dup4\n        /* \"#utility.yul\":4970:4987   */\n      add\n        /* \"#utility.yul\":4963:5010   */\n      mstore\n        /* \"#utility.yul\":5027:5158   */\n      tag_178\n        /* \"#utility.yul\":5153:5157   */\n      dup2\n        /* \"#utility.yul\":5027:5158   */\n      tag_115\n      jump\t// in\n    tag_178:\n        /* \"#utility.yul\":5019:5158   */\n      swap1\n      pop\n        /* \"#utility.yul\":4746:5165   */\n      swap2\n      swap1\n      pop\n      jump\t// out\n        /* \"#utility.yul\":5171:5351   */\n    tag_43:\n        /* \"#utility.yul\":5219:5296   */\n      0x4e487b7100000000000000000000000000000000000000000000000000000000\n        /* \"#utility.yul\":5216:5217   */\n      0x00\n        /* \"#utility.yul\":5209:5297   */\n      mstore\n        /* \"#utility.yul\":5316:5320   */\n      0x32\n        /* \"#utility.yul\":5313:5314   */\n      0x04\n        /* \"#utility.yul\":5306:5321   */\n      mstore\n        /* \"#utility.yul\":5340:5344   */\n      0x24\n        /* \"#utility.yul\":5337:5338   */\n      0x00\n        /* \"#utility.yul\":5330:5345   */\n      revert\n        /* \"#utility.yul\":5357:5535   */\n    tag_116:\n        /* \"#utility.yul\":5497:5527   */\n      0x4a6572736579206e756d62657220616c72656164792074616b656e2e00000000\n        /* \"#utility.yul\":5493:5494   */\n      0x00\n        /* \"#utility.yul\":5485:5491   */\n      dup3\n        /* \"#utility.yul\":5481:5495   */\n      add\n        /* \"#utility.yul\":5474:5528   */\n      mstore\n        /* \"#utility.yul\":5357:5535   */\n      pop\n      jump\t// out\n        /* \"#utility.yul\":5541:5907   */\n    tag_117:\n        /* \"#utility.yul\":5683:5686   */\n      0x00\n        /* \"#utility.yul\":5704:5771   */\n      tag_182\n        /* \"#utility.yul\":5768:5770   */\n      0x1c\n        /* \"#utility.yul\":5763:5766   */\n      dup4\n        /* \"#utility.yul\":5704:5771   */\n      tag_113\n      jump\t// in\n    tag_182:\n        /* \"#utility.yul\":5697:5771   */\n      swap2\n      pop\n        /* \"#utility.yul\":5780:5873   */\n      tag_183\n        /* \"#utility.yul\":5869:5872   */\n      dup3\n        /* \"#utility.yul\":5780:5873   */\n      tag_116\n      jump\t// in\n    tag_183:\n        /* \"#utility.yul\":5898:5900   */\n      0x20\n        /* \"#utility.yul\":5893:5896   */\n      dup3\n        /* \"#utility.yul\":5889:5901   */\n      add\n        /* \"#utility.yul\":5882:5901   */\n      swap1\n      pop\n        /* \"#utility.yul\":5541:5907   */\n      swap2\n      swap1\n      pop\n      jump\t// out\n        /* \"#utility.yul\":5913:6332   */\n    tag_47:\n        /* \"#utility.yul\":6079:6083   */\n      0x00\n        /* \"#utility.yul\":6117:6119   */\n      0x20\n        /* \"#utility.yul\":6106:6115   */\n      dup3\n        /* \"#utility.yul\":6102:6120   */\n      add\n        /* \"#utility.yul\":6094:6120   */\n      swap1\n      pop\n        /* \"#utility.yul\":6166:6175   */\n      dup2\n        /* \"#utility.yul\":6160:6164   */\n      dup2\n        /* \"#utility.yul\":6156:6176   */\n      sub\n        /* \"#utility.yul\":6152:6153   */\n      0x00\n        /* \"#utility.yul\":6141:6150   */\n      dup4\n        /* \"#utility.yul\":6137:6154   */\n      add\n        /* \"#utility.yul\":6130:6177   */\n      mstore\n        /* \"#utility.yul\":6194:6325   */\n      tag_185\n        /* \"#utility.yul\":6320:6324   */\n      dup2\n        /* \"#utility.yul\":6194:6325   */\n      tag_117\n      jump\t// in\n    tag_185:\n        /* \"#utility.yul\":6186:6325   */\n      swap1\n      pop\n        /* \"#utility.yul\":5913:6332   */\n      swap2\n      swap1\n      pop\n      jump\t// out\n        /* \"#utility.yul\":6338:6510   */\n    tag_118:\n        /* \"#utility.yul\":6478:6502   */\n      0x496e76616c6964206a6572736579206e756d6265722e00000000000000000000\n        /* \"#utility.yul\":6474:6475   */\n      0x00\n        /* \"#utility.yul\":6466:6472   */\n      dup3\n        /* \"#utility.yul\":6462:6476   */\n      add\n        /* \"#utility.yul\":6455:6503   */\n      mstore\n        /* \"#utility.yul\":6338:6510   */\n      pop\n      jump\t// out\n        /* \"#utility.yul\":6516:6882   */\n    tag_119:\n        /* \"#utility.yul\":6658:6661   */\n      0x00\n        /* \"#utility.yul\":6679:6746   */\n      tag_188\n        /* \"#utility.yul\":6743:6745   */\n      0x16\n        /* \"#utility.yul\":6738:6741   */\n      dup4\n        /* \"#utility.yul\":6679:6746   */\n      tag_113\n      jump\t// in\n    tag_188:\n        /* \"#utility.yul\":6672:6746   */\n      swap2\n      pop\n        /* \"#utility.yul\":6755:6848   */\n      tag_189\n        /* \"#utility.yul\":6844:6847   */\n      dup3\n        /* \"#utility.yul\":6755:6848   */\n      tag_118\n      jump\t// in\n    tag_189:\n        /* \"#utility.yul\":6873:6875   */\n      0x20\n        /* \"#utility.yul\":6868:6871   */\n      dup3\n        /* \"#utility.yul\":6864:6876   */\n      add\n        /* \"#utility.yul\":6857:6876   */\n      swap1\n      pop\n        /* \"#utility.yul\":6516:6882   */\n      swap2\n      swap1\n      pop\n      jump\t// out\n        /* \"#utility.yul\":6888:7307   */\n    tag_67:\n        /* \"#utility.yul\":7054:7058   */\n      0x00\n        /* \"#utility.yul\":7092:7094   */\n      0x20\n        /* \"#utility.yul\":7081:7090   */\n      dup3\n        /* \"#utility.yul\":7077:7095   */\n      add\n        /* \"#utility.yul\":7069:7095   */\n      swap1\n      pop\n        /* \"#utility.yul\":7141:7150   */\n      dup2\n        /* \"#utility.yul\":7135:7139   */\n      dup2\n        /* \"#utility.yul\":7131:7151   */\n      sub\n        /* \"#utility.yul\":7127:7128   */\n      0x00\n        /* \"#utility.yul\":7116:7125   */\n      dup4\n        /* \"#utility.yul\":7112:7129   */\n      add\n        /* \"#utility.yul\":7105:7152   */\n      mstore\n        /* \"#utility.yul\":7169:7300   */\n      tag_191\n        /* \"#utility.yul\":7295:7299   */\n      dup2\n        /* \"#utility.yul\":7169:7300   */\n      tag_119\n      jump\t// in\n    tag_191:\n        /* \"#utility.yul\":7161:7300   */\n      swap1\n      pop\n        /* \"#utility.yul\":6888:7307   */\n      swap2\n      swap1\n      pop\n      jump\t// out\n        /* \"#utility.yul\":7313:7483   */\n    tag_120:\n        /* \"#utility.yul\":7453:7475   */\n      0x4e6f20706c6179657220746f207570646174652e000000000000000000000000\n        /* \"#utility.yul\":7449:7450   */\n      0x00\n        /* \"#utility.yul\":7441:7447   */\n      dup3\n        /* \"#utility.yul\":7437:7451   */\n      add\n        /* \"#utility.yul\":7430:7476   */\n      mstore\n        /* \"#utility.yul\":7313:7483   */\n      pop\n      jump\t// out\n        /* \"#utility.yul\":7489:7855   */\n    tag_121:\n        /* \"#utility.yul\":7631:7634   */\n      0x00\n        /* \"#utility.yul\":7652:7719   */\n      tag_194\n        /* \"#utility.yul\":7716:7718   */\n      0x14\n        /* \"#utility.yul\":7711:7714   */\n      dup4\n        /* \"#utility.yul\":7652:7719   */\n      tag_113\n      jump\t// in\n    tag_194:\n        /* \"#utility.yul\":7645:7719   */\n      swap2\n      pop\n        /* \"#utility.yul\":7728:7821   */\n      tag_195\n        /* \"#utility.yul\":7817:7820   */\n      dup3\n        /* \"#utility.yul\":7728:7821   */\n      tag_120\n      jump\t// in\n    tag_195:\n        /* \"#utility.yul\":7846:7848   */\n      0x20\n        /* \"#utility.yul\":7841:7844   */\n      dup3\n        /* \"#utility.yul\":7837:7849   */\n      add\n        /* \"#utility.yul\":7830:7849   */\n      swap1\n      pop\n        /* \"#utility.yul\":7489:7855   */\n      swap2\n      swap1\n      pop\n      jump\t// out\n        /* \"#utility.yul\":7861:8280   */\n    tag_73:\n        /* \"#utility.yul\":8027:8031   */\n      0x00\n        /* \"#utility.yul\":8065:8067   */\n      0x20\n        /* \"#utility.yul\":8054:8063   */\n      dup3\n        /* \"#utility.yul\":8050:8068   */\n      add\n        /* \"#utility.yul\":8042:8068   */\n      swap1\n      pop\n        /* \"#utility.yul\":8114:8123   */\n      dup2\n        /* \"#utility.yul\":8108:8112   */\n      dup2\n        /* \"#utility.yul\":8104:8124   */\n      sub\n        /* \"#utility.yul\":8100:8101   */\n      0x00\n        /* \"#utility.yul\":8089:8098   */\n      dup4\n        /* \"#utility.yul\":8085:8102   */\n      add\n        /* \"#utility.yul\":8078:8125   */\n      mstore\n        /* \"#utility.yul\":8142:8273   */\n      tag_197\n        /* \"#utility.yul\":8268:8272   */\n      dup2\n        /* \"#utility.yul\":8142:8273   */\n      tag_121\n      jump\t// in\n    tag_197:\n        /* \"#utility.yul\":8134:8273   */\n      swap1\n      pop\n        /* \"#utility.yul\":7861:8280   */\n      swap2\n      swap1\n      pop\n      jump\t// out\n        /* \"#utility.yul\":8286:8468   */\n    tag_122:\n        /* \"#utility.yul\":8426:8460   */\n      0x4e6f20706c6179657220696e2074686973206a6572736579206e756d6265722e\n        /* \"#utility.yul\":8422:8423   */\n      0x00\n        /* \"#utility.yul\":8414:8420   */\n      dup3\n        /* \"#utility.yul\":8410:8424   */\n      add\n        /* \"#utility.yul\":8403:8461   */\n      mstore\n        /* \"#utility.yul\":8286:8468   */\n      pop\n      jump\t// out\n        /* \"#utility.yul\":8474:8840   */\n    tag_123:\n        /* \"#utility.yul\":8616:8619   */\n      0x00\n        /* \"#utility.yul\":8637:8704   */\n      tag_200\n        /* \"#utility.yul\":8701:8703   */\n      0x20\n        /* \"#utility.yul\":8696:8699   */\n      dup4\n        /* \"#utility.yul\":8637:8704   */\n      tag_113\n      jump\t// in\n    tag_200:\n        /* \"#utility.yul\":8630:8704   */\n      swap2\n      pop\n        /* \"#utility.yul\":8713:8806   */\n      tag_201\n        /* \"#utility.yul\":8802:8805   */\n      dup3\n        /* \"#utility.yul\":8713:8806   */\n      tag_122\n      jump\t// in\n    tag_201:\n        /* \"#utility.yul\":8831:8833   */\n      0x20\n        /* \"#utility.yul\":8826:8829   */\n      dup3\n        /* \"#utility.yul\":8822:8834   */\n      add\n        /* \"#utility.yul\":8815:8834   */\n      swap1\n      pop\n        /* \"#utility.yul\":8474:8840   */\n      swap2\n      swap1\n      pop\n      jump\t// out\n        /* \"#utility.yul\":8846:9265   */\n    tag_85:\n        /* \"#utility.yul\":9012:9016   */\n      0x00\n        /* \"#utility.yul\":9050:9052   */\n      0x20\n        /* \"#utility.yul\":9039:9048   */\n      dup3\n        /* \"#utility.yul\":9035:9053   */\n      add\n        /* \"#utility.yul\":9027:9053   */\n      swap1\n      pop\n        /* \"#utility.yul\":9099:9108   */\n      dup2\n        /* \"#utility.yul\":9093:9097   */\n      dup2\n        /* \"#utility.yul\":9089:9109   */\n      sub\n        /* \"#utility.yul\":9085:9086   */\n      0x00\n        /* \"#utility.yul\":9074:9083   */\n      dup4\n        /* \"#utility.yul\":9070:9087   */\n      add\n        /* \"#utility.yul\":9063:9110   */\n      mstore\n        /* \"#utility.yul\":9127:9258   */\n      tag_203\n        /* \"#utility.yul\":9253:9257   */\n      dup2\n        /* \"#utility.yul\":9127:9258   */\n      tag_123\n      jump\t// in\n    tag_203:\n        /* \"#utility.yul\":9119:9258   */\n      swap1\n      pop\n        /* \"#utility.yul\":8846:9265   */\n      swap2\n      swap1\n      pop\n      jump\t// out\n\n    auxdata: 0xa26469706673582212208606ca9dca1e71973bf7a9439b68588df9aff2d8a08a7e5ba2fd7f05189f21a264736f6c634300081c0033\n}\n",
				"bytecode": {
					"linkReferences": {},
					"object": "6080604052348015600e575f5ffd5b5061096d8061001c5f395ff3fe608060405234801561000f575f5ffd5b506004361061007b575f3560e01c8063a04fa04911610059578063a04fa049146100fb578063a87b9e5214610119578063bc97551214610135578063fa530409146101515761007b565b80632d4a98921461007f57806330244cbf1461009b5780639697f8ab146100cb575b5f5ffd5b610099600480360381019061009491906105a2565b61015b565b005b6100b560048036038101906100b091906105e0565b610231565b6040516100c2919061061a565b60405180910390f35b6100e560048036038101906100e091906105e0565b610249565b6040516100f2919061061a565b60405180910390f35b6101036102a9565b60405161011091906106d8565b60405180910390f35b610133600480360381019061012e91906105a2565b6102f3565b005b61014f600480360381019061014a91906105e0565b6103c9565b005b6101596104be565b005b6010811061019e576040517f08c379a00000000000000000000000000000000000000000000000000000000081526004016101959061074c565b60405180910390fd5b7fffffffffffffffffffffffffffffffffffffffffffffffffffffffffffffffff5f82601081106101d2576101d161076a565b5b015414610214576040517f08c379a000000000000000000000000000000000000000000000000000000000815260040161020b906107e1565b60405180910390fd5b815f82601081106102285761022761076a565b5b01819055505050565b5f816010811061023f575f80fd5b015f915090505481565b5f6010821061028d576040517f08c379a00000000000000000000000000000000000000000000000000000000081526004016102849061074c565b60405180910390fd5b5f82601081106102a05761029f61076a565b5b01549050919050565b6102b1610515565b5f6010806020026040519081016040528092919082601080156102e9576020028201915b8154815260200190600101908083116102d5575b5050505050905090565b60108110610336576040517f08c379a000000000000000000000000000000000000000000000000000000000815260040161032d90610849565b60405180910390fd5b7fffffffffffffffffffffffffffffffffffffffffffffffffffffffffffffffff5f826010811061036a5761036961076a565b5b0154036103ac576040517f08c379a00000000000000000000000000000000000000000000000000000000081526004016103a3906108b1565b60405180910390fd5b815f82601081106103c0576103bf61076a565b5b01819055505050565b6010811061040c576040517f08c379a000000000000000000000000000000000000000000000000000000000815260040161040390610849565b60405180910390fd5b7fffffffffffffffffffffffffffffffffffffffffffffffffffffffffffffffff5f82601081106104405761043f61076a565b5b015403610482576040517f08c379a000000000000000000000000000000000000000000000000000000000815260040161047990610919565b60405180910390fd5b7fffffffffffffffffffffffffffffffffffffffffffffffffffffffffffffffff5f82601081106104b6576104b561076a565b5b018190555050565b5f5f90505b6010811015610512577fffffffffffffffffffffffffffffffffffffffffffffffffffffffffffffffff5f8260108110610500576104ff61076a565b5b018190555080806001019150506104c3565b50565b604051806102000160405280601090602082028036833780820191505090505090565b5f5ffd5b5f819050919050565b61054e8161053c565b8114610558575f5ffd5b50565b5f8135905061056981610545565b92915050565b5f819050919050565b6105818161056f565b811461058b575f5ffd5b50565b5f8135905061059c81610578565b92915050565b5f5f604083850312156105b8576105b7610538565b5b5f6105c58582860161055b565b92505060206105d68582860161058e565b9150509250929050565b5f602082840312156105f5576105f4610538565b5b5f6106028482850161058e565b91505092915050565b6106148161053c565b82525050565b5f60208201905061062d5f83018461060b565b92915050565b5f60109050919050565b5f81905092915050565b5f819050919050565b6106598161053c565b82525050565b5f61066a8383610650565b60208301905092915050565b5f602082019050919050565b61068b81610633565b610695818461063d565b92506106a082610647565b805f5b838110156106d05781516106b7878261065f565b96506106c283610676565b9250506001810190506106a3565b505050505050565b5f610200820190506106ec5f830184610682565b92915050565b5f82825260208201905092915050565b7f696e76616c6964204a6572736579204e756d62657200000000000000000000005f82015250565b5f6107366015836106f2565b915061074182610702565b602082019050919050565b5f6020820190508181035f8301526107638161072a565b9050919050565b7f4e487b71000000000000000000000000000000000000000000000000000000005f52603260045260245ffd5b7f4a6572736579206e756d62657220616c72656164792074616b656e2e000000005f82015250565b5f6107cb601c836106f2565b91506107d682610797565b602082019050919050565b5f6020820190508181035f8301526107f8816107bf565b9050919050565b7f496e76616c6964206a6572736579206e756d6265722e000000000000000000005f82015250565b5f6108336016836106f2565b915061083e826107ff565b602082019050919050565b5f6020820190508181035f83015261086081610827565b9050919050565b7f4e6f20706c6179657220746f207570646174652e0000000000000000000000005f82015250565b5f61089b6014836106f2565b91506108a682610867565b602082019050919050565b5f6020820190508181035f8301526108c88161088f565b9050919050565b7f4e6f20706c6179657220696e2074686973206a6572736579206e756d6265722e5f82015250565b5f6109036020836106f2565b915061090e826108cf565b602082019050919050565b5f6020820190508181035f830152610930816108f7565b905091905056fea26469706673582212208606ca9dca1e71973bf7a9439b68588df9aff2d8a08a7e5ba2fd7f05189f21a264736f6c634300081c0033",
					"opcodes": "PUSH1 0x80 PUSH1 0x40 MSTORE CALLVALUE DUP1 ISZERO PUSH1 0xE JUMPI PUSH0 PUSH0 REVERT JUMPDEST POP PUSH2 0x96D DUP1 PUSH2 0x1C PUSH0 CODECOPY PUSH0 RETURN INVALID PUSH1 0x80 PUSH1 0x40 MSTORE CALLVALUE DUP1 ISZERO PUSH2 0xF JUMPI PUSH0 PUSH0 REVERT JUMPDEST POP PUSH1 0x4 CALLDATASIZE LT PUSH2 0x7B JUMPI PUSH0 CALLDATALOAD PUSH1 0xE0 SHR DUP1 PUSH4 0xA04FA049 GT PUSH2 0x59 JUMPI DUP1 PUSH4 0xA04FA049 EQ PUSH2 0xFB JUMPI DUP1 PUSH4 0xA87B9E52 EQ PUSH2 0x119 JUMPI DUP1 PUSH4 0xBC975512 EQ PUSH2 0x135 JUMPI DUP1 PUSH4 0xFA530409 EQ PUSH2 0x151 JUMPI PUSH2 0x7B JUMP JUMPDEST DUP1 PUSH4 0x2D4A9892 EQ PUSH2 0x7F JUMPI DUP1 PUSH4 0x30244CBF EQ PUSH2 0x9B JUMPI DUP1 PUSH4 0x9697F8AB EQ PUSH2 0xCB JUMPI JUMPDEST PUSH0 PUSH0 REVERT JUMPDEST PUSH2 0x99 PUSH1 0x4 DUP1 CALLDATASIZE SUB DUP2 ADD SWAP1 PUSH2 0x94 SWAP2 SWAP1 PUSH2 0x5A2 JUMP JUMPDEST PUSH2 0x15B JUMP JUMPDEST STOP JUMPDEST PUSH2 0xB5 PUSH1 0x4 DUP1 CALLDATASIZE SUB DUP2 ADD SWAP1 PUSH2 0xB0 SWAP2 SWAP1 PUSH2 0x5E0 JUMP JUMPDEST PUSH2 0x231 JUMP JUMPDEST PUSH1 0x40 MLOAD PUSH2 0xC2 SWAP2 SWAP1 PUSH2 0x61A JUMP JUMPDEST PUSH1 0x40 MLOAD DUP1 SWAP2 SUB SWAP1 RETURN JUMPDEST PUSH2 0xE5 PUSH1 0x4 DUP1 CALLDATASIZE SUB DUP2 ADD SWAP1 PUSH2 0xE0 SWAP2 SWAP1 PUSH2 0x5E0 JUMP JUMPDEST PUSH2 0x249 JUMP JUMPDEST PUSH1 0x40 MLOAD PUSH2 0xF2 SWAP2 SWAP1 PUSH2 0x61A JUMP JUMPDEST PUSH1 0x40 MLOAD DUP1 SWAP2 SUB SWAP1 RETURN JUMPDEST PUSH2 0x103 PUSH2 0x2A9 JUMP JUMPDEST PUSH1 0x40 MLOAD PUSH2 0x110 SWAP2 SWAP1 PUSH2 0x6D8 JUMP JUMPDEST PUSH1 0x40 MLOAD DUP1 SWAP2 SUB SWAP1 RETURN JUMPDEST PUSH2 0x133 PUSH1 0x4 DUP1 CALLDATASIZE SUB DUP2 ADD SWAP1 PUSH2 0x12E SWAP2 SWAP1 PUSH2 0x5A2 JUMP JUMPDEST PUSH2 0x2F3 JUMP JUMPDEST STOP JUMPDEST PUSH2 0x14F PUSH1 0x4 DUP1 CALLDATASIZE SUB DUP2 ADD SWAP1 PUSH2 0x14A SWAP2 SWAP1 PUSH2 0x5E0 JUMP JUMPDEST PUSH2 0x3C9 JUMP JUMPDEST STOP JUMPDEST PUSH2 0x159 PUSH2 0x4BE JUMP JUMPDEST STOP JUMPDEST PUSH1 0x10 DUP2 LT PUSH2 0x19E JUMPI PUSH1 0x40 MLOAD PUSH32 0x8C379A000000000000000000000000000000000000000000000000000000000 DUP2 MSTORE PUSH1 0x4 ADD PUSH2 0x195 SWAP1 PUSH2 0x74C JUMP JUMPDEST PUSH1 0x40 MLOAD DUP1 SWAP2 SUB SWAP1 REVERT JUMPDEST PUSH32 0xFFFFFFFFFFFFFFFFFFFFFFFFFFFFFFFFFFFFFFFFFFFFFFFFFFFFFFFFFFFFFFFF PUSH0 DUP3 PUSH1 0x10 DUP2 LT PUSH2 0x1D2 JUMPI PUSH2 0x1D1 PUSH2 0x76A JUMP JUMPDEST JUMPDEST ADD SLOAD EQ PUSH2 0x214 JUMPI PUSH1 0x40 MLOAD PUSH32 0x8C379A000000000000000000000000000000000000000000000000000000000 DUP2 MSTORE PUSH1 0x4 ADD PUSH2 0x20B SWAP1 PUSH2 0x7E1 JUMP JUMPDEST PUSH1 0x40 MLOAD DUP1 SWAP2 SUB SWAP1 REVERT JUMPDEST DUP2 PUSH0 DUP3 PUSH1 0x10 DUP2 LT PUSH2 0x228 JUMPI PUSH2 0x227 PUSH2 0x76A JUMP JUMPDEST JUMPDEST ADD DUP2 SWAP1 SSTORE POP POP POP JUMP JUMPDEST PUSH0 DUP2 PUSH1 0x10 DUP2 LT PUSH2 0x23F JUMPI PUSH0 DUP1 REVERT JUMPDEST ADD PUSH0 SWAP2 POP SWAP1 POP SLOAD DUP2 JUMP JUMPDEST PUSH0 PUSH1 0x10 DUP3 LT PUSH2 0x28D JUMPI PUSH1 0x40 MLOAD PUSH32 0x8C379A000000000000000000000000000000000000000000000000000000000 DUP2 MSTORE PUSH1 0x4 ADD PUSH2 0x284 SWAP1 PUSH2 0x74C JUMP JUMPDEST PUSH1 0x40 MLOAD DUP1 SWAP2 SUB SWAP1 REVERT JUMPDEST PUSH0 DUP3 PUSH1 0x10 DUP2 LT PUSH2 0x2A0 JUMPI PUSH2 0x29F PUSH2 0x76A JUMP JUMPDEST JUMPDEST ADD SLOAD SWAP1 POP SWAP2 SWAP1 POP JUMP JUMPDEST PUSH2 0x2B1 PUSH2 0x515 JUMP JUMPDEST PUSH0 PUSH1 0x10 DUP1 PUSH1 0x20 MUL PUSH1 0x40 MLOAD SWAP1 DUP2 ADD PUSH1 0x40 MSTORE DUP1 SWAP3 SWAP2 SWAP1 DUP3 PUSH1 0x10 DUP1 ISZERO PUSH2 0x2E9 JUMPI PUSH1 0x20 MUL DUP3 ADD SWAP2 JUMPDEST DUP2 SLOAD DUP2 MSTORE PUSH1 0x20 ADD SWAP1 PUSH1 0x1 ADD SWAP1 DUP1 DUP4 GT PUSH2 0x2D5 JUMPI JUMPDEST POP POP POP POP POP SWAP1 POP SWAP1 JUMP JUMPDEST PUSH1 0x10 DUP2 LT PUSH2 0x336 JUMPI PUSH1 0x40 MLOAD PUSH32 0x8C379A000000000000000000000000000000000000000000000000000000000 DUP2 MSTORE PUSH1 0x4 ADD PUSH2 0x32D SWAP1 PUSH2 0x849 JUMP JUMPDEST PUSH1 0x40 MLOAD DUP1 SWAP2 SUB SWAP1 REVERT JUMPDEST PUSH32 0xFFFFFFFFFFFFFFFFFFFFFFFFFFFFFFFFFFFFFFFFFFFFFFFFFFFFFFFFFFFFFFFF PUSH0 DUP3 PUSH1 0x10 DUP2 LT PUSH2 0x36A JUMPI PUSH2 0x369 PUSH2 0x76A JUMP JUMPDEST JUMPDEST ADD SLOAD SUB PUSH2 0x3AC JUMPI PUSH1 0x40 MLOAD PUSH32 0x8C379A000000000000000000000000000000000000000000000000000000000 DUP2 MSTORE PUSH1 0x4 ADD PUSH2 0x3A3 SWAP1 PUSH2 0x8B1 JUMP JUMPDEST PUSH1 0x40 MLOAD DUP1 SWAP2 SUB SWAP1 REVERT JUMPDEST DUP2 PUSH0 DUP3 PUSH1 0x10 DUP2 LT PUSH2 0x3C0 JUMPI PUSH2 0x3BF PUSH2 0x76A JUMP JUMPDEST JUMPDEST ADD DUP2 SWAP1 SSTORE POP POP POP JUMP JUMPDEST PUSH1 0x10 DUP2 LT PUSH2 0x40C JUMPI PUSH1 0x40 MLOAD PUSH32 0x8C379A000000000000000000000000000000000000000000000000000000000 DUP2 MSTORE PUSH1 0x4 ADD PUSH2 0x403 SWAP1 PUSH2 0x849 JUMP JUMPDEST PUSH1 0x40 MLOAD DUP1 SWAP2 SUB SWAP1 REVERT JUMPDEST PUSH32 0xFFFFFFFFFFFFFFFFFFFFFFFFFFFFFFFFFFFFFFFFFFFFFFFFFFFFFFFFFFFFFFFF PUSH0 DUP3 PUSH1 0x10 DUP2 LT PUSH2 0x440 JUMPI PUSH2 0x43F PUSH2 0x76A JUMP JUMPDEST JUMPDEST ADD SLOAD SUB PUSH2 0x482 JUMPI PUSH1 0x40 MLOAD PUSH32 0x8C379A000000000000000000000000000000000000000000000000000000000 DUP2 MSTORE PUSH1 0x4 ADD PUSH2 0x479 SWAP1 PUSH2 0x919 JUMP JUMPDEST PUSH1 0x40 MLOAD DUP1 SWAP2 SUB SWAP1 REVERT JUMPDEST PUSH32 0xFFFFFFFFFFFFFFFFFFFFFFFFFFFFFFFFFFFFFFFFFFFFFFFFFFFFFFFFFFFFFFFF PUSH0 DUP3 PUSH1 0x10 DUP2 LT PUSH2 0x4B6 JUMPI PUSH2 0x4B5 PUSH2 0x76A JUMP JUMPDEST JUMPDEST ADD DUP2 SWAP1 SSTORE POP POP JUMP JUMPDEST PUSH0 PUSH0 SWAP1 POP JUMPDEST PUSH1 0x10 DUP2 LT ISZERO PUSH2 0x512 JUMPI PUSH32 0xFFFFFFFFFFFFFFFFFFFFFFFFFFFFFFFFFFFFFFFFFFFFFFFFFFFFFFFFFFFFFFFF PUSH0 DUP3 PUSH1 0x10 DUP2 LT PUSH2 0x500 JUMPI PUSH2 0x4FF PUSH2 0x76A JUMP JUMPDEST JUMPDEST ADD DUP2 SWAP1 SSTORE POP DUP1 DUP1 PUSH1 0x1 ADD SWAP2 POP POP PUSH2 0x4C3 JUMP JUMPDEST POP JUMP JUMPDEST PUSH1 0x40 MLOAD DUP1 PUSH2 0x200 ADD PUSH1 0x40 MSTORE DUP1 PUSH1 0x10 SWAP1 PUSH1 0x20 DUP3 MUL DUP1 CALLDATASIZE DUP4 CALLDATACOPY DUP1 DUP3 ADD SWAP2 POP POP SWAP1 POP POP SWAP1 JUMP JUMPDEST PUSH0 PUSH0 REVERT JUMPDEST PUSH0 DUP2 SWAP1 POP SWAP2 SWAP1 POP JUMP JUMPDEST PUSH2 0x54E DUP2 PUSH2 0x53C JUMP JUMPDEST DUP2 EQ PUSH2 0x558 JUMPI PUSH0 PUSH0 REVERT JUMPDEST POP JUMP JUMPDEST PUSH0 DUP2 CALLDATALOAD SWAP1 POP PUSH2 0x569 DUP2 PUSH2 0x545 JUMP JUMPDEST SWAP3 SWAP2 POP POP JUMP JUMPDEST PUSH0 DUP2 SWAP1 POP SWAP2 SWAP1 POP JUMP JUMPDEST PUSH2 0x581 DUP2 PUSH2 0x56F JUMP JUMPDEST DUP2 EQ PUSH2 0x58B JUMPI PUSH0 PUSH0 REVERT JUMPDEST POP JUMP JUMPDEST PUSH0 DUP2 CALLDATALOAD SWAP1 POP PUSH2 0x59C DUP2 PUSH2 0x578 JUMP JUMPDEST SWAP3 SWAP2 POP POP JUMP JUMPDEST PUSH0 PUSH0 PUSH1 0x40 DUP4 DUP6 SUB SLT ISZERO PUSH2 0x5B8 JUMPI PUSH2 0x5B7 PUSH2 0x538 JUMP JUMPDEST JUMPDEST PUSH0 PUSH2 0x5C5 DUP6 DUP3 DUP7 ADD PUSH2 0x55B JUMP JUMPDEST SWAP3 POP POP PUSH1 0x20 PUSH2 0x5D6 DUP6 DUP3 DUP7 ADD PUSH2 0x58E JUMP JUMPDEST SWAP2 POP POP SWAP3 POP SWAP3 SWAP1 POP JUMP JUMPDEST PUSH0 PUSH1 0x20 DUP3 DUP5 SUB SLT ISZERO PUSH2 0x5F5 JUMPI PUSH2 0x5F4 PUSH2 0x538 JUMP JUMPDEST JUMPDEST PUSH0 PUSH2 0x602 DUP5 DUP3 DUP6 ADD PUSH2 0x58E JUMP JUMPDEST SWAP2 POP POP SWAP3 SWAP2 POP POP JUMP JUMPDEST PUSH2 0x614 DUP2 PUSH2 0x53C JUMP JUMPDEST DUP3 MSTORE POP POP JUMP JUMPDEST PUSH0 PUSH1 0x20 DUP3 ADD SWAP1 POP PUSH2 0x62D PUSH0 DUP4 ADD DUP5 PUSH2 0x60B JUMP JUMPDEST SWAP3 SWAP2 POP POP JUMP JUMPDEST PUSH0 PUSH1 0x10 SWAP1 POP SWAP2 SWAP1 POP JUMP JUMPDEST PUSH0 DUP2 SWAP1 POP SWAP3 SWAP2 POP POP JUMP JUMPDEST PUSH0 DUP2 SWAP1 POP SWAP2 SWAP1 POP JUMP JUMPDEST PUSH2 0x659 DUP2 PUSH2 0x53C JUMP JUMPDEST DUP3 MSTORE POP POP JUMP JUMPDEST PUSH0 PUSH2 0x66A DUP4 DUP4 PUSH2 0x650 JUMP JUMPDEST PUSH1 0x20 DUP4 ADD SWAP1 POP SWAP3 SWAP2 POP POP JUMP JUMPDEST PUSH0 PUSH1 0x20 DUP3 ADD SWAP1 POP SWAP2 SWAP1 POP JUMP JUMPDEST PUSH2 0x68B DUP2 PUSH2 0x633 JUMP JUMPDEST PUSH2 0x695 DUP2 DUP5 PUSH2 0x63D JUMP JUMPDEST SWAP3 POP PUSH2 0x6A0 DUP3 PUSH2 0x647 JUMP JUMPDEST DUP1 PUSH0 JUMPDEST DUP4 DUP2 LT ISZERO PUSH2 0x6D0 JUMPI DUP2 MLOAD PUSH2 0x6B7 DUP8 DUP3 PUSH2 0x65F JUMP JUMPDEST SWAP7 POP PUSH2 0x6C2 DUP4 PUSH2 0x676 JUMP JUMPDEST SWAP3 POP POP PUSH1 0x1 DUP2 ADD SWAP1 POP PUSH2 0x6A3 JUMP JUMPDEST POP POP POP POP POP POP JUMP JUMPDEST PUSH0 PUSH2 0x200 DUP3 ADD SWAP1 POP PUSH2 0x6EC PUSH0 DUP4 ADD DUP5 PUSH2 0x682 JUMP JUMPDEST SWAP3 SWAP2 POP POP JUMP JUMPDEST PUSH0 DUP3 DUP3 MSTORE PUSH1 0x20 DUP3 ADD SWAP1 POP SWAP3 SWAP2 POP POP JUMP JUMPDEST PUSH32 0x696E76616C6964204A6572736579204E756D6265720000000000000000000000 PUSH0 DUP3 ADD MSTORE POP JUMP JUMPDEST PUSH0 PUSH2 0x736 PUSH1 0x15 DUP4 PUSH2 0x6F2 JUMP JUMPDEST SWAP2 POP PUSH2 0x741 DUP3 PUSH2 0x702 JUMP JUMPDEST PUSH1 0x20 DUP3 ADD SWAP1 POP SWAP2 SWAP1 POP JUMP JUMPDEST PUSH0 PUSH1 0x20 DUP3 ADD SWAP1 POP DUP2 DUP2 SUB PUSH0 DUP4 ADD MSTORE PUSH2 0x763 DUP2 PUSH2 0x72A JUMP JUMPDEST SWAP1 POP SWAP2 SWAP1 POP JUMP JUMPDEST PUSH32 0x4E487B7100000000000000000000000000000000000000000000000000000000 PUSH0 MSTORE PUSH1 0x32 PUSH1 0x4 MSTORE PUSH1 0x24 PUSH0 REVERT JUMPDEST PUSH32 0x4A6572736579206E756D62657220616C72656164792074616B656E2E00000000 PUSH0 DUP3 ADD MSTORE POP JUMP JUMPDEST PUSH0 PUSH2 0x7CB PUSH1 0x1C DUP4 PUSH2 0x6F2 JUMP JUMPDEST SWAP2 POP PUSH2 0x7D6 DUP3 PUSH2 0x797 JUMP JUMPDEST PUSH1 0x20 DUP3 ADD SWAP1 POP SWAP2 SWAP1 POP JUMP JUMPDEST PUSH0 PUSH1 0x20 DUP3 ADD SWAP1 POP DUP2 DUP2 SUB PUSH0 DUP4 ADD MSTORE PUSH2 0x7F8 DUP2 PUSH2 0x7BF JUMP JUMPDEST SWAP1 POP SWAP2 SWAP1 POP JUMP JUMPDEST PUSH32 0x496E76616C6964206A6572736579206E756D6265722E00000000000000000000 PUSH0 DUP3 ADD MSTORE POP JUMP JUMPDEST PUSH0 PUSH2 0x833 PUSH1 0x16 DUP4 PUSH2 0x6F2 JUMP JUMPDEST SWAP2 POP PUSH2 0x83E DUP3 PUSH2 0x7FF JUMP JUMPDEST PUSH1 0x20 DUP3 ADD SWAP1 POP SWAP2 SWAP1 POP JUMP JUMPDEST PUSH0 PUSH1 0x20 DUP3 ADD SWAP1 POP DUP2 DUP2 SUB PUSH0 DUP4 ADD MSTORE PUSH2 0x860 DUP2 PUSH2 0x827 JUMP JUMPDEST SWAP1 POP SWAP2 SWAP1 POP JUMP JUMPDEST PUSH32 0x4E6F20706C6179657220746F207570646174652E000000000000000000000000 PUSH0 DUP3 ADD MSTORE POP JUMP JUMPDEST PUSH0 PUSH2 0x89B PUSH1 0x14 DUP4 PUSH2 0x6F2 JUMP JUMPDEST SWAP2 POP PUSH2 0x8A6 DUP3 PUSH2 0x867 JUMP JUMPDEST PUSH1 0x20 DUP3 ADD SWAP1 POP SWAP2 SWAP1 POP JUMP JUMPDEST PUSH0 PUSH1 0x20 DUP3 ADD SWAP1 POP DUP2 DUP2 SUB PUSH0 DUP4 ADD MSTORE PUSH2 0x8C8 DUP2 PUSH2 0x88F JUMP JUMPDEST SWAP1 POP SWAP2 SWAP1 POP JUMP JUMPDEST PUSH32 0x4E6F20706C6179657220696E2074686973206A6572736579206E756D6265722E PUSH0 DUP3 ADD MSTORE POP JUMP JUMPDEST PUSH0 PUSH2 0x903 PUSH1 0x20 DUP4 PUSH2 0x6F2 JUMP JUMPDEST SWAP2 POP PUSH2 0x90E DUP3 PUSH2 0x8CF JUMP JUMPDEST PUSH1 0x20 DUP3 ADD SWAP1 POP SWAP2 SWAP1 POP JUMP JUMPDEST PUSH0 PUSH1 0x20 DUP3 ADD SWAP1 POP DUP2 DUP2 SUB PUSH0 DUP4 ADD MSTORE PUSH2 0x930 DUP2 PUSH2 0x8F7 JUMP JUMPDEST SWAP1 POP SWAP2 SWAP1 POP JUMP INVALID LOG2 PUSH5 0x6970667358 0x22 SLT KECCAK256 DUP7 MOD 0xCA SWAP14 0xCA 0x1E PUSH18 0x973BF7A9439B68588DF9AFF2D8A08A7E5BA2 REVERT PUSH32 0x5189F21A264736F6C634300081C003300000000000000000000000000000000 "
				},
				"gasEstimates": {
					"creation": {
						"codeDepositCost": "482600",
						"executionCost": "516",
						"totalCost": "483116"
					},
					"external": {
						"addPlayer(int256,uint256)": "24888",
						"getTeamPlayers()": "infinite",
						"initializeTeam()": "infinite",
						"removePlayer(uint256)": "24761",
						"selectJerseyNumber(uint256)": "2789",
						"teamPlayers(uint256)": "2744",
						"updatePlayerAddress(int256,uint256)": "24909"
					}
				},
				"methodIdentifiers": {
					"addPlayer(int256,uint256)": "2d4a9892",
					"getTeamPlayers()": "a04fa049",
					"initializeTeam()": "fa530409",
					"removePlayer(uint256)": "bc975512",
					"selectJerseyNumber(uint256)": "9697f8ab",
					"teamPlayers(uint256)": "30244cbf",
					"updatePlayerAddress(int256,uint256)": "a87b9e52"
				}
			},
			"storageLayout": {
				"storage": [
					{
						"astId": 5,
						"contract": "contracts/PRACTICE/Basic Team Registration.sol:Team",
						"label": "teamPlayers",
						"offset": 0,
						"slot": "0",
						"type": "t_array(t_int256)16_storage"
					}
				],
				"types": {
					"t_array(t_int256)16_storage": {
						"base": "t_int256",
						"encoding": "inplace",
						"label": "int256[16]",
						"numberOfBytes": "512"
					},
					"t_int256": {
						"encoding": "inplace",
						"label": "int256",
						"numberOfBytes": "32"
					}
				}
			},
			"userdoc": {
				"kind": "user",
				"methods": {},
				"version": 1
			}
		}
	}
}