{
	"contracts/PRACTICE/User Registeration(question).sol": {
		"UserRegistration": {
			"abi": [
				{
					"inputs": [],
					"stateMutability": "nonpayable",
					"type": "constructor"
				},
				{
					"anonymous": false,
					"inputs": [
						{
							"indexed": true,
							"internalType": "address",
							"name": "userAddress",
							"type": "address"
						},
						{
							"indexed": false,
							"internalType": "string",
							"name": "name",
							"type": "string"
						},
						{
							"indexed": false,
							"internalType": "string",
							"name": "email",
							"type": "string"
						}
					],
					"name": "NewUserRegistered",
					"type": "event"
				},
				{
					"inputs": [],
					"name": "deleteUser",
					"outputs": [],
					"stateMutability": "nonpayable",
					"type": "function"
				},
				{
					"inputs": [],
					"name": "getUserInfo",
					"outputs": [
						{
							"internalType": "string",
							"name": "name",
							"type": "string"
						},
						{
							"internalType": "string",
							"name": "email",
							"type": "string"
						}
					],
					"stateMutability": "view",
					"type": "function"
				},
				{
					"inputs": [],
					"name": "owner",
					"outputs": [
						{
							"internalType": "address",
							"name": "",
							"type": "address"
						}
					],
					"stateMutability": "view",
					"type": "function"
				},
				{
					"inputs": [
						{
							"internalType": "string",
							"name": "_name",
							"type": "string"
						},
						{
							"internalType": "string",
							"name": "_email",
							"type": "string"
						}
					],
					"name": "registerUser",
					"outputs": [],
					"stateMutability": "nonpayable",
					"type": "function"
				},
				{
					"inputs": [
						{
							"internalType": "string",
							"name": "_name",
							"type": "string"
						},
						{
							"internalType": "string",
							"name": "_email",
							"type": "string"
						}
					],
					"name": "updateUserInfo",
					"outputs": [],
					"stateMutability": "nonpayable",
					"type": "function"
				}
			],
			"devdoc": {
				"kind": "dev",
				"methods": {},
				"version": 1
			},
			"evm": {
				"assembly": "    /* \"contracts/PRACTICE/User Registeration(question).sol\":60:2079  contract UserRegistration {... */\n  mstore(0x40, 0x80)\n    /* \"contracts/PRACTICE/User Registeration(question).sol\":604:655  constructor() {... */\n  callvalue\n  dup1\n  iszero\n  tag_1\n  jumpi\n  revert(0x00, 0x00)\ntag_1:\n  pop\n    /* \"contracts/PRACTICE/User Registeration(question).sol\":637:647  msg.sender */\n  caller\n    /* \"contracts/PRACTICE/User Registeration(question).sol\":629:634  owner */\n  0x01\n  0x00\n    /* \"contracts/PRACTICE/User Registeration(question).sol\":629:647  owner = msg.sender */\n  0x0100\n  exp\n  dup2\n  sload\n  dup2\n  0xffffffffffffffffffffffffffffffffffffffff\n  mul\n  not\n  and\n  swap1\n  dup4\n  0xffffffffffffffffffffffffffffffffffffffff\n  and\n  mul\n  or\n  swap1\n  sstore\n  pop\n    /* \"contracts/PRACTICE/User Registeration(question).sol\":60:2079  contract UserRegistration {... */\n  dataSize(sub_0)\n  dup1\n  dataOffset(sub_0)\n  0x00\n  codecopy\n  0x00\n  return\nstop\n\nsub_0: assembly {\n        /* \"contracts/PRACTICE/User Registeration(question).sol\":60:2079  contract UserRegistration {... */\n      mstore(0x40, 0x80)\n      callvalue\n      dup1\n      iszero\n      tag_1\n      jumpi\n      revert(0x00, 0x00)\n    tag_1:\n      pop\n      jumpi(tag_2, lt(calldatasize, 0x04))\n      shr(0xe0, calldataload(0x00))\n      dup1\n      0x026ff05e\n      eq\n      tag_3\n      jumpi\n      dup1\n      0x1d2e4afd\n      eq\n      tag_4\n      jumpi\n      dup1\n      0x4b3fcab5\n      eq\n      tag_5\n      jumpi\n      dup1\n      0x5d8d1585\n      eq\n      tag_6\n      jumpi\n      dup1\n      0x8da5cb5b\n      eq\n      tag_7\n      jumpi\n    tag_2:\n      revert(0x00, 0x00)\n        /* \"contracts/PRACTICE/User Registeration(question).sol\":1939:2076  function deleteUser() public {... */\n    tag_3:\n      tag_8\n      tag_9\n      jump\t// in\n    tag_8:\n      stop\n        /* \"contracts/PRACTICE/User Registeration(question).sol\":922:1246  function registerUser(string memory _name, string memory _email) public {... */\n    tag_4:\n      tag_10\n      0x04\n      dup1\n      calldatasize\n      sub\n      dup2\n      add\n      swap1\n      tag_11\n      swap2\n      swap1\n      tag_12\n      jump\t// in\n    tag_11:\n      tag_13\n      jump\t// in\n    tag_10:\n      stop\n        /* \"contracts/PRACTICE/User Registeration(question).sol\":1673:1874  function updateUserInfo(string memory _name, string memory _email) public {... */\n    tag_5:\n      tag_14\n      0x04\n      dup1\n      calldatasize\n      sub\n      dup2\n      add\n      swap1\n      tag_15\n      swap2\n      swap1\n      tag_12\n      jump\t// in\n    tag_15:\n      tag_16\n      jump\t// in\n    tag_14:\n      stop\n        /* \"contracts/PRACTICE/User Registeration(question).sol\":1313:1608  function getUserInfo() public view returns(string memory name, string memory email) {... */\n    tag_6:\n      tag_17\n      tag_18\n      jump\t// in\n    tag_17:\n      mload(0x40)\n      tag_19\n      swap3\n      swap2\n      swap1\n      tag_20\n      jump\t// in\n    tag_19:\n      mload(0x40)\n      dup1\n      swap2\n      sub\n      swap1\n      return\n        /* \"contracts/PRACTICE/User Registeration(question).sol\":525:545  address public owner */\n    tag_7:\n      tag_21\n      tag_22\n      jump\t// in\n    tag_21:\n      mload(0x40)\n      tag_23\n      swap2\n      swap1\n      tag_24\n      jump\t// in\n    tag_23:\n      mload(0x40)\n      dup1\n      swap2\n      sub\n      swap1\n      return\n        /* \"contracts/PRACTICE/User Registeration(question).sol\":1939:2076  function deleteUser() public {... */\n    tag_9:\n        /* \"contracts/PRACTICE/User Registeration(question).sol\":2045:2056  userMapping */\n      0x00\n        /* \"contracts/PRACTICE/User Registeration(question).sol\":2045:2068  userMapping[msg.sender] */\n      0x00\n        /* \"contracts/PRACTICE/User Registeration(question).sol\":2057:2067  msg.sender */\n      caller\n        /* \"contracts/PRACTICE/User Registeration(question).sol\":2045:2068  userMapping[msg.sender] */\n      0xffffffffffffffffffffffffffffffffffffffff\n      and\n      0xffffffffffffffffffffffffffffffffffffffff\n      and\n      dup2\n      mstore\n      0x20\n      add\n      swap1\n      dup2\n      mstore\n      0x20\n      add\n      0x00\n      keccak256\n      0x00\n        /* \"contracts/PRACTICE/User Registeration(question).sol\":2038:2068  delete userMapping[msg.sender] */\n      0x00\n      dup3\n      add\n      0x00\n      tag_26\n      swap2\n      swap1\n      tag_27\n      jump\t// in\n    tag_26:\n      0x01\n      dup3\n      add\n      0x00\n      tag_28\n      swap2\n      swap1\n      tag_27\n      jump\t// in\n    tag_28:\n      pop\n      pop\n        /* \"contracts/PRACTICE/User Registeration(question).sol\":1939:2076  function deleteUser() public {... */\n      jump\t// out\n        /* \"contracts/PRACTICE/User Registeration(question).sol\":922:1246  function registerUser(string memory _name, string memory _email) public {... */\n    tag_13:\n        /* \"contracts/PRACTICE/User Registeration(question).sol\":1086:1108  UserInfo(_name,_email) */\n      mload(0x40)\n      dup1\n      0x40\n      add\n      0x40\n      mstore\n      dup1\n        /* \"contracts/PRACTICE/User Registeration(question).sol\":1095:1100  _name */\n      dup4\n        /* \"contracts/PRACTICE/User Registeration(question).sol\":1086:1108  UserInfo(_name,_email) */\n      dup2\n      mstore\n      0x20\n      add\n        /* \"contracts/PRACTICE/User Registeration(question).sol\":1101:1107  _email */\n      dup3\n        /* \"contracts/PRACTICE/User Registeration(question).sol\":1086:1108  UserInfo(_name,_email) */\n      dup2\n      mstore\n      pop\n        /* \"contracts/PRACTICE/User Registeration(question).sol\":1061:1072  userMapping */\n      0x00\n        /* \"contracts/PRACTICE/User Registeration(question).sol\":1061:1084  userMapping[msg.sender] */\n      0x00\n        /* \"contracts/PRACTICE/User Registeration(question).sol\":1073:1083  msg.sender */\n      caller\n        /* \"contracts/PRACTICE/User Registeration(question).sol\":1061:1084  userMapping[msg.sender] */\n      0xffffffffffffffffffffffffffffffffffffffff\n      and\n      0xffffffffffffffffffffffffffffffffffffffff\n      and\n      dup2\n      mstore\n      0x20\n      add\n      swap1\n      dup2\n      mstore\n      0x20\n      add\n      0x00\n      keccak256\n        /* \"contracts/PRACTICE/User Registeration(question).sol\":1061:1109  userMapping[msg.sender]=(UserInfo(_name,_email)) */\n      0x00\n      dup3\n      add\n      mload\n      dup2\n      0x00\n      add\n      swap1\n      dup2\n      tag_30\n      swap2\n      swap1\n      tag_31\n      jump\t// in\n    tag_30:\n      pop\n      0x20\n      dup3\n      add\n      mload\n      dup2\n      0x01\n      add\n      swap1\n      dup2\n      tag_32\n      swap2\n      swap1\n      tag_31\n      jump\t// in\n    tag_32:\n      pop\n      swap1\n      pop\n      pop\n        /* \"contracts/PRACTICE/User Registeration(question).sol\":1212:1222  msg.sender */\n      caller\n        /* \"contracts/PRACTICE/User Registeration(question).sol\":1194:1238  NewUserRegistered(msg.sender, _name, _email) */\n      0xffffffffffffffffffffffffffffffffffffffff\n      and\n      0x4f1fc8115cd99196fcb8b51530f90207d6ac26f82fa759cdaef311af0bb8a914\n        /* \"contracts/PRACTICE/User Registeration(question).sol\":1224:1229  _name */\n      dup4\n        /* \"contracts/PRACTICE/User Registeration(question).sol\":1231:1237  _email */\n      dup4\n        /* \"contracts/PRACTICE/User Registeration(question).sol\":1194:1238  NewUserRegistered(msg.sender, _name, _email) */\n      mload(0x40)\n      tag_33\n      swap3\n      swap2\n      swap1\n      tag_20\n      jump\t// in\n    tag_33:\n      mload(0x40)\n      dup1\n      swap2\n      sub\n      swap1\n      log2\n        /* \"contracts/PRACTICE/User Registeration(question).sol\":922:1246  function registerUser(string memory _name, string memory _email) public {... */\n      pop\n      pop\n      jump\t// out\n        /* \"contracts/PRACTICE/User Registeration(question).sol\":1673:1874  function updateUserInfo(string memory _name, string memory _email) public {... */\n    tag_16:\n        /* \"contracts/PRACTICE/User Registeration(question).sol\":1843:1866  UserInfo(_name, _email) */\n      mload(0x40)\n      dup1\n      0x40\n      add\n      0x40\n      mstore\n      dup1\n        /* \"contracts/PRACTICE/User Registeration(question).sol\":1852:1857  _name */\n      dup4\n        /* \"contracts/PRACTICE/User Registeration(question).sol\":1843:1866  UserInfo(_name, _email) */\n      dup2\n      mstore\n      0x20\n      add\n        /* \"contracts/PRACTICE/User Registeration(question).sol\":1859:1865  _email */\n      dup3\n        /* \"contracts/PRACTICE/User Registeration(question).sol\":1843:1866  UserInfo(_name, _email) */\n      dup2\n      mstore\n      pop\n        /* \"contracts/PRACTICE/User Registeration(question).sol\":1817:1828  userMapping */\n      0x00\n        /* \"contracts/PRACTICE/User Registeration(question).sol\":1817:1840  userMapping[msg.sender] */\n      0x00\n        /* \"contracts/PRACTICE/User Registeration(question).sol\":1829:1839  msg.sender */\n      caller\n        /* \"contracts/PRACTICE/User Registeration(question).sol\":1817:1840  userMapping[msg.sender] */\n      0xffffffffffffffffffffffffffffffffffffffff\n      and\n      0xffffffffffffffffffffffffffffffffffffffff\n      and\n      dup2\n      mstore\n      0x20\n      add\n      swap1\n      dup2\n      mstore\n      0x20\n      add\n      0x00\n      keccak256\n        /* \"contracts/PRACTICE/User Registeration(question).sol\":1817:1866  userMapping[msg.sender] = UserInfo(_name, _email) */\n      0x00\n      dup3\n      add\n      mload\n      dup2\n      0x00\n      add\n      swap1\n      dup2\n      tag_35\n      swap2\n      swap1\n      tag_31\n      jump\t// in\n    tag_35:\n      pop\n      0x20\n      dup3\n      add\n      mload\n      dup2\n      0x01\n      add\n      swap1\n      dup2\n      tag_36\n      swap2\n      swap1\n      tag_31\n      jump\t// in\n    tag_36:\n      pop\n      swap1\n      pop\n      pop\n        /* \"contracts/PRACTICE/User Registeration(question).sol\":1673:1874  function updateUserInfo(string memory _name, string memory _email) public {... */\n      pop\n      pop\n      jump\t// out\n        /* \"contracts/PRACTICE/User Registeration(question).sol\":1313:1608  function getUserInfo() public view returns(string memory name, string memory email) {... */\n    tag_18:\n        /* \"contracts/PRACTICE/User Registeration(question).sol\":1356:1374  string memory name */\n      0x60\n        /* \"contracts/PRACTICE/User Registeration(question).sol\":1376:1395  string memory email */\n      dup1\n        /* \"contracts/PRACTICE/User Registeration(question).sol\":1470:1490  UserInfo memory user */\n      0x00\n        /* \"contracts/PRACTICE/User Registeration(question).sol\":1493:1504  userMapping */\n      0x00\n        /* \"contracts/PRACTICE/User Registeration(question).sol\":1493:1516  userMapping[msg.sender] */\n      0x00\n        /* \"contracts/PRACTICE/User Registeration(question).sol\":1505:1515  msg.sender */\n      caller\n        /* \"contracts/PRACTICE/User Registeration(question).sol\":1493:1516  userMapping[msg.sender] */\n      0xffffffffffffffffffffffffffffffffffffffff\n      and\n      0xffffffffffffffffffffffffffffffffffffffff\n      and\n      dup2\n      mstore\n      0x20\n      add\n      swap1\n      dup2\n      mstore\n      0x20\n      add\n      0x00\n      keccak256\n        /* \"contracts/PRACTICE/User Registeration(question).sol\":1470:1516  UserInfo memory user = userMapping[msg.sender] */\n      mload(0x40)\n      dup1\n      0x40\n      add\n      0x40\n      mstore\n      swap1\n      dup2\n      0x00\n      dup3\n      add\n      dup1\n      sload\n      tag_38\n      swap1\n      tag_39\n      jump\t// in\n    tag_38:\n      dup1\n      0x1f\n      add\n      0x20\n      dup1\n      swap2\n      div\n      mul\n      0x20\n      add\n      mload(0x40)\n      swap1\n      dup2\n      add\n      0x40\n      mstore\n      dup1\n      swap3\n      swap2\n      swap1\n      dup2\n      dup2\n      mstore\n      0x20\n      add\n      dup3\n      dup1\n      sload\n      tag_40\n      swap1\n      tag_39\n      jump\t// in\n    tag_40:\n      dup1\n      iszero\n      tag_41\n      jumpi\n      dup1\n      0x1f\n      lt\n      tag_42\n      jumpi\n      0x0100\n      dup1\n      dup4\n      sload\n      div\n      mul\n      dup4\n      mstore\n      swap2\n      0x20\n      add\n      swap2\n      jump(tag_41)\n    tag_42:\n      dup3\n      add\n      swap2\n      swap1\n      0x00\n      mstore\n      keccak256(0x00, 0x20)\n      swap1\n    tag_43:\n      dup2\n      sload\n      dup2\n      mstore\n      swap1\n      0x01\n      add\n      swap1\n      0x20\n      add\n      dup1\n      dup4\n      gt\n      tag_43\n      jumpi\n      dup3\n      swap1\n      sub\n      0x1f\n      and\n      dup3\n      add\n      swap2\n    tag_41:\n      pop\n      pop\n      pop\n      pop\n      pop\n      dup2\n      mstore\n      0x20\n      add\n      0x01\n      dup3\n      add\n      dup1\n      sload\n      tag_44\n      swap1\n      tag_39\n      jump\t// in\n    tag_44:\n      dup1\n      0x1f\n      add\n      0x20\n      dup1\n      swap2\n      div\n      mul\n      0x20\n      add\n      mload(0x40)\n      swap1\n      dup2\n      add\n      0x40\n      mstore\n      dup1\n      swap3\n      swap2\n      swap1\n      dup2\n      dup2\n      mstore\n      0x20\n      add\n      dup3\n      dup1\n      sload\n      tag_45\n      swap1\n      tag_39\n      jump\t// in\n    tag_45:\n      dup1\n      iszero\n      tag_46\n      jumpi\n      dup1\n      0x1f\n      lt\n      tag_47\n      jumpi\n      0x0100\n      dup1\n      dup4\n      sload\n      div\n      mul\n      dup4\n      mstore\n      swap2\n      0x20\n      add\n      swap2\n      jump(tag_46)\n    tag_47:\n      dup3\n      add\n      swap2\n      swap1\n      0x00\n      mstore\n      keccak256(0x00, 0x20)\n      swap1\n    tag_48:\n      dup2\n      sload\n      dup2\n      mstore\n      swap1\n      0x01\n      add\n      swap1\n      0x20\n      add\n      dup1\n      dup4\n      gt\n      tag_48\n      jumpi\n      dup3\n      swap1\n      sub\n      0x1f\n      and\n      dup3\n      add\n      swap2\n    tag_46:\n      pop\n      pop\n      pop\n      pop\n      pop\n      dup2\n      mstore\n      pop\n      pop\n      swap1\n      pop\n        /* \"contracts/PRACTICE/User Registeration(question).sol\":1578:1582  user */\n      dup1\n        /* \"contracts/PRACTICE/User Registeration(question).sol\":1578:1587  user.name */\n      0x00\n      add\n      mload\n        /* \"contracts/PRACTICE/User Registeration(question).sol\":1589:1593  user */\n      dup2\n        /* \"contracts/PRACTICE/User Registeration(question).sol\":1589:1599  user.email */\n      0x20\n      add\n      mload\n        /* \"contracts/PRACTICE/User Registeration(question).sol\":1569:1600  return  (user.name, user.email) */\n      swap3\n      pop\n      swap3\n      pop\n      pop\n        /* \"contracts/PRACTICE/User Registeration(question).sol\":1313:1608  function getUserInfo() public view returns(string memory name, string memory email) {... */\n      swap1\n      swap2\n      jump\t// out\n        /* \"contracts/PRACTICE/User Registeration(question).sol\":525:545  address public owner */\n    tag_22:\n      0x01\n      0x00\n      swap1\n      sload\n      swap1\n      0x0100\n      exp\n      swap1\n      div\n      0xffffffffffffffffffffffffffffffffffffffff\n      and\n      dup2\n      jump\t// out\n    tag_27:\n      pop\n      dup1\n      sload\n      tag_49\n      swap1\n      tag_39\n      jump\t// in\n    tag_49:\n      0x00\n      dup3\n      sstore\n      dup1\n      0x1f\n      lt\n      tag_51\n      jumpi\n      pop\n      jump(tag_50)\n    tag_51:\n      0x1f\n      add\n      0x20\n      swap1\n      div\n      swap1\n      0x00\n      mstore\n      keccak256(0x00, 0x20)\n      swap1\n      dup2\n      add\n      swap1\n      tag_52\n      swap2\n      swap1\n      tag_53\n      jump\t// in\n    tag_52:\n    tag_50:\n      pop\n      jump\t// out\n    tag_53:\n    tag_54:\n      dup1\n      dup3\n      gt\n      iszero\n      tag_55\n      jumpi\n      0x00\n      dup2\n      0x00\n      swap1\n      sstore\n      pop\n      0x01\n      add\n      jump(tag_54)\n    tag_55:\n      pop\n      swap1\n      jump\t// out\n        /* \"#utility.yul\":7:82   */\n    tag_56:\n        /* \"#utility.yul\":40:46   */\n      0x00\n        /* \"#utility.yul\":73:75   */\n      0x40\n        /* \"#utility.yul\":67:76   */\n      mload\n        /* \"#utility.yul\":57:76   */\n      swap1\n      pop\n        /* \"#utility.yul\":7:82   */\n      swap1\n      jump\t// out\n        /* \"#utility.yul\":88:205   */\n    tag_57:\n        /* \"#utility.yul\":197:198   */\n      0x00\n        /* \"#utility.yul\":194:195   */\n      0x00\n        /* \"#utility.yul\":187:199   */\n      revert\n        /* \"#utility.yul\":211:328   */\n    tag_58:\n        /* \"#utility.yul\":320:321   */\n      0x00\n        /* \"#utility.yul\":317:318   */\n      0x00\n        /* \"#utility.yul\":310:322   */\n      revert\n        /* \"#utility.yul\":334:451   */\n    tag_59:\n        /* \"#utility.yul\":443:444   */\n      0x00\n        /* \"#utility.yul\":440:441   */\n      0x00\n        /* \"#utility.yul\":433:445   */\n      revert\n        /* \"#utility.yul\":457:574   */\n    tag_60:\n        /* \"#utility.yul\":566:567   */\n      0x00\n        /* \"#utility.yul\":563:564   */\n      0x00\n        /* \"#utility.yul\":556:568   */\n      revert\n        /* \"#utility.yul\":580:682   */\n    tag_61:\n        /* \"#utility.yul\":621:627   */\n      0x00\n        /* \"#utility.yul\":672:674   */\n      0x1f\n        /* \"#utility.yul\":668:675   */\n      not\n        /* \"#utility.yul\":663:665   */\n      0x1f\n        /* \"#utility.yul\":656:661   */\n      dup4\n        /* \"#utility.yul\":652:666   */\n      add\n        /* \"#utility.yul\":648:676   */\n      and\n        /* \"#utility.yul\":638:676   */\n      swap1\n      pop\n        /* \"#utility.yul\":580:682   */\n      swap2\n      swap1\n      pop\n      jump\t// out\n        /* \"#utility.yul\":688:868   */\n    tag_62:\n        /* \"#utility.yul\":736:813   */\n      0x4e487b7100000000000000000000000000000000000000000000000000000000\n        /* \"#utility.yul\":733:734   */\n      0x00\n        /* \"#utility.yul\":726:814   */\n      mstore\n        /* \"#utility.yul\":833:837   */\n      0x41\n        /* \"#utility.yul\":830:831   */\n      0x04\n        /* \"#utility.yul\":823:838   */\n      mstore\n        /* \"#utility.yul\":857:861   */\n      0x24\n        /* \"#utility.yul\":854:855   */\n      0x00\n        /* \"#utility.yul\":847:862   */\n      revert\n        /* \"#utility.yul\":874:1155   */\n    tag_63:\n        /* \"#utility.yul\":957:984   */\n      tag_102\n        /* \"#utility.yul\":979:983   */\n      dup3\n        /* \"#utility.yul\":957:984   */\n      tag_61\n      jump\t// in\n    tag_102:\n        /* \"#utility.yul\":949:955   */\n      dup2\n        /* \"#utility.yul\":945:985   */\n      add\n        /* \"#utility.yul\":1087:1093   */\n      dup2\n        /* \"#utility.yul\":1075:1085   */\n      dup2\n        /* \"#utility.yul\":1072:1094   */\n      lt\n        /* \"#utility.yul\":1051:1069   */\n      0xffffffffffffffff\n        /* \"#utility.yul\":1039:1049   */\n      dup3\n        /* \"#utility.yul\":1036:1070   */\n      gt\n        /* \"#utility.yul\":1033:1095   */\n      or\n        /* \"#utility.yul\":1030:1118   */\n      iszero\n      tag_103\n      jumpi\n        /* \"#utility.yul\":1098:1116   */\n      tag_104\n      tag_62\n      jump\t// in\n    tag_104:\n        /* \"#utility.yul\":1030:1118   */\n    tag_103:\n        /* \"#utility.yul\":1138:1148   */\n      dup1\n        /* \"#utility.yul\":1134:1136   */\n      0x40\n        /* \"#utility.yul\":1127:1149   */\n      mstore\n        /* \"#utility.yul\":917:1155   */\n      pop\n        /* \"#utility.yul\":874:1155   */\n      pop\n      pop\n      jump\t// out\n        /* \"#utility.yul\":1161:1290   */\n    tag_64:\n        /* \"#utility.yul\":1195:1201   */\n      0x00\n        /* \"#utility.yul\":1222:1242   */\n      tag_106\n      tag_56\n      jump\t// in\n    tag_106:\n        /* \"#utility.yul\":1212:1242   */\n      swap1\n      pop\n        /* \"#utility.yul\":1251:1284   */\n      tag_107\n        /* \"#utility.yul\":1279:1283   */\n      dup3\n        /* \"#utility.yul\":1271:1277   */\n      dup3\n        /* \"#utility.yul\":1251:1284   */\n      tag_63\n      jump\t// in\n    tag_107:\n        /* \"#utility.yul\":1161:1290   */\n      swap2\n      swap1\n      pop\n      jump\t// out\n        /* \"#utility.yul\":1296:1604   */\n    tag_65:\n        /* \"#utility.yul\":1358:1362   */\n      0x00\n        /* \"#utility.yul\":1448:1466   */\n      0xffffffffffffffff\n        /* \"#utility.yul\":1440:1446   */\n      dup3\n        /* \"#utility.yul\":1437:1467   */\n      gt\n        /* \"#utility.yul\":1434:1490   */\n      iszero\n      tag_109\n      jumpi\n        /* \"#utility.yul\":1470:1488   */\n      tag_110\n      tag_62\n      jump\t// in\n    tag_110:\n        /* \"#utility.yul\":1434:1490   */\n    tag_109:\n        /* \"#utility.yul\":1508:1537   */\n      tag_111\n        /* \"#utility.yul\":1530:1536   */\n      dup3\n        /* \"#utility.yul\":1508:1537   */\n      tag_61\n      jump\t// in\n    tag_111:\n        /* \"#utility.yul\":1500:1537   */\n      swap1\n      pop\n        /* \"#utility.yul\":1592:1596   */\n      0x20\n        /* \"#utility.yul\":1586:1590   */\n      dup2\n        /* \"#utility.yul\":1582:1597   */\n      add\n        /* \"#utility.yul\":1574:1597   */\n      swap1\n      pop\n        /* \"#utility.yul\":1296:1604   */\n      swap2\n      swap1\n      pop\n      jump\t// out\n        /* \"#utility.yul\":1610:1758   */\n    tag_66:\n        /* \"#utility.yul\":1708:1714   */\n      dup3\n        /* \"#utility.yul\":1703:1706   */\n      dup2\n        /* \"#utility.yul\":1698:1701   */\n      dup4\n        /* \"#utility.yul\":1685:1715   */\n      calldatacopy\n        /* \"#utility.yul\":1749:1750   */\n      0x00\n        /* \"#utility.yul\":1740:1746   */\n      dup4\n        /* \"#utility.yul\":1735:1738   */\n      dup4\n        /* \"#utility.yul\":1731:1747   */\n      add\n        /* \"#utility.yul\":1724:1751   */\n      mstore\n        /* \"#utility.yul\":1610:1758   */\n      pop\n      pop\n      pop\n      jump\t// out\n        /* \"#utility.yul\":1764:2189   */\n    tag_67:\n        /* \"#utility.yul\":1842:1847   */\n      0x00\n        /* \"#utility.yul\":1867:1933   */\n      tag_114\n        /* \"#utility.yul\":1883:1932   */\n      tag_115\n        /* \"#utility.yul\":1925:1931   */\n      dup5\n        /* \"#utility.yul\":1883:1932   */\n      tag_65\n      jump\t// in\n    tag_115:\n        /* \"#utility.yul\":1867:1933   */\n      tag_64\n      jump\t// in\n    tag_114:\n        /* \"#utility.yul\":1858:1933   */\n      swap1\n      pop\n        /* \"#utility.yul\":1956:1962   */\n      dup3\n        /* \"#utility.yul\":1949:1954   */\n      dup2\n        /* \"#utility.yul\":1942:1963   */\n      mstore\n        /* \"#utility.yul\":1994:1998   */\n      0x20\n        /* \"#utility.yul\":1987:1992   */\n      dup2\n        /* \"#utility.yul\":1983:1999   */\n      add\n        /* \"#utility.yul\":2032:2035   */\n      dup5\n        /* \"#utility.yul\":2023:2029   */\n      dup5\n        /* \"#utility.yul\":2018:2021   */\n      dup5\n        /* \"#utility.yul\":2014:2030   */\n      add\n        /* \"#utility.yul\":2011:2036   */\n      gt\n        /* \"#utility.yul\":2008:2120   */\n      iszero\n      tag_116\n      jumpi\n        /* \"#utility.yul\":2039:2118   */\n      tag_117\n      tag_60\n      jump\t// in\n    tag_117:\n        /* \"#utility.yul\":2008:2120   */\n    tag_116:\n        /* \"#utility.yul\":2129:2183   */\n      tag_118\n        /* \"#utility.yul\":2176:2182   */\n      dup5\n        /* \"#utility.yul\":2171:2174   */\n      dup3\n        /* \"#utility.yul\":2166:2169   */\n      dup6\n        /* \"#utility.yul\":2129:2183   */\n      tag_66\n      jump\t// in\n    tag_118:\n        /* \"#utility.yul\":1848:2189   */\n      pop\n        /* \"#utility.yul\":1764:2189   */\n      swap4\n      swap3\n      pop\n      pop\n      pop\n      jump\t// out\n        /* \"#utility.yul\":2209:2549   */\n    tag_68:\n        /* \"#utility.yul\":2265:2270   */\n      0x00\n        /* \"#utility.yul\":2314:2317   */\n      dup3\n        /* \"#utility.yul\":2307:2311   */\n      0x1f\n        /* \"#utility.yul\":2299:2305   */\n      dup4\n        /* \"#utility.yul\":2295:2312   */\n      add\n        /* \"#utility.yul\":2291:2318   */\n      slt\n        /* \"#utility.yul\":2281:2403   */\n      tag_120\n      jumpi\n        /* \"#utility.yul\":2322:2401   */\n      tag_121\n      tag_59\n      jump\t// in\n    tag_121:\n        /* \"#utility.yul\":2281:2403   */\n    tag_120:\n        /* \"#utility.yul\":2439:2445   */\n      dup2\n        /* \"#utility.yul\":2426:2446   */\n      calldataload\n        /* \"#utility.yul\":2464:2543   */\n      tag_122\n        /* \"#utility.yul\":2539:2542   */\n      dup5\n        /* \"#utility.yul\":2531:2537   */\n      dup3\n        /* \"#utility.yul\":2524:2528   */\n      0x20\n        /* \"#utility.yul\":2516:2522   */\n      dup7\n        /* \"#utility.yul\":2512:2529   */\n      add\n        /* \"#utility.yul\":2464:2543   */\n      tag_67\n      jump\t// in\n    tag_122:\n        /* \"#utility.yul\":2455:2543   */\n      swap2\n      pop\n        /* \"#utility.yul\":2271:2549   */\n      pop\n        /* \"#utility.yul\":2209:2549   */\n      swap3\n      swap2\n      pop\n      pop\n      jump\t// out\n        /* \"#utility.yul\":2555:3389   */\n    tag_12:\n        /* \"#utility.yul\":2643:2649   */\n      0x00\n        /* \"#utility.yul\":2651:2657   */\n      0x00\n        /* \"#utility.yul\":2700:2702   */\n      0x40\n        /* \"#utility.yul\":2688:2697   */\n      dup4\n        /* \"#utility.yul\":2679:2686   */\n      dup6\n        /* \"#utility.yul\":2675:2698   */\n      sub\n        /* \"#utility.yul\":2671:2703   */\n      slt\n        /* \"#utility.yul\":2668:2787   */\n      iszero\n      tag_124\n      jumpi\n        /* \"#utility.yul\":2706:2785   */\n      tag_125\n      tag_57\n      jump\t// in\n    tag_125:\n        /* \"#utility.yul\":2668:2787   */\n    tag_124:\n        /* \"#utility.yul\":2854:2855   */\n      0x00\n        /* \"#utility.yul\":2843:2852   */\n      dup4\n        /* \"#utility.yul\":2839:2856   */\n      add\n        /* \"#utility.yul\":2826:2857   */\n      calldataload\n        /* \"#utility.yul\":2884:2902   */\n      0xffffffffffffffff\n        /* \"#utility.yul\":2876:2882   */\n      dup2\n        /* \"#utility.yul\":2873:2903   */\n      gt\n        /* \"#utility.yul\":2870:2987   */\n      iszero\n      tag_126\n      jumpi\n        /* \"#utility.yul\":2906:2985   */\n      tag_127\n      tag_58\n      jump\t// in\n    tag_127:\n        /* \"#utility.yul\":2870:2987   */\n    tag_126:\n        /* \"#utility.yul\":3011:3074   */\n      tag_128\n        /* \"#utility.yul\":3066:3073   */\n      dup6\n        /* \"#utility.yul\":3057:3063   */\n      dup3\n        /* \"#utility.yul\":3046:3055   */\n      dup7\n        /* \"#utility.yul\":3042:3064   */\n      add\n        /* \"#utility.yul\":3011:3074   */\n      tag_68\n      jump\t// in\n    tag_128:\n        /* \"#utility.yul\":3001:3074   */\n      swap3\n      pop\n        /* \"#utility.yul\":2797:3084   */\n      pop\n        /* \"#utility.yul\":3151:3153   */\n      0x20\n        /* \"#utility.yul\":3140:3149   */\n      dup4\n        /* \"#utility.yul\":3136:3154   */\n      add\n        /* \"#utility.yul\":3123:3155   */\n      calldataload\n        /* \"#utility.yul\":3182:3200   */\n      0xffffffffffffffff\n        /* \"#utility.yul\":3174:3180   */\n      dup2\n        /* \"#utility.yul\":3171:3201   */\n      gt\n        /* \"#utility.yul\":3168:3285   */\n      iszero\n      tag_129\n      jumpi\n        /* \"#utility.yul\":3204:3283   */\n      tag_130\n      tag_58\n      jump\t// in\n    tag_130:\n        /* \"#utility.yul\":3168:3285   */\n    tag_129:\n        /* \"#utility.yul\":3309:3372   */\n      tag_131\n        /* \"#utility.yul\":3364:3371   */\n      dup6\n        /* \"#utility.yul\":3355:3361   */\n      dup3\n        /* \"#utility.yul\":3344:3353   */\n      dup7\n        /* \"#utility.yul\":3340:3362   */\n      add\n        /* \"#utility.yul\":3309:3372   */\n      tag_68\n      jump\t// in\n    tag_131:\n        /* \"#utility.yul\":3299:3372   */\n      swap2\n      pop\n        /* \"#utility.yul\":3094:3382   */\n      pop\n        /* \"#utility.yul\":2555:3389   */\n      swap3\n      pop\n      swap3\n      swap1\n      pop\n      jump\t// out\n        /* \"#utility.yul\":3395:3494   */\n    tag_69:\n        /* \"#utility.yul\":3447:3453   */\n      0x00\n        /* \"#utility.yul\":3481:3486   */\n      dup2\n        /* \"#utility.yul\":3475:3487   */\n      mload\n        /* \"#utility.yul\":3465:3487   */\n      swap1\n      pop\n        /* \"#utility.yul\":3395:3494   */\n      swap2\n      swap1\n      pop\n      jump\t// out\n        /* \"#utility.yul\":3500:3669   */\n    tag_70:\n        /* \"#utility.yul\":3584:3595   */\n      0x00\n        /* \"#utility.yul\":3618:3624   */\n      dup3\n        /* \"#utility.yul\":3613:3616   */\n      dup3\n        /* \"#utility.yul\":3606:3625   */\n      mstore\n        /* \"#utility.yul\":3658:3662   */\n      0x20\n        /* \"#utility.yul\":3653:3656   */\n      dup3\n        /* \"#utility.yul\":3649:3663   */\n      add\n        /* \"#utility.yul\":3634:3663   */\n      swap1\n      pop\n        /* \"#utility.yul\":3500:3669   */\n      swap3\n      swap2\n      pop\n      pop\n      jump\t// out\n        /* \"#utility.yul\":3675:3814   */\n    tag_71:\n        /* \"#utility.yul\":3764:3770   */\n      dup3\n        /* \"#utility.yul\":3759:3762   */\n      dup2\n        /* \"#utility.yul\":3754:3757   */\n      dup4\n        /* \"#utility.yul\":3748:3771   */\n      mcopy\n        /* \"#utility.yul\":3805:3806   */\n      0x00\n        /* \"#utility.yul\":3796:3802   */\n      dup4\n        /* \"#utility.yul\":3791:3794   */\n      dup4\n        /* \"#utility.yul\":3787:3803   */\n      add\n        /* \"#utility.yul\":3780:3807   */\n      mstore\n        /* \"#utility.yul\":3675:3814   */\n      pop\n      pop\n      pop\n      jump\t// out\n        /* \"#utility.yul\":3820:4197   */\n    tag_72:\n        /* \"#utility.yul\":3908:3911   */\n      0x00\n        /* \"#utility.yul\":3936:3975   */\n      tag_136\n        /* \"#utility.yul\":3969:3974   */\n      dup3\n        /* \"#utility.yul\":3936:3975   */\n      tag_69\n      jump\t// in\n    tag_136:\n        /* \"#utility.yul\":3991:4062   */\n      tag_137\n        /* \"#utility.yul\":4055:4061   */\n      dup2\n        /* \"#utility.yul\":4050:4053   */\n      dup6\n        /* \"#utility.yul\":3991:4062   */\n      tag_70\n      jump\t// in\n    tag_137:\n        /* \"#utility.yul\":3984:4062   */\n      swap4\n      pop\n        /* \"#utility.yul\":4071:4136   */\n      tag_138\n        /* \"#utility.yul\":4129:4135   */\n      dup2\n        /* \"#utility.yul\":4124:4127   */\n      dup6\n        /* \"#utility.yul\":4117:4121   */\n      0x20\n        /* \"#utility.yul\":4110:4115   */\n      dup7\n        /* \"#utility.yul\":4106:4122   */\n      add\n        /* \"#utility.yul\":4071:4136   */\n      tag_71\n      jump\t// in\n    tag_138:\n        /* \"#utility.yul\":4161:4190   */\n      tag_139\n        /* \"#utility.yul\":4183:4189   */\n      dup2\n        /* \"#utility.yul\":4161:4190   */\n      tag_61\n      jump\t// in\n    tag_139:\n        /* \"#utility.yul\":4156:4159   */\n      dup5\n        /* \"#utility.yul\":4152:4191   */\n      add\n        /* \"#utility.yul\":4145:4191   */\n      swap2\n      pop\n        /* \"#utility.yul\":3912:4197   */\n      pop\n        /* \"#utility.yul\":3820:4197   */\n      swap3\n      swap2\n      pop\n      pop\n      jump\t// out\n        /* \"#utility.yul\":4203:4717   */\n    tag_20:\n        /* \"#utility.yul\":4364:4368   */\n      0x00\n        /* \"#utility.yul\":4402:4404   */\n      0x40\n        /* \"#utility.yul\":4391:4400   */\n      dup3\n        /* \"#utility.yul\":4387:4405   */\n      add\n        /* \"#utility.yul\":4379:4405   */\n      swap1\n      pop\n        /* \"#utility.yul\":4451:4460   */\n      dup2\n        /* \"#utility.yul\":4445:4449   */\n      dup2\n        /* \"#utility.yul\":4441:4461   */\n      sub\n        /* \"#utility.yul\":4437:4438   */\n      0x00\n        /* \"#utility.yul\":4426:4435   */\n      dup4\n        /* \"#utility.yul\":4422:4439   */\n      add\n        /* \"#utility.yul\":4415:4462   */\n      mstore\n        /* \"#utility.yul\":4479:4557   */\n      tag_141\n        /* \"#utility.yul\":4552:4556   */\n      dup2\n        /* \"#utility.yul\":4543:4549   */\n      dup6\n        /* \"#utility.yul\":4479:4557   */\n      tag_72\n      jump\t// in\n    tag_141:\n        /* \"#utility.yul\":4471:4557   */\n      swap1\n      pop\n        /* \"#utility.yul\":4604:4613   */\n      dup2\n        /* \"#utility.yul\":4598:4602   */\n      dup2\n        /* \"#utility.yul\":4594:4614   */\n      sub\n        /* \"#utility.yul\":4589:4591   */\n      0x20\n        /* \"#utility.yul\":4578:4587   */\n      dup4\n        /* \"#utility.yul\":4574:4592   */\n      add\n        /* \"#utility.yul\":4567:4615   */\n      mstore\n        /* \"#utility.yul\":4632:4710   */\n      tag_142\n        /* \"#utility.yul\":4705:4709   */\n      dup2\n        /* \"#utility.yul\":4696:4702   */\n      dup5\n        /* \"#utility.yul\":4632:4710   */\n      tag_72\n      jump\t// in\n    tag_142:\n        /* \"#utility.yul\":4624:4710   */\n      swap1\n      pop\n        /* \"#utility.yul\":4203:4717   */\n      swap4\n      swap3\n      pop\n      pop\n      pop\n      jump\t// out\n        /* \"#utility.yul\":4723:4849   */\n    tag_73:\n        /* \"#utility.yul\":4760:4767   */\n      0x00\n        /* \"#utility.yul\":4800:4842   */\n      0xffffffffffffffffffffffffffffffffffffffff\n        /* \"#utility.yul\":4793:4798   */\n      dup3\n        /* \"#utility.yul\":4789:4843   */\n      and\n        /* \"#utility.yul\":4778:4843   */\n      swap1\n      pop\n        /* \"#utility.yul\":4723:4849   */\n      swap2\n      swap1\n      pop\n      jump\t// out\n        /* \"#utility.yul\":4855:4951   */\n    tag_74:\n        /* \"#utility.yul\":4892:4899   */\n      0x00\n        /* \"#utility.yul\":4921:4945   */\n      tag_145\n        /* \"#utility.yul\":4939:4944   */\n      dup3\n        /* \"#utility.yul\":4921:4945   */\n      tag_73\n      jump\t// in\n    tag_145:\n        /* \"#utility.yul\":4910:4945   */\n      swap1\n      pop\n        /* \"#utility.yul\":4855:4951   */\n      swap2\n      swap1\n      pop\n      jump\t// out\n        /* \"#utility.yul\":4957:5075   */\n    tag_75:\n        /* \"#utility.yul\":5044:5068   */\n      tag_147\n        /* \"#utility.yul\":5062:5067   */\n      dup2\n        /* \"#utility.yul\":5044:5068   */\n      tag_74\n      jump\t// in\n    tag_147:\n        /* \"#utility.yul\":5039:5042   */\n      dup3\n        /* \"#utility.yul\":5032:5069   */\n      mstore\n        /* \"#utility.yul\":4957:5075   */\n      pop\n      pop\n      jump\t// out\n        /* \"#utility.yul\":5081:5303   */\n    tag_24:\n        /* \"#utility.yul\":5174:5178   */\n      0x00\n        /* \"#utility.yul\":5212:5214   */\n      0x20\n        /* \"#utility.yul\":5201:5210   */\n      dup3\n        /* \"#utility.yul\":5197:5215   */\n      add\n        /* \"#utility.yul\":5189:5215   */\n      swap1\n      pop\n        /* \"#utility.yul\":5225:5296   */\n      tag_149\n        /* \"#utility.yul\":5293:5294   */\n      0x00\n        /* \"#utility.yul\":5282:5291   */\n      dup4\n        /* \"#utility.yul\":5278:5295   */\n      add\n        /* \"#utility.yul\":5269:5275   */\n      dup5\n        /* \"#utility.yul\":5225:5296   */\n      tag_75\n      jump\t// in\n    tag_149:\n        /* \"#utility.yul\":5081:5303   */\n      swap3\n      swap2\n      pop\n      pop\n      jump\t// out\n        /* \"#utility.yul\":5309:5489   */\n    tag_76:\n        /* \"#utility.yul\":5357:5434   */\n      0x4e487b7100000000000000000000000000000000000000000000000000000000\n        /* \"#utility.yul\":5354:5355   */\n      0x00\n        /* \"#utility.yul\":5347:5435   */\n      mstore\n        /* \"#utility.yul\":5454:5458   */\n      0x22\n        /* \"#utility.yul\":5451:5452   */\n      0x04\n        /* \"#utility.yul\":5444:5459   */\n      mstore\n        /* \"#utility.yul\":5478:5482   */\n      0x24\n        /* \"#utility.yul\":5475:5476   */\n      0x00\n        /* \"#utility.yul\":5468:5483   */\n      revert\n        /* \"#utility.yul\":5495:5815   */\n    tag_39:\n        /* \"#utility.yul\":5539:5545   */\n      0x00\n        /* \"#utility.yul\":5576:5577   */\n      0x02\n        /* \"#utility.yul\":5570:5574   */\n      dup3\n        /* \"#utility.yul\":5566:5578   */\n      div\n        /* \"#utility.yul\":5556:5578   */\n      swap1\n      pop\n        /* \"#utility.yul\":5623:5624   */\n      0x01\n        /* \"#utility.yul\":5617:5621   */\n      dup3\n        /* \"#utility.yul\":5613:5625   */\n      and\n        /* \"#utility.yul\":5644:5662   */\n      dup1\n        /* \"#utility.yul\":5634:5715   */\n      tag_152\n      jumpi\n        /* \"#utility.yul\":5700:5704   */\n      0x7f\n        /* \"#utility.yul\":5692:5698   */\n      dup3\n        /* \"#utility.yul\":5688:5705   */\n      and\n        /* \"#utility.yul\":5678:5705   */\n      swap2\n      pop\n        /* \"#utility.yul\":5634:5715   */\n    tag_152:\n        /* \"#utility.yul\":5762:5764   */\n      0x20\n        /* \"#utility.yul\":5754:5760   */\n      dup3\n        /* \"#utility.yul\":5751:5765   */\n      lt\n        /* \"#utility.yul\":5731:5749   */\n      dup2\n        /* \"#utility.yul\":5728:5766   */\n      sub\n        /* \"#utility.yul\":5725:5809   */\n      tag_153\n      jumpi\n        /* \"#utility.yul\":5781:5799   */\n      tag_154\n      tag_76\n      jump\t// in\n    tag_154:\n        /* \"#utility.yul\":5725:5809   */\n    tag_153:\n        /* \"#utility.yul\":5546:5815   */\n      pop\n        /* \"#utility.yul\":5495:5815   */\n      swap2\n      swap1\n      pop\n      jump\t// out\n        /* \"#utility.yul\":5821:5962   */\n    tag_77:\n        /* \"#utility.yul\":5870:5874   */\n      0x00\n        /* \"#utility.yul\":5893:5896   */\n      dup2\n        /* \"#utility.yul\":5885:5896   */\n      swap1\n      pop\n        /* \"#utility.yul\":5916:5919   */\n      dup2\n        /* \"#utility.yul\":5913:5914   */\n      0x00\n        /* \"#utility.yul\":5906:5920   */\n      mstore\n        /* \"#utility.yul\":5950:5954   */\n      0x20\n        /* \"#utility.yul\":5947:5948   */\n      0x00\n        /* \"#utility.yul\":5937:5955   */\n      keccak256\n        /* \"#utility.yul\":5929:5955   */\n      swap1\n      pop\n        /* \"#utility.yul\":5821:5962   */\n      swap2\n      swap1\n      pop\n      jump\t// out\n        /* \"#utility.yul\":5968:6061   */\n    tag_78:\n        /* \"#utility.yul\":6005:6011   */\n      0x00\n        /* \"#utility.yul\":6052:6054   */\n      0x20\n        /* \"#utility.yul\":6047:6049   */\n      0x1f\n        /* \"#utility.yul\":6040:6045   */\n      dup4\n        /* \"#utility.yul\":6036:6050   */\n      add\n        /* \"#utility.yul\":6032:6055   */\n      div\n        /* \"#utility.yul\":6022:6055   */\n      swap1\n      pop\n        /* \"#utility.yul\":5968:6061   */\n      swap2\n      swap1\n      pop\n      jump\t// out\n        /* \"#utility.yul\":6067:6174   */\n    tag_79:\n        /* \"#utility.yul\":6111:6119   */\n      0x00\n        /* \"#utility.yul\":6161:6166   */\n      dup3\n        /* \"#utility.yul\":6155:6159   */\n      dup3\n        /* \"#utility.yul\":6151:6167   */\n      shl\n        /* \"#utility.yul\":6130:6167   */\n      swap1\n      pop\n        /* \"#utility.yul\":6067:6174   */\n      swap3\n      swap2\n      pop\n      pop\n      jump\t// out\n        /* \"#utility.yul\":6180:6573   */\n    tag_80:\n        /* \"#utility.yul\":6249:6255   */\n      0x00\n        /* \"#utility.yul\":6299:6300   */\n      0x08\n        /* \"#utility.yul\":6287:6297   */\n      dup4\n        /* \"#utility.yul\":6283:6301   */\n      mul\n        /* \"#utility.yul\":6322:6419   */\n      tag_159\n        /* \"#utility.yul\":6352:6418   */\n      0xffffffffffffffffffffffffffffffffffffffffffffffffffffffffffffffff\n        /* \"#utility.yul\":6341:6350   */\n      dup3\n        /* \"#utility.yul\":6322:6419   */\n      tag_79\n      jump\t// in\n    tag_159:\n        /* \"#utility.yul\":6440:6479   */\n      tag_160\n        /* \"#utility.yul\":6470:6478   */\n      dup7\n        /* \"#utility.yul\":6459:6468   */\n      dup4\n        /* \"#utility.yul\":6440:6479   */\n      tag_79\n      jump\t// in\n    tag_160:\n        /* \"#utility.yul\":6428:6479   */\n      swap6\n      pop\n        /* \"#utility.yul\":6512:6516   */\n      dup1\n        /* \"#utility.yul\":6508:6517   */\n      not\n        /* \"#utility.yul\":6501:6506   */\n      dup5\n        /* \"#utility.yul\":6497:6518   */\n      and\n        /* \"#utility.yul\":6488:6518   */\n      swap4\n      pop\n        /* \"#utility.yul\":6561:6565   */\n      dup1\n        /* \"#utility.yul\":6551:6559   */\n      dup7\n        /* \"#utility.yul\":6547:6566   */\n      and\n        /* \"#utility.yul\":6540:6545   */\n      dup5\n        /* \"#utility.yul\":6537:6567   */\n      or\n        /* \"#utility.yul\":6527:6567   */\n      swap3\n      pop\n        /* \"#utility.yul\":6256:6573   */\n      pop\n      pop\n        /* \"#utility.yul\":6180:6573   */\n      swap4\n      swap3\n      pop\n      pop\n      pop\n      jump\t// out\n        /* \"#utility.yul\":6579:6656   */\n    tag_81:\n        /* \"#utility.yul\":6616:6623   */\n      0x00\n        /* \"#utility.yul\":6645:6650   */\n      dup2\n        /* \"#utility.yul\":6634:6650   */\n      swap1\n      pop\n        /* \"#utility.yul\":6579:6656   */\n      swap2\n      swap1\n      pop\n      jump\t// out\n        /* \"#utility.yul\":6662:6722   */\n    tag_82:\n        /* \"#utility.yul\":6690:6693   */\n      0x00\n        /* \"#utility.yul\":6711:6716   */\n      dup2\n        /* \"#utility.yul\":6704:6716   */\n      swap1\n      pop\n        /* \"#utility.yul\":6662:6722   */\n      swap2\n      swap1\n      pop\n      jump\t// out\n        /* \"#utility.yul\":6728:6870   */\n    tag_83:\n        /* \"#utility.yul\":6778:6787   */\n      0x00\n        /* \"#utility.yul\":6811:6864   */\n      tag_164\n        /* \"#utility.yul\":6829:6863   */\n      tag_165\n        /* \"#utility.yul\":6838:6862   */\n      tag_166\n        /* \"#utility.yul\":6856:6861   */\n      dup5\n        /* \"#utility.yul\":6838:6862   */\n      tag_81\n      jump\t// in\n    tag_166:\n        /* \"#utility.yul\":6829:6863   */\n      tag_82\n      jump\t// in\n    tag_165:\n        /* \"#utility.yul\":6811:6864   */\n      tag_81\n      jump\t// in\n    tag_164:\n        /* \"#utility.yul\":6798:6864   */\n      swap1\n      pop\n        /* \"#utility.yul\":6728:6870   */\n      swap2\n      swap1\n      pop\n      jump\t// out\n        /* \"#utility.yul\":6876:6951   */\n    tag_84:\n        /* \"#utility.yul\":6919:6922   */\n      0x00\n        /* \"#utility.yul\":6940:6945   */\n      dup2\n        /* \"#utility.yul\":6933:6945   */\n      swap1\n      pop\n        /* \"#utility.yul\":6876:6951   */\n      swap2\n      swap1\n      pop\n      jump\t// out\n        /* \"#utility.yul\":6957:7226   */\n    tag_85:\n        /* \"#utility.yul\":7067:7106   */\n      tag_169\n        /* \"#utility.yul\":7098:7105   */\n      dup4\n        /* \"#utility.yul\":7067:7106   */\n      tag_83\n      jump\t// in\n    tag_169:\n        /* \"#utility.yul\":7128:7219   */\n      tag_170\n        /* \"#utility.yul\":7177:7218   */\n      tag_171\n        /* \"#utility.yul\":7201:7217   */\n      dup3\n        /* \"#utility.yul\":7177:7218   */\n      tag_84\n      jump\t// in\n    tag_171:\n        /* \"#utility.yul\":7169:7175   */\n      dup5\n        /* \"#utility.yul\":7162:7166   */\n      dup5\n        /* \"#utility.yul\":7156:7167   */\n      sload\n        /* \"#utility.yul\":7128:7219   */\n      tag_80\n      jump\t// in\n    tag_170:\n        /* \"#utility.yul\":7122:7126   */\n      dup3\n        /* \"#utility.yul\":7115:7220   */\n      sstore\n        /* \"#utility.yul\":7033:7226   */\n      pop\n        /* \"#utility.yul\":6957:7226   */\n      pop\n      pop\n      pop\n      jump\t// out\n        /* \"#utility.yul\":7232:7305   */\n    tag_86:\n        /* \"#utility.yul\":7277:7280   */\n      0x00\n        /* \"#utility.yul\":7298:7299   */\n      0x00\n        /* \"#utility.yul\":7291:7299   */\n      swap1\n      pop\n        /* \"#utility.yul\":7232:7305   */\n      swap1\n      jump\t// out\n        /* \"#utility.yul\":7311:7500   */\n    tag_87:\n        /* \"#utility.yul\":7388:7420   */\n      tag_174\n      tag_86\n      jump\t// in\n    tag_174:\n        /* \"#utility.yul\":7429:7494   */\n      tag_175\n        /* \"#utility.yul\":7487:7493   */\n      dup2\n        /* \"#utility.yul\":7479:7485   */\n      dup5\n        /* \"#utility.yul\":7473:7477   */\n      dup5\n        /* \"#utility.yul\":7429:7494   */\n      tag_85\n      jump\t// in\n    tag_175:\n        /* \"#utility.yul\":7364:7500   */\n      pop\n        /* \"#utility.yul\":7311:7500   */\n      pop\n      pop\n      jump\t// out\n        /* \"#utility.yul\":7506:7692   */\n    tag_88:\n        /* \"#utility.yul\":7566:7686   */\n    tag_177:\n        /* \"#utility.yul\":7583:7586   */\n      dup2\n        /* \"#utility.yul\":7576:7581   */\n      dup2\n        /* \"#utility.yul\":7573:7587   */\n      lt\n        /* \"#utility.yul\":7566:7686   */\n      iszero\n      tag_179\n      jumpi\n        /* \"#utility.yul\":7637:7676   */\n      tag_180\n        /* \"#utility.yul\":7674:7675   */\n      0x00\n        /* \"#utility.yul\":7667:7672   */\n      dup3\n        /* \"#utility.yul\":7637:7676   */\n      tag_87\n      jump\t// in\n    tag_180:\n        /* \"#utility.yul\":7610:7611   */\n      0x01\n        /* \"#utility.yul\":7603:7608   */\n      dup2\n        /* \"#utility.yul\":7599:7612   */\n      add\n        /* \"#utility.yul\":7590:7612   */\n      swap1\n      pop\n        /* \"#utility.yul\":7566:7686   */\n      jump(tag_177)\n    tag_179:\n        /* \"#utility.yul\":7506:7692   */\n      pop\n      pop\n      jump\t// out\n        /* \"#utility.yul\":7698:8241   */\n    tag_89:\n        /* \"#utility.yul\":7799:7801   */\n      0x1f\n        /* \"#utility.yul\":7794:7797   */\n      dup3\n        /* \"#utility.yul\":7791:7802   */\n      gt\n        /* \"#utility.yul\":7788:8234   */\n      iszero\n      tag_182\n      jumpi\n        /* \"#utility.yul\":7833:7871   */\n      tag_183\n        /* \"#utility.yul\":7865:7870   */\n      dup2\n        /* \"#utility.yul\":7833:7871   */\n      tag_77\n      jump\t// in\n    tag_183:\n        /* \"#utility.yul\":7917:7946   */\n      tag_184\n        /* \"#utility.yul\":7935:7945   */\n      dup5\n        /* \"#utility.yul\":7917:7946   */\n      tag_78\n      jump\t// in\n    tag_184:\n        /* \"#utility.yul\":7907:7915   */\n      dup2\n        /* \"#utility.yul\":7903:7947   */\n      add\n        /* \"#utility.yul\":8100:8102   */\n      0x20\n        /* \"#utility.yul\":8088:8098   */\n      dup6\n        /* \"#utility.yul\":8085:8103   */\n      lt\n        /* \"#utility.yul\":8082:8131   */\n      iszero\n      tag_185\n      jumpi\n        /* \"#utility.yul\":8121:8129   */\n      dup2\n        /* \"#utility.yul\":8106:8129   */\n      swap1\n      pop\n        /* \"#utility.yul\":8082:8131   */\n    tag_185:\n        /* \"#utility.yul\":8144:8224   */\n      tag_186\n        /* \"#utility.yul\":8200:8222   */\n      tag_187\n        /* \"#utility.yul\":8218:8221   */\n      dup6\n        /* \"#utility.yul\":8200:8222   */\n      tag_78\n      jump\t// in\n    tag_187:\n        /* \"#utility.yul\":8190:8198   */\n      dup4\n        /* \"#utility.yul\":8186:8223   */\n      add\n        /* \"#utility.yul\":8173:8184   */\n      dup3\n        /* \"#utility.yul\":8144:8224   */\n      tag_88\n      jump\t// in\n    tag_186:\n        /* \"#utility.yul\":7803:8234   */\n      pop\n      pop\n        /* \"#utility.yul\":7788:8234   */\n    tag_182:\n        /* \"#utility.yul\":7698:8241   */\n      pop\n      pop\n      pop\n      jump\t// out\n        /* \"#utility.yul\":8247:8364   */\n    tag_90:\n        /* \"#utility.yul\":8301:8309   */\n      0x00\n        /* \"#utility.yul\":8351:8356   */\n      dup3\n        /* \"#utility.yul\":8345:8349   */\n      dup3\n        /* \"#utility.yul\":8341:8357   */\n      shr\n        /* \"#utility.yul\":8320:8357   */\n      swap1\n      pop\n        /* \"#utility.yul\":8247:8364   */\n      swap3\n      swap2\n      pop\n      pop\n      jump\t// out\n        /* \"#utility.yul\":8370:8539   */\n    tag_91:\n        /* \"#utility.yul\":8414:8420   */\n      0x00\n        /* \"#utility.yul\":8447:8498   */\n      tag_190\n        /* \"#utility.yul\":8495:8496   */\n      0x00\n        /* \"#utility.yul\":8491:8497   */\n      not\n        /* \"#utility.yul\":8483:8488   */\n      dup5\n        /* \"#utility.yul\":8480:8481   */\n      0x08\n        /* \"#utility.yul\":8476:8489   */\n      mul\n        /* \"#utility.yul\":8447:8498   */\n      tag_90\n      jump\t// in\n    tag_190:\n        /* \"#utility.yul\":8443:8499   */\n      not\n        /* \"#utility.yul\":8528:8532   */\n      dup1\n        /* \"#utility.yul\":8522:8526   */\n      dup4\n        /* \"#utility.yul\":8518:8533   */\n      and\n        /* \"#utility.yul\":8508:8533   */\n      swap2\n      pop\n        /* \"#utility.yul\":8421:8539   */\n      pop\n        /* \"#utility.yul\":8370:8539   */\n      swap3\n      swap2\n      pop\n      pop\n      jump\t// out\n        /* \"#utility.yul\":8544:8839   */\n    tag_92:\n        /* \"#utility.yul\":8620:8624   */\n      0x00\n        /* \"#utility.yul\":8766:8795   */\n      tag_192\n        /* \"#utility.yul\":8791:8794   */\n      dup4\n        /* \"#utility.yul\":8785:8789   */\n      dup4\n        /* \"#utility.yul\":8766:8795   */\n      tag_91\n      jump\t// in\n    tag_192:\n        /* \"#utility.yul\":8758:8795   */\n      swap2\n      pop\n        /* \"#utility.yul\":8828:8831   */\n      dup3\n        /* \"#utility.yul\":8825:8826   */\n      0x02\n        /* \"#utility.yul\":8821:8832   */\n      mul\n        /* \"#utility.yul\":8815:8819   */\n      dup3\n        /* \"#utility.yul\":8812:8833   */\n      or\n        /* \"#utility.yul\":8804:8833   */\n      swap1\n      pop\n        /* \"#utility.yul\":8544:8839   */\n      swap3\n      swap2\n      pop\n      pop\n      jump\t// out\n        /* \"#utility.yul\":8844:10239   */\n    tag_31:\n        /* \"#utility.yul\":8961:8998   */\n      tag_194\n        /* \"#utility.yul\":8994:8997   */\n      dup3\n        /* \"#utility.yul\":8961:8998   */\n      tag_69\n      jump\t// in\n    tag_194:\n        /* \"#utility.yul\":9063:9081   */\n      0xffffffffffffffff\n        /* \"#utility.yul\":9055:9061   */\n      dup2\n        /* \"#utility.yul\":9052:9082   */\n      gt\n        /* \"#utility.yul\":9049:9105   */\n      iszero\n      tag_195\n      jumpi\n        /* \"#utility.yul\":9085:9103   */\n      tag_196\n      tag_62\n      jump\t// in\n    tag_196:\n        /* \"#utility.yul\":9049:9105   */\n    tag_195:\n        /* \"#utility.yul\":9129:9167   */\n      tag_197\n        /* \"#utility.yul\":9161:9165   */\n      dup3\n        /* \"#utility.yul\":9155:9166   */\n      sload\n        /* \"#utility.yul\":9129:9167   */\n      tag_39\n      jump\t// in\n    tag_197:\n        /* \"#utility.yul\":9214:9281   */\n      tag_198\n        /* \"#utility.yul\":9274:9280   */\n      dup3\n        /* \"#utility.yul\":9266:9272   */\n      dup3\n        /* \"#utility.yul\":9260:9264   */\n      dup6\n        /* \"#utility.yul\":9214:9281   */\n      tag_89\n      jump\t// in\n    tag_198:\n        /* \"#utility.yul\":9308:9309   */\n      0x00\n        /* \"#utility.yul\":9332:9336   */\n      0x20\n        /* \"#utility.yul\":9319:9336   */\n      swap1\n      pop\n        /* \"#utility.yul\":9364:9366   */\n      0x1f\n        /* \"#utility.yul\":9356:9362   */\n      dup4\n        /* \"#utility.yul\":9353:9367   */\n      gt\n        /* \"#utility.yul\":9381:9382   */\n      0x01\n        /* \"#utility.yul\":9376:9994   */\n      dup2\n      eq\n      tag_200\n      jumpi\n        /* \"#utility.yul\":10038:10039   */\n      0x00\n        /* \"#utility.yul\":10055:10061   */\n      dup5\n        /* \"#utility.yul\":10052:10129   */\n      iszero\n      tag_201\n      jumpi\n        /* \"#utility.yul\":10104:10113   */\n      dup3\n        /* \"#utility.yul\":10099:10102   */\n      dup8\n        /* \"#utility.yul\":10095:10114   */\n      add\n        /* \"#utility.yul\":10089:10115   */\n      mload\n        /* \"#utility.yul\":10080:10115   */\n      swap1\n      pop\n        /* \"#utility.yul\":10052:10129   */\n    tag_201:\n        /* \"#utility.yul\":10155:10222   */\n      tag_202\n        /* \"#utility.yul\":10215:10221   */\n      dup6\n        /* \"#utility.yul\":10208:10213   */\n      dup3\n        /* \"#utility.yul\":10155:10222   */\n      tag_92\n      jump\t// in\n    tag_202:\n        /* \"#utility.yul\":10149:10153   */\n      dup7\n        /* \"#utility.yul\":10142:10223   */\n      sstore\n        /* \"#utility.yul\":10011:10233   */\n      pop\n        /* \"#utility.yul\":9346:10233   */\n      jump(tag_199)\n        /* \"#utility.yul\":9376:9994   */\n    tag_200:\n        /* \"#utility.yul\":9428:9432   */\n      0x1f\n        /* \"#utility.yul\":9424:9433   */\n      not\n        /* \"#utility.yul\":9416:9422   */\n      dup5\n        /* \"#utility.yul\":9412:9434   */\n      and\n        /* \"#utility.yul\":9462:9499   */\n      tag_203\n        /* \"#utility.yul\":9494:9498   */\n      dup7\n        /* \"#utility.yul\":9462:9499   */\n      tag_77\n      jump\t// in\n    tag_203:\n        /* \"#utility.yul\":9521:9522   */\n      0x00\n        /* \"#utility.yul\":9535:9743   */\n    tag_204:\n        /* \"#utility.yul\":9549:9556   */\n      dup3\n        /* \"#utility.yul\":9546:9547   */\n      dup2\n        /* \"#utility.yul\":9543:9557   */\n      lt\n        /* \"#utility.yul\":9535:9743   */\n      iszero\n      tag_206\n      jumpi\n        /* \"#utility.yul\":9628:9637   */\n      dup5\n        /* \"#utility.yul\":9623:9626   */\n      dup10\n        /* \"#utility.yul\":9619:9638   */\n      add\n        /* \"#utility.yul\":9613:9639   */\n      mload\n        /* \"#utility.yul\":9605:9611   */\n      dup3\n        /* \"#utility.yul\":9598:9640   */\n      sstore\n        /* \"#utility.yul\":9679:9680   */\n      0x01\n        /* \"#utility.yul\":9671:9677   */\n      dup3\n        /* \"#utility.yul\":9667:9681   */\n      add\n        /* \"#utility.yul\":9657:9681   */\n      swap2\n      pop\n        /* \"#utility.yul\":9726:9728   */\n      0x20\n        /* \"#utility.yul\":9715:9724   */\n      dup6\n        /* \"#utility.yul\":9711:9729   */\n      add\n        /* \"#utility.yul\":9698:9729   */\n      swap5\n      pop\n        /* \"#utility.yul\":9572:9576   */\n      0x20\n        /* \"#utility.yul\":9569:9570   */\n      dup2\n        /* \"#utility.yul\":9565:9577   */\n      add\n        /* \"#utility.yul\":9560:9577   */\n      swap1\n      pop\n        /* \"#utility.yul\":9535:9743   */\n      jump(tag_204)\n    tag_206:\n        /* \"#utility.yul\":9771:9777   */\n      dup7\n        /* \"#utility.yul\":9762:9769   */\n      dup4\n        /* \"#utility.yul\":9759:9778   */\n      lt\n        /* \"#utility.yul\":9756:9935   */\n      iszero\n      tag_207\n      jumpi\n        /* \"#utility.yul\":9829:9838   */\n      dup5\n        /* \"#utility.yul\":9824:9827   */\n      dup10\n        /* \"#utility.yul\":9820:9839   */\n      add\n        /* \"#utility.yul\":9814:9840   */\n      mload\n        /* \"#utility.yul\":9872:9920   */\n      tag_208\n        /* \"#utility.yul\":9914:9918   */\n      0x1f\n        /* \"#utility.yul\":9906:9912   */\n      dup10\n        /* \"#utility.yul\":9902:9919   */\n      and\n        /* \"#utility.yul\":9891:9900   */\n      dup3\n        /* \"#utility.yul\":9872:9920   */\n      tag_91\n      jump\t// in\n    tag_208:\n        /* \"#utility.yul\":9864:9870   */\n      dup4\n        /* \"#utility.yul\":9857:9921   */\n      sstore\n        /* \"#utility.yul\":9779:9935   */\n      pop\n        /* \"#utility.yul\":9756:9935   */\n    tag_207:\n        /* \"#utility.yul\":9981:9982   */\n      0x01\n        /* \"#utility.yul\":9977:9978   */\n      0x02\n        /* \"#utility.yul\":9969:9975   */\n      dup9\n        /* \"#utility.yul\":9965:9979   */\n      mul\n        /* \"#utility.yul\":9961:9983   */\n      add\n        /* \"#utility.yul\":9955:9959   */\n      dup9\n        /* \"#utility.yul\":9948:9984   */\n      sstore\n        /* \"#utility.yul\":9383:9994   */\n      pop\n      pop\n      pop\n        /* \"#utility.yul\":9346:10233   */\n    tag_199:\n      pop\n        /* \"#utility.yul\":8936:10239   */\n      pop\n      pop\n      pop\n        /* \"#utility.yul\":8844:10239   */\n      pop\n      pop\n      jump\t// out\n\n    auxdata: 0xa26469706673582212204cbcd3eaab1aef2013e04d3282db852908a09c45f0fe2244e3c201dfdfb6e63e64736f6c634300081c0033\n}\n",
				"bytecode": {
					"linkReferences": {},
					"object": "6080604052348015600e575f5ffd5b503360015f6101000a81548173ffffffffffffffffffffffffffffffffffffffff021916908373ffffffffffffffffffffffffffffffffffffffff160217905550610a408061005c5f395ff3fe608060405234801561000f575f5ffd5b5060043610610055575f3560e01c8063026ff05e146100595780631d2e4afd146100635780634b3fcab51461007f5780635d8d15851461009b5780638da5cb5b146100ba575b5f5ffd5b6100616100d8565b005b61007d600480360381019061007891906105d2565b610136565b005b610099600480360381019061009491906105d2565b610208565b005b6100a361028a565b6040516100b19291906106a8565b60405180910390f35b6100c2610408565b6040516100cf919061071c565b60405180910390f35b5f5f3373ffffffffffffffffffffffffffffffffffffffff1673ffffffffffffffffffffffffffffffffffffffff1681526020019081526020015f205f5f82015f610123919061042d565b600182015f610132919061042d565b5050565b6040518060400160405280838152602001828152505f5f3373ffffffffffffffffffffffffffffffffffffffff1673ffffffffffffffffffffffffffffffffffffffff1681526020019081526020015f205f820151815f01908161019a919061093b565b5060208201518160010190816101b0919061093b565b509050503373ffffffffffffffffffffffffffffffffffffffff167f4f1fc8115cd99196fcb8b51530f90207d6ac26f82fa759cdaef311af0bb8a91483836040516101fc9291906106a8565b60405180910390a25050565b6040518060400160405280838152602001828152505f5f3373ffffffffffffffffffffffffffffffffffffffff1673ffffffffffffffffffffffffffffffffffffffff1681526020019081526020015f205f820151815f01908161026c919061093b565b506020820151816001019081610282919061093b565b509050505050565b6060805f5f5f3373ffffffffffffffffffffffffffffffffffffffff1673ffffffffffffffffffffffffffffffffffffffff1681526020019081526020015f206040518060400160405290815f820180546102e490610762565b80601f016020809104026020016040519081016040528092919081815260200182805461031090610762565b801561035b5780601f106103325761010080835404028352916020019161035b565b820191905f5260205f20905b81548152906001019060200180831161033e57829003601f168201915b5050505050815260200160018201805461037490610762565b80601f01602080910402602001604051908101604052809291908181526020018280546103a090610762565b80156103eb5780601f106103c2576101008083540402835291602001916103eb565b820191905f5260205f20905b8154815290600101906020018083116103ce57829003601f168201915b5050505050815250509050805f0151816020015192509250509091565b60015f9054906101000a900473ffffffffffffffffffffffffffffffffffffffff1681565b50805461043990610762565b5f825580601f1061044a5750610467565b601f0160209004905f5260205f2090810190610466919061046a565b5b50565b5b80821115610481575f815f90555060010161046b565b5090565b5f604051905090565b5f5ffd5b5f5ffd5b5f5ffd5b5f5ffd5b5f601f19601f8301169050919050565b7f4e487b71000000000000000000000000000000000000000000000000000000005f52604160045260245ffd5b6104e48261049e565b810181811067ffffffffffffffff82111715610503576105026104ae565b5b80604052505050565b5f610515610485565b905061052182826104db565b919050565b5f67ffffffffffffffff8211156105405761053f6104ae565b5b6105498261049e565b9050602081019050919050565b828183375f83830152505050565b5f61057661057184610526565b61050c565b9050828152602081018484840111156105925761059161049a565b5b61059d848285610556565b509392505050565b5f82601f8301126105b9576105b8610496565b5b81356105c9848260208601610564565b91505092915050565b5f5f604083850312156105e8576105e761048e565b5b5f83013567ffffffffffffffff81111561060557610604610492565b5b610611858286016105a5565b925050602083013567ffffffffffffffff81111561063257610631610492565b5b61063e858286016105a5565b9150509250929050565b5f81519050919050565b5f82825260208201905092915050565b8281835e5f83830152505050565b5f61067a82610648565b6106848185610652565b9350610694818560208601610662565b61069d8161049e565b840191505092915050565b5f6040820190508181035f8301526106c08185610670565b905081810360208301526106d48184610670565b90509392505050565b5f73ffffffffffffffffffffffffffffffffffffffff82169050919050565b5f610706826106dd565b9050919050565b610716816106fc565b82525050565b5f60208201905061072f5f83018461070d565b92915050565b7f4e487b71000000000000000000000000000000000000000000000000000000005f52602260045260245ffd5b5f600282049050600182168061077957607f821691505b60208210810361078c5761078b610735565b5b50919050565b5f819050815f5260205f209050919050565b5f6020601f8301049050919050565b5f82821b905092915050565b5f600883026107ee7fffffffffffffffffffffffffffffffffffffffffffffffffffffffffffffffff826107b3565b6107f886836107b3565b95508019841693508086168417925050509392505050565b5f819050919050565b5f819050919050565b5f61083c61083761083284610810565b610819565b610810565b9050919050565b5f819050919050565b61085583610822565b61086961086182610843565b8484546107bf565b825550505050565b5f5f905090565b610880610871565b61088b81848461084c565b505050565b5b818110156108ae576108a35f82610878565b600181019050610891565b5050565b601f8211156108f3576108c481610792565b6108cd846107a4565b810160208510156108dc578190505b6108f06108e8856107a4565b830182610890565b50505b505050565b5f82821c905092915050565b5f6109135f19846008026108f8565b1980831691505092915050565b5f61092b8383610904565b9150826002028217905092915050565b61094482610648565b67ffffffffffffffff81111561095d5761095c6104ae565b5b6109678254610762565b6109728282856108b2565b5f60209050601f8311600181146109a3575f8415610991578287015190505b61099b8582610920565b865550610a02565b601f1984166109b186610792565b5f5b828110156109d8578489015182556001820191506020850194506020810190506109b3565b868310156109f557848901516109f1601f891682610904565b8355505b6001600288020188555050505b50505050505056fea26469706673582212204cbcd3eaab1aef2013e04d3282db852908a09c45f0fe2244e3c201dfdfb6e63e64736f6c634300081c0033",
					"opcodes": "PUSH1 0x80 PUSH1 0x40 MSTORE CALLVALUE DUP1 ISZERO PUSH1 0xE JUMPI PUSH0 PUSH0 REVERT JUMPDEST POP CALLER PUSH1 0x1 PUSH0 PUSH2 0x100 EXP DUP2 SLOAD DUP2 PUSH20 0xFFFFFFFFFFFFFFFFFFFFFFFFFFFFFFFFFFFFFFFF MUL NOT AND SWAP1 DUP4 PUSH20 0xFFFFFFFFFFFFFFFFFFFFFFFFFFFFFFFFFFFFFFFF AND MUL OR SWAP1 SSTORE POP PUSH2 0xA40 DUP1 PUSH2 0x5C PUSH0 CODECOPY PUSH0 RETURN INVALID PUSH1 0x80 PUSH1 0x40 MSTORE CALLVALUE DUP1 ISZERO PUSH2 0xF JUMPI PUSH0 PUSH0 REVERT JUMPDEST POP PUSH1 0x4 CALLDATASIZE LT PUSH2 0x55 JUMPI PUSH0 CALLDATALOAD PUSH1 0xE0 SHR DUP1 PUSH4 0x26FF05E EQ PUSH2 0x59 JUMPI DUP1 PUSH4 0x1D2E4AFD EQ PUSH2 0x63 JUMPI DUP1 PUSH4 0x4B3FCAB5 EQ PUSH2 0x7F JUMPI DUP1 PUSH4 0x5D8D1585 EQ PUSH2 0x9B JUMPI DUP1 PUSH4 0x8DA5CB5B EQ PUSH2 0xBA JUMPI JUMPDEST PUSH0 PUSH0 REVERT JUMPDEST PUSH2 0x61 PUSH2 0xD8 JUMP JUMPDEST STOP JUMPDEST PUSH2 0x7D PUSH1 0x4 DUP1 CALLDATASIZE SUB DUP2 ADD SWAP1 PUSH2 0x78 SWAP2 SWAP1 PUSH2 0x5D2 JUMP JUMPDEST PUSH2 0x136 JUMP JUMPDEST STOP JUMPDEST PUSH2 0x99 PUSH1 0x4 DUP1 CALLDATASIZE SUB DUP2 ADD SWAP1 PUSH2 0x94 SWAP2 SWAP1 PUSH2 0x5D2 JUMP JUMPDEST PUSH2 0x208 JUMP JUMPDEST STOP JUMPDEST PUSH2 0xA3 PUSH2 0x28A JUMP JUMPDEST PUSH1 0x40 MLOAD PUSH2 0xB1 SWAP3 SWAP2 SWAP1 PUSH2 0x6A8 JUMP JUMPDEST PUSH1 0x40 MLOAD DUP1 SWAP2 SUB SWAP1 RETURN JUMPDEST PUSH2 0xC2 PUSH2 0x408 JUMP JUMPDEST PUSH1 0x40 MLOAD PUSH2 0xCF SWAP2 SWAP1 PUSH2 0x71C JUMP JUMPDEST PUSH1 0x40 MLOAD DUP1 SWAP2 SUB SWAP1 RETURN JUMPDEST PUSH0 PUSH0 CALLER PUSH20 0xFFFFFFFFFFFFFFFFFFFFFFFFFFFFFFFFFFFFFFFF AND PUSH20 0xFFFFFFFFFFFFFFFFFFFFFFFFFFFFFFFFFFFFFFFF AND DUP2 MSTORE PUSH1 0x20 ADD SWAP1 DUP2 MSTORE PUSH1 0x20 ADD PUSH0 KECCAK256 PUSH0 PUSH0 DUP3 ADD PUSH0 PUSH2 0x123 SWAP2 SWAP1 PUSH2 0x42D JUMP JUMPDEST PUSH1 0x1 DUP3 ADD PUSH0 PUSH2 0x132 SWAP2 SWAP1 PUSH2 0x42D JUMP JUMPDEST POP POP JUMP JUMPDEST PUSH1 0x40 MLOAD DUP1 PUSH1 0x40 ADD PUSH1 0x40 MSTORE DUP1 DUP4 DUP2 MSTORE PUSH1 0x20 ADD DUP3 DUP2 MSTORE POP PUSH0 PUSH0 CALLER PUSH20 0xFFFFFFFFFFFFFFFFFFFFFFFFFFFFFFFFFFFFFFFF AND PUSH20 0xFFFFFFFFFFFFFFFFFFFFFFFFFFFFFFFFFFFFFFFF AND DUP2 MSTORE PUSH1 0x20 ADD SWAP1 DUP2 MSTORE PUSH1 0x20 ADD PUSH0 KECCAK256 PUSH0 DUP3 ADD MLOAD DUP2 PUSH0 ADD SWAP1 DUP2 PUSH2 0x19A SWAP2 SWAP1 PUSH2 0x93B JUMP JUMPDEST POP PUSH1 0x20 DUP3 ADD MLOAD DUP2 PUSH1 0x1 ADD SWAP1 DUP2 PUSH2 0x1B0 SWAP2 SWAP1 PUSH2 0x93B JUMP JUMPDEST POP SWAP1 POP POP CALLER PUSH20 0xFFFFFFFFFFFFFFFFFFFFFFFFFFFFFFFFFFFFFFFF AND PUSH32 0x4F1FC8115CD99196FCB8B51530F90207D6AC26F82FA759CDAEF311AF0BB8A914 DUP4 DUP4 PUSH1 0x40 MLOAD PUSH2 0x1FC SWAP3 SWAP2 SWAP1 PUSH2 0x6A8 JUMP JUMPDEST PUSH1 0x40 MLOAD DUP1 SWAP2 SUB SWAP1 LOG2 POP POP JUMP JUMPDEST PUSH1 0x40 MLOAD DUP1 PUSH1 0x40 ADD PUSH1 0x40 MSTORE DUP1 DUP4 DUP2 MSTORE PUSH1 0x20 ADD DUP3 DUP2 MSTORE POP PUSH0 PUSH0 CALLER PUSH20 0xFFFFFFFFFFFFFFFFFFFFFFFFFFFFFFFFFFFFFFFF AND PUSH20 0xFFFFFFFFFFFFFFFFFFFFFFFFFFFFFFFFFFFFFFFF AND DUP2 MSTORE PUSH1 0x20 ADD SWAP1 DUP2 MSTORE PUSH1 0x20 ADD PUSH0 KECCAK256 PUSH0 DUP3 ADD MLOAD DUP2 PUSH0 ADD SWAP1 DUP2 PUSH2 0x26C SWAP2 SWAP1 PUSH2 0x93B JUMP JUMPDEST POP PUSH1 0x20 DUP3 ADD MLOAD DUP2 PUSH1 0x1 ADD SWAP1 DUP2 PUSH2 0x282 SWAP2 SWAP1 PUSH2 0x93B JUMP JUMPDEST POP SWAP1 POP POP POP POP JUMP JUMPDEST PUSH1 0x60 DUP1 PUSH0 PUSH0 PUSH0 CALLER PUSH20 0xFFFFFFFFFFFFFFFFFFFFFFFFFFFFFFFFFFFFFFFF AND PUSH20 0xFFFFFFFFFFFFFFFFFFFFFFFFFFFFFFFFFFFFFFFF AND DUP2 MSTORE PUSH1 0x20 ADD SWAP1 DUP2 MSTORE PUSH1 0x20 ADD PUSH0 KECCAK256 PUSH1 0x40 MLOAD DUP1 PUSH1 0x40 ADD PUSH1 0x40 MSTORE SWAP1 DUP2 PUSH0 DUP3 ADD DUP1 SLOAD PUSH2 0x2E4 SWAP1 PUSH2 0x762 JUMP JUMPDEST DUP1 PUSH1 0x1F ADD PUSH1 0x20 DUP1 SWAP2 DIV MUL PUSH1 0x20 ADD PUSH1 0x40 MLOAD SWAP1 DUP2 ADD PUSH1 0x40 MSTORE DUP1 SWAP3 SWAP2 SWAP1 DUP2 DUP2 MSTORE PUSH1 0x20 ADD DUP3 DUP1 SLOAD PUSH2 0x310 SWAP1 PUSH2 0x762 JUMP JUMPDEST DUP1 ISZERO PUSH2 0x35B JUMPI DUP1 PUSH1 0x1F LT PUSH2 0x332 JUMPI PUSH2 0x100 DUP1 DUP4 SLOAD DIV MUL DUP4 MSTORE SWAP2 PUSH1 0x20 ADD SWAP2 PUSH2 0x35B JUMP JUMPDEST DUP3 ADD SWAP2 SWAP1 PUSH0 MSTORE PUSH1 0x20 PUSH0 KECCAK256 SWAP1 JUMPDEST DUP2 SLOAD DUP2 MSTORE SWAP1 PUSH1 0x1 ADD SWAP1 PUSH1 0x20 ADD DUP1 DUP4 GT PUSH2 0x33E JUMPI DUP3 SWAP1 SUB PUSH1 0x1F AND DUP3 ADD SWAP2 JUMPDEST POP POP POP POP POP DUP2 MSTORE PUSH1 0x20 ADD PUSH1 0x1 DUP3 ADD DUP1 SLOAD PUSH2 0x374 SWAP1 PUSH2 0x762 JUMP JUMPDEST DUP1 PUSH1 0x1F ADD PUSH1 0x20 DUP1 SWAP2 DIV MUL PUSH1 0x20 ADD PUSH1 0x40 MLOAD SWAP1 DUP2 ADD PUSH1 0x40 MSTORE DUP1 SWAP3 SWAP2 SWAP1 DUP2 DUP2 MSTORE PUSH1 0x20 ADD DUP3 DUP1 SLOAD PUSH2 0x3A0 SWAP1 PUSH2 0x762 JUMP JUMPDEST DUP1 ISZERO PUSH2 0x3EB JUMPI DUP1 PUSH1 0x1F LT PUSH2 0x3C2 JUMPI PUSH2 0x100 DUP1 DUP4 SLOAD DIV MUL DUP4 MSTORE SWAP2 PUSH1 0x20 ADD SWAP2 PUSH2 0x3EB JUMP JUMPDEST DUP3 ADD SWAP2 SWAP1 PUSH0 MSTORE PUSH1 0x20 PUSH0 KECCAK256 SWAP1 JUMPDEST DUP2 SLOAD DUP2 MSTORE SWAP1 PUSH1 0x1 ADD SWAP1 PUSH1 0x20 ADD DUP1 DUP4 GT PUSH2 0x3CE JUMPI DUP3 SWAP1 SUB PUSH1 0x1F AND DUP3 ADD SWAP2 JUMPDEST POP POP POP POP POP DUP2 MSTORE POP POP SWAP1 POP DUP1 PUSH0 ADD MLOAD DUP2 PUSH1 0x20 ADD MLOAD SWAP3 POP SWAP3 POP POP SWAP1 SWAP2 JUMP JUMPDEST PUSH1 0x1 PUSH0 SWAP1 SLOAD SWAP1 PUSH2 0x100 EXP SWAP1 DIV PUSH20 0xFFFFFFFFFFFFFFFFFFFFFFFFFFFFFFFFFFFFFFFF AND DUP2 JUMP JUMPDEST POP DUP1 SLOAD PUSH2 0x439 SWAP1 PUSH2 0x762 JUMP JUMPDEST PUSH0 DUP3 SSTORE DUP1 PUSH1 0x1F LT PUSH2 0x44A JUMPI POP PUSH2 0x467 JUMP JUMPDEST PUSH1 0x1F ADD PUSH1 0x20 SWAP1 DIV SWAP1 PUSH0 MSTORE PUSH1 0x20 PUSH0 KECCAK256 SWAP1 DUP2 ADD SWAP1 PUSH2 0x466 SWAP2 SWAP1 PUSH2 0x46A JUMP JUMPDEST JUMPDEST POP JUMP JUMPDEST JUMPDEST DUP1 DUP3 GT ISZERO PUSH2 0x481 JUMPI PUSH0 DUP2 PUSH0 SWAP1 SSTORE POP PUSH1 0x1 ADD PUSH2 0x46B JUMP JUMPDEST POP SWAP1 JUMP JUMPDEST PUSH0 PUSH1 0x40 MLOAD SWAP1 POP SWAP1 JUMP JUMPDEST PUSH0 PUSH0 REVERT JUMPDEST PUSH0 PUSH0 REVERT JUMPDEST PUSH0 PUSH0 REVERT JUMPDEST PUSH0 PUSH0 REVERT JUMPDEST PUSH0 PUSH1 0x1F NOT PUSH1 0x1F DUP4 ADD AND SWAP1 POP SWAP2 SWAP1 POP JUMP JUMPDEST PUSH32 0x4E487B7100000000000000000000000000000000000000000000000000000000 PUSH0 MSTORE PUSH1 0x41 PUSH1 0x4 MSTORE PUSH1 0x24 PUSH0 REVERT JUMPDEST PUSH2 0x4E4 DUP3 PUSH2 0x49E JUMP JUMPDEST DUP2 ADD DUP2 DUP2 LT PUSH8 0xFFFFFFFFFFFFFFFF DUP3 GT OR ISZERO PUSH2 0x503 JUMPI PUSH2 0x502 PUSH2 0x4AE JUMP JUMPDEST JUMPDEST DUP1 PUSH1 0x40 MSTORE POP POP POP JUMP JUMPDEST PUSH0 PUSH2 0x515 PUSH2 0x485 JUMP JUMPDEST SWAP1 POP PUSH2 0x521 DUP3 DUP3 PUSH2 0x4DB JUMP JUMPDEST SWAP2 SWAP1 POP JUMP JUMPDEST PUSH0 PUSH8 0xFFFFFFFFFFFFFFFF DUP3 GT ISZERO PUSH2 0x540 JUMPI PUSH2 0x53F PUSH2 0x4AE JUMP JUMPDEST JUMPDEST PUSH2 0x549 DUP3 PUSH2 0x49E JUMP JUMPDEST SWAP1 POP PUSH1 0x20 DUP2 ADD SWAP1 POP SWAP2 SWAP1 POP JUMP JUMPDEST DUP3 DUP2 DUP4 CALLDATACOPY PUSH0 DUP4 DUP4 ADD MSTORE POP POP POP JUMP JUMPDEST PUSH0 PUSH2 0x576 PUSH2 0x571 DUP5 PUSH2 0x526 JUMP JUMPDEST PUSH2 0x50C JUMP JUMPDEST SWAP1 POP DUP3 DUP2 MSTORE PUSH1 0x20 DUP2 ADD DUP5 DUP5 DUP5 ADD GT ISZERO PUSH2 0x592 JUMPI PUSH2 0x591 PUSH2 0x49A JUMP JUMPDEST JUMPDEST PUSH2 0x59D DUP5 DUP3 DUP6 PUSH2 0x556 JUMP JUMPDEST POP SWAP4 SWAP3 POP POP POP JUMP JUMPDEST PUSH0 DUP3 PUSH1 0x1F DUP4 ADD SLT PUSH2 0x5B9 JUMPI PUSH2 0x5B8 PUSH2 0x496 JUMP JUMPDEST JUMPDEST DUP2 CALLDATALOAD PUSH2 0x5C9 DUP5 DUP3 PUSH1 0x20 DUP7 ADD PUSH2 0x564 JUMP JUMPDEST SWAP2 POP POP SWAP3 SWAP2 POP POP JUMP JUMPDEST PUSH0 PUSH0 PUSH1 0x40 DUP4 DUP6 SUB SLT ISZERO PUSH2 0x5E8 JUMPI PUSH2 0x5E7 PUSH2 0x48E JUMP JUMPDEST JUMPDEST PUSH0 DUP4 ADD CALLDATALOAD PUSH8 0xFFFFFFFFFFFFFFFF DUP2 GT ISZERO PUSH2 0x605 JUMPI PUSH2 0x604 PUSH2 0x492 JUMP JUMPDEST JUMPDEST PUSH2 0x611 DUP6 DUP3 DUP7 ADD PUSH2 0x5A5 JUMP JUMPDEST SWAP3 POP POP PUSH1 0x20 DUP4 ADD CALLDATALOAD PUSH8 0xFFFFFFFFFFFFFFFF DUP2 GT ISZERO PUSH2 0x632 JUMPI PUSH2 0x631 PUSH2 0x492 JUMP JUMPDEST JUMPDEST PUSH2 0x63E DUP6 DUP3 DUP7 ADD PUSH2 0x5A5 JUMP JUMPDEST SWAP2 POP POP SWAP3 POP SWAP3 SWAP1 POP JUMP JUMPDEST PUSH0 DUP2 MLOAD SWAP1 POP SWAP2 SWAP1 POP JUMP JUMPDEST PUSH0 DUP3 DUP3 MSTORE PUSH1 0x20 DUP3 ADD SWAP1 POP SWAP3 SWAP2 POP POP JUMP JUMPDEST DUP3 DUP2 DUP4 MCOPY PUSH0 DUP4 DUP4 ADD MSTORE POP POP POP JUMP JUMPDEST PUSH0 PUSH2 0x67A DUP3 PUSH2 0x648 JUMP JUMPDEST PUSH2 0x684 DUP2 DUP6 PUSH2 0x652 JUMP JUMPDEST SWAP4 POP PUSH2 0x694 DUP2 DUP6 PUSH1 0x20 DUP7 ADD PUSH2 0x662 JUMP JUMPDEST PUSH2 0x69D DUP2 PUSH2 0x49E JUMP JUMPDEST DUP5 ADD SWAP2 POP POP SWAP3 SWAP2 POP POP JUMP JUMPDEST PUSH0 PUSH1 0x40 DUP3 ADD SWAP1 POP DUP2 DUP2 SUB PUSH0 DUP4 ADD MSTORE PUSH2 0x6C0 DUP2 DUP6 PUSH2 0x670 JUMP JUMPDEST SWAP1 POP DUP2 DUP2 SUB PUSH1 0x20 DUP4 ADD MSTORE PUSH2 0x6D4 DUP2 DUP5 PUSH2 0x670 JUMP JUMPDEST SWAP1 POP SWAP4 SWAP3 POP POP POP JUMP JUMPDEST PUSH0 PUSH20 0xFFFFFFFFFFFFFFFFFFFFFFFFFFFFFFFFFFFFFFFF DUP3 AND SWAP1 POP SWAP2 SWAP1 POP JUMP JUMPDEST PUSH0 PUSH2 0x706 DUP3 PUSH2 0x6DD JUMP JUMPDEST SWAP1 POP SWAP2 SWAP1 POP JUMP JUMPDEST PUSH2 0x716 DUP2 PUSH2 0x6FC JUMP JUMPDEST DUP3 MSTORE POP POP JUMP JUMPDEST PUSH0 PUSH1 0x20 DUP3 ADD SWAP1 POP PUSH2 0x72F PUSH0 DUP4 ADD DUP5 PUSH2 0x70D JUMP JUMPDEST SWAP3 SWAP2 POP POP JUMP JUMPDEST PUSH32 0x4E487B7100000000000000000000000000000000000000000000000000000000 PUSH0 MSTORE PUSH1 0x22 PUSH1 0x4 MSTORE PUSH1 0x24 PUSH0 REVERT JUMPDEST PUSH0 PUSH1 0x2 DUP3 DIV SWAP1 POP PUSH1 0x1 DUP3 AND DUP1 PUSH2 0x779 JUMPI PUSH1 0x7F DUP3 AND SWAP2 POP JUMPDEST PUSH1 0x20 DUP3 LT DUP2 SUB PUSH2 0x78C JUMPI PUSH2 0x78B PUSH2 0x735 JUMP JUMPDEST JUMPDEST POP SWAP2 SWAP1 POP JUMP JUMPDEST PUSH0 DUP2 SWAP1 POP DUP2 PUSH0 MSTORE PUSH1 0x20 PUSH0 KECCAK256 SWAP1 POP SWAP2 SWAP1 POP JUMP JUMPDEST PUSH0 PUSH1 0x20 PUSH1 0x1F DUP4 ADD DIV SWAP1 POP SWAP2 SWAP1 POP JUMP JUMPDEST PUSH0 DUP3 DUP3 SHL SWAP1 POP SWAP3 SWAP2 POP POP JUMP JUMPDEST PUSH0 PUSH1 0x8 DUP4 MUL PUSH2 0x7EE PUSH32 0xFFFFFFFFFFFFFFFFFFFFFFFFFFFFFFFFFFFFFFFFFFFFFFFFFFFFFFFFFFFFFFFF DUP3 PUSH2 0x7B3 JUMP JUMPDEST PUSH2 0x7F8 DUP7 DUP4 PUSH2 0x7B3 JUMP JUMPDEST SWAP6 POP DUP1 NOT DUP5 AND SWAP4 POP DUP1 DUP7 AND DUP5 OR SWAP3 POP POP POP SWAP4 SWAP3 POP POP POP JUMP JUMPDEST PUSH0 DUP2 SWAP1 POP SWAP2 SWAP1 POP JUMP JUMPDEST PUSH0 DUP2 SWAP1 POP SWAP2 SWAP1 POP JUMP JUMPDEST PUSH0 PUSH2 0x83C PUSH2 0x837 PUSH2 0x832 DUP5 PUSH2 0x810 JUMP JUMPDEST PUSH2 0x819 JUMP JUMPDEST PUSH2 0x810 JUMP JUMPDEST SWAP1 POP SWAP2 SWAP1 POP JUMP JUMPDEST PUSH0 DUP2 SWAP1 POP SWAP2 SWAP1 POP JUMP JUMPDEST PUSH2 0x855 DUP4 PUSH2 0x822 JUMP JUMPDEST PUSH2 0x869 PUSH2 0x861 DUP3 PUSH2 0x843 JUMP JUMPDEST DUP5 DUP5 SLOAD PUSH2 0x7BF JUMP JUMPDEST DUP3 SSTORE POP POP POP POP JUMP JUMPDEST PUSH0 PUSH0 SWAP1 POP SWAP1 JUMP JUMPDEST PUSH2 0x880 PUSH2 0x871 JUMP JUMPDEST PUSH2 0x88B DUP2 DUP5 DUP5 PUSH2 0x84C JUMP JUMPDEST POP POP POP JUMP JUMPDEST JUMPDEST DUP2 DUP2 LT ISZERO PUSH2 0x8AE JUMPI PUSH2 0x8A3 PUSH0 DUP3 PUSH2 0x878 JUMP JUMPDEST PUSH1 0x1 DUP2 ADD SWAP1 POP PUSH2 0x891 JUMP JUMPDEST POP POP JUMP JUMPDEST PUSH1 0x1F DUP3 GT ISZERO PUSH2 0x8F3 JUMPI PUSH2 0x8C4 DUP2 PUSH2 0x792 JUMP JUMPDEST PUSH2 0x8CD DUP5 PUSH2 0x7A4 JUMP JUMPDEST DUP2 ADD PUSH1 0x20 DUP6 LT ISZERO PUSH2 0x8DC JUMPI DUP2 SWAP1 POP JUMPDEST PUSH2 0x8F0 PUSH2 0x8E8 DUP6 PUSH2 0x7A4 JUMP JUMPDEST DUP4 ADD DUP3 PUSH2 0x890 JUMP JUMPDEST POP POP JUMPDEST POP POP POP JUMP JUMPDEST PUSH0 DUP3 DUP3 SHR SWAP1 POP SWAP3 SWAP2 POP POP JUMP JUMPDEST PUSH0 PUSH2 0x913 PUSH0 NOT DUP5 PUSH1 0x8 MUL PUSH2 0x8F8 JUMP JUMPDEST NOT DUP1 DUP4 AND SWAP2 POP POP SWAP3 SWAP2 POP POP JUMP JUMPDEST PUSH0 PUSH2 0x92B DUP4 DUP4 PUSH2 0x904 JUMP JUMPDEST SWAP2 POP DUP3 PUSH1 0x2 MUL DUP3 OR SWAP1 POP SWAP3 SWAP2 POP POP JUMP JUMPDEST PUSH2 0x944 DUP3 PUSH2 0x648 JUMP JUMPDEST PUSH8 0xFFFFFFFFFFFFFFFF DUP2 GT ISZERO PUSH2 0x95D JUMPI PUSH2 0x95C PUSH2 0x4AE JUMP JUMPDEST JUMPDEST PUSH2 0x967 DUP3 SLOAD PUSH2 0x762 JUMP JUMPDEST PUSH2 0x972 DUP3 DUP3 DUP6 PUSH2 0x8B2 JUMP JUMPDEST PUSH0 PUSH1 0x20 SWAP1 POP PUSH1 0x1F DUP4 GT PUSH1 0x1 DUP2 EQ PUSH2 0x9A3 JUMPI PUSH0 DUP5 ISZERO PUSH2 0x991 JUMPI DUP3 DUP8 ADD MLOAD SWAP1 POP JUMPDEST PUSH2 0x99B DUP6 DUP3 PUSH2 0x920 JUMP JUMPDEST DUP7 SSTORE POP PUSH2 0xA02 JUMP JUMPDEST PUSH1 0x1F NOT DUP5 AND PUSH2 0x9B1 DUP7 PUSH2 0x792 JUMP JUMPDEST PUSH0 JUMPDEST DUP3 DUP2 LT ISZERO PUSH2 0x9D8 JUMPI DUP5 DUP10 ADD MLOAD DUP3 SSTORE PUSH1 0x1 DUP3 ADD SWAP2 POP PUSH1 0x20 DUP6 ADD SWAP5 POP PUSH1 0x20 DUP2 ADD SWAP1 POP PUSH2 0x9B3 JUMP JUMPDEST DUP7 DUP4 LT ISZERO PUSH2 0x9F5 JUMPI DUP5 DUP10 ADD MLOAD PUSH2 0x9F1 PUSH1 0x1F DUP10 AND DUP3 PUSH2 0x904 JUMP JUMPDEST DUP4 SSTORE POP JUMPDEST PUSH1 0x1 PUSH1 0x2 DUP9 MUL ADD DUP9 SSTORE POP POP POP JUMPDEST POP POP POP POP POP POP JUMP INVALID LOG2 PUSH5 0x6970667358 0x22 SLT KECCAK256 0x4C 0xBC 0xD3 0xEA 0xAB BYTE 0xEF KECCAK256 SGT 0xE0 0x4D ORIGIN DUP3 0xDB DUP6 0x29 ADDMOD LOG0 SWAP13 GASLIMIT CREATE INVALID 0x22 PREVRANDAO 0xE3 0xC2 ADD 0xDF 0xDF 0xB6 0xE6 RETURNDATACOPY PUSH5 0x736F6C6343 STOP ADDMOD SHR STOP CALLER "
				},
				"gasEstimates": {
					"creation": {
						"codeDepositCost": "524800",
						"executionCost": "24819",
						"totalCost": "549619"
					},
					"external": {
						"deleteUser()": "infinite",
						"getUserInfo()": "infinite",
						"owner()": "2574",
						"registerUser(string,string)": "infinite",
						"updateUserInfo(string,string)": "infinite"
					}
				},
				"methodIdentifiers": {
					"deleteUser()": "026ff05e",
					"getUserInfo()": "5d8d1585",
					"owner()": "8da5cb5b",
					"registerUser(string,string)": "1d2e4afd",
					"updateUserInfo(string,string)": "4b3fcab5"
				}
			},
			"storageLayout": {
				"storage": [
					{
						"astId": 11,
						"contract": "contracts/PRACTICE/User Registeration(question).sol:UserRegistration",
						"label": "userMapping",
						"offset": 0,
						"slot": "0",
						"type": "t_mapping(t_address,t_struct(UserInfo)6_storage)"
					},
					{
						"astId": 21,
						"contract": "contracts/PRACTICE/User Registeration(question).sol:UserRegistration",
						"label": "owner",
						"offset": 0,
						"slot": "1",
						"type": "t_address"
					}
				],
				"types": {
					"t_address": {
						"encoding": "inplace",
						"label": "address",
						"numberOfBytes": "20"
					},
					"t_mapping(t_address,t_struct(UserInfo)6_storage)": {
						"encoding": "mapping",
						"key": "t_address",
						"label": "mapping(address => struct UserRegistration.UserInfo)",
						"numberOfBytes": "32",
						"value": "t_struct(UserInfo)6_storage"
					},
					"t_string_storage": {
						"encoding": "bytes",
						"label": "string",
						"numberOfBytes": "32"
					},
					"t_struct(UserInfo)6_storage": {
						"encoding": "inplace",
						"label": "struct UserRegistration.UserInfo",
						"members": [
							{
								"astId": 3,
								"contract": "contracts/PRACTICE/User Registeration(question).sol:UserRegistration",
								"label": "name",
								"offset": 0,
								"slot": "0",
								"type": "t_string_storage"
							},
							{
								"astId": 5,
								"contract": "contracts/PRACTICE/User Registeration(question).sol:UserRegistration",
								"label": "email",
								"offset": 0,
								"slot": "1",
								"type": "t_string_storage"
							}
						],
						"numberOfBytes": "64"
					}
				}
			},
			"userdoc": {
				"kind": "user",
				"methods": {},
				"version": 1
			}
		}
	}
}