{
	"contracts/PRACTICE/Project -ShipMent Service Incomplete.sol": {
		"ShipmentService": {
			"abi": [
				{
					"inputs": [],
					"stateMutability": "nonpayable",
					"type": "constructor"
				},
				{
					"inputs": [
						{
							"internalType": "uint256",
							"name": "pin",
							"type": "uint256"
						}
					],
					"name": "acceptOrder",
					"outputs": [],
					"stateMutability": "nonpayable",
					"type": "function"
				},
				{
					"inputs": [
						{
							"internalType": "address",
							"name": "customerAddress",
							"type": "address"
						}
					],
					"name": "checkStatus",
					"outputs": [
						{
							"internalType": "string",
							"name": "",
							"type": "string"
						}
					],
					"stateMutability": "view",
					"type": "function"
				},
				{
					"inputs": [],
					"name": "completeDelivery",
					"outputs": [],
					"stateMutability": "nonpayable",
					"type": "function"
				},
				{
					"inputs": [
						{
							"internalType": "address",
							"name": "",
							"type": "address"
						}
					],
					"name": "customerStatus",
					"outputs": [
						{
							"internalType": "string",
							"name": "",
							"type": "string"
						}
					],
					"stateMutability": "view",
					"type": "function"
				},
				{
					"inputs": [],
					"name": "customers",
					"outputs": [
						{
							"internalType": "address",
							"name": "",
							"type": "address"
						}
					],
					"stateMutability": "view",
					"type": "function"
				},
				{
					"inputs": [],
					"name": "owner",
					"outputs": [
						{
							"internalType": "address",
							"name": "",
							"type": "address"
						}
					],
					"stateMutability": "view",
					"type": "function"
				},
				{
					"inputs": [
						{
							"internalType": "address",
							"name": "customerAddress",
							"type": "address"
						},
						{
							"internalType": "uint256",
							"name": "pin",
							"type": "uint256"
						}
					],
					"name": "shipWithPin",
					"outputs": [],
					"stateMutability": "nonpayable",
					"type": "function"
				},
				{
					"inputs": [],
					"name": "tCompletedDeliveries",
					"outputs": [
						{
							"internalType": "uint256",
							"name": "",
							"type": "uint256"
						}
					],
					"stateMutability": "view",
					"type": "function"
				},
				{
					"inputs": [],
					"name": "totalCompletedDeliveries",
					"outputs": [
						{
							"internalType": "uint256",
							"name": "",
							"type": "uint256"
						}
					],
					"stateMutability": "view",
					"type": "function"
				}
			],
			"devdoc": {
				"kind": "dev",
				"methods": {},
				"version": 1
			},
			"evm": {
				"assembly": "    /* \"contracts/PRACTICE/Project -ShipMent Service Incomplete.sol\":60:1714  contract ShipmentService {... */\n  mstore(0x40, 0x80)\n    /* \"contracts/PRACTICE/Project -ShipMent Service Incomplete.sol\":282:328  constructor(){... */\n  callvalue\n  dup1\n  iszero\n  tag_1\n  jumpi\n  revert(0x00, 0x00)\ntag_1:\n  pop\n    /* \"contracts/PRACTICE/Project -ShipMent Service Incomplete.sol\":310:320  msg.sender */\n  caller\n    /* \"contracts/PRACTICE/Project -ShipMent Service Incomplete.sol\":303:308  owner */\n  0x00\n  0x00\n    /* \"contracts/PRACTICE/Project -ShipMent Service Incomplete.sol\":303:320  owner= msg.sender */\n  0x0100\n  exp\n  dup2\n  sload\n  dup2\n  0xffffffffffffffffffffffffffffffffffffffff\n  mul\n  not\n  and\n  swap1\n  dup4\n  0xffffffffffffffffffffffffffffffffffffffff\n  and\n  mul\n  or\n  swap1\n  sstore\n  pop\n    /* \"contracts/PRACTICE/Project -ShipMent Service Incomplete.sol\":60:1714  contract ShipmentService {... */\n  dataSize(sub_0)\n  dup1\n  dataOffset(sub_0)\n  0x00\n  codecopy\n  0x00\n  return\nstop\n\nsub_0: assembly {\n        /* \"contracts/PRACTICE/Project -ShipMent Service Incomplete.sol\":60:1714  contract ShipmentService {... */\n      mstore(0x40, 0x80)\n      callvalue\n      dup1\n      iszero\n      tag_1\n      jumpi\n      revert(0x00, 0x00)\n    tag_1:\n      pop\n      jumpi(tag_2, lt(calldatasize, 0x04))\n      shr(0xe0, calldataload(0x00))\n      dup1\n      0x87e1ad46\n      gt\n      tag_12\n      jumpi\n      dup1\n      0x87e1ad46\n      eq\n      tag_7\n      jumpi\n      dup1\n      0x8da5cb5b\n      eq\n      tag_8\n      jumpi\n      dup1\n      0xa0afc42e\n      eq\n      tag_9\n      jumpi\n      dup1\n      0xe40ebc19\n      eq\n      tag_10\n      jumpi\n      dup1\n      0xef18e9ed\n      eq\n      tag_11\n      jumpi\n      jump(tag_2)\n    tag_12:\n      dup1\n      0x0519dc69\n      eq\n      tag_3\n      jumpi\n      dup1\n      0x06637876\n      eq\n      tag_4\n      jumpi\n      dup1\n      0x340190ec\n      eq\n      tag_5\n      jumpi\n      dup1\n      0x6e32c3e0\n      eq\n      tag_6\n      jumpi\n    tag_2:\n      revert(0x00, 0x00)\n        /* \"contracts/PRACTICE/Project -ShipMent Service Incomplete.sol\":227:275  mapping(address => string) public customerStatus */\n    tag_3:\n      tag_13\n      0x04\n      dup1\n      calldatasize\n      sub\n      dup2\n      add\n      swap1\n      tag_14\n      swap2\n      swap1\n      tag_15\n      jump\t// in\n    tag_14:\n      tag_16\n      jump\t// in\n    tag_13:\n      mload(0x40)\n      tag_17\n      swap2\n      swap1\n      tag_18\n      jump\t// in\n    tag_17:\n      mload(0x40)\n      dup1\n      swap2\n      sub\n      swap1\n      return\n        /* \"contracts/PRACTICE/Project -ShipMent Service Incomplete.sol\":119:143  address public customers */\n    tag_4:\n      tag_19\n      tag_20\n      jump\t// in\n    tag_19:\n      mload(0x40)\n      tag_21\n      swap2\n      swap1\n      tag_22\n      jump\t// in\n    tag_21:\n      mload(0x40)\n      dup1\n      swap2\n      sub\n      swap1\n      return\n        /* \"contracts/PRACTICE/Project -ShipMent Service Incomplete.sol\":933:1366  function checkStatus(address customerAddress) public view  returns (string memory){... */\n    tag_5:\n      tag_23\n      0x04\n      dup1\n      calldatasize\n      sub\n      dup2\n      add\n      swap1\n      tag_24\n      swap2\n      swap1\n      tag_15\n      jump\t// in\n    tag_24:\n      tag_25\n      jump\t// in\n    tag_23:\n      mload(0x40)\n      tag_26\n      swap2\n      swap1\n      tag_18\n      jump\t// in\n    tag_26:\n      mload(0x40)\n      dup1\n      swap2\n      sub\n      swap1\n      return\n        /* \"contracts/PRACTICE/Project -ShipMent Service Incomplete.sol\":150:182  uint public tCompletedDeliveries */\n    tag_6:\n      tag_27\n      tag_28\n      jump\t// in\n    tag_27:\n      mload(0x40)\n      tag_29\n      swap2\n      swap1\n      tag_30\n      jump\t// in\n    tag_29:\n      mload(0x40)\n      dup1\n      swap2\n      sub\n      swap1\n      return\n        /* \"contracts/PRACTICE/Project -ShipMent Service Incomplete.sol\":1601:1711  function totalCompletedDeliveries() public view returns (uint) {... */\n    tag_7:\n      tag_31\n      tag_32\n      jump\t// in\n    tag_31:\n      mload(0x40)\n      tag_33\n      swap2\n      swap1\n      tag_30\n      jump\t// in\n    tag_33:\n      mload(0x40)\n      dup1\n      swap2\n      sub\n      swap1\n      return\n        /* \"contracts/PRACTICE/Project -ShipMent Service Incomplete.sol\":92:112  address public owner */\n    tag_8:\n      tag_34\n      tag_35\n      jump\t// in\n    tag_34:\n      mload(0x40)\n      tag_36\n      swap2\n      swap1\n      tag_22\n      jump\t// in\n    tag_36:\n      mload(0x40)\n      dup1\n      swap2\n      sub\n      swap1\n      return\n        /* \"contracts/PRACTICE/Project -ShipMent Service Incomplete.sol\":1372:1522  function completeDelivery() public {... */\n    tag_9:\n      tag_37\n      tag_38\n      jump\t// in\n    tag_37:\n      stop\n        /* \"contracts/PRACTICE/Project -ShipMent Service Incomplete.sol\":381:558  function shipWithPin(address customerAddress, uint pin) public  {... */\n    tag_10:\n      tag_39\n      0x04\n      dup1\n      calldatasize\n      sub\n      dup2\n      add\n      swap1\n      tag_40\n      swap2\n      swap1\n      tag_41\n      jump\t// in\n    tag_40:\n      tag_42\n      jump\t// in\n    tag_39:\n      stop\n        /* \"contracts/PRACTICE/Project -ShipMent Service Incomplete.sol\":631:869  function acceptOrder(uint pin) public   {... */\n    tag_11:\n      tag_43\n      0x04\n      dup1\n      calldatasize\n      sub\n      dup2\n      add\n      swap1\n      tag_44\n      swap2\n      swap1\n      tag_45\n      jump\t// in\n    tag_44:\n      tag_46\n      jump\t// in\n    tag_43:\n      stop\n        /* \"contracts/PRACTICE/Project -ShipMent Service Incomplete.sol\":227:275  mapping(address => string) public customerStatus */\n    tag_16:\n      mstore(0x20, 0x04)\n      dup1\n      0x00\n      mstore\n      keccak256(0x00, 0x40)\n      0x00\n      swap2\n      pop\n      swap1\n      pop\n      dup1\n      sload\n      tag_47\n      swap1\n      tag_48\n      jump\t// in\n    tag_47:\n      dup1\n      0x1f\n      add\n      0x20\n      dup1\n      swap2\n      div\n      mul\n      0x20\n      add\n      mload(0x40)\n      swap1\n      dup2\n      add\n      0x40\n      mstore\n      dup1\n      swap3\n      swap2\n      swap1\n      dup2\n      dup2\n      mstore\n      0x20\n      add\n      dup3\n      dup1\n      sload\n      tag_49\n      swap1\n      tag_48\n      jump\t// in\n    tag_49:\n      dup1\n      iszero\n      tag_50\n      jumpi\n      dup1\n      0x1f\n      lt\n      tag_51\n      jumpi\n      0x0100\n      dup1\n      dup4\n      sload\n      div\n      mul\n      dup4\n      mstore\n      swap2\n      0x20\n      add\n      swap2\n      jump(tag_50)\n    tag_51:\n      dup3\n      add\n      swap2\n      swap1\n      0x00\n      mstore\n      keccak256(0x00, 0x20)\n      swap1\n    tag_52:\n      dup2\n      sload\n      dup2\n      mstore\n      swap1\n      0x01\n      add\n      swap1\n      0x20\n      add\n      dup1\n      dup4\n      gt\n      tag_52\n      jumpi\n      dup3\n      swap1\n      sub\n      0x1f\n      and\n      dup3\n      add\n      swap2\n    tag_50:\n      pop\n      pop\n      pop\n      pop\n      pop\n      dup2\n      jump\t// out\n        /* \"contracts/PRACTICE/Project -ShipMent Service Incomplete.sol\":119:143  address public customers */\n    tag_20:\n      0x01\n      0x00\n      swap1\n      sload\n      swap1\n      0x0100\n      exp\n      swap1\n      div\n      0xffffffffffffffffffffffffffffffffffffffff\n      and\n      dup2\n      jump\t// out\n        /* \"contracts/PRACTICE/Project -ShipMent Service Incomplete.sol\":933:1366  function checkStatus(address customerAddress) public view  returns (string memory){... */\n    tag_25:\n        /* \"contracts/PRACTICE/Project -ShipMent Service Incomplete.sol\":1001:1014  string memory */\n      0x60\n        /* \"contracts/PRACTICE/Project -ShipMent Service Incomplete.sol\":1050:1065  customerAddress */\n      dup2\n        /* \"contracts/PRACTICE/Project -ShipMent Service Incomplete.sol\":1036:1065  msg.sender == customerAddress */\n      0xffffffffffffffffffffffffffffffffffffffff\n      and\n        /* \"contracts/PRACTICE/Project -ShipMent Service Incomplete.sol\":1036:1046  msg.sender */\n      caller\n        /* \"contracts/PRACTICE/Project -ShipMent Service Incomplete.sol\":1036:1065  msg.sender == customerAddress */\n      0xffffffffffffffffffffffffffffffffffffffff\n      and\n      eq\n        /* \"contracts/PRACTICE/Project -ShipMent Service Incomplete.sol\":1027:1101  require( msg.sender == customerAddress,\"you are not the ordered customer\") */\n      tag_54\n      jumpi\n      mload(0x40)\n      0x08c379a000000000000000000000000000000000000000000000000000000000\n      dup2\n      mstore\n      0x04\n      add\n      tag_55\n      swap1\n      tag_56\n      jump\t// in\n    tag_55:\n      mload(0x40)\n      dup1\n      swap2\n      sub\n      swap1\n      revert\n    tag_54:\n        /* \"contracts/PRACTICE/Project -ShipMent Service Incomplete.sol\":1111:1131  string memory status */\n      0x00\n        /* \"contracts/PRACTICE/Project -ShipMent Service Incomplete.sol\":1134:1148  customerStatus */\n      0x04\n        /* \"contracts/PRACTICE/Project -ShipMent Service Incomplete.sol\":1134:1165  customerStatus[customerAddress] */\n      0x00\n        /* \"contracts/PRACTICE/Project -ShipMent Service Incomplete.sol\":1149:1164  customerAddress */\n      dup5\n        /* \"contracts/PRACTICE/Project -ShipMent Service Incomplete.sol\":1134:1165  customerStatus[customerAddress] */\n      0xffffffffffffffffffffffffffffffffffffffff\n      and\n      0xffffffffffffffffffffffffffffffffffffffff\n      and\n      dup2\n      mstore\n      0x20\n      add\n      swap1\n      dup2\n      mstore\n      0x20\n      add\n      0x00\n      keccak256\n        /* \"contracts/PRACTICE/Project -ShipMent Service Incomplete.sol\":1111:1165  string memory status = customerStatus[customerAddress] */\n      dup1\n      sload\n      tag_57\n      swap1\n      tag_48\n      jump\t// in\n    tag_57:\n      dup1\n      0x1f\n      add\n      0x20\n      dup1\n      swap2\n      div\n      mul\n      0x20\n      add\n      mload(0x40)\n      swap1\n      dup2\n      add\n      0x40\n      mstore\n      dup1\n      swap3\n      swap2\n      swap1\n      dup2\n      dup2\n      mstore\n      0x20\n      add\n      dup3\n      dup1\n      sload\n      tag_58\n      swap1\n      tag_48\n      jump\t// in\n    tag_58:\n      dup1\n      iszero\n      tag_59\n      jumpi\n      dup1\n      0x1f\n      lt\n      tag_60\n      jumpi\n      0x0100\n      dup1\n      dup4\n      sload\n      div\n      mul\n      dup4\n      mstore\n      swap2\n      0x20\n      add\n      swap2\n      jump(tag_59)\n    tag_60:\n      dup3\n      add\n      swap2\n      swap1\n      0x00\n      mstore\n      keccak256(0x00, 0x20)\n      swap1\n    tag_61:\n      dup2\n      sload\n      dup2\n      mstore\n      swap1\n      0x01\n      add\n      swap1\n      0x20\n      add\n      dup1\n      dup4\n      gt\n      tag_61\n      jumpi\n      dup3\n      swap1\n      sub\n      0x1f\n      and\n      dup3\n      add\n      swap2\n    tag_59:\n      pop\n      pop\n      pop\n      pop\n      pop\n      swap1\n      pop\n        /* \"contracts/PRACTICE/Project -ShipMent Service Incomplete.sol\":1204:1205  0 */\n      0x00\n        /* \"contracts/PRACTICE/Project -ShipMent Service Incomplete.sol\":1186:1192  status */\n      dup2\n        /* \"contracts/PRACTICE/Project -ShipMent Service Incomplete.sol\":1180:1200  bytes(status).length */\n      mload\n        /* \"contracts/PRACTICE/Project -ShipMent Service Incomplete.sol\":1180:1205  bytes(status).length == 0 */\n      sub\n        /* \"contracts/PRACTICE/Project -ShipMent Service Incomplete.sol\":1176:1281  if (bytes(status).length == 0) {... */\n      tag_62\n      jumpi\n        /* \"contracts/PRACTICE/Project -ShipMent Service Incomplete.sol\":1222:1269  return \"No shipment initiated for this address\" */\n      mload(0x40)\n      dup1\n      0x60\n      add\n      0x40\n      mstore\n      dup1\n      0x26\n      dup2\n      mstore\n      0x20\n      add\n      data_055a0057ade679fc070ac4edde7dfd4160d7c8ff4cedfe7ebd42ad08e6c04999\n      0x26\n      swap2\n      codecopy\n      swap2\n      pop\n      pop\n      jump(tag_53)\n        /* \"contracts/PRACTICE/Project -ShipMent Service Incomplete.sol\":1176:1281  if (bytes(status).length == 0) {... */\n    tag_62:\n        /* \"contracts/PRACTICE/Project -ShipMent Service Incomplete.sol\":1300:1306  status */\n      dup1\n        /* \"contracts/PRACTICE/Project -ShipMent Service Incomplete.sol\":1293:1306  return status */\n      swap2\n      pop\n      pop\n        /* \"contracts/PRACTICE/Project -ShipMent Service Incomplete.sol\":933:1366  function checkStatus(address customerAddress) public view  returns (string memory){... */\n    tag_53:\n      swap2\n      swap1\n      pop\n      jump\t// out\n        /* \"contracts/PRACTICE/Project -ShipMent Service Incomplete.sol\":150:182  uint public tCompletedDeliveries */\n    tag_28:\n      sload(0x02)\n      dup2\n      jump\t// out\n        /* \"contracts/PRACTICE/Project -ShipMent Service Incomplete.sol\":1601:1711  function totalCompletedDeliveries() public view returns (uint) {... */\n    tag_32:\n        /* \"contracts/PRACTICE/Project -ShipMent Service Incomplete.sol\":1658:1662  uint */\n      0x00\n        /* \"contracts/PRACTICE/Project -ShipMent Service Incomplete.sol\":1683:1703  tCompletedDeliveries */\n      sload(0x02)\n        /* \"contracts/PRACTICE/Project -ShipMent Service Incomplete.sol\":1676:1703  return tCompletedDeliveries */\n      swap1\n      pop\n        /* \"contracts/PRACTICE/Project -ShipMent Service Incomplete.sol\":1601:1711  function totalCompletedDeliveries() public view returns (uint) {... */\n      swap1\n      jump\t// out\n        /* \"contracts/PRACTICE/Project -ShipMent Service Incomplete.sol\":92:112  address public owner */\n    tag_35:\n      0x00\n      0x00\n      swap1\n      sload\n      swap1\n      0x0100\n      exp\n      swap1\n      div\n      0xffffffffffffffffffffffffffffffffffffffff\n      and\n      dup2\n      jump\t// out\n        /* \"contracts/PRACTICE/Project -ShipMent Service Incomplete.sol\":1372:1522  function completeDelivery() public {... */\n    tag_38:\n        /* \"contracts/PRACTICE/Project -ShipMent Service Incomplete.sol\":1436:1441  owner */\n      0x00\n      0x00\n      swap1\n      sload\n      swap1\n      0x0100\n      exp\n      swap1\n      div\n      0xffffffffffffffffffffffffffffffffffffffff\n      and\n        /* \"contracts/PRACTICE/Project -ShipMent Service Incomplete.sol\":1422:1441  msg.sender == owner */\n      0xffffffffffffffffffffffffffffffffffffffff\n      and\n        /* \"contracts/PRACTICE/Project -ShipMent Service Incomplete.sol\":1422:1432  msg.sender */\n      caller\n        /* \"contracts/PRACTICE/Project -ShipMent Service Incomplete.sol\":1422:1441  msg.sender == owner */\n      0xffffffffffffffffffffffffffffffffffffffff\n      and\n      eq\n        /* \"contracts/PRACTICE/Project -ShipMent Service Incomplete.sol\":1414:1486  require(msg.sender == owner, \"Only the owner can complete the delivery\") */\n      tag_65\n      jumpi\n      mload(0x40)\n      0x08c379a000000000000000000000000000000000000000000000000000000000\n      dup2\n      mstore\n      0x04\n      add\n      tag_66\n      swap1\n      tag_67\n      jump\t// in\n    tag_66:\n      mload(0x40)\n      dup1\n      swap2\n      sub\n      swap1\n      revert\n    tag_65:\n        /* \"contracts/PRACTICE/Project -ShipMent Service Incomplete.sol\":1517:1518  1 */\n      0x01\n        /* \"contracts/PRACTICE/Project -ShipMent Service Incomplete.sol\":1493:1513  tCompletedDeliveries */\n      0x02\n      0x00\n        /* \"contracts/PRACTICE/Project -ShipMent Service Incomplete.sol\":1493:1518  tCompletedDeliveries += 1 */\n      dup3\n      dup3\n      sload\n      tag_68\n      swap2\n      swap1\n      tag_69\n      jump\t// in\n    tag_68:\n      swap3\n      pop\n      pop\n      dup2\n      swap1\n      sstore\n      pop\n        /* \"contracts/PRACTICE/Project -ShipMent Service Incomplete.sol\":1372:1522  function completeDelivery() public {... */\n      jump\t// out\n        /* \"contracts/PRACTICE/Project -ShipMent Service Incomplete.sol\":381:558  function shipWithPin(address customerAddress, uint pin) public  {... */\n    tag_42:\n        /* \"contracts/PRACTICE/Project -ShipMent Service Incomplete.sol\":476:481  owner */\n      0x00\n      0x00\n      swap1\n      sload\n      swap1\n      0x0100\n      exp\n      swap1\n      div\n      0xffffffffffffffffffffffffffffffffffffffff\n      and\n        /* \"contracts/PRACTICE/Project -ShipMent Service Incomplete.sol\":464:481  msg.sender==owner */\n      0xffffffffffffffffffffffffffffffffffffffff\n      and\n        /* \"contracts/PRACTICE/Project -ShipMent Service Incomplete.sol\":464:474  msg.sender */\n      caller\n        /* \"contracts/PRACTICE/Project -ShipMent Service Incomplete.sol\":464:481  msg.sender==owner */\n      0xffffffffffffffffffffffffffffffffffffffff\n      and\n      eq\n        /* \"contracts/PRACTICE/Project -ShipMent Service Incomplete.sol\":456:506  require(msg.sender==owner,'you are not the owner') */\n      tag_71\n      jumpi\n      mload(0x40)\n      0x08c379a000000000000000000000000000000000000000000000000000000000\n      dup2\n      mstore\n      0x04\n      add\n      tag_72\n      swap1\n      tag_73\n      jump\t// in\n    tag_72:\n      mload(0x40)\n      dup1\n      swap2\n      sub\n      swap1\n      revert\n    tag_71:\n        /* \"contracts/PRACTICE/Project -ShipMent Service Incomplete.sol\":529:544  customerAddress */\n      dup2\n        /* \"contracts/PRACTICE/Project -ShipMent Service Incomplete.sol\":517:523  custom */\n      0x03\n        /* \"contracts/PRACTICE/Project -ShipMent Service Incomplete.sol\":517:528  custom[pin] */\n      0x00\n        /* \"contracts/PRACTICE/Project -ShipMent Service Incomplete.sol\":524:527  pin */\n      dup4\n        /* \"contracts/PRACTICE/Project -ShipMent Service Incomplete.sol\":517:528  custom[pin] */\n      dup2\n      mstore\n      0x20\n      add\n      swap1\n      dup2\n      mstore\n      0x20\n      add\n      0x00\n      keccak256\n      0x00\n        /* \"contracts/PRACTICE/Project -ShipMent Service Incomplete.sol\":517:544  custom[pin]=customerAddress */\n      0x0100\n      exp\n      dup2\n      sload\n      dup2\n      0xffffffffffffffffffffffffffffffffffffffff\n      mul\n      not\n      and\n      swap1\n      dup4\n      0xffffffffffffffffffffffffffffffffffffffff\n      and\n      mul\n      or\n      swap1\n      sstore\n      pop\n        /* \"contracts/PRACTICE/Project -ShipMent Service Incomplete.sol\":381:558  function shipWithPin(address customerAddress, uint pin) public  {... */\n      pop\n      pop\n      jump\t// out\n        /* \"contracts/PRACTICE/Project -ShipMent Service Incomplete.sol\":631:869  function acceptOrder(uint pin) public   {... */\n    tag_46:\n        /* \"contracts/PRACTICE/Project -ShipMent Service Incomplete.sol\":682:705  address customerAddress */\n      0x00\n        /* \"contracts/PRACTICE/Project -ShipMent Service Incomplete.sol\":706:712  custom */\n      0x03\n        /* \"contracts/PRACTICE/Project -ShipMent Service Incomplete.sol\":706:717  custom[pin] */\n      0x00\n        /* \"contracts/PRACTICE/Project -ShipMent Service Incomplete.sol\":713:716  pin */\n      dup4\n        /* \"contracts/PRACTICE/Project -ShipMent Service Incomplete.sol\":706:717  custom[pin] */\n      dup2\n      mstore\n      0x20\n      add\n      swap1\n      dup2\n      mstore\n      0x20\n      add\n      0x00\n      keccak256\n      0x00\n      swap1\n      sload\n      swap1\n      0x0100\n      exp\n      swap1\n      div\n      0xffffffffffffffffffffffffffffffffffffffff\n      and\n        /* \"contracts/PRACTICE/Project -ShipMent Service Incomplete.sol\":682:717  address customerAddress=custom[pin] */\n      swap1\n      pop\n        /* \"contracts/PRACTICE/Project -ShipMent Service Incomplete.sol\":752:767  customerAddress */\n      dup1\n        /* \"contracts/PRACTICE/Project -ShipMent Service Incomplete.sol\":738:767  msg.sender == customerAddress */\n      0xffffffffffffffffffffffffffffffffffffffff\n      and\n        /* \"contracts/PRACTICE/Project -ShipMent Service Incomplete.sol\":738:748  msg.sender */\n      caller\n        /* \"contracts/PRACTICE/Project -ShipMent Service Incomplete.sol\":738:767  msg.sender == customerAddress */\n      0xffffffffffffffffffffffffffffffffffffffff\n      and\n      eq\n        /* \"contracts/PRACTICE/Project -ShipMent Service Incomplete.sol\":729:803  require( msg.sender == customerAddress,\"you are not the ordered customer\") */\n      tag_75\n      jumpi\n      mload(0x40)\n      0x08c379a000000000000000000000000000000000000000000000000000000000\n      dup2\n      mstore\n      0x04\n      add\n      tag_76\n      swap1\n      tag_56\n      jump\t// in\n    tag_76:\n      mload(0x40)\n      dup1\n      swap2\n      sub\n      swap1\n      revert\n    tag_75:\n        /* \"contracts/PRACTICE/Project -ShipMent Service Incomplete.sol\":815:859  customerStatus[customerAddress] = \"Accepted\" */\n      mload(0x40)\n      dup1\n      0x40\n      add\n      0x40\n      mstore\n      dup1\n      0x08\n      dup2\n      mstore\n      0x20\n      add\n      0x4163636570746564000000000000000000000000000000000000000000000000\n      dup2\n      mstore\n      pop\n        /* \"contracts/PRACTICE/Project -ShipMent Service Incomplete.sol\":815:829  customerStatus */\n      0x04\n        /* \"contracts/PRACTICE/Project -ShipMent Service Incomplete.sol\":815:846  customerStatus[customerAddress] */\n      0x00\n        /* \"contracts/PRACTICE/Project -ShipMent Service Incomplete.sol\":830:845  customerAddress */\n      dup4\n        /* \"contracts/PRACTICE/Project -ShipMent Service Incomplete.sol\":815:846  customerStatus[customerAddress] */\n      0xffffffffffffffffffffffffffffffffffffffff\n      and\n      0xffffffffffffffffffffffffffffffffffffffff\n      and\n      dup2\n      mstore\n      0x20\n      add\n      swap1\n      dup2\n      mstore\n      0x20\n      add\n      0x00\n      keccak256\n        /* \"contracts/PRACTICE/Project -ShipMent Service Incomplete.sol\":815:859  customerStatus[customerAddress] = \"Accepted\" */\n      swap1\n      dup2\n      tag_77\n      swap2\n      swap1\n      tag_78\n      jump\t// in\n    tag_77:\n      pop\n        /* \"contracts/PRACTICE/Project -ShipMent Service Incomplete.sol\":671:869  {... */\n      pop\n        /* \"contracts/PRACTICE/Project -ShipMent Service Incomplete.sol\":631:869  function acceptOrder(uint pin) public   {... */\n      pop\n      jump\t// out\n        /* \"#utility.yul\":88:205   */\n    tag_80:\n        /* \"#utility.yul\":197:198   */\n      0x00\n        /* \"#utility.yul\":194:195   */\n      0x00\n        /* \"#utility.yul\":187:199   */\n      revert\n        /* \"#utility.yul\":334:460   */\n    tag_82:\n        /* \"#utility.yul\":371:378   */\n      0x00\n        /* \"#utility.yul\":411:453   */\n      0xffffffffffffffffffffffffffffffffffffffff\n        /* \"#utility.yul\":404:409   */\n      dup3\n        /* \"#utility.yul\":400:454   */\n      and\n        /* \"#utility.yul\":389:454   */\n      swap1\n      pop\n        /* \"#utility.yul\":334:460   */\n      swap2\n      swap1\n      pop\n      jump\t// out\n        /* \"#utility.yul\":466:562   */\n    tag_83:\n        /* \"#utility.yul\":503:510   */\n      0x00\n        /* \"#utility.yul\":532:556   */\n      tag_126\n        /* \"#utility.yul\":550:555   */\n      dup3\n        /* \"#utility.yul\":532:556   */\n      tag_82\n      jump\t// in\n    tag_126:\n        /* \"#utility.yul\":521:556   */\n      swap1\n      pop\n        /* \"#utility.yul\":466:562   */\n      swap2\n      swap1\n      pop\n      jump\t// out\n        /* \"#utility.yul\":568:690   */\n    tag_84:\n        /* \"#utility.yul\":641:665   */\n      tag_128\n        /* \"#utility.yul\":659:664   */\n      dup2\n        /* \"#utility.yul\":641:665   */\n      tag_83\n      jump\t// in\n    tag_128:\n        /* \"#utility.yul\":634:639   */\n      dup2\n        /* \"#utility.yul\":631:666   */\n      eq\n        /* \"#utility.yul\":621:684   */\n      tag_129\n      jumpi\n        /* \"#utility.yul\":680:681   */\n      0x00\n        /* \"#utility.yul\":677:678   */\n      0x00\n        /* \"#utility.yul\":670:682   */\n      revert\n        /* \"#utility.yul\":621:684   */\n    tag_129:\n        /* \"#utility.yul\":568:690   */\n      pop\n      jump\t// out\n        /* \"#utility.yul\":696:835   */\n    tag_85:\n        /* \"#utility.yul\":742:747   */\n      0x00\n        /* \"#utility.yul\":780:786   */\n      dup2\n        /* \"#utility.yul\":767:787   */\n      calldataload\n        /* \"#utility.yul\":758:787   */\n      swap1\n      pop\n        /* \"#utility.yul\":796:829   */\n      tag_131\n        /* \"#utility.yul\":823:828   */\n      dup2\n        /* \"#utility.yul\":796:829   */\n      tag_84\n      jump\t// in\n    tag_131:\n        /* \"#utility.yul\":696:835   */\n      swap3\n      swap2\n      pop\n      pop\n      jump\t// out\n        /* \"#utility.yul\":841:1170   */\n    tag_15:\n        /* \"#utility.yul\":900:906   */\n      0x00\n        /* \"#utility.yul\":949:951   */\n      0x20\n        /* \"#utility.yul\":937:946   */\n      dup3\n        /* \"#utility.yul\":928:935   */\n      dup5\n        /* \"#utility.yul\":924:947   */\n      sub\n        /* \"#utility.yul\":920:952   */\n      slt\n        /* \"#utility.yul\":917:1036   */\n      iszero\n      tag_133\n      jumpi\n        /* \"#utility.yul\":955:1034   */\n      tag_134\n      tag_80\n      jump\t// in\n    tag_134:\n        /* \"#utility.yul\":917:1036   */\n    tag_133:\n        /* \"#utility.yul\":1075:1076   */\n      0x00\n        /* \"#utility.yul\":1100:1153   */\n      tag_135\n        /* \"#utility.yul\":1145:1152   */\n      dup5\n        /* \"#utility.yul\":1136:1142   */\n      dup3\n        /* \"#utility.yul\":1125:1134   */\n      dup6\n        /* \"#utility.yul\":1121:1143   */\n      add\n        /* \"#utility.yul\":1100:1153   */\n      tag_85\n      jump\t// in\n    tag_135:\n        /* \"#utility.yul\":1090:1153   */\n      swap2\n      pop\n        /* \"#utility.yul\":1046:1163   */\n      pop\n        /* \"#utility.yul\":841:1170   */\n      swap3\n      swap2\n      pop\n      pop\n      jump\t// out\n        /* \"#utility.yul\":1176:1275   */\n    tag_86:\n        /* \"#utility.yul\":1228:1234   */\n      0x00\n        /* \"#utility.yul\":1262:1267   */\n      dup2\n        /* \"#utility.yul\":1256:1268   */\n      mload\n        /* \"#utility.yul\":1246:1268   */\n      swap1\n      pop\n        /* \"#utility.yul\":1176:1275   */\n      swap2\n      swap1\n      pop\n      jump\t// out\n        /* \"#utility.yul\":1281:1450   */\n    tag_87:\n        /* \"#utility.yul\":1365:1376   */\n      0x00\n        /* \"#utility.yul\":1399:1405   */\n      dup3\n        /* \"#utility.yul\":1394:1397   */\n      dup3\n        /* \"#utility.yul\":1387:1406   */\n      mstore\n        /* \"#utility.yul\":1439:1443   */\n      0x20\n        /* \"#utility.yul\":1434:1437   */\n      dup3\n        /* \"#utility.yul\":1430:1444   */\n      add\n        /* \"#utility.yul\":1415:1444   */\n      swap1\n      pop\n        /* \"#utility.yul\":1281:1450   */\n      swap3\n      swap2\n      pop\n      pop\n      jump\t// out\n        /* \"#utility.yul\":1456:1595   */\n    tag_88:\n        /* \"#utility.yul\":1545:1551   */\n      dup3\n        /* \"#utility.yul\":1540:1543   */\n      dup2\n        /* \"#utility.yul\":1535:1538   */\n      dup4\n        /* \"#utility.yul\":1529:1552   */\n      mcopy\n        /* \"#utility.yul\":1586:1587   */\n      0x00\n        /* \"#utility.yul\":1577:1583   */\n      dup4\n        /* \"#utility.yul\":1572:1575   */\n      dup4\n        /* \"#utility.yul\":1568:1584   */\n      add\n        /* \"#utility.yul\":1561:1588   */\n      mstore\n        /* \"#utility.yul\":1456:1595   */\n      pop\n      pop\n      pop\n      jump\t// out\n        /* \"#utility.yul\":1601:1703   */\n    tag_89:\n        /* \"#utility.yul\":1642:1648   */\n      0x00\n        /* \"#utility.yul\":1693:1695   */\n      0x1f\n        /* \"#utility.yul\":1689:1696   */\n      not\n        /* \"#utility.yul\":1684:1686   */\n      0x1f\n        /* \"#utility.yul\":1677:1682   */\n      dup4\n        /* \"#utility.yul\":1673:1687   */\n      add\n        /* \"#utility.yul\":1669:1697   */\n      and\n        /* \"#utility.yul\":1659:1697   */\n      swap1\n      pop\n        /* \"#utility.yul\":1601:1703   */\n      swap2\n      swap1\n      pop\n      jump\t// out\n        /* \"#utility.yul\":1709:2086   */\n    tag_90:\n        /* \"#utility.yul\":1797:1800   */\n      0x00\n        /* \"#utility.yul\":1825:1864   */\n      tag_141\n        /* \"#utility.yul\":1858:1863   */\n      dup3\n        /* \"#utility.yul\":1825:1864   */\n      tag_86\n      jump\t// in\n    tag_141:\n        /* \"#utility.yul\":1880:1951   */\n      tag_142\n        /* \"#utility.yul\":1944:1950   */\n      dup2\n        /* \"#utility.yul\":1939:1942   */\n      dup6\n        /* \"#utility.yul\":1880:1951   */\n      tag_87\n      jump\t// in\n    tag_142:\n        /* \"#utility.yul\":1873:1951   */\n      swap4\n      pop\n        /* \"#utility.yul\":1960:2025   */\n      tag_143\n        /* \"#utility.yul\":2018:2024   */\n      dup2\n        /* \"#utility.yul\":2013:2016   */\n      dup6\n        /* \"#utility.yul\":2006:2010   */\n      0x20\n        /* \"#utility.yul\":1999:2004   */\n      dup7\n        /* \"#utility.yul\":1995:2011   */\n      add\n        /* \"#utility.yul\":1960:2025   */\n      tag_88\n      jump\t// in\n    tag_143:\n        /* \"#utility.yul\":2050:2079   */\n      tag_144\n        /* \"#utility.yul\":2072:2078   */\n      dup2\n        /* \"#utility.yul\":2050:2079   */\n      tag_89\n      jump\t// in\n    tag_144:\n        /* \"#utility.yul\":2045:2048   */\n      dup5\n        /* \"#utility.yul\":2041:2080   */\n      add\n        /* \"#utility.yul\":2034:2080   */\n      swap2\n      pop\n        /* \"#utility.yul\":1801:2086   */\n      pop\n        /* \"#utility.yul\":1709:2086   */\n      swap3\n      swap2\n      pop\n      pop\n      jump\t// out\n        /* \"#utility.yul\":2092:2405   */\n    tag_18:\n        /* \"#utility.yul\":2205:2209   */\n      0x00\n        /* \"#utility.yul\":2243:2245   */\n      0x20\n        /* \"#utility.yul\":2232:2241   */\n      dup3\n        /* \"#utility.yul\":2228:2246   */\n      add\n        /* \"#utility.yul\":2220:2246   */\n      swap1\n      pop\n        /* \"#utility.yul\":2292:2301   */\n      dup2\n        /* \"#utility.yul\":2286:2290   */\n      dup2\n        /* \"#utility.yul\":2282:2302   */\n      sub\n        /* \"#utility.yul\":2278:2279   */\n      0x00\n        /* \"#utility.yul\":2267:2276   */\n      dup4\n        /* \"#utility.yul\":2263:2280   */\n      add\n        /* \"#utility.yul\":2256:2303   */\n      mstore\n        /* \"#utility.yul\":2320:2398   */\n      tag_146\n        /* \"#utility.yul\":2393:2397   */\n      dup2\n        /* \"#utility.yul\":2384:2390   */\n      dup5\n        /* \"#utility.yul\":2320:2398   */\n      tag_90\n      jump\t// in\n    tag_146:\n        /* \"#utility.yul\":2312:2398   */\n      swap1\n      pop\n        /* \"#utility.yul\":2092:2405   */\n      swap3\n      swap2\n      pop\n      pop\n      jump\t// out\n        /* \"#utility.yul\":2411:2529   */\n    tag_91:\n        /* \"#utility.yul\":2498:2522   */\n      tag_148\n        /* \"#utility.yul\":2516:2521   */\n      dup2\n        /* \"#utility.yul\":2498:2522   */\n      tag_83\n      jump\t// in\n    tag_148:\n        /* \"#utility.yul\":2493:2496   */\n      dup3\n        /* \"#utility.yul\":2486:2523   */\n      mstore\n        /* \"#utility.yul\":2411:2529   */\n      pop\n      pop\n      jump\t// out\n        /* \"#utility.yul\":2535:2757   */\n    tag_22:\n        /* \"#utility.yul\":2628:2632   */\n      0x00\n        /* \"#utility.yul\":2666:2668   */\n      0x20\n        /* \"#utility.yul\":2655:2664   */\n      dup3\n        /* \"#utility.yul\":2651:2669   */\n      add\n        /* \"#utility.yul\":2643:2669   */\n      swap1\n      pop\n        /* \"#utility.yul\":2679:2750   */\n      tag_150\n        /* \"#utility.yul\":2747:2748   */\n      0x00\n        /* \"#utility.yul\":2736:2745   */\n      dup4\n        /* \"#utility.yul\":2732:2749   */\n      add\n        /* \"#utility.yul\":2723:2729   */\n      dup5\n        /* \"#utility.yul\":2679:2750   */\n      tag_91\n      jump\t// in\n    tag_150:\n        /* \"#utility.yul\":2535:2757   */\n      swap3\n      swap2\n      pop\n      pop\n      jump\t// out\n        /* \"#utility.yul\":2763:2840   */\n    tag_92:\n        /* \"#utility.yul\":2800:2807   */\n      0x00\n        /* \"#utility.yul\":2829:2834   */\n      dup2\n        /* \"#utility.yul\":2818:2834   */\n      swap1\n      pop\n        /* \"#utility.yul\":2763:2840   */\n      swap2\n      swap1\n      pop\n      jump\t// out\n        /* \"#utility.yul\":2846:2964   */\n    tag_93:\n        /* \"#utility.yul\":2933:2957   */\n      tag_153\n        /* \"#utility.yul\":2951:2956   */\n      dup2\n        /* \"#utility.yul\":2933:2957   */\n      tag_92\n      jump\t// in\n    tag_153:\n        /* \"#utility.yul\":2928:2931   */\n      dup3\n        /* \"#utility.yul\":2921:2958   */\n      mstore\n        /* \"#utility.yul\":2846:2964   */\n      pop\n      pop\n      jump\t// out\n        /* \"#utility.yul\":2970:3192   */\n    tag_30:\n        /* \"#utility.yul\":3063:3067   */\n      0x00\n        /* \"#utility.yul\":3101:3103   */\n      0x20\n        /* \"#utility.yul\":3090:3099   */\n      dup3\n        /* \"#utility.yul\":3086:3104   */\n      add\n        /* \"#utility.yul\":3078:3104   */\n      swap1\n      pop\n        /* \"#utility.yul\":3114:3185   */\n      tag_155\n        /* \"#utility.yul\":3182:3183   */\n      0x00\n        /* \"#utility.yul\":3171:3180   */\n      dup4\n        /* \"#utility.yul\":3167:3184   */\n      add\n        /* \"#utility.yul\":3158:3164   */\n      dup5\n        /* \"#utility.yul\":3114:3185   */\n      tag_93\n      jump\t// in\n    tag_155:\n        /* \"#utility.yul\":2970:3192   */\n      swap3\n      swap2\n      pop\n      pop\n      jump\t// out\n        /* \"#utility.yul\":3198:3320   */\n    tag_94:\n        /* \"#utility.yul\":3271:3295   */\n      tag_157\n        /* \"#utility.yul\":3289:3294   */\n      dup2\n        /* \"#utility.yul\":3271:3295   */\n      tag_92\n      jump\t// in\n    tag_157:\n        /* \"#utility.yul\":3264:3269   */\n      dup2\n        /* \"#utility.yul\":3261:3296   */\n      eq\n        /* \"#utility.yul\":3251:3314   */\n      tag_158\n      jumpi\n        /* \"#utility.yul\":3310:3311   */\n      0x00\n        /* \"#utility.yul\":3307:3308   */\n      0x00\n        /* \"#utility.yul\":3300:3312   */\n      revert\n        /* \"#utility.yul\":3251:3314   */\n    tag_158:\n        /* \"#utility.yul\":3198:3320   */\n      pop\n      jump\t// out\n        /* \"#utility.yul\":3326:3465   */\n    tag_95:\n        /* \"#utility.yul\":3372:3377   */\n      0x00\n        /* \"#utility.yul\":3410:3416   */\n      dup2\n        /* \"#utility.yul\":3397:3417   */\n      calldataload\n        /* \"#utility.yul\":3388:3417   */\n      swap1\n      pop\n        /* \"#utility.yul\":3426:3459   */\n      tag_160\n        /* \"#utility.yul\":3453:3458   */\n      dup2\n        /* \"#utility.yul\":3426:3459   */\n      tag_94\n      jump\t// in\n    tag_160:\n        /* \"#utility.yul\":3326:3465   */\n      swap3\n      swap2\n      pop\n      pop\n      jump\t// out\n        /* \"#utility.yul\":3471:3945   */\n    tag_41:\n        /* \"#utility.yul\":3539:3545   */\n      0x00\n        /* \"#utility.yul\":3547:3553   */\n      0x00\n        /* \"#utility.yul\":3596:3598   */\n      0x40\n        /* \"#utility.yul\":3584:3593   */\n      dup4\n        /* \"#utility.yul\":3575:3582   */\n      dup6\n        /* \"#utility.yul\":3571:3594   */\n      sub\n        /* \"#utility.yul\":3567:3599   */\n      slt\n        /* \"#utility.yul\":3564:3683   */\n      iszero\n      tag_162\n      jumpi\n        /* \"#utility.yul\":3602:3681   */\n      tag_163\n      tag_80\n      jump\t// in\n    tag_163:\n        /* \"#utility.yul\":3564:3683   */\n    tag_162:\n        /* \"#utility.yul\":3722:3723   */\n      0x00\n        /* \"#utility.yul\":3747:3800   */\n      tag_164\n        /* \"#utility.yul\":3792:3799   */\n      dup6\n        /* \"#utility.yul\":3783:3789   */\n      dup3\n        /* \"#utility.yul\":3772:3781   */\n      dup7\n        /* \"#utility.yul\":3768:3790   */\n      add\n        /* \"#utility.yul\":3747:3800   */\n      tag_85\n      jump\t// in\n    tag_164:\n        /* \"#utility.yul\":3737:3800   */\n      swap3\n      pop\n        /* \"#utility.yul\":3693:3810   */\n      pop\n        /* \"#utility.yul\":3849:3851   */\n      0x20\n        /* \"#utility.yul\":3875:3928   */\n      tag_165\n        /* \"#utility.yul\":3920:3927   */\n      dup6\n        /* \"#utility.yul\":3911:3917   */\n      dup3\n        /* \"#utility.yul\":3900:3909   */\n      dup7\n        /* \"#utility.yul\":3896:3918   */\n      add\n        /* \"#utility.yul\":3875:3928   */\n      tag_95\n      jump\t// in\n    tag_165:\n        /* \"#utility.yul\":3865:3928   */\n      swap2\n      pop\n        /* \"#utility.yul\":3820:3938   */\n      pop\n        /* \"#utility.yul\":3471:3945   */\n      swap3\n      pop\n      swap3\n      swap1\n      pop\n      jump\t// out\n        /* \"#utility.yul\":3951:4280   */\n    tag_45:\n        /* \"#utility.yul\":4010:4016   */\n      0x00\n        /* \"#utility.yul\":4059:4061   */\n      0x20\n        /* \"#utility.yul\":4047:4056   */\n      dup3\n        /* \"#utility.yul\":4038:4045   */\n      dup5\n        /* \"#utility.yul\":4034:4057   */\n      sub\n        /* \"#utility.yul\":4030:4062   */\n      slt\n        /* \"#utility.yul\":4027:4146   */\n      iszero\n      tag_167\n      jumpi\n        /* \"#utility.yul\":4065:4144   */\n      tag_168\n      tag_80\n      jump\t// in\n    tag_168:\n        /* \"#utility.yul\":4027:4146   */\n    tag_167:\n        /* \"#utility.yul\":4185:4186   */\n      0x00\n        /* \"#utility.yul\":4210:4263   */\n      tag_169\n        /* \"#utility.yul\":4255:4262   */\n      dup5\n        /* \"#utility.yul\":4246:4252   */\n      dup3\n        /* \"#utility.yul\":4235:4244   */\n      dup6\n        /* \"#utility.yul\":4231:4253   */\n      add\n        /* \"#utility.yul\":4210:4263   */\n      tag_95\n      jump\t// in\n    tag_169:\n        /* \"#utility.yul\":4200:4263   */\n      swap2\n      pop\n        /* \"#utility.yul\":4156:4273   */\n      pop\n        /* \"#utility.yul\":3951:4280   */\n      swap3\n      swap2\n      pop\n      pop\n      jump\t// out\n        /* \"#utility.yul\":4286:4466   */\n    tag_96:\n        /* \"#utility.yul\":4334:4411   */\n      0x4e487b7100000000000000000000000000000000000000000000000000000000\n        /* \"#utility.yul\":4331:4332   */\n      0x00\n        /* \"#utility.yul\":4324:4412   */\n      mstore\n        /* \"#utility.yul\":4431:4435   */\n      0x22\n        /* \"#utility.yul\":4428:4429   */\n      0x04\n        /* \"#utility.yul\":4421:4436   */\n      mstore\n        /* \"#utility.yul\":4455:4459   */\n      0x24\n        /* \"#utility.yul\":4452:4453   */\n      0x00\n        /* \"#utility.yul\":4445:4460   */\n      revert\n        /* \"#utility.yul\":4472:4792   */\n    tag_48:\n        /* \"#utility.yul\":4516:4522   */\n      0x00\n        /* \"#utility.yul\":4553:4554   */\n      0x02\n        /* \"#utility.yul\":4547:4551   */\n      dup3\n        /* \"#utility.yul\":4543:4555   */\n      div\n        /* \"#utility.yul\":4533:4555   */\n      swap1\n      pop\n        /* \"#utility.yul\":4600:4601   */\n      0x01\n        /* \"#utility.yul\":4594:4598   */\n      dup3\n        /* \"#utility.yul\":4590:4602   */\n      and\n        /* \"#utility.yul\":4621:4639   */\n      dup1\n        /* \"#utility.yul\":4611:4692   */\n      tag_172\n      jumpi\n        /* \"#utility.yul\":4677:4681   */\n      0x7f\n        /* \"#utility.yul\":4669:4675   */\n      dup3\n        /* \"#utility.yul\":4665:4682   */\n      and\n        /* \"#utility.yul\":4655:4682   */\n      swap2\n      pop\n        /* \"#utility.yul\":4611:4692   */\n    tag_172:\n        /* \"#utility.yul\":4739:4741   */\n      0x20\n        /* \"#utility.yul\":4731:4737   */\n      dup3\n        /* \"#utility.yul\":4728:4742   */\n      lt\n        /* \"#utility.yul\":4708:4726   */\n      dup2\n        /* \"#utility.yul\":4705:4743   */\n      sub\n        /* \"#utility.yul\":4702:4786   */\n      tag_173\n      jumpi\n        /* \"#utility.yul\":4758:4776   */\n      tag_174\n      tag_96\n      jump\t// in\n    tag_174:\n        /* \"#utility.yul\":4702:4786   */\n    tag_173:\n        /* \"#utility.yul\":4523:4792   */\n      pop\n        /* \"#utility.yul\":4472:4792   */\n      swap2\n      swap1\n      pop\n      jump\t// out\n        /* \"#utility.yul\":4798:4980   */\n    tag_97:\n        /* \"#utility.yul\":4938:4972   */\n      0x796f7520617265206e6f7420746865206f72646572656420637573746f6d6572\n        /* \"#utility.yul\":4934:4935   */\n      0x00\n        /* \"#utility.yul\":4926:4932   */\n      dup3\n        /* \"#utility.yul\":4922:4936   */\n      add\n        /* \"#utility.yul\":4915:4973   */\n      mstore\n        /* \"#utility.yul\":4798:4980   */\n      pop\n      jump\t// out\n        /* \"#utility.yul\":4986:5352   */\n    tag_98:\n        /* \"#utility.yul\":5128:5131   */\n      0x00\n        /* \"#utility.yul\":5149:5216   */\n      tag_177\n        /* \"#utility.yul\":5213:5215   */\n      0x20\n        /* \"#utility.yul\":5208:5211   */\n      dup4\n        /* \"#utility.yul\":5149:5216   */\n      tag_87\n      jump\t// in\n    tag_177:\n        /* \"#utility.yul\":5142:5216   */\n      swap2\n      pop\n        /* \"#utility.yul\":5225:5318   */\n      tag_178\n        /* \"#utility.yul\":5314:5317   */\n      dup3\n        /* \"#utility.yul\":5225:5318   */\n      tag_97\n      jump\t// in\n    tag_178:\n        /* \"#utility.yul\":5343:5345   */\n      0x20\n        /* \"#utility.yul\":5338:5341   */\n      dup3\n        /* \"#utility.yul\":5334:5346   */\n      add\n        /* \"#utility.yul\":5327:5346   */\n      swap1\n      pop\n        /* \"#utility.yul\":4986:5352   */\n      swap2\n      swap1\n      pop\n      jump\t// out\n        /* \"#utility.yul\":5358:5777   */\n    tag_56:\n        /* \"#utility.yul\":5524:5528   */\n      0x00\n        /* \"#utility.yul\":5562:5564   */\n      0x20\n        /* \"#utility.yul\":5551:5560   */\n      dup3\n        /* \"#utility.yul\":5547:5565   */\n      add\n        /* \"#utility.yul\":5539:5565   */\n      swap1\n      pop\n        /* \"#utility.yul\":5611:5620   */\n      dup2\n        /* \"#utility.yul\":5605:5609   */\n      dup2\n        /* \"#utility.yul\":5601:5621   */\n      sub\n        /* \"#utility.yul\":5597:5598   */\n      0x00\n        /* \"#utility.yul\":5586:5595   */\n      dup4\n        /* \"#utility.yul\":5582:5599   */\n      add\n        /* \"#utility.yul\":5575:5622   */\n      mstore\n        /* \"#utility.yul\":5639:5770   */\n      tag_180\n        /* \"#utility.yul\":5765:5769   */\n      dup2\n        /* \"#utility.yul\":5639:5770   */\n      tag_98\n      jump\t// in\n    tag_180:\n        /* \"#utility.yul\":5631:5770   */\n      swap1\n      pop\n        /* \"#utility.yul\":5358:5777   */\n      swap2\n      swap1\n      pop\n      jump\t// out\n        /* \"#utility.yul\":5783:6010   */\n    tag_99:\n        /* \"#utility.yul\":5923:5957   */\n      0x4f6e6c7920746865206f776e65722063616e20636f6d706c6574652074686520\n        /* \"#utility.yul\":5919:5920   */\n      0x00\n        /* \"#utility.yul\":5911:5917   */\n      dup3\n        /* \"#utility.yul\":5907:5921   */\n      add\n        /* \"#utility.yul\":5900:5958   */\n      mstore\n        /* \"#utility.yul\":5992:6002   */\n      0x64656c6976657279000000000000000000000000000000000000000000000000\n        /* \"#utility.yul\":5987:5989   */\n      0x20\n        /* \"#utility.yul\":5979:5985   */\n      dup3\n        /* \"#utility.yul\":5975:5990   */\n      add\n        /* \"#utility.yul\":5968:6003   */\n      mstore\n        /* \"#utility.yul\":5783:6010   */\n      pop\n      jump\t// out\n        /* \"#utility.yul\":6016:6382   */\n    tag_100:\n        /* \"#utility.yul\":6158:6161   */\n      0x00\n        /* \"#utility.yul\":6179:6246   */\n      tag_183\n        /* \"#utility.yul\":6243:6245   */\n      0x28\n        /* \"#utility.yul\":6238:6241   */\n      dup4\n        /* \"#utility.yul\":6179:6246   */\n      tag_87\n      jump\t// in\n    tag_183:\n        /* \"#utility.yul\":6172:6246   */\n      swap2\n      pop\n        /* \"#utility.yul\":6255:6348   */\n      tag_184\n        /* \"#utility.yul\":6344:6347   */\n      dup3\n        /* \"#utility.yul\":6255:6348   */\n      tag_99\n      jump\t// in\n    tag_184:\n        /* \"#utility.yul\":6373:6375   */\n      0x40\n        /* \"#utility.yul\":6368:6371   */\n      dup3\n        /* \"#utility.yul\":6364:6376   */\n      add\n        /* \"#utility.yul\":6357:6376   */\n      swap1\n      pop\n        /* \"#utility.yul\":6016:6382   */\n      swap2\n      swap1\n      pop\n      jump\t// out\n        /* \"#utility.yul\":6388:6807   */\n    tag_67:\n        /* \"#utility.yul\":6554:6558   */\n      0x00\n        /* \"#utility.yul\":6592:6594   */\n      0x20\n        /* \"#utility.yul\":6581:6590   */\n      dup3\n        /* \"#utility.yul\":6577:6595   */\n      add\n        /* \"#utility.yul\":6569:6595   */\n      swap1\n      pop\n        /* \"#utility.yul\":6641:6650   */\n      dup2\n        /* \"#utility.yul\":6635:6639   */\n      dup2\n        /* \"#utility.yul\":6631:6651   */\n      sub\n        /* \"#utility.yul\":6627:6628   */\n      0x00\n        /* \"#utility.yul\":6616:6625   */\n      dup4\n        /* \"#utility.yul\":6612:6629   */\n      add\n        /* \"#utility.yul\":6605:6652   */\n      mstore\n        /* \"#utility.yul\":6669:6800   */\n      tag_186\n        /* \"#utility.yul\":6795:6799   */\n      dup2\n        /* \"#utility.yul\":6669:6800   */\n      tag_100\n      jump\t// in\n    tag_186:\n        /* \"#utility.yul\":6661:6800   */\n      swap1\n      pop\n        /* \"#utility.yul\":6388:6807   */\n      swap2\n      swap1\n      pop\n      jump\t// out\n        /* \"#utility.yul\":6813:6993   */\n    tag_101:\n        /* \"#utility.yul\":6861:6938   */\n      0x4e487b7100000000000000000000000000000000000000000000000000000000\n        /* \"#utility.yul\":6858:6859   */\n      0x00\n        /* \"#utility.yul\":6851:6939   */\n      mstore\n        /* \"#utility.yul\":6958:6962   */\n      0x11\n        /* \"#utility.yul\":6955:6956   */\n      0x04\n        /* \"#utility.yul\":6948:6963   */\n      mstore\n        /* \"#utility.yul\":6982:6986   */\n      0x24\n        /* \"#utility.yul\":6979:6980   */\n      0x00\n        /* \"#utility.yul\":6972:6987   */\n      revert\n        /* \"#utility.yul\":6999:7190   */\n    tag_69:\n        /* \"#utility.yul\":7039:7042   */\n      0x00\n        /* \"#utility.yul\":7058:7078   */\n      tag_189\n        /* \"#utility.yul\":7076:7077   */\n      dup3\n        /* \"#utility.yul\":7058:7078   */\n      tag_92\n      jump\t// in\n    tag_189:\n        /* \"#utility.yul\":7053:7078   */\n      swap2\n      pop\n        /* \"#utility.yul\":7092:7112   */\n      tag_190\n        /* \"#utility.yul\":7110:7111   */\n      dup4\n        /* \"#utility.yul\":7092:7112   */\n      tag_92\n      jump\t// in\n    tag_190:\n        /* \"#utility.yul\":7087:7112   */\n      swap3\n      pop\n        /* \"#utility.yul\":7135:7136   */\n      dup3\n        /* \"#utility.yul\":7132:7133   */\n      dup3\n        /* \"#utility.yul\":7128:7137   */\n      add\n        /* \"#utility.yul\":7121:7137   */\n      swap1\n      pop\n        /* \"#utility.yul\":7156:7159   */\n      dup1\n        /* \"#utility.yul\":7153:7154   */\n      dup3\n        /* \"#utility.yul\":7150:7160   */\n      gt\n        /* \"#utility.yul\":7147:7183   */\n      iszero\n      tag_191\n      jumpi\n        /* \"#utility.yul\":7163:7181   */\n      tag_192\n      tag_101\n      jump\t// in\n    tag_192:\n        /* \"#utility.yul\":7147:7183   */\n    tag_191:\n        /* \"#utility.yul\":6999:7190   */\n      swap3\n      swap2\n      pop\n      pop\n      jump\t// out\n        /* \"#utility.yul\":7196:7367   */\n    tag_102:\n        /* \"#utility.yul\":7336:7359   */\n      0x796f7520617265206e6f7420746865206f776e65720000000000000000000000\n        /* \"#utility.yul\":7332:7333   */\n      0x00\n        /* \"#utility.yul\":7324:7330   */\n      dup3\n        /* \"#utility.yul\":7320:7334   */\n      add\n        /* \"#utility.yul\":7313:7360   */\n      mstore\n        /* \"#utility.yul\":7196:7367   */\n      pop\n      jump\t// out\n        /* \"#utility.yul\":7373:7739   */\n    tag_103:\n        /* \"#utility.yul\":7515:7518   */\n      0x00\n        /* \"#utility.yul\":7536:7603   */\n      tag_195\n        /* \"#utility.yul\":7600:7602   */\n      0x15\n        /* \"#utility.yul\":7595:7598   */\n      dup4\n        /* \"#utility.yul\":7536:7603   */\n      tag_87\n      jump\t// in\n    tag_195:\n        /* \"#utility.yul\":7529:7603   */\n      swap2\n      pop\n        /* \"#utility.yul\":7612:7705   */\n      tag_196\n        /* \"#utility.yul\":7701:7704   */\n      dup3\n        /* \"#utility.yul\":7612:7705   */\n      tag_102\n      jump\t// in\n    tag_196:\n        /* \"#utility.yul\":7730:7732   */\n      0x20\n        /* \"#utility.yul\":7725:7728   */\n      dup3\n        /* \"#utility.yul\":7721:7733   */\n      add\n        /* \"#utility.yul\":7714:7733   */\n      swap1\n      pop\n        /* \"#utility.yul\":7373:7739   */\n      swap2\n      swap1\n      pop\n      jump\t// out\n        /* \"#utility.yul\":7745:8164   */\n    tag_73:\n        /* \"#utility.yul\":7911:7915   */\n      0x00\n        /* \"#utility.yul\":7949:7951   */\n      0x20\n        /* \"#utility.yul\":7938:7947   */\n      dup3\n        /* \"#utility.yul\":7934:7952   */\n      add\n        /* \"#utility.yul\":7926:7952   */\n      swap1\n      pop\n        /* \"#utility.yul\":7998:8007   */\n      dup2\n        /* \"#utility.yul\":7992:7996   */\n      dup2\n        /* \"#utility.yul\":7988:8008   */\n      sub\n        /* \"#utility.yul\":7984:7985   */\n      0x00\n        /* \"#utility.yul\":7973:7982   */\n      dup4\n        /* \"#utility.yul\":7969:7986   */\n      add\n        /* \"#utility.yul\":7962:8009   */\n      mstore\n        /* \"#utility.yul\":8026:8157   */\n      tag_198\n        /* \"#utility.yul\":8152:8156   */\n      dup2\n        /* \"#utility.yul\":8026:8157   */\n      tag_103\n      jump\t// in\n    tag_198:\n        /* \"#utility.yul\":8018:8157   */\n      swap1\n      pop\n        /* \"#utility.yul\":7745:8164   */\n      swap2\n      swap1\n      pop\n      jump\t// out\n        /* \"#utility.yul\":8170:8350   */\n    tag_104:\n        /* \"#utility.yul\":8218:8295   */\n      0x4e487b7100000000000000000000000000000000000000000000000000000000\n        /* \"#utility.yul\":8215:8216   */\n      0x00\n        /* \"#utility.yul\":8208:8296   */\n      mstore\n        /* \"#utility.yul\":8315:8319   */\n      0x41\n        /* \"#utility.yul\":8312:8313   */\n      0x04\n        /* \"#utility.yul\":8305:8320   */\n      mstore\n        /* \"#utility.yul\":8339:8343   */\n      0x24\n        /* \"#utility.yul\":8336:8337   */\n      0x00\n        /* \"#utility.yul\":8329:8344   */\n      revert\n        /* \"#utility.yul\":8356:8497   */\n    tag_105:\n        /* \"#utility.yul\":8405:8409   */\n      0x00\n        /* \"#utility.yul\":8428:8431   */\n      dup2\n        /* \"#utility.yul\":8420:8431   */\n      swap1\n      pop\n        /* \"#utility.yul\":8451:8454   */\n      dup2\n        /* \"#utility.yul\":8448:8449   */\n      0x00\n        /* \"#utility.yul\":8441:8455   */\n      mstore\n        /* \"#utility.yul\":8485:8489   */\n      0x20\n        /* \"#utility.yul\":8482:8483   */\n      0x00\n        /* \"#utility.yul\":8472:8490   */\n      keccak256\n        /* \"#utility.yul\":8464:8490   */\n      swap1\n      pop\n        /* \"#utility.yul\":8356:8497   */\n      swap2\n      swap1\n      pop\n      jump\t// out\n        /* \"#utility.yul\":8503:8596   */\n    tag_106:\n        /* \"#utility.yul\":8540:8546   */\n      0x00\n        /* \"#utility.yul\":8587:8589   */\n      0x20\n        /* \"#utility.yul\":8582:8584   */\n      0x1f\n        /* \"#utility.yul\":8575:8580   */\n      dup4\n        /* \"#utility.yul\":8571:8585   */\n      add\n        /* \"#utility.yul\":8567:8590   */\n      div\n        /* \"#utility.yul\":8557:8590   */\n      swap1\n      pop\n        /* \"#utility.yul\":8503:8596   */\n      swap2\n      swap1\n      pop\n      jump\t// out\n        /* \"#utility.yul\":8602:8709   */\n    tag_107:\n        /* \"#utility.yul\":8646:8654   */\n      0x00\n        /* \"#utility.yul\":8696:8701   */\n      dup3\n        /* \"#utility.yul\":8690:8694   */\n      dup3\n        /* \"#utility.yul\":8686:8702   */\n      shl\n        /* \"#utility.yul\":8665:8702   */\n      swap1\n      pop\n        /* \"#utility.yul\":8602:8709   */\n      swap3\n      swap2\n      pop\n      pop\n      jump\t// out\n        /* \"#utility.yul\":8715:9108   */\n    tag_108:\n        /* \"#utility.yul\":8784:8790   */\n      0x00\n        /* \"#utility.yul\":8834:8835   */\n      0x08\n        /* \"#utility.yul\":8822:8832   */\n      dup4\n        /* \"#utility.yul\":8818:8836   */\n      mul\n        /* \"#utility.yul\":8857:8954   */\n      tag_204\n        /* \"#utility.yul\":8887:8953   */\n      0xffffffffffffffffffffffffffffffffffffffffffffffffffffffffffffffff\n        /* \"#utility.yul\":8876:8885   */\n      dup3\n        /* \"#utility.yul\":8857:8954   */\n      tag_107\n      jump\t// in\n    tag_204:\n        /* \"#utility.yul\":8975:9014   */\n      tag_205\n        /* \"#utility.yul\":9005:9013   */\n      dup7\n        /* \"#utility.yul\":8994:9003   */\n      dup4\n        /* \"#utility.yul\":8975:9014   */\n      tag_107\n      jump\t// in\n    tag_205:\n        /* \"#utility.yul\":8963:9014   */\n      swap6\n      pop\n        /* \"#utility.yul\":9047:9051   */\n      dup1\n        /* \"#utility.yul\":9043:9052   */\n      not\n        /* \"#utility.yul\":9036:9041   */\n      dup5\n        /* \"#utility.yul\":9032:9053   */\n      and\n        /* \"#utility.yul\":9023:9053   */\n      swap4\n      pop\n        /* \"#utility.yul\":9096:9100   */\n      dup1\n        /* \"#utility.yul\":9086:9094   */\n      dup7\n        /* \"#utility.yul\":9082:9101   */\n      and\n        /* \"#utility.yul\":9075:9080   */\n      dup5\n        /* \"#utility.yul\":9072:9102   */\n      or\n        /* \"#utility.yul\":9062:9102   */\n      swap3\n      pop\n        /* \"#utility.yul\":8791:9108   */\n      pop\n      pop\n        /* \"#utility.yul\":8715:9108   */\n      swap4\n      swap3\n      pop\n      pop\n      pop\n      jump\t// out\n        /* \"#utility.yul\":9114:9174   */\n    tag_109:\n        /* \"#utility.yul\":9142:9145   */\n      0x00\n        /* \"#utility.yul\":9163:9168   */\n      dup2\n        /* \"#utility.yul\":9156:9168   */\n      swap1\n      pop\n        /* \"#utility.yul\":9114:9174   */\n      swap2\n      swap1\n      pop\n      jump\t// out\n        /* \"#utility.yul\":9180:9322   */\n    tag_110:\n        /* \"#utility.yul\":9230:9239   */\n      0x00\n        /* \"#utility.yul\":9263:9316   */\n      tag_208\n        /* \"#utility.yul\":9281:9315   */\n      tag_209\n        /* \"#utility.yul\":9290:9314   */\n      tag_210\n        /* \"#utility.yul\":9308:9313   */\n      dup5\n        /* \"#utility.yul\":9290:9314   */\n      tag_92\n      jump\t// in\n    tag_210:\n        /* \"#utility.yul\":9281:9315   */\n      tag_109\n      jump\t// in\n    tag_209:\n        /* \"#utility.yul\":9263:9316   */\n      tag_92\n      jump\t// in\n    tag_208:\n        /* \"#utility.yul\":9250:9316   */\n      swap1\n      pop\n        /* \"#utility.yul\":9180:9322   */\n      swap2\n      swap1\n      pop\n      jump\t// out\n        /* \"#utility.yul\":9328:9403   */\n    tag_111:\n        /* \"#utility.yul\":9371:9374   */\n      0x00\n        /* \"#utility.yul\":9392:9397   */\n      dup2\n        /* \"#utility.yul\":9385:9397   */\n      swap1\n      pop\n        /* \"#utility.yul\":9328:9403   */\n      swap2\n      swap1\n      pop\n      jump\t// out\n        /* \"#utility.yul\":9409:9678   */\n    tag_112:\n        /* \"#utility.yul\":9519:9558   */\n      tag_213\n        /* \"#utility.yul\":9550:9557   */\n      dup4\n        /* \"#utility.yul\":9519:9558   */\n      tag_110\n      jump\t// in\n    tag_213:\n        /* \"#utility.yul\":9580:9671   */\n      tag_214\n        /* \"#utility.yul\":9629:9670   */\n      tag_215\n        /* \"#utility.yul\":9653:9669   */\n      dup3\n        /* \"#utility.yul\":9629:9670   */\n      tag_111\n      jump\t// in\n    tag_215:\n        /* \"#utility.yul\":9621:9627   */\n      dup5\n        /* \"#utility.yul\":9614:9618   */\n      dup5\n        /* \"#utility.yul\":9608:9619   */\n      sload\n        /* \"#utility.yul\":9580:9671   */\n      tag_108\n      jump\t// in\n    tag_214:\n        /* \"#utility.yul\":9574:9578   */\n      dup3\n        /* \"#utility.yul\":9567:9672   */\n      sstore\n        /* \"#utility.yul\":9485:9678   */\n      pop\n        /* \"#utility.yul\":9409:9678   */\n      pop\n      pop\n      pop\n      jump\t// out\n        /* \"#utility.yul\":9684:9757   */\n    tag_113:\n        /* \"#utility.yul\":9729:9732   */\n      0x00\n        /* \"#utility.yul\":9750:9751   */\n      0x00\n        /* \"#utility.yul\":9743:9751   */\n      swap1\n      pop\n        /* \"#utility.yul\":9684:9757   */\n      swap1\n      jump\t// out\n        /* \"#utility.yul\":9763:9952   */\n    tag_114:\n        /* \"#utility.yul\":9840:9872   */\n      tag_218\n      tag_113\n      jump\t// in\n    tag_218:\n        /* \"#utility.yul\":9881:9946   */\n      tag_219\n        /* \"#utility.yul\":9939:9945   */\n      dup2\n        /* \"#utility.yul\":9931:9937   */\n      dup5\n        /* \"#utility.yul\":9925:9929   */\n      dup5\n        /* \"#utility.yul\":9881:9946   */\n      tag_112\n      jump\t// in\n    tag_219:\n        /* \"#utility.yul\":9816:9952   */\n      pop\n        /* \"#utility.yul\":9763:9952   */\n      pop\n      pop\n      jump\t// out\n        /* \"#utility.yul\":9958:10144   */\n    tag_115:\n        /* \"#utility.yul\":10018:10138   */\n    tag_221:\n        /* \"#utility.yul\":10035:10038   */\n      dup2\n        /* \"#utility.yul\":10028:10033   */\n      dup2\n        /* \"#utility.yul\":10025:10039   */\n      lt\n        /* \"#utility.yul\":10018:10138   */\n      iszero\n      tag_223\n      jumpi\n        /* \"#utility.yul\":10089:10128   */\n      tag_224\n        /* \"#utility.yul\":10126:10127   */\n      0x00\n        /* \"#utility.yul\":10119:10124   */\n      dup3\n        /* \"#utility.yul\":10089:10128   */\n      tag_114\n      jump\t// in\n    tag_224:\n        /* \"#utility.yul\":10062:10063   */\n      0x01\n        /* \"#utility.yul\":10055:10060   */\n      dup2\n        /* \"#utility.yul\":10051:10064   */\n      add\n        /* \"#utility.yul\":10042:10064   */\n      swap1\n      pop\n        /* \"#utility.yul\":10018:10138   */\n      jump(tag_221)\n    tag_223:\n        /* \"#utility.yul\":9958:10144   */\n      pop\n      pop\n      jump\t// out\n        /* \"#utility.yul\":10150:10693   */\n    tag_116:\n        /* \"#utility.yul\":10251:10253   */\n      0x1f\n        /* \"#utility.yul\":10246:10249   */\n      dup3\n        /* \"#utility.yul\":10243:10254   */\n      gt\n        /* \"#utility.yul\":10240:10686   */\n      iszero\n      tag_226\n      jumpi\n        /* \"#utility.yul\":10285:10323   */\n      tag_227\n        /* \"#utility.yul\":10317:10322   */\n      dup2\n        /* \"#utility.yul\":10285:10323   */\n      tag_105\n      jump\t// in\n    tag_227:\n        /* \"#utility.yul\":10369:10398   */\n      tag_228\n        /* \"#utility.yul\":10387:10397   */\n      dup5\n        /* \"#utility.yul\":10369:10398   */\n      tag_106\n      jump\t// in\n    tag_228:\n        /* \"#utility.yul\":10359:10367   */\n      dup2\n        /* \"#utility.yul\":10355:10399   */\n      add\n        /* \"#utility.yul\":10552:10554   */\n      0x20\n        /* \"#utility.yul\":10540:10550   */\n      dup6\n        /* \"#utility.yul\":10537:10555   */\n      lt\n        /* \"#utility.yul\":10534:10583   */\n      iszero\n      tag_229\n      jumpi\n        /* \"#utility.yul\":10573:10581   */\n      dup2\n        /* \"#utility.yul\":10558:10581   */\n      swap1\n      pop\n        /* \"#utility.yul\":10534:10583   */\n    tag_229:\n        /* \"#utility.yul\":10596:10676   */\n      tag_230\n        /* \"#utility.yul\":10652:10674   */\n      tag_231\n        /* \"#utility.yul\":10670:10673   */\n      dup6\n        /* \"#utility.yul\":10652:10674   */\n      tag_106\n      jump\t// in\n    tag_231:\n        /* \"#utility.yul\":10642:10650   */\n      dup4\n        /* \"#utility.yul\":10638:10675   */\n      add\n        /* \"#utility.yul\":10625:10636   */\n      dup3\n        /* \"#utility.yul\":10596:10676   */\n      tag_115\n      jump\t// in\n    tag_230:\n        /* \"#utility.yul\":10255:10686   */\n      pop\n      pop\n        /* \"#utility.yul\":10240:10686   */\n    tag_226:\n        /* \"#utility.yul\":10150:10693   */\n      pop\n      pop\n      pop\n      jump\t// out\n        /* \"#utility.yul\":10699:10816   */\n    tag_117:\n        /* \"#utility.yul\":10753:10761   */\n      0x00\n        /* \"#utility.yul\":10803:10808   */\n      dup3\n        /* \"#utility.yul\":10797:10801   */\n      dup3\n        /* \"#utility.yul\":10793:10809   */\n      shr\n        /* \"#utility.yul\":10772:10809   */\n      swap1\n      pop\n        /* \"#utility.yul\":10699:10816   */\n      swap3\n      swap2\n      pop\n      pop\n      jump\t// out\n        /* \"#utility.yul\":10822:10991   */\n    tag_118:\n        /* \"#utility.yul\":10866:10872   */\n      0x00\n        /* \"#utility.yul\":10899:10950   */\n      tag_234\n        /* \"#utility.yul\":10947:10948   */\n      0x00\n        /* \"#utility.yul\":10943:10949   */\n      not\n        /* \"#utility.yul\":10935:10940   */\n      dup5\n        /* \"#utility.yul\":10932:10933   */\n      0x08\n        /* \"#utility.yul\":10928:10941   */\n      mul\n        /* \"#utility.yul\":10899:10950   */\n      tag_117\n      jump\t// in\n    tag_234:\n        /* \"#utility.yul\":10895:10951   */\n      not\n        /* \"#utility.yul\":10980:10984   */\n      dup1\n        /* \"#utility.yul\":10974:10978   */\n      dup4\n        /* \"#utility.yul\":10970:10985   */\n      and\n        /* \"#utility.yul\":10960:10985   */\n      swap2\n      pop\n        /* \"#utility.yul\":10873:10991   */\n      pop\n        /* \"#utility.yul\":10822:10991   */\n      swap3\n      swap2\n      pop\n      pop\n      jump\t// out\n        /* \"#utility.yul\":10996:11291   */\n    tag_119:\n        /* \"#utility.yul\":11072:11076   */\n      0x00\n        /* \"#utility.yul\":11218:11247   */\n      tag_236\n        /* \"#utility.yul\":11243:11246   */\n      dup4\n        /* \"#utility.yul\":11237:11241   */\n      dup4\n        /* \"#utility.yul\":11218:11247   */\n      tag_118\n      jump\t// in\n    tag_236:\n        /* \"#utility.yul\":11210:11247   */\n      swap2\n      pop\n        /* \"#utility.yul\":11280:11283   */\n      dup3\n        /* \"#utility.yul\":11277:11278   */\n      0x02\n        /* \"#utility.yul\":11273:11284   */\n      mul\n        /* \"#utility.yul\":11267:11271   */\n      dup3\n        /* \"#utility.yul\":11264:11285   */\n      or\n        /* \"#utility.yul\":11256:11285   */\n      swap1\n      pop\n        /* \"#utility.yul\":10996:11291   */\n      swap3\n      swap2\n      pop\n      pop\n      jump\t// out\n        /* \"#utility.yul\":11296:12691   */\n    tag_78:\n        /* \"#utility.yul\":11413:11450   */\n      tag_238\n        /* \"#utility.yul\":11446:11449   */\n      dup3\n        /* \"#utility.yul\":11413:11450   */\n      tag_86\n      jump\t// in\n    tag_238:\n        /* \"#utility.yul\":11515:11533   */\n      0xffffffffffffffff\n        /* \"#utility.yul\":11507:11513   */\n      dup2\n        /* \"#utility.yul\":11504:11534   */\n      gt\n        /* \"#utility.yul\":11501:11557   */\n      iszero\n      tag_239\n      jumpi\n        /* \"#utility.yul\":11537:11555   */\n      tag_240\n      tag_104\n      jump\t// in\n    tag_240:\n        /* \"#utility.yul\":11501:11557   */\n    tag_239:\n        /* \"#utility.yul\":11581:11619   */\n      tag_241\n        /* \"#utility.yul\":11613:11617   */\n      dup3\n        /* \"#utility.yul\":11607:11618   */\n      sload\n        /* \"#utility.yul\":11581:11619   */\n      tag_48\n      jump\t// in\n    tag_241:\n        /* \"#utility.yul\":11666:11733   */\n      tag_242\n        /* \"#utility.yul\":11726:11732   */\n      dup3\n        /* \"#utility.yul\":11718:11724   */\n      dup3\n        /* \"#utility.yul\":11712:11716   */\n      dup6\n        /* \"#utility.yul\":11666:11733   */\n      tag_116\n      jump\t// in\n    tag_242:\n        /* \"#utility.yul\":11760:11761   */\n      0x00\n        /* \"#utility.yul\":11784:11788   */\n      0x20\n        /* \"#utility.yul\":11771:11788   */\n      swap1\n      pop\n        /* \"#utility.yul\":11816:11818   */\n      0x1f\n        /* \"#utility.yul\":11808:11814   */\n      dup4\n        /* \"#utility.yul\":11805:11819   */\n      gt\n        /* \"#utility.yul\":11833:11834   */\n      0x01\n        /* \"#utility.yul\":11828:12446   */\n      dup2\n      eq\n      tag_244\n      jumpi\n        /* \"#utility.yul\":12490:12491   */\n      0x00\n        /* \"#utility.yul\":12507:12513   */\n      dup5\n        /* \"#utility.yul\":12504:12581   */\n      iszero\n      tag_245\n      jumpi\n        /* \"#utility.yul\":12556:12565   */\n      dup3\n        /* \"#utility.yul\":12551:12554   */\n      dup8\n        /* \"#utility.yul\":12547:12566   */\n      add\n        /* \"#utility.yul\":12541:12567   */\n      mload\n        /* \"#utility.yul\":12532:12567   */\n      swap1\n      pop\n        /* \"#utility.yul\":12504:12581   */\n    tag_245:\n        /* \"#utility.yul\":12607:12674   */\n      tag_246\n        /* \"#utility.yul\":12667:12673   */\n      dup6\n        /* \"#utility.yul\":12660:12665   */\n      dup3\n        /* \"#utility.yul\":12607:12674   */\n      tag_119\n      jump\t// in\n    tag_246:\n        /* \"#utility.yul\":12601:12605   */\n      dup7\n        /* \"#utility.yul\":12594:12675   */\n      sstore\n        /* \"#utility.yul\":12463:12685   */\n      pop\n        /* \"#utility.yul\":11798:12685   */\n      jump(tag_243)\n        /* \"#utility.yul\":11828:12446   */\n    tag_244:\n        /* \"#utility.yul\":11880:11884   */\n      0x1f\n        /* \"#utility.yul\":11876:11885   */\n      not\n        /* \"#utility.yul\":11868:11874   */\n      dup5\n        /* \"#utility.yul\":11864:11886   */\n      and\n        /* \"#utility.yul\":11914:11951   */\n      tag_247\n        /* \"#utility.yul\":11946:11950   */\n      dup7\n        /* \"#utility.yul\":11914:11951   */\n      tag_105\n      jump\t// in\n    tag_247:\n        /* \"#utility.yul\":11973:11974   */\n      0x00\n        /* \"#utility.yul\":11987:12195   */\n    tag_248:\n        /* \"#utility.yul\":12001:12008   */\n      dup3\n        /* \"#utility.yul\":11998:11999   */\n      dup2\n        /* \"#utility.yul\":11995:12009   */\n      lt\n        /* \"#utility.yul\":11987:12195   */\n      iszero\n      tag_250\n      jumpi\n        /* \"#utility.yul\":12080:12089   */\n      dup5\n        /* \"#utility.yul\":12075:12078   */\n      dup10\n        /* \"#utility.yul\":12071:12090   */\n      add\n        /* \"#utility.yul\":12065:12091   */\n      mload\n        /* \"#utility.yul\":12057:12063   */\n      dup3\n        /* \"#utility.yul\":12050:12092   */\n      sstore\n        /* \"#utility.yul\":12131:12132   */\n      0x01\n        /* \"#utility.yul\":12123:12129   */\n      dup3\n        /* \"#utility.yul\":12119:12133   */\n      add\n        /* \"#utility.yul\":12109:12133   */\n      swap2\n      pop\n        /* \"#utility.yul\":12178:12180   */\n      0x20\n        /* \"#utility.yul\":12167:12176   */\n      dup6\n        /* \"#utility.yul\":12163:12181   */\n      add\n        /* \"#utility.yul\":12150:12181   */\n      swap5\n      pop\n        /* \"#utility.yul\":12024:12028   */\n      0x20\n        /* \"#utility.yul\":12021:12022   */\n      dup2\n        /* \"#utility.yul\":12017:12029   */\n      add\n        /* \"#utility.yul\":12012:12029   */\n      swap1\n      pop\n        /* \"#utility.yul\":11987:12195   */\n      jump(tag_248)\n    tag_250:\n        /* \"#utility.yul\":12223:12229   */\n      dup7\n        /* \"#utility.yul\":12214:12221   */\n      dup4\n        /* \"#utility.yul\":12211:12230   */\n      lt\n        /* \"#utility.yul\":12208:12387   */\n      iszero\n      tag_251\n      jumpi\n        /* \"#utility.yul\":12281:12290   */\n      dup5\n        /* \"#utility.yul\":12276:12279   */\n      dup10\n        /* \"#utility.yul\":12272:12291   */\n      add\n        /* \"#utility.yul\":12266:12292   */\n      mload\n        /* \"#utility.yul\":12324:12372   */\n      tag_252\n        /* \"#utility.yul\":12366:12370   */\n      0x1f\n        /* \"#utility.yul\":12358:12364   */\n      dup10\n        /* \"#utility.yul\":12354:12371   */\n      and\n        /* \"#utility.yul\":12343:12352   */\n      dup3\n        /* \"#utility.yul\":12324:12372   */\n      tag_118\n      jump\t// in\n    tag_252:\n        /* \"#utility.yul\":12316:12322   */\n      dup4\n        /* \"#utility.yul\":12309:12373   */\n      sstore\n        /* \"#utility.yul\":12231:12387   */\n      pop\n        /* \"#utility.yul\":12208:12387   */\n    tag_251:\n        /* \"#utility.yul\":12433:12434   */\n      0x01\n        /* \"#utility.yul\":12429:12430   */\n      0x02\n        /* \"#utility.yul\":12421:12427   */\n      dup9\n        /* \"#utility.yul\":12417:12431   */\n      mul\n        /* \"#utility.yul\":12413:12435   */\n      add\n        /* \"#utility.yul\":12407:12411   */\n      dup9\n        /* \"#utility.yul\":12400:12436   */\n      sstore\n        /* \"#utility.yul\":11835:12446   */\n      pop\n      pop\n      pop\n        /* \"#utility.yul\":11798:12685   */\n    tag_243:\n      pop\n        /* \"#utility.yul\":11388:12691   */\n      pop\n      pop\n      pop\n        /* \"#utility.yul\":11296:12691   */\n      pop\n      pop\n      jump\t// out\n    stop\n    data_055a0057ade679fc070ac4edde7dfd4160d7c8ff4cedfe7ebd42ad08e6c04999 4e6f20736869706d656e7420696e6974696174656420666f7220746869732061646472657373\n\n    auxdata: 0xa2646970667358221220819930893643094222aeb2b6a19aa9174a56961d0ac9e8db114ec506a22e4c2f64736f6c634300081c0033\n}\n",
				"bytecode": {
					"linkReferences": {},
					"object": "6080604052348015600e575f5ffd5b50335f5f6101000a81548173ffffffffffffffffffffffffffffffffffffffff021916908373ffffffffffffffffffffffffffffffffffffffff160217905550610dd48061005b5f395ff3fe608060405234801561000f575f5ffd5b5060043610610091575f3560e01c806387e1ad461161006457806387e1ad46146101315780638da5cb5b1461014f578063a0afc42e1461016d578063e40ebc1914610177578063ef18e9ed1461019357610091565b80630519dc691461009557806306637876146100c5578063340190ec146100e35780636e32c3e014610113575b5f5ffd5b6100af60048036038101906100aa919061071a565b6101af565b6040516100bc91906107b5565b60405180910390f35b6100cd61024a565b6040516100da91906107e4565b60405180910390f35b6100fd60048036038101906100f8919061071a565b61026f565b60405161010a91906107b5565b60405180910390f35b61011b6103d9565b6040516101289190610815565b60405180910390f35b6101396103df565b6040516101469190610815565b60405180910390f35b6101576103e8565b60405161016491906107e4565b60405180910390f35b61017561040c565b005b610191600480360381019061018c9190610858565b6104b5565b005b6101ad60048036038101906101a89190610896565b610596565b005b6004602052805f5260405f205f9150905080546101cb906108ee565b80601f01602080910402602001604051908101604052809291908181526020018280546101f7906108ee565b80156102425780601f1061021957610100808354040283529160200191610242565b820191905f5260205f20905b81548152906001019060200180831161022557829003601f168201915b505050505081565b60015f9054906101000a900473ffffffffffffffffffffffffffffffffffffffff1681565b60608173ffffffffffffffffffffffffffffffffffffffff163373ffffffffffffffffffffffffffffffffffffffff16146102df576040517f08c379a00000000000000000000000000000000000000000000000000000000081526004016102d690610968565b60405180910390fd5b5f60045f8473ffffffffffffffffffffffffffffffffffffffff1673ffffffffffffffffffffffffffffffffffffffff1681526020019081526020015f208054610328906108ee565b80601f0160208091040260200160405190810160405280929190818152602001828054610354906108ee565b801561039f5780601f106103765761010080835404028352916020019161039f565b820191905f5260205f20905b81548152906001019060200180831161038257829003601f168201915b505050505090505f8151036103cf57604051806060016040528060268152602001610d79602691399150506103d4565b809150505b919050565b60025481565b5f600254905090565b5f5f9054906101000a900473ffffffffffffffffffffffffffffffffffffffff1681565b5f5f9054906101000a900473ffffffffffffffffffffffffffffffffffffffff1673ffffffffffffffffffffffffffffffffffffffff163373ffffffffffffffffffffffffffffffffffffffff161461049a576040517f08c379a0000000000000000000000000000000000000000000000000000000008152600401610491906109f6565b60405180910390fd5b600160025f8282546104ac9190610a41565b92505081905550565b5f5f9054906101000a900473ffffffffffffffffffffffffffffffffffffffff1673ffffffffffffffffffffffffffffffffffffffff163373ffffffffffffffffffffffffffffffffffffffff1614610543576040517f08c379a000000000000000000000000000000000000000000000000000000000815260040161053a90610abe565b60405180910390fd5b8160035f8381526020019081526020015f205f6101000a81548173ffffffffffffffffffffffffffffffffffffffff021916908373ffffffffffffffffffffffffffffffffffffffff1602179055505050565b5f60035f8381526020019081526020015f205f9054906101000a900473ffffffffffffffffffffffffffffffffffffffff1690508073ffffffffffffffffffffffffffffffffffffffff163373ffffffffffffffffffffffffffffffffffffffff1614610638576040517f08c379a000000000000000000000000000000000000000000000000000000000815260040161062f90610968565b60405180910390fd5b6040518060400160405280600881526020017f416363657074656400000000000000000000000000000000000000000000000081525060045f8373ffffffffffffffffffffffffffffffffffffffff1673ffffffffffffffffffffffffffffffffffffffff1681526020019081526020015f2090816106b79190610ca9565b505050565b5f5ffd5b5f73ffffffffffffffffffffffffffffffffffffffff82169050919050565b5f6106e9826106c0565b9050919050565b6106f9816106df565b8114610703575f5ffd5b50565b5f81359050610714816106f0565b92915050565b5f6020828403121561072f5761072e6106bc565b5b5f61073c84828501610706565b91505092915050565b5f81519050919050565b5f82825260208201905092915050565b8281835e5f83830152505050565b5f601f19601f8301169050919050565b5f61078782610745565b610791818561074f565b93506107a181856020860161075f565b6107aa8161076d565b840191505092915050565b5f6020820190508181035f8301526107cd818461077d565b905092915050565b6107de816106df565b82525050565b5f6020820190506107f75f8301846107d5565b92915050565b5f819050919050565b61080f816107fd565b82525050565b5f6020820190506108285f830184610806565b92915050565b610837816107fd565b8114610841575f5ffd5b50565b5f813590506108528161082e565b92915050565b5f5f6040838503121561086e5761086d6106bc565b5b5f61087b85828601610706565b925050602061088c85828601610844565b9150509250929050565b5f602082840312156108ab576108aa6106bc565b5b5f6108b884828501610844565b91505092915050565b7f4e487b71000000000000000000000000000000000000000000000000000000005f52602260045260245ffd5b5f600282049050600182168061090557607f821691505b602082108103610918576109176108c1565b5b50919050565b7f796f7520617265206e6f7420746865206f72646572656420637573746f6d65725f82015250565b5f61095260208361074f565b915061095d8261091e565b602082019050919050565b5f6020820190508181035f83015261097f81610946565b9050919050565b7f4f6e6c7920746865206f776e65722063616e20636f6d706c65746520746865205f8201527f64656c6976657279000000000000000000000000000000000000000000000000602082015250565b5f6109e060288361074f565b91506109eb82610986565b604082019050919050565b5f6020820190508181035f830152610a0d816109d4565b9050919050565b7f4e487b71000000000000000000000000000000000000000000000000000000005f52601160045260245ffd5b5f610a4b826107fd565b9150610a56836107fd565b9250828201905080821115610a6e57610a6d610a14565b5b92915050565b7f796f7520617265206e6f7420746865206f776e657200000000000000000000005f82015250565b5f610aa860158361074f565b9150610ab382610a74565b602082019050919050565b5f6020820190508181035f830152610ad581610a9c565b9050919050565b7f4e487b71000000000000000000000000000000000000000000000000000000005f52604160045260245ffd5b5f819050815f5260205f209050919050565b5f6020601f8301049050919050565b5f82821b905092915050565b5f60088302610b657fffffffffffffffffffffffffffffffffffffffffffffffffffffffffffffffff82610b2a565b610b6f8683610b2a565b95508019841693508086168417925050509392505050565b5f819050919050565b5f610baa610ba5610ba0846107fd565b610b87565b6107fd565b9050919050565b5f819050919050565b610bc383610b90565b610bd7610bcf82610bb1565b848454610b36565b825550505050565b5f5f905090565b610bee610bdf565b610bf9818484610bba565b505050565b5b81811015610c1c57610c115f82610be6565b600181019050610bff565b5050565b601f821115610c6157610c3281610b09565b610c3b84610b1b565b81016020851015610c4a578190505b610c5e610c5685610b1b565b830182610bfe565b50505b505050565b5f82821c905092915050565b5f610c815f1984600802610c66565b1980831691505092915050565b5f610c998383610c72565b9150826002028217905092915050565b610cb282610745565b67ffffffffffffffff811115610ccb57610cca610adc565b5b610cd582546108ee565b610ce0828285610c20565b5f60209050601f831160018114610d11575f8415610cff578287015190505b610d098582610c8e565b865550610d70565b601f198416610d1f86610b09565b5f5b82811015610d4657848901518255600182019150602085019450602081019050610d21565b86831015610d635784890151610d5f601f891682610c72565b8355505b6001600288020188555050505b50505050505056fe4e6f20736869706d656e7420696e6974696174656420666f7220746869732061646472657373a2646970667358221220819930893643094222aeb2b6a19aa9174a56961d0ac9e8db114ec506a22e4c2f64736f6c634300081c0033",
					"opcodes": "PUSH1 0x80 PUSH1 0x40 MSTORE CALLVALUE DUP1 ISZERO PUSH1 0xE JUMPI PUSH0 PUSH0 REVERT JUMPDEST POP CALLER PUSH0 PUSH0 PUSH2 0x100 EXP DUP2 SLOAD DUP2 PUSH20 0xFFFFFFFFFFFFFFFFFFFFFFFFFFFFFFFFFFFFFFFF MUL NOT AND SWAP1 DUP4 PUSH20 0xFFFFFFFFFFFFFFFFFFFFFFFFFFFFFFFFFFFFFFFF AND MUL OR SWAP1 SSTORE POP PUSH2 0xDD4 DUP1 PUSH2 0x5B PUSH0 CODECOPY PUSH0 RETURN INVALID PUSH1 0x80 PUSH1 0x40 MSTORE CALLVALUE DUP1 ISZERO PUSH2 0xF JUMPI PUSH0 PUSH0 REVERT JUMPDEST POP PUSH1 0x4 CALLDATASIZE LT PUSH2 0x91 JUMPI PUSH0 CALLDATALOAD PUSH1 0xE0 SHR DUP1 PUSH4 0x87E1AD46 GT PUSH2 0x64 JUMPI DUP1 PUSH4 0x87E1AD46 EQ PUSH2 0x131 JUMPI DUP1 PUSH4 0x8DA5CB5B EQ PUSH2 0x14F JUMPI DUP1 PUSH4 0xA0AFC42E EQ PUSH2 0x16D JUMPI DUP1 PUSH4 0xE40EBC19 EQ PUSH2 0x177 JUMPI DUP1 PUSH4 0xEF18E9ED EQ PUSH2 0x193 JUMPI PUSH2 0x91 JUMP JUMPDEST DUP1 PUSH4 0x519DC69 EQ PUSH2 0x95 JUMPI DUP1 PUSH4 0x6637876 EQ PUSH2 0xC5 JUMPI DUP1 PUSH4 0x340190EC EQ PUSH2 0xE3 JUMPI DUP1 PUSH4 0x6E32C3E0 EQ PUSH2 0x113 JUMPI JUMPDEST PUSH0 PUSH0 REVERT JUMPDEST PUSH2 0xAF PUSH1 0x4 DUP1 CALLDATASIZE SUB DUP2 ADD SWAP1 PUSH2 0xAA SWAP2 SWAP1 PUSH2 0x71A JUMP JUMPDEST PUSH2 0x1AF JUMP JUMPDEST PUSH1 0x40 MLOAD PUSH2 0xBC SWAP2 SWAP1 PUSH2 0x7B5 JUMP JUMPDEST PUSH1 0x40 MLOAD DUP1 SWAP2 SUB SWAP1 RETURN JUMPDEST PUSH2 0xCD PUSH2 0x24A JUMP JUMPDEST PUSH1 0x40 MLOAD PUSH2 0xDA SWAP2 SWAP1 PUSH2 0x7E4 JUMP JUMPDEST PUSH1 0x40 MLOAD DUP1 SWAP2 SUB SWAP1 RETURN JUMPDEST PUSH2 0xFD PUSH1 0x4 DUP1 CALLDATASIZE SUB DUP2 ADD SWAP1 PUSH2 0xF8 SWAP2 SWAP1 PUSH2 0x71A JUMP JUMPDEST PUSH2 0x26F JUMP JUMPDEST PUSH1 0x40 MLOAD PUSH2 0x10A SWAP2 SWAP1 PUSH2 0x7B5 JUMP JUMPDEST PUSH1 0x40 MLOAD DUP1 SWAP2 SUB SWAP1 RETURN JUMPDEST PUSH2 0x11B PUSH2 0x3D9 JUMP JUMPDEST PUSH1 0x40 MLOAD PUSH2 0x128 SWAP2 SWAP1 PUSH2 0x815 JUMP JUMPDEST PUSH1 0x40 MLOAD DUP1 SWAP2 SUB SWAP1 RETURN JUMPDEST PUSH2 0x139 PUSH2 0x3DF JUMP JUMPDEST PUSH1 0x40 MLOAD PUSH2 0x146 SWAP2 SWAP1 PUSH2 0x815 JUMP JUMPDEST PUSH1 0x40 MLOAD DUP1 SWAP2 SUB SWAP1 RETURN JUMPDEST PUSH2 0x157 PUSH2 0x3E8 JUMP JUMPDEST PUSH1 0x40 MLOAD PUSH2 0x164 SWAP2 SWAP1 PUSH2 0x7E4 JUMP JUMPDEST PUSH1 0x40 MLOAD DUP1 SWAP2 SUB SWAP1 RETURN JUMPDEST PUSH2 0x175 PUSH2 0x40C JUMP JUMPDEST STOP JUMPDEST PUSH2 0x191 PUSH1 0x4 DUP1 CALLDATASIZE SUB DUP2 ADD SWAP1 PUSH2 0x18C SWAP2 SWAP1 PUSH2 0x858 JUMP JUMPDEST PUSH2 0x4B5 JUMP JUMPDEST STOP JUMPDEST PUSH2 0x1AD PUSH1 0x4 DUP1 CALLDATASIZE SUB DUP2 ADD SWAP1 PUSH2 0x1A8 SWAP2 SWAP1 PUSH2 0x896 JUMP JUMPDEST PUSH2 0x596 JUMP JUMPDEST STOP JUMPDEST PUSH1 0x4 PUSH1 0x20 MSTORE DUP1 PUSH0 MSTORE PUSH1 0x40 PUSH0 KECCAK256 PUSH0 SWAP2 POP SWAP1 POP DUP1 SLOAD PUSH2 0x1CB SWAP1 PUSH2 0x8EE JUMP JUMPDEST DUP1 PUSH1 0x1F ADD PUSH1 0x20 DUP1 SWAP2 DIV MUL PUSH1 0x20 ADD PUSH1 0x40 MLOAD SWAP1 DUP2 ADD PUSH1 0x40 MSTORE DUP1 SWAP3 SWAP2 SWAP1 DUP2 DUP2 MSTORE PUSH1 0x20 ADD DUP3 DUP1 SLOAD PUSH2 0x1F7 SWAP1 PUSH2 0x8EE JUMP JUMPDEST DUP1 ISZERO PUSH2 0x242 JUMPI DUP1 PUSH1 0x1F LT PUSH2 0x219 JUMPI PUSH2 0x100 DUP1 DUP4 SLOAD DIV MUL DUP4 MSTORE SWAP2 PUSH1 0x20 ADD SWAP2 PUSH2 0x242 JUMP JUMPDEST DUP3 ADD SWAP2 SWAP1 PUSH0 MSTORE PUSH1 0x20 PUSH0 KECCAK256 SWAP1 JUMPDEST DUP2 SLOAD DUP2 MSTORE SWAP1 PUSH1 0x1 ADD SWAP1 PUSH1 0x20 ADD DUP1 DUP4 GT PUSH2 0x225 JUMPI DUP3 SWAP1 SUB PUSH1 0x1F AND DUP3 ADD SWAP2 JUMPDEST POP POP POP POP POP DUP2 JUMP JUMPDEST PUSH1 0x1 PUSH0 SWAP1 SLOAD SWAP1 PUSH2 0x100 EXP SWAP1 DIV PUSH20 0xFFFFFFFFFFFFFFFFFFFFFFFFFFFFFFFFFFFFFFFF AND DUP2 JUMP JUMPDEST PUSH1 0x60 DUP2 PUSH20 0xFFFFFFFFFFFFFFFFFFFFFFFFFFFFFFFFFFFFFFFF AND CALLER PUSH20 0xFFFFFFFFFFFFFFFFFFFFFFFFFFFFFFFFFFFFFFFF AND EQ PUSH2 0x2DF JUMPI PUSH1 0x40 MLOAD PUSH32 0x8C379A000000000000000000000000000000000000000000000000000000000 DUP2 MSTORE PUSH1 0x4 ADD PUSH2 0x2D6 SWAP1 PUSH2 0x968 JUMP JUMPDEST PUSH1 0x40 MLOAD DUP1 SWAP2 SUB SWAP1 REVERT JUMPDEST PUSH0 PUSH1 0x4 PUSH0 DUP5 PUSH20 0xFFFFFFFFFFFFFFFFFFFFFFFFFFFFFFFFFFFFFFFF AND PUSH20 0xFFFFFFFFFFFFFFFFFFFFFFFFFFFFFFFFFFFFFFFF AND DUP2 MSTORE PUSH1 0x20 ADD SWAP1 DUP2 MSTORE PUSH1 0x20 ADD PUSH0 KECCAK256 DUP1 SLOAD PUSH2 0x328 SWAP1 PUSH2 0x8EE JUMP JUMPDEST DUP1 PUSH1 0x1F ADD PUSH1 0x20 DUP1 SWAP2 DIV MUL PUSH1 0x20 ADD PUSH1 0x40 MLOAD SWAP1 DUP2 ADD PUSH1 0x40 MSTORE DUP1 SWAP3 SWAP2 SWAP1 DUP2 DUP2 MSTORE PUSH1 0x20 ADD DUP3 DUP1 SLOAD PUSH2 0x354 SWAP1 PUSH2 0x8EE JUMP JUMPDEST DUP1 ISZERO PUSH2 0x39F JUMPI DUP1 PUSH1 0x1F LT PUSH2 0x376 JUMPI PUSH2 0x100 DUP1 DUP4 SLOAD DIV MUL DUP4 MSTORE SWAP2 PUSH1 0x20 ADD SWAP2 PUSH2 0x39F JUMP JUMPDEST DUP3 ADD SWAP2 SWAP1 PUSH0 MSTORE PUSH1 0x20 PUSH0 KECCAK256 SWAP1 JUMPDEST DUP2 SLOAD DUP2 MSTORE SWAP1 PUSH1 0x1 ADD SWAP1 PUSH1 0x20 ADD DUP1 DUP4 GT PUSH2 0x382 JUMPI DUP3 SWAP1 SUB PUSH1 0x1F AND DUP3 ADD SWAP2 JUMPDEST POP POP POP POP POP SWAP1 POP PUSH0 DUP2 MLOAD SUB PUSH2 0x3CF JUMPI PUSH1 0x40 MLOAD DUP1 PUSH1 0x60 ADD PUSH1 0x40 MSTORE DUP1 PUSH1 0x26 DUP2 MSTORE PUSH1 0x20 ADD PUSH2 0xD79 PUSH1 0x26 SWAP2 CODECOPY SWAP2 POP POP PUSH2 0x3D4 JUMP JUMPDEST DUP1 SWAP2 POP POP JUMPDEST SWAP2 SWAP1 POP JUMP JUMPDEST PUSH1 0x2 SLOAD DUP2 JUMP JUMPDEST PUSH0 PUSH1 0x2 SLOAD SWAP1 POP SWAP1 JUMP JUMPDEST PUSH0 PUSH0 SWAP1 SLOAD SWAP1 PUSH2 0x100 EXP SWAP1 DIV PUSH20 0xFFFFFFFFFFFFFFFFFFFFFFFFFFFFFFFFFFFFFFFF AND DUP2 JUMP JUMPDEST PUSH0 PUSH0 SWAP1 SLOAD SWAP1 PUSH2 0x100 EXP SWAP1 DIV PUSH20 0xFFFFFFFFFFFFFFFFFFFFFFFFFFFFFFFFFFFFFFFF AND PUSH20 0xFFFFFFFFFFFFFFFFFFFFFFFFFFFFFFFFFFFFFFFF AND CALLER PUSH20 0xFFFFFFFFFFFFFFFFFFFFFFFFFFFFFFFFFFFFFFFF AND EQ PUSH2 0x49A JUMPI PUSH1 0x40 MLOAD PUSH32 0x8C379A000000000000000000000000000000000000000000000000000000000 DUP2 MSTORE PUSH1 0x4 ADD PUSH2 0x491 SWAP1 PUSH2 0x9F6 JUMP JUMPDEST PUSH1 0x40 MLOAD DUP1 SWAP2 SUB SWAP1 REVERT JUMPDEST PUSH1 0x1 PUSH1 0x2 PUSH0 DUP3 DUP3 SLOAD PUSH2 0x4AC SWAP2 SWAP1 PUSH2 0xA41 JUMP JUMPDEST SWAP3 POP POP DUP2 SWAP1 SSTORE POP JUMP JUMPDEST PUSH0 PUSH0 SWAP1 SLOAD SWAP1 PUSH2 0x100 EXP SWAP1 DIV PUSH20 0xFFFFFFFFFFFFFFFFFFFFFFFFFFFFFFFFFFFFFFFF AND PUSH20 0xFFFFFFFFFFFFFFFFFFFFFFFFFFFFFFFFFFFFFFFF AND CALLER PUSH20 0xFFFFFFFFFFFFFFFFFFFFFFFFFFFFFFFFFFFFFFFF AND EQ PUSH2 0x543 JUMPI PUSH1 0x40 MLOAD PUSH32 0x8C379A000000000000000000000000000000000000000000000000000000000 DUP2 MSTORE PUSH1 0x4 ADD PUSH2 0x53A SWAP1 PUSH2 0xABE JUMP JUMPDEST PUSH1 0x40 MLOAD DUP1 SWAP2 SUB SWAP1 REVERT JUMPDEST DUP2 PUSH1 0x3 PUSH0 DUP4 DUP2 MSTORE PUSH1 0x20 ADD SWAP1 DUP2 MSTORE PUSH1 0x20 ADD PUSH0 KECCAK256 PUSH0 PUSH2 0x100 EXP DUP2 SLOAD DUP2 PUSH20 0xFFFFFFFFFFFFFFFFFFFFFFFFFFFFFFFFFFFFFFFF MUL NOT AND SWAP1 DUP4 PUSH20 0xFFFFFFFFFFFFFFFFFFFFFFFFFFFFFFFFFFFFFFFF AND MUL OR SWAP1 SSTORE POP POP POP JUMP JUMPDEST PUSH0 PUSH1 0x3 PUSH0 DUP4 DUP2 MSTORE PUSH1 0x20 ADD SWAP1 DUP2 MSTORE PUSH1 0x20 ADD PUSH0 KECCAK256 PUSH0 SWAP1 SLOAD SWAP1 PUSH2 0x100 EXP SWAP1 DIV PUSH20 0xFFFFFFFFFFFFFFFFFFFFFFFFFFFFFFFFFFFFFFFF AND SWAP1 POP DUP1 PUSH20 0xFFFFFFFFFFFFFFFFFFFFFFFFFFFFFFFFFFFFFFFF AND CALLER PUSH20 0xFFFFFFFFFFFFFFFFFFFFFFFFFFFFFFFFFFFFFFFF AND EQ PUSH2 0x638 JUMPI PUSH1 0x40 MLOAD PUSH32 0x8C379A000000000000000000000000000000000000000000000000000000000 DUP2 MSTORE PUSH1 0x4 ADD PUSH2 0x62F SWAP1 PUSH2 0x968 JUMP JUMPDEST PUSH1 0x40 MLOAD DUP1 SWAP2 SUB SWAP1 REVERT JUMPDEST PUSH1 0x40 MLOAD DUP1 PUSH1 0x40 ADD PUSH1 0x40 MSTORE DUP1 PUSH1 0x8 DUP2 MSTORE PUSH1 0x20 ADD PUSH32 0x4163636570746564000000000000000000000000000000000000000000000000 DUP2 MSTORE POP PUSH1 0x4 PUSH0 DUP4 PUSH20 0xFFFFFFFFFFFFFFFFFFFFFFFFFFFFFFFFFFFFFFFF AND PUSH20 0xFFFFFFFFFFFFFFFFFFFFFFFFFFFFFFFFFFFFFFFF AND DUP2 MSTORE PUSH1 0x20 ADD SWAP1 DUP2 MSTORE PUSH1 0x20 ADD PUSH0 KECCAK256 SWAP1 DUP2 PUSH2 0x6B7 SWAP2 SWAP1 PUSH2 0xCA9 JUMP JUMPDEST POP POP POP JUMP JUMPDEST PUSH0 PUSH0 REVERT JUMPDEST PUSH0 PUSH20 0xFFFFFFFFFFFFFFFFFFFFFFFFFFFFFFFFFFFFFFFF DUP3 AND SWAP1 POP SWAP2 SWAP1 POP JUMP JUMPDEST PUSH0 PUSH2 0x6E9 DUP3 PUSH2 0x6C0 JUMP JUMPDEST SWAP1 POP SWAP2 SWAP1 POP JUMP JUMPDEST PUSH2 0x6F9 DUP2 PUSH2 0x6DF JUMP JUMPDEST DUP2 EQ PUSH2 0x703 JUMPI PUSH0 PUSH0 REVERT JUMPDEST POP JUMP JUMPDEST PUSH0 DUP2 CALLDATALOAD SWAP1 POP PUSH2 0x714 DUP2 PUSH2 0x6F0 JUMP JUMPDEST SWAP3 SWAP2 POP POP JUMP JUMPDEST PUSH0 PUSH1 0x20 DUP3 DUP5 SUB SLT ISZERO PUSH2 0x72F JUMPI PUSH2 0x72E PUSH2 0x6BC JUMP JUMPDEST JUMPDEST PUSH0 PUSH2 0x73C DUP5 DUP3 DUP6 ADD PUSH2 0x706 JUMP JUMPDEST SWAP2 POP POP SWAP3 SWAP2 POP POP JUMP JUMPDEST PUSH0 DUP2 MLOAD SWAP1 POP SWAP2 SWAP1 POP JUMP JUMPDEST PUSH0 DUP3 DUP3 MSTORE PUSH1 0x20 DUP3 ADD SWAP1 POP SWAP3 SWAP2 POP POP JUMP JUMPDEST DUP3 DUP2 DUP4 MCOPY PUSH0 DUP4 DUP4 ADD MSTORE POP POP POP JUMP JUMPDEST PUSH0 PUSH1 0x1F NOT PUSH1 0x1F DUP4 ADD AND SWAP1 POP SWAP2 SWAP1 POP JUMP JUMPDEST PUSH0 PUSH2 0x787 DUP3 PUSH2 0x745 JUMP JUMPDEST PUSH2 0x791 DUP2 DUP6 PUSH2 0x74F JUMP JUMPDEST SWAP4 POP PUSH2 0x7A1 DUP2 DUP6 PUSH1 0x20 DUP7 ADD PUSH2 0x75F JUMP JUMPDEST PUSH2 0x7AA DUP2 PUSH2 0x76D JUMP JUMPDEST DUP5 ADD SWAP2 POP POP SWAP3 SWAP2 POP POP JUMP JUMPDEST PUSH0 PUSH1 0x20 DUP3 ADD SWAP1 POP DUP2 DUP2 SUB PUSH0 DUP4 ADD MSTORE PUSH2 0x7CD DUP2 DUP5 PUSH2 0x77D JUMP JUMPDEST SWAP1 POP SWAP3 SWAP2 POP POP JUMP JUMPDEST PUSH2 0x7DE DUP2 PUSH2 0x6DF JUMP JUMPDEST DUP3 MSTORE POP POP JUMP JUMPDEST PUSH0 PUSH1 0x20 DUP3 ADD SWAP1 POP PUSH2 0x7F7 PUSH0 DUP4 ADD DUP5 PUSH2 0x7D5 JUMP JUMPDEST SWAP3 SWAP2 POP POP JUMP JUMPDEST PUSH0 DUP2 SWAP1 POP SWAP2 SWAP1 POP JUMP JUMPDEST PUSH2 0x80F DUP2 PUSH2 0x7FD JUMP JUMPDEST DUP3 MSTORE POP POP JUMP JUMPDEST PUSH0 PUSH1 0x20 DUP3 ADD SWAP1 POP PUSH2 0x828 PUSH0 DUP4 ADD DUP5 PUSH2 0x806 JUMP JUMPDEST SWAP3 SWAP2 POP POP JUMP JUMPDEST PUSH2 0x837 DUP2 PUSH2 0x7FD JUMP JUMPDEST DUP2 EQ PUSH2 0x841 JUMPI PUSH0 PUSH0 REVERT JUMPDEST POP JUMP JUMPDEST PUSH0 DUP2 CALLDATALOAD SWAP1 POP PUSH2 0x852 DUP2 PUSH2 0x82E JUMP JUMPDEST SWAP3 SWAP2 POP POP JUMP JUMPDEST PUSH0 PUSH0 PUSH1 0x40 DUP4 DUP6 SUB SLT ISZERO PUSH2 0x86E JUMPI PUSH2 0x86D PUSH2 0x6BC JUMP JUMPDEST JUMPDEST PUSH0 PUSH2 0x87B DUP6 DUP3 DUP7 ADD PUSH2 0x706 JUMP JUMPDEST SWAP3 POP POP PUSH1 0x20 PUSH2 0x88C DUP6 DUP3 DUP7 ADD PUSH2 0x844 JUMP JUMPDEST SWAP2 POP POP SWAP3 POP SWAP3 SWAP1 POP JUMP JUMPDEST PUSH0 PUSH1 0x20 DUP3 DUP5 SUB SLT ISZERO PUSH2 0x8AB JUMPI PUSH2 0x8AA PUSH2 0x6BC JUMP JUMPDEST JUMPDEST PUSH0 PUSH2 0x8B8 DUP5 DUP3 DUP6 ADD PUSH2 0x844 JUMP JUMPDEST SWAP2 POP POP SWAP3 SWAP2 POP POP JUMP JUMPDEST PUSH32 0x4E487B7100000000000000000000000000000000000000000000000000000000 PUSH0 MSTORE PUSH1 0x22 PUSH1 0x4 MSTORE PUSH1 0x24 PUSH0 REVERT JUMPDEST PUSH0 PUSH1 0x2 DUP3 DIV SWAP1 POP PUSH1 0x1 DUP3 AND DUP1 PUSH2 0x905 JUMPI PUSH1 0x7F DUP3 AND SWAP2 POP JUMPDEST PUSH1 0x20 DUP3 LT DUP2 SUB PUSH2 0x918 JUMPI PUSH2 0x917 PUSH2 0x8C1 JUMP JUMPDEST JUMPDEST POP SWAP2 SWAP1 POP JUMP JUMPDEST PUSH32 0x796F7520617265206E6F7420746865206F72646572656420637573746F6D6572 PUSH0 DUP3 ADD MSTORE POP JUMP JUMPDEST PUSH0 PUSH2 0x952 PUSH1 0x20 DUP4 PUSH2 0x74F JUMP JUMPDEST SWAP2 POP PUSH2 0x95D DUP3 PUSH2 0x91E JUMP JUMPDEST PUSH1 0x20 DUP3 ADD SWAP1 POP SWAP2 SWAP1 POP JUMP JUMPDEST PUSH0 PUSH1 0x20 DUP3 ADD SWAP1 POP DUP2 DUP2 SUB PUSH0 DUP4 ADD MSTORE PUSH2 0x97F DUP2 PUSH2 0x946 JUMP JUMPDEST SWAP1 POP SWAP2 SWAP1 POP JUMP JUMPDEST PUSH32 0x4F6E6C7920746865206F776E65722063616E20636F6D706C6574652074686520 PUSH0 DUP3 ADD MSTORE PUSH32 0x64656C6976657279000000000000000000000000000000000000000000000000 PUSH1 0x20 DUP3 ADD MSTORE POP JUMP JUMPDEST PUSH0 PUSH2 0x9E0 PUSH1 0x28 DUP4 PUSH2 0x74F JUMP JUMPDEST SWAP2 POP PUSH2 0x9EB DUP3 PUSH2 0x986 JUMP JUMPDEST PUSH1 0x40 DUP3 ADD SWAP1 POP SWAP2 SWAP1 POP JUMP JUMPDEST PUSH0 PUSH1 0x20 DUP3 ADD SWAP1 POP DUP2 DUP2 SUB PUSH0 DUP4 ADD MSTORE PUSH2 0xA0D DUP2 PUSH2 0x9D4 JUMP JUMPDEST SWAP1 POP SWAP2 SWAP1 POP JUMP JUMPDEST PUSH32 0x4E487B7100000000000000000000000000000000000000000000000000000000 PUSH0 MSTORE PUSH1 0x11 PUSH1 0x4 MSTORE PUSH1 0x24 PUSH0 REVERT JUMPDEST PUSH0 PUSH2 0xA4B DUP3 PUSH2 0x7FD JUMP JUMPDEST SWAP2 POP PUSH2 0xA56 DUP4 PUSH2 0x7FD JUMP JUMPDEST SWAP3 POP DUP3 DUP3 ADD SWAP1 POP DUP1 DUP3 GT ISZERO PUSH2 0xA6E JUMPI PUSH2 0xA6D PUSH2 0xA14 JUMP JUMPDEST JUMPDEST SWAP3 SWAP2 POP POP JUMP JUMPDEST PUSH32 0x796F7520617265206E6F7420746865206F776E65720000000000000000000000 PUSH0 DUP3 ADD MSTORE POP JUMP JUMPDEST PUSH0 PUSH2 0xAA8 PUSH1 0x15 DUP4 PUSH2 0x74F JUMP JUMPDEST SWAP2 POP PUSH2 0xAB3 DUP3 PUSH2 0xA74 JUMP JUMPDEST PUSH1 0x20 DUP3 ADD SWAP1 POP SWAP2 SWAP1 POP JUMP JUMPDEST PUSH0 PUSH1 0x20 DUP3 ADD SWAP1 POP DUP2 DUP2 SUB PUSH0 DUP4 ADD MSTORE PUSH2 0xAD5 DUP2 PUSH2 0xA9C JUMP JUMPDEST SWAP1 POP SWAP2 SWAP1 POP JUMP JUMPDEST PUSH32 0x4E487B7100000000000000000000000000000000000000000000000000000000 PUSH0 MSTORE PUSH1 0x41 PUSH1 0x4 MSTORE PUSH1 0x24 PUSH0 REVERT JUMPDEST PUSH0 DUP2 SWAP1 POP DUP2 PUSH0 MSTORE PUSH1 0x20 PUSH0 KECCAK256 SWAP1 POP SWAP2 SWAP1 POP JUMP JUMPDEST PUSH0 PUSH1 0x20 PUSH1 0x1F DUP4 ADD DIV SWAP1 POP SWAP2 SWAP1 POP JUMP JUMPDEST PUSH0 DUP3 DUP3 SHL SWAP1 POP SWAP3 SWAP2 POP POP JUMP JUMPDEST PUSH0 PUSH1 0x8 DUP4 MUL PUSH2 0xB65 PUSH32 0xFFFFFFFFFFFFFFFFFFFFFFFFFFFFFFFFFFFFFFFFFFFFFFFFFFFFFFFFFFFFFFFF DUP3 PUSH2 0xB2A JUMP JUMPDEST PUSH2 0xB6F DUP7 DUP4 PUSH2 0xB2A JUMP JUMPDEST SWAP6 POP DUP1 NOT DUP5 AND SWAP4 POP DUP1 DUP7 AND DUP5 OR SWAP3 POP POP POP SWAP4 SWAP3 POP POP POP JUMP JUMPDEST PUSH0 DUP2 SWAP1 POP SWAP2 SWAP1 POP JUMP JUMPDEST PUSH0 PUSH2 0xBAA PUSH2 0xBA5 PUSH2 0xBA0 DUP5 PUSH2 0x7FD JUMP JUMPDEST PUSH2 0xB87 JUMP JUMPDEST PUSH2 0x7FD JUMP JUMPDEST SWAP1 POP SWAP2 SWAP1 POP JUMP JUMPDEST PUSH0 DUP2 SWAP1 POP SWAP2 SWAP1 POP JUMP JUMPDEST PUSH2 0xBC3 DUP4 PUSH2 0xB90 JUMP JUMPDEST PUSH2 0xBD7 PUSH2 0xBCF DUP3 PUSH2 0xBB1 JUMP JUMPDEST DUP5 DUP5 SLOAD PUSH2 0xB36 JUMP JUMPDEST DUP3 SSTORE POP POP POP POP JUMP JUMPDEST PUSH0 PUSH0 SWAP1 POP SWAP1 JUMP JUMPDEST PUSH2 0xBEE PUSH2 0xBDF JUMP JUMPDEST PUSH2 0xBF9 DUP2 DUP5 DUP5 PUSH2 0xBBA JUMP JUMPDEST POP POP POP JUMP JUMPDEST JUMPDEST DUP2 DUP2 LT ISZERO PUSH2 0xC1C JUMPI PUSH2 0xC11 PUSH0 DUP3 PUSH2 0xBE6 JUMP JUMPDEST PUSH1 0x1 DUP2 ADD SWAP1 POP PUSH2 0xBFF JUMP JUMPDEST POP POP JUMP JUMPDEST PUSH1 0x1F DUP3 GT ISZERO PUSH2 0xC61 JUMPI PUSH2 0xC32 DUP2 PUSH2 0xB09 JUMP JUMPDEST PUSH2 0xC3B DUP5 PUSH2 0xB1B JUMP JUMPDEST DUP2 ADD PUSH1 0x20 DUP6 LT ISZERO PUSH2 0xC4A JUMPI DUP2 SWAP1 POP JUMPDEST PUSH2 0xC5E PUSH2 0xC56 DUP6 PUSH2 0xB1B JUMP JUMPDEST DUP4 ADD DUP3 PUSH2 0xBFE JUMP JUMPDEST POP POP JUMPDEST POP POP POP JUMP JUMPDEST PUSH0 DUP3 DUP3 SHR SWAP1 POP SWAP3 SWAP2 POP POP JUMP JUMPDEST PUSH0 PUSH2 0xC81 PUSH0 NOT DUP5 PUSH1 0x8 MUL PUSH2 0xC66 JUMP JUMPDEST NOT DUP1 DUP4 AND SWAP2 POP POP SWAP3 SWAP2 POP POP JUMP JUMPDEST PUSH0 PUSH2 0xC99 DUP4 DUP4 PUSH2 0xC72 JUMP JUMPDEST SWAP2 POP DUP3 PUSH1 0x2 MUL DUP3 OR SWAP1 POP SWAP3 SWAP2 POP POP JUMP JUMPDEST PUSH2 0xCB2 DUP3 PUSH2 0x745 JUMP JUMPDEST PUSH8 0xFFFFFFFFFFFFFFFF DUP2 GT ISZERO PUSH2 0xCCB JUMPI PUSH2 0xCCA PUSH2 0xADC JUMP JUMPDEST JUMPDEST PUSH2 0xCD5 DUP3 SLOAD PUSH2 0x8EE JUMP JUMPDEST PUSH2 0xCE0 DUP3 DUP3 DUP6 PUSH2 0xC20 JUMP JUMPDEST PUSH0 PUSH1 0x20 SWAP1 POP PUSH1 0x1F DUP4 GT PUSH1 0x1 DUP2 EQ PUSH2 0xD11 JUMPI PUSH0 DUP5 ISZERO PUSH2 0xCFF JUMPI DUP3 DUP8 ADD MLOAD SWAP1 POP JUMPDEST PUSH2 0xD09 DUP6 DUP3 PUSH2 0xC8E JUMP JUMPDEST DUP7 SSTORE POP PUSH2 0xD70 JUMP JUMPDEST PUSH1 0x1F NOT DUP5 AND PUSH2 0xD1F DUP7 PUSH2 0xB09 JUMP JUMPDEST PUSH0 JUMPDEST DUP3 DUP2 LT ISZERO PUSH2 0xD46 JUMPI DUP5 DUP10 ADD MLOAD DUP3 SSTORE PUSH1 0x1 DUP3 ADD SWAP2 POP PUSH1 0x20 DUP6 ADD SWAP5 POP PUSH1 0x20 DUP2 ADD SWAP1 POP PUSH2 0xD21 JUMP JUMPDEST DUP7 DUP4 LT ISZERO PUSH2 0xD63 JUMPI DUP5 DUP10 ADD MLOAD PUSH2 0xD5F PUSH1 0x1F DUP10 AND DUP3 PUSH2 0xC72 JUMP JUMPDEST DUP4 SSTORE POP JUMPDEST PUSH1 0x1 PUSH1 0x2 DUP9 MUL ADD DUP9 SSTORE POP POP POP JUMPDEST POP POP POP POP POP POP JUMP INVALID 0x4E PUSH16 0x20736869706D656E7420696E69746961 PUSH21 0x656420666F7220746869732061646472657373A264 PUSH10 0x70667358221220819930 DUP10 CALLDATASIZE NUMBER MULMOD TIMESTAMP 0x22 0xAE 0xB2 0xB6 LOG1 SWAP11 0xA9 OR BLOBBASEFEE JUMP SWAP7 SAR EXP 0xC9 0xE8 0xDB GT 0x4E 0xC5 MOD LOG2 0x2E 0x4C 0x2F PUSH5 0x736F6C6343 STOP ADDMOD SHR STOP CALLER "
				},
				"gasEstimates": {
					"creation": {
						"codeDepositCost": "708000",
						"executionCost": "25003",
						"totalCost": "733003"
					},
					"external": {
						"acceptOrder(uint256)": "infinite",
						"checkStatus(address)": "infinite",
						"completeDelivery()": "infinite",
						"customerStatus(address)": "infinite",
						"customers()": "2531",
						"owner()": "2529",
						"shipWithPin(address,uint256)": "27195",
						"tCompletedDeliveries()": "2492",
						"totalCompletedDeliveries()": "2432"
					}
				},
				"methodIdentifiers": {
					"acceptOrder(uint256)": "ef18e9ed",
					"checkStatus(address)": "340190ec",
					"completeDelivery()": "a0afc42e",
					"customerStatus(address)": "0519dc69",
					"customers()": "06637876",
					"owner()": "8da5cb5b",
					"shipWithPin(address,uint256)": "e40ebc19",
					"tCompletedDeliveries()": "6e32c3e0",
					"totalCompletedDeliveries()": "87e1ad46"
				}
			},
			"storageLayout": {
				"storage": [
					{
						"astId": 3,
						"contract": "contracts/PRACTICE/Project -ShipMent Service Incomplete.sol:ShipmentService",
						"label": "owner",
						"offset": 0,
						"slot": "0",
						"type": "t_address"
					},
					{
						"astId": 5,
						"contract": "contracts/PRACTICE/Project -ShipMent Service Incomplete.sol:ShipmentService",
						"label": "customers",
						"offset": 0,
						"slot": "1",
						"type": "t_address"
					},
					{
						"astId": 7,
						"contract": "contracts/PRACTICE/Project -ShipMent Service Incomplete.sol:ShipmentService",
						"label": "tCompletedDeliveries",
						"offset": 0,
						"slot": "2",
						"type": "t_uint256"
					},
					{
						"astId": 11,
						"contract": "contracts/PRACTICE/Project -ShipMent Service Incomplete.sol:ShipmentService",
						"label": "custom",
						"offset": 0,
						"slot": "3",
						"type": "t_mapping(t_uint256,t_address)"
					},
					{
						"astId": 15,
						"contract": "contracts/PRACTICE/Project -ShipMent Service Incomplete.sol:ShipmentService",
						"label": "customerStatus",
						"offset": 0,
						"slot": "4",
						"type": "t_mapping(t_address,t_string_storage)"
					}
				],
				"types": {
					"t_address": {
						"encoding": "inplace",
						"label": "address",
						"numberOfBytes": "20"
					},
					"t_mapping(t_address,t_string_storage)": {
						"encoding": "mapping",
						"key": "t_address",
						"label": "mapping(address => string)",
						"numberOfBytes": "32",
						"value": "t_string_storage"
					},
					"t_mapping(t_uint256,t_address)": {
						"encoding": "mapping",
						"key": "t_uint256",
						"label": "mapping(uint256 => address)",
						"numberOfBytes": "32",
						"value": "t_address"
					},
					"t_string_storage": {
						"encoding": "bytes",
						"label": "string",
						"numberOfBytes": "32"
					},
					"t_uint256": {
						"encoding": "inplace",
						"label": "uint256",
						"numberOfBytes": "32"
					}
				}
			},
			"userdoc": {
				"kind": "user",
				"methods": {},
				"version": 1
			}
		}
	}
}