{
	"contracts/PRACTICE/Struct.sol": {
		"struct3": {
			"abi": [
				{
					"inputs": [
						{
							"internalType": "uint256",
							"name": "_roll",
							"type": "uint256"
						},
						{
							"internalType": "string",
							"name": "_name",
							"type": "string"
						}
					],
					"name": "get",
					"outputs": [],
					"stateMutability": "nonpayable",
					"type": "function"
				},
				{
					"inputs": [
						{
							"internalType": "uint256",
							"name": "",
							"type": "uint256"
						}
					],
					"name": "s1",
					"outputs": [
						{
							"internalType": "uint256",
							"name": "roll",
							"type": "uint256"
						},
						{
							"internalType": "string",
							"name": "name",
							"type": "string"
						}
					],
					"stateMutability": "view",
					"type": "function"
				},
				{
					"inputs": [
						{
							"internalType": "uint256",
							"name": "index",
							"type": "uint256"
						}
					],
					"name": "set",
					"outputs": [
						{
							"components": [
								{
									"internalType": "uint256",
									"name": "roll",
									"type": "uint256"
								},
								{
									"internalType": "string",
									"name": "name",
									"type": "string"
								}
							],
							"internalType": "struct struct3.student",
							"name": "",
							"type": "tuple"
						}
					],
					"stateMutability": "view",
					"type": "function"
				}
			],
			"devdoc": {
				"kind": "dev",
				"methods": {},
				"version": 1
			},
			"evm": {
				"assembly": "    /* \"contracts/PRACTICE/Struct.sol\":1232:1561  contract struct3{... */\n  mstore(0x40, 0x80)\n  callvalue\n  dup1\n  iszero\n  tag_1\n  jumpi\n  revert(0x00, 0x00)\ntag_1:\n  pop\n  dataSize(sub_0)\n  dup1\n  dataOffset(sub_0)\n  0x00\n  codecopy\n  0x00\n  return\nstop\n\nsub_0: assembly {\n        /* \"contracts/PRACTICE/Struct.sol\":1232:1561  contract struct3{... */\n      mstore(0x40, 0x80)\n      callvalue\n      dup1\n      iszero\n      tag_1\n      jumpi\n      revert(0x00, 0x00)\n    tag_1:\n      pop\n      jumpi(tag_2, lt(calldatasize, 0x04))\n      shr(0xe0, calldataload(0x00))\n      dup1\n      0x448a8e1e\n      eq\n      tag_3\n      jumpi\n      dup1\n      0x60fe47b1\n      eq\n      tag_4\n      jumpi\n      dup1\n      0x805da4ad\n      eq\n      tag_5\n      jumpi\n    tag_2:\n      revert(0x00, 0x00)\n        /* \"contracts/PRACTICE/Struct.sol\":1326:1346  student [] public s1 */\n    tag_3:\n      tag_6\n      0x04\n      dup1\n      calldatasize\n      sub\n      dup2\n      add\n      swap1\n      tag_7\n      swap2\n      swap1\n      tag_8\n      jump\t// in\n    tag_7:\n      tag_9\n      jump\t// in\n    tag_6:\n      mload(0x40)\n      tag_10\n      swap3\n      swap2\n      swap1\n      tag_11\n      jump\t// in\n    tag_10:\n      mload(0x40)\n      dup1\n      swap2\n      sub\n      swap1\n      return\n        /* \"contracts/PRACTICE/Struct.sol\":1459:1556  function set(uint index) public view returns(student memory){... */\n    tag_4:\n      tag_12\n      0x04\n      dup1\n      calldatasize\n      sub\n      dup2\n      add\n      swap1\n      tag_13\n      swap2\n      swap1\n      tag_8\n      jump\t// in\n    tag_13:\n      tag_14\n      jump\t// in\n    tag_12:\n      mload(0x40)\n      tag_15\n      swap2\n      swap1\n      tag_16\n      jump\t// in\n    tag_15:\n      mload(0x40)\n      dup1\n      swap2\n      sub\n      swap1\n      return\n        /* \"contracts/PRACTICE/Struct.sol\":1353:1453  function get(uint _roll,string memory _name) public {... */\n    tag_5:\n      tag_17\n      0x04\n      dup1\n      calldatasize\n      sub\n      dup2\n      add\n      swap1\n      tag_18\n      swap2\n      swap1\n      tag_19\n      jump\t// in\n    tag_18:\n      tag_20\n      jump\t// in\n    tag_17:\n      stop\n        /* \"contracts/PRACTICE/Struct.sol\":1326:1346  student [] public s1 */\n    tag_9:\n      0x00\n      dup2\n      dup2\n      sload\n      dup2\n      lt\n      tag_21\n      jumpi\n      0x00\n      dup1\n      revert\n    tag_21:\n      swap1\n      0x00\n      mstore\n      keccak256(0x00, 0x20)\n      swap1\n      0x02\n      mul\n      add\n      0x00\n      swap2\n      pop\n      swap1\n      pop\n      dup1\n      0x00\n      add\n      sload\n      swap1\n      dup1\n      0x01\n      add\n      dup1\n      sload\n      tag_23\n      swap1\n      tag_24\n      jump\t// in\n    tag_23:\n      dup1\n      0x1f\n      add\n      0x20\n      dup1\n      swap2\n      div\n      mul\n      0x20\n      add\n      mload(0x40)\n      swap1\n      dup2\n      add\n      0x40\n      mstore\n      dup1\n      swap3\n      swap2\n      swap1\n      dup2\n      dup2\n      mstore\n      0x20\n      add\n      dup3\n      dup1\n      sload\n      tag_25\n      swap1\n      tag_24\n      jump\t// in\n    tag_25:\n      dup1\n      iszero\n      tag_26\n      jumpi\n      dup1\n      0x1f\n      lt\n      tag_27\n      jumpi\n      0x0100\n      dup1\n      dup4\n      sload\n      div\n      mul\n      dup4\n      mstore\n      swap2\n      0x20\n      add\n      swap2\n      jump(tag_26)\n    tag_27:\n      dup3\n      add\n      swap2\n      swap1\n      0x00\n      mstore\n      keccak256(0x00, 0x20)\n      swap1\n    tag_28:\n      dup2\n      sload\n      dup2\n      mstore\n      swap1\n      0x01\n      add\n      swap1\n      0x20\n      add\n      dup1\n      dup4\n      gt\n      tag_28\n      jumpi\n      dup3\n      swap1\n      sub\n      0x1f\n      and\n      dup3\n      add\n      swap2\n    tag_26:\n      pop\n      pop\n      pop\n      pop\n      pop\n      swap1\n      pop\n      dup3\n      jump\t// out\n        /* \"contracts/PRACTICE/Struct.sol\":1459:1556  function set(uint index) public view returns(student memory){... */\n    tag_14:\n        /* \"contracts/PRACTICE/Struct.sol\":1504:1518  student memory */\n      tag_29\n      tag_30\n      jump\t// in\n    tag_29:\n        /* \"contracts/PRACTICE/Struct.sol\":1537:1539  s1 */\n      0x00\n        /* \"contracts/PRACTICE/Struct.sol\":1540:1545  index */\n      dup3\n        /* \"contracts/PRACTICE/Struct.sol\":1537:1546  s1[index] */\n      dup2\n      sload\n      dup2\n      lt\n      tag_32\n      jumpi\n      tag_33\n      tag_34\n      jump\t// in\n    tag_33:\n    tag_32:\n      swap1\n      0x00\n      mstore\n      keccak256(0x00, 0x20)\n      swap1\n      0x02\n      mul\n      add\n        /* \"contracts/PRACTICE/Struct.sol\":1530:1546  return s1[index] */\n      mload(0x40)\n      dup1\n      0x40\n      add\n      0x40\n      mstore\n      swap1\n      dup2\n      0x00\n      dup3\n      add\n      sload\n      dup2\n      mstore\n      0x20\n      add\n      0x01\n      dup3\n      add\n      dup1\n      sload\n      tag_36\n      swap1\n      tag_24\n      jump\t// in\n    tag_36:\n      dup1\n      0x1f\n      add\n      0x20\n      dup1\n      swap2\n      div\n      mul\n      0x20\n      add\n      mload(0x40)\n      swap1\n      dup2\n      add\n      0x40\n      mstore\n      dup1\n      swap3\n      swap2\n      swap1\n      dup2\n      dup2\n      mstore\n      0x20\n      add\n      dup3\n      dup1\n      sload\n      tag_37\n      swap1\n      tag_24\n      jump\t// in\n    tag_37:\n      dup1\n      iszero\n      tag_38\n      jumpi\n      dup1\n      0x1f\n      lt\n      tag_39\n      jumpi\n      0x0100\n      dup1\n      dup4\n      sload\n      div\n      mul\n      dup4\n      mstore\n      swap2\n      0x20\n      add\n      swap2\n      jump(tag_38)\n    tag_39:\n      dup3\n      add\n      swap2\n      swap1\n      0x00\n      mstore\n      keccak256(0x00, 0x20)\n      swap1\n    tag_40:\n      dup2\n      sload\n      dup2\n      mstore\n      swap1\n      0x01\n      add\n      swap1\n      0x20\n      add\n      dup1\n      dup4\n      gt\n      tag_40\n      jumpi\n      dup3\n      swap1\n      sub\n      0x1f\n      and\n      dup3\n      add\n      swap2\n    tag_38:\n      pop\n      pop\n      pop\n      pop\n      pop\n      dup2\n      mstore\n      pop\n      pop\n      swap1\n      pop\n        /* \"contracts/PRACTICE/Struct.sol\":1459:1556  function set(uint index) public view returns(student memory){... */\n      swap2\n      swap1\n      pop\n      jump\t// out\n        /* \"contracts/PRACTICE/Struct.sol\":1353:1453  function get(uint _roll,string memory _name) public {... */\n    tag_20:\n        /* \"contracts/PRACTICE/Struct.sol\":1416:1418  s1 */\n      0x00\n        /* \"contracts/PRACTICE/Struct.sol\":1424:1444  student(_roll,_name) */\n      mload(0x40)\n      dup1\n      0x40\n      add\n      0x40\n      mstore\n      dup1\n        /* \"contracts/PRACTICE/Struct.sol\":1432:1437  _roll */\n      dup5\n        /* \"contracts/PRACTICE/Struct.sol\":1424:1444  student(_roll,_name) */\n      dup2\n      mstore\n      0x20\n      add\n        /* \"contracts/PRACTICE/Struct.sol\":1438:1443  _name */\n      dup4\n        /* \"contracts/PRACTICE/Struct.sol\":1424:1444  student(_roll,_name) */\n      dup2\n      mstore\n      pop\n        /* \"contracts/PRACTICE/Struct.sol\":1416:1445  s1.push(student(_roll,_name)) */\n      swap1\n      dup1\n      0x01\n      dup2\n      sload\n      add\n      dup1\n      dup3\n      sstore\n      dup1\n      swap2\n      pop\n      pop\n      0x01\n      swap1\n      sub\n      swap1\n      0x00\n      mstore\n      keccak256(0x00, 0x20)\n      swap1\n      0x02\n      mul\n      add\n      0x00\n      swap1\n      swap2\n      swap1\n      swap2\n      swap1\n      swap2\n      pop\n      0x00\n      dup3\n      add\n      mload\n      dup2\n      0x00\n      add\n      sstore\n      0x20\n      dup3\n      add\n      mload\n      dup2\n      0x01\n      add\n      swap1\n      dup2\n      tag_43\n      swap2\n      swap1\n      tag_44\n      jump\t// in\n    tag_43:\n      pop\n      pop\n      pop\n        /* \"contracts/PRACTICE/Struct.sol\":1353:1453  function get(uint _roll,string memory _name) public {... */\n      pop\n      pop\n      jump\t// out\n    tag_30:\n      mload(0x40)\n      dup1\n      0x40\n      add\n      0x40\n      mstore\n      dup1\n      0x00\n      dup2\n      mstore\n      0x20\n      add\n      0x60\n      dup2\n      mstore\n      pop\n      swap1\n      jump\t// out\n        /* \"#utility.yul\":7:82   */\n    tag_45:\n        /* \"#utility.yul\":40:46   */\n      0x00\n        /* \"#utility.yul\":73:75   */\n      0x40\n        /* \"#utility.yul\":67:76   */\n      mload\n        /* \"#utility.yul\":57:76   */\n      swap1\n      pop\n        /* \"#utility.yul\":7:82   */\n      swap1\n      jump\t// out\n        /* \"#utility.yul\":88:205   */\n    tag_46:\n        /* \"#utility.yul\":197:198   */\n      0x00\n        /* \"#utility.yul\":194:195   */\n      0x00\n        /* \"#utility.yul\":187:199   */\n      revert\n        /* \"#utility.yul\":211:328   */\n    tag_47:\n        /* \"#utility.yul\":320:321   */\n      0x00\n        /* \"#utility.yul\":317:318   */\n      0x00\n        /* \"#utility.yul\":310:322   */\n      revert\n        /* \"#utility.yul\":334:411   */\n    tag_48:\n        /* \"#utility.yul\":371:378   */\n      0x00\n        /* \"#utility.yul\":400:405   */\n      dup2\n        /* \"#utility.yul\":389:405   */\n      swap1\n      pop\n        /* \"#utility.yul\":334:411   */\n      swap2\n      swap1\n      pop\n      jump\t// out\n        /* \"#utility.yul\":417:539   */\n    tag_49:\n        /* \"#utility.yul\":490:514   */\n      tag_92\n        /* \"#utility.yul\":508:513   */\n      dup2\n        /* \"#utility.yul\":490:514   */\n      tag_48\n      jump\t// in\n    tag_92:\n        /* \"#utility.yul\":483:488   */\n      dup2\n        /* \"#utility.yul\":480:515   */\n      eq\n        /* \"#utility.yul\":470:533   */\n      tag_93\n      jumpi\n        /* \"#utility.yul\":529:530   */\n      0x00\n        /* \"#utility.yul\":526:527   */\n      0x00\n        /* \"#utility.yul\":519:531   */\n      revert\n        /* \"#utility.yul\":470:533   */\n    tag_93:\n        /* \"#utility.yul\":417:539   */\n      pop\n      jump\t// out\n        /* \"#utility.yul\":545:684   */\n    tag_50:\n        /* \"#utility.yul\":591:596   */\n      0x00\n        /* \"#utility.yul\":629:635   */\n      dup2\n        /* \"#utility.yul\":616:636   */\n      calldataload\n        /* \"#utility.yul\":607:636   */\n      swap1\n      pop\n        /* \"#utility.yul\":645:678   */\n      tag_95\n        /* \"#utility.yul\":672:677   */\n      dup2\n        /* \"#utility.yul\":645:678   */\n      tag_49\n      jump\t// in\n    tag_95:\n        /* \"#utility.yul\":545:684   */\n      swap3\n      swap2\n      pop\n      pop\n      jump\t// out\n        /* \"#utility.yul\":690:1019   */\n    tag_8:\n        /* \"#utility.yul\":749:755   */\n      0x00\n        /* \"#utility.yul\":798:800   */\n      0x20\n        /* \"#utility.yul\":786:795   */\n      dup3\n        /* \"#utility.yul\":777:784   */\n      dup5\n        /* \"#utility.yul\":773:796   */\n      sub\n        /* \"#utility.yul\":769:801   */\n      slt\n        /* \"#utility.yul\":766:885   */\n      iszero\n      tag_97\n      jumpi\n        /* \"#utility.yul\":804:883   */\n      tag_98\n      tag_46\n      jump\t// in\n    tag_98:\n        /* \"#utility.yul\":766:885   */\n    tag_97:\n        /* \"#utility.yul\":924:925   */\n      0x00\n        /* \"#utility.yul\":949:1002   */\n      tag_99\n        /* \"#utility.yul\":994:1001   */\n      dup5\n        /* \"#utility.yul\":985:991   */\n      dup3\n        /* \"#utility.yul\":974:983   */\n      dup6\n        /* \"#utility.yul\":970:992   */\n      add\n        /* \"#utility.yul\":949:1002   */\n      tag_50\n      jump\t// in\n    tag_99:\n        /* \"#utility.yul\":939:1002   */\n      swap2\n      pop\n        /* \"#utility.yul\":895:1012   */\n      pop\n        /* \"#utility.yul\":690:1019   */\n      swap3\n      swap2\n      pop\n      pop\n      jump\t// out\n        /* \"#utility.yul\":1025:1143   */\n    tag_51:\n        /* \"#utility.yul\":1112:1136   */\n      tag_101\n        /* \"#utility.yul\":1130:1135   */\n      dup2\n        /* \"#utility.yul\":1112:1136   */\n      tag_48\n      jump\t// in\n    tag_101:\n        /* \"#utility.yul\":1107:1110   */\n      dup3\n        /* \"#utility.yul\":1100:1137   */\n      mstore\n        /* \"#utility.yul\":1025:1143   */\n      pop\n      pop\n      jump\t// out\n        /* \"#utility.yul\":1149:1248   */\n    tag_52:\n        /* \"#utility.yul\":1201:1207   */\n      0x00\n        /* \"#utility.yul\":1235:1240   */\n      dup2\n        /* \"#utility.yul\":1229:1241   */\n      mload\n        /* \"#utility.yul\":1219:1241   */\n      swap1\n      pop\n        /* \"#utility.yul\":1149:1248   */\n      swap2\n      swap1\n      pop\n      jump\t// out\n        /* \"#utility.yul\":1254:1423   */\n    tag_53:\n        /* \"#utility.yul\":1338:1349   */\n      0x00\n        /* \"#utility.yul\":1372:1378   */\n      dup3\n        /* \"#utility.yul\":1367:1370   */\n      dup3\n        /* \"#utility.yul\":1360:1379   */\n      mstore\n        /* \"#utility.yul\":1412:1416   */\n      0x20\n        /* \"#utility.yul\":1407:1410   */\n      dup3\n        /* \"#utility.yul\":1403:1417   */\n      add\n        /* \"#utility.yul\":1388:1417   */\n      swap1\n      pop\n        /* \"#utility.yul\":1254:1423   */\n      swap3\n      swap2\n      pop\n      pop\n      jump\t// out\n        /* \"#utility.yul\":1429:1568   */\n    tag_54:\n        /* \"#utility.yul\":1518:1524   */\n      dup3\n        /* \"#utility.yul\":1513:1516   */\n      dup2\n        /* \"#utility.yul\":1508:1511   */\n      dup4\n        /* \"#utility.yul\":1502:1525   */\n      mcopy\n        /* \"#utility.yul\":1559:1560   */\n      0x00\n        /* \"#utility.yul\":1550:1556   */\n      dup4\n        /* \"#utility.yul\":1545:1548   */\n      dup4\n        /* \"#utility.yul\":1541:1557   */\n      add\n        /* \"#utility.yul\":1534:1561   */\n      mstore\n        /* \"#utility.yul\":1429:1568   */\n      pop\n      pop\n      pop\n      jump\t// out\n        /* \"#utility.yul\":1574:1676   */\n    tag_55:\n        /* \"#utility.yul\":1615:1621   */\n      0x00\n        /* \"#utility.yul\":1666:1668   */\n      0x1f\n        /* \"#utility.yul\":1662:1669   */\n      not\n        /* \"#utility.yul\":1657:1659   */\n      0x1f\n        /* \"#utility.yul\":1650:1655   */\n      dup4\n        /* \"#utility.yul\":1646:1660   */\n      add\n        /* \"#utility.yul\":1642:1670   */\n      and\n        /* \"#utility.yul\":1632:1670   */\n      swap1\n      pop\n        /* \"#utility.yul\":1574:1676   */\n      swap2\n      swap1\n      pop\n      jump\t// out\n        /* \"#utility.yul\":1682:2059   */\n    tag_56:\n        /* \"#utility.yul\":1770:1773   */\n      0x00\n        /* \"#utility.yul\":1798:1837   */\n      tag_107\n        /* \"#utility.yul\":1831:1836   */\n      dup3\n        /* \"#utility.yul\":1798:1837   */\n      tag_52\n      jump\t// in\n    tag_107:\n        /* \"#utility.yul\":1853:1924   */\n      tag_108\n        /* \"#utility.yul\":1917:1923   */\n      dup2\n        /* \"#utility.yul\":1912:1915   */\n      dup6\n        /* \"#utility.yul\":1853:1924   */\n      tag_53\n      jump\t// in\n    tag_108:\n        /* \"#utility.yul\":1846:1924   */\n      swap4\n      pop\n        /* \"#utility.yul\":1933:1998   */\n      tag_109\n        /* \"#utility.yul\":1991:1997   */\n      dup2\n        /* \"#utility.yul\":1986:1989   */\n      dup6\n        /* \"#utility.yul\":1979:1983   */\n      0x20\n        /* \"#utility.yul\":1972:1977   */\n      dup7\n        /* \"#utility.yul\":1968:1984   */\n      add\n        /* \"#utility.yul\":1933:1998   */\n      tag_54\n      jump\t// in\n    tag_109:\n        /* \"#utility.yul\":2023:2052   */\n      tag_110\n        /* \"#utility.yul\":2045:2051   */\n      dup2\n        /* \"#utility.yul\":2023:2052   */\n      tag_55\n      jump\t// in\n    tag_110:\n        /* \"#utility.yul\":2018:2021   */\n      dup5\n        /* \"#utility.yul\":2014:2053   */\n      add\n        /* \"#utility.yul\":2007:2053   */\n      swap2\n      pop\n        /* \"#utility.yul\":1774:2059   */\n      pop\n        /* \"#utility.yul\":1682:2059   */\n      swap3\n      swap2\n      pop\n      pop\n      jump\t// out\n        /* \"#utility.yul\":2065:2488   */\n    tag_11:\n        /* \"#utility.yul\":2206:2210   */\n      0x00\n        /* \"#utility.yul\":2244:2246   */\n      0x40\n        /* \"#utility.yul\":2233:2242   */\n      dup3\n        /* \"#utility.yul\":2229:2247   */\n      add\n        /* \"#utility.yul\":2221:2247   */\n      swap1\n      pop\n        /* \"#utility.yul\":2257:2328   */\n      tag_112\n        /* \"#utility.yul\":2325:2326   */\n      0x00\n        /* \"#utility.yul\":2314:2323   */\n      dup4\n        /* \"#utility.yul\":2310:2327   */\n      add\n        /* \"#utility.yul\":2301:2307   */\n      dup6\n        /* \"#utility.yul\":2257:2328   */\n      tag_51\n      jump\t// in\n    tag_112:\n        /* \"#utility.yul\":2375:2384   */\n      dup2\n        /* \"#utility.yul\":2369:2373   */\n      dup2\n        /* \"#utility.yul\":2365:2385   */\n      sub\n        /* \"#utility.yul\":2360:2362   */\n      0x20\n        /* \"#utility.yul\":2349:2358   */\n      dup4\n        /* \"#utility.yul\":2345:2363   */\n      add\n        /* \"#utility.yul\":2338:2386   */\n      mstore\n        /* \"#utility.yul\":2403:2481   */\n      tag_113\n        /* \"#utility.yul\":2476:2480   */\n      dup2\n        /* \"#utility.yul\":2467:2473   */\n      dup5\n        /* \"#utility.yul\":2403:2481   */\n      tag_56\n      jump\t// in\n    tag_113:\n        /* \"#utility.yul\":2395:2481   */\n      swap1\n      pop\n        /* \"#utility.yul\":2065:2488   */\n      swap4\n      swap3\n      pop\n      pop\n      pop\n      jump\t// out\n        /* \"#utility.yul\":2494:2602   */\n    tag_57:\n        /* \"#utility.yul\":2571:2595   */\n      tag_115\n        /* \"#utility.yul\":2589:2594   */\n      dup2\n        /* \"#utility.yul\":2571:2595   */\n      tag_48\n      jump\t// in\n    tag_115:\n        /* \"#utility.yul\":2566:2569   */\n      dup3\n        /* \"#utility.yul\":2559:2596   */\n      mstore\n        /* \"#utility.yul\":2494:2602   */\n      pop\n      pop\n      jump\t// out\n        /* \"#utility.yul\":2608:2767   */\n    tag_58:\n        /* \"#utility.yul\":2682:2693   */\n      0x00\n        /* \"#utility.yul\":2716:2722   */\n      dup3\n        /* \"#utility.yul\":2711:2714   */\n      dup3\n        /* \"#utility.yul\":2704:2723   */\n      mstore\n        /* \"#utility.yul\":2756:2760   */\n      0x20\n        /* \"#utility.yul\":2751:2754   */\n      dup3\n        /* \"#utility.yul\":2747:2761   */\n      add\n        /* \"#utility.yul\":2732:2761   */\n      swap1\n      pop\n        /* \"#utility.yul\":2608:2767   */\n      swap3\n      swap2\n      pop\n      pop\n      jump\t// out\n        /* \"#utility.yul\":2773:3130   */\n    tag_59:\n        /* \"#utility.yul\":2851:2854   */\n      0x00\n        /* \"#utility.yul\":2879:2918   */\n      tag_118\n        /* \"#utility.yul\":2912:2917   */\n      dup3\n        /* \"#utility.yul\":2879:2918   */\n      tag_52\n      jump\t// in\n    tag_118:\n        /* \"#utility.yul\":2934:2995   */\n      tag_119\n        /* \"#utility.yul\":2988:2994   */\n      dup2\n        /* \"#utility.yul\":2983:2986   */\n      dup6\n        /* \"#utility.yul\":2934:2995   */\n      tag_58\n      jump\t// in\n    tag_119:\n        /* \"#utility.yul\":2927:2995   */\n      swap4\n      pop\n        /* \"#utility.yul\":3004:3069   */\n      tag_120\n        /* \"#utility.yul\":3062:3068   */\n      dup2\n        /* \"#utility.yul\":3057:3060   */\n      dup6\n        /* \"#utility.yul\":3050:3054   */\n      0x20\n        /* \"#utility.yul\":3043:3048   */\n      dup7\n        /* \"#utility.yul\":3039:3055   */\n      add\n        /* \"#utility.yul\":3004:3069   */\n      tag_54\n      jump\t// in\n    tag_120:\n        /* \"#utility.yul\":3094:3123   */\n      tag_121\n        /* \"#utility.yul\":3116:3122   */\n      dup2\n        /* \"#utility.yul\":3094:3123   */\n      tag_55\n      jump\t// in\n    tag_121:\n        /* \"#utility.yul\":3089:3092   */\n      dup5\n        /* \"#utility.yul\":3085:3124   */\n      add\n        /* \"#utility.yul\":3078:3124   */\n      swap2\n      pop\n        /* \"#utility.yul\":2855:3130   */\n      pop\n        /* \"#utility.yul\":2773:3130   */\n      swap3\n      swap2\n      pop\n      pop\n      jump\t// out\n        /* \"#utility.yul\":3192:3792   */\n    tag_60:\n        /* \"#utility.yul\":3305:3308   */\n      0x00\n        /* \"#utility.yul\":3341:3345   */\n      0x40\n        /* \"#utility.yul\":3336:3339   */\n      dup4\n        /* \"#utility.yul\":3332:3346   */\n      add\n        /* \"#utility.yul\":3428:3432   */\n      0x00\n        /* \"#utility.yul\":3421:3426   */\n      dup4\n        /* \"#utility.yul\":3417:3433   */\n      add\n        /* \"#utility.yul\":3411:3434   */\n      mload\n        /* \"#utility.yul\":3447:3510   */\n      tag_123\n        /* \"#utility.yul\":3504:3508   */\n      0x00\n        /* \"#utility.yul\":3499:3502   */\n      dup7\n        /* \"#utility.yul\":3495:3509   */\n      add\n        /* \"#utility.yul\":3481:3493   */\n      dup3\n        /* \"#utility.yul\":3447:3510   */\n      tag_57\n      jump\t// in\n    tag_123:\n        /* \"#utility.yul\":3356:3520   */\n      pop\n        /* \"#utility.yul\":3602:3606   */\n      0x20\n        /* \"#utility.yul\":3595:3600   */\n      dup4\n        /* \"#utility.yul\":3591:3607   */\n      add\n        /* \"#utility.yul\":3585:3608   */\n      mload\n        /* \"#utility.yul\":3655:3658   */\n      dup5\n        /* \"#utility.yul\":3649:3653   */\n      dup3\n        /* \"#utility.yul\":3645:3659   */\n      sub\n        /* \"#utility.yul\":3638:3642   */\n      0x20\n        /* \"#utility.yul\":3633:3636   */\n      dup7\n        /* \"#utility.yul\":3629:3643   */\n      add\n        /* \"#utility.yul\":3622:3660   */\n      mstore\n        /* \"#utility.yul\":3681:3754   */\n      tag_124\n        /* \"#utility.yul\":3749:3753   */\n      dup3\n        /* \"#utility.yul\":3735:3747   */\n      dup3\n        /* \"#utility.yul\":3681:3754   */\n      tag_59\n      jump\t// in\n    tag_124:\n        /* \"#utility.yul\":3673:3754   */\n      swap2\n      pop\n        /* \"#utility.yul\":3530:3765   */\n      pop\n        /* \"#utility.yul\":3782:3786   */\n      dup1\n        /* \"#utility.yul\":3775:3786   */\n      swap2\n      pop\n        /* \"#utility.yul\":3310:3792   */\n      pop\n        /* \"#utility.yul\":3192:3792   */\n      swap3\n      swap2\n      pop\n      pop\n      jump\t// out\n        /* \"#utility.yul\":3798:4159   */\n    tag_16:\n        /* \"#utility.yul\":3935:3939   */\n      0x00\n        /* \"#utility.yul\":3973:3975   */\n      0x20\n        /* \"#utility.yul\":3962:3971   */\n      dup3\n        /* \"#utility.yul\":3958:3976   */\n      add\n        /* \"#utility.yul\":3950:3976   */\n      swap1\n      pop\n        /* \"#utility.yul\":4022:4031   */\n      dup2\n        /* \"#utility.yul\":4016:4020   */\n      dup2\n        /* \"#utility.yul\":4012:4032   */\n      sub\n        /* \"#utility.yul\":4008:4009   */\n      0x00\n        /* \"#utility.yul\":3997:4006   */\n      dup4\n        /* \"#utility.yul\":3993:4010   */\n      add\n        /* \"#utility.yul\":3986:4033   */\n      mstore\n        /* \"#utility.yul\":4050:4152   */\n      tag_126\n        /* \"#utility.yul\":4147:4151   */\n      dup2\n        /* \"#utility.yul\":4138:4144   */\n      dup5\n        /* \"#utility.yul\":4050:4152   */\n      tag_60\n      jump\t// in\n    tag_126:\n        /* \"#utility.yul\":4042:4152   */\n      swap1\n      pop\n        /* \"#utility.yul\":3798:4159   */\n      swap3\n      swap2\n      pop\n      pop\n      jump\t// out\n        /* \"#utility.yul\":4165:4282   */\n    tag_61:\n        /* \"#utility.yul\":4274:4275   */\n      0x00\n        /* \"#utility.yul\":4271:4272   */\n      0x00\n        /* \"#utility.yul\":4264:4276   */\n      revert\n        /* \"#utility.yul\":4288:4405   */\n    tag_62:\n        /* \"#utility.yul\":4397:4398   */\n      0x00\n        /* \"#utility.yul\":4394:4395   */\n      0x00\n        /* \"#utility.yul\":4387:4399   */\n      revert\n        /* \"#utility.yul\":4411:4591   */\n    tag_63:\n        /* \"#utility.yul\":4459:4536   */\n      0x4e487b7100000000000000000000000000000000000000000000000000000000\n        /* \"#utility.yul\":4456:4457   */\n      0x00\n        /* \"#utility.yul\":4449:4537   */\n      mstore\n        /* \"#utility.yul\":4556:4560   */\n      0x41\n        /* \"#utility.yul\":4553:4554   */\n      0x04\n        /* \"#utility.yul\":4546:4561   */\n      mstore\n        /* \"#utility.yul\":4580:4584   */\n      0x24\n        /* \"#utility.yul\":4577:4578   */\n      0x00\n        /* \"#utility.yul\":4570:4585   */\n      revert\n        /* \"#utility.yul\":4597:4878   */\n    tag_64:\n        /* \"#utility.yul\":4680:4707   */\n      tag_131\n        /* \"#utility.yul\":4702:4706   */\n      dup3\n        /* \"#utility.yul\":4680:4707   */\n      tag_55\n      jump\t// in\n    tag_131:\n        /* \"#utility.yul\":4672:4678   */\n      dup2\n        /* \"#utility.yul\":4668:4708   */\n      add\n        /* \"#utility.yul\":4810:4816   */\n      dup2\n        /* \"#utility.yul\":4798:4808   */\n      dup2\n        /* \"#utility.yul\":4795:4817   */\n      lt\n        /* \"#utility.yul\":4774:4792   */\n      0xffffffffffffffff\n        /* \"#utility.yul\":4762:4772   */\n      dup3\n        /* \"#utility.yul\":4759:4793   */\n      gt\n        /* \"#utility.yul\":4756:4818   */\n      or\n        /* \"#utility.yul\":4753:4841   */\n      iszero\n      tag_132\n      jumpi\n        /* \"#utility.yul\":4821:4839   */\n      tag_133\n      tag_63\n      jump\t// in\n    tag_133:\n        /* \"#utility.yul\":4753:4841   */\n    tag_132:\n        /* \"#utility.yul\":4861:4871   */\n      dup1\n        /* \"#utility.yul\":4857:4859   */\n      0x40\n        /* \"#utility.yul\":4850:4872   */\n      mstore\n        /* \"#utility.yul\":4640:4878   */\n      pop\n        /* \"#utility.yul\":4597:4878   */\n      pop\n      pop\n      jump\t// out\n        /* \"#utility.yul\":4884:5013   */\n    tag_65:\n        /* \"#utility.yul\":4918:4924   */\n      0x00\n        /* \"#utility.yul\":4945:4965   */\n      tag_135\n      tag_45\n      jump\t// in\n    tag_135:\n        /* \"#utility.yul\":4935:4965   */\n      swap1\n      pop\n        /* \"#utility.yul\":4974:5007   */\n      tag_136\n        /* \"#utility.yul\":5002:5006   */\n      dup3\n        /* \"#utility.yul\":4994:5000   */\n      dup3\n        /* \"#utility.yul\":4974:5007   */\n      tag_64\n      jump\t// in\n    tag_136:\n        /* \"#utility.yul\":4884:5013   */\n      swap2\n      swap1\n      pop\n      jump\t// out\n        /* \"#utility.yul\":5019:5327   */\n    tag_66:\n        /* \"#utility.yul\":5081:5085   */\n      0x00\n        /* \"#utility.yul\":5171:5189   */\n      0xffffffffffffffff\n        /* \"#utility.yul\":5163:5169   */\n      dup3\n        /* \"#utility.yul\":5160:5190   */\n      gt\n        /* \"#utility.yul\":5157:5213   */\n      iszero\n      tag_138\n      jumpi\n        /* \"#utility.yul\":5193:5211   */\n      tag_139\n      tag_63\n      jump\t// in\n    tag_139:\n        /* \"#utility.yul\":5157:5213   */\n    tag_138:\n        /* \"#utility.yul\":5231:5260   */\n      tag_140\n        /* \"#utility.yul\":5253:5259   */\n      dup3\n        /* \"#utility.yul\":5231:5260   */\n      tag_55\n      jump\t// in\n    tag_140:\n        /* \"#utility.yul\":5223:5260   */\n      swap1\n      pop\n        /* \"#utility.yul\":5315:5319   */\n      0x20\n        /* \"#utility.yul\":5309:5313   */\n      dup2\n        /* \"#utility.yul\":5305:5320   */\n      add\n        /* \"#utility.yul\":5297:5320   */\n      swap1\n      pop\n        /* \"#utility.yul\":5019:5327   */\n      swap2\n      swap1\n      pop\n      jump\t// out\n        /* \"#utility.yul\":5333:5481   */\n    tag_67:\n        /* \"#utility.yul\":5431:5437   */\n      dup3\n        /* \"#utility.yul\":5426:5429   */\n      dup2\n        /* \"#utility.yul\":5421:5424   */\n      dup4\n        /* \"#utility.yul\":5408:5438   */\n      calldatacopy\n        /* \"#utility.yul\":5472:5473   */\n      0x00\n        /* \"#utility.yul\":5463:5469   */\n      dup4\n        /* \"#utility.yul\":5458:5461   */\n      dup4\n        /* \"#utility.yul\":5454:5470   */\n      add\n        /* \"#utility.yul\":5447:5474   */\n      mstore\n        /* \"#utility.yul\":5333:5481   */\n      pop\n      pop\n      pop\n      jump\t// out\n        /* \"#utility.yul\":5487:5912   */\n    tag_68:\n        /* \"#utility.yul\":5565:5570   */\n      0x00\n        /* \"#utility.yul\":5590:5656   */\n      tag_143\n        /* \"#utility.yul\":5606:5655   */\n      tag_144\n        /* \"#utility.yul\":5648:5654   */\n      dup5\n        /* \"#utility.yul\":5606:5655   */\n      tag_66\n      jump\t// in\n    tag_144:\n        /* \"#utility.yul\":5590:5656   */\n      tag_65\n      jump\t// in\n    tag_143:\n        /* \"#utility.yul\":5581:5656   */\n      swap1\n      pop\n        /* \"#utility.yul\":5679:5685   */\n      dup3\n        /* \"#utility.yul\":5672:5677   */\n      dup2\n        /* \"#utility.yul\":5665:5686   */\n      mstore\n        /* \"#utility.yul\":5717:5721   */\n      0x20\n        /* \"#utility.yul\":5710:5715   */\n      dup2\n        /* \"#utility.yul\":5706:5722   */\n      add\n        /* \"#utility.yul\":5755:5758   */\n      dup5\n        /* \"#utility.yul\":5746:5752   */\n      dup5\n        /* \"#utility.yul\":5741:5744   */\n      dup5\n        /* \"#utility.yul\":5737:5753   */\n      add\n        /* \"#utility.yul\":5734:5759   */\n      gt\n        /* \"#utility.yul\":5731:5843   */\n      iszero\n      tag_145\n      jumpi\n        /* \"#utility.yul\":5762:5841   */\n      tag_146\n      tag_62\n      jump\t// in\n    tag_146:\n        /* \"#utility.yul\":5731:5843   */\n    tag_145:\n        /* \"#utility.yul\":5852:5906   */\n      tag_147\n        /* \"#utility.yul\":5899:5905   */\n      dup5\n        /* \"#utility.yul\":5894:5897   */\n      dup3\n        /* \"#utility.yul\":5889:5892   */\n      dup6\n        /* \"#utility.yul\":5852:5906   */\n      tag_67\n      jump\t// in\n    tag_147:\n        /* \"#utility.yul\":5571:5912   */\n      pop\n        /* \"#utility.yul\":5487:5912   */\n      swap4\n      swap3\n      pop\n      pop\n      pop\n      jump\t// out\n        /* \"#utility.yul\":5932:6272   */\n    tag_69:\n        /* \"#utility.yul\":5988:5993   */\n      0x00\n        /* \"#utility.yul\":6037:6040   */\n      dup3\n        /* \"#utility.yul\":6030:6034   */\n      0x1f\n        /* \"#utility.yul\":6022:6028   */\n      dup4\n        /* \"#utility.yul\":6018:6035   */\n      add\n        /* \"#utility.yul\":6014:6041   */\n      slt\n        /* \"#utility.yul\":6004:6126   */\n      tag_149\n      jumpi\n        /* \"#utility.yul\":6045:6124   */\n      tag_150\n      tag_61\n      jump\t// in\n    tag_150:\n        /* \"#utility.yul\":6004:6126   */\n    tag_149:\n        /* \"#utility.yul\":6162:6168   */\n      dup2\n        /* \"#utility.yul\":6149:6169   */\n      calldataload\n        /* \"#utility.yul\":6187:6266   */\n      tag_151\n        /* \"#utility.yul\":6262:6265   */\n      dup5\n        /* \"#utility.yul\":6254:6260   */\n      dup3\n        /* \"#utility.yul\":6247:6251   */\n      0x20\n        /* \"#utility.yul\":6239:6245   */\n      dup7\n        /* \"#utility.yul\":6235:6252   */\n      add\n        /* \"#utility.yul\":6187:6266   */\n      tag_68\n      jump\t// in\n    tag_151:\n        /* \"#utility.yul\":6178:6266   */\n      swap2\n      pop\n        /* \"#utility.yul\":5994:6272   */\n      pop\n        /* \"#utility.yul\":5932:6272   */\n      swap3\n      swap2\n      pop\n      pop\n      jump\t// out\n        /* \"#utility.yul\":6278:6932   */\n    tag_19:\n        /* \"#utility.yul\":6356:6362   */\n      0x00\n        /* \"#utility.yul\":6364:6370   */\n      0x00\n        /* \"#utility.yul\":6413:6415   */\n      0x40\n        /* \"#utility.yul\":6401:6410   */\n      dup4\n        /* \"#utility.yul\":6392:6399   */\n      dup6\n        /* \"#utility.yul\":6388:6411   */\n      sub\n        /* \"#utility.yul\":6384:6416   */\n      slt\n        /* \"#utility.yul\":6381:6500   */\n      iszero\n      tag_153\n      jumpi\n        /* \"#utility.yul\":6419:6498   */\n      tag_154\n      tag_46\n      jump\t// in\n    tag_154:\n        /* \"#utility.yul\":6381:6500   */\n    tag_153:\n        /* \"#utility.yul\":6539:6540   */\n      0x00\n        /* \"#utility.yul\":6564:6617   */\n      tag_155\n        /* \"#utility.yul\":6609:6616   */\n      dup6\n        /* \"#utility.yul\":6600:6606   */\n      dup3\n        /* \"#utility.yul\":6589:6598   */\n      dup7\n        /* \"#utility.yul\":6585:6607   */\n      add\n        /* \"#utility.yul\":6564:6617   */\n      tag_50\n      jump\t// in\n    tag_155:\n        /* \"#utility.yul\":6554:6617   */\n      swap3\n      pop\n        /* \"#utility.yul\":6510:6627   */\n      pop\n        /* \"#utility.yul\":6694:6696   */\n      0x20\n        /* \"#utility.yul\":6683:6692   */\n      dup4\n        /* \"#utility.yul\":6679:6697   */\n      add\n        /* \"#utility.yul\":6666:6698   */\n      calldataload\n        /* \"#utility.yul\":6725:6743   */\n      0xffffffffffffffff\n        /* \"#utility.yul\":6717:6723   */\n      dup2\n        /* \"#utility.yul\":6714:6744   */\n      gt\n        /* \"#utility.yul\":6711:6828   */\n      iszero\n      tag_156\n      jumpi\n        /* \"#utility.yul\":6747:6826   */\n      tag_157\n      tag_47\n      jump\t// in\n    tag_157:\n        /* \"#utility.yul\":6711:6828   */\n    tag_156:\n        /* \"#utility.yul\":6852:6915   */\n      tag_158\n        /* \"#utility.yul\":6907:6914   */\n      dup6\n        /* \"#utility.yul\":6898:6904   */\n      dup3\n        /* \"#utility.yul\":6887:6896   */\n      dup7\n        /* \"#utility.yul\":6883:6905   */\n      add\n        /* \"#utility.yul\":6852:6915   */\n      tag_69\n      jump\t// in\n    tag_158:\n        /* \"#utility.yul\":6842:6915   */\n      swap2\n      pop\n        /* \"#utility.yul\":6637:6925   */\n      pop\n        /* \"#utility.yul\":6278:6932   */\n      swap3\n      pop\n      swap3\n      swap1\n      pop\n      jump\t// out\n        /* \"#utility.yul\":6938:7118   */\n    tag_70:\n        /* \"#utility.yul\":6986:7063   */\n      0x4e487b7100000000000000000000000000000000000000000000000000000000\n        /* \"#utility.yul\":6983:6984   */\n      0x00\n        /* \"#utility.yul\":6976:7064   */\n      mstore\n        /* \"#utility.yul\":7083:7087   */\n      0x22\n        /* \"#utility.yul\":7080:7081   */\n      0x04\n        /* \"#utility.yul\":7073:7088   */\n      mstore\n        /* \"#utility.yul\":7107:7111   */\n      0x24\n        /* \"#utility.yul\":7104:7105   */\n      0x00\n        /* \"#utility.yul\":7097:7112   */\n      revert\n        /* \"#utility.yul\":7124:7444   */\n    tag_24:\n        /* \"#utility.yul\":7168:7174   */\n      0x00\n        /* \"#utility.yul\":7205:7206   */\n      0x02\n        /* \"#utility.yul\":7199:7203   */\n      dup3\n        /* \"#utility.yul\":7195:7207   */\n      div\n        /* \"#utility.yul\":7185:7207   */\n      swap1\n      pop\n        /* \"#utility.yul\":7252:7253   */\n      0x01\n        /* \"#utility.yul\":7246:7250   */\n      dup3\n        /* \"#utility.yul\":7242:7254   */\n      and\n        /* \"#utility.yul\":7273:7291   */\n      dup1\n        /* \"#utility.yul\":7263:7344   */\n      tag_161\n      jumpi\n        /* \"#utility.yul\":7329:7333   */\n      0x7f\n        /* \"#utility.yul\":7321:7327   */\n      dup3\n        /* \"#utility.yul\":7317:7334   */\n      and\n        /* \"#utility.yul\":7307:7334   */\n      swap2\n      pop\n        /* \"#utility.yul\":7263:7344   */\n    tag_161:\n        /* \"#utility.yul\":7391:7393   */\n      0x20\n        /* \"#utility.yul\":7383:7389   */\n      dup3\n        /* \"#utility.yul\":7380:7394   */\n      lt\n        /* \"#utility.yul\":7360:7378   */\n      dup2\n        /* \"#utility.yul\":7357:7395   */\n      sub\n        /* \"#utility.yul\":7354:7438   */\n      tag_162\n      jumpi\n        /* \"#utility.yul\":7410:7428   */\n      tag_163\n      tag_70\n      jump\t// in\n    tag_163:\n        /* \"#utility.yul\":7354:7438   */\n    tag_162:\n        /* \"#utility.yul\":7175:7444   */\n      pop\n        /* \"#utility.yul\":7124:7444   */\n      swap2\n      swap1\n      pop\n      jump\t// out\n        /* \"#utility.yul\":7450:7630   */\n    tag_34:\n        /* \"#utility.yul\":7498:7575   */\n      0x4e487b7100000000000000000000000000000000000000000000000000000000\n        /* \"#utility.yul\":7495:7496   */\n      0x00\n        /* \"#utility.yul\":7488:7576   */\n      mstore\n        /* \"#utility.yul\":7595:7599   */\n      0x32\n        /* \"#utility.yul\":7592:7593   */\n      0x04\n        /* \"#utility.yul\":7585:7600   */\n      mstore\n        /* \"#utility.yul\":7619:7623   */\n      0x24\n        /* \"#utility.yul\":7616:7617   */\n      0x00\n        /* \"#utility.yul\":7609:7624   */\n      revert\n        /* \"#utility.yul\":7636:7777   */\n    tag_71:\n        /* \"#utility.yul\":7685:7689   */\n      0x00\n        /* \"#utility.yul\":7708:7711   */\n      dup2\n        /* \"#utility.yul\":7700:7711   */\n      swap1\n      pop\n        /* \"#utility.yul\":7731:7734   */\n      dup2\n        /* \"#utility.yul\":7728:7729   */\n      0x00\n        /* \"#utility.yul\":7721:7735   */\n      mstore\n        /* \"#utility.yul\":7765:7769   */\n      0x20\n        /* \"#utility.yul\":7762:7763   */\n      0x00\n        /* \"#utility.yul\":7752:7770   */\n      keccak256\n        /* \"#utility.yul\":7744:7770   */\n      swap1\n      pop\n        /* \"#utility.yul\":7636:7777   */\n      swap2\n      swap1\n      pop\n      jump\t// out\n        /* \"#utility.yul\":7783:7876   */\n    tag_72:\n        /* \"#utility.yul\":7820:7826   */\n      0x00\n        /* \"#utility.yul\":7867:7869   */\n      0x20\n        /* \"#utility.yul\":7862:7864   */\n      0x1f\n        /* \"#utility.yul\":7855:7860   */\n      dup4\n        /* \"#utility.yul\":7851:7865   */\n      add\n        /* \"#utility.yul\":7847:7870   */\n      div\n        /* \"#utility.yul\":7837:7870   */\n      swap1\n      pop\n        /* \"#utility.yul\":7783:7876   */\n      swap2\n      swap1\n      pop\n      jump\t// out\n        /* \"#utility.yul\":7882:7989   */\n    tag_73:\n        /* \"#utility.yul\":7926:7934   */\n      0x00\n        /* \"#utility.yul\":7976:7981   */\n      dup3\n        /* \"#utility.yul\":7970:7974   */\n      dup3\n        /* \"#utility.yul\":7966:7982   */\n      shl\n        /* \"#utility.yul\":7945:7982   */\n      swap1\n      pop\n        /* \"#utility.yul\":7882:7989   */\n      swap3\n      swap2\n      pop\n      pop\n      jump\t// out\n        /* \"#utility.yul\":7995:8388   */\n    tag_74:\n        /* \"#utility.yul\":8064:8070   */\n      0x00\n        /* \"#utility.yul\":8114:8115   */\n      0x08\n        /* \"#utility.yul\":8102:8112   */\n      dup4\n        /* \"#utility.yul\":8098:8116   */\n      mul\n        /* \"#utility.yul\":8137:8234   */\n      tag_169\n        /* \"#utility.yul\":8167:8233   */\n      0xffffffffffffffffffffffffffffffffffffffffffffffffffffffffffffffff\n        /* \"#utility.yul\":8156:8165   */\n      dup3\n        /* \"#utility.yul\":8137:8234   */\n      tag_73\n      jump\t// in\n    tag_169:\n        /* \"#utility.yul\":8255:8294   */\n      tag_170\n        /* \"#utility.yul\":8285:8293   */\n      dup7\n        /* \"#utility.yul\":8274:8283   */\n      dup4\n        /* \"#utility.yul\":8255:8294   */\n      tag_73\n      jump\t// in\n    tag_170:\n        /* \"#utility.yul\":8243:8294   */\n      swap6\n      pop\n        /* \"#utility.yul\":8327:8331   */\n      dup1\n        /* \"#utility.yul\":8323:8332   */\n      not\n        /* \"#utility.yul\":8316:8321   */\n      dup5\n        /* \"#utility.yul\":8312:8333   */\n      and\n        /* \"#utility.yul\":8303:8333   */\n      swap4\n      pop\n        /* \"#utility.yul\":8376:8380   */\n      dup1\n        /* \"#utility.yul\":8366:8374   */\n      dup7\n        /* \"#utility.yul\":8362:8381   */\n      and\n        /* \"#utility.yul\":8355:8360   */\n      dup5\n        /* \"#utility.yul\":8352:8382   */\n      or\n        /* \"#utility.yul\":8342:8382   */\n      swap3\n      pop\n        /* \"#utility.yul\":8071:8388   */\n      pop\n      pop\n        /* \"#utility.yul\":7995:8388   */\n      swap4\n      swap3\n      pop\n      pop\n      pop\n      jump\t// out\n        /* \"#utility.yul\":8394:8454   */\n    tag_75:\n        /* \"#utility.yul\":8422:8425   */\n      0x00\n        /* \"#utility.yul\":8443:8448   */\n      dup2\n        /* \"#utility.yul\":8436:8448   */\n      swap1\n      pop\n        /* \"#utility.yul\":8394:8454   */\n      swap2\n      swap1\n      pop\n      jump\t// out\n        /* \"#utility.yul\":8460:8602   */\n    tag_76:\n        /* \"#utility.yul\":8510:8519   */\n      0x00\n        /* \"#utility.yul\":8543:8596   */\n      tag_173\n        /* \"#utility.yul\":8561:8595   */\n      tag_174\n        /* \"#utility.yul\":8570:8594   */\n      tag_175\n        /* \"#utility.yul\":8588:8593   */\n      dup5\n        /* \"#utility.yul\":8570:8594   */\n      tag_48\n      jump\t// in\n    tag_175:\n        /* \"#utility.yul\":8561:8595   */\n      tag_75\n      jump\t// in\n    tag_174:\n        /* \"#utility.yul\":8543:8596   */\n      tag_48\n      jump\t// in\n    tag_173:\n        /* \"#utility.yul\":8530:8596   */\n      swap1\n      pop\n        /* \"#utility.yul\":8460:8602   */\n      swap2\n      swap1\n      pop\n      jump\t// out\n        /* \"#utility.yul\":8608:8683   */\n    tag_77:\n        /* \"#utility.yul\":8651:8654   */\n      0x00\n        /* \"#utility.yul\":8672:8677   */\n      dup2\n        /* \"#utility.yul\":8665:8677   */\n      swap1\n      pop\n        /* \"#utility.yul\":8608:8683   */\n      swap2\n      swap1\n      pop\n      jump\t// out\n        /* \"#utility.yul\":8689:8958   */\n    tag_78:\n        /* \"#utility.yul\":8799:8838   */\n      tag_178\n        /* \"#utility.yul\":8830:8837   */\n      dup4\n        /* \"#utility.yul\":8799:8838   */\n      tag_76\n      jump\t// in\n    tag_178:\n        /* \"#utility.yul\":8860:8951   */\n      tag_179\n        /* \"#utility.yul\":8909:8950   */\n      tag_180\n        /* \"#utility.yul\":8933:8949   */\n      dup3\n        /* \"#utility.yul\":8909:8950   */\n      tag_77\n      jump\t// in\n    tag_180:\n        /* \"#utility.yul\":8901:8907   */\n      dup5\n        /* \"#utility.yul\":8894:8898   */\n      dup5\n        /* \"#utility.yul\":8888:8899   */\n      sload\n        /* \"#utility.yul\":8860:8951   */\n      tag_74\n      jump\t// in\n    tag_179:\n        /* \"#utility.yul\":8854:8858   */\n      dup3\n        /* \"#utility.yul\":8847:8952   */\n      sstore\n        /* \"#utility.yul\":8765:8958   */\n      pop\n        /* \"#utility.yul\":8689:8958   */\n      pop\n      pop\n      pop\n      jump\t// out\n        /* \"#utility.yul\":8964:9037   */\n    tag_79:\n        /* \"#utility.yul\":9009:9012   */\n      0x00\n        /* \"#utility.yul\":9030:9031   */\n      0x00\n        /* \"#utility.yul\":9023:9031   */\n      swap1\n      pop\n        /* \"#utility.yul\":8964:9037   */\n      swap1\n      jump\t// out\n        /* \"#utility.yul\":9043:9232   */\n    tag_80:\n        /* \"#utility.yul\":9120:9152   */\n      tag_183\n      tag_79\n      jump\t// in\n    tag_183:\n        /* \"#utility.yul\":9161:9226   */\n      tag_184\n        /* \"#utility.yul\":9219:9225   */\n      dup2\n        /* \"#utility.yul\":9211:9217   */\n      dup5\n        /* \"#utility.yul\":9205:9209   */\n      dup5\n        /* \"#utility.yul\":9161:9226   */\n      tag_78\n      jump\t// in\n    tag_184:\n        /* \"#utility.yul\":9096:9232   */\n      pop\n        /* \"#utility.yul\":9043:9232   */\n      pop\n      pop\n      jump\t// out\n        /* \"#utility.yul\":9238:9424   */\n    tag_81:\n        /* \"#utility.yul\":9298:9418   */\n    tag_186:\n        /* \"#utility.yul\":9315:9318   */\n      dup2\n        /* \"#utility.yul\":9308:9313   */\n      dup2\n        /* \"#utility.yul\":9305:9319   */\n      lt\n        /* \"#utility.yul\":9298:9418   */\n      iszero\n      tag_188\n      jumpi\n        /* \"#utility.yul\":9369:9408   */\n      tag_189\n        /* \"#utility.yul\":9406:9407   */\n      0x00\n        /* \"#utility.yul\":9399:9404   */\n      dup3\n        /* \"#utility.yul\":9369:9408   */\n      tag_80\n      jump\t// in\n    tag_189:\n        /* \"#utility.yul\":9342:9343   */\n      0x01\n        /* \"#utility.yul\":9335:9340   */\n      dup2\n        /* \"#utility.yul\":9331:9344   */\n      add\n        /* \"#utility.yul\":9322:9344   */\n      swap1\n      pop\n        /* \"#utility.yul\":9298:9418   */\n      jump(tag_186)\n    tag_188:\n        /* \"#utility.yul\":9238:9424   */\n      pop\n      pop\n      jump\t// out\n        /* \"#utility.yul\":9430:9973   */\n    tag_82:\n        /* \"#utility.yul\":9531:9533   */\n      0x1f\n        /* \"#utility.yul\":9526:9529   */\n      dup3\n        /* \"#utility.yul\":9523:9534   */\n      gt\n        /* \"#utility.yul\":9520:9966   */\n      iszero\n      tag_191\n      jumpi\n        /* \"#utility.yul\":9565:9603   */\n      tag_192\n        /* \"#utility.yul\":9597:9602   */\n      dup2\n        /* \"#utility.yul\":9565:9603   */\n      tag_71\n      jump\t// in\n    tag_192:\n        /* \"#utility.yul\":9649:9678   */\n      tag_193\n        /* \"#utility.yul\":9667:9677   */\n      dup5\n        /* \"#utility.yul\":9649:9678   */\n      tag_72\n      jump\t// in\n    tag_193:\n        /* \"#utility.yul\":9639:9647   */\n      dup2\n        /* \"#utility.yul\":9635:9679   */\n      add\n        /* \"#utility.yul\":9832:9834   */\n      0x20\n        /* \"#utility.yul\":9820:9830   */\n      dup6\n        /* \"#utility.yul\":9817:9835   */\n      lt\n        /* \"#utility.yul\":9814:9863   */\n      iszero\n      tag_194\n      jumpi\n        /* \"#utility.yul\":9853:9861   */\n      dup2\n        /* \"#utility.yul\":9838:9861   */\n      swap1\n      pop\n        /* \"#utility.yul\":9814:9863   */\n    tag_194:\n        /* \"#utility.yul\":9876:9956   */\n      tag_195\n        /* \"#utility.yul\":9932:9954   */\n      tag_196\n        /* \"#utility.yul\":9950:9953   */\n      dup6\n        /* \"#utility.yul\":9932:9954   */\n      tag_72\n      jump\t// in\n    tag_196:\n        /* \"#utility.yul\":9922:9930   */\n      dup4\n        /* \"#utility.yul\":9918:9955   */\n      add\n        /* \"#utility.yul\":9905:9916   */\n      dup3\n        /* \"#utility.yul\":9876:9956   */\n      tag_81\n      jump\t// in\n    tag_195:\n        /* \"#utility.yul\":9535:9966   */\n      pop\n      pop\n        /* \"#utility.yul\":9520:9966   */\n    tag_191:\n        /* \"#utility.yul\":9430:9973   */\n      pop\n      pop\n      pop\n      jump\t// out\n        /* \"#utility.yul\":9979:10096   */\n    tag_83:\n        /* \"#utility.yul\":10033:10041   */\n      0x00\n        /* \"#utility.yul\":10083:10088   */\n      dup3\n        /* \"#utility.yul\":10077:10081   */\n      dup3\n        /* \"#utility.yul\":10073:10089   */\n      shr\n        /* \"#utility.yul\":10052:10089   */\n      swap1\n      pop\n        /* \"#utility.yul\":9979:10096   */\n      swap3\n      swap2\n      pop\n      pop\n      jump\t// out\n        /* \"#utility.yul\":10102:10271   */\n    tag_84:\n        /* \"#utility.yul\":10146:10152   */\n      0x00\n        /* \"#utility.yul\":10179:10230   */\n      tag_199\n        /* \"#utility.yul\":10227:10228   */\n      0x00\n        /* \"#utility.yul\":10223:10229   */\n      not\n        /* \"#utility.yul\":10215:10220   */\n      dup5\n        /* \"#utility.yul\":10212:10213   */\n      0x08\n        /* \"#utility.yul\":10208:10221   */\n      mul\n        /* \"#utility.yul\":10179:10230   */\n      tag_83\n      jump\t// in\n    tag_199:\n        /* \"#utility.yul\":10175:10231   */\n      not\n        /* \"#utility.yul\":10260:10264   */\n      dup1\n        /* \"#utility.yul\":10254:10258   */\n      dup4\n        /* \"#utility.yul\":10250:10265   */\n      and\n        /* \"#utility.yul\":10240:10265   */\n      swap2\n      pop\n        /* \"#utility.yul\":10153:10271   */\n      pop\n        /* \"#utility.yul\":10102:10271   */\n      swap3\n      swap2\n      pop\n      pop\n      jump\t// out\n        /* \"#utility.yul\":10276:10571   */\n    tag_85:\n        /* \"#utility.yul\":10352:10356   */\n      0x00\n        /* \"#utility.yul\":10498:10527   */\n      tag_201\n        /* \"#utility.yul\":10523:10526   */\n      dup4\n        /* \"#utility.yul\":10517:10521   */\n      dup4\n        /* \"#utility.yul\":10498:10527   */\n      tag_84\n      jump\t// in\n    tag_201:\n        /* \"#utility.yul\":10490:10527   */\n      swap2\n      pop\n        /* \"#utility.yul\":10560:10563   */\n      dup3\n        /* \"#utility.yul\":10557:10558   */\n      0x02\n        /* \"#utility.yul\":10553:10564   */\n      mul\n        /* \"#utility.yul\":10547:10551   */\n      dup3\n        /* \"#utility.yul\":10544:10565   */\n      or\n        /* \"#utility.yul\":10536:10565   */\n      swap1\n      pop\n        /* \"#utility.yul\":10276:10571   */\n      swap3\n      swap2\n      pop\n      pop\n      jump\t// out\n        /* \"#utility.yul\":10576:11971   */\n    tag_44:\n        /* \"#utility.yul\":10693:10730   */\n      tag_203\n        /* \"#utility.yul\":10726:10729   */\n      dup3\n        /* \"#utility.yul\":10693:10730   */\n      tag_52\n      jump\t// in\n    tag_203:\n        /* \"#utility.yul\":10795:10813   */\n      0xffffffffffffffff\n        /* \"#utility.yul\":10787:10793   */\n      dup2\n        /* \"#utility.yul\":10784:10814   */\n      gt\n        /* \"#utility.yul\":10781:10837   */\n      iszero\n      tag_204\n      jumpi\n        /* \"#utility.yul\":10817:10835   */\n      tag_205\n      tag_63\n      jump\t// in\n    tag_205:\n        /* \"#utility.yul\":10781:10837   */\n    tag_204:\n        /* \"#utility.yul\":10861:10899   */\n      tag_206\n        /* \"#utility.yul\":10893:10897   */\n      dup3\n        /* \"#utility.yul\":10887:10898   */\n      sload\n        /* \"#utility.yul\":10861:10899   */\n      tag_24\n      jump\t// in\n    tag_206:\n        /* \"#utility.yul\":10946:11013   */\n      tag_207\n        /* \"#utility.yul\":11006:11012   */\n      dup3\n        /* \"#utility.yul\":10998:11004   */\n      dup3\n        /* \"#utility.yul\":10992:10996   */\n      dup6\n        /* \"#utility.yul\":10946:11013   */\n      tag_82\n      jump\t// in\n    tag_207:\n        /* \"#utility.yul\":11040:11041   */\n      0x00\n        /* \"#utility.yul\":11064:11068   */\n      0x20\n        /* \"#utility.yul\":11051:11068   */\n      swap1\n      pop\n        /* \"#utility.yul\":11096:11098   */\n      0x1f\n        /* \"#utility.yul\":11088:11094   */\n      dup4\n        /* \"#utility.yul\":11085:11099   */\n      gt\n        /* \"#utility.yul\":11113:11114   */\n      0x01\n        /* \"#utility.yul\":11108:11726   */\n      dup2\n      eq\n      tag_209\n      jumpi\n        /* \"#utility.yul\":11770:11771   */\n      0x00\n        /* \"#utility.yul\":11787:11793   */\n      dup5\n        /* \"#utility.yul\":11784:11861   */\n      iszero\n      tag_210\n      jumpi\n        /* \"#utility.yul\":11836:11845   */\n      dup3\n        /* \"#utility.yul\":11831:11834   */\n      dup8\n        /* \"#utility.yul\":11827:11846   */\n      add\n        /* \"#utility.yul\":11821:11847   */\n      mload\n        /* \"#utility.yul\":11812:11847   */\n      swap1\n      pop\n        /* \"#utility.yul\":11784:11861   */\n    tag_210:\n        /* \"#utility.yul\":11887:11954   */\n      tag_211\n        /* \"#utility.yul\":11947:11953   */\n      dup6\n        /* \"#utility.yul\":11940:11945   */\n      dup3\n        /* \"#utility.yul\":11887:11954   */\n      tag_85\n      jump\t// in\n    tag_211:\n        /* \"#utility.yul\":11881:11885   */\n      dup7\n        /* \"#utility.yul\":11874:11955   */\n      sstore\n        /* \"#utility.yul\":11743:11965   */\n      pop\n        /* \"#utility.yul\":11078:11965   */\n      jump(tag_208)\n        /* \"#utility.yul\":11108:11726   */\n    tag_209:\n        /* \"#utility.yul\":11160:11164   */\n      0x1f\n        /* \"#utility.yul\":11156:11165   */\n      not\n        /* \"#utility.yul\":11148:11154   */\n      dup5\n        /* \"#utility.yul\":11144:11166   */\n      and\n        /* \"#utility.yul\":11194:11231   */\n      tag_212\n        /* \"#utility.yul\":11226:11230   */\n      dup7\n        /* \"#utility.yul\":11194:11231   */\n      tag_71\n      jump\t// in\n    tag_212:\n        /* \"#utility.yul\":11253:11254   */\n      0x00\n        /* \"#utility.yul\":11267:11475   */\n    tag_213:\n        /* \"#utility.yul\":11281:11288   */\n      dup3\n        /* \"#utility.yul\":11278:11279   */\n      dup2\n        /* \"#utility.yul\":11275:11289   */\n      lt\n        /* \"#utility.yul\":11267:11475   */\n      iszero\n      tag_215\n      jumpi\n        /* \"#utility.yul\":11360:11369   */\n      dup5\n        /* \"#utility.yul\":11355:11358   */\n      dup10\n        /* \"#utility.yul\":11351:11370   */\n      add\n        /* \"#utility.yul\":11345:11371   */\n      mload\n        /* \"#utility.yul\":11337:11343   */\n      dup3\n        /* \"#utility.yul\":11330:11372   */\n      sstore\n        /* \"#utility.yul\":11411:11412   */\n      0x01\n        /* \"#utility.yul\":11403:11409   */\n      dup3\n        /* \"#utility.yul\":11399:11413   */\n      add\n        /* \"#utility.yul\":11389:11413   */\n      swap2\n      pop\n        /* \"#utility.yul\":11458:11460   */\n      0x20\n        /* \"#utility.yul\":11447:11456   */\n      dup6\n        /* \"#utility.yul\":11443:11461   */\n      add\n        /* \"#utility.yul\":11430:11461   */\n      swap5\n      pop\n        /* \"#utility.yul\":11304:11308   */\n      0x20\n        /* \"#utility.yul\":11301:11302   */\n      dup2\n        /* \"#utility.yul\":11297:11309   */\n      add\n        /* \"#utility.yul\":11292:11309   */\n      swap1\n      pop\n        /* \"#utility.yul\":11267:11475   */\n      jump(tag_213)\n    tag_215:\n        /* \"#utility.yul\":11503:11509   */\n      dup7\n        /* \"#utility.yul\":11494:11501   */\n      dup4\n        /* \"#utility.yul\":11491:11510   */\n      lt\n        /* \"#utility.yul\":11488:11667   */\n      iszero\n      tag_216\n      jumpi\n        /* \"#utility.yul\":11561:11570   */\n      dup5\n        /* \"#utility.yul\":11556:11559   */\n      dup10\n        /* \"#utility.yul\":11552:11571   */\n      add\n        /* \"#utility.yul\":11546:11572   */\n      mload\n        /* \"#utility.yul\":11604:11652   */\n      tag_217\n        /* \"#utility.yul\":11646:11650   */\n      0x1f\n        /* \"#utility.yul\":11638:11644   */\n      dup10\n        /* \"#utility.yul\":11634:11651   */\n      and\n        /* \"#utility.yul\":11623:11632   */\n      dup3\n        /* \"#utility.yul\":11604:11652   */\n      tag_84\n      jump\t// in\n    tag_217:\n        /* \"#utility.yul\":11596:11602   */\n      dup4\n        /* \"#utility.yul\":11589:11653   */\n      sstore\n        /* \"#utility.yul\":11511:11667   */\n      pop\n        /* \"#utility.yul\":11488:11667   */\n    tag_216:\n        /* \"#utility.yul\":11713:11714   */\n      0x01\n        /* \"#utility.yul\":11709:11710   */\n      0x02\n        /* \"#utility.yul\":11701:11707   */\n      dup9\n        /* \"#utility.yul\":11697:11711   */\n      mul\n        /* \"#utility.yul\":11693:11715   */\n      add\n        /* \"#utility.yul\":11687:11691   */\n      dup9\n        /* \"#utility.yul\":11680:11716   */\n      sstore\n        /* \"#utility.yul\":11115:11726   */\n      pop\n      pop\n      pop\n        /* \"#utility.yul\":11078:11965   */\n    tag_208:\n      pop\n        /* \"#utility.yul\":10668:11971   */\n      pop\n      pop\n      pop\n        /* \"#utility.yul\":10576:11971   */\n      pop\n      pop\n      jump\t// out\n\n    auxdata: 0xa26469706673582212201f01982019949bacca2f39d2b653f3b366bb551b19d9314a1e74be1055017c1164736f6c634300081c0033\n}\n",
				"bytecode": {
					"linkReferences": {},
					"object": "6080604052348015600e575f5ffd5b506109418061001c5f395ff3fe608060405234801561000f575f5ffd5b506004361061003f575f3560e01c8063448a8e1e1461004357806360fe47b114610074578063805da4ad146100a4575b5f5ffd5b61005d60048036038101906100589190610303565b6100c0565b60405161006b9291906103ad565b60405180910390f35b61008e60048036038101906100899190610303565b610174565b60405161009b919061046c565b60405180910390f35b6100be60048036038101906100b991906105b8565b610246565b005b5f81815481106100ce575f80fd5b905f5260205f2090600202015f91509050805f0154908060010180546100f39061063f565b80601f016020809104026020016040519081016040528092919081815260200182805461011f9061063f565b801561016a5780601f106101415761010080835404028352916020019161016a565b820191905f5260205f20905b81548152906001019060200180831161014d57829003601f168201915b5050505050905082565b61017c6102a6565b5f828154811061018f5761018e61066f565b5b905f5260205f2090600202016040518060400160405290815f82015481526020016001820180546101bf9061063f565b80601f01602080910402602001604051908101604052809291908181526020018280546101eb9061063f565b80156102365780601f1061020d57610100808354040283529160200191610236565b820191905f5260205f20905b81548152906001019060200180831161021957829003601f168201915b5050505050815250509050919050565b5f604051806040016040528084815260200183815250908060018154018082558091505060019003905f5260205f2090600202015f909190919091505f820151815f0155602082015181600101908161029f919061083c565b5050505050565b60405180604001604052805f8152602001606081525090565b5f604051905090565b5f5ffd5b5f5ffd5b5f819050919050565b6102e2816102d0565b81146102ec575f5ffd5b50565b5f813590506102fd816102d9565b92915050565b5f60208284031215610318576103176102c8565b5b5f610325848285016102ef565b91505092915050565b610337816102d0565b82525050565b5f81519050919050565b5f82825260208201905092915050565b8281835e5f83830152505050565b5f601f19601f8301169050919050565b5f61037f8261033d565b6103898185610347565b9350610399818560208601610357565b6103a281610365565b840191505092915050565b5f6040820190506103c05f83018561032e565b81810360208301526103d28184610375565b90509392505050565b6103e4816102d0565b82525050565b5f82825260208201905092915050565b5f6104048261033d565b61040e81856103ea565b935061041e818560208601610357565b61042781610365565b840191505092915050565b5f604083015f8301516104475f8601826103db565b506020830151848203602086015261045f82826103fa565b9150508091505092915050565b5f6020820190508181035f8301526104848184610432565b905092915050565b5f5ffd5b5f5ffd5b7f4e487b71000000000000000000000000000000000000000000000000000000005f52604160045260245ffd5b6104ca82610365565b810181811067ffffffffffffffff821117156104e9576104e8610494565b5b80604052505050565b5f6104fb6102bf565b905061050782826104c1565b919050565b5f67ffffffffffffffff82111561052657610525610494565b5b61052f82610365565b9050602081019050919050565b828183375f83830152505050565b5f61055c6105578461050c565b6104f2565b90508281526020810184848401111561057857610577610490565b5b61058384828561053c565b509392505050565b5f82601f83011261059f5761059e61048c565b5b81356105af84826020860161054a565b91505092915050565b5f5f604083850312156105ce576105cd6102c8565b5b5f6105db858286016102ef565b925050602083013567ffffffffffffffff8111156105fc576105fb6102cc565b5b6106088582860161058b565b9150509250929050565b7f4e487b71000000000000000000000000000000000000000000000000000000005f52602260045260245ffd5b5f600282049050600182168061065657607f821691505b60208210810361066957610668610612565b5b50919050565b7f4e487b71000000000000000000000000000000000000000000000000000000005f52603260045260245ffd5b5f819050815f5260205f209050919050565b5f6020601f8301049050919050565b5f82821b905092915050565b5f600883026106f87fffffffffffffffffffffffffffffffffffffffffffffffffffffffffffffffff826106bd565b61070286836106bd565b95508019841693508086168417925050509392505050565b5f819050919050565b5f61073d610738610733846102d0565b61071a565b6102d0565b9050919050565b5f819050919050565b61075683610723565b61076a61076282610744565b8484546106c9565b825550505050565b5f5f905090565b610781610772565b61078c81848461074d565b505050565b5b818110156107af576107a45f82610779565b600181019050610792565b5050565b601f8211156107f4576107c58161069c565b6107ce846106ae565b810160208510156107dd578190505b6107f16107e9856106ae565b830182610791565b50505b505050565b5f82821c905092915050565b5f6108145f19846008026107f9565b1980831691505092915050565b5f61082c8383610805565b9150826002028217905092915050565b6108458261033d565b67ffffffffffffffff81111561085e5761085d610494565b5b610868825461063f565b6108738282856107b3565b5f60209050601f8311600181146108a4575f8415610892578287015190505b61089c8582610821565b865550610903565b601f1984166108b28661069c565b5f5b828110156108d9578489015182556001820191506020850194506020810190506108b4565b868310156108f657848901516108f2601f891682610805565b8355505b6001600288020188555050505b50505050505056fea26469706673582212201f01982019949bacca2f39d2b653f3b366bb551b19d9314a1e74be1055017c1164736f6c634300081c0033",
					"opcodes": "PUSH1 0x80 PUSH1 0x40 MSTORE CALLVALUE DUP1 ISZERO PUSH1 0xE JUMPI PUSH0 PUSH0 REVERT JUMPDEST POP PUSH2 0x941 DUP1 PUSH2 0x1C PUSH0 CODECOPY PUSH0 RETURN INVALID PUSH1 0x80 PUSH1 0x40 MSTORE CALLVALUE DUP1 ISZERO PUSH2 0xF JUMPI PUSH0 PUSH0 REVERT JUMPDEST POP PUSH1 0x4 CALLDATASIZE LT PUSH2 0x3F JUMPI PUSH0 CALLDATALOAD PUSH1 0xE0 SHR DUP1 PUSH4 0x448A8E1E EQ PUSH2 0x43 JUMPI DUP1 PUSH4 0x60FE47B1 EQ PUSH2 0x74 JUMPI DUP1 PUSH4 0x805DA4AD EQ PUSH2 0xA4 JUMPI JUMPDEST PUSH0 PUSH0 REVERT JUMPDEST PUSH2 0x5D PUSH1 0x4 DUP1 CALLDATASIZE SUB DUP2 ADD SWAP1 PUSH2 0x58 SWAP2 SWAP1 PUSH2 0x303 JUMP JUMPDEST PUSH2 0xC0 JUMP JUMPDEST PUSH1 0x40 MLOAD PUSH2 0x6B SWAP3 SWAP2 SWAP1 PUSH2 0x3AD JUMP JUMPDEST PUSH1 0x40 MLOAD DUP1 SWAP2 SUB SWAP1 RETURN JUMPDEST PUSH2 0x8E PUSH1 0x4 DUP1 CALLDATASIZE SUB DUP2 ADD SWAP1 PUSH2 0x89 SWAP2 SWAP1 PUSH2 0x303 JUMP JUMPDEST PUSH2 0x174 JUMP JUMPDEST PUSH1 0x40 MLOAD PUSH2 0x9B SWAP2 SWAP1 PUSH2 0x46C JUMP JUMPDEST PUSH1 0x40 MLOAD DUP1 SWAP2 SUB SWAP1 RETURN JUMPDEST PUSH2 0xBE PUSH1 0x4 DUP1 CALLDATASIZE SUB DUP2 ADD SWAP1 PUSH2 0xB9 SWAP2 SWAP1 PUSH2 0x5B8 JUMP JUMPDEST PUSH2 0x246 JUMP JUMPDEST STOP JUMPDEST PUSH0 DUP2 DUP2 SLOAD DUP2 LT PUSH2 0xCE JUMPI PUSH0 DUP1 REVERT JUMPDEST SWAP1 PUSH0 MSTORE PUSH1 0x20 PUSH0 KECCAK256 SWAP1 PUSH1 0x2 MUL ADD PUSH0 SWAP2 POP SWAP1 POP DUP1 PUSH0 ADD SLOAD SWAP1 DUP1 PUSH1 0x1 ADD DUP1 SLOAD PUSH2 0xF3 SWAP1 PUSH2 0x63F JUMP JUMPDEST DUP1 PUSH1 0x1F ADD PUSH1 0x20 DUP1 SWAP2 DIV MUL PUSH1 0x20 ADD PUSH1 0x40 MLOAD SWAP1 DUP2 ADD PUSH1 0x40 MSTORE DUP1 SWAP3 SWAP2 SWAP1 DUP2 DUP2 MSTORE PUSH1 0x20 ADD DUP3 DUP1 SLOAD PUSH2 0x11F SWAP1 PUSH2 0x63F JUMP JUMPDEST DUP1 ISZERO PUSH2 0x16A JUMPI DUP1 PUSH1 0x1F LT PUSH2 0x141 JUMPI PUSH2 0x100 DUP1 DUP4 SLOAD DIV MUL DUP4 MSTORE SWAP2 PUSH1 0x20 ADD SWAP2 PUSH2 0x16A JUMP JUMPDEST DUP3 ADD SWAP2 SWAP1 PUSH0 MSTORE PUSH1 0x20 PUSH0 KECCAK256 SWAP1 JUMPDEST DUP2 SLOAD DUP2 MSTORE SWAP1 PUSH1 0x1 ADD SWAP1 PUSH1 0x20 ADD DUP1 DUP4 GT PUSH2 0x14D JUMPI DUP3 SWAP1 SUB PUSH1 0x1F AND DUP3 ADD SWAP2 JUMPDEST POP POP POP POP POP SWAP1 POP DUP3 JUMP JUMPDEST PUSH2 0x17C PUSH2 0x2A6 JUMP JUMPDEST PUSH0 DUP3 DUP2 SLOAD DUP2 LT PUSH2 0x18F JUMPI PUSH2 0x18E PUSH2 0x66F JUMP JUMPDEST JUMPDEST SWAP1 PUSH0 MSTORE PUSH1 0x20 PUSH0 KECCAK256 SWAP1 PUSH1 0x2 MUL ADD PUSH1 0x40 MLOAD DUP1 PUSH1 0x40 ADD PUSH1 0x40 MSTORE SWAP1 DUP2 PUSH0 DUP3 ADD SLOAD DUP2 MSTORE PUSH1 0x20 ADD PUSH1 0x1 DUP3 ADD DUP1 SLOAD PUSH2 0x1BF SWAP1 PUSH2 0x63F JUMP JUMPDEST DUP1 PUSH1 0x1F ADD PUSH1 0x20 DUP1 SWAP2 DIV MUL PUSH1 0x20 ADD PUSH1 0x40 MLOAD SWAP1 DUP2 ADD PUSH1 0x40 MSTORE DUP1 SWAP3 SWAP2 SWAP1 DUP2 DUP2 MSTORE PUSH1 0x20 ADD DUP3 DUP1 SLOAD PUSH2 0x1EB SWAP1 PUSH2 0x63F JUMP JUMPDEST DUP1 ISZERO PUSH2 0x236 JUMPI DUP1 PUSH1 0x1F LT PUSH2 0x20D JUMPI PUSH2 0x100 DUP1 DUP4 SLOAD DIV MUL DUP4 MSTORE SWAP2 PUSH1 0x20 ADD SWAP2 PUSH2 0x236 JUMP JUMPDEST DUP3 ADD SWAP2 SWAP1 PUSH0 MSTORE PUSH1 0x20 PUSH0 KECCAK256 SWAP1 JUMPDEST DUP2 SLOAD DUP2 MSTORE SWAP1 PUSH1 0x1 ADD SWAP1 PUSH1 0x20 ADD DUP1 DUP4 GT PUSH2 0x219 JUMPI DUP3 SWAP1 SUB PUSH1 0x1F AND DUP3 ADD SWAP2 JUMPDEST POP POP POP POP POP DUP2 MSTORE POP POP SWAP1 POP SWAP2 SWAP1 POP JUMP JUMPDEST PUSH0 PUSH1 0x40 MLOAD DUP1 PUSH1 0x40 ADD PUSH1 0x40 MSTORE DUP1 DUP5 DUP2 MSTORE PUSH1 0x20 ADD DUP4 DUP2 MSTORE POP SWAP1 DUP1 PUSH1 0x1 DUP2 SLOAD ADD DUP1 DUP3 SSTORE DUP1 SWAP2 POP POP PUSH1 0x1 SWAP1 SUB SWAP1 PUSH0 MSTORE PUSH1 0x20 PUSH0 KECCAK256 SWAP1 PUSH1 0x2 MUL ADD PUSH0 SWAP1 SWAP2 SWAP1 SWAP2 SWAP1 SWAP2 POP PUSH0 DUP3 ADD MLOAD DUP2 PUSH0 ADD SSTORE PUSH1 0x20 DUP3 ADD MLOAD DUP2 PUSH1 0x1 ADD SWAP1 DUP2 PUSH2 0x29F SWAP2 SWAP1 PUSH2 0x83C JUMP JUMPDEST POP POP POP POP POP JUMP JUMPDEST PUSH1 0x40 MLOAD DUP1 PUSH1 0x40 ADD PUSH1 0x40 MSTORE DUP1 PUSH0 DUP2 MSTORE PUSH1 0x20 ADD PUSH1 0x60 DUP2 MSTORE POP SWAP1 JUMP JUMPDEST PUSH0 PUSH1 0x40 MLOAD SWAP1 POP SWAP1 JUMP JUMPDEST PUSH0 PUSH0 REVERT JUMPDEST PUSH0 PUSH0 REVERT JUMPDEST PUSH0 DUP2 SWAP1 POP SWAP2 SWAP1 POP JUMP JUMPDEST PUSH2 0x2E2 DUP2 PUSH2 0x2D0 JUMP JUMPDEST DUP2 EQ PUSH2 0x2EC JUMPI PUSH0 PUSH0 REVERT JUMPDEST POP JUMP JUMPDEST PUSH0 DUP2 CALLDATALOAD SWAP1 POP PUSH2 0x2FD DUP2 PUSH2 0x2D9 JUMP JUMPDEST SWAP3 SWAP2 POP POP JUMP JUMPDEST PUSH0 PUSH1 0x20 DUP3 DUP5 SUB SLT ISZERO PUSH2 0x318 JUMPI PUSH2 0x317 PUSH2 0x2C8 JUMP JUMPDEST JUMPDEST PUSH0 PUSH2 0x325 DUP5 DUP3 DUP6 ADD PUSH2 0x2EF JUMP JUMPDEST SWAP2 POP POP SWAP3 SWAP2 POP POP JUMP JUMPDEST PUSH2 0x337 DUP2 PUSH2 0x2D0 JUMP JUMPDEST DUP3 MSTORE POP POP JUMP JUMPDEST PUSH0 DUP2 MLOAD SWAP1 POP SWAP2 SWAP1 POP JUMP JUMPDEST PUSH0 DUP3 DUP3 MSTORE PUSH1 0x20 DUP3 ADD SWAP1 POP SWAP3 SWAP2 POP POP JUMP JUMPDEST DUP3 DUP2 DUP4 MCOPY PUSH0 DUP4 DUP4 ADD MSTORE POP POP POP JUMP JUMPDEST PUSH0 PUSH1 0x1F NOT PUSH1 0x1F DUP4 ADD AND SWAP1 POP SWAP2 SWAP1 POP JUMP JUMPDEST PUSH0 PUSH2 0x37F DUP3 PUSH2 0x33D JUMP JUMPDEST PUSH2 0x389 DUP2 DUP6 PUSH2 0x347 JUMP JUMPDEST SWAP4 POP PUSH2 0x399 DUP2 DUP6 PUSH1 0x20 DUP7 ADD PUSH2 0x357 JUMP JUMPDEST PUSH2 0x3A2 DUP2 PUSH2 0x365 JUMP JUMPDEST DUP5 ADD SWAP2 POP POP SWAP3 SWAP2 POP POP JUMP JUMPDEST PUSH0 PUSH1 0x40 DUP3 ADD SWAP1 POP PUSH2 0x3C0 PUSH0 DUP4 ADD DUP6 PUSH2 0x32E JUMP JUMPDEST DUP2 DUP2 SUB PUSH1 0x20 DUP4 ADD MSTORE PUSH2 0x3D2 DUP2 DUP5 PUSH2 0x375 JUMP JUMPDEST SWAP1 POP SWAP4 SWAP3 POP POP POP JUMP JUMPDEST PUSH2 0x3E4 DUP2 PUSH2 0x2D0 JUMP JUMPDEST DUP3 MSTORE POP POP JUMP JUMPDEST PUSH0 DUP3 DUP3 MSTORE PUSH1 0x20 DUP3 ADD SWAP1 POP SWAP3 SWAP2 POP POP JUMP JUMPDEST PUSH0 PUSH2 0x404 DUP3 PUSH2 0x33D JUMP JUMPDEST PUSH2 0x40E DUP2 DUP6 PUSH2 0x3EA JUMP JUMPDEST SWAP4 POP PUSH2 0x41E DUP2 DUP6 PUSH1 0x20 DUP7 ADD PUSH2 0x357 JUMP JUMPDEST PUSH2 0x427 DUP2 PUSH2 0x365 JUMP JUMPDEST DUP5 ADD SWAP2 POP POP SWAP3 SWAP2 POP POP JUMP JUMPDEST PUSH0 PUSH1 0x40 DUP4 ADD PUSH0 DUP4 ADD MLOAD PUSH2 0x447 PUSH0 DUP7 ADD DUP3 PUSH2 0x3DB JUMP JUMPDEST POP PUSH1 0x20 DUP4 ADD MLOAD DUP5 DUP3 SUB PUSH1 0x20 DUP7 ADD MSTORE PUSH2 0x45F DUP3 DUP3 PUSH2 0x3FA JUMP JUMPDEST SWAP2 POP POP DUP1 SWAP2 POP POP SWAP3 SWAP2 POP POP JUMP JUMPDEST PUSH0 PUSH1 0x20 DUP3 ADD SWAP1 POP DUP2 DUP2 SUB PUSH0 DUP4 ADD MSTORE PUSH2 0x484 DUP2 DUP5 PUSH2 0x432 JUMP JUMPDEST SWAP1 POP SWAP3 SWAP2 POP POP JUMP JUMPDEST PUSH0 PUSH0 REVERT JUMPDEST PUSH0 PUSH0 REVERT JUMPDEST PUSH32 0x4E487B7100000000000000000000000000000000000000000000000000000000 PUSH0 MSTORE PUSH1 0x41 PUSH1 0x4 MSTORE PUSH1 0x24 PUSH0 REVERT JUMPDEST PUSH2 0x4CA DUP3 PUSH2 0x365 JUMP JUMPDEST DUP2 ADD DUP2 DUP2 LT PUSH8 0xFFFFFFFFFFFFFFFF DUP3 GT OR ISZERO PUSH2 0x4E9 JUMPI PUSH2 0x4E8 PUSH2 0x494 JUMP JUMPDEST JUMPDEST DUP1 PUSH1 0x40 MSTORE POP POP POP JUMP JUMPDEST PUSH0 PUSH2 0x4FB PUSH2 0x2BF JUMP JUMPDEST SWAP1 POP PUSH2 0x507 DUP3 DUP3 PUSH2 0x4C1 JUMP JUMPDEST SWAP2 SWAP1 POP JUMP JUMPDEST PUSH0 PUSH8 0xFFFFFFFFFFFFFFFF DUP3 GT ISZERO PUSH2 0x526 JUMPI PUSH2 0x525 PUSH2 0x494 JUMP JUMPDEST JUMPDEST PUSH2 0x52F DUP3 PUSH2 0x365 JUMP JUMPDEST SWAP1 POP PUSH1 0x20 DUP2 ADD SWAP1 POP SWAP2 SWAP1 POP JUMP JUMPDEST DUP3 DUP2 DUP4 CALLDATACOPY PUSH0 DUP4 DUP4 ADD MSTORE POP POP POP JUMP JUMPDEST PUSH0 PUSH2 0x55C PUSH2 0x557 DUP5 PUSH2 0x50C JUMP JUMPDEST PUSH2 0x4F2 JUMP JUMPDEST SWAP1 POP DUP3 DUP2 MSTORE PUSH1 0x20 DUP2 ADD DUP5 DUP5 DUP5 ADD GT ISZERO PUSH2 0x578 JUMPI PUSH2 0x577 PUSH2 0x490 JUMP JUMPDEST JUMPDEST PUSH2 0x583 DUP5 DUP3 DUP6 PUSH2 0x53C JUMP JUMPDEST POP SWAP4 SWAP3 POP POP POP JUMP JUMPDEST PUSH0 DUP3 PUSH1 0x1F DUP4 ADD SLT PUSH2 0x59F JUMPI PUSH2 0x59E PUSH2 0x48C JUMP JUMPDEST JUMPDEST DUP2 CALLDATALOAD PUSH2 0x5AF DUP5 DUP3 PUSH1 0x20 DUP7 ADD PUSH2 0x54A JUMP JUMPDEST SWAP2 POP POP SWAP3 SWAP2 POP POP JUMP JUMPDEST PUSH0 PUSH0 PUSH1 0x40 DUP4 DUP6 SUB SLT ISZERO PUSH2 0x5CE JUMPI PUSH2 0x5CD PUSH2 0x2C8 JUMP JUMPDEST JUMPDEST PUSH0 PUSH2 0x5DB DUP6 DUP3 DUP7 ADD PUSH2 0x2EF JUMP JUMPDEST SWAP3 POP POP PUSH1 0x20 DUP4 ADD CALLDATALOAD PUSH8 0xFFFFFFFFFFFFFFFF DUP2 GT ISZERO PUSH2 0x5FC JUMPI PUSH2 0x5FB PUSH2 0x2CC JUMP JUMPDEST JUMPDEST PUSH2 0x608 DUP6 DUP3 DUP7 ADD PUSH2 0x58B JUMP JUMPDEST SWAP2 POP POP SWAP3 POP SWAP3 SWAP1 POP JUMP JUMPDEST PUSH32 0x4E487B7100000000000000000000000000000000000000000000000000000000 PUSH0 MSTORE PUSH1 0x22 PUSH1 0x4 MSTORE PUSH1 0x24 PUSH0 REVERT JUMPDEST PUSH0 PUSH1 0x2 DUP3 DIV SWAP1 POP PUSH1 0x1 DUP3 AND DUP1 PUSH2 0x656 JUMPI PUSH1 0x7F DUP3 AND SWAP2 POP JUMPDEST PUSH1 0x20 DUP3 LT DUP2 SUB PUSH2 0x669 JUMPI PUSH2 0x668 PUSH2 0x612 JUMP JUMPDEST JUMPDEST POP SWAP2 SWAP1 POP JUMP JUMPDEST PUSH32 0x4E487B7100000000000000000000000000000000000000000000000000000000 PUSH0 MSTORE PUSH1 0x32 PUSH1 0x4 MSTORE PUSH1 0x24 PUSH0 REVERT JUMPDEST PUSH0 DUP2 SWAP1 POP DUP2 PUSH0 MSTORE PUSH1 0x20 PUSH0 KECCAK256 SWAP1 POP SWAP2 SWAP1 POP JUMP JUMPDEST PUSH0 PUSH1 0x20 PUSH1 0x1F DUP4 ADD DIV SWAP1 POP SWAP2 SWAP1 POP JUMP JUMPDEST PUSH0 DUP3 DUP3 SHL SWAP1 POP SWAP3 SWAP2 POP POP JUMP JUMPDEST PUSH0 PUSH1 0x8 DUP4 MUL PUSH2 0x6F8 PUSH32 0xFFFFFFFFFFFFFFFFFFFFFFFFFFFFFFFFFFFFFFFFFFFFFFFFFFFFFFFFFFFFFFFF DUP3 PUSH2 0x6BD JUMP JUMPDEST PUSH2 0x702 DUP7 DUP4 PUSH2 0x6BD JUMP JUMPDEST SWAP6 POP DUP1 NOT DUP5 AND SWAP4 POP DUP1 DUP7 AND DUP5 OR SWAP3 POP POP POP SWAP4 SWAP3 POP POP POP JUMP JUMPDEST PUSH0 DUP2 SWAP1 POP SWAP2 SWAP1 POP JUMP JUMPDEST PUSH0 PUSH2 0x73D PUSH2 0x738 PUSH2 0x733 DUP5 PUSH2 0x2D0 JUMP JUMPDEST PUSH2 0x71A JUMP JUMPDEST PUSH2 0x2D0 JUMP JUMPDEST SWAP1 POP SWAP2 SWAP1 POP JUMP JUMPDEST PUSH0 DUP2 SWAP1 POP SWAP2 SWAP1 POP JUMP JUMPDEST PUSH2 0x756 DUP4 PUSH2 0x723 JUMP JUMPDEST PUSH2 0x76A PUSH2 0x762 DUP3 PUSH2 0x744 JUMP JUMPDEST DUP5 DUP5 SLOAD PUSH2 0x6C9 JUMP JUMPDEST DUP3 SSTORE POP POP POP POP JUMP JUMPDEST PUSH0 PUSH0 SWAP1 POP SWAP1 JUMP JUMPDEST PUSH2 0x781 PUSH2 0x772 JUMP JUMPDEST PUSH2 0x78C DUP2 DUP5 DUP5 PUSH2 0x74D JUMP JUMPDEST POP POP POP JUMP JUMPDEST JUMPDEST DUP2 DUP2 LT ISZERO PUSH2 0x7AF JUMPI PUSH2 0x7A4 PUSH0 DUP3 PUSH2 0x779 JUMP JUMPDEST PUSH1 0x1 DUP2 ADD SWAP1 POP PUSH2 0x792 JUMP JUMPDEST POP POP JUMP JUMPDEST PUSH1 0x1F DUP3 GT ISZERO PUSH2 0x7F4 JUMPI PUSH2 0x7C5 DUP2 PUSH2 0x69C JUMP JUMPDEST PUSH2 0x7CE DUP5 PUSH2 0x6AE JUMP JUMPDEST DUP2 ADD PUSH1 0x20 DUP6 LT ISZERO PUSH2 0x7DD JUMPI DUP2 SWAP1 POP JUMPDEST PUSH2 0x7F1 PUSH2 0x7E9 DUP6 PUSH2 0x6AE JUMP JUMPDEST DUP4 ADD DUP3 PUSH2 0x791 JUMP JUMPDEST POP POP JUMPDEST POP POP POP JUMP JUMPDEST PUSH0 DUP3 DUP3 SHR SWAP1 POP SWAP3 SWAP2 POP POP JUMP JUMPDEST PUSH0 PUSH2 0x814 PUSH0 NOT DUP5 PUSH1 0x8 MUL PUSH2 0x7F9 JUMP JUMPDEST NOT DUP1 DUP4 AND SWAP2 POP POP SWAP3 SWAP2 POP POP JUMP JUMPDEST PUSH0 PUSH2 0x82C DUP4 DUP4 PUSH2 0x805 JUMP JUMPDEST SWAP2 POP DUP3 PUSH1 0x2 MUL DUP3 OR SWAP1 POP SWAP3 SWAP2 POP POP JUMP JUMPDEST PUSH2 0x845 DUP3 PUSH2 0x33D JUMP JUMPDEST PUSH8 0xFFFFFFFFFFFFFFFF DUP2 GT ISZERO PUSH2 0x85E JUMPI PUSH2 0x85D PUSH2 0x494 JUMP JUMPDEST JUMPDEST PUSH2 0x868 DUP3 SLOAD PUSH2 0x63F JUMP JUMPDEST PUSH2 0x873 DUP3 DUP3 DUP6 PUSH2 0x7B3 JUMP JUMPDEST PUSH0 PUSH1 0x20 SWAP1 POP PUSH1 0x1F DUP4 GT PUSH1 0x1 DUP2 EQ PUSH2 0x8A4 JUMPI PUSH0 DUP5 ISZERO PUSH2 0x892 JUMPI DUP3 DUP8 ADD MLOAD SWAP1 POP JUMPDEST PUSH2 0x89C DUP6 DUP3 PUSH2 0x821 JUMP JUMPDEST DUP7 SSTORE POP PUSH2 0x903 JUMP JUMPDEST PUSH1 0x1F NOT DUP5 AND PUSH2 0x8B2 DUP7 PUSH2 0x69C JUMP JUMPDEST PUSH0 JUMPDEST DUP3 DUP2 LT ISZERO PUSH2 0x8D9 JUMPI DUP5 DUP10 ADD MLOAD DUP3 SSTORE PUSH1 0x1 DUP3 ADD SWAP2 POP PUSH1 0x20 DUP6 ADD SWAP5 POP PUSH1 0x20 DUP2 ADD SWAP1 POP PUSH2 0x8B4 JUMP JUMPDEST DUP7 DUP4 LT ISZERO PUSH2 0x8F6 JUMPI DUP5 DUP10 ADD MLOAD PUSH2 0x8F2 PUSH1 0x1F DUP10 AND DUP3 PUSH2 0x805 JUMP JUMPDEST DUP4 SSTORE POP JUMPDEST PUSH1 0x1 PUSH1 0x2 DUP9 MUL ADD DUP9 SSTORE POP POP POP JUMPDEST POP POP POP POP POP POP JUMP INVALID LOG2 PUSH5 0x6970667358 0x22 SLT KECCAK256 0x1F ADD SWAP9 KECCAK256 NOT SWAP5 SWAP12 0xAC 0xCA 0x2F CODECOPY 0xD2 0xB6 MSTORE8 RETURN 0xB3 PUSH7 0xBB551B19D9314A 0x1E PUSH21 0xBE1055017C1164736F6C634300081C003300000000 "
				},
				"gasEstimates": {
					"creation": {
						"codeDepositCost": "473800",
						"executionCost": "509",
						"totalCost": "474309"
					},
					"external": {
						"get(uint256,string)": "infinite",
						"s1(uint256)": "infinite",
						"set(uint256)": "infinite"
					}
				},
				"methodIdentifiers": {
					"get(uint256,string)": "805da4ad",
					"s1(uint256)": "448a8e1e",
					"set(uint256)": "60fe47b1"
				}
			},
			"storageLayout": {
				"storage": [
					{
						"astId": 10,
						"contract": "contracts/PRACTICE/Struct.sol:struct3",
						"label": "s1",
						"offset": 0,
						"slot": "0",
						"type": "t_array(t_struct(student)6_storage)dyn_storage"
					}
				],
				"types": {
					"t_array(t_struct(student)6_storage)dyn_storage": {
						"base": "t_struct(student)6_storage",
						"encoding": "dynamic_array",
						"label": "struct struct3.student[]",
						"numberOfBytes": "32"
					},
					"t_string_storage": {
						"encoding": "bytes",
						"label": "string",
						"numberOfBytes": "32"
					},
					"t_struct(student)6_storage": {
						"encoding": "inplace",
						"label": "struct struct3.student",
						"members": [
							{
								"astId": 3,
								"contract": "contracts/PRACTICE/Struct.sol:struct3",
								"label": "roll",
								"offset": 0,
								"slot": "0",
								"type": "t_uint256"
							},
							{
								"astId": 5,
								"contract": "contracts/PRACTICE/Struct.sol:struct3",
								"label": "name",
								"offset": 0,
								"slot": "1",
								"type": "t_string_storage"
							}
						],
						"numberOfBytes": "64"
					},
					"t_uint256": {
						"encoding": "inplace",
						"label": "uint256",
						"numberOfBytes": "32"
					}
				}
			},
			"userdoc": {
				"kind": "user",
				"methods": {},
				"version": 1
			}
		}
	}
}