{
	"contracts/PRACTICE/Project_Voting.sol": {
		"Voting": {
			"abi": [
				{
					"inputs": [],
					"stateMutability": "nonpayable",
					"type": "constructor"
				},
				{
					"anonymous": false,
					"inputs": [
						{
							"indexed": false,
							"internalType": "uint256",
							"name": "id",
							"type": "uint256"
						},
						{
							"indexed": false,
							"internalType": "string",
							"name": "name",
							"type": "string"
						},
						{
							"indexed": false,
							"internalType": "string",
							"name": "proposal",
							"type": "string"
						}
					],
					"name": "CandidateAdded",
					"type": "event"
				},
				{
					"anonymous": false,
					"inputs": [],
					"name": "ElectionEnded",
					"type": "event"
				},
				{
					"anonymous": false,
					"inputs": [],
					"name": "ElectionStarted",
					"type": "event"
				},
				{
					"anonymous": false,
					"inputs": [
						{
							"indexed": false,
							"internalType": "address",
							"name": "voter",
							"type": "address"
						},
						{
							"indexed": false,
							"internalType": "uint256",
							"name": "candidateId",
							"type": "uint256"
						}
					],
					"name": "VoteCasted",
					"type": "event"
				},
				{
					"anonymous": false,
					"inputs": [
						{
							"indexed": false,
							"internalType": "address",
							"name": "from",
							"type": "address"
						},
						{
							"indexed": false,
							"internalType": "address",
							"name": "to",
							"type": "address"
						}
					],
					"name": "VoteDelegated",
					"type": "event"
				},
				{
					"anonymous": false,
					"inputs": [
						{
							"indexed": false,
							"internalType": "address",
							"name": "voter",
							"type": "address"
						}
					],
					"name": "VoterAdded",
					"type": "event"
				},
				{
					"inputs": [
						{
							"internalType": "uint256",
							"name": "candidateId",
							"type": "uint256"
						}
					],
					"name": "Vote",
					"outputs": [],
					"stateMutability": "nonpayable",
					"type": "function"
				},
				{
					"inputs": [
						{
							"internalType": "string",
							"name": "name",
							"type": "string"
						},
						{
							"internalType": "string",
							"name": "proposal",
							"type": "string"
						}
					],
					"name": "addCandidate",
					"outputs": [],
					"stateMutability": "nonpayable",
					"type": "function"
				},
				{
					"inputs": [
						{
							"internalType": "address",
							"name": "voter",
							"type": "address"
						}
					],
					"name": "addVoter",
					"outputs": [],
					"stateMutability": "nonpayable",
					"type": "function"
				},
				{
					"inputs": [],
					"name": "admin",
					"outputs": [
						{
							"internalType": "address",
							"name": "",
							"type": "address"
						}
					],
					"stateMutability": "view",
					"type": "function"
				},
				{
					"inputs": [],
					"name": "candidateCount",
					"outputs": [
						{
							"internalType": "uint256",
							"name": "",
							"type": "uint256"
						}
					],
					"stateMutability": "view",
					"type": "function"
				},
				{
					"inputs": [
						{
							"internalType": "uint256",
							"name": "",
							"type": "uint256"
						}
					],
					"name": "candidates",
					"outputs": [
						{
							"internalType": "uint256",
							"name": "id",
							"type": "uint256"
						},
						{
							"internalType": "string",
							"name": "name",
							"type": "string"
						},
						{
							"internalType": "string",
							"name": "proposal",
							"type": "string"
						},
						{
							"internalType": "uint256",
							"name": "voteCount",
							"type": "uint256"
						}
					],
					"stateMutability": "view",
					"type": "function"
				},
				{
					"inputs": [
						{
							"internalType": "address",
							"name": "to",
							"type": "address"
						}
					],
					"name": "delegateVote",
					"outputs": [],
					"stateMutability": "nonpayable",
					"type": "function"
				},
				{
					"inputs": [],
					"name": "electionOngoing",
					"outputs": [
						{
							"internalType": "bool",
							"name": "",
							"type": "bool"
						}
					],
					"stateMutability": "view",
					"type": "function"
				},
				{
					"inputs": [],
					"name": "endElection",
					"outputs": [],
					"stateMutability": "nonpayable",
					"type": "function"
				},
				{
					"inputs": [
						{
							"internalType": "uint256",
							"name": "candidateId",
							"type": "uint256"
						}
					],
					"name": "getCandidate",
					"outputs": [
						{
							"internalType": "uint256",
							"name": "id",
							"type": "uint256"
						},
						{
							"internalType": "string",
							"name": "name",
							"type": "string"
						},
						{
							"internalType": "string",
							"name": "proposal",
							"type": "string"
						}
					],
					"stateMutability": "view",
					"type": "function"
				},
				{
					"inputs": [
						{
							"internalType": "address",
							"name": "voter",
							"type": "address"
						}
					],
					"name": "getVoterProfile",
					"outputs": [
						{
							"internalType": "bool",
							"name": "registered",
							"type": "bool"
						},
						{
							"internalType": "bool",
							"name": "hasVoted",
							"type": "bool"
						},
						{
							"internalType": "uint256",
							"name": "votedCandidateId",
							"type": "uint256"
						},
						{
							"internalType": "bool",
							"name": "voteDelegated",
							"type": "bool"
						},
						{
							"internalType": "address",
							"name": "delegateTo",
							"type": "address"
						}
					],
					"stateMutability": "view",
					"type": "function"
				},
				{
					"inputs": [
						{
							"internalType": "uint256",
							"name": "candidateId",
							"type": "uint256"
						}
					],
					"name": "getVotes",
					"outputs": [
						{
							"internalType": "uint256",
							"name": "id",
							"type": "uint256"
						},
						{
							"internalType": "string",
							"name": "name",
							"type": "string"
						},
						{
							"internalType": "uint256",
							"name": "voteCount",
							"type": "uint256"
						}
					],
					"stateMutability": "view",
					"type": "function"
				},
				{
					"inputs": [],
					"name": "getWinner",
					"outputs": [
						{
							"internalType": "string",
							"name": "name",
							"type": "string"
						},
						{
							"internalType": "uint256",
							"name": "id",
							"type": "uint256"
						},
						{
							"internalType": "uint256",
							"name": "voteCount",
							"type": "uint256"
						}
					],
					"stateMutability": "view",
					"type": "function"
				},
				{
					"inputs": [],
					"name": "startElection",
					"outputs": [],
					"stateMutability": "nonpayable",
					"type": "function"
				},
				{
					"inputs": [
						{
							"internalType": "address",
							"name": "",
							"type": "address"
						}
					],
					"name": "voters",
					"outputs": [
						{
							"internalType": "bool",
							"name": "registered",
							"type": "bool"
						},
						{
							"internalType": "bool",
							"name": "hasVoted",
							"type": "bool"
						},
						{
							"internalType": "uint256",
							"name": "votedCandidateId",
							"type": "uint256"
						},
						{
							"internalType": "address",
							"name": "delegateTo",
							"type": "address"
						},
						{
							"internalType": "bool",
							"name": "voteDelegated",
							"type": "bool"
						}
					],
					"stateMutability": "view",
					"type": "function"
				}
			],
			"devdoc": {
				"kind": "dev",
				"methods": {},
				"version": 1
			},
			"evm": {
				"assembly": "    /* \"contracts/PRACTICE/Project_Voting.sol\":60:6437  contract Voting {... */\n  mstore(0x40, 0x80)\n    /* \"contracts/PRACTICE/Project_Voting.sol\":2147:2198  constructor() {... */\n  callvalue\n  dup1\n  iszero\n  tag_1\n  jumpi\n  revert(0x00, 0x00)\ntag_1:\n  pop\n    /* \"contracts/PRACTICE/Project_Voting.sol\":2180:2190  msg.sender */\n  caller\n    /* \"contracts/PRACTICE/Project_Voting.sol\":2172:2177  admin */\n  0x00\n  0x00\n    /* \"contracts/PRACTICE/Project_Voting.sol\":2172:2190  admin = msg.sender */\n  0x0100\n  exp\n  dup2\n  sload\n  dup2\n  0xffffffffffffffffffffffffffffffffffffffff\n  mul\n  not\n  and\n  swap1\n  dup4\n  0xffffffffffffffffffffffffffffffffffffffff\n  and\n  mul\n  or\n  swap1\n  sstore\n  pop\n    /* \"contracts/PRACTICE/Project_Voting.sol\":60:6437  contract Voting {... */\n  dataSize(sub_0)\n  dup1\n  dataOffset(sub_0)\n  0x00\n  codecopy\n  0x00\n  return\nstop\n\nsub_0: assembly {\n        /* \"contracts/PRACTICE/Project_Voting.sol\":60:6437  contract Voting {... */\n      mstore(0x40, 0x80)\n      callvalue\n      dup1\n      iszero\n      tag_1\n      jumpi\n      revert(0x00, 0x00)\n    tag_1:\n      pop\n      jumpi(tag_2, lt(calldatasize, 0x04))\n      shr(0xe0, calldataload(0x00))\n      dup1\n      0xa3ec138d\n      gt\n      tag_18\n      jumpi\n      dup1\n      0xdcd6a5cd\n      gt\n      tag_19\n      jumpi\n      dup1\n      0xdcd6a5cd\n      eq\n      tag_14\n      jumpi\n      dup1\n      0xf4ab9adf\n      eq\n      tag_15\n      jumpi\n      dup1\n      0xf851a440\n      eq\n      tag_16\n      jumpi\n      dup1\n      0xff981099\n      eq\n      tag_17\n      jumpi\n      jump(tag_2)\n    tag_19:\n      dup1\n      0xa3ec138d\n      eq\n      tag_10\n      jumpi\n      dup1\n      0xa9a981a3\n      eq\n      tag_11\n      jumpi\n      dup1\n      0xb31e1d4d\n      eq\n      tag_12\n      jumpi\n      dup1\n      0xd8a6f68f\n      eq\n      tag_13\n      jumpi\n      jump(tag_2)\n    tag_18:\n      dup1\n      0x59f78468\n      gt\n      tag_20\n      jumpi\n      dup1\n      0x59f78468\n      eq\n      tag_6\n      jumpi\n      dup1\n      0x62d73eb8\n      eq\n      tag_7\n      jumpi\n      dup1\n      0x8e7ea5b2\n      eq\n      tag_8\n      jumpi\n      dup1\n      0x972b4192\n      eq\n      tag_9\n      jumpi\n      jump(tag_2)\n    tag_20:\n      dup1\n      0x26541b56\n      eq\n      tag_3\n      jumpi\n      dup1\n      0x3477ee2e\n      eq\n      tag_4\n      jumpi\n      dup1\n      0x35b8e820\n      eq\n      tag_5\n      jumpi\n    tag_2:\n      revert(0x00, 0x00)\n        /* \"contracts/PRACTICE/Project_Voting.sol\":2244:2588  function addCandidate(string memory name, string memory proposal) public onlyAdmin {... */\n    tag_3:\n      tag_21\n      0x04\n      dup1\n      calldatasize\n      sub\n      dup2\n      add\n      swap1\n      tag_22\n      swap2\n      swap1\n      tag_23\n      jump\t// in\n    tag_22:\n      tag_24\n      jump\t// in\n    tag_21:\n      stop\n        /* \"contracts/PRACTICE/Project_Voting.sol\":1047:1094  mapping(uint256 => Candidate) public candidates */\n    tag_4:\n      tag_25\n      0x04\n      dup1\n      calldatasize\n      sub\n      dup2\n      add\n      swap1\n      tag_26\n      swap2\n      swap1\n      tag_27\n      jump\t// in\n    tag_26:\n      tag_28\n      jump\t// in\n    tag_25:\n      mload(0x40)\n      tag_29\n      swap5\n      swap4\n      swap3\n      swap2\n      swap1\n      tag_30\n      jump\t// in\n    tag_29:\n      mload(0x40)\n      dup1\n      swap2\n      sub\n      swap1\n      return\n        /* \"contracts/PRACTICE/Project_Voting.sol\":3204:3503  function getCandidate(uint256 candidateId) public view returns (... */\n    tag_5:\n      tag_31\n      0x04\n      dup1\n      calldatasize\n      sub\n      dup2\n      add\n      swap1\n      tag_32\n      swap2\n      swap1\n      tag_27\n      jump\t// in\n    tag_32:\n      tag_33\n      jump\t// in\n    tag_31:\n      mload(0x40)\n      tag_34\n      swap4\n      swap3\n      swap2\n      swap1\n      tag_35\n      jump\t// in\n    tag_34:\n      mload(0x40)\n      dup1\n      swap2\n      sub\n      swap1\n      return\n        /* \"contracts/PRACTICE/Project_Voting.sol\":5352:5527  function endElection() public onlyAdmin {... */\n    tag_6:\n      tag_36\n      tag_37\n      jump\t// in\n    tag_36:\n      stop\n        /* \"contracts/PRACTICE/Project_Voting.sol\":2962:3142  function startElection() public onlyAdmin {... */\n    tag_7:\n      tag_38\n      tag_39\n      jump\t// in\n    tag_38:\n      stop\n        /* \"contracts/PRACTICE/Project_Voting.sol\":3570:4215  function getWinner() public view returns (... */\n    tag_8:\n      tag_40\n      tag_41\n      jump\t// in\n    tag_40:\n      mload(0x40)\n      tag_42\n      swap4\n      swap3\n      swap2\n      swap1\n      tag_43\n      jump\t// in\n    tag_42:\n      mload(0x40)\n      dup1\n      swap2\n      sub\n      swap1\n      return\n        /* \"contracts/PRACTICE/Project_Voting.sol\":198:225  bool public electionOngoing */\n    tag_9:\n      tag_44\n      tag_45\n      jump\t// in\n    tag_44:\n      mload(0x40)\n      tag_46\n      swap2\n      swap1\n      tag_47\n      jump\t// in\n    tag_46:\n      mload(0x40)\n      dup1\n      swap2\n      sub\n      swap1\n      return\n        /* \"contracts/PRACTICE/Project_Voting.sol\":1101:1140  mapping(address => Voter) public voters */\n    tag_10:\n      tag_48\n      0x04\n      dup1\n      calldatasize\n      sub\n      dup2\n      add\n      swap1\n      tag_49\n      swap2\n      swap1\n      tag_50\n      jump\t// in\n    tag_49:\n      tag_51\n      jump\t// in\n    tag_48:\n      mload(0x40)\n      tag_52\n      swap6\n      swap5\n      swap4\n      swap3\n      swap2\n      swap1\n      tag_53\n      jump\t// in\n    tag_52:\n      mload(0x40)\n      dup1\n      swap2\n      sub\n      swap1\n      return\n        /* \"contracts/PRACTICE/Project_Voting.sol\":1201:1230  uint256 public candidateCount */\n    tag_11:\n      tag_54\n      tag_55\n      jump\t// in\n    tag_54:\n      mload(0x40)\n      tag_56\n      swap2\n      swap1\n      tag_57\n      jump\t// in\n    tag_56:\n      mload(0x40)\n      dup1\n      swap2\n      sub\n      swap1\n      return\n        /* \"contracts/PRACTICE/Project_Voting.sol\":4292:4596  function delegateVote(address to) public onlyDuringElection notVoted {... */\n    tag_12:\n      tag_58\n      0x04\n      dup1\n      calldatasize\n      sub\n      dup2\n      add\n      swap1\n      tag_59\n      swap2\n      swap1\n      tag_50\n      jump\t// in\n    tag_59:\n      tag_60\n      jump\t// in\n    tag_58:\n      stop\n        /* \"contracts/PRACTICE/Project_Voting.sol\":5936:6433  function getVoterProfile(address voter) public view returns (... */\n    tag_13:\n      tag_61\n      0x04\n      dup1\n      calldatasize\n      sub\n      dup2\n      add\n      swap1\n      tag_62\n      swap2\n      swap1\n      tag_50\n      jump\t// in\n    tag_62:\n      tag_63\n      jump\t// in\n    tag_61:\n      mload(0x40)\n      tag_64\n      swap6\n      swap5\n      swap4\n      swap3\n      swap2\n      swap1\n      tag_65\n      jump\t// in\n    tag_64:\n      mload(0x40)\n      dup1\n      swap2\n      sub\n      swap1\n      return\n        /* \"contracts/PRACTICE/Project_Voting.sol\":4650:5309  function Vote(uint256 candidateId) public onlyDuringElection notVoted {... */\n    tag_14:\n      tag_66\n      0x04\n      dup1\n      calldatasize\n      sub\n      dup2\n      add\n      swap1\n      tag_67\n      swap2\n      swap1\n      tag_27\n      jump\t// in\n    tag_67:\n      tag_68\n      jump\t// in\n    tag_66:\n      stop\n        /* \"contracts/PRACTICE/Project_Voting.sol\":2635:2917  function addVoter(address voter) public onlyAdmin {... */\n    tag_15:\n      tag_69\n      0x04\n      dup1\n      calldatasize\n      sub\n      dup2\n      add\n      swap1\n      tag_70\n      swap2\n      swap1\n      tag_50\n      jump\t// in\n    tag_70:\n      tag_71\n      jump\t// in\n    tag_69:\n      stop\n        /* \"contracts/PRACTICE/Project_Voting.sol\":121:141  address public admin */\n    tag_16:\n      tag_72\n      tag_73\n      jump\t// in\n    tag_72:\n      mload(0x40)\n      tag_74\n      swap2\n      swap1\n      tag_75\n      jump\t// in\n    tag_74:\n      mload(0x40)\n      dup1\n      swap2\n      sub\n      swap1\n      return\n        /* \"contracts/PRACTICE/Project_Voting.sol\":5602:5887  function getVotes(uint256 candidateId) public view returns (... */\n    tag_17:\n      tag_76\n      0x04\n      dup1\n      calldatasize\n      sub\n      dup2\n      add\n      swap1\n      tag_77\n      swap2\n      swap1\n      tag_27\n      jump\t// in\n    tag_77:\n      tag_78\n      jump\t// in\n    tag_76:\n      mload(0x40)\n      tag_79\n      swap4\n      swap3\n      swap2\n      swap1\n      tag_80\n      jump\t// in\n    tag_79:\n      mload(0x40)\n      dup1\n      swap2\n      sub\n      swap1\n      return\n        /* \"contracts/PRACTICE/Project_Voting.sol\":2244:2588  function addCandidate(string memory name, string memory proposal) public onlyAdmin {... */\n    tag_24:\n        /* \"contracts/PRACTICE/Project_Voting.sol\":1656:1661  admin */\n      0x00\n      0x00\n      swap1\n      sload\n      swap1\n      0x0100\n      exp\n      swap1\n      div\n      0xffffffffffffffffffffffffffffffffffffffff\n      and\n        /* \"contracts/PRACTICE/Project_Voting.sol\":1642:1661  msg.sender == admin */\n      0xffffffffffffffffffffffffffffffffffffffff\n      and\n        /* \"contracts/PRACTICE/Project_Voting.sol\":1642:1652  msg.sender */\n      caller\n        /* \"contracts/PRACTICE/Project_Voting.sol\":1642:1661  msg.sender == admin */\n      0xffffffffffffffffffffffffffffffffffffffff\n      and\n      eq\n        /* \"contracts/PRACTICE/Project_Voting.sol\":1634:1700  require(msg.sender == admin, \"Only admin can perform this action\") */\n      tag_82\n      jumpi\n      mload(0x40)\n      0x08c379a000000000000000000000000000000000000000000000000000000000\n      dup2\n      mstore\n      0x04\n      add\n      tag_83\n      swap1\n      tag_84\n      jump\t// in\n    tag_83:\n      mload(0x40)\n      dup1\n      swap2\n      sub\n      swap1\n      revert\n    tag_82:\n        /* \"contracts/PRACTICE/Project_Voting.sol\":2347:2362  electionOngoing */\n      0x00\n      0x14\n      swap1\n      sload\n      swap1\n      0x0100\n      exp\n      swap1\n      div\n      0xff\n      and\n        /* \"contracts/PRACTICE/Project_Voting.sol\":2346:2362  !electionOngoing */\n      iszero\n        /* \"contracts/PRACTICE/Project_Voting.sol\":2338:2407  require(!electionOngoing, \"Cannot add candidates during an election\") */\n      tag_86\n      jumpi\n      mload(0x40)\n      0x08c379a000000000000000000000000000000000000000000000000000000000\n      dup2\n      mstore\n      0x04\n      add\n      tag_87\n      swap1\n      tag_88\n      jump\t// in\n    tag_87:\n      mload(0x40)\n      dup1\n      swap2\n      sub\n      swap1\n      revert\n    tag_86:\n        /* \"contracts/PRACTICE/Project_Voting.sol\":2418:2432  candidateCount */\n      0x03\n      0x00\n        /* \"contracts/PRACTICE/Project_Voting.sol\":2418:2434  candidateCount++ */\n      dup2\n      sload\n      dup1\n      swap3\n      swap2\n      swap1\n      tag_89\n      swap1\n      tag_90\n      jump\t// in\n    tag_89:\n      swap2\n      swap1\n      pop\n      sstore\n      pop\n        /* \"contracts/PRACTICE/Project_Voting.sol\":2474:2518  Candidate(candidateCount, name, proposal, 0) */\n      mload(0x40)\n      dup1\n      0x80\n      add\n      0x40\n      mstore\n      dup1\n        /* \"contracts/PRACTICE/Project_Voting.sol\":2484:2498  candidateCount */\n      sload(0x03)\n        /* \"contracts/PRACTICE/Project_Voting.sol\":2474:2518  Candidate(candidateCount, name, proposal, 0) */\n      dup2\n      mstore\n      0x20\n      add\n        /* \"contracts/PRACTICE/Project_Voting.sol\":2500:2504  name */\n      dup4\n        /* \"contracts/PRACTICE/Project_Voting.sol\":2474:2518  Candidate(candidateCount, name, proposal, 0) */\n      dup2\n      mstore\n      0x20\n      add\n        /* \"contracts/PRACTICE/Project_Voting.sol\":2506:2514  proposal */\n      dup3\n        /* \"contracts/PRACTICE/Project_Voting.sol\":2474:2518  Candidate(candidateCount, name, proposal, 0) */\n      dup2\n      mstore\n      0x20\n      add\n        /* \"contracts/PRACTICE/Project_Voting.sol\":2516:2517  0 */\n      0x00\n        /* \"contracts/PRACTICE/Project_Voting.sol\":2474:2518  Candidate(candidateCount, name, proposal, 0) */\n      dup2\n      mstore\n      pop\n        /* \"contracts/PRACTICE/Project_Voting.sol\":2445:2455  candidates */\n      0x01\n        /* \"contracts/PRACTICE/Project_Voting.sol\":2445:2471  candidates[candidateCount] */\n      0x00\n        /* \"contracts/PRACTICE/Project_Voting.sol\":2456:2470  candidateCount */\n      sload(0x03)\n        /* \"contracts/PRACTICE/Project_Voting.sol\":2445:2471  candidates[candidateCount] */\n      dup2\n      mstore\n      0x20\n      add\n      swap1\n      dup2\n      mstore\n      0x20\n      add\n      0x00\n      keccak256\n        /* \"contracts/PRACTICE/Project_Voting.sol\":2445:2518  candidates[candidateCount] = Candidate(candidateCount, name, proposal, 0) */\n      0x00\n      dup3\n      add\n      mload\n      dup2\n      0x00\n      add\n      sstore\n      0x20\n      dup3\n      add\n      mload\n      dup2\n      0x01\n      add\n      swap1\n      dup2\n      tag_91\n      swap2\n      swap1\n      tag_92\n      jump\t// in\n    tag_91:\n      pop\n      0x40\n      dup3\n      add\n      mload\n      dup2\n      0x02\n      add\n      swap1\n      dup2\n      tag_93\n      swap2\n      swap1\n      tag_92\n      jump\t// in\n    tag_93:\n      pop\n      0x60\n      dup3\n      add\n      mload\n      dup2\n      0x03\n      add\n      sstore\n      swap1\n      pop\n      pop\n        /* \"contracts/PRACTICE/Project_Voting.sol\":2534:2580  CandidateAdded(candidateCount, name, proposal) */\n      0xe64f834082661dd9ed89427b87edb6270fd6dad17198b0938f0edd058914c87f\n        /* \"contracts/PRACTICE/Project_Voting.sol\":2549:2563  candidateCount */\n      sload(0x03)\n        /* \"contracts/PRACTICE/Project_Voting.sol\":2565:2569  name */\n      dup4\n        /* \"contracts/PRACTICE/Project_Voting.sol\":2571:2579  proposal */\n      dup4\n        /* \"contracts/PRACTICE/Project_Voting.sol\":2534:2580  CandidateAdded(candidateCount, name, proposal) */\n      mload(0x40)\n      tag_94\n      swap4\n      swap3\n      swap2\n      swap1\n      tag_35\n      jump\t// in\n    tag_94:\n      mload(0x40)\n      dup1\n      swap2\n      sub\n      swap1\n      log1\n        /* \"contracts/PRACTICE/Project_Voting.sol\":2244:2588  function addCandidate(string memory name, string memory proposal) public onlyAdmin {... */\n      pop\n      pop\n      jump\t// out\n        /* \"contracts/PRACTICE/Project_Voting.sol\":1047:1094  mapping(uint256 => Candidate) public candidates */\n    tag_28:\n      mstore(0x20, 0x01)\n      dup1\n      0x00\n      mstore\n      keccak256(0x00, 0x40)\n      0x00\n      swap2\n      pop\n      swap1\n      pop\n      dup1\n      0x00\n      add\n      sload\n      swap1\n      dup1\n      0x01\n      add\n      dup1\n      sload\n      tag_95\n      swap1\n      tag_96\n      jump\t// in\n    tag_95:\n      dup1\n      0x1f\n      add\n      0x20\n      dup1\n      swap2\n      div\n      mul\n      0x20\n      add\n      mload(0x40)\n      swap1\n      dup2\n      add\n      0x40\n      mstore\n      dup1\n      swap3\n      swap2\n      swap1\n      dup2\n      dup2\n      mstore\n      0x20\n      add\n      dup3\n      dup1\n      sload\n      tag_97\n      swap1\n      tag_96\n      jump\t// in\n    tag_97:\n      dup1\n      iszero\n      tag_98\n      jumpi\n      dup1\n      0x1f\n      lt\n      tag_99\n      jumpi\n      0x0100\n      dup1\n      dup4\n      sload\n      div\n      mul\n      dup4\n      mstore\n      swap2\n      0x20\n      add\n      swap2\n      jump(tag_98)\n    tag_99:\n      dup3\n      add\n      swap2\n      swap1\n      0x00\n      mstore\n      keccak256(0x00, 0x20)\n      swap1\n    tag_100:\n      dup2\n      sload\n      dup2\n      mstore\n      swap1\n      0x01\n      add\n      swap1\n      0x20\n      add\n      dup1\n      dup4\n      gt\n      tag_100\n      jumpi\n      dup3\n      swap1\n      sub\n      0x1f\n      and\n      dup3\n      add\n      swap2\n    tag_98:\n      pop\n      pop\n      pop\n      pop\n      pop\n      swap1\n      dup1\n      0x02\n      add\n      dup1\n      sload\n      tag_101\n      swap1\n      tag_96\n      jump\t// in\n    tag_101:\n      dup1\n      0x1f\n      add\n      0x20\n      dup1\n      swap2\n      div\n      mul\n      0x20\n      add\n      mload(0x40)\n      swap1\n      dup2\n      add\n      0x40\n      mstore\n      dup1\n      swap3\n      swap2\n      swap1\n      dup2\n      dup2\n      mstore\n      0x20\n      add\n      dup3\n      dup1\n      sload\n      tag_102\n      swap1\n      tag_96\n      jump\t// in\n    tag_102:\n      dup1\n      iszero\n      tag_103\n      jumpi\n      dup1\n      0x1f\n      lt\n      tag_104\n      jumpi\n      0x0100\n      dup1\n      dup4\n      sload\n      div\n      mul\n      dup4\n      mstore\n      swap2\n      0x20\n      add\n      swap2\n      jump(tag_103)\n    tag_104:\n      dup3\n      add\n      swap2\n      swap1\n      0x00\n      mstore\n      keccak256(0x00, 0x20)\n      swap1\n    tag_105:\n      dup2\n      sload\n      dup2\n      mstore\n      swap1\n      0x01\n      add\n      swap1\n      0x20\n      add\n      dup1\n      dup4\n      gt\n      tag_105\n      jumpi\n      dup3\n      swap1\n      sub\n      0x1f\n      and\n      dup3\n      add\n      swap2\n    tag_103:\n      pop\n      pop\n      pop\n      pop\n      pop\n      swap1\n      dup1\n      0x03\n      add\n      sload\n      swap1\n      pop\n      dup5\n      jump\t// out\n        /* \"contracts/PRACTICE/Project_Voting.sol\":3204:3503  function getCandidate(uint256 candidateId) public view returns (... */\n    tag_33:\n        /* \"contracts/PRACTICE/Project_Voting.sol\":3278:3288  uint256 id */\n      0x00\n        /* \"contracts/PRACTICE/Project_Voting.sol\":3299:3317  string memory name */\n      0x60\n        /* \"contracts/PRACTICE/Project_Voting.sol\":3328:3350  string memory proposal */\n      dup1\n        /* \"contracts/PRACTICE/Project_Voting.sol\":3375:3401  Candidate memory candidate */\n      0x00\n        /* \"contracts/PRACTICE/Project_Voting.sol\":3404:3414  candidates */\n      0x01\n        /* \"contracts/PRACTICE/Project_Voting.sol\":3404:3427  candidates[candidateId] */\n      0x00\n        /* \"contracts/PRACTICE/Project_Voting.sol\":3415:3426  candidateId */\n      dup7\n        /* \"contracts/PRACTICE/Project_Voting.sol\":3404:3427  candidates[candidateId] */\n      dup2\n      mstore\n      0x20\n      add\n      swap1\n      dup2\n      mstore\n      0x20\n      add\n      0x00\n      keccak256\n        /* \"contracts/PRACTICE/Project_Voting.sol\":3375:3427  Candidate memory candidate = candidates[candidateId] */\n      mload(0x40)\n      dup1\n      0x80\n      add\n      0x40\n      mstore\n      swap1\n      dup2\n      0x00\n      dup3\n      add\n      sload\n      dup2\n      mstore\n      0x20\n      add\n      0x01\n      dup3\n      add\n      dup1\n      sload\n      tag_107\n      swap1\n      tag_96\n      jump\t// in\n    tag_107:\n      dup1\n      0x1f\n      add\n      0x20\n      dup1\n      swap2\n      div\n      mul\n      0x20\n      add\n      mload(0x40)\n      swap1\n      dup2\n      add\n      0x40\n      mstore\n      dup1\n      swap3\n      swap2\n      swap1\n      dup2\n      dup2\n      mstore\n      0x20\n      add\n      dup3\n      dup1\n      sload\n      tag_108\n      swap1\n      tag_96\n      jump\t// in\n    tag_108:\n      dup1\n      iszero\n      tag_109\n      jumpi\n      dup1\n      0x1f\n      lt\n      tag_110\n      jumpi\n      0x0100\n      dup1\n      dup4\n      sload\n      div\n      mul\n      dup4\n      mstore\n      swap2\n      0x20\n      add\n      swap2\n      jump(tag_109)\n    tag_110:\n      dup3\n      add\n      swap2\n      swap1\n      0x00\n      mstore\n      keccak256(0x00, 0x20)\n      swap1\n    tag_111:\n      dup2\n      sload\n      dup2\n      mstore\n      swap1\n      0x01\n      add\n      swap1\n      0x20\n      add\n      dup1\n      dup4\n      gt\n      tag_111\n      jumpi\n      dup3\n      swap1\n      sub\n      0x1f\n      and\n      dup3\n      add\n      swap2\n    tag_109:\n      pop\n      pop\n      pop\n      pop\n      pop\n      dup2\n      mstore\n      0x20\n      add\n      0x02\n      dup3\n      add\n      dup1\n      sload\n      tag_112\n      swap1\n      tag_96\n      jump\t// in\n    tag_112:\n      dup1\n      0x1f\n      add\n      0x20\n      dup1\n      swap2\n      div\n      mul\n      0x20\n      add\n      mload(0x40)\n      swap1\n      dup2\n      add\n      0x40\n      mstore\n      dup1\n      swap3\n      swap2\n      swap1\n      dup2\n      dup2\n      mstore\n      0x20\n      add\n      dup3\n      dup1\n      sload\n      tag_113\n      swap1\n      tag_96\n      jump\t// in\n    tag_113:\n      dup1\n      iszero\n      tag_114\n      jumpi\n      dup1\n      0x1f\n      lt\n      tag_115\n      jumpi\n      0x0100\n      dup1\n      dup4\n      sload\n      div\n      mul\n      dup4\n      mstore\n      swap2\n      0x20\n      add\n      swap2\n      jump(tag_114)\n    tag_115:\n      dup3\n      add\n      swap2\n      swap1\n      0x00\n      mstore\n      keccak256(0x00, 0x20)\n      swap1\n    tag_116:\n      dup2\n      sload\n      dup2\n      mstore\n      swap1\n      0x01\n      add\n      swap1\n      0x20\n      add\n      dup1\n      dup4\n      gt\n      tag_116\n      jumpi\n      dup3\n      swap1\n      sub\n      0x1f\n      and\n      dup3\n      add\n      swap2\n    tag_114:\n      pop\n      pop\n      pop\n      pop\n      pop\n      dup2\n      mstore\n      0x20\n      add\n      0x03\n      dup3\n      add\n      sload\n      dup2\n      mstore\n      pop\n      pop\n      swap1\n      pop\n        /* \"contracts/PRACTICE/Project_Voting.sol\":3446:3455  candidate */\n      dup1\n        /* \"contracts/PRACTICE/Project_Voting.sol\":3446:3458  candidate.id */\n      0x00\n      add\n      mload\n        /* \"contracts/PRACTICE/Project_Voting.sol\":3460:3469  candidate */\n      dup2\n        /* \"contracts/PRACTICE/Project_Voting.sol\":3460:3474  candidate.name */\n      0x20\n      add\n      mload\n        /* \"contracts/PRACTICE/Project_Voting.sol\":3476:3485  candidate */\n      dup3\n        /* \"contracts/PRACTICE/Project_Voting.sol\":3476:3494  candidate.proposal */\n      0x40\n      add\n      mload\n        /* \"contracts/PRACTICE/Project_Voting.sol\":3438:3495  return (candidate.id, candidate.name, candidate.proposal) */\n      swap4\n      pop\n      swap4\n      pop\n      swap4\n      pop\n      pop\n        /* \"contracts/PRACTICE/Project_Voting.sol\":3204:3503  function getCandidate(uint256 candidateId) public view returns (... */\n      swap2\n      swap4\n      swap1\n      swap3\n      pop\n      jump\t// out\n        /* \"contracts/PRACTICE/Project_Voting.sol\":5352:5527  function endElection() public onlyAdmin {... */\n    tag_37:\n        /* \"contracts/PRACTICE/Project_Voting.sol\":1656:1661  admin */\n      0x00\n      0x00\n      swap1\n      sload\n      swap1\n      0x0100\n      exp\n      swap1\n      div\n      0xffffffffffffffffffffffffffffffffffffffff\n      and\n        /* \"contracts/PRACTICE/Project_Voting.sol\":1642:1661  msg.sender == admin */\n      0xffffffffffffffffffffffffffffffffffffffff\n      and\n        /* \"contracts/PRACTICE/Project_Voting.sol\":1642:1652  msg.sender */\n      caller\n        /* \"contracts/PRACTICE/Project_Voting.sol\":1642:1661  msg.sender == admin */\n      0xffffffffffffffffffffffffffffffffffffffff\n      and\n      eq\n        /* \"contracts/PRACTICE/Project_Voting.sol\":1634:1700  require(msg.sender == admin, \"Only admin can perform this action\") */\n      tag_118\n      jumpi\n      mload(0x40)\n      0x08c379a000000000000000000000000000000000000000000000000000000000\n      dup2\n      mstore\n      0x04\n      add\n      tag_119\n      swap1\n      tag_84\n      jump\t// in\n    tag_119:\n      mload(0x40)\n      dup1\n      swap2\n      sub\n      swap1\n      revert\n    tag_118:\n        /* \"contracts/PRACTICE/Project_Voting.sol\":5411:5426  electionOngoing */\n      0x00\n      0x14\n      swap1\n      sload\n      swap1\n      0x0100\n      exp\n      swap1\n      div\n      0xff\n      and\n        /* \"contracts/PRACTICE/Project_Voting.sol\":5403:5454  require(electionOngoing, \"Election is not ongoing\") */\n      tag_121\n      jumpi\n      mload(0x40)\n      0x08c379a000000000000000000000000000000000000000000000000000000000\n      dup2\n      mstore\n      0x04\n      add\n      tag_122\n      swap1\n      tag_123\n      jump\t// in\n    tag_122:\n      mload(0x40)\n      dup1\n      swap2\n      sub\n      swap1\n      revert\n    tag_121:\n        /* \"contracts/PRACTICE/Project_Voting.sol\":5483:5488  false */\n      0x00\n        /* \"contracts/PRACTICE/Project_Voting.sol\":5465:5480  electionOngoing */\n      0x00\n      0x14\n        /* \"contracts/PRACTICE/Project_Voting.sol\":5465:5488  electionOngoing = false */\n      0x0100\n      exp\n      dup2\n      sload\n      dup2\n      0xff\n      mul\n      not\n      and\n      swap1\n      dup4\n      iszero\n      iszero\n      mul\n      or\n      swap1\n      sstore\n      pop\n        /* \"contracts/PRACTICE/Project_Voting.sol\":5504:5519  ElectionEnded() */\n      0x66ec723071e4bb646f7b35d31bc2dee8510979bd8c180edd0690d4f5e802f1e4\n      mload(0x40)\n      mload(0x40)\n      dup1\n      swap2\n      sub\n      swap1\n      log1\n        /* \"contracts/PRACTICE/Project_Voting.sol\":5352:5527  function endElection() public onlyAdmin {... */\n      jump\t// out\n        /* \"contracts/PRACTICE/Project_Voting.sol\":2962:3142  function startElection() public onlyAdmin {... */\n    tag_39:\n        /* \"contracts/PRACTICE/Project_Voting.sol\":1656:1661  admin */\n      0x00\n      0x00\n      swap1\n      sload\n      swap1\n      0x0100\n      exp\n      swap1\n      div\n      0xffffffffffffffffffffffffffffffffffffffff\n      and\n        /* \"contracts/PRACTICE/Project_Voting.sol\":1642:1661  msg.sender == admin */\n      0xffffffffffffffffffffffffffffffffffffffff\n      and\n        /* \"contracts/PRACTICE/Project_Voting.sol\":1642:1652  msg.sender */\n      caller\n        /* \"contracts/PRACTICE/Project_Voting.sol\":1642:1661  msg.sender == admin */\n      0xffffffffffffffffffffffffffffffffffffffff\n      and\n      eq\n        /* \"contracts/PRACTICE/Project_Voting.sol\":1634:1700  require(msg.sender == admin, \"Only admin can perform this action\") */\n      tag_125\n      jumpi\n      mload(0x40)\n      0x08c379a000000000000000000000000000000000000000000000000000000000\n      dup2\n      mstore\n      0x04\n      add\n      tag_126\n      swap1\n      tag_84\n      jump\t// in\n    tag_126:\n      mload(0x40)\n      dup1\n      swap2\n      sub\n      swap1\n      revert\n    tag_125:\n        /* \"contracts/PRACTICE/Project_Voting.sol\":3024:3039  electionOngoing */\n      0x00\n      0x14\n      swap1\n      sload\n      swap1\n      0x0100\n      exp\n      swap1\n      div\n      0xff\n      and\n        /* \"contracts/PRACTICE/Project_Voting.sol\":3023:3039  !electionOngoing */\n      iszero\n        /* \"contracts/PRACTICE/Project_Voting.sol\":3015:3068  require(!electionOngoing, \"Election already started\") */\n      tag_128\n      jumpi\n      mload(0x40)\n      0x08c379a000000000000000000000000000000000000000000000000000000000\n      dup2\n      mstore\n      0x04\n      add\n      tag_129\n      swap1\n      tag_130\n      jump\t// in\n    tag_129:\n      mload(0x40)\n      dup1\n      swap2\n      sub\n      swap1\n      revert\n    tag_128:\n        /* \"contracts/PRACTICE/Project_Voting.sol\":3097:3101  true */\n      0x01\n        /* \"contracts/PRACTICE/Project_Voting.sol\":3079:3094  electionOngoing */\n      0x00\n      0x14\n        /* \"contracts/PRACTICE/Project_Voting.sol\":3079:3101  electionOngoing = true */\n      0x0100\n      exp\n      dup2\n      sload\n      dup2\n      0xff\n      mul\n      not\n      and\n      swap1\n      dup4\n      iszero\n      iszero\n      mul\n      or\n      swap1\n      sstore\n      pop\n        /* \"contracts/PRACTICE/Project_Voting.sol\":3117:3134  ElectionStarted() */\n      0xc475c26aa25ed8e85a7faa790e5f63b5d7ee1025f12821f4c9bfddd36ab4d112\n      mload(0x40)\n      mload(0x40)\n      dup1\n      swap2\n      sub\n      swap1\n      log1\n        /* \"contracts/PRACTICE/Project_Voting.sol\":2962:3142  function startElection() public onlyAdmin {... */\n      jump\t// out\n        /* \"contracts/PRACTICE/Project_Voting.sol\":3570:4215  function getWinner() public view returns (... */\n    tag_41:\n        /* \"contracts/PRACTICE/Project_Voting.sol\":3622:3640  string memory name */\n      0x60\n        /* \"contracts/PRACTICE/Project_Voting.sol\":3651:3661  uint256 id */\n      0x00\n        /* \"contracts/PRACTICE/Project_Voting.sol\":3672:3689  uint256 voteCount */\n      0x00\n        /* \"contracts/PRACTICE/Project_Voting.sol\":3717:3732  electionOngoing */\n      0x00\n      0x14\n      swap1\n      sload\n      swap1\n      0x0100\n      exp\n      swap1\n      div\n      0xff\n      and\n        /* \"contracts/PRACTICE/Project_Voting.sol\":3716:3732  !electionOngoing */\n      iszero\n        /* \"contracts/PRACTICE/Project_Voting.sol\":3708:3756  require(!electionOngoing, \"Election is ongoing\") */\n      tag_132\n      jumpi\n      mload(0x40)\n      0x08c379a000000000000000000000000000000000000000000000000000000000\n      dup2\n      mstore\n      0x04\n      add\n      tag_133\n      swap1\n      tag_134\n      jump\t// in\n    tag_133:\n      mload(0x40)\n      dup1\n      swap2\n      sub\n      swap1\n      revert\n    tag_132:\n        /* \"contracts/PRACTICE/Project_Voting.sol\":3767:3793  uint256 winningCandidateId */\n      0x00\n        /* \"contracts/PRACTICE/Project_Voting.sol\":3804:3828  uint256 highestVoteCount */\n      0x00\n        /* \"contracts/PRACTICE/Project_Voting.sol\":3831:3832  0 */\n      0x00\n        /* \"contracts/PRACTICE/Project_Voting.sol\":3804:3832  uint256 highestVoteCount = 0 */\n      swap1\n      pop\n        /* \"contracts/PRACTICE/Project_Voting.sol\":3848:3857  uint256 i */\n      0x00\n        /* \"contracts/PRACTICE/Project_Voting.sol\":3860:3861  1 */\n      0x01\n        /* \"contracts/PRACTICE/Project_Voting.sol\":3848:3861  uint256 i = 1 */\n      swap1\n      pop\n        /* \"contracts/PRACTICE/Project_Voting.sol\":3843:4081  for (uint256 i = 1; i <= candidateCount; i++) {... */\n    tag_135:\n        /* \"contracts/PRACTICE/Project_Voting.sol\":3868:3882  candidateCount */\n      sload(0x03)\n        /* \"contracts/PRACTICE/Project_Voting.sol\":3863:3864  i */\n      dup2\n        /* \"contracts/PRACTICE/Project_Voting.sol\":3863:3882  i <= candidateCount */\n      gt\n        /* \"contracts/PRACTICE/Project_Voting.sol\":3843:4081  for (uint256 i = 1; i <= candidateCount; i++) {... */\n      tag_136\n      jumpi\n        /* \"contracts/PRACTICE/Project_Voting.sol\":3934:3950  highestVoteCount */\n      dup2\n        /* \"contracts/PRACTICE/Project_Voting.sol\":3908:3918  candidates */\n      0x01\n        /* \"contracts/PRACTICE/Project_Voting.sol\":3908:3921  candidates[i] */\n      0x00\n        /* \"contracts/PRACTICE/Project_Voting.sol\":3919:3920  i */\n      dup4\n        /* \"contracts/PRACTICE/Project_Voting.sol\":3908:3921  candidates[i] */\n      dup2\n      mstore\n      0x20\n      add\n      swap1\n      dup2\n      mstore\n      0x20\n      add\n      0x00\n      keccak256\n        /* \"contracts/PRACTICE/Project_Voting.sol\":3908:3931  candidates[i].voteCount */\n      0x03\n      add\n      sload\n        /* \"contracts/PRACTICE/Project_Voting.sol\":3908:3950  candidates[i].voteCount > highestVoteCount */\n      gt\n        /* \"contracts/PRACTICE/Project_Voting.sol\":3904:4070  if (candidates[i].voteCount > highestVoteCount) {... */\n      iszero\n      tag_138\n      jumpi\n        /* \"contracts/PRACTICE/Project_Voting.sol\":3990:4000  candidates */\n      0x01\n        /* \"contracts/PRACTICE/Project_Voting.sol\":3990:4003  candidates[i] */\n      0x00\n        /* \"contracts/PRACTICE/Project_Voting.sol\":4001:4002  i */\n      dup3\n        /* \"contracts/PRACTICE/Project_Voting.sol\":3990:4003  candidates[i] */\n      dup2\n      mstore\n      0x20\n      add\n      swap1\n      dup2\n      mstore\n      0x20\n      add\n      0x00\n      keccak256\n        /* \"contracts/PRACTICE/Project_Voting.sol\":3990:4013  candidates[i].voteCount */\n      0x03\n      add\n      sload\n        /* \"contracts/PRACTICE/Project_Voting.sol\":3971:4013  highestVoteCount = candidates[i].voteCount */\n      swap2\n      pop\n        /* \"contracts/PRACTICE/Project_Voting.sol\":4053:4054  i */\n      dup1\n        /* \"contracts/PRACTICE/Project_Voting.sol\":4032:4054  winningCandidateId = i */\n      swap3\n      pop\n        /* \"contracts/PRACTICE/Project_Voting.sol\":3904:4070  if (candidates[i].voteCount > highestVoteCount) {... */\n    tag_138:\n        /* \"contracts/PRACTICE/Project_Voting.sol\":3884:3887  i++ */\n      dup1\n      dup1\n      tag_139\n      swap1\n      tag_90\n      jump\t// in\n    tag_139:\n      swap2\n      pop\n      pop\n        /* \"contracts/PRACTICE/Project_Voting.sol\":3843:4081  for (uint256 i = 1; i <= candidateCount; i++) {... */\n      jump(tag_135)\n    tag_136:\n      pop\n        /* \"contracts/PRACTICE/Project_Voting.sol\":4091:4114  Candidate memory winner */\n      0x00\n        /* \"contracts/PRACTICE/Project_Voting.sol\":4117:4127  candidates */\n      0x01\n        /* \"contracts/PRACTICE/Project_Voting.sol\":4117:4147  candidates[winningCandidateId] */\n      0x00\n        /* \"contracts/PRACTICE/Project_Voting.sol\":4128:4146  winningCandidateId */\n      dup5\n        /* \"contracts/PRACTICE/Project_Voting.sol\":4117:4147  candidates[winningCandidateId] */\n      dup2\n      mstore\n      0x20\n      add\n      swap1\n      dup2\n      mstore\n      0x20\n      add\n      0x00\n      keccak256\n        /* \"contracts/PRACTICE/Project_Voting.sol\":4091:4147  Candidate memory winner = candidates[winningCandidateId] */\n      mload(0x40)\n      dup1\n      0x80\n      add\n      0x40\n      mstore\n      swap1\n      dup2\n      0x00\n      dup3\n      add\n      sload\n      dup2\n      mstore\n      0x20\n      add\n      0x01\n      dup3\n      add\n      dup1\n      sload\n      tag_140\n      swap1\n      tag_96\n      jump\t// in\n    tag_140:\n      dup1\n      0x1f\n      add\n      0x20\n      dup1\n      swap2\n      div\n      mul\n      0x20\n      add\n      mload(0x40)\n      swap1\n      dup2\n      add\n      0x40\n      mstore\n      dup1\n      swap3\n      swap2\n      swap1\n      dup2\n      dup2\n      mstore\n      0x20\n      add\n      dup3\n      dup1\n      sload\n      tag_141\n      swap1\n      tag_96\n      jump\t// in\n    tag_141:\n      dup1\n      iszero\n      tag_142\n      jumpi\n      dup1\n      0x1f\n      lt\n      tag_143\n      jumpi\n      0x0100\n      dup1\n      dup4\n      sload\n      div\n      mul\n      dup4\n      mstore\n      swap2\n      0x20\n      add\n      swap2\n      jump(tag_142)\n    tag_143:\n      dup3\n      add\n      swap2\n      swap1\n      0x00\n      mstore\n      keccak256(0x00, 0x20)\n      swap1\n    tag_144:\n      dup2\n      sload\n      dup2\n      mstore\n      swap1\n      0x01\n      add\n      swap1\n      0x20\n      add\n      dup1\n      dup4\n      gt\n      tag_144\n      jumpi\n      dup3\n      swap1\n      sub\n      0x1f\n      and\n      dup3\n      add\n      swap2\n    tag_142:\n      pop\n      pop\n      pop\n      pop\n      pop\n      dup2\n      mstore\n      0x20\n      add\n      0x02\n      dup3\n      add\n      dup1\n      sload\n      tag_145\n      swap1\n      tag_96\n      jump\t// in\n    tag_145:\n      dup1\n      0x1f\n      add\n      0x20\n      dup1\n      swap2\n      div\n      mul\n      0x20\n      add\n      mload(0x40)\n      swap1\n      dup2\n      add\n      0x40\n      mstore\n      dup1\n      swap3\n      swap2\n      swap1\n      dup2\n      dup2\n      mstore\n      0x20\n      add\n      dup3\n      dup1\n      sload\n      tag_146\n      swap1\n      tag_96\n      jump\t// in\n    tag_146:\n      dup1\n      iszero\n      tag_147\n      jumpi\n      dup1\n      0x1f\n      lt\n      tag_148\n      jumpi\n      0x0100\n      dup1\n      dup4\n      sload\n      div\n      mul\n      dup4\n      mstore\n      swap2\n      0x20\n      add\n      swap2\n      jump(tag_147)\n    tag_148:\n      dup3\n      add\n      swap2\n      swap1\n      0x00\n      mstore\n      keccak256(0x00, 0x20)\n      swap1\n    tag_149:\n      dup2\n      sload\n      dup2\n      mstore\n      swap1\n      0x01\n      add\n      swap1\n      0x20\n      add\n      dup1\n      dup4\n      gt\n      tag_149\n      jumpi\n      dup3\n      swap1\n      sub\n      0x1f\n      and\n      dup3\n      add\n      swap2\n    tag_147:\n      pop\n      pop\n      pop\n      pop\n      pop\n      dup2\n      mstore\n      0x20\n      add\n      0x03\n      dup3\n      add\n      sload\n      dup2\n      mstore\n      pop\n      pop\n      swap1\n      pop\n        /* \"contracts/PRACTICE/Project_Voting.sol\":4166:4172  winner */\n      dup1\n        /* \"contracts/PRACTICE/Project_Voting.sol\":4166:4177  winner.name */\n      0x20\n      add\n      mload\n        /* \"contracts/PRACTICE/Project_Voting.sol\":4179:4185  winner */\n      dup2\n        /* \"contracts/PRACTICE/Project_Voting.sol\":4179:4188  winner.id */\n      0x00\n      add\n      mload\n        /* \"contracts/PRACTICE/Project_Voting.sol\":4190:4196  winner */\n      dup3\n        /* \"contracts/PRACTICE/Project_Voting.sol\":4190:4206  winner.voteCount */\n      0x60\n      add\n      mload\n        /* \"contracts/PRACTICE/Project_Voting.sol\":4158:4207  return (winner.name, winner.id, winner.voteCount) */\n      swap6\n      pop\n      swap6\n      pop\n      swap6\n      pop\n      pop\n      pop\n      pop\n        /* \"contracts/PRACTICE/Project_Voting.sol\":3570:4215  function getWinner() public view returns (... */\n      swap1\n      swap2\n      swap3\n      jump\t// out\n        /* \"contracts/PRACTICE/Project_Voting.sol\":198:225  bool public electionOngoing */\n    tag_45:\n      0x00\n      0x14\n      swap1\n      sload\n      swap1\n      0x0100\n      exp\n      swap1\n      div\n      0xff\n      and\n      dup2\n      jump\t// out\n        /* \"contracts/PRACTICE/Project_Voting.sol\":1101:1140  mapping(address => Voter) public voters */\n    tag_51:\n      mstore(0x20, 0x02)\n      dup1\n      0x00\n      mstore\n      keccak256(0x00, 0x40)\n      0x00\n      swap2\n      pop\n      swap1\n      pop\n      dup1\n      0x00\n      add\n      0x00\n      swap1\n      sload\n      swap1\n      0x0100\n      exp\n      swap1\n      div\n      0xff\n      and\n      swap1\n      dup1\n      0x00\n      add\n      0x01\n      swap1\n      sload\n      swap1\n      0x0100\n      exp\n      swap1\n      div\n      0xff\n      and\n      swap1\n      dup1\n      0x01\n      add\n      sload\n      swap1\n      dup1\n      0x02\n      add\n      0x00\n      swap1\n      sload\n      swap1\n      0x0100\n      exp\n      swap1\n      div\n      0xffffffffffffffffffffffffffffffffffffffff\n      and\n      swap1\n      dup1\n      0x02\n      add\n      0x14\n      swap1\n      sload\n      swap1\n      0x0100\n      exp\n      swap1\n      div\n      0xff\n      and\n      swap1\n      pop\n      dup6\n      jump\t// out\n        /* \"contracts/PRACTICE/Project_Voting.sol\":1201:1230  uint256 public candidateCount */\n    tag_55:\n      sload(0x03)\n      dup2\n      jump\t// out\n        /* \"contracts/PRACTICE/Project_Voting.sol\":4292:4596  function delegateVote(address to) public onlyDuringElection notVoted {... */\n    tag_60:\n        /* \"contracts/PRACTICE/Project_Voting.sol\":1856:1871  electionOngoing */\n      0x00\n      0x14\n      swap1\n      sload\n      swap1\n      0x0100\n      exp\n      swap1\n      div\n      0xff\n      and\n        /* \"contracts/PRACTICE/Project_Voting.sol\":1848:1899  require(electionOngoing, \"Election is not ongoing\") */\n      tag_151\n      jumpi\n      mload(0x40)\n      0x08c379a000000000000000000000000000000000000000000000000000000000\n      dup2\n      mstore\n      0x04\n      add\n      tag_152\n      swap1\n      tag_123\n      jump\t// in\n    tag_152:\n      mload(0x40)\n      dup1\n      swap2\n      sub\n      swap1\n      revert\n    tag_151:\n        /* \"contracts/PRACTICE/Project_Voting.sol\":2022:2028  voters */\n      0x02\n        /* \"contracts/PRACTICE/Project_Voting.sol\":2022:2040  voters[msg.sender] */\n      0x00\n        /* \"contracts/PRACTICE/Project_Voting.sol\":2029:2039  msg.sender */\n      caller\n        /* \"contracts/PRACTICE/Project_Voting.sol\":2022:2040  voters[msg.sender] */\n      0xffffffffffffffffffffffffffffffffffffffff\n      and\n      0xffffffffffffffffffffffffffffffffffffffff\n      and\n      dup2\n      mstore\n      0x20\n      add\n      swap1\n      dup2\n      mstore\n      0x20\n      add\n      0x00\n      keccak256\n        /* \"contracts/PRACTICE/Project_Voting.sol\":2022:2049  voters[msg.sender].hasVoted */\n      0x00\n      add\n      0x01\n      swap1\n      sload\n      swap1\n      0x0100\n      exp\n      swap1\n      div\n      0xff\n      and\n        /* \"contracts/PRACTICE/Project_Voting.sol\":2021:2049  !voters[msg.sender].hasVoted */\n      iszero\n        /* \"contracts/PRACTICE/Project_Voting.sol\":2013:2076  require(!voters[msg.sender].hasVoted, \"You have already voted\") */\n      tag_154\n      jumpi\n      mload(0x40)\n      0x08c379a000000000000000000000000000000000000000000000000000000000\n      dup2\n      mstore\n      0x04\n      add\n      tag_155\n      swap1\n      tag_156\n      jump\t// in\n    tag_155:\n      mload(0x40)\n      dup1\n      swap2\n      sub\n      swap1\n      revert\n    tag_154:\n        /* \"contracts/PRACTICE/Project_Voting.sol\":4380:4386  voters */\n      0x02\n        /* \"contracts/PRACTICE/Project_Voting.sol\":4380:4390  voters[to] */\n      0x00\n        /* \"contracts/PRACTICE/Project_Voting.sol\":4387:4389  to */\n      dup3\n        /* \"contracts/PRACTICE/Project_Voting.sol\":4380:4390  voters[to] */\n      0xffffffffffffffffffffffffffffffffffffffff\n      and\n      0xffffffffffffffffffffffffffffffffffffffff\n      and\n      dup2\n      mstore\n      0x20\n      add\n      swap1\n      dup2\n      mstore\n      0x20\n      add\n      0x00\n      keccak256\n        /* \"contracts/PRACTICE/Project_Voting.sol\":4380:4401  voters[to].registered */\n      0x00\n      add\n      0x00\n      swap1\n      sload\n      swap1\n      0x0100\n      exp\n      swap1\n      div\n      0xff\n      and\n        /* \"contracts/PRACTICE/Project_Voting.sol\":4372:4448  require(voters[to].registered, \"Delegate address is not a registered voter\") */\n      tag_158\n      jumpi\n      mload(0x40)\n      0x08c379a000000000000000000000000000000000000000000000000000000000\n      dup2\n      mstore\n      0x04\n      add\n      tag_159\n      swap1\n      tag_160\n      jump\t// in\n    tag_159:\n      mload(0x40)\n      dup1\n      swap2\n      sub\n      swap1\n      revert\n    tag_158:\n        /* \"contracts/PRACTICE/Project_Voting.sol\":4494:4498  true */\n      0x01\n        /* \"contracts/PRACTICE/Project_Voting.sol\":4459:4465  voters */\n      0x02\n        /* \"contracts/PRACTICE/Project_Voting.sol\":4459:4477  voters[msg.sender] */\n      0x00\n        /* \"contracts/PRACTICE/Project_Voting.sol\":4466:4476  msg.sender */\n      caller\n        /* \"contracts/PRACTICE/Project_Voting.sol\":4459:4477  voters[msg.sender] */\n      0xffffffffffffffffffffffffffffffffffffffff\n      and\n      0xffffffffffffffffffffffffffffffffffffffff\n      and\n      dup2\n      mstore\n      0x20\n      add\n      swap1\n      dup2\n      mstore\n      0x20\n      add\n      0x00\n      keccak256\n        /* \"contracts/PRACTICE/Project_Voting.sol\":4459:4491  voters[msg.sender].voteDelegated */\n      0x02\n      add\n      0x14\n        /* \"contracts/PRACTICE/Project_Voting.sol\":4459:4498  voters[msg.sender].voteDelegated = true */\n      0x0100\n      exp\n      dup2\n      sload\n      dup2\n      0xff\n      mul\n      not\n      and\n      swap1\n      dup4\n      iszero\n      iszero\n      mul\n      or\n      swap1\n      sstore\n      pop\n        /* \"contracts/PRACTICE/Project_Voting.sol\":4541:4543  to */\n      dup1\n        /* \"contracts/PRACTICE/Project_Voting.sol\":4509:4515  voters */\n      0x02\n        /* \"contracts/PRACTICE/Project_Voting.sol\":4509:4527  voters[msg.sender] */\n      0x00\n        /* \"contracts/PRACTICE/Project_Voting.sol\":4516:4526  msg.sender */\n      caller\n        /* \"contracts/PRACTICE/Project_Voting.sol\":4509:4527  voters[msg.sender] */\n      0xffffffffffffffffffffffffffffffffffffffff\n      and\n      0xffffffffffffffffffffffffffffffffffffffff\n      and\n      dup2\n      mstore\n      0x20\n      add\n      swap1\n      dup2\n      mstore\n      0x20\n      add\n      0x00\n      keccak256\n        /* \"contracts/PRACTICE/Project_Voting.sol\":4509:4538  voters[msg.sender].delegateTo */\n      0x02\n      add\n      0x00\n        /* \"contracts/PRACTICE/Project_Voting.sol\":4509:4543  voters[msg.sender].delegateTo = to */\n      0x0100\n      exp\n      dup2\n      sload\n      dup2\n      0xffffffffffffffffffffffffffffffffffffffff\n      mul\n      not\n      and\n      swap1\n      dup4\n      0xffffffffffffffffffffffffffffffffffffffff\n      and\n      mul\n      or\n      swap1\n      sstore\n      pop\n        /* \"contracts/PRACTICE/Project_Voting.sol\":4559:4588  VoteDelegated(msg.sender, to) */\n      0xa0ff2fa6909fe4ddd94349fc9d8e2932f3dfe666216f3cc2aa3a72f5a03b655e\n        /* \"contracts/PRACTICE/Project_Voting.sol\":4573:4583  msg.sender */\n      caller\n        /* \"contracts/PRACTICE/Project_Voting.sol\":4585:4587  to */\n      dup3\n        /* \"contracts/PRACTICE/Project_Voting.sol\":4559:4588  VoteDelegated(msg.sender, to) */\n      mload(0x40)\n      tag_161\n      swap3\n      swap2\n      swap1\n      tag_162\n      jump\t// in\n    tag_161:\n      mload(0x40)\n      dup1\n      swap2\n      sub\n      swap1\n      log1\n        /* \"contracts/PRACTICE/Project_Voting.sol\":4292:4596  function delegateVote(address to) public onlyDuringElection notVoted {... */\n      pop\n      jump\t// out\n        /* \"contracts/PRACTICE/Project_Voting.sol\":5936:6433  function getVoterProfile(address voter) public view returns (... */\n    tag_63:\n        /* \"contracts/PRACTICE/Project_Voting.sol\":6007:6022  bool registered */\n      0x00\n        /* \"contracts/PRACTICE/Project_Voting.sol\":6033:6046  bool hasVoted */\n      0x00\n        /* \"contracts/PRACTICE/Project_Voting.sol\":6057:6081  uint256 votedCandidateId */\n      0x00\n        /* \"contracts/PRACTICE/Project_Voting.sol\":6092:6110  bool voteDelegated */\n      0x00\n        /* \"contracts/PRACTICE/Project_Voting.sol\":6121:6139  address delegateTo */\n      0x00\n        /* \"contracts/PRACTICE/Project_Voting.sol\":6158:6183  Voter memory voterDetails */\n      0x00\n        /* \"contracts/PRACTICE/Project_Voting.sol\":6186:6192  voters */\n      0x02\n        /* \"contracts/PRACTICE/Project_Voting.sol\":6186:6199  voters[voter] */\n      0x00\n        /* \"contracts/PRACTICE/Project_Voting.sol\":6193:6198  voter */\n      dup9\n        /* \"contracts/PRACTICE/Project_Voting.sol\":6186:6199  voters[voter] */\n      0xffffffffffffffffffffffffffffffffffffffff\n      and\n      0xffffffffffffffffffffffffffffffffffffffff\n      and\n      dup2\n      mstore\n      0x20\n      add\n      swap1\n      dup2\n      mstore\n      0x20\n      add\n      0x00\n      keccak256\n        /* \"contracts/PRACTICE/Project_Voting.sol\":6158:6199  Voter memory voterDetails = voters[voter] */\n      mload(0x40)\n      dup1\n      0xa0\n      add\n      0x40\n      mstore\n      swap1\n      dup2\n      0x00\n      dup3\n      add\n      0x00\n      swap1\n      sload\n      swap1\n      0x0100\n      exp\n      swap1\n      div\n      0xff\n      and\n      iszero\n      iszero\n      iszero\n      iszero\n      dup2\n      mstore\n      0x20\n      add\n      0x00\n      dup3\n      add\n      0x01\n      swap1\n      sload\n      swap1\n      0x0100\n      exp\n      swap1\n      div\n      0xff\n      and\n      iszero\n      iszero\n      iszero\n      iszero\n      dup2\n      mstore\n      0x20\n      add\n      0x01\n      dup3\n      add\n      sload\n      dup2\n      mstore\n      0x20\n      add\n      0x02\n      dup3\n      add\n      0x00\n      swap1\n      sload\n      swap1\n      0x0100\n      exp\n      swap1\n      div\n      0xffffffffffffffffffffffffffffffffffffffff\n      and\n      0xffffffffffffffffffffffffffffffffffffffff\n      and\n      0xffffffffffffffffffffffffffffffffffffffff\n      and\n      dup2\n      mstore\n      0x20\n      add\n      0x02\n      dup3\n      add\n      0x14\n      swap1\n      sload\n      swap1\n      0x0100\n      exp\n      swap1\n      div\n      0xff\n      and\n      iszero\n      iszero\n      iszero\n      iszero\n      dup2\n      mstore\n      pop\n      pop\n      swap1\n      pop\n        /* \"contracts/PRACTICE/Project_Voting.sol\":6232:6244  voterDetails */\n      dup1\n        /* \"contracts/PRACTICE/Project_Voting.sol\":6232:6255  voterDetails.registered */\n      0x00\n      add\n      mload\n        /* \"contracts/PRACTICE/Project_Voting.sol\":6270:6282  voterDetails */\n      dup2\n        /* \"contracts/PRACTICE/Project_Voting.sol\":6270:6291  voterDetails.hasVoted */\n      0x20\n      add\n      mload\n        /* \"contracts/PRACTICE/Project_Voting.sol\":6306:6318  voterDetails */\n      dup3\n        /* \"contracts/PRACTICE/Project_Voting.sol\":6306:6335  voterDetails.votedCandidateId */\n      0x40\n      add\n      mload\n        /* \"contracts/PRACTICE/Project_Voting.sol\":6350:6362  voterDetails */\n      dup4\n        /* \"contracts/PRACTICE/Project_Voting.sol\":6350:6376  voterDetails.voteDelegated */\n      0x80\n      add\n      mload\n        /* \"contracts/PRACTICE/Project_Voting.sol\":6391:6403  voterDetails */\n      dup5\n        /* \"contracts/PRACTICE/Project_Voting.sol\":6391:6414  voterDetails.delegateTo */\n      0x60\n      add\n      mload\n        /* \"contracts/PRACTICE/Project_Voting.sol\":6210:6425  return (... */\n      swap6\n      pop\n      swap6\n      pop\n      swap6\n      pop\n      swap6\n      pop\n      swap6\n      pop\n      pop\n        /* \"contracts/PRACTICE/Project_Voting.sol\":5936:6433  function getVoterProfile(address voter) public view returns (... */\n      swap2\n      swap4\n      swap6\n      swap1\n      swap3\n      swap5\n      pop\n      jump\t// out\n        /* \"contracts/PRACTICE/Project_Voting.sol\":4650:5309  function Vote(uint256 candidateId) public onlyDuringElection notVoted {... */\n    tag_68:\n        /* \"contracts/PRACTICE/Project_Voting.sol\":1856:1871  electionOngoing */\n      0x00\n      0x14\n      swap1\n      sload\n      swap1\n      0x0100\n      exp\n      swap1\n      div\n      0xff\n      and\n        /* \"contracts/PRACTICE/Project_Voting.sol\":1848:1899  require(electionOngoing, \"Election is not ongoing\") */\n      tag_165\n      jumpi\n      mload(0x40)\n      0x08c379a000000000000000000000000000000000000000000000000000000000\n      dup2\n      mstore\n      0x04\n      add\n      tag_166\n      swap1\n      tag_123\n      jump\t// in\n    tag_166:\n      mload(0x40)\n      dup1\n      swap2\n      sub\n      swap1\n      revert\n    tag_165:\n        /* \"contracts/PRACTICE/Project_Voting.sol\":2022:2028  voters */\n      0x02\n        /* \"contracts/PRACTICE/Project_Voting.sol\":2022:2040  voters[msg.sender] */\n      0x00\n        /* \"contracts/PRACTICE/Project_Voting.sol\":2029:2039  msg.sender */\n      caller\n        /* \"contracts/PRACTICE/Project_Voting.sol\":2022:2040  voters[msg.sender] */\n      0xffffffffffffffffffffffffffffffffffffffff\n      and\n      0xffffffffffffffffffffffffffffffffffffffff\n      and\n      dup2\n      mstore\n      0x20\n      add\n      swap1\n      dup2\n      mstore\n      0x20\n      add\n      0x00\n      keccak256\n        /* \"contracts/PRACTICE/Project_Voting.sol\":2022:2049  voters[msg.sender].hasVoted */\n      0x00\n      add\n      0x01\n      swap1\n      sload\n      swap1\n      0x0100\n      exp\n      swap1\n      div\n      0xff\n      and\n        /* \"contracts/PRACTICE/Project_Voting.sol\":2021:2049  !voters[msg.sender].hasVoted */\n      iszero\n        /* \"contracts/PRACTICE/Project_Voting.sol\":2013:2076  require(!voters[msg.sender].hasVoted, \"You have already voted\") */\n      tag_168\n      jumpi\n      mload(0x40)\n      0x08c379a000000000000000000000000000000000000000000000000000000000\n      dup2\n      mstore\n      0x04\n      add\n      tag_169\n      swap1\n      tag_156\n      jump\t// in\n    tag_169:\n      mload(0x40)\n      dup1\n      swap2\n      sub\n      swap1\n      revert\n    tag_168:\n        /* \"contracts/PRACTICE/Project_Voting.sol\":4769:4770  0 */\n      0x00\n        /* \"contracts/PRACTICE/Project_Voting.sol\":4739:4749  candidates */\n      0x01\n        /* \"contracts/PRACTICE/Project_Voting.sol\":4739:4762  candidates[candidateId] */\n      0x00\n        /* \"contracts/PRACTICE/Project_Voting.sol\":4750:4761  candidateId */\n      dup4\n        /* \"contracts/PRACTICE/Project_Voting.sol\":4739:4762  candidates[candidateId] */\n      dup2\n      mstore\n      0x20\n      add\n      swap1\n      dup2\n      mstore\n      0x20\n      add\n      0x00\n      keccak256\n        /* \"contracts/PRACTICE/Project_Voting.sol\":4739:4765  candidates[candidateId].id */\n      0x00\n      add\n      sload\n        /* \"contracts/PRACTICE/Project_Voting.sol\":4739:4770  candidates[candidateId].id != 0 */\n      sub\n        /* \"contracts/PRACTICE/Project_Voting.sol\":4731:4799  require(candidates[candidateId].id != 0, \"Candidate does not exist\") */\n      tag_171\n      jumpi\n      mload(0x40)\n      0x08c379a000000000000000000000000000000000000000000000000000000000\n      dup2\n      mstore\n      0x04\n      add\n      tag_172\n      swap1\n      tag_173\n      jump\t// in\n    tag_172:\n      mload(0x40)\n      dup1\n      swap2\n      sub\n      swap1\n      revert\n    tag_171:\n        /* \"contracts/PRACTICE/Project_Voting.sol\":4814:4820  voters */\n      0x02\n        /* \"contracts/PRACTICE/Project_Voting.sol\":4814:4832  voters[msg.sender] */\n      0x00\n        /* \"contracts/PRACTICE/Project_Voting.sol\":4821:4831  msg.sender */\n      caller\n        /* \"contracts/PRACTICE/Project_Voting.sol\":4814:4832  voters[msg.sender] */\n      0xffffffffffffffffffffffffffffffffffffffff\n      and\n      0xffffffffffffffffffffffffffffffffffffffff\n      and\n      dup2\n      mstore\n      0x20\n      add\n      swap1\n      dup2\n      mstore\n      0x20\n      add\n      0x00\n      keccak256\n        /* \"contracts/PRACTICE/Project_Voting.sol\":4814:4846  voters[msg.sender].voteDelegated */\n      0x02\n      add\n      0x14\n      swap1\n      sload\n      swap1\n      0x0100\n      exp\n      swap1\n      div\n      0xff\n      and\n        /* \"contracts/PRACTICE/Project_Voting.sol\":4810:5146  if (voters[msg.sender].voteDelegated) {... */\n      iszero\n      tag_174\n      jumpi\n        /* \"contracts/PRACTICE/Project_Voting.sol\":4863:4880  address delegatee */\n      0x00\n        /* \"contracts/PRACTICE/Project_Voting.sol\":4883:4889  voters */\n      0x02\n        /* \"contracts/PRACTICE/Project_Voting.sol\":4883:4901  voters[msg.sender] */\n      0x00\n        /* \"contracts/PRACTICE/Project_Voting.sol\":4890:4900  msg.sender */\n      caller\n        /* \"contracts/PRACTICE/Project_Voting.sol\":4883:4901  voters[msg.sender] */\n      0xffffffffffffffffffffffffffffffffffffffff\n      and\n      0xffffffffffffffffffffffffffffffffffffffff\n      and\n      dup2\n      mstore\n      0x20\n      add\n      swap1\n      dup2\n      mstore\n      0x20\n      add\n      0x00\n      keccak256\n        /* \"contracts/PRACTICE/Project_Voting.sol\":4883:4912  voters[msg.sender].delegateTo */\n      0x02\n      add\n      0x00\n      swap1\n      sload\n      swap1\n      0x0100\n      exp\n      swap1\n      div\n      0xffffffffffffffffffffffffffffffffffffffff\n      and\n        /* \"contracts/PRACTICE/Project_Voting.sol\":4863:4912  address delegatee = voters[msg.sender].delegateTo */\n      swap1\n      pop\n        /* \"contracts/PRACTICE/Project_Voting.sol\":4935:4941  voters */\n      0x02\n        /* \"contracts/PRACTICE/Project_Voting.sol\":4935:4952  voters[delegatee] */\n      0x00\n        /* \"contracts/PRACTICE/Project_Voting.sol\":4942:4951  delegatee */\n      dup3\n        /* \"contracts/PRACTICE/Project_Voting.sol\":4935:4952  voters[delegatee] */\n      0xffffffffffffffffffffffffffffffffffffffff\n      and\n      0xffffffffffffffffffffffffffffffffffffffff\n      and\n      dup2\n      mstore\n      0x20\n      add\n      swap1\n      dup2\n      mstore\n      0x20\n      add\n      0x00\n      keccak256\n        /* \"contracts/PRACTICE/Project_Voting.sol\":4935:4961  voters[delegatee].hasVoted */\n      0x00\n      add\n      0x01\n      swap1\n      sload\n      swap1\n      0x0100\n      exp\n      swap1\n      div\n      0xff\n      and\n        /* \"contracts/PRACTICE/Project_Voting.sol\":4927:4993  require(voters[delegatee].hasVoted, \"Delegatee has not voted yet\") */\n      tag_175\n      jumpi\n      mload(0x40)\n      0x08c379a000000000000000000000000000000000000000000000000000000000\n      dup2\n      mstore\n      0x04\n      add\n      tag_176\n      swap1\n      tag_177\n      jump\t// in\n    tag_176:\n      mload(0x40)\n      dup1\n      swap2\n      sub\n      swap1\n      revert\n    tag_175:\n        /* \"contracts/PRACTICE/Project_Voting.sol\":5008:5018  candidates */\n      0x01\n        /* \"contracts/PRACTICE/Project_Voting.sol\":5008:5054  candidates[voters[delegatee].votedCandidateId] */\n      0x00\n        /* \"contracts/PRACTICE/Project_Voting.sol\":5019:5025  voters */\n      0x02\n        /* \"contracts/PRACTICE/Project_Voting.sol\":5019:5036  voters[delegatee] */\n      0x00\n        /* \"contracts/PRACTICE/Project_Voting.sol\":5026:5035  delegatee */\n      dup5\n        /* \"contracts/PRACTICE/Project_Voting.sol\":5019:5036  voters[delegatee] */\n      0xffffffffffffffffffffffffffffffffffffffff\n      and\n      0xffffffffffffffffffffffffffffffffffffffff\n      and\n      dup2\n      mstore\n      0x20\n      add\n      swap1\n      dup2\n      mstore\n      0x20\n      add\n      0x00\n      keccak256\n        /* \"contracts/PRACTICE/Project_Voting.sol\":5019:5053  voters[delegatee].votedCandidateId */\n      0x01\n      add\n      sload\n        /* \"contracts/PRACTICE/Project_Voting.sol\":5008:5054  candidates[voters[delegatee].votedCandidateId] */\n      dup2\n      mstore\n      0x20\n      add\n      swap1\n      dup2\n      mstore\n      0x20\n      add\n      0x00\n      keccak256\n        /* \"contracts/PRACTICE/Project_Voting.sol\":5008:5064  candidates[voters[delegatee].votedCandidateId].voteCount */\n      0x03\n      add\n      0x00\n        /* \"contracts/PRACTICE/Project_Voting.sol\":5008:5066  candidates[voters[delegatee].votedCandidateId].voteCount++ */\n      dup2\n      sload\n      dup1\n      swap3\n      swap2\n      swap1\n      tag_178\n      swap1\n      tag_90\n      jump\t// in\n    tag_178:\n      swap2\n      swap1\n      pop\n      sstore\n      pop\n        /* \"contracts/PRACTICE/Project_Voting.sol\":4848:5078  {... */\n      pop\n        /* \"contracts/PRACTICE/Project_Voting.sol\":4810:5146  if (voters[msg.sender].voteDelegated) {... */\n      jump(tag_179)\n    tag_174:\n        /* \"contracts/PRACTICE/Project_Voting.sol\":5099:5109  candidates */\n      0x01\n        /* \"contracts/PRACTICE/Project_Voting.sol\":5099:5122  candidates[candidateId] */\n      0x00\n        /* \"contracts/PRACTICE/Project_Voting.sol\":5110:5121  candidateId */\n      dup3\n        /* \"contracts/PRACTICE/Project_Voting.sol\":5099:5122  candidates[candidateId] */\n      dup2\n      mstore\n      0x20\n      add\n      swap1\n      dup2\n      mstore\n      0x20\n      add\n      0x00\n      keccak256\n        /* \"contracts/PRACTICE/Project_Voting.sol\":5099:5132  candidates[candidateId].voteCount */\n      0x03\n      add\n      0x00\n        /* \"contracts/PRACTICE/Project_Voting.sol\":5099:5134  candidates[candidateId].voteCount++ */\n      dup2\n      sload\n      dup1\n      swap3\n      swap2\n      swap1\n      tag_180\n      swap1\n      tag_90\n      jump\t// in\n    tag_180:\n      swap2\n      swap1\n      pop\n      sstore\n      pop\n        /* \"contracts/PRACTICE/Project_Voting.sol\":4810:5146  if (voters[msg.sender].voteDelegated) {... */\n    tag_179:\n        /* \"contracts/PRACTICE/Project_Voting.sol\":5186:5190  true */\n      0x01\n        /* \"contracts/PRACTICE/Project_Voting.sol\":5156:5162  voters */\n      0x02\n        /* \"contracts/PRACTICE/Project_Voting.sol\":5156:5174  voters[msg.sender] */\n      0x00\n        /* \"contracts/PRACTICE/Project_Voting.sol\":5163:5173  msg.sender */\n      caller\n        /* \"contracts/PRACTICE/Project_Voting.sol\":5156:5174  voters[msg.sender] */\n      0xffffffffffffffffffffffffffffffffffffffff\n      and\n      0xffffffffffffffffffffffffffffffffffffffff\n      and\n      dup2\n      mstore\n      0x20\n      add\n      swap1\n      dup2\n      mstore\n      0x20\n      add\n      0x00\n      keccak256\n        /* \"contracts/PRACTICE/Project_Voting.sol\":5156:5183  voters[msg.sender].hasVoted */\n      0x00\n      add\n      0x01\n        /* \"contracts/PRACTICE/Project_Voting.sol\":5156:5190  voters[msg.sender].hasVoted = true */\n      0x0100\n      exp\n      dup2\n      sload\n      dup2\n      0xff\n      mul\n      not\n      and\n      swap1\n      dup4\n      iszero\n      iszero\n      mul\n      or\n      swap1\n      sstore\n      pop\n        /* \"contracts/PRACTICE/Project_Voting.sol\":5239:5250  candidateId */\n      dup1\n        /* \"contracts/PRACTICE/Project_Voting.sol\":5201:5207  voters */\n      0x02\n        /* \"contracts/PRACTICE/Project_Voting.sol\":5201:5219  voters[msg.sender] */\n      0x00\n        /* \"contracts/PRACTICE/Project_Voting.sol\":5208:5218  msg.sender */\n      caller\n        /* \"contracts/PRACTICE/Project_Voting.sol\":5201:5219  voters[msg.sender] */\n      0xffffffffffffffffffffffffffffffffffffffff\n      and\n      0xffffffffffffffffffffffffffffffffffffffff\n      and\n      dup2\n      mstore\n      0x20\n      add\n      swap1\n      dup2\n      mstore\n      0x20\n      add\n      0x00\n      keccak256\n        /* \"contracts/PRACTICE/Project_Voting.sol\":5201:5236  voters[msg.sender].votedCandidateId */\n      0x01\n      add\n        /* \"contracts/PRACTICE/Project_Voting.sol\":5201:5250  voters[msg.sender].votedCandidateId = candidateId */\n      dup2\n      swap1\n      sstore\n      pop\n        /* \"contracts/PRACTICE/Project_Voting.sol\":5266:5301  VoteCasted(msg.sender, candidateId) */\n      0xd0e6c39f2e086dc49f1524b47725526a56945cd1ff661f37976f1725a1e56986\n        /* \"contracts/PRACTICE/Project_Voting.sol\":5277:5287  msg.sender */\n      caller\n        /* \"contracts/PRACTICE/Project_Voting.sol\":5289:5300  candidateId */\n      dup3\n        /* \"contracts/PRACTICE/Project_Voting.sol\":5266:5301  VoteCasted(msg.sender, candidateId) */\n      mload(0x40)\n      tag_181\n      swap3\n      swap2\n      swap1\n      tag_182\n      jump\t// in\n    tag_181:\n      mload(0x40)\n      dup1\n      swap2\n      sub\n      swap1\n      log1\n        /* \"contracts/PRACTICE/Project_Voting.sol\":4650:5309  function Vote(uint256 candidateId) public onlyDuringElection notVoted {... */\n      pop\n      jump\t// out\n        /* \"contracts/PRACTICE/Project_Voting.sol\":2635:2917  function addVoter(address voter) public onlyAdmin {... */\n    tag_71:\n        /* \"contracts/PRACTICE/Project_Voting.sol\":1656:1661  admin */\n      0x00\n      0x00\n      swap1\n      sload\n      swap1\n      0x0100\n      exp\n      swap1\n      div\n      0xffffffffffffffffffffffffffffffffffffffff\n      and\n        /* \"contracts/PRACTICE/Project_Voting.sol\":1642:1661  msg.sender == admin */\n      0xffffffffffffffffffffffffffffffffffffffff\n      and\n        /* \"contracts/PRACTICE/Project_Voting.sol\":1642:1652  msg.sender */\n      caller\n        /* \"contracts/PRACTICE/Project_Voting.sol\":1642:1661  msg.sender == admin */\n      0xffffffffffffffffffffffffffffffffffffffff\n      and\n      eq\n        /* \"contracts/PRACTICE/Project_Voting.sol\":1634:1700  require(msg.sender == admin, \"Only admin can perform this action\") */\n      tag_184\n      jumpi\n      mload(0x40)\n      0x08c379a000000000000000000000000000000000000000000000000000000000\n      dup2\n      mstore\n      0x04\n      add\n      tag_185\n      swap1\n      tag_84\n      jump\t// in\n    tag_185:\n      mload(0x40)\n      dup1\n      swap2\n      sub\n      swap1\n      revert\n    tag_184:\n        /* \"contracts/PRACTICE/Project_Voting.sol\":2705:2720  electionOngoing */\n      0x00\n      0x14\n      swap1\n      sload\n      swap1\n      0x0100\n      exp\n      swap1\n      div\n      0xff\n      and\n        /* \"contracts/PRACTICE/Project_Voting.sol\":2704:2720  !electionOngoing */\n      iszero\n        /* \"contracts/PRACTICE/Project_Voting.sol\":2696:2761  require(!electionOngoing, \"Cannot add voters during an election\") */\n      tag_187\n      jumpi\n      mload(0x40)\n      0x08c379a000000000000000000000000000000000000000000000000000000000\n      dup2\n      mstore\n      0x04\n      add\n      tag_188\n      swap1\n      tag_189\n      jump\t// in\n    tag_188:\n      mload(0x40)\n      dup1\n      swap2\n      sub\n      swap1\n      revert\n    tag_187:\n        /* \"contracts/PRACTICE/Project_Voting.sol\":2781:2787  voters */\n      0x02\n        /* \"contracts/PRACTICE/Project_Voting.sol\":2781:2794  voters[voter] */\n      0x00\n        /* \"contracts/PRACTICE/Project_Voting.sol\":2788:2793  voter */\n      dup3\n        /* \"contracts/PRACTICE/Project_Voting.sol\":2781:2794  voters[voter] */\n      0xffffffffffffffffffffffffffffffffffffffff\n      and\n      0xffffffffffffffffffffffffffffffffffffffff\n      and\n      dup2\n      mstore\n      0x20\n      add\n      swap1\n      dup2\n      mstore\n      0x20\n      add\n      0x00\n      keccak256\n        /* \"contracts/PRACTICE/Project_Voting.sol\":2781:2805  voters[voter].registered */\n      0x00\n      add\n      0x00\n      swap1\n      sload\n      swap1\n      0x0100\n      exp\n      swap1\n      div\n      0xff\n      and\n        /* \"contracts/PRACTICE/Project_Voting.sol\":2780:2805  !voters[voter].registered */\n      iszero\n        /* \"contracts/PRACTICE/Project_Voting.sol\":2772:2834  require(!voters[voter].registered, \"Voter already registered\") */\n      tag_190\n      jumpi\n      mload(0x40)\n      0x08c379a000000000000000000000000000000000000000000000000000000000\n      dup2\n      mstore\n      0x04\n      add\n      tag_191\n      swap1\n      tag_192\n      jump\t// in\n    tag_191:\n      mload(0x40)\n      dup1\n      swap2\n      sub\n      swap1\n      revert\n    tag_190:\n        /* \"contracts/PRACTICE/Project_Voting.sol\":2872:2876  true */\n      0x01\n        /* \"contracts/PRACTICE/Project_Voting.sol\":2845:2851  voters */\n      0x02\n        /* \"contracts/PRACTICE/Project_Voting.sol\":2845:2858  voters[voter] */\n      0x00\n        /* \"contracts/PRACTICE/Project_Voting.sol\":2852:2857  voter */\n      dup4\n        /* \"contracts/PRACTICE/Project_Voting.sol\":2845:2858  voters[voter] */\n      0xffffffffffffffffffffffffffffffffffffffff\n      and\n      0xffffffffffffffffffffffffffffffffffffffff\n      and\n      dup2\n      mstore\n      0x20\n      add\n      swap1\n      dup2\n      mstore\n      0x20\n      add\n      0x00\n      keccak256\n        /* \"contracts/PRACTICE/Project_Voting.sol\":2845:2869  voters[voter].registered */\n      0x00\n      add\n      0x00\n        /* \"contracts/PRACTICE/Project_Voting.sol\":2845:2876  voters[voter].registered = true */\n      0x0100\n      exp\n      dup2\n      sload\n      dup2\n      0xff\n      mul\n      not\n      and\n      swap1\n      dup4\n      iszero\n      iszero\n      mul\n      or\n      swap1\n      sstore\n      pop\n        /* \"contracts/PRACTICE/Project_Voting.sol\":2892:2909  VoterAdded(voter) */\n      0xa636f4a11e2d3ba7f89d042ecb0a6b886716e98cd49d8fd876ee0f73bced42b8\n        /* \"contracts/PRACTICE/Project_Voting.sol\":2903:2908  voter */\n      dup2\n        /* \"contracts/PRACTICE/Project_Voting.sol\":2892:2909  VoterAdded(voter) */\n      mload(0x40)\n      tag_193\n      swap2\n      swap1\n      tag_75\n      jump\t// in\n    tag_193:\n      mload(0x40)\n      dup1\n      swap2\n      sub\n      swap1\n      log1\n        /* \"contracts/PRACTICE/Project_Voting.sol\":2635:2917  function addVoter(address voter) public onlyAdmin {... */\n      pop\n      jump\t// out\n        /* \"contracts/PRACTICE/Project_Voting.sol\":121:141  address public admin */\n    tag_73:\n      0x00\n      0x00\n      swap1\n      sload\n      swap1\n      0x0100\n      exp\n      swap1\n      div\n      0xffffffffffffffffffffffffffffffffffffffff\n      and\n      dup2\n      jump\t// out\n        /* \"contracts/PRACTICE/Project_Voting.sol\":5602:5887  function getVotes(uint256 candidateId) public view returns (... */\n    tag_78:\n        /* \"contracts/PRACTICE/Project_Voting.sol\":5672:5682  uint256 id */\n      0x00\n        /* \"contracts/PRACTICE/Project_Voting.sol\":5693:5711  string memory name */\n      0x60\n        /* \"contracts/PRACTICE/Project_Voting.sol\":5722:5739  uint256 voteCount */\n      0x00\n        /* \"contracts/PRACTICE/Project_Voting.sol\":5758:5784  Candidate memory candidate */\n      0x00\n        /* \"contracts/PRACTICE/Project_Voting.sol\":5787:5797  candidates */\n      0x01\n        /* \"contracts/PRACTICE/Project_Voting.sol\":5787:5810  candidates[candidateId] */\n      0x00\n        /* \"contracts/PRACTICE/Project_Voting.sol\":5798:5809  candidateId */\n      dup7\n        /* \"contracts/PRACTICE/Project_Voting.sol\":5787:5810  candidates[candidateId] */\n      dup2\n      mstore\n      0x20\n      add\n      swap1\n      dup2\n      mstore\n      0x20\n      add\n      0x00\n      keccak256\n        /* \"contracts/PRACTICE/Project_Voting.sol\":5758:5810  Candidate memory candidate = candidates[candidateId] */\n      mload(0x40)\n      dup1\n      0x80\n      add\n      0x40\n      mstore\n      swap1\n      dup2\n      0x00\n      dup3\n      add\n      sload\n      dup2\n      mstore\n      0x20\n      add\n      0x01\n      dup3\n      add\n      dup1\n      sload\n      tag_195\n      swap1\n      tag_96\n      jump\t// in\n    tag_195:\n      dup1\n      0x1f\n      add\n      0x20\n      dup1\n      swap2\n      div\n      mul\n      0x20\n      add\n      mload(0x40)\n      swap1\n      dup2\n      add\n      0x40\n      mstore\n      dup1\n      swap3\n      swap2\n      swap1\n      dup2\n      dup2\n      mstore\n      0x20\n      add\n      dup3\n      dup1\n      sload\n      tag_196\n      swap1\n      tag_96\n      jump\t// in\n    tag_196:\n      dup1\n      iszero\n      tag_197\n      jumpi\n      dup1\n      0x1f\n      lt\n      tag_198\n      jumpi\n      0x0100\n      dup1\n      dup4\n      sload\n      div\n      mul\n      dup4\n      mstore\n      swap2\n      0x20\n      add\n      swap2\n      jump(tag_197)\n    tag_198:\n      dup3\n      add\n      swap2\n      swap1\n      0x00\n      mstore\n      keccak256(0x00, 0x20)\n      swap1\n    tag_199:\n      dup2\n      sload\n      dup2\n      mstore\n      swap1\n      0x01\n      add\n      swap1\n      0x20\n      add\n      dup1\n      dup4\n      gt\n      tag_199\n      jumpi\n      dup3\n      swap1\n      sub\n      0x1f\n      and\n      dup3\n      add\n      swap2\n    tag_197:\n      pop\n      pop\n      pop\n      pop\n      pop\n      dup2\n      mstore\n      0x20\n      add\n      0x02\n      dup3\n      add\n      dup1\n      sload\n      tag_200\n      swap1\n      tag_96\n      jump\t// in\n    tag_200:\n      dup1\n      0x1f\n      add\n      0x20\n      dup1\n      swap2\n      div\n      mul\n      0x20\n      add\n      mload(0x40)\n      swap1\n      dup2\n      add\n      0x40\n      mstore\n      dup1\n      swap3\n      swap2\n      swap1\n      dup2\n      dup2\n      mstore\n      0x20\n      add\n      dup3\n      dup1\n      sload\n      tag_201\n      swap1\n      tag_96\n      jump\t// in\n    tag_201:\n      dup1\n      iszero\n      tag_202\n      jumpi\n      dup1\n      0x1f\n      lt\n      tag_203\n      jumpi\n      0x0100\n      dup1\n      dup4\n      sload\n      div\n      mul\n      dup4\n      mstore\n      swap2\n      0x20\n      add\n      swap2\n      jump(tag_202)\n    tag_203:\n      dup3\n      add\n      swap2\n      swap1\n      0x00\n      mstore\n      keccak256(0x00, 0x20)\n      swap1\n    tag_204:\n      dup2\n      sload\n      dup2\n      mstore\n      swap1\n      0x01\n      add\n      swap1\n      0x20\n      add\n      dup1\n      dup4\n      gt\n      tag_204\n      jumpi\n      dup3\n      swap1\n      sub\n      0x1f\n      and\n      dup3\n      add\n      swap2\n    tag_202:\n      pop\n      pop\n      pop\n      pop\n      pop\n      dup2\n      mstore\n      0x20\n      add\n      0x03\n      dup3\n      add\n      sload\n      dup2\n      mstore\n      pop\n      pop\n      swap1\n      pop\n        /* \"contracts/PRACTICE/Project_Voting.sol\":5829:5838  candidate */\n      dup1\n        /* \"contracts/PRACTICE/Project_Voting.sol\":5829:5841  candidate.id */\n      0x00\n      add\n      mload\n        /* \"contracts/PRACTICE/Project_Voting.sol\":5843:5852  candidate */\n      dup2\n        /* \"contracts/PRACTICE/Project_Voting.sol\":5843:5857  candidate.name */\n      0x20\n      add\n      mload\n        /* \"contracts/PRACTICE/Project_Voting.sol\":5859:5868  candidate */\n      dup3\n        /* \"contracts/PRACTICE/Project_Voting.sol\":5859:5878  candidate.voteCount */\n      0x60\n      add\n      mload\n        /* \"contracts/PRACTICE/Project_Voting.sol\":5821:5879  return (candidate.id, candidate.name, candidate.voteCount) */\n      swap4\n      pop\n      swap4\n      pop\n      swap4\n      pop\n      pop\n        /* \"contracts/PRACTICE/Project_Voting.sol\":5602:5887  function getVotes(uint256 candidateId) public view returns (... */\n      swap2\n      swap4\n      swap1\n      swap3\n      pop\n      jump\t// out\n        /* \"#utility.yul\":7:82   */\n    tag_205:\n        /* \"#utility.yul\":40:46   */\n      0x00\n        /* \"#utility.yul\":73:75   */\n      0x40\n        /* \"#utility.yul\":67:76   */\n      mload\n        /* \"#utility.yul\":57:76   */\n      swap1\n      pop\n        /* \"#utility.yul\":7:82   */\n      swap1\n      jump\t// out\n        /* \"#utility.yul\":88:205   */\n    tag_206:\n        /* \"#utility.yul\":197:198   */\n      0x00\n        /* \"#utility.yul\":194:195   */\n      0x00\n        /* \"#utility.yul\":187:199   */\n      revert\n        /* \"#utility.yul\":211:328   */\n    tag_207:\n        /* \"#utility.yul\":320:321   */\n      0x00\n        /* \"#utility.yul\":317:318   */\n      0x00\n        /* \"#utility.yul\":310:322   */\n      revert\n        /* \"#utility.yul\":334:451   */\n    tag_208:\n        /* \"#utility.yul\":443:444   */\n      0x00\n        /* \"#utility.yul\":440:441   */\n      0x00\n        /* \"#utility.yul\":433:445   */\n      revert\n        /* \"#utility.yul\":457:574   */\n    tag_209:\n        /* \"#utility.yul\":566:567   */\n      0x00\n        /* \"#utility.yul\":563:564   */\n      0x00\n        /* \"#utility.yul\":556:568   */\n      revert\n        /* \"#utility.yul\":580:682   */\n    tag_210:\n        /* \"#utility.yul\":621:627   */\n      0x00\n        /* \"#utility.yul\":672:674   */\n      0x1f\n        /* \"#utility.yul\":668:675   */\n      not\n        /* \"#utility.yul\":663:665   */\n      0x1f\n        /* \"#utility.yul\":656:661   */\n      dup4\n        /* \"#utility.yul\":652:666   */\n      add\n        /* \"#utility.yul\":648:676   */\n      and\n        /* \"#utility.yul\":638:676   */\n      swap1\n      pop\n        /* \"#utility.yul\":580:682   */\n      swap2\n      swap1\n      pop\n      jump\t// out\n        /* \"#utility.yul\":688:868   */\n    tag_211:\n        /* \"#utility.yul\":736:813   */\n      0x4e487b7100000000000000000000000000000000000000000000000000000000\n        /* \"#utility.yul\":733:734   */\n      0x00\n        /* \"#utility.yul\":726:814   */\n      mstore\n        /* \"#utility.yul\":833:837   */\n      0x41\n        /* \"#utility.yul\":830:831   */\n      0x04\n        /* \"#utility.yul\":823:838   */\n      mstore\n        /* \"#utility.yul\":857:861   */\n      0x24\n        /* \"#utility.yul\":854:855   */\n      0x00\n        /* \"#utility.yul\":847:862   */\n      revert\n        /* \"#utility.yul\":874:1155   */\n    tag_212:\n        /* \"#utility.yul\":957:984   */\n      tag_281\n        /* \"#utility.yul\":979:983   */\n      dup3\n        /* \"#utility.yul\":957:984   */\n      tag_210\n      jump\t// in\n    tag_281:\n        /* \"#utility.yul\":949:955   */\n      dup2\n        /* \"#utility.yul\":945:985   */\n      add\n        /* \"#utility.yul\":1087:1093   */\n      dup2\n        /* \"#utility.yul\":1075:1085   */\n      dup2\n        /* \"#utility.yul\":1072:1094   */\n      lt\n        /* \"#utility.yul\":1051:1069   */\n      0xffffffffffffffff\n        /* \"#utility.yul\":1039:1049   */\n      dup3\n        /* \"#utility.yul\":1036:1070   */\n      gt\n        /* \"#utility.yul\":1033:1095   */\n      or\n        /* \"#utility.yul\":1030:1118   */\n      iszero\n      tag_282\n      jumpi\n        /* \"#utility.yul\":1098:1116   */\n      tag_283\n      tag_211\n      jump\t// in\n    tag_283:\n        /* \"#utility.yul\":1030:1118   */\n    tag_282:\n        /* \"#utility.yul\":1138:1148   */\n      dup1\n        /* \"#utility.yul\":1134:1136   */\n      0x40\n        /* \"#utility.yul\":1127:1149   */\n      mstore\n        /* \"#utility.yul\":917:1155   */\n      pop\n        /* \"#utility.yul\":874:1155   */\n      pop\n      pop\n      jump\t// out\n        /* \"#utility.yul\":1161:1290   */\n    tag_213:\n        /* \"#utility.yul\":1195:1201   */\n      0x00\n        /* \"#utility.yul\":1222:1242   */\n      tag_285\n      tag_205\n      jump\t// in\n    tag_285:\n        /* \"#utility.yul\":1212:1242   */\n      swap1\n      pop\n        /* \"#utility.yul\":1251:1284   */\n      tag_286\n        /* \"#utility.yul\":1279:1283   */\n      dup3\n        /* \"#utility.yul\":1271:1277   */\n      dup3\n        /* \"#utility.yul\":1251:1284   */\n      tag_212\n      jump\t// in\n    tag_286:\n        /* \"#utility.yul\":1161:1290   */\n      swap2\n      swap1\n      pop\n      jump\t// out\n        /* \"#utility.yul\":1296:1604   */\n    tag_214:\n        /* \"#utility.yul\":1358:1362   */\n      0x00\n        /* \"#utility.yul\":1448:1466   */\n      0xffffffffffffffff\n        /* \"#utility.yul\":1440:1446   */\n      dup3\n        /* \"#utility.yul\":1437:1467   */\n      gt\n        /* \"#utility.yul\":1434:1490   */\n      iszero\n      tag_288\n      jumpi\n        /* \"#utility.yul\":1470:1488   */\n      tag_289\n      tag_211\n      jump\t// in\n    tag_289:\n        /* \"#utility.yul\":1434:1490   */\n    tag_288:\n        /* \"#utility.yul\":1508:1537   */\n      tag_290\n        /* \"#utility.yul\":1530:1536   */\n      dup3\n        /* \"#utility.yul\":1508:1537   */\n      tag_210\n      jump\t// in\n    tag_290:\n        /* \"#utility.yul\":1500:1537   */\n      swap1\n      pop\n        /* \"#utility.yul\":1592:1596   */\n      0x20\n        /* \"#utility.yul\":1586:1590   */\n      dup2\n        /* \"#utility.yul\":1582:1597   */\n      add\n        /* \"#utility.yul\":1574:1597   */\n      swap1\n      pop\n        /* \"#utility.yul\":1296:1604   */\n      swap2\n      swap1\n      pop\n      jump\t// out\n        /* \"#utility.yul\":1610:1758   */\n    tag_215:\n        /* \"#utility.yul\":1708:1714   */\n      dup3\n        /* \"#utility.yul\":1703:1706   */\n      dup2\n        /* \"#utility.yul\":1698:1701   */\n      dup4\n        /* \"#utility.yul\":1685:1715   */\n      calldatacopy\n        /* \"#utility.yul\":1749:1750   */\n      0x00\n        /* \"#utility.yul\":1740:1746   */\n      dup4\n        /* \"#utility.yul\":1735:1738   */\n      dup4\n        /* \"#utility.yul\":1731:1747   */\n      add\n        /* \"#utility.yul\":1724:1751   */\n      mstore\n        /* \"#utility.yul\":1610:1758   */\n      pop\n      pop\n      pop\n      jump\t// out\n        /* \"#utility.yul\":1764:2189   */\n    tag_216:\n        /* \"#utility.yul\":1842:1847   */\n      0x00\n        /* \"#utility.yul\":1867:1933   */\n      tag_293\n        /* \"#utility.yul\":1883:1932   */\n      tag_294\n        /* \"#utility.yul\":1925:1931   */\n      dup5\n        /* \"#utility.yul\":1883:1932   */\n      tag_214\n      jump\t// in\n    tag_294:\n        /* \"#utility.yul\":1867:1933   */\n      tag_213\n      jump\t// in\n    tag_293:\n        /* \"#utility.yul\":1858:1933   */\n      swap1\n      pop\n        /* \"#utility.yul\":1956:1962   */\n      dup3\n        /* \"#utility.yul\":1949:1954   */\n      dup2\n        /* \"#utility.yul\":1942:1963   */\n      mstore\n        /* \"#utility.yul\":1994:1998   */\n      0x20\n        /* \"#utility.yul\":1987:1992   */\n      dup2\n        /* \"#utility.yul\":1983:1999   */\n      add\n        /* \"#utility.yul\":2032:2035   */\n      dup5\n        /* \"#utility.yul\":2023:2029   */\n      dup5\n        /* \"#utility.yul\":2018:2021   */\n      dup5\n        /* \"#utility.yul\":2014:2030   */\n      add\n        /* \"#utility.yul\":2011:2036   */\n      gt\n        /* \"#utility.yul\":2008:2120   */\n      iszero\n      tag_295\n      jumpi\n        /* \"#utility.yul\":2039:2118   */\n      tag_296\n      tag_209\n      jump\t// in\n    tag_296:\n        /* \"#utility.yul\":2008:2120   */\n    tag_295:\n        /* \"#utility.yul\":2129:2183   */\n      tag_297\n        /* \"#utility.yul\":2176:2182   */\n      dup5\n        /* \"#utility.yul\":2171:2174   */\n      dup3\n        /* \"#utility.yul\":2166:2169   */\n      dup6\n        /* \"#utility.yul\":2129:2183   */\n      tag_215\n      jump\t// in\n    tag_297:\n        /* \"#utility.yul\":1848:2189   */\n      pop\n        /* \"#utility.yul\":1764:2189   */\n      swap4\n      swap3\n      pop\n      pop\n      pop\n      jump\t// out\n        /* \"#utility.yul\":2209:2549   */\n    tag_217:\n        /* \"#utility.yul\":2265:2270   */\n      0x00\n        /* \"#utility.yul\":2314:2317   */\n      dup3\n        /* \"#utility.yul\":2307:2311   */\n      0x1f\n        /* \"#utility.yul\":2299:2305   */\n      dup4\n        /* \"#utility.yul\":2295:2312   */\n      add\n        /* \"#utility.yul\":2291:2318   */\n      slt\n        /* \"#utility.yul\":2281:2403   */\n      tag_299\n      jumpi\n        /* \"#utility.yul\":2322:2401   */\n      tag_300\n      tag_208\n      jump\t// in\n    tag_300:\n        /* \"#utility.yul\":2281:2403   */\n    tag_299:\n        /* \"#utility.yul\":2439:2445   */\n      dup2\n        /* \"#utility.yul\":2426:2446   */\n      calldataload\n        /* \"#utility.yul\":2464:2543   */\n      tag_301\n        /* \"#utility.yul\":2539:2542   */\n      dup5\n        /* \"#utility.yul\":2531:2537   */\n      dup3\n        /* \"#utility.yul\":2524:2528   */\n      0x20\n        /* \"#utility.yul\":2516:2522   */\n      dup7\n        /* \"#utility.yul\":2512:2529   */\n      add\n        /* \"#utility.yul\":2464:2543   */\n      tag_216\n      jump\t// in\n    tag_301:\n        /* \"#utility.yul\":2455:2543   */\n      swap2\n      pop\n        /* \"#utility.yul\":2271:2549   */\n      pop\n        /* \"#utility.yul\":2209:2549   */\n      swap3\n      swap2\n      pop\n      pop\n      jump\t// out\n        /* \"#utility.yul\":2555:3389   */\n    tag_23:\n        /* \"#utility.yul\":2643:2649   */\n      0x00\n        /* \"#utility.yul\":2651:2657   */\n      0x00\n        /* \"#utility.yul\":2700:2702   */\n      0x40\n        /* \"#utility.yul\":2688:2697   */\n      dup4\n        /* \"#utility.yul\":2679:2686   */\n      dup6\n        /* \"#utility.yul\":2675:2698   */\n      sub\n        /* \"#utility.yul\":2671:2703   */\n      slt\n        /* \"#utility.yul\":2668:2787   */\n      iszero\n      tag_303\n      jumpi\n        /* \"#utility.yul\":2706:2785   */\n      tag_304\n      tag_206\n      jump\t// in\n    tag_304:\n        /* \"#utility.yul\":2668:2787   */\n    tag_303:\n        /* \"#utility.yul\":2854:2855   */\n      0x00\n        /* \"#utility.yul\":2843:2852   */\n      dup4\n        /* \"#utility.yul\":2839:2856   */\n      add\n        /* \"#utility.yul\":2826:2857   */\n      calldataload\n        /* \"#utility.yul\":2884:2902   */\n      0xffffffffffffffff\n        /* \"#utility.yul\":2876:2882   */\n      dup2\n        /* \"#utility.yul\":2873:2903   */\n      gt\n        /* \"#utility.yul\":2870:2987   */\n      iszero\n      tag_305\n      jumpi\n        /* \"#utility.yul\":2906:2985   */\n      tag_306\n      tag_207\n      jump\t// in\n    tag_306:\n        /* \"#utility.yul\":2870:2987   */\n    tag_305:\n        /* \"#utility.yul\":3011:3074   */\n      tag_307\n        /* \"#utility.yul\":3066:3073   */\n      dup6\n        /* \"#utility.yul\":3057:3063   */\n      dup3\n        /* \"#utility.yul\":3046:3055   */\n      dup7\n        /* \"#utility.yul\":3042:3064   */\n      add\n        /* \"#utility.yul\":3011:3074   */\n      tag_217\n      jump\t// in\n    tag_307:\n        /* \"#utility.yul\":3001:3074   */\n      swap3\n      pop\n        /* \"#utility.yul\":2797:3084   */\n      pop\n        /* \"#utility.yul\":3151:3153   */\n      0x20\n        /* \"#utility.yul\":3140:3149   */\n      dup4\n        /* \"#utility.yul\":3136:3154   */\n      add\n        /* \"#utility.yul\":3123:3155   */\n      calldataload\n        /* \"#utility.yul\":3182:3200   */\n      0xffffffffffffffff\n        /* \"#utility.yul\":3174:3180   */\n      dup2\n        /* \"#utility.yul\":3171:3201   */\n      gt\n        /* \"#utility.yul\":3168:3285   */\n      iszero\n      tag_308\n      jumpi\n        /* \"#utility.yul\":3204:3283   */\n      tag_309\n      tag_207\n      jump\t// in\n    tag_309:\n        /* \"#utility.yul\":3168:3285   */\n    tag_308:\n        /* \"#utility.yul\":3309:3372   */\n      tag_310\n        /* \"#utility.yul\":3364:3371   */\n      dup6\n        /* \"#utility.yul\":3355:3361   */\n      dup3\n        /* \"#utility.yul\":3344:3353   */\n      dup7\n        /* \"#utility.yul\":3340:3362   */\n      add\n        /* \"#utility.yul\":3309:3372   */\n      tag_217\n      jump\t// in\n    tag_310:\n        /* \"#utility.yul\":3299:3372   */\n      swap2\n      pop\n        /* \"#utility.yul\":3094:3382   */\n      pop\n        /* \"#utility.yul\":2555:3389   */\n      swap3\n      pop\n      swap3\n      swap1\n      pop\n      jump\t// out\n        /* \"#utility.yul\":3395:3472   */\n    tag_218:\n        /* \"#utility.yul\":3432:3439   */\n      0x00\n        /* \"#utility.yul\":3461:3466   */\n      dup2\n        /* \"#utility.yul\":3450:3466   */\n      swap1\n      pop\n        /* \"#utility.yul\":3395:3472   */\n      swap2\n      swap1\n      pop\n      jump\t// out\n        /* \"#utility.yul\":3478:3600   */\n    tag_219:\n        /* \"#utility.yul\":3551:3575   */\n      tag_313\n        /* \"#utility.yul\":3569:3574   */\n      dup2\n        /* \"#utility.yul\":3551:3575   */\n      tag_218\n      jump\t// in\n    tag_313:\n        /* \"#utility.yul\":3544:3549   */\n      dup2\n        /* \"#utility.yul\":3541:3576   */\n      eq\n        /* \"#utility.yul\":3531:3594   */\n      tag_314\n      jumpi\n        /* \"#utility.yul\":3590:3591   */\n      0x00\n        /* \"#utility.yul\":3587:3588   */\n      0x00\n        /* \"#utility.yul\":3580:3592   */\n      revert\n        /* \"#utility.yul\":3531:3594   */\n    tag_314:\n        /* \"#utility.yul\":3478:3600   */\n      pop\n      jump\t// out\n        /* \"#utility.yul\":3606:3745   */\n    tag_220:\n        /* \"#utility.yul\":3652:3657   */\n      0x00\n        /* \"#utility.yul\":3690:3696   */\n      dup2\n        /* \"#utility.yul\":3677:3697   */\n      calldataload\n        /* \"#utility.yul\":3668:3697   */\n      swap1\n      pop\n        /* \"#utility.yul\":3706:3739   */\n      tag_316\n        /* \"#utility.yul\":3733:3738   */\n      dup2\n        /* \"#utility.yul\":3706:3739   */\n      tag_219\n      jump\t// in\n    tag_316:\n        /* \"#utility.yul\":3606:3745   */\n      swap3\n      swap2\n      pop\n      pop\n      jump\t// out\n        /* \"#utility.yul\":3751:4080   */\n    tag_27:\n        /* \"#utility.yul\":3810:3816   */\n      0x00\n        /* \"#utility.yul\":3859:3861   */\n      0x20\n        /* \"#utility.yul\":3847:3856   */\n      dup3\n        /* \"#utility.yul\":3838:3845   */\n      dup5\n        /* \"#utility.yul\":3834:3857   */\n      sub\n        /* \"#utility.yul\":3830:3862   */\n      slt\n        /* \"#utility.yul\":3827:3946   */\n      iszero\n      tag_318\n      jumpi\n        /* \"#utility.yul\":3865:3944   */\n      tag_319\n      tag_206\n      jump\t// in\n    tag_319:\n        /* \"#utility.yul\":3827:3946   */\n    tag_318:\n        /* \"#utility.yul\":3985:3986   */\n      0x00\n        /* \"#utility.yul\":4010:4063   */\n      tag_320\n        /* \"#utility.yul\":4055:4062   */\n      dup5\n        /* \"#utility.yul\":4046:4052   */\n      dup3\n        /* \"#utility.yul\":4035:4044   */\n      dup6\n        /* \"#utility.yul\":4031:4053   */\n      add\n        /* \"#utility.yul\":4010:4063   */\n      tag_220\n      jump\t// in\n    tag_320:\n        /* \"#utility.yul\":4000:4063   */\n      swap2\n      pop\n        /* \"#utility.yul\":3956:4073   */\n      pop\n        /* \"#utility.yul\":3751:4080   */\n      swap3\n      swap2\n      pop\n      pop\n      jump\t// out\n        /* \"#utility.yul\":4086:4204   */\n    tag_221:\n        /* \"#utility.yul\":4173:4197   */\n      tag_322\n        /* \"#utility.yul\":4191:4196   */\n      dup2\n        /* \"#utility.yul\":4173:4197   */\n      tag_218\n      jump\t// in\n    tag_322:\n        /* \"#utility.yul\":4168:4171   */\n      dup3\n        /* \"#utility.yul\":4161:4198   */\n      mstore\n        /* \"#utility.yul\":4086:4204   */\n      pop\n      pop\n      jump\t// out\n        /* \"#utility.yul\":4210:4309   */\n    tag_222:\n        /* \"#utility.yul\":4262:4268   */\n      0x00\n        /* \"#utility.yul\":4296:4301   */\n      dup2\n        /* \"#utility.yul\":4290:4302   */\n      mload\n        /* \"#utility.yul\":4280:4302   */\n      swap1\n      pop\n        /* \"#utility.yul\":4210:4309   */\n      swap2\n      swap1\n      pop\n      jump\t// out\n        /* \"#utility.yul\":4315:4484   */\n    tag_223:\n        /* \"#utility.yul\":4399:4410   */\n      0x00\n        /* \"#utility.yul\":4433:4439   */\n      dup3\n        /* \"#utility.yul\":4428:4431   */\n      dup3\n        /* \"#utility.yul\":4421:4440   */\n      mstore\n        /* \"#utility.yul\":4473:4477   */\n      0x20\n        /* \"#utility.yul\":4468:4471   */\n      dup3\n        /* \"#utility.yul\":4464:4478   */\n      add\n        /* \"#utility.yul\":4449:4478   */\n      swap1\n      pop\n        /* \"#utility.yul\":4315:4484   */\n      swap3\n      swap2\n      pop\n      pop\n      jump\t// out\n        /* \"#utility.yul\":4490:4629   */\n    tag_224:\n        /* \"#utility.yul\":4579:4585   */\n      dup3\n        /* \"#utility.yul\":4574:4577   */\n      dup2\n        /* \"#utility.yul\":4569:4572   */\n      dup4\n        /* \"#utility.yul\":4563:4586   */\n      mcopy\n        /* \"#utility.yul\":4620:4621   */\n      0x00\n        /* \"#utility.yul\":4611:4617   */\n      dup4\n        /* \"#utility.yul\":4606:4609   */\n      dup4\n        /* \"#utility.yul\":4602:4618   */\n      add\n        /* \"#utility.yul\":4595:4622   */\n      mstore\n        /* \"#utility.yul\":4490:4629   */\n      pop\n      pop\n      pop\n      jump\t// out\n        /* \"#utility.yul\":4635:5012   */\n    tag_225:\n        /* \"#utility.yul\":4723:4726   */\n      0x00\n        /* \"#utility.yul\":4751:4790   */\n      tag_327\n        /* \"#utility.yul\":4784:4789   */\n      dup3\n        /* \"#utility.yul\":4751:4790   */\n      tag_222\n      jump\t// in\n    tag_327:\n        /* \"#utility.yul\":4806:4877   */\n      tag_328\n        /* \"#utility.yul\":4870:4876   */\n      dup2\n        /* \"#utility.yul\":4865:4868   */\n      dup6\n        /* \"#utility.yul\":4806:4877   */\n      tag_223\n      jump\t// in\n    tag_328:\n        /* \"#utility.yul\":4799:4877   */\n      swap4\n      pop\n        /* \"#utility.yul\":4886:4951   */\n      tag_329\n        /* \"#utility.yul\":4944:4950   */\n      dup2\n        /* \"#utility.yul\":4939:4942   */\n      dup6\n        /* \"#utility.yul\":4932:4936   */\n      0x20\n        /* \"#utility.yul\":4925:4930   */\n      dup7\n        /* \"#utility.yul\":4921:4937   */\n      add\n        /* \"#utility.yul\":4886:4951   */\n      tag_224\n      jump\t// in\n    tag_329:\n        /* \"#utility.yul\":4976:5005   */\n      tag_330\n        /* \"#utility.yul\":4998:5004   */\n      dup2\n        /* \"#utility.yul\":4976:5005   */\n      tag_210\n      jump\t// in\n    tag_330:\n        /* \"#utility.yul\":4971:4974   */\n      dup5\n        /* \"#utility.yul\":4967:5006   */\n      add\n        /* \"#utility.yul\":4960:5006   */\n      swap2\n      pop\n        /* \"#utility.yul\":4727:5012   */\n      pop\n        /* \"#utility.yul\":4635:5012   */\n      swap3\n      swap2\n      pop\n      pop\n      jump\t// out\n        /* \"#utility.yul\":5018:5753   */\n    tag_30:\n        /* \"#utility.yul\":5235:5239   */\n      0x00\n        /* \"#utility.yul\":5273:5276   */\n      0x80\n        /* \"#utility.yul\":5262:5271   */\n      dup3\n        /* \"#utility.yul\":5258:5277   */\n      add\n        /* \"#utility.yul\":5250:5277   */\n      swap1\n      pop\n        /* \"#utility.yul\":5287:5358   */\n      tag_332\n        /* \"#utility.yul\":5355:5356   */\n      0x00\n        /* \"#utility.yul\":5344:5353   */\n      dup4\n        /* \"#utility.yul\":5340:5357   */\n      add\n        /* \"#utility.yul\":5331:5337   */\n      dup8\n        /* \"#utility.yul\":5287:5358   */\n      tag_221\n      jump\t// in\n    tag_332:\n        /* \"#utility.yul\":5405:5414   */\n      dup2\n        /* \"#utility.yul\":5399:5403   */\n      dup2\n        /* \"#utility.yul\":5395:5415   */\n      sub\n        /* \"#utility.yul\":5390:5392   */\n      0x20\n        /* \"#utility.yul\":5379:5388   */\n      dup4\n        /* \"#utility.yul\":5375:5393   */\n      add\n        /* \"#utility.yul\":5368:5416   */\n      mstore\n        /* \"#utility.yul\":5433:5511   */\n      tag_333\n        /* \"#utility.yul\":5506:5510   */\n      dup2\n        /* \"#utility.yul\":5497:5503   */\n      dup7\n        /* \"#utility.yul\":5433:5511   */\n      tag_225\n      jump\t// in\n    tag_333:\n        /* \"#utility.yul\":5425:5511   */\n      swap1\n      pop\n        /* \"#utility.yul\":5558:5567   */\n      dup2\n        /* \"#utility.yul\":5552:5556   */\n      dup2\n        /* \"#utility.yul\":5548:5568   */\n      sub\n        /* \"#utility.yul\":5543:5545   */\n      0x40\n        /* \"#utility.yul\":5532:5541   */\n      dup4\n        /* \"#utility.yul\":5528:5546   */\n      add\n        /* \"#utility.yul\":5521:5569   */\n      mstore\n        /* \"#utility.yul\":5586:5664   */\n      tag_334\n        /* \"#utility.yul\":5659:5663   */\n      dup2\n        /* \"#utility.yul\":5650:5656   */\n      dup6\n        /* \"#utility.yul\":5586:5664   */\n      tag_225\n      jump\t// in\n    tag_334:\n        /* \"#utility.yul\":5578:5664   */\n      swap1\n      pop\n        /* \"#utility.yul\":5674:5746   */\n      tag_335\n        /* \"#utility.yul\":5742:5744   */\n      0x60\n        /* \"#utility.yul\":5731:5740   */\n      dup4\n        /* \"#utility.yul\":5727:5745   */\n      add\n        /* \"#utility.yul\":5718:5724   */\n      dup5\n        /* \"#utility.yul\":5674:5746   */\n      tag_221\n      jump\t// in\n    tag_335:\n        /* \"#utility.yul\":5018:5753   */\n      swap6\n      swap5\n      pop\n      pop\n      pop\n      pop\n      pop\n      jump\t// out\n        /* \"#utility.yul\":5759:6383   */\n    tag_35:\n        /* \"#utility.yul\":5948:5952   */\n      0x00\n        /* \"#utility.yul\":5986:5988   */\n      0x60\n        /* \"#utility.yul\":5975:5984   */\n      dup3\n        /* \"#utility.yul\":5971:5989   */\n      add\n        /* \"#utility.yul\":5963:5989   */\n      swap1\n      pop\n        /* \"#utility.yul\":5999:6070   */\n      tag_337\n        /* \"#utility.yul\":6067:6068   */\n      0x00\n        /* \"#utility.yul\":6056:6065   */\n      dup4\n        /* \"#utility.yul\":6052:6069   */\n      add\n        /* \"#utility.yul\":6043:6049   */\n      dup7\n        /* \"#utility.yul\":5999:6070   */\n      tag_221\n      jump\t// in\n    tag_337:\n        /* \"#utility.yul\":6117:6126   */\n      dup2\n        /* \"#utility.yul\":6111:6115   */\n      dup2\n        /* \"#utility.yul\":6107:6127   */\n      sub\n        /* \"#utility.yul\":6102:6104   */\n      0x20\n        /* \"#utility.yul\":6091:6100   */\n      dup4\n        /* \"#utility.yul\":6087:6105   */\n      add\n        /* \"#utility.yul\":6080:6128   */\n      mstore\n        /* \"#utility.yul\":6145:6223   */\n      tag_338\n        /* \"#utility.yul\":6218:6222   */\n      dup2\n        /* \"#utility.yul\":6209:6215   */\n      dup6\n        /* \"#utility.yul\":6145:6223   */\n      tag_225\n      jump\t// in\n    tag_338:\n        /* \"#utility.yul\":6137:6223   */\n      swap1\n      pop\n        /* \"#utility.yul\":6270:6279   */\n      dup2\n        /* \"#utility.yul\":6264:6268   */\n      dup2\n        /* \"#utility.yul\":6260:6280   */\n      sub\n        /* \"#utility.yul\":6255:6257   */\n      0x40\n        /* \"#utility.yul\":6244:6253   */\n      dup4\n        /* \"#utility.yul\":6240:6258   */\n      add\n        /* \"#utility.yul\":6233:6281   */\n      mstore\n        /* \"#utility.yul\":6298:6376   */\n      tag_339\n        /* \"#utility.yul\":6371:6375   */\n      dup2\n        /* \"#utility.yul\":6362:6368   */\n      dup5\n        /* \"#utility.yul\":6298:6376   */\n      tag_225\n      jump\t// in\n    tag_339:\n        /* \"#utility.yul\":6290:6376   */\n      swap1\n      pop\n        /* \"#utility.yul\":5759:6383   */\n      swap5\n      swap4\n      pop\n      pop\n      pop\n      pop\n      jump\t// out\n        /* \"#utility.yul\":6389:6922   */\n    tag_43:\n        /* \"#utility.yul\":6558:6562   */\n      0x00\n        /* \"#utility.yul\":6596:6598   */\n      0x60\n        /* \"#utility.yul\":6585:6594   */\n      dup3\n        /* \"#utility.yul\":6581:6599   */\n      add\n        /* \"#utility.yul\":6573:6599   */\n      swap1\n      pop\n        /* \"#utility.yul\":6645:6654   */\n      dup2\n        /* \"#utility.yul\":6639:6643   */\n      dup2\n        /* \"#utility.yul\":6635:6655   */\n      sub\n        /* \"#utility.yul\":6631:6632   */\n      0x00\n        /* \"#utility.yul\":6620:6629   */\n      dup4\n        /* \"#utility.yul\":6616:6633   */\n      add\n        /* \"#utility.yul\":6609:6656   */\n      mstore\n        /* \"#utility.yul\":6673:6751   */\n      tag_341\n        /* \"#utility.yul\":6746:6750   */\n      dup2\n        /* \"#utility.yul\":6737:6743   */\n      dup7\n        /* \"#utility.yul\":6673:6751   */\n      tag_225\n      jump\t// in\n    tag_341:\n        /* \"#utility.yul\":6665:6751   */\n      swap1\n      pop\n        /* \"#utility.yul\":6761:6833   */\n      tag_342\n        /* \"#utility.yul\":6829:6831   */\n      0x20\n        /* \"#utility.yul\":6818:6827   */\n      dup4\n        /* \"#utility.yul\":6814:6832   */\n      add\n        /* \"#utility.yul\":6805:6811   */\n      dup6\n        /* \"#utility.yul\":6761:6833   */\n      tag_221\n      jump\t// in\n    tag_342:\n        /* \"#utility.yul\":6843:6915   */\n      tag_343\n        /* \"#utility.yul\":6911:6913   */\n      0x40\n        /* \"#utility.yul\":6900:6909   */\n      dup4\n        /* \"#utility.yul\":6896:6914   */\n      add\n        /* \"#utility.yul\":6887:6893   */\n      dup5\n        /* \"#utility.yul\":6843:6915   */\n      tag_221\n      jump\t// in\n    tag_343:\n        /* \"#utility.yul\":6389:6922   */\n      swap5\n      swap4\n      pop\n      pop\n      pop\n      pop\n      jump\t// out\n        /* \"#utility.yul\":6928:7018   */\n    tag_226:\n        /* \"#utility.yul\":6962:6969   */\n      0x00\n        /* \"#utility.yul\":7005:7010   */\n      dup2\n        /* \"#utility.yul\":6998:7011   */\n      iszero\n        /* \"#utility.yul\":6991:7012   */\n      iszero\n        /* \"#utility.yul\":6980:7012   */\n      swap1\n      pop\n        /* \"#utility.yul\":6928:7018   */\n      swap2\n      swap1\n      pop\n      jump\t// out\n        /* \"#utility.yul\":7024:7133   */\n    tag_227:\n        /* \"#utility.yul\":7105:7126   */\n      tag_346\n        /* \"#utility.yul\":7120:7125   */\n      dup2\n        /* \"#utility.yul\":7105:7126   */\n      tag_226\n      jump\t// in\n    tag_346:\n        /* \"#utility.yul\":7100:7103   */\n      dup3\n        /* \"#utility.yul\":7093:7127   */\n      mstore\n        /* \"#utility.yul\":7024:7133   */\n      pop\n      pop\n      jump\t// out\n        /* \"#utility.yul\":7139:7349   */\n    tag_47:\n        /* \"#utility.yul\":7226:7230   */\n      0x00\n        /* \"#utility.yul\":7264:7266   */\n      0x20\n        /* \"#utility.yul\":7253:7262   */\n      dup3\n        /* \"#utility.yul\":7249:7267   */\n      add\n        /* \"#utility.yul\":7241:7267   */\n      swap1\n      pop\n        /* \"#utility.yul\":7277:7342   */\n      tag_348\n        /* \"#utility.yul\":7339:7340   */\n      0x00\n        /* \"#utility.yul\":7328:7337   */\n      dup4\n        /* \"#utility.yul\":7324:7341   */\n      add\n        /* \"#utility.yul\":7315:7321   */\n      dup5\n        /* \"#utility.yul\":7277:7342   */\n      tag_227\n      jump\t// in\n    tag_348:\n        /* \"#utility.yul\":7139:7349   */\n      swap3\n      swap2\n      pop\n      pop\n      jump\t// out\n        /* \"#utility.yul\":7355:7481   */\n    tag_228:\n        /* \"#utility.yul\":7392:7399   */\n      0x00\n        /* \"#utility.yul\":7432:7474   */\n      0xffffffffffffffffffffffffffffffffffffffff\n        /* \"#utility.yul\":7425:7430   */\n      dup3\n        /* \"#utility.yul\":7421:7475   */\n      and\n        /* \"#utility.yul\":7410:7475   */\n      swap1\n      pop\n        /* \"#utility.yul\":7355:7481   */\n      swap2\n      swap1\n      pop\n      jump\t// out\n        /* \"#utility.yul\":7487:7583   */\n    tag_229:\n        /* \"#utility.yul\":7524:7531   */\n      0x00\n        /* \"#utility.yul\":7553:7577   */\n      tag_351\n        /* \"#utility.yul\":7571:7576   */\n      dup3\n        /* \"#utility.yul\":7553:7577   */\n      tag_228\n      jump\t// in\n    tag_351:\n        /* \"#utility.yul\":7542:7577   */\n      swap1\n      pop\n        /* \"#utility.yul\":7487:7583   */\n      swap2\n      swap1\n      pop\n      jump\t// out\n        /* \"#utility.yul\":7589:7711   */\n    tag_230:\n        /* \"#utility.yul\":7662:7686   */\n      tag_353\n        /* \"#utility.yul\":7680:7685   */\n      dup2\n        /* \"#utility.yul\":7662:7686   */\n      tag_229\n      jump\t// in\n    tag_353:\n        /* \"#utility.yul\":7655:7660   */\n      dup2\n        /* \"#utility.yul\":7652:7687   */\n      eq\n        /* \"#utility.yul\":7642:7705   */\n      tag_354\n      jumpi\n        /* \"#utility.yul\":7701:7702   */\n      0x00\n        /* \"#utility.yul\":7698:7699   */\n      0x00\n        /* \"#utility.yul\":7691:7703   */\n      revert\n        /* \"#utility.yul\":7642:7705   */\n    tag_354:\n        /* \"#utility.yul\":7589:7711   */\n      pop\n      jump\t// out\n        /* \"#utility.yul\":7717:7856   */\n    tag_231:\n        /* \"#utility.yul\":7763:7768   */\n      0x00\n        /* \"#utility.yul\":7801:7807   */\n      dup2\n        /* \"#utility.yul\":7788:7808   */\n      calldataload\n        /* \"#utility.yul\":7779:7808   */\n      swap1\n      pop\n        /* \"#utility.yul\":7817:7850   */\n      tag_356\n        /* \"#utility.yul\":7844:7849   */\n      dup2\n        /* \"#utility.yul\":7817:7850   */\n      tag_230\n      jump\t// in\n    tag_356:\n        /* \"#utility.yul\":7717:7856   */\n      swap3\n      swap2\n      pop\n      pop\n      jump\t// out\n        /* \"#utility.yul\":7862:8191   */\n    tag_50:\n        /* \"#utility.yul\":7921:7927   */\n      0x00\n        /* \"#utility.yul\":7970:7972   */\n      0x20\n        /* \"#utility.yul\":7958:7967   */\n      dup3\n        /* \"#utility.yul\":7949:7956   */\n      dup5\n        /* \"#utility.yul\":7945:7968   */\n      sub\n        /* \"#utility.yul\":7941:7973   */\n      slt\n        /* \"#utility.yul\":7938:8057   */\n      iszero\n      tag_358\n      jumpi\n        /* \"#utility.yul\":7976:8055   */\n      tag_359\n      tag_206\n      jump\t// in\n    tag_359:\n        /* \"#utility.yul\":7938:8057   */\n    tag_358:\n        /* \"#utility.yul\":8096:8097   */\n      0x00\n        /* \"#utility.yul\":8121:8174   */\n      tag_360\n        /* \"#utility.yul\":8166:8173   */\n      dup5\n        /* \"#utility.yul\":8157:8163   */\n      dup3\n        /* \"#utility.yul\":8146:8155   */\n      dup6\n        /* \"#utility.yul\":8142:8164   */\n      add\n        /* \"#utility.yul\":8121:8174   */\n      tag_231\n      jump\t// in\n    tag_360:\n        /* \"#utility.yul\":8111:8174   */\n      swap2\n      pop\n        /* \"#utility.yul\":8067:8184   */\n      pop\n        /* \"#utility.yul\":7862:8191   */\n      swap3\n      swap2\n      pop\n      pop\n      jump\t// out\n        /* \"#utility.yul\":8197:8315   */\n    tag_232:\n        /* \"#utility.yul\":8284:8308   */\n      tag_362\n        /* \"#utility.yul\":8302:8307   */\n      dup2\n        /* \"#utility.yul\":8284:8308   */\n      tag_229\n      jump\t// in\n    tag_362:\n        /* \"#utility.yul\":8279:8282   */\n      dup3\n        /* \"#utility.yul\":8272:8309   */\n      mstore\n        /* \"#utility.yul\":8197:8315   */\n      pop\n      pop\n      jump\t// out\n        /* \"#utility.yul\":8321:8949   */\n    tag_53:\n        /* \"#utility.yul\":8508:8512   */\n      0x00\n        /* \"#utility.yul\":8546:8549   */\n      0xa0\n        /* \"#utility.yul\":8535:8544   */\n      dup3\n        /* \"#utility.yul\":8531:8550   */\n      add\n        /* \"#utility.yul\":8523:8550   */\n      swap1\n      pop\n        /* \"#utility.yul\":8560:8625   */\n      tag_364\n        /* \"#utility.yul\":8622:8623   */\n      0x00\n        /* \"#utility.yul\":8611:8620   */\n      dup4\n        /* \"#utility.yul\":8607:8624   */\n      add\n        /* \"#utility.yul\":8598:8604   */\n      dup9\n        /* \"#utility.yul\":8560:8625   */\n      tag_227\n      jump\t// in\n    tag_364:\n        /* \"#utility.yul\":8635:8701   */\n      tag_365\n        /* \"#utility.yul\":8697:8699   */\n      0x20\n        /* \"#utility.yul\":8686:8695   */\n      dup4\n        /* \"#utility.yul\":8682:8700   */\n      add\n        /* \"#utility.yul\":8673:8679   */\n      dup8\n        /* \"#utility.yul\":8635:8701   */\n      tag_227\n      jump\t// in\n    tag_365:\n        /* \"#utility.yul\":8711:8783   */\n      tag_366\n        /* \"#utility.yul\":8779:8781   */\n      0x40\n        /* \"#utility.yul\":8768:8777   */\n      dup4\n        /* \"#utility.yul\":8764:8782   */\n      add\n        /* \"#utility.yul\":8755:8761   */\n      dup7\n        /* \"#utility.yul\":8711:8783   */\n      tag_221\n      jump\t// in\n    tag_366:\n        /* \"#utility.yul\":8793:8865   */\n      tag_367\n        /* \"#utility.yul\":8861:8863   */\n      0x60\n        /* \"#utility.yul\":8850:8859   */\n      dup4\n        /* \"#utility.yul\":8846:8864   */\n      add\n        /* \"#utility.yul\":8837:8843   */\n      dup6\n        /* \"#utility.yul\":8793:8865   */\n      tag_232\n      jump\t// in\n    tag_367:\n        /* \"#utility.yul\":8875:8942   */\n      tag_368\n        /* \"#utility.yul\":8937:8940   */\n      0x80\n        /* \"#utility.yul\":8926:8935   */\n      dup4\n        /* \"#utility.yul\":8922:8941   */\n      add\n        /* \"#utility.yul\":8913:8919   */\n      dup5\n        /* \"#utility.yul\":8875:8942   */\n      tag_227\n      jump\t// in\n    tag_368:\n        /* \"#utility.yul\":8321:8949   */\n      swap7\n      swap6\n      pop\n      pop\n      pop\n      pop\n      pop\n      pop\n      jump\t// out\n        /* \"#utility.yul\":8955:9177   */\n    tag_57:\n        /* \"#utility.yul\":9048:9052   */\n      0x00\n        /* \"#utility.yul\":9086:9088   */\n      0x20\n        /* \"#utility.yul\":9075:9084   */\n      dup3\n        /* \"#utility.yul\":9071:9089   */\n      add\n        /* \"#utility.yul\":9063:9089   */\n      swap1\n      pop\n        /* \"#utility.yul\":9099:9170   */\n      tag_370\n        /* \"#utility.yul\":9167:9168   */\n      0x00\n        /* \"#utility.yul\":9156:9165   */\n      dup4\n        /* \"#utility.yul\":9152:9169   */\n      add\n        /* \"#utility.yul\":9143:9149   */\n      dup5\n        /* \"#utility.yul\":9099:9170   */\n      tag_221\n      jump\t// in\n    tag_370:\n        /* \"#utility.yul\":8955:9177   */\n      swap3\n      swap2\n      pop\n      pop\n      jump\t// out\n        /* \"#utility.yul\":9183:9811   */\n    tag_65:\n        /* \"#utility.yul\":9370:9374   */\n      0x00\n        /* \"#utility.yul\":9408:9411   */\n      0xa0\n        /* \"#utility.yul\":9397:9406   */\n      dup3\n        /* \"#utility.yul\":9393:9412   */\n      add\n        /* \"#utility.yul\":9385:9412   */\n      swap1\n      pop\n        /* \"#utility.yul\":9422:9487   */\n      tag_372\n        /* \"#utility.yul\":9484:9485   */\n      0x00\n        /* \"#utility.yul\":9473:9482   */\n      dup4\n        /* \"#utility.yul\":9469:9486   */\n      add\n        /* \"#utility.yul\":9460:9466   */\n      dup9\n        /* \"#utility.yul\":9422:9487   */\n      tag_227\n      jump\t// in\n    tag_372:\n        /* \"#utility.yul\":9497:9563   */\n      tag_373\n        /* \"#utility.yul\":9559:9561   */\n      0x20\n        /* \"#utility.yul\":9548:9557   */\n      dup4\n        /* \"#utility.yul\":9544:9562   */\n      add\n        /* \"#utility.yul\":9535:9541   */\n      dup8\n        /* \"#utility.yul\":9497:9563   */\n      tag_227\n      jump\t// in\n    tag_373:\n        /* \"#utility.yul\":9573:9645   */\n      tag_374\n        /* \"#utility.yul\":9641:9643   */\n      0x40\n        /* \"#utility.yul\":9630:9639   */\n      dup4\n        /* \"#utility.yul\":9626:9644   */\n      add\n        /* \"#utility.yul\":9617:9623   */\n      dup7\n        /* \"#utility.yul\":9573:9645   */\n      tag_221\n      jump\t// in\n    tag_374:\n        /* \"#utility.yul\":9655:9721   */\n      tag_375\n        /* \"#utility.yul\":9717:9719   */\n      0x60\n        /* \"#utility.yul\":9706:9715   */\n      dup4\n        /* \"#utility.yul\":9702:9720   */\n      add\n        /* \"#utility.yul\":9693:9699   */\n      dup6\n        /* \"#utility.yul\":9655:9721   */\n      tag_227\n      jump\t// in\n    tag_375:\n        /* \"#utility.yul\":9731:9804   */\n      tag_376\n        /* \"#utility.yul\":9799:9802   */\n      0x80\n        /* \"#utility.yul\":9788:9797   */\n      dup4\n        /* \"#utility.yul\":9784:9803   */\n      add\n        /* \"#utility.yul\":9775:9781   */\n      dup5\n        /* \"#utility.yul\":9731:9804   */\n      tag_232\n      jump\t// in\n    tag_376:\n        /* \"#utility.yul\":9183:9811   */\n      swap7\n      swap6\n      pop\n      pop\n      pop\n      pop\n      pop\n      pop\n      jump\t// out\n        /* \"#utility.yul\":9817:10039   */\n    tag_75:\n        /* \"#utility.yul\":9910:9914   */\n      0x00\n        /* \"#utility.yul\":9948:9950   */\n      0x20\n        /* \"#utility.yul\":9937:9946   */\n      dup3\n        /* \"#utility.yul\":9933:9951   */\n      add\n        /* \"#utility.yul\":9925:9951   */\n      swap1\n      pop\n        /* \"#utility.yul\":9961:10032   */\n      tag_378\n        /* \"#utility.yul\":10029:10030   */\n      0x00\n        /* \"#utility.yul\":10018:10027   */\n      dup4\n        /* \"#utility.yul\":10014:10031   */\n      add\n        /* \"#utility.yul\":10005:10011   */\n      dup5\n        /* \"#utility.yul\":9961:10032   */\n      tag_232\n      jump\t// in\n    tag_378:\n        /* \"#utility.yul\":9817:10039   */\n      swap3\n      swap2\n      pop\n      pop\n      jump\t// out\n        /* \"#utility.yul\":10045:10578   */\n    tag_80:\n        /* \"#utility.yul\":10214:10218   */\n      0x00\n        /* \"#utility.yul\":10252:10254   */\n      0x60\n        /* \"#utility.yul\":10241:10250   */\n      dup3\n        /* \"#utility.yul\":10237:10255   */\n      add\n        /* \"#utility.yul\":10229:10255   */\n      swap1\n      pop\n        /* \"#utility.yul\":10265:10336   */\n      tag_380\n        /* \"#utility.yul\":10333:10334   */\n      0x00\n        /* \"#utility.yul\":10322:10331   */\n      dup4\n        /* \"#utility.yul\":10318:10335   */\n      add\n        /* \"#utility.yul\":10309:10315   */\n      dup7\n        /* \"#utility.yul\":10265:10336   */\n      tag_221\n      jump\t// in\n    tag_380:\n        /* \"#utility.yul\":10383:10392   */\n      dup2\n        /* \"#utility.yul\":10377:10381   */\n      dup2\n        /* \"#utility.yul\":10373:10393   */\n      sub\n        /* \"#utility.yul\":10368:10370   */\n      0x20\n        /* \"#utility.yul\":10357:10366   */\n      dup4\n        /* \"#utility.yul\":10353:10371   */\n      add\n        /* \"#utility.yul\":10346:10394   */\n      mstore\n        /* \"#utility.yul\":10411:10489   */\n      tag_381\n        /* \"#utility.yul\":10484:10488   */\n      dup2\n        /* \"#utility.yul\":10475:10481   */\n      dup6\n        /* \"#utility.yul\":10411:10489   */\n      tag_225\n      jump\t// in\n    tag_381:\n        /* \"#utility.yul\":10403:10489   */\n      swap1\n      pop\n        /* \"#utility.yul\":10499:10571   */\n      tag_382\n        /* \"#utility.yul\":10567:10569   */\n      0x40\n        /* \"#utility.yul\":10556:10565   */\n      dup4\n        /* \"#utility.yul\":10552:10570   */\n      add\n        /* \"#utility.yul\":10543:10549   */\n      dup5\n        /* \"#utility.yul\":10499:10571   */\n      tag_221\n      jump\t// in\n    tag_382:\n        /* \"#utility.yul\":10045:10578   */\n      swap5\n      swap4\n      pop\n      pop\n      pop\n      pop\n      jump\t// out\n        /* \"#utility.yul\":10584:10805   */\n    tag_233:\n        /* \"#utility.yul\":10724:10758   */\n      0x4f6e6c792061646d696e2063616e20706572666f726d20746869732061637469\n        /* \"#utility.yul\":10720:10721   */\n      0x00\n        /* \"#utility.yul\":10712:10718   */\n      dup3\n        /* \"#utility.yul\":10708:10722   */\n      add\n        /* \"#utility.yul\":10701:10759   */\n      mstore\n        /* \"#utility.yul\":10793:10797   */\n      0x6f6e000000000000000000000000000000000000000000000000000000000000\n        /* \"#utility.yul\":10788:10790   */\n      0x20\n        /* \"#utility.yul\":10780:10786   */\n      dup3\n        /* \"#utility.yul\":10776:10791   */\n      add\n        /* \"#utility.yul\":10769:10798   */\n      mstore\n        /* \"#utility.yul\":10584:10805   */\n      pop\n      jump\t// out\n        /* \"#utility.yul\":10811:11177   */\n    tag_234:\n        /* \"#utility.yul\":10953:10956   */\n      0x00\n        /* \"#utility.yul\":10974:11041   */\n      tag_385\n        /* \"#utility.yul\":11038:11040   */\n      0x22\n        /* \"#utility.yul\":11033:11036   */\n      dup4\n        /* \"#utility.yul\":10974:11041   */\n      tag_223\n      jump\t// in\n    tag_385:\n        /* \"#utility.yul\":10967:11041   */\n      swap2\n      pop\n        /* \"#utility.yul\":11050:11143   */\n      tag_386\n        /* \"#utility.yul\":11139:11142   */\n      dup3\n        /* \"#utility.yul\":11050:11143   */\n      tag_233\n      jump\t// in\n    tag_386:\n        /* \"#utility.yul\":11168:11170   */\n      0x40\n        /* \"#utility.yul\":11163:11166   */\n      dup3\n        /* \"#utility.yul\":11159:11171   */\n      add\n        /* \"#utility.yul\":11152:11171   */\n      swap1\n      pop\n        /* \"#utility.yul\":10811:11177   */\n      swap2\n      swap1\n      pop\n      jump\t// out\n        /* \"#utility.yul\":11183:11602   */\n    tag_84:\n        /* \"#utility.yul\":11349:11353   */\n      0x00\n        /* \"#utility.yul\":11387:11389   */\n      0x20\n        /* \"#utility.yul\":11376:11385   */\n      dup3\n        /* \"#utility.yul\":11372:11390   */\n      add\n        /* \"#utility.yul\":11364:11390   */\n      swap1\n      pop\n        /* \"#utility.yul\":11436:11445   */\n      dup2\n        /* \"#utility.yul\":11430:11434   */\n      dup2\n        /* \"#utility.yul\":11426:11446   */\n      sub\n        /* \"#utility.yul\":11422:11423   */\n      0x00\n        /* \"#utility.yul\":11411:11420   */\n      dup4\n        /* \"#utility.yul\":11407:11424   */\n      add\n        /* \"#utility.yul\":11400:11447   */\n      mstore\n        /* \"#utility.yul\":11464:11595   */\n      tag_388\n        /* \"#utility.yul\":11590:11594   */\n      dup2\n        /* \"#utility.yul\":11464:11595   */\n      tag_234\n      jump\t// in\n    tag_388:\n        /* \"#utility.yul\":11456:11595   */\n      swap1\n      pop\n        /* \"#utility.yul\":11183:11602   */\n      swap2\n      swap1\n      pop\n      jump\t// out\n        /* \"#utility.yul\":11608:11835   */\n    tag_235:\n        /* \"#utility.yul\":11748:11782   */\n      0x43616e6e6f74206164642063616e6469646174657320647572696e6720616e20\n        /* \"#utility.yul\":11744:11745   */\n      0x00\n        /* \"#utility.yul\":11736:11742   */\n      dup3\n        /* \"#utility.yul\":11732:11746   */\n      add\n        /* \"#utility.yul\":11725:11783   */\n      mstore\n        /* \"#utility.yul\":11817:11827   */\n      0x656c656374696f6e000000000000000000000000000000000000000000000000\n        /* \"#utility.yul\":11812:11814   */\n      0x20\n        /* \"#utility.yul\":11804:11810   */\n      dup3\n        /* \"#utility.yul\":11800:11815   */\n      add\n        /* \"#utility.yul\":11793:11828   */\n      mstore\n        /* \"#utility.yul\":11608:11835   */\n      pop\n      jump\t// out\n        /* \"#utility.yul\":11841:12207   */\n    tag_236:\n        /* \"#utility.yul\":11983:11986   */\n      0x00\n        /* \"#utility.yul\":12004:12071   */\n      tag_391\n        /* \"#utility.yul\":12068:12070   */\n      0x28\n        /* \"#utility.yul\":12063:12066   */\n      dup4\n        /* \"#utility.yul\":12004:12071   */\n      tag_223\n      jump\t// in\n    tag_391:\n        /* \"#utility.yul\":11997:12071   */\n      swap2\n      pop\n        /* \"#utility.yul\":12080:12173   */\n      tag_392\n        /* \"#utility.yul\":12169:12172   */\n      dup3\n        /* \"#utility.yul\":12080:12173   */\n      tag_235\n      jump\t// in\n    tag_392:\n        /* \"#utility.yul\":12198:12200   */\n      0x40\n        /* \"#utility.yul\":12193:12196   */\n      dup3\n        /* \"#utility.yul\":12189:12201   */\n      add\n        /* \"#utility.yul\":12182:12201   */\n      swap1\n      pop\n        /* \"#utility.yul\":11841:12207   */\n      swap2\n      swap1\n      pop\n      jump\t// out\n        /* \"#utility.yul\":12213:12632   */\n    tag_88:\n        /* \"#utility.yul\":12379:12383   */\n      0x00\n        /* \"#utility.yul\":12417:12419   */\n      0x20\n        /* \"#utility.yul\":12406:12415   */\n      dup3\n        /* \"#utility.yul\":12402:12420   */\n      add\n        /* \"#utility.yul\":12394:12420   */\n      swap1\n      pop\n        /* \"#utility.yul\":12466:12475   */\n      dup2\n        /* \"#utility.yul\":12460:12464   */\n      dup2\n        /* \"#utility.yul\":12456:12476   */\n      sub\n        /* \"#utility.yul\":12452:12453   */\n      0x00\n        /* \"#utility.yul\":12441:12450   */\n      dup4\n        /* \"#utility.yul\":12437:12454   */\n      add\n        /* \"#utility.yul\":12430:12477   */\n      mstore\n        /* \"#utility.yul\":12494:12625   */\n      tag_394\n        /* \"#utility.yul\":12620:12624   */\n      dup2\n        /* \"#utility.yul\":12494:12625   */\n      tag_236\n      jump\t// in\n    tag_394:\n        /* \"#utility.yul\":12486:12625   */\n      swap1\n      pop\n        /* \"#utility.yul\":12213:12632   */\n      swap2\n      swap1\n      pop\n      jump\t// out\n        /* \"#utility.yul\":12638:12818   */\n    tag_237:\n        /* \"#utility.yul\":12686:12763   */\n      0x4e487b7100000000000000000000000000000000000000000000000000000000\n        /* \"#utility.yul\":12683:12684   */\n      0x00\n        /* \"#utility.yul\":12676:12764   */\n      mstore\n        /* \"#utility.yul\":12783:12787   */\n      0x11\n        /* \"#utility.yul\":12780:12781   */\n      0x04\n        /* \"#utility.yul\":12773:12788   */\n      mstore\n        /* \"#utility.yul\":12807:12811   */\n      0x24\n        /* \"#utility.yul\":12804:12805   */\n      0x00\n        /* \"#utility.yul\":12797:12812   */\n      revert\n        /* \"#utility.yul\":12824:13057   */\n    tag_90:\n        /* \"#utility.yul\":12863:12866   */\n      0x00\n        /* \"#utility.yul\":12886:12910   */\n      tag_397\n        /* \"#utility.yul\":12904:12909   */\n      dup3\n        /* \"#utility.yul\":12886:12910   */\n      tag_218\n      jump\t// in\n    tag_397:\n        /* \"#utility.yul\":12877:12910   */\n      swap2\n      pop\n        /* \"#utility.yul\":12932:12998   */\n      0xffffffffffffffffffffffffffffffffffffffffffffffffffffffffffffffff\n        /* \"#utility.yul\":12925:12930   */\n      dup3\n        /* \"#utility.yul\":12922:12999   */\n      sub\n        /* \"#utility.yul\":12919:13022   */\n      tag_398\n      jumpi\n        /* \"#utility.yul\":13002:13020   */\n      tag_399\n      tag_237\n      jump\t// in\n    tag_399:\n        /* \"#utility.yul\":12919:13022   */\n    tag_398:\n        /* \"#utility.yul\":13049:13050   */\n      0x01\n        /* \"#utility.yul\":13042:13047   */\n      dup3\n        /* \"#utility.yul\":13038:13051   */\n      add\n        /* \"#utility.yul\":13031:13051   */\n      swap1\n      pop\n        /* \"#utility.yul\":12824:13057   */\n      swap2\n      swap1\n      pop\n      jump\t// out\n        /* \"#utility.yul\":13063:13243   */\n    tag_238:\n        /* \"#utility.yul\":13111:13188   */\n      0x4e487b7100000000000000000000000000000000000000000000000000000000\n        /* \"#utility.yul\":13108:13109   */\n      0x00\n        /* \"#utility.yul\":13101:13189   */\n      mstore\n        /* \"#utility.yul\":13208:13212   */\n      0x22\n        /* \"#utility.yul\":13205:13206   */\n      0x04\n        /* \"#utility.yul\":13198:13213   */\n      mstore\n        /* \"#utility.yul\":13232:13236   */\n      0x24\n        /* \"#utility.yul\":13229:13230   */\n      0x00\n        /* \"#utility.yul\":13222:13237   */\n      revert\n        /* \"#utility.yul\":13249:13569   */\n    tag_96:\n        /* \"#utility.yul\":13293:13299   */\n      0x00\n        /* \"#utility.yul\":13330:13331   */\n      0x02\n        /* \"#utility.yul\":13324:13328   */\n      dup3\n        /* \"#utility.yul\":13320:13332   */\n      div\n        /* \"#utility.yul\":13310:13332   */\n      swap1\n      pop\n        /* \"#utility.yul\":13377:13378   */\n      0x01\n        /* \"#utility.yul\":13371:13375   */\n      dup3\n        /* \"#utility.yul\":13367:13379   */\n      and\n        /* \"#utility.yul\":13398:13416   */\n      dup1\n        /* \"#utility.yul\":13388:13469   */\n      tag_402\n      jumpi\n        /* \"#utility.yul\":13454:13458   */\n      0x7f\n        /* \"#utility.yul\":13446:13452   */\n      dup3\n        /* \"#utility.yul\":13442:13459   */\n      and\n        /* \"#utility.yul\":13432:13459   */\n      swap2\n      pop\n        /* \"#utility.yul\":13388:13469   */\n    tag_402:\n        /* \"#utility.yul\":13516:13518   */\n      0x20\n        /* \"#utility.yul\":13508:13514   */\n      dup3\n        /* \"#utility.yul\":13505:13519   */\n      lt\n        /* \"#utility.yul\":13485:13503   */\n      dup2\n        /* \"#utility.yul\":13482:13520   */\n      sub\n        /* \"#utility.yul\":13479:13563   */\n      tag_403\n      jumpi\n        /* \"#utility.yul\":13535:13553   */\n      tag_404\n      tag_238\n      jump\t// in\n    tag_404:\n        /* \"#utility.yul\":13479:13563   */\n    tag_403:\n        /* \"#utility.yul\":13300:13569   */\n      pop\n        /* \"#utility.yul\":13249:13569   */\n      swap2\n      swap1\n      pop\n      jump\t// out\n        /* \"#utility.yul\":13575:13716   */\n    tag_239:\n        /* \"#utility.yul\":13624:13628   */\n      0x00\n        /* \"#utility.yul\":13647:13650   */\n      dup2\n        /* \"#utility.yul\":13639:13650   */\n      swap1\n      pop\n        /* \"#utility.yul\":13670:13673   */\n      dup2\n        /* \"#utility.yul\":13667:13668   */\n      0x00\n        /* \"#utility.yul\":13660:13674   */\n      mstore\n        /* \"#utility.yul\":13704:13708   */\n      0x20\n        /* \"#utility.yul\":13701:13702   */\n      0x00\n        /* \"#utility.yul\":13691:13709   */\n      keccak256\n        /* \"#utility.yul\":13683:13709   */\n      swap1\n      pop\n        /* \"#utility.yul\":13575:13716   */\n      swap2\n      swap1\n      pop\n      jump\t// out\n        /* \"#utility.yul\":13722:13815   */\n    tag_240:\n        /* \"#utility.yul\":13759:13765   */\n      0x00\n        /* \"#utility.yul\":13806:13808   */\n      0x20\n        /* \"#utility.yul\":13801:13803   */\n      0x1f\n        /* \"#utility.yul\":13794:13799   */\n      dup4\n        /* \"#utility.yul\":13790:13804   */\n      add\n        /* \"#utility.yul\":13786:13809   */\n      div\n        /* \"#utility.yul\":13776:13809   */\n      swap1\n      pop\n        /* \"#utility.yul\":13722:13815   */\n      swap2\n      swap1\n      pop\n      jump\t// out\n        /* \"#utility.yul\":13821:13928   */\n    tag_241:\n        /* \"#utility.yul\":13865:13873   */\n      0x00\n        /* \"#utility.yul\":13915:13920   */\n      dup3\n        /* \"#utility.yul\":13909:13913   */\n      dup3\n        /* \"#utility.yul\":13905:13921   */\n      shl\n        /* \"#utility.yul\":13884:13921   */\n      swap1\n      pop\n        /* \"#utility.yul\":13821:13928   */\n      swap3\n      swap2\n      pop\n      pop\n      jump\t// out\n        /* \"#utility.yul\":13934:14327   */\n    tag_242:\n        /* \"#utility.yul\":14003:14009   */\n      0x00\n        /* \"#utility.yul\":14053:14054   */\n      0x08\n        /* \"#utility.yul\":14041:14051   */\n      dup4\n        /* \"#utility.yul\":14037:14055   */\n      mul\n        /* \"#utility.yul\":14076:14173   */\n      tag_409\n        /* \"#utility.yul\":14106:14172   */\n      0xffffffffffffffffffffffffffffffffffffffffffffffffffffffffffffffff\n        /* \"#utility.yul\":14095:14104   */\n      dup3\n        /* \"#utility.yul\":14076:14173   */\n      tag_241\n      jump\t// in\n    tag_409:\n        /* \"#utility.yul\":14194:14233   */\n      tag_410\n        /* \"#utility.yul\":14224:14232   */\n      dup7\n        /* \"#utility.yul\":14213:14222   */\n      dup4\n        /* \"#utility.yul\":14194:14233   */\n      tag_241\n      jump\t// in\n    tag_410:\n        /* \"#utility.yul\":14182:14233   */\n      swap6\n      pop\n        /* \"#utility.yul\":14266:14270   */\n      dup1\n        /* \"#utility.yul\":14262:14271   */\n      not\n        /* \"#utility.yul\":14255:14260   */\n      dup5\n        /* \"#utility.yul\":14251:14272   */\n      and\n        /* \"#utility.yul\":14242:14272   */\n      swap4\n      pop\n        /* \"#utility.yul\":14315:14319   */\n      dup1\n        /* \"#utility.yul\":14305:14313   */\n      dup7\n        /* \"#utility.yul\":14301:14320   */\n      and\n        /* \"#utility.yul\":14294:14299   */\n      dup5\n        /* \"#utility.yul\":14291:14321   */\n      or\n        /* \"#utility.yul\":14281:14321   */\n      swap3\n      pop\n        /* \"#utility.yul\":14010:14327   */\n      pop\n      pop\n        /* \"#utility.yul\":13934:14327   */\n      swap4\n      swap3\n      pop\n      pop\n      pop\n      jump\t// out\n        /* \"#utility.yul\":14333:14393   */\n    tag_243:\n        /* \"#utility.yul\":14361:14364   */\n      0x00\n        /* \"#utility.yul\":14382:14387   */\n      dup2\n        /* \"#utility.yul\":14375:14387   */\n      swap1\n      pop\n        /* \"#utility.yul\":14333:14393   */\n      swap2\n      swap1\n      pop\n      jump\t// out\n        /* \"#utility.yul\":14399:14541   */\n    tag_244:\n        /* \"#utility.yul\":14449:14458   */\n      0x00\n        /* \"#utility.yul\":14482:14535   */\n      tag_413\n        /* \"#utility.yul\":14500:14534   */\n      tag_414\n        /* \"#utility.yul\":14509:14533   */\n      tag_415\n        /* \"#utility.yul\":14527:14532   */\n      dup5\n        /* \"#utility.yul\":14509:14533   */\n      tag_218\n      jump\t// in\n    tag_415:\n        /* \"#utility.yul\":14500:14534   */\n      tag_243\n      jump\t// in\n    tag_414:\n        /* \"#utility.yul\":14482:14535   */\n      tag_218\n      jump\t// in\n    tag_413:\n        /* \"#utility.yul\":14469:14535   */\n      swap1\n      pop\n        /* \"#utility.yul\":14399:14541   */\n      swap2\n      swap1\n      pop\n      jump\t// out\n        /* \"#utility.yul\":14547:14622   */\n    tag_245:\n        /* \"#utility.yul\":14590:14593   */\n      0x00\n        /* \"#utility.yul\":14611:14616   */\n      dup2\n        /* \"#utility.yul\":14604:14616   */\n      swap1\n      pop\n        /* \"#utility.yul\":14547:14622   */\n      swap2\n      swap1\n      pop\n      jump\t// out\n        /* \"#utility.yul\":14628:14897   */\n    tag_246:\n        /* \"#utility.yul\":14738:14777   */\n      tag_418\n        /* \"#utility.yul\":14769:14776   */\n      dup4\n        /* \"#utility.yul\":14738:14777   */\n      tag_244\n      jump\t// in\n    tag_418:\n        /* \"#utility.yul\":14799:14890   */\n      tag_419\n        /* \"#utility.yul\":14848:14889   */\n      tag_420\n        /* \"#utility.yul\":14872:14888   */\n      dup3\n        /* \"#utility.yul\":14848:14889   */\n      tag_245\n      jump\t// in\n    tag_420:\n        /* \"#utility.yul\":14840:14846   */\n      dup5\n        /* \"#utility.yul\":14833:14837   */\n      dup5\n        /* \"#utility.yul\":14827:14838   */\n      sload\n        /* \"#utility.yul\":14799:14890   */\n      tag_242\n      jump\t// in\n    tag_419:\n        /* \"#utility.yul\":14793:14797   */\n      dup3\n        /* \"#utility.yul\":14786:14891   */\n      sstore\n        /* \"#utility.yul\":14704:14897   */\n      pop\n        /* \"#utility.yul\":14628:14897   */\n      pop\n      pop\n      pop\n      jump\t// out\n        /* \"#utility.yul\":14903:14976   */\n    tag_247:\n        /* \"#utility.yul\":14948:14951   */\n      0x00\n        /* \"#utility.yul\":14969:14970   */\n      0x00\n        /* \"#utility.yul\":14962:14970   */\n      swap1\n      pop\n        /* \"#utility.yul\":14903:14976   */\n      swap1\n      jump\t// out\n        /* \"#utility.yul\":14982:15171   */\n    tag_248:\n        /* \"#utility.yul\":15059:15091   */\n      tag_423\n      tag_247\n      jump\t// in\n    tag_423:\n        /* \"#utility.yul\":15100:15165   */\n      tag_424\n        /* \"#utility.yul\":15158:15164   */\n      dup2\n        /* \"#utility.yul\":15150:15156   */\n      dup5\n        /* \"#utility.yul\":15144:15148   */\n      dup5\n        /* \"#utility.yul\":15100:15165   */\n      tag_246\n      jump\t// in\n    tag_424:\n        /* \"#utility.yul\":15035:15171   */\n      pop\n        /* \"#utility.yul\":14982:15171   */\n      pop\n      pop\n      jump\t// out\n        /* \"#utility.yul\":15177:15363   */\n    tag_249:\n        /* \"#utility.yul\":15237:15357   */\n    tag_426:\n        /* \"#utility.yul\":15254:15257   */\n      dup2\n        /* \"#utility.yul\":15247:15252   */\n      dup2\n        /* \"#utility.yul\":15244:15258   */\n      lt\n        /* \"#utility.yul\":15237:15357   */\n      iszero\n      tag_428\n      jumpi\n        /* \"#utility.yul\":15308:15347   */\n      tag_429\n        /* \"#utility.yul\":15345:15346   */\n      0x00\n        /* \"#utility.yul\":15338:15343   */\n      dup3\n        /* \"#utility.yul\":15308:15347   */\n      tag_248\n      jump\t// in\n    tag_429:\n        /* \"#utility.yul\":15281:15282   */\n      0x01\n        /* \"#utility.yul\":15274:15279   */\n      dup2\n        /* \"#utility.yul\":15270:15283   */\n      add\n        /* \"#utility.yul\":15261:15283   */\n      swap1\n      pop\n        /* \"#utility.yul\":15237:15357   */\n      jump(tag_426)\n    tag_428:\n        /* \"#utility.yul\":15177:15363   */\n      pop\n      pop\n      jump\t// out\n        /* \"#utility.yul\":15369:15912   */\n    tag_250:\n        /* \"#utility.yul\":15470:15472   */\n      0x1f\n        /* \"#utility.yul\":15465:15468   */\n      dup3\n        /* \"#utility.yul\":15462:15473   */\n      gt\n        /* \"#utility.yul\":15459:15905   */\n      iszero\n      tag_431\n      jumpi\n        /* \"#utility.yul\":15504:15542   */\n      tag_432\n        /* \"#utility.yul\":15536:15541   */\n      dup2\n        /* \"#utility.yul\":15504:15542   */\n      tag_239\n      jump\t// in\n    tag_432:\n        /* \"#utility.yul\":15588:15617   */\n      tag_433\n        /* \"#utility.yul\":15606:15616   */\n      dup5\n        /* \"#utility.yul\":15588:15617   */\n      tag_240\n      jump\t// in\n    tag_433:\n        /* \"#utility.yul\":15578:15586   */\n      dup2\n        /* \"#utility.yul\":15574:15618   */\n      add\n        /* \"#utility.yul\":15771:15773   */\n      0x20\n        /* \"#utility.yul\":15759:15769   */\n      dup6\n        /* \"#utility.yul\":15756:15774   */\n      lt\n        /* \"#utility.yul\":15753:15802   */\n      iszero\n      tag_434\n      jumpi\n        /* \"#utility.yul\":15792:15800   */\n      dup2\n        /* \"#utility.yul\":15777:15800   */\n      swap1\n      pop\n        /* \"#utility.yul\":15753:15802   */\n    tag_434:\n        /* \"#utility.yul\":15815:15895   */\n      tag_435\n        /* \"#utility.yul\":15871:15893   */\n      tag_436\n        /* \"#utility.yul\":15889:15892   */\n      dup6\n        /* \"#utility.yul\":15871:15893   */\n      tag_240\n      jump\t// in\n    tag_436:\n        /* \"#utility.yul\":15861:15869   */\n      dup4\n        /* \"#utility.yul\":15857:15894   */\n      add\n        /* \"#utility.yul\":15844:15855   */\n      dup3\n        /* \"#utility.yul\":15815:15895   */\n      tag_249\n      jump\t// in\n    tag_435:\n        /* \"#utility.yul\":15474:15905   */\n      pop\n      pop\n        /* \"#utility.yul\":15459:15905   */\n    tag_431:\n        /* \"#utility.yul\":15369:15912   */\n      pop\n      pop\n      pop\n      jump\t// out\n        /* \"#utility.yul\":15918:16035   */\n    tag_251:\n        /* \"#utility.yul\":15972:15980   */\n      0x00\n        /* \"#utility.yul\":16022:16027   */\n      dup3\n        /* \"#utility.yul\":16016:16020   */\n      dup3\n        /* \"#utility.yul\":16012:16028   */\n      shr\n        /* \"#utility.yul\":15991:16028   */\n      swap1\n      pop\n        /* \"#utility.yul\":15918:16035   */\n      swap3\n      swap2\n      pop\n      pop\n      jump\t// out\n        /* \"#utility.yul\":16041:16210   */\n    tag_252:\n        /* \"#utility.yul\":16085:16091   */\n      0x00\n        /* \"#utility.yul\":16118:16169   */\n      tag_439\n        /* \"#utility.yul\":16166:16167   */\n      0x00\n        /* \"#utility.yul\":16162:16168   */\n      not\n        /* \"#utility.yul\":16154:16159   */\n      dup5\n        /* \"#utility.yul\":16151:16152   */\n      0x08\n        /* \"#utility.yul\":16147:16160   */\n      mul\n        /* \"#utility.yul\":16118:16169   */\n      tag_251\n      jump\t// in\n    tag_439:\n        /* \"#utility.yul\":16114:16170   */\n      not\n        /* \"#utility.yul\":16199:16203   */\n      dup1\n        /* \"#utility.yul\":16193:16197   */\n      dup4\n        /* \"#utility.yul\":16189:16204   */\n      and\n        /* \"#utility.yul\":16179:16204   */\n      swap2\n      pop\n        /* \"#utility.yul\":16092:16210   */\n      pop\n        /* \"#utility.yul\":16041:16210   */\n      swap3\n      swap2\n      pop\n      pop\n      jump\t// out\n        /* \"#utility.yul\":16215:16510   */\n    tag_253:\n        /* \"#utility.yul\":16291:16295   */\n      0x00\n        /* \"#utility.yul\":16437:16466   */\n      tag_441\n        /* \"#utility.yul\":16462:16465   */\n      dup4\n        /* \"#utility.yul\":16456:16460   */\n      dup4\n        /* \"#utility.yul\":16437:16466   */\n      tag_252\n      jump\t// in\n    tag_441:\n        /* \"#utility.yul\":16429:16466   */\n      swap2\n      pop\n        /* \"#utility.yul\":16499:16502   */\n      dup3\n        /* \"#utility.yul\":16496:16497   */\n      0x02\n        /* \"#utility.yul\":16492:16503   */\n      mul\n        /* \"#utility.yul\":16486:16490   */\n      dup3\n        /* \"#utility.yul\":16483:16504   */\n      or\n        /* \"#utility.yul\":16475:16504   */\n      swap1\n      pop\n        /* \"#utility.yul\":16215:16510   */\n      swap3\n      swap2\n      pop\n      pop\n      jump\t// out\n        /* \"#utility.yul\":16515:17910   */\n    tag_92:\n        /* \"#utility.yul\":16632:16669   */\n      tag_443\n        /* \"#utility.yul\":16665:16668   */\n      dup3\n        /* \"#utility.yul\":16632:16669   */\n      tag_222\n      jump\t// in\n    tag_443:\n        /* \"#utility.yul\":16734:16752   */\n      0xffffffffffffffff\n        /* \"#utility.yul\":16726:16732   */\n      dup2\n        /* \"#utility.yul\":16723:16753   */\n      gt\n        /* \"#utility.yul\":16720:16776   */\n      iszero\n      tag_444\n      jumpi\n        /* \"#utility.yul\":16756:16774   */\n      tag_445\n      tag_211\n      jump\t// in\n    tag_445:\n        /* \"#utility.yul\":16720:16776   */\n    tag_444:\n        /* \"#utility.yul\":16800:16838   */\n      tag_446\n        /* \"#utility.yul\":16832:16836   */\n      dup3\n        /* \"#utility.yul\":16826:16837   */\n      sload\n        /* \"#utility.yul\":16800:16838   */\n      tag_96\n      jump\t// in\n    tag_446:\n        /* \"#utility.yul\":16885:16952   */\n      tag_447\n        /* \"#utility.yul\":16945:16951   */\n      dup3\n        /* \"#utility.yul\":16937:16943   */\n      dup3\n        /* \"#utility.yul\":16931:16935   */\n      dup6\n        /* \"#utility.yul\":16885:16952   */\n      tag_250\n      jump\t// in\n    tag_447:\n        /* \"#utility.yul\":16979:16980   */\n      0x00\n        /* \"#utility.yul\":17003:17007   */\n      0x20\n        /* \"#utility.yul\":16990:17007   */\n      swap1\n      pop\n        /* \"#utility.yul\":17035:17037   */\n      0x1f\n        /* \"#utility.yul\":17027:17033   */\n      dup4\n        /* \"#utility.yul\":17024:17038   */\n      gt\n        /* \"#utility.yul\":17052:17053   */\n      0x01\n        /* \"#utility.yul\":17047:17665   */\n      dup2\n      eq\n      tag_449\n      jumpi\n        /* \"#utility.yul\":17709:17710   */\n      0x00\n        /* \"#utility.yul\":17726:17732   */\n      dup5\n        /* \"#utility.yul\":17723:17800   */\n      iszero\n      tag_450\n      jumpi\n        /* \"#utility.yul\":17775:17784   */\n      dup3\n        /* \"#utility.yul\":17770:17773   */\n      dup8\n        /* \"#utility.yul\":17766:17785   */\n      add\n        /* \"#utility.yul\":17760:17786   */\n      mload\n        /* \"#utility.yul\":17751:17786   */\n      swap1\n      pop\n        /* \"#utility.yul\":17723:17800   */\n    tag_450:\n        /* \"#utility.yul\":17826:17893   */\n      tag_451\n        /* \"#utility.yul\":17886:17892   */\n      dup6\n        /* \"#utility.yul\":17879:17884   */\n      dup3\n        /* \"#utility.yul\":17826:17893   */\n      tag_253\n      jump\t// in\n    tag_451:\n        /* \"#utility.yul\":17820:17824   */\n      dup7\n        /* \"#utility.yul\":17813:17894   */\n      sstore\n        /* \"#utility.yul\":17682:17904   */\n      pop\n        /* \"#utility.yul\":17017:17904   */\n      jump(tag_448)\n        /* \"#utility.yul\":17047:17665   */\n    tag_449:\n        /* \"#utility.yul\":17099:17103   */\n      0x1f\n        /* \"#utility.yul\":17095:17104   */\n      not\n        /* \"#utility.yul\":17087:17093   */\n      dup5\n        /* \"#utility.yul\":17083:17105   */\n      and\n        /* \"#utility.yul\":17133:17170   */\n      tag_452\n        /* \"#utility.yul\":17165:17169   */\n      dup7\n        /* \"#utility.yul\":17133:17170   */\n      tag_239\n      jump\t// in\n    tag_452:\n        /* \"#utility.yul\":17192:17193   */\n      0x00\n        /* \"#utility.yul\":17206:17414   */\n    tag_453:\n        /* \"#utility.yul\":17220:17227   */\n      dup3\n        /* \"#utility.yul\":17217:17218   */\n      dup2\n        /* \"#utility.yul\":17214:17228   */\n      lt\n        /* \"#utility.yul\":17206:17414   */\n      iszero\n      tag_455\n      jumpi\n        /* \"#utility.yul\":17299:17308   */\n      dup5\n        /* \"#utility.yul\":17294:17297   */\n      dup10\n        /* \"#utility.yul\":17290:17309   */\n      add\n        /* \"#utility.yul\":17284:17310   */\n      mload\n        /* \"#utility.yul\":17276:17282   */\n      dup3\n        /* \"#utility.yul\":17269:17311   */\n      sstore\n        /* \"#utility.yul\":17350:17351   */\n      0x01\n        /* \"#utility.yul\":17342:17348   */\n      dup3\n        /* \"#utility.yul\":17338:17352   */\n      add\n        /* \"#utility.yul\":17328:17352   */\n      swap2\n      pop\n        /* \"#utility.yul\":17397:17399   */\n      0x20\n        /* \"#utility.yul\":17386:17395   */\n      dup6\n        /* \"#utility.yul\":17382:17400   */\n      add\n        /* \"#utility.yul\":17369:17400   */\n      swap5\n      pop\n        /* \"#utility.yul\":17243:17247   */\n      0x20\n        /* \"#utility.yul\":17240:17241   */\n      dup2\n        /* \"#utility.yul\":17236:17248   */\n      add\n        /* \"#utility.yul\":17231:17248   */\n      swap1\n      pop\n        /* \"#utility.yul\":17206:17414   */\n      jump(tag_453)\n    tag_455:\n        /* \"#utility.yul\":17442:17448   */\n      dup7\n        /* \"#utility.yul\":17433:17440   */\n      dup4\n        /* \"#utility.yul\":17430:17449   */\n      lt\n        /* \"#utility.yul\":17427:17606   */\n      iszero\n      tag_456\n      jumpi\n        /* \"#utility.yul\":17500:17509   */\n      dup5\n        /* \"#utility.yul\":17495:17498   */\n      dup10\n        /* \"#utility.yul\":17491:17510   */\n      add\n        /* \"#utility.yul\":17485:17511   */\n      mload\n        /* \"#utility.yul\":17543:17591   */\n      tag_457\n        /* \"#utility.yul\":17585:17589   */\n      0x1f\n        /* \"#utility.yul\":17577:17583   */\n      dup10\n        /* \"#utility.yul\":17573:17590   */\n      and\n        /* \"#utility.yul\":17562:17571   */\n      dup3\n        /* \"#utility.yul\":17543:17591   */\n      tag_252\n      jump\t// in\n    tag_457:\n        /* \"#utility.yul\":17535:17541   */\n      dup4\n        /* \"#utility.yul\":17528:17592   */\n      sstore\n        /* \"#utility.yul\":17450:17606   */\n      pop\n        /* \"#utility.yul\":17427:17606   */\n    tag_456:\n        /* \"#utility.yul\":17652:17653   */\n      0x01\n        /* \"#utility.yul\":17648:17649   */\n      0x02\n        /* \"#utility.yul\":17640:17646   */\n      dup9\n        /* \"#utility.yul\":17636:17650   */\n      mul\n        /* \"#utility.yul\":17632:17654   */\n      add\n        /* \"#utility.yul\":17626:17630   */\n      dup9\n        /* \"#utility.yul\":17619:17655   */\n      sstore\n        /* \"#utility.yul\":17054:17665   */\n      pop\n      pop\n      pop\n        /* \"#utility.yul\":17017:17904   */\n    tag_448:\n      pop\n        /* \"#utility.yul\":16607:17910   */\n      pop\n      pop\n      pop\n        /* \"#utility.yul\":16515:17910   */\n      pop\n      pop\n      jump\t// out\n        /* \"#utility.yul\":17916:18089   */\n    tag_254:\n        /* \"#utility.yul\":18056:18081   */\n      0x456c656374696f6e206973206e6f74206f6e676f696e67000000000000000000\n        /* \"#utility.yul\":18052:18053   */\n      0x00\n        /* \"#utility.yul\":18044:18050   */\n      dup3\n        /* \"#utility.yul\":18040:18054   */\n      add\n        /* \"#utility.yul\":18033:18082   */\n      mstore\n        /* \"#utility.yul\":17916:18089   */\n      pop\n      jump\t// out\n        /* \"#utility.yul\":18095:18461   */\n    tag_255:\n        /* \"#utility.yul\":18237:18240   */\n      0x00\n        /* \"#utility.yul\":18258:18325   */\n      tag_460\n        /* \"#utility.yul\":18322:18324   */\n      0x17\n        /* \"#utility.yul\":18317:18320   */\n      dup4\n        /* \"#utility.yul\":18258:18325   */\n      tag_223\n      jump\t// in\n    tag_460:\n        /* \"#utility.yul\":18251:18325   */\n      swap2\n      pop\n        /* \"#utility.yul\":18334:18427   */\n      tag_461\n        /* \"#utility.yul\":18423:18426   */\n      dup3\n        /* \"#utility.yul\":18334:18427   */\n      tag_254\n      jump\t// in\n    tag_461:\n        /* \"#utility.yul\":18452:18454   */\n      0x20\n        /* \"#utility.yul\":18447:18450   */\n      dup3\n        /* \"#utility.yul\":18443:18455   */\n      add\n        /* \"#utility.yul\":18436:18455   */\n      swap1\n      pop\n        /* \"#utility.yul\":18095:18461   */\n      swap2\n      swap1\n      pop\n      jump\t// out\n        /* \"#utility.yul\":18467:18886   */\n    tag_123:\n        /* \"#utility.yul\":18633:18637   */\n      0x00\n        /* \"#utility.yul\":18671:18673   */\n      0x20\n        /* \"#utility.yul\":18660:18669   */\n      dup3\n        /* \"#utility.yul\":18656:18674   */\n      add\n        /* \"#utility.yul\":18648:18674   */\n      swap1\n      pop\n        /* \"#utility.yul\":18720:18729   */\n      dup2\n        /* \"#utility.yul\":18714:18718   */\n      dup2\n        /* \"#utility.yul\":18710:18730   */\n      sub\n        /* \"#utility.yul\":18706:18707   */\n      0x00\n        /* \"#utility.yul\":18695:18704   */\n      dup4\n        /* \"#utility.yul\":18691:18708   */\n      add\n        /* \"#utility.yul\":18684:18731   */\n      mstore\n        /* \"#utility.yul\":18748:18879   */\n      tag_463\n        /* \"#utility.yul\":18874:18878   */\n      dup2\n        /* \"#utility.yul\":18748:18879   */\n      tag_255\n      jump\t// in\n    tag_463:\n        /* \"#utility.yul\":18740:18879   */\n      swap1\n      pop\n        /* \"#utility.yul\":18467:18886   */\n      swap2\n      swap1\n      pop\n      jump\t// out\n        /* \"#utility.yul\":18892:19066   */\n    tag_256:\n        /* \"#utility.yul\":19032:19058   */\n      0x456c656374696f6e20616c726561647920737461727465640000000000000000\n        /* \"#utility.yul\":19028:19029   */\n      0x00\n        /* \"#utility.yul\":19020:19026   */\n      dup3\n        /* \"#utility.yul\":19016:19030   */\n      add\n        /* \"#utility.yul\":19009:19059   */\n      mstore\n        /* \"#utility.yul\":18892:19066   */\n      pop\n      jump\t// out\n        /* \"#utility.yul\":19072:19438   */\n    tag_257:\n        /* \"#utility.yul\":19214:19217   */\n      0x00\n        /* \"#utility.yul\":19235:19302   */\n      tag_466\n        /* \"#utility.yul\":19299:19301   */\n      0x18\n        /* \"#utility.yul\":19294:19297   */\n      dup4\n        /* \"#utility.yul\":19235:19302   */\n      tag_223\n      jump\t// in\n    tag_466:\n        /* \"#utility.yul\":19228:19302   */\n      swap2\n      pop\n        /* \"#utility.yul\":19311:19404   */\n      tag_467\n        /* \"#utility.yul\":19400:19403   */\n      dup3\n        /* \"#utility.yul\":19311:19404   */\n      tag_256\n      jump\t// in\n    tag_467:\n        /* \"#utility.yul\":19429:19431   */\n      0x20\n        /* \"#utility.yul\":19424:19427   */\n      dup3\n        /* \"#utility.yul\":19420:19432   */\n      add\n        /* \"#utility.yul\":19413:19432   */\n      swap1\n      pop\n        /* \"#utility.yul\":19072:19438   */\n      swap2\n      swap1\n      pop\n      jump\t// out\n        /* \"#utility.yul\":19444:19863   */\n    tag_130:\n        /* \"#utility.yul\":19610:19614   */\n      0x00\n        /* \"#utility.yul\":19648:19650   */\n      0x20\n        /* \"#utility.yul\":19637:19646   */\n      dup3\n        /* \"#utility.yul\":19633:19651   */\n      add\n        /* \"#utility.yul\":19625:19651   */\n      swap1\n      pop\n        /* \"#utility.yul\":19697:19706   */\n      dup2\n        /* \"#utility.yul\":19691:19695   */\n      dup2\n        /* \"#utility.yul\":19687:19707   */\n      sub\n        /* \"#utility.yul\":19683:19684   */\n      0x00\n        /* \"#utility.yul\":19672:19681   */\n      dup4\n        /* \"#utility.yul\":19668:19685   */\n      add\n        /* \"#utility.yul\":19661:19708   */\n      mstore\n        /* \"#utility.yul\":19725:19856   */\n      tag_469\n        /* \"#utility.yul\":19851:19855   */\n      dup2\n        /* \"#utility.yul\":19725:19856   */\n      tag_257\n      jump\t// in\n    tag_469:\n        /* \"#utility.yul\":19717:19856   */\n      swap1\n      pop\n        /* \"#utility.yul\":19444:19863   */\n      swap2\n      swap1\n      pop\n      jump\t// out\n        /* \"#utility.yul\":19869:20038   */\n    tag_258:\n        /* \"#utility.yul\":20009:20030   */\n      0x456c656374696f6e206973206f6e676f696e6700000000000000000000000000\n        /* \"#utility.yul\":20005:20006   */\n      0x00\n        /* \"#utility.yul\":19997:20003   */\n      dup3\n        /* \"#utility.yul\":19993:20007   */\n      add\n        /* \"#utility.yul\":19986:20031   */\n      mstore\n        /* \"#utility.yul\":19869:20038   */\n      pop\n      jump\t// out\n        /* \"#utility.yul\":20044:20410   */\n    tag_259:\n        /* \"#utility.yul\":20186:20189   */\n      0x00\n        /* \"#utility.yul\":20207:20274   */\n      tag_472\n        /* \"#utility.yul\":20271:20273   */\n      0x13\n        /* \"#utility.yul\":20266:20269   */\n      dup4\n        /* \"#utility.yul\":20207:20274   */\n      tag_223\n      jump\t// in\n    tag_472:\n        /* \"#utility.yul\":20200:20274   */\n      swap2\n      pop\n        /* \"#utility.yul\":20283:20376   */\n      tag_473\n        /* \"#utility.yul\":20372:20375   */\n      dup3\n        /* \"#utility.yul\":20283:20376   */\n      tag_258\n      jump\t// in\n    tag_473:\n        /* \"#utility.yul\":20401:20403   */\n      0x20\n        /* \"#utility.yul\":20396:20399   */\n      dup3\n        /* \"#utility.yul\":20392:20404   */\n      add\n        /* \"#utility.yul\":20385:20404   */\n      swap1\n      pop\n        /* \"#utility.yul\":20044:20410   */\n      swap2\n      swap1\n      pop\n      jump\t// out\n        /* \"#utility.yul\":20416:20835   */\n    tag_134:\n        /* \"#utility.yul\":20582:20586   */\n      0x00\n        /* \"#utility.yul\":20620:20622   */\n      0x20\n        /* \"#utility.yul\":20609:20618   */\n      dup3\n        /* \"#utility.yul\":20605:20623   */\n      add\n        /* \"#utility.yul\":20597:20623   */\n      swap1\n      pop\n        /* \"#utility.yul\":20669:20678   */\n      dup2\n        /* \"#utility.yul\":20663:20667   */\n      dup2\n        /* \"#utility.yul\":20659:20679   */\n      sub\n        /* \"#utility.yul\":20655:20656   */\n      0x00\n        /* \"#utility.yul\":20644:20653   */\n      dup4\n        /* \"#utility.yul\":20640:20657   */\n      add\n        /* \"#utility.yul\":20633:20680   */\n      mstore\n        /* \"#utility.yul\":20697:20828   */\n      tag_475\n        /* \"#utility.yul\":20823:20827   */\n      dup2\n        /* \"#utility.yul\":20697:20828   */\n      tag_259\n      jump\t// in\n    tag_475:\n        /* \"#utility.yul\":20689:20828   */\n      swap1\n      pop\n        /* \"#utility.yul\":20416:20835   */\n      swap2\n      swap1\n      pop\n      jump\t// out\n        /* \"#utility.yul\":20841:21013   */\n    tag_260:\n        /* \"#utility.yul\":20981:21005   */\n      0x596f75206861766520616c726561647920766f74656400000000000000000000\n        /* \"#utility.yul\":20977:20978   */\n      0x00\n        /* \"#utility.yul\":20969:20975   */\n      dup3\n        /* \"#utility.yul\":20965:20979   */\n      add\n        /* \"#utility.yul\":20958:21006   */\n      mstore\n        /* \"#utility.yul\":20841:21013   */\n      pop\n      jump\t// out\n        /* \"#utility.yul\":21019:21385   */\n    tag_261:\n        /* \"#utility.yul\":21161:21164   */\n      0x00\n        /* \"#utility.yul\":21182:21249   */\n      tag_478\n        /* \"#utility.yul\":21246:21248   */\n      0x16\n        /* \"#utility.yul\":21241:21244   */\n      dup4\n        /* \"#utility.yul\":21182:21249   */\n      tag_223\n      jump\t// in\n    tag_478:\n        /* \"#utility.yul\":21175:21249   */\n      swap2\n      pop\n        /* \"#utility.yul\":21258:21351   */\n      tag_479\n        /* \"#utility.yul\":21347:21350   */\n      dup3\n        /* \"#utility.yul\":21258:21351   */\n      tag_260\n      jump\t// in\n    tag_479:\n        /* \"#utility.yul\":21376:21378   */\n      0x20\n        /* \"#utility.yul\":21371:21374   */\n      dup3\n        /* \"#utility.yul\":21367:21379   */\n      add\n        /* \"#utility.yul\":21360:21379   */\n      swap1\n      pop\n        /* \"#utility.yul\":21019:21385   */\n      swap2\n      swap1\n      pop\n      jump\t// out\n        /* \"#utility.yul\":21391:21810   */\n    tag_156:\n        /* \"#utility.yul\":21557:21561   */\n      0x00\n        /* \"#utility.yul\":21595:21597   */\n      0x20\n        /* \"#utility.yul\":21584:21593   */\n      dup3\n        /* \"#utility.yul\":21580:21598   */\n      add\n        /* \"#utility.yul\":21572:21598   */\n      swap1\n      pop\n        /* \"#utility.yul\":21644:21653   */\n      dup2\n        /* \"#utility.yul\":21638:21642   */\n      dup2\n        /* \"#utility.yul\":21634:21654   */\n      sub\n        /* \"#utility.yul\":21630:21631   */\n      0x00\n        /* \"#utility.yul\":21619:21628   */\n      dup4\n        /* \"#utility.yul\":21615:21632   */\n      add\n        /* \"#utility.yul\":21608:21655   */\n      mstore\n        /* \"#utility.yul\":21672:21803   */\n      tag_481\n        /* \"#utility.yul\":21798:21802   */\n      dup2\n        /* \"#utility.yul\":21672:21803   */\n      tag_261\n      jump\t// in\n    tag_481:\n        /* \"#utility.yul\":21664:21803   */\n      swap1\n      pop\n        /* \"#utility.yul\":21391:21810   */\n      swap2\n      swap1\n      pop\n      jump\t// out\n        /* \"#utility.yul\":21816:22045   */\n    tag_262:\n        /* \"#utility.yul\":21956:21990   */\n      0x44656c65676174652061646472657373206973206e6f74206120726567697374\n        /* \"#utility.yul\":21952:21953   */\n      0x00\n        /* \"#utility.yul\":21944:21950   */\n      dup3\n        /* \"#utility.yul\":21940:21954   */\n      add\n        /* \"#utility.yul\":21933:21991   */\n      mstore\n        /* \"#utility.yul\":22025:22037   */\n      0x6572656420766f74657200000000000000000000000000000000000000000000\n        /* \"#utility.yul\":22020:22022   */\n      0x20\n        /* \"#utility.yul\":22012:22018   */\n      dup3\n        /* \"#utility.yul\":22008:22023   */\n      add\n        /* \"#utility.yul\":22001:22038   */\n      mstore\n        /* \"#utility.yul\":21816:22045   */\n      pop\n      jump\t// out\n        /* \"#utility.yul\":22051:22417   */\n    tag_263:\n        /* \"#utility.yul\":22193:22196   */\n      0x00\n        /* \"#utility.yul\":22214:22281   */\n      tag_484\n        /* \"#utility.yul\":22278:22280   */\n      0x2a\n        /* \"#utility.yul\":22273:22276   */\n      dup4\n        /* \"#utility.yul\":22214:22281   */\n      tag_223\n      jump\t// in\n    tag_484:\n        /* \"#utility.yul\":22207:22281   */\n      swap2\n      pop\n        /* \"#utility.yul\":22290:22383   */\n      tag_485\n        /* \"#utility.yul\":22379:22382   */\n      dup3\n        /* \"#utility.yul\":22290:22383   */\n      tag_262\n      jump\t// in\n    tag_485:\n        /* \"#utility.yul\":22408:22410   */\n      0x40\n        /* \"#utility.yul\":22403:22406   */\n      dup3\n        /* \"#utility.yul\":22399:22411   */\n      add\n        /* \"#utility.yul\":22392:22411   */\n      swap1\n      pop\n        /* \"#utility.yul\":22051:22417   */\n      swap2\n      swap1\n      pop\n      jump\t// out\n        /* \"#utility.yul\":22423:22842   */\n    tag_160:\n        /* \"#utility.yul\":22589:22593   */\n      0x00\n        /* \"#utility.yul\":22627:22629   */\n      0x20\n        /* \"#utility.yul\":22616:22625   */\n      dup3\n        /* \"#utility.yul\":22612:22630   */\n      add\n        /* \"#utility.yul\":22604:22630   */\n      swap1\n      pop\n        /* \"#utility.yul\":22676:22685   */\n      dup2\n        /* \"#utility.yul\":22670:22674   */\n      dup2\n        /* \"#utility.yul\":22666:22686   */\n      sub\n        /* \"#utility.yul\":22662:22663   */\n      0x00\n        /* \"#utility.yul\":22651:22660   */\n      dup4\n        /* \"#utility.yul\":22647:22664   */\n      add\n        /* \"#utility.yul\":22640:22687   */\n      mstore\n        /* \"#utility.yul\":22704:22835   */\n      tag_487\n        /* \"#utility.yul\":22830:22834   */\n      dup2\n        /* \"#utility.yul\":22704:22835   */\n      tag_263\n      jump\t// in\n    tag_487:\n        /* \"#utility.yul\":22696:22835   */\n      swap1\n      pop\n        /* \"#utility.yul\":22423:22842   */\n      swap2\n      swap1\n      pop\n      jump\t// out\n        /* \"#utility.yul\":22848:23180   */\n    tag_162:\n        /* \"#utility.yul\":22969:22973   */\n      0x00\n        /* \"#utility.yul\":23007:23009   */\n      0x40\n        /* \"#utility.yul\":22996:23005   */\n      dup3\n        /* \"#utility.yul\":22992:23010   */\n      add\n        /* \"#utility.yul\":22984:23010   */\n      swap1\n      pop\n        /* \"#utility.yul\":23020:23091   */\n      tag_489\n        /* \"#utility.yul\":23088:23089   */\n      0x00\n        /* \"#utility.yul\":23077:23086   */\n      dup4\n        /* \"#utility.yul\":23073:23090   */\n      add\n        /* \"#utility.yul\":23064:23070   */\n      dup6\n        /* \"#utility.yul\":23020:23091   */\n      tag_232\n      jump\t// in\n    tag_489:\n        /* \"#utility.yul\":23101:23173   */\n      tag_490\n        /* \"#utility.yul\":23169:23171   */\n      0x20\n        /* \"#utility.yul\":23158:23167   */\n      dup4\n        /* \"#utility.yul\":23154:23172   */\n      add\n        /* \"#utility.yul\":23145:23151   */\n      dup5\n        /* \"#utility.yul\":23101:23173   */\n      tag_232\n      jump\t// in\n    tag_490:\n        /* \"#utility.yul\":22848:23180   */\n      swap4\n      swap3\n      pop\n      pop\n      pop\n      jump\t// out\n        /* \"#utility.yul\":23186:23360   */\n    tag_264:\n        /* \"#utility.yul\":23326:23352   */\n      0x43616e64696461746520646f6573206e6f742065786973740000000000000000\n        /* \"#utility.yul\":23322:23323   */\n      0x00\n        /* \"#utility.yul\":23314:23320   */\n      dup3\n        /* \"#utility.yul\":23310:23324   */\n      add\n        /* \"#utility.yul\":23303:23353   */\n      mstore\n        /* \"#utility.yul\":23186:23360   */\n      pop\n      jump\t// out\n        /* \"#utility.yul\":23366:23732   */\n    tag_265:\n        /* \"#utility.yul\":23508:23511   */\n      0x00\n        /* \"#utility.yul\":23529:23596   */\n      tag_493\n        /* \"#utility.yul\":23593:23595   */\n      0x18\n        /* \"#utility.yul\":23588:23591   */\n      dup4\n        /* \"#utility.yul\":23529:23596   */\n      tag_223\n      jump\t// in\n    tag_493:\n        /* \"#utility.yul\":23522:23596   */\n      swap2\n      pop\n        /* \"#utility.yul\":23605:23698   */\n      tag_494\n        /* \"#utility.yul\":23694:23697   */\n      dup3\n        /* \"#utility.yul\":23605:23698   */\n      tag_264\n      jump\t// in\n    tag_494:\n        /* \"#utility.yul\":23723:23725   */\n      0x20\n        /* \"#utility.yul\":23718:23721   */\n      dup3\n        /* \"#utility.yul\":23714:23726   */\n      add\n        /* \"#utility.yul\":23707:23726   */\n      swap1\n      pop\n        /* \"#utility.yul\":23366:23732   */\n      swap2\n      swap1\n      pop\n      jump\t// out\n        /* \"#utility.yul\":23738:24157   */\n    tag_173:\n        /* \"#utility.yul\":23904:23908   */\n      0x00\n        /* \"#utility.yul\":23942:23944   */\n      0x20\n        /* \"#utility.yul\":23931:23940   */\n      dup3\n        /* \"#utility.yul\":23927:23945   */\n      add\n        /* \"#utility.yul\":23919:23945   */\n      swap1\n      pop\n        /* \"#utility.yul\":23991:24000   */\n      dup2\n        /* \"#utility.yul\":23985:23989   */\n      dup2\n        /* \"#utility.yul\":23981:24001   */\n      sub\n        /* \"#utility.yul\":23977:23978   */\n      0x00\n        /* \"#utility.yul\":23966:23975   */\n      dup4\n        /* \"#utility.yul\":23962:23979   */\n      add\n        /* \"#utility.yul\":23955:24002   */\n      mstore\n        /* \"#utility.yul\":24019:24150   */\n      tag_496\n        /* \"#utility.yul\":24145:24149   */\n      dup2\n        /* \"#utility.yul\":24019:24150   */\n      tag_265\n      jump\t// in\n    tag_496:\n        /* \"#utility.yul\":24011:24150   */\n      swap1\n      pop\n        /* \"#utility.yul\":23738:24157   */\n      swap2\n      swap1\n      pop\n      jump\t// out\n        /* \"#utility.yul\":24163:24340   */\n    tag_266:\n        /* \"#utility.yul\":24303:24332   */\n      0x44656c65676174656520686173206e6f7420766f746564207965740000000000\n        /* \"#utility.yul\":24299:24300   */\n      0x00\n        /* \"#utility.yul\":24291:24297   */\n      dup3\n        /* \"#utility.yul\":24287:24301   */\n      add\n        /* \"#utility.yul\":24280:24333   */\n      mstore\n        /* \"#utility.yul\":24163:24340   */\n      pop\n      jump\t// out\n        /* \"#utility.yul\":24346:24712   */\n    tag_267:\n        /* \"#utility.yul\":24488:24491   */\n      0x00\n        /* \"#utility.yul\":24509:24576   */\n      tag_499\n        /* \"#utility.yul\":24573:24575   */\n      0x1b\n        /* \"#utility.yul\":24568:24571   */\n      dup4\n        /* \"#utility.yul\":24509:24576   */\n      tag_223\n      jump\t// in\n    tag_499:\n        /* \"#utility.yul\":24502:24576   */\n      swap2\n      pop\n        /* \"#utility.yul\":24585:24678   */\n      tag_500\n        /* \"#utility.yul\":24674:24677   */\n      dup3\n        /* \"#utility.yul\":24585:24678   */\n      tag_266\n      jump\t// in\n    tag_500:\n        /* \"#utility.yul\":24703:24705   */\n      0x20\n        /* \"#utility.yul\":24698:24701   */\n      dup3\n        /* \"#utility.yul\":24694:24706   */\n      add\n        /* \"#utility.yul\":24687:24706   */\n      swap1\n      pop\n        /* \"#utility.yul\":24346:24712   */\n      swap2\n      swap1\n      pop\n      jump\t// out\n        /* \"#utility.yul\":24718:25137   */\n    tag_177:\n        /* \"#utility.yul\":24884:24888   */\n      0x00\n        /* \"#utility.yul\":24922:24924   */\n      0x20\n        /* \"#utility.yul\":24911:24920   */\n      dup3\n        /* \"#utility.yul\":24907:24925   */\n      add\n        /* \"#utility.yul\":24899:24925   */\n      swap1\n      pop\n        /* \"#utility.yul\":24971:24980   */\n      dup2\n        /* \"#utility.yul\":24965:24969   */\n      dup2\n        /* \"#utility.yul\":24961:24981   */\n      sub\n        /* \"#utility.yul\":24957:24958   */\n      0x00\n        /* \"#utility.yul\":24946:24955   */\n      dup4\n        /* \"#utility.yul\":24942:24959   */\n      add\n        /* \"#utility.yul\":24935:24982   */\n      mstore\n        /* \"#utility.yul\":24999:25130   */\n      tag_502\n        /* \"#utility.yul\":25125:25129   */\n      dup2\n        /* \"#utility.yul\":24999:25130   */\n      tag_267\n      jump\t// in\n    tag_502:\n        /* \"#utility.yul\":24991:25130   */\n      swap1\n      pop\n        /* \"#utility.yul\":24718:25137   */\n      swap2\n      swap1\n      pop\n      jump\t// out\n        /* \"#utility.yul\":25143:25475   */\n    tag_182:\n        /* \"#utility.yul\":25264:25268   */\n      0x00\n        /* \"#utility.yul\":25302:25304   */\n      0x40\n        /* \"#utility.yul\":25291:25300   */\n      dup3\n        /* \"#utility.yul\":25287:25305   */\n      add\n        /* \"#utility.yul\":25279:25305   */\n      swap1\n      pop\n        /* \"#utility.yul\":25315:25386   */\n      tag_504\n        /* \"#utility.yul\":25383:25384   */\n      0x00\n        /* \"#utility.yul\":25372:25381   */\n      dup4\n        /* \"#utility.yul\":25368:25385   */\n      add\n        /* \"#utility.yul\":25359:25365   */\n      dup6\n        /* \"#utility.yul\":25315:25386   */\n      tag_232\n      jump\t// in\n    tag_504:\n        /* \"#utility.yul\":25396:25468   */\n      tag_505\n        /* \"#utility.yul\":25464:25466   */\n      0x20\n        /* \"#utility.yul\":25453:25462   */\n      dup4\n        /* \"#utility.yul\":25449:25467   */\n      add\n        /* \"#utility.yul\":25440:25446   */\n      dup5\n        /* \"#utility.yul\":25396:25468   */\n      tag_221\n      jump\t// in\n    tag_505:\n        /* \"#utility.yul\":25143:25475   */\n      swap4\n      swap3\n      pop\n      pop\n      pop\n      jump\t// out\n        /* \"#utility.yul\":25481:25704   */\n    tag_268:\n        /* \"#utility.yul\":25621:25655   */\n      0x43616e6e6f742061646420766f7465727320647572696e6720616e20656c6563\n        /* \"#utility.yul\":25617:25618   */\n      0x00\n        /* \"#utility.yul\":25609:25615   */\n      dup3\n        /* \"#utility.yul\":25605:25619   */\n      add\n        /* \"#utility.yul\":25598:25656   */\n      mstore\n        /* \"#utility.yul\":25690:25696   */\n      0x74696f6e00000000000000000000000000000000000000000000000000000000\n        /* \"#utility.yul\":25685:25687   */\n      0x20\n        /* \"#utility.yul\":25677:25683   */\n      dup3\n        /* \"#utility.yul\":25673:25688   */\n      add\n        /* \"#utility.yul\":25666:25697   */\n      mstore\n        /* \"#utility.yul\":25481:25704   */\n      pop\n      jump\t// out\n        /* \"#utility.yul\":25710:26076   */\n    tag_269:\n        /* \"#utility.yul\":25852:25855   */\n      0x00\n        /* \"#utility.yul\":25873:25940   */\n      tag_508\n        /* \"#utility.yul\":25937:25939   */\n      0x24\n        /* \"#utility.yul\":25932:25935   */\n      dup4\n        /* \"#utility.yul\":25873:25940   */\n      tag_223\n      jump\t// in\n    tag_508:\n        /* \"#utility.yul\":25866:25940   */\n      swap2\n      pop\n        /* \"#utility.yul\":25949:26042   */\n      tag_509\n        /* \"#utility.yul\":26038:26041   */\n      dup3\n        /* \"#utility.yul\":25949:26042   */\n      tag_268\n      jump\t// in\n    tag_509:\n        /* \"#utility.yul\":26067:26069   */\n      0x40\n        /* \"#utility.yul\":26062:26065   */\n      dup3\n        /* \"#utility.yul\":26058:26070   */\n      add\n        /* \"#utility.yul\":26051:26070   */\n      swap1\n      pop\n        /* \"#utility.yul\":25710:26076   */\n      swap2\n      swap1\n      pop\n      jump\t// out\n        /* \"#utility.yul\":26082:26501   */\n    tag_189:\n        /* \"#utility.yul\":26248:26252   */\n      0x00\n        /* \"#utility.yul\":26286:26288   */\n      0x20\n        /* \"#utility.yul\":26275:26284   */\n      dup3\n        /* \"#utility.yul\":26271:26289   */\n      add\n        /* \"#utility.yul\":26263:26289   */\n      swap1\n      pop\n        /* \"#utility.yul\":26335:26344   */\n      dup2\n        /* \"#utility.yul\":26329:26333   */\n      dup2\n        /* \"#utility.yul\":26325:26345   */\n      sub\n        /* \"#utility.yul\":26321:26322   */\n      0x00\n        /* \"#utility.yul\":26310:26319   */\n      dup4\n        /* \"#utility.yul\":26306:26323   */\n      add\n        /* \"#utility.yul\":26299:26346   */\n      mstore\n        /* \"#utility.yul\":26363:26494   */\n      tag_511\n        /* \"#utility.yul\":26489:26493   */\n      dup2\n        /* \"#utility.yul\":26363:26494   */\n      tag_269\n      jump\t// in\n    tag_511:\n        /* \"#utility.yul\":26355:26494   */\n      swap1\n      pop\n        /* \"#utility.yul\":26082:26501   */\n      swap2\n      swap1\n      pop\n      jump\t// out\n        /* \"#utility.yul\":26507:26681   */\n    tag_270:\n        /* \"#utility.yul\":26647:26673   */\n      0x566f74657220616c726561647920726567697374657265640000000000000000\n        /* \"#utility.yul\":26643:26644   */\n      0x00\n        /* \"#utility.yul\":26635:26641   */\n      dup3\n        /* \"#utility.yul\":26631:26645   */\n      add\n        /* \"#utility.yul\":26624:26674   */\n      mstore\n        /* \"#utility.yul\":26507:26681   */\n      pop\n      jump\t// out\n        /* \"#utility.yul\":26687:27053   */\n    tag_271:\n        /* \"#utility.yul\":26829:26832   */\n      0x00\n        /* \"#utility.yul\":26850:26917   */\n      tag_514\n        /* \"#utility.yul\":26914:26916   */\n      0x18\n        /* \"#utility.yul\":26909:26912   */\n      dup4\n        /* \"#utility.yul\":26850:26917   */\n      tag_223\n      jump\t// in\n    tag_514:\n        /* \"#utility.yul\":26843:26917   */\n      swap2\n      pop\n        /* \"#utility.yul\":26926:27019   */\n      tag_515\n        /* \"#utility.yul\":27015:27018   */\n      dup3\n        /* \"#utility.yul\":26926:27019   */\n      tag_270\n      jump\t// in\n    tag_515:\n        /* \"#utility.yul\":27044:27046   */\n      0x20\n        /* \"#utility.yul\":27039:27042   */\n      dup3\n        /* \"#utility.yul\":27035:27047   */\n      add\n        /* \"#utility.yul\":27028:27047   */\n      swap1\n      pop\n        /* \"#utility.yul\":26687:27053   */\n      swap2\n      swap1\n      pop\n      jump\t// out\n        /* \"#utility.yul\":27059:27478   */\n    tag_192:\n        /* \"#utility.yul\":27225:27229   */\n      0x00\n        /* \"#utility.yul\":27263:27265   */\n      0x20\n        /* \"#utility.yul\":27252:27261   */\n      dup3\n        /* \"#utility.yul\":27248:27266   */\n      add\n        /* \"#utility.yul\":27240:27266   */\n      swap1\n      pop\n        /* \"#utility.yul\":27312:27321   */\n      dup2\n        /* \"#utility.yul\":27306:27310   */\n      dup2\n        /* \"#utility.yul\":27302:27322   */\n      sub\n        /* \"#utility.yul\":27298:27299   */\n      0x00\n        /* \"#utility.yul\":27287:27296   */\n      dup4\n        /* \"#utility.yul\":27283:27300   */\n      add\n        /* \"#utility.yul\":27276:27323   */\n      mstore\n        /* \"#utility.yul\":27340:27471   */\n      tag_517\n        /* \"#utility.yul\":27466:27470   */\n      dup2\n        /* \"#utility.yul\":27340:27471   */\n      tag_271\n      jump\t// in\n    tag_517:\n        /* \"#utility.yul\":27332:27471   */\n      swap1\n      pop\n        /* \"#utility.yul\":27059:27478   */\n      swap2\n      swap1\n      pop\n      jump\t// out\n\n    auxdata: 0xa2646970667358221220cb507fc9ca2e8896bae381e49910cb74853677ce5ec111f085b122aa2b8d04d564736f6c634300081c0033\n}\n",
				"bytecode": {
					"linkReferences": {},
					"object": "6080604052348015600e575f5ffd5b50335f5f6101000a81548173ffffffffffffffffffffffffffffffffffffffff021916908373ffffffffffffffffffffffffffffffffffffffff1602179055506125618061005b5f395ff3fe608060405234801561000f575f5ffd5b50600436106100f3575f3560e01c8063a3ec138d11610095578063dcd6a5cd11610064578063dcd6a5cd1461026c578063f4ab9adf14610288578063f851a440146102a4578063ff981099146102c2576100f3565b8063a3ec138d146101ca578063a9a981a3146101fe578063b31e1d4d1461021c578063d8a6f68f14610238576100f3565b806359f78468116100d157806359f784681461017857806362d73eb8146101825780638e7ea5b21461018c578063972b4192146101ac576100f3565b806326541b56146100f75780633477ee2e1461011357806335b8e82014610146575b5f5ffd5b610111600480360381019061010c91906118a3565b6102f4565b005b61012d6004803603810190610128919061194c565b6104a0565b60405161013d94939291906119e6565b60405180910390f35b610160600480360381019061015b919061194c565b6105d8565b60405161016f93929190611a37565b60405180910390f35b61018061074a565b005b61018a61086d565b005b610194610992565b6040516101a393929190611a7a565b60405180910390f35b6101b4610bb2565b6040516101c19190611ad0565b60405180910390f35b6101e460048036038101906101df9190611b43565b610bc4565b6040516101f5959493929190611b7d565b60405180910390f35b610206610c3a565b6040516102139190611bce565b60405180910390f35b61023660048036038101906102319190611b43565b610c40565b005b610252600480360381019061024d9190611b43565b610eb9565b604051610263959493929190611be7565b60405180910390f35b6102866004803603810190610281919061194c565b610fe2565b005b6102a2600480360381019061029d9190611b43565b6113c6565b005b6102ac6115c0565b6040516102b99190611c38565b60405180910390f35b6102dc60048036038101906102d7919061194c565b6115e4565b6040516102eb93929190611c51565b60405180910390f35b5f5f9054906101000a900473ffffffffffffffffffffffffffffffffffffffff1673ffffffffffffffffffffffffffffffffffffffff163373ffffffffffffffffffffffffffffffffffffffff1614610382576040517f08c379a000000000000000000000000000000000000000000000000000000000815260040161037990611cfd565b60405180910390fd5b5f60149054906101000a900460ff16156103d1576040517f08c379a00000000000000000000000000000000000000000000000000000000081526004016103c890611d8b565b60405180910390fd5b60035f8154809291906103e390611dd6565b9190505550604051806080016040528060035481526020018381526020018281526020015f81525060015f60035481526020019081526020015f205f820151815f0155602082015181600101908161043b919061201a565b506040820151816002019081610451919061201a565b50606082015181600301559050507fe64f834082661dd9ed89427b87edb6270fd6dad17198b0938f0edd058914c87f600354838360405161049493929190611a37565b60405180910390a15050565b6001602052805f5260405f205f91509050805f0154908060010180546104c590611e4a565b80601f01602080910402602001604051908101604052809291908181526020018280546104f190611e4a565b801561053c5780601f106105135761010080835404028352916020019161053c565b820191905f5260205f20905b81548152906001019060200180831161051f57829003601f168201915b50505050509080600201805461055190611e4a565b80601f016020809104026020016040519081016040528092919081815260200182805461057d90611e4a565b80156105c85780601f1061059f576101008083540402835291602001916105c8565b820191905f5260205f20905b8154815290600101906020018083116105ab57829003601f168201915b5050505050908060030154905084565b5f6060805f60015f8681526020019081526020015f206040518060800160405290815f820154815260200160018201805461061290611e4a565b80601f016020809104026020016040519081016040528092919081815260200182805461063e90611e4a565b80156106895780601f1061066057610100808354040283529160200191610689565b820191905f5260205f20905b81548152906001019060200180831161066c57829003601f168201915b505050505081526020016002820180546106a290611e4a565b80601f01602080910402602001604051908101604052809291908181526020018280546106ce90611e4a565b80156107195780601f106106f057610100808354040283529160200191610719565b820191905f5260205f20905b8154815290600101906020018083116106fc57829003601f168201915b505050505081526020016003820154815250509050805f015181602001518260400151935093509350509193909250565b5f5f9054906101000a900473ffffffffffffffffffffffffffffffffffffffff1673ffffffffffffffffffffffffffffffffffffffff163373ffffffffffffffffffffffffffffffffffffffff16146107d8576040517f08c379a00000000000000000000000000000000000000000000000000000000081526004016107cf90611cfd565b60405180910390fd5b5f60149054906101000a900460ff16610826576040517f08c379a000000000000000000000000000000000000000000000000000000000815260040161081d90612133565b60405180910390fd5b5f5f60146101000a81548160ff0219169083151502179055507f66ec723071e4bb646f7b35d31bc2dee8510979bd8c180edd0690d4f5e802f1e460405160405180910390a1565b5f5f9054906101000a900473ffffffffffffffffffffffffffffffffffffffff1673ffffffffffffffffffffffffffffffffffffffff163373ffffffffffffffffffffffffffffffffffffffff16146108fb576040517f08c379a00000000000000000000000000000000000000000000000000000000081526004016108f290611cfd565b60405180910390fd5b5f60149054906101000a900460ff161561094a576040517f08c379a00000000000000000000000000000000000000000000000000000000081526004016109419061219b565b60405180910390fd5b60015f60146101000a81548160ff0219169083151502179055507fc475c26aa25ed8e85a7faa790e5f63b5d7ee1025f12821f4c9bfddd36ab4d11260405160405180910390a1565b60605f5f5f60149054906101000a900460ff16156109e5576040517f08c379a00000000000000000000000000000000000000000000000000000000081526004016109dc90612203565b60405180910390fd5b5f5f5f90505f600190505b6003548111610a43578160015f8381526020019081526020015f20600301541115610a305760015f8281526020019081526020015f206003015491508092505b8080610a3b90611dd6565b9150506109f0565b505f60015f8481526020019081526020015f206040518060800160405290815f8201548152602001600182018054610a7a90611e4a565b80601f0160208091040260200160405190810160405280929190818152602001828054610aa690611e4a565b8015610af15780601f10610ac857610100808354040283529160200191610af1565b820191905f5260205f20905b815481529060010190602001808311610ad457829003601f168201915b50505050508152602001600282018054610b0a90611e4a565b80601f0160208091040260200160405190810160405280929190818152602001828054610b3690611e4a565b8015610b815780601f10610b5857610100808354040283529160200191610b81565b820191905f5260205f20905b815481529060010190602001808311610b6457829003601f168201915b5050505050815260200160038201548152505090508060200151815f01518260600151955095509550505050909192565b5f60149054906101000a900460ff1681565b6002602052805f5260405f205f91509050805f015f9054906101000a900460ff1690805f0160019054906101000a900460ff1690806001015490806002015f9054906101000a900473ffffffffffffffffffffffffffffffffffffffff16908060020160149054906101000a900460ff16905085565b60035481565b5f60149054906101000a900460ff16610c8e576040517f08c379a0000000000000000000000000000000000000000000000000000000008152600401610c8590612133565b60405180910390fd5b60025f3373ffffffffffffffffffffffffffffffffffffffff1673ffffffffffffffffffffffffffffffffffffffff1681526020019081526020015f205f0160019054906101000a900460ff1615610d1b576040517f08c379a0000000000000000000000000000000000000000000000000000000008152600401610d129061226b565b60405180910390fd5b60025f8273ffffffffffffffffffffffffffffffffffffffff1673ffffffffffffffffffffffffffffffffffffffff1681526020019081526020015f205f015f9054906101000a900460ff16610da6576040517f08c379a0000000000000000000000000000000000000000000000000000000008152600401610d9d906122f9565b60405180910390fd5b600160025f3373ffffffffffffffffffffffffffffffffffffffff1673ffffffffffffffffffffffffffffffffffffffff1681526020019081526020015f2060020160146101000a81548160ff0219169083151502179055508060025f3373ffffffffffffffffffffffffffffffffffffffff1673ffffffffffffffffffffffffffffffffffffffff1681526020019081526020015f206002015f6101000a81548173ffffffffffffffffffffffffffffffffffffffff021916908373ffffffffffffffffffffffffffffffffffffffff1602179055507fa0ff2fa6909fe4ddd94349fc9d8e2932f3dfe666216f3cc2aa3a72f5a03b655e3382604051610eae929190612317565b60405180910390a150565b5f5f5f5f5f5f60025f8873ffffffffffffffffffffffffffffffffffffffff1673ffffffffffffffffffffffffffffffffffffffff1681526020019081526020015f206040518060a00160405290815f82015f9054906101000a900460ff161515151581526020015f820160019054906101000a900460ff1615151515815260200160018201548152602001600282015f9054906101000a900473ffffffffffffffffffffffffffffffffffffffff1673ffffffffffffffffffffffffffffffffffffffff1673ffffffffffffffffffffffffffffffffffffffff1681526020016002820160149054906101000a900460ff1615151515815250509050805f01518160200151826040015183608001518460600151955095509550955095505091939590929450565b5f60149054906101000a900460ff16611030576040517f08c379a000000000000000000000000000000000000000000000000000000000815260040161102790612133565b60405180910390fd5b60025f3373ffffffffffffffffffffffffffffffffffffffff1673ffffffffffffffffffffffffffffffffffffffff1681526020019081526020015f205f0160019054906101000a900460ff16156110bd576040517f08c379a00000000000000000000000000000000000000000000000000000000081526004016110b49061226b565b60405180910390fd5b5f60015f8381526020019081526020015f205f015403611112576040517f08c379a000000000000000000000000000000000000000000000000000000000815260040161110990612388565b60405180910390fd5b60025f3373ffffffffffffffffffffffffffffffffffffffff1673ffffffffffffffffffffffffffffffffffffffff1681526020019081526020015f2060020160149054906101000a900460ff16156112c3575f60025f3373ffffffffffffffffffffffffffffffffffffffff1673ffffffffffffffffffffffffffffffffffffffff1681526020019081526020015f206002015f9054906101000a900473ffffffffffffffffffffffffffffffffffffffff16905060025f8273ffffffffffffffffffffffffffffffffffffffff1673ffffffffffffffffffffffffffffffffffffffff1681526020019081526020015f205f0160019054906101000a900460ff16611254576040517f08c379a000000000000000000000000000000000000000000000000000000000815260040161124b906123f0565b60405180910390fd5b60015f60025f8473ffffffffffffffffffffffffffffffffffffffff1673ffffffffffffffffffffffffffffffffffffffff1681526020019081526020015f206001015481526020019081526020015f206003015f8154809291906112b890611dd6565b9190505550506112ed565b60015f8281526020019081526020015f206003015f8154809291906112e790611dd6565b91905055505b600160025f3373ffffffffffffffffffffffffffffffffffffffff1673ffffffffffffffffffffffffffffffffffffffff1681526020019081526020015f205f0160016101000a81548160ff0219169083151502179055508060025f3373ffffffffffffffffffffffffffffffffffffffff1673ffffffffffffffffffffffffffffffffffffffff1681526020019081526020015f20600101819055507fd0e6c39f2e086dc49f1524b47725526a56945cd1ff661f37976f1725a1e5698633826040516113bb92919061240e565b60405180910390a150565b5f5f9054906101000a900473ffffffffffffffffffffffffffffffffffffffff1673ffffffffffffffffffffffffffffffffffffffff163373ffffffffffffffffffffffffffffffffffffffff1614611454576040517f08c379a000000000000000000000000000000000000000000000000000000000815260040161144b90611cfd565b60405180910390fd5b5f60149054906101000a900460ff16156114a3576040517f08c379a000000000000000000000000000000000000000000000000000000000815260040161149a906124a5565b60405180910390fd5b60025f8273ffffffffffffffffffffffffffffffffffffffff1673ffffffffffffffffffffffffffffffffffffffff1681526020019081526020015f205f015f9054906101000a900460ff161561152f576040517f08c379a00000000000000000000000000000000000000000000000000000000081526004016115269061250d565b60405180910390fd5b600160025f8373ffffffffffffffffffffffffffffffffffffffff1673ffffffffffffffffffffffffffffffffffffffff1681526020019081526020015f205f015f6101000a81548160ff0219169083151502179055507fa636f4a11e2d3ba7f89d042ecb0a6b886716e98cd49d8fd876ee0f73bced42b8816040516115b59190611c38565b60405180910390a150565b5f5f9054906101000a900473ffffffffffffffffffffffffffffffffffffffff1681565b5f60605f5f60015f8681526020019081526020015f206040518060800160405290815f820154815260200160018201805461161e90611e4a565b80601f016020809104026020016040519081016040528092919081815260200182805461164a90611e4a565b80156116955780601f1061166c57610100808354040283529160200191611695565b820191905f5260205f20905b81548152906001019060200180831161167857829003601f168201915b505050505081526020016002820180546116ae90611e4a565b80601f01602080910402602001604051908101604052809291908181526020018280546116da90611e4a565b80156117255780601f106116fc57610100808354040283529160200191611725565b820191905f5260205f20905b81548152906001019060200180831161170857829003601f168201915b505050505081526020016003820154815250509050805f015181602001518260600151935093509350509193909250565b5f604051905090565b5f5ffd5b5f5ffd5b5f5ffd5b5f5ffd5b5f601f19601f8301169050919050565b7f4e487b71000000000000000000000000000000000000000000000000000000005f52604160045260245ffd5b6117b58261176f565b810181811067ffffffffffffffff821117156117d4576117d361177f565b5b80604052505050565b5f6117e6611756565b90506117f282826117ac565b919050565b5f67ffffffffffffffff8211156118115761181061177f565b5b61181a8261176f565b9050602081019050919050565b828183375f83830152505050565b5f611847611842846117f7565b6117dd565b9050828152602081018484840111156118635761186261176b565b5b61186e848285611827565b509392505050565b5f82601f83011261188a57611889611767565b5b813561189a848260208601611835565b91505092915050565b5f5f604083850312156118b9576118b861175f565b5b5f83013567ffffffffffffffff8111156118d6576118d5611763565b5b6118e285828601611876565b925050602083013567ffffffffffffffff81111561190357611902611763565b5b61190f85828601611876565b9150509250929050565b5f819050919050565b61192b81611919565b8114611935575f5ffd5b50565b5f8135905061194681611922565b92915050565b5f602082840312156119615761196061175f565b5b5f61196e84828501611938565b91505092915050565b61198081611919565b82525050565b5f81519050919050565b5f82825260208201905092915050565b8281835e5f83830152505050565b5f6119b882611986565b6119c28185611990565b93506119d28185602086016119a0565b6119db8161176f565b840191505092915050565b5f6080820190506119f95f830187611977565b8181036020830152611a0b81866119ae565b90508181036040830152611a1f81856119ae565b9050611a2e6060830184611977565b95945050505050565b5f606082019050611a4a5f830186611977565b8181036020830152611a5c81856119ae565b90508181036040830152611a7081846119ae565b9050949350505050565b5f6060820190508181035f830152611a9281866119ae565b9050611aa16020830185611977565b611aae6040830184611977565b949350505050565b5f8115159050919050565b611aca81611ab6565b82525050565b5f602082019050611ae35f830184611ac1565b92915050565b5f73ffffffffffffffffffffffffffffffffffffffff82169050919050565b5f611b1282611ae9565b9050919050565b611b2281611b08565b8114611b2c575f5ffd5b50565b5f81359050611b3d81611b19565b92915050565b5f60208284031215611b5857611b5761175f565b5b5f611b6584828501611b2f565b91505092915050565b611b7781611b08565b82525050565b5f60a082019050611b905f830188611ac1565b611b9d6020830187611ac1565b611baa6040830186611977565b611bb76060830185611b6e565b611bc46080830184611ac1565b9695505050505050565b5f602082019050611be15f830184611977565b92915050565b5f60a082019050611bfa5f830188611ac1565b611c076020830187611ac1565b611c146040830186611977565b611c216060830185611ac1565b611c2e6080830184611b6e565b9695505050505050565b5f602082019050611c4b5f830184611b6e565b92915050565b5f606082019050611c645f830186611977565b8181036020830152611c7681856119ae565b9050611c856040830184611977565b949350505050565b7f4f6e6c792061646d696e2063616e20706572666f726d207468697320616374695f8201527f6f6e000000000000000000000000000000000000000000000000000000000000602082015250565b5f611ce7602283611990565b9150611cf282611c8d565b604082019050919050565b5f6020820190508181035f830152611d1481611cdb565b9050919050565b7f43616e6e6f74206164642063616e6469646174657320647572696e6720616e205f8201527f656c656374696f6e000000000000000000000000000000000000000000000000602082015250565b5f611d75602883611990565b9150611d8082611d1b565b604082019050919050565b5f6020820190508181035f830152611da281611d69565b9050919050565b7f4e487b71000000000000000000000000000000000000000000000000000000005f52601160045260245ffd5b5f611de082611919565b91507fffffffffffffffffffffffffffffffffffffffffffffffffffffffffffffffff8203611e1257611e11611da9565b5b600182019050919050565b7f4e487b71000000000000000000000000000000000000000000000000000000005f52602260045260245ffd5b5f6002820490506001821680611e6157607f821691505b602082108103611e7457611e73611e1d565b5b50919050565b5f819050815f5260205f209050919050565b5f6020601f8301049050919050565b5f82821b905092915050565b5f60088302611ed67fffffffffffffffffffffffffffffffffffffffffffffffffffffffffffffffff82611e9b565b611ee08683611e9b565b95508019841693508086168417925050509392505050565b5f819050919050565b5f611f1b611f16611f1184611919565b611ef8565b611919565b9050919050565b5f819050919050565b611f3483611f01565b611f48611f4082611f22565b848454611ea7565b825550505050565b5f5f905090565b611f5f611f50565b611f6a818484611f2b565b505050565b5b81811015611f8d57611f825f82611f57565b600181019050611f70565b5050565b601f821115611fd257611fa381611e7a565b611fac84611e8c565b81016020851015611fbb578190505b611fcf611fc785611e8c565b830182611f6f565b50505b505050565b5f82821c905092915050565b5f611ff25f1984600802611fd7565b1980831691505092915050565b5f61200a8383611fe3565b9150826002028217905092915050565b61202382611986565b67ffffffffffffffff81111561203c5761203b61177f565b5b6120468254611e4a565b612051828285611f91565b5f60209050601f831160018114612082575f8415612070578287015190505b61207a8582611fff565b8655506120e1565b601f19841661209086611e7a565b5f5b828110156120b757848901518255600182019150602085019450602081019050612092565b868310156120d457848901516120d0601f891682611fe3565b8355505b6001600288020188555050505b505050505050565b7f456c656374696f6e206973206e6f74206f6e676f696e670000000000000000005f82015250565b5f61211d601783611990565b9150612128826120e9565b602082019050919050565b5f6020820190508181035f83015261214a81612111565b9050919050565b7f456c656374696f6e20616c7265616479207374617274656400000000000000005f82015250565b5f612185601883611990565b915061219082612151565b602082019050919050565b5f6020820190508181035f8301526121b281612179565b9050919050565b7f456c656374696f6e206973206f6e676f696e67000000000000000000000000005f82015250565b5f6121ed601383611990565b91506121f8826121b9565b602082019050919050565b5f6020820190508181035f83015261221a816121e1565b9050919050565b7f596f75206861766520616c726561647920766f746564000000000000000000005f82015250565b5f612255601683611990565b915061226082612221565b602082019050919050565b5f6020820190508181035f83015261228281612249565b9050919050565b7f44656c65676174652061646472657373206973206e6f742061207265676973745f8201527f6572656420766f74657200000000000000000000000000000000000000000000602082015250565b5f6122e3602a83611990565b91506122ee82612289565b604082019050919050565b5f6020820190508181035f830152612310816122d7565b9050919050565b5f60408201905061232a5f830185611b6e565b6123376020830184611b6e565b9392505050565b7f43616e64696461746520646f6573206e6f7420657869737400000000000000005f82015250565b5f612372601883611990565b915061237d8261233e565b602082019050919050565b5f6020820190508181035f83015261239f81612366565b9050919050565b7f44656c65676174656520686173206e6f7420766f7465642079657400000000005f82015250565b5f6123da601b83611990565b91506123e5826123a6565b602082019050919050565b5f6020820190508181035f830152612407816123ce565b9050919050565b5f6040820190506124215f830185611b6e565b61242e6020830184611977565b9392505050565b7f43616e6e6f742061646420766f7465727320647572696e6720616e20656c65635f8201527f74696f6e00000000000000000000000000000000000000000000000000000000602082015250565b5f61248f602483611990565b915061249a82612435565b604082019050919050565b5f6020820190508181035f8301526124bc81612483565b9050919050565b7f566f74657220616c7265616479207265676973746572656400000000000000005f82015250565b5f6124f7601883611990565b9150612502826124c3565b602082019050919050565b5f6020820190508181035f830152612524816124eb565b905091905056fea2646970667358221220cb507fc9ca2e8896bae381e49910cb74853677ce5ec111f085b122aa2b8d04d564736f6c634300081c0033",
					"opcodes": "PUSH1 0x80 PUSH1 0x40 MSTORE CALLVALUE DUP1 ISZERO PUSH1 0xE JUMPI PUSH0 PUSH0 REVERT JUMPDEST POP CALLER PUSH0 PUSH0 PUSH2 0x100 EXP DUP2 SLOAD DUP2 PUSH20 0xFFFFFFFFFFFFFFFFFFFFFFFFFFFFFFFFFFFFFFFF MUL NOT AND SWAP1 DUP4 PUSH20 0xFFFFFFFFFFFFFFFFFFFFFFFFFFFFFFFFFFFFFFFF AND MUL OR SWAP1 SSTORE POP PUSH2 0x2561 DUP1 PUSH2 0x5B PUSH0 CODECOPY PUSH0 RETURN INVALID PUSH1 0x80 PUSH1 0x40 MSTORE CALLVALUE DUP1 ISZERO PUSH2 0xF JUMPI PUSH0 PUSH0 REVERT JUMPDEST POP PUSH1 0x4 CALLDATASIZE LT PUSH2 0xF3 JUMPI PUSH0 CALLDATALOAD PUSH1 0xE0 SHR DUP1 PUSH4 0xA3EC138D GT PUSH2 0x95 JUMPI DUP1 PUSH4 0xDCD6A5CD GT PUSH2 0x64 JUMPI DUP1 PUSH4 0xDCD6A5CD EQ PUSH2 0x26C JUMPI DUP1 PUSH4 0xF4AB9ADF EQ PUSH2 0x288 JUMPI DUP1 PUSH4 0xF851A440 EQ PUSH2 0x2A4 JUMPI DUP1 PUSH4 0xFF981099 EQ PUSH2 0x2C2 JUMPI PUSH2 0xF3 JUMP JUMPDEST DUP1 PUSH4 0xA3EC138D EQ PUSH2 0x1CA JUMPI DUP1 PUSH4 0xA9A981A3 EQ PUSH2 0x1FE JUMPI DUP1 PUSH4 0xB31E1D4D EQ PUSH2 0x21C JUMPI DUP1 PUSH4 0xD8A6F68F EQ PUSH2 0x238 JUMPI PUSH2 0xF3 JUMP JUMPDEST DUP1 PUSH4 0x59F78468 GT PUSH2 0xD1 JUMPI DUP1 PUSH4 0x59F78468 EQ PUSH2 0x178 JUMPI DUP1 PUSH4 0x62D73EB8 EQ PUSH2 0x182 JUMPI DUP1 PUSH4 0x8E7EA5B2 EQ PUSH2 0x18C JUMPI DUP1 PUSH4 0x972B4192 EQ PUSH2 0x1AC JUMPI PUSH2 0xF3 JUMP JUMPDEST DUP1 PUSH4 0x26541B56 EQ PUSH2 0xF7 JUMPI DUP1 PUSH4 0x3477EE2E EQ PUSH2 0x113 JUMPI DUP1 PUSH4 0x35B8E820 EQ PUSH2 0x146 JUMPI JUMPDEST PUSH0 PUSH0 REVERT JUMPDEST PUSH2 0x111 PUSH1 0x4 DUP1 CALLDATASIZE SUB DUP2 ADD SWAP1 PUSH2 0x10C SWAP2 SWAP1 PUSH2 0x18A3 JUMP JUMPDEST PUSH2 0x2F4 JUMP JUMPDEST STOP JUMPDEST PUSH2 0x12D PUSH1 0x4 DUP1 CALLDATASIZE SUB DUP2 ADD SWAP1 PUSH2 0x128 SWAP2 SWAP1 PUSH2 0x194C JUMP JUMPDEST PUSH2 0x4A0 JUMP JUMPDEST PUSH1 0x40 MLOAD PUSH2 0x13D SWAP5 SWAP4 SWAP3 SWAP2 SWAP1 PUSH2 0x19E6 JUMP JUMPDEST PUSH1 0x40 MLOAD DUP1 SWAP2 SUB SWAP1 RETURN JUMPDEST PUSH2 0x160 PUSH1 0x4 DUP1 CALLDATASIZE SUB DUP2 ADD SWAP1 PUSH2 0x15B SWAP2 SWAP1 PUSH2 0x194C JUMP JUMPDEST PUSH2 0x5D8 JUMP JUMPDEST PUSH1 0x40 MLOAD PUSH2 0x16F SWAP4 SWAP3 SWAP2 SWAP1 PUSH2 0x1A37 JUMP JUMPDEST PUSH1 0x40 MLOAD DUP1 SWAP2 SUB SWAP1 RETURN JUMPDEST PUSH2 0x180 PUSH2 0x74A JUMP JUMPDEST STOP JUMPDEST PUSH2 0x18A PUSH2 0x86D JUMP JUMPDEST STOP JUMPDEST PUSH2 0x194 PUSH2 0x992 JUMP JUMPDEST PUSH1 0x40 MLOAD PUSH2 0x1A3 SWAP4 SWAP3 SWAP2 SWAP1 PUSH2 0x1A7A JUMP JUMPDEST PUSH1 0x40 MLOAD DUP1 SWAP2 SUB SWAP1 RETURN JUMPDEST PUSH2 0x1B4 PUSH2 0xBB2 JUMP JUMPDEST PUSH1 0x40 MLOAD PUSH2 0x1C1 SWAP2 SWAP1 PUSH2 0x1AD0 JUMP JUMPDEST PUSH1 0x40 MLOAD DUP1 SWAP2 SUB SWAP1 RETURN JUMPDEST PUSH2 0x1E4 PUSH1 0x4 DUP1 CALLDATASIZE SUB DUP2 ADD SWAP1 PUSH2 0x1DF SWAP2 SWAP1 PUSH2 0x1B43 JUMP JUMPDEST PUSH2 0xBC4 JUMP JUMPDEST PUSH1 0x40 MLOAD PUSH2 0x1F5 SWAP6 SWAP5 SWAP4 SWAP3 SWAP2 SWAP1 PUSH2 0x1B7D JUMP JUMPDEST PUSH1 0x40 MLOAD DUP1 SWAP2 SUB SWAP1 RETURN JUMPDEST PUSH2 0x206 PUSH2 0xC3A JUMP JUMPDEST PUSH1 0x40 MLOAD PUSH2 0x213 SWAP2 SWAP1 PUSH2 0x1BCE JUMP JUMPDEST PUSH1 0x40 MLOAD DUP1 SWAP2 SUB SWAP1 RETURN JUMPDEST PUSH2 0x236 PUSH1 0x4 DUP1 CALLDATASIZE SUB DUP2 ADD SWAP1 PUSH2 0x231 SWAP2 SWAP1 PUSH2 0x1B43 JUMP JUMPDEST PUSH2 0xC40 JUMP JUMPDEST STOP JUMPDEST PUSH2 0x252 PUSH1 0x4 DUP1 CALLDATASIZE SUB DUP2 ADD SWAP1 PUSH2 0x24D SWAP2 SWAP1 PUSH2 0x1B43 JUMP JUMPDEST PUSH2 0xEB9 JUMP JUMPDEST PUSH1 0x40 MLOAD PUSH2 0x263 SWAP6 SWAP5 SWAP4 SWAP3 SWAP2 SWAP1 PUSH2 0x1BE7 JUMP JUMPDEST PUSH1 0x40 MLOAD DUP1 SWAP2 SUB SWAP1 RETURN JUMPDEST PUSH2 0x286 PUSH1 0x4 DUP1 CALLDATASIZE SUB DUP2 ADD SWAP1 PUSH2 0x281 SWAP2 SWAP1 PUSH2 0x194C JUMP JUMPDEST PUSH2 0xFE2 JUMP JUMPDEST STOP JUMPDEST PUSH2 0x2A2 PUSH1 0x4 DUP1 CALLDATASIZE SUB DUP2 ADD SWAP1 PUSH2 0x29D SWAP2 SWAP1 PUSH2 0x1B43 JUMP JUMPDEST PUSH2 0x13C6 JUMP JUMPDEST STOP JUMPDEST PUSH2 0x2AC PUSH2 0x15C0 JUMP JUMPDEST PUSH1 0x40 MLOAD PUSH2 0x2B9 SWAP2 SWAP1 PUSH2 0x1C38 JUMP JUMPDEST PUSH1 0x40 MLOAD DUP1 SWAP2 SUB SWAP1 RETURN JUMPDEST PUSH2 0x2DC PUSH1 0x4 DUP1 CALLDATASIZE SUB DUP2 ADD SWAP1 PUSH2 0x2D7 SWAP2 SWAP1 PUSH2 0x194C JUMP JUMPDEST PUSH2 0x15E4 JUMP JUMPDEST PUSH1 0x40 MLOAD PUSH2 0x2EB SWAP4 SWAP3 SWAP2 SWAP1 PUSH2 0x1C51 JUMP JUMPDEST PUSH1 0x40 MLOAD DUP1 SWAP2 SUB SWAP1 RETURN JUMPDEST PUSH0 PUSH0 SWAP1 SLOAD SWAP1 PUSH2 0x100 EXP SWAP1 DIV PUSH20 0xFFFFFFFFFFFFFFFFFFFFFFFFFFFFFFFFFFFFFFFF AND PUSH20 0xFFFFFFFFFFFFFFFFFFFFFFFFFFFFFFFFFFFFFFFF AND CALLER PUSH20 0xFFFFFFFFFFFFFFFFFFFFFFFFFFFFFFFFFFFFFFFF AND EQ PUSH2 0x382 JUMPI PUSH1 0x40 MLOAD PUSH32 0x8C379A000000000000000000000000000000000000000000000000000000000 DUP2 MSTORE PUSH1 0x4 ADD PUSH2 0x379 SWAP1 PUSH2 0x1CFD JUMP JUMPDEST PUSH1 0x40 MLOAD DUP1 SWAP2 SUB SWAP1 REVERT JUMPDEST PUSH0 PUSH1 0x14 SWAP1 SLOAD SWAP1 PUSH2 0x100 EXP SWAP1 DIV PUSH1 0xFF AND ISZERO PUSH2 0x3D1 JUMPI PUSH1 0x40 MLOAD PUSH32 0x8C379A000000000000000000000000000000000000000000000000000000000 DUP2 MSTORE PUSH1 0x4 ADD PUSH2 0x3C8 SWAP1 PUSH2 0x1D8B JUMP JUMPDEST PUSH1 0x40 MLOAD DUP1 SWAP2 SUB SWAP1 REVERT JUMPDEST PUSH1 0x3 PUSH0 DUP2 SLOAD DUP1 SWAP3 SWAP2 SWAP1 PUSH2 0x3E3 SWAP1 PUSH2 0x1DD6 JUMP JUMPDEST SWAP2 SWAP1 POP SSTORE POP PUSH1 0x40 MLOAD DUP1 PUSH1 0x80 ADD PUSH1 0x40 MSTORE DUP1 PUSH1 0x3 SLOAD DUP2 MSTORE PUSH1 0x20 ADD DUP4 DUP2 MSTORE PUSH1 0x20 ADD DUP3 DUP2 MSTORE PUSH1 0x20 ADD PUSH0 DUP2 MSTORE POP PUSH1 0x1 PUSH0 PUSH1 0x3 SLOAD DUP2 MSTORE PUSH1 0x20 ADD SWAP1 DUP2 MSTORE PUSH1 0x20 ADD PUSH0 KECCAK256 PUSH0 DUP3 ADD MLOAD DUP2 PUSH0 ADD SSTORE PUSH1 0x20 DUP3 ADD MLOAD DUP2 PUSH1 0x1 ADD SWAP1 DUP2 PUSH2 0x43B SWAP2 SWAP1 PUSH2 0x201A JUMP JUMPDEST POP PUSH1 0x40 DUP3 ADD MLOAD DUP2 PUSH1 0x2 ADD SWAP1 DUP2 PUSH2 0x451 SWAP2 SWAP1 PUSH2 0x201A JUMP JUMPDEST POP PUSH1 0x60 DUP3 ADD MLOAD DUP2 PUSH1 0x3 ADD SSTORE SWAP1 POP POP PUSH32 0xE64F834082661DD9ED89427B87EDB6270FD6DAD17198B0938F0EDD058914C87F PUSH1 0x3 SLOAD DUP4 DUP4 PUSH1 0x40 MLOAD PUSH2 0x494 SWAP4 SWAP3 SWAP2 SWAP1 PUSH2 0x1A37 JUMP JUMPDEST PUSH1 0x40 MLOAD DUP1 SWAP2 SUB SWAP1 LOG1 POP POP JUMP JUMPDEST PUSH1 0x1 PUSH1 0x20 MSTORE DUP1 PUSH0 MSTORE PUSH1 0x40 PUSH0 KECCAK256 PUSH0 SWAP2 POP SWAP1 POP DUP1 PUSH0 ADD SLOAD SWAP1 DUP1 PUSH1 0x1 ADD DUP1 SLOAD PUSH2 0x4C5 SWAP1 PUSH2 0x1E4A JUMP JUMPDEST DUP1 PUSH1 0x1F ADD PUSH1 0x20 DUP1 SWAP2 DIV MUL PUSH1 0x20 ADD PUSH1 0x40 MLOAD SWAP1 DUP2 ADD PUSH1 0x40 MSTORE DUP1 SWAP3 SWAP2 SWAP1 DUP2 DUP2 MSTORE PUSH1 0x20 ADD DUP3 DUP1 SLOAD PUSH2 0x4F1 SWAP1 PUSH2 0x1E4A JUMP JUMPDEST DUP1 ISZERO PUSH2 0x53C JUMPI DUP1 PUSH1 0x1F LT PUSH2 0x513 JUMPI PUSH2 0x100 DUP1 DUP4 SLOAD DIV MUL DUP4 MSTORE SWAP2 PUSH1 0x20 ADD SWAP2 PUSH2 0x53C JUMP JUMPDEST DUP3 ADD SWAP2 SWAP1 PUSH0 MSTORE PUSH1 0x20 PUSH0 KECCAK256 SWAP1 JUMPDEST DUP2 SLOAD DUP2 MSTORE SWAP1 PUSH1 0x1 ADD SWAP1 PUSH1 0x20 ADD DUP1 DUP4 GT PUSH2 0x51F JUMPI DUP3 SWAP1 SUB PUSH1 0x1F AND DUP3 ADD SWAP2 JUMPDEST POP POP POP POP POP SWAP1 DUP1 PUSH1 0x2 ADD DUP1 SLOAD PUSH2 0x551 SWAP1 PUSH2 0x1E4A JUMP JUMPDEST DUP1 PUSH1 0x1F ADD PUSH1 0x20 DUP1 SWAP2 DIV MUL PUSH1 0x20 ADD PUSH1 0x40 MLOAD SWAP1 DUP2 ADD PUSH1 0x40 MSTORE DUP1 SWAP3 SWAP2 SWAP1 DUP2 DUP2 MSTORE PUSH1 0x20 ADD DUP3 DUP1 SLOAD PUSH2 0x57D SWAP1 PUSH2 0x1E4A JUMP JUMPDEST DUP1 ISZERO PUSH2 0x5C8 JUMPI DUP1 PUSH1 0x1F LT PUSH2 0x59F JUMPI PUSH2 0x100 DUP1 DUP4 SLOAD DIV MUL DUP4 MSTORE SWAP2 PUSH1 0x20 ADD SWAP2 PUSH2 0x5C8 JUMP JUMPDEST DUP3 ADD SWAP2 SWAP1 PUSH0 MSTORE PUSH1 0x20 PUSH0 KECCAK256 SWAP1 JUMPDEST DUP2 SLOAD DUP2 MSTORE SWAP1 PUSH1 0x1 ADD SWAP1 PUSH1 0x20 ADD DUP1 DUP4 GT PUSH2 0x5AB JUMPI DUP3 SWAP1 SUB PUSH1 0x1F AND DUP3 ADD SWAP2 JUMPDEST POP POP POP POP POP SWAP1 DUP1 PUSH1 0x3 ADD SLOAD SWAP1 POP DUP5 JUMP JUMPDEST PUSH0 PUSH1 0x60 DUP1 PUSH0 PUSH1 0x1 PUSH0 DUP7 DUP2 MSTORE PUSH1 0x20 ADD SWAP1 DUP2 MSTORE PUSH1 0x20 ADD PUSH0 KECCAK256 PUSH1 0x40 MLOAD DUP1 PUSH1 0x80 ADD PUSH1 0x40 MSTORE SWAP1 DUP2 PUSH0 DUP3 ADD SLOAD DUP2 MSTORE PUSH1 0x20 ADD PUSH1 0x1 DUP3 ADD DUP1 SLOAD PUSH2 0x612 SWAP1 PUSH2 0x1E4A JUMP JUMPDEST DUP1 PUSH1 0x1F ADD PUSH1 0x20 DUP1 SWAP2 DIV MUL PUSH1 0x20 ADD PUSH1 0x40 MLOAD SWAP1 DUP2 ADD PUSH1 0x40 MSTORE DUP1 SWAP3 SWAP2 SWAP1 DUP2 DUP2 MSTORE PUSH1 0x20 ADD DUP3 DUP1 SLOAD PUSH2 0x63E SWAP1 PUSH2 0x1E4A JUMP JUMPDEST DUP1 ISZERO PUSH2 0x689 JUMPI DUP1 PUSH1 0x1F LT PUSH2 0x660 JUMPI PUSH2 0x100 DUP1 DUP4 SLOAD DIV MUL DUP4 MSTORE SWAP2 PUSH1 0x20 ADD SWAP2 PUSH2 0x689 JUMP JUMPDEST DUP3 ADD SWAP2 SWAP1 PUSH0 MSTORE PUSH1 0x20 PUSH0 KECCAK256 SWAP1 JUMPDEST DUP2 SLOAD DUP2 MSTORE SWAP1 PUSH1 0x1 ADD SWAP1 PUSH1 0x20 ADD DUP1 DUP4 GT PUSH2 0x66C JUMPI DUP3 SWAP1 SUB PUSH1 0x1F AND DUP3 ADD SWAP2 JUMPDEST POP POP POP POP POP DUP2 MSTORE PUSH1 0x20 ADD PUSH1 0x2 DUP3 ADD DUP1 SLOAD PUSH2 0x6A2 SWAP1 PUSH2 0x1E4A JUMP JUMPDEST DUP1 PUSH1 0x1F ADD PUSH1 0x20 DUP1 SWAP2 DIV MUL PUSH1 0x20 ADD PUSH1 0x40 MLOAD SWAP1 DUP2 ADD PUSH1 0x40 MSTORE DUP1 SWAP3 SWAP2 SWAP1 DUP2 DUP2 MSTORE PUSH1 0x20 ADD DUP3 DUP1 SLOAD PUSH2 0x6CE SWAP1 PUSH2 0x1E4A JUMP JUMPDEST DUP1 ISZERO PUSH2 0x719 JUMPI DUP1 PUSH1 0x1F LT PUSH2 0x6F0 JUMPI PUSH2 0x100 DUP1 DUP4 SLOAD DIV MUL DUP4 MSTORE SWAP2 PUSH1 0x20 ADD SWAP2 PUSH2 0x719 JUMP JUMPDEST DUP3 ADD SWAP2 SWAP1 PUSH0 MSTORE PUSH1 0x20 PUSH0 KECCAK256 SWAP1 JUMPDEST DUP2 SLOAD DUP2 MSTORE SWAP1 PUSH1 0x1 ADD SWAP1 PUSH1 0x20 ADD DUP1 DUP4 GT PUSH2 0x6FC JUMPI DUP3 SWAP1 SUB PUSH1 0x1F AND DUP3 ADD SWAP2 JUMPDEST POP POP POP POP POP DUP2 MSTORE PUSH1 0x20 ADD PUSH1 0x3 DUP3 ADD SLOAD DUP2 MSTORE POP POP SWAP1 POP DUP1 PUSH0 ADD MLOAD DUP2 PUSH1 0x20 ADD MLOAD DUP3 PUSH1 0x40 ADD MLOAD SWAP4 POP SWAP4 POP SWAP4 POP POP SWAP2 SWAP4 SWAP1 SWAP3 POP JUMP JUMPDEST PUSH0 PUSH0 SWAP1 SLOAD SWAP1 PUSH2 0x100 EXP SWAP1 DIV PUSH20 0xFFFFFFFFFFFFFFFFFFFFFFFFFFFFFFFFFFFFFFFF AND PUSH20 0xFFFFFFFFFFFFFFFFFFFFFFFFFFFFFFFFFFFFFFFF AND CALLER PUSH20 0xFFFFFFFFFFFFFFFFFFFFFFFFFFFFFFFFFFFFFFFF AND EQ PUSH2 0x7D8 JUMPI PUSH1 0x40 MLOAD PUSH32 0x8C379A000000000000000000000000000000000000000000000000000000000 DUP2 MSTORE PUSH1 0x4 ADD PUSH2 0x7CF SWAP1 PUSH2 0x1CFD JUMP JUMPDEST PUSH1 0x40 MLOAD DUP1 SWAP2 SUB SWAP1 REVERT JUMPDEST PUSH0 PUSH1 0x14 SWAP1 SLOAD SWAP1 PUSH2 0x100 EXP SWAP1 DIV PUSH1 0xFF AND PUSH2 0x826 JUMPI PUSH1 0x40 MLOAD PUSH32 0x8C379A000000000000000000000000000000000000000000000000000000000 DUP2 MSTORE PUSH1 0x4 ADD PUSH2 0x81D SWAP1 PUSH2 0x2133 JUMP JUMPDEST PUSH1 0x40 MLOAD DUP1 SWAP2 SUB SWAP1 REVERT JUMPDEST PUSH0 PUSH0 PUSH1 0x14 PUSH2 0x100 EXP DUP2 SLOAD DUP2 PUSH1 0xFF MUL NOT AND SWAP1 DUP4 ISZERO ISZERO MUL OR SWAP1 SSTORE POP PUSH32 0x66EC723071E4BB646F7B35D31BC2DEE8510979BD8C180EDD0690D4F5E802F1E4 PUSH1 0x40 MLOAD PUSH1 0x40 MLOAD DUP1 SWAP2 SUB SWAP1 LOG1 JUMP JUMPDEST PUSH0 PUSH0 SWAP1 SLOAD SWAP1 PUSH2 0x100 EXP SWAP1 DIV PUSH20 0xFFFFFFFFFFFFFFFFFFFFFFFFFFFFFFFFFFFFFFFF AND PUSH20 0xFFFFFFFFFFFFFFFFFFFFFFFFFFFFFFFFFFFFFFFF AND CALLER PUSH20 0xFFFFFFFFFFFFFFFFFFFFFFFFFFFFFFFFFFFFFFFF AND EQ PUSH2 0x8FB JUMPI PUSH1 0x40 MLOAD PUSH32 0x8C379A000000000000000000000000000000000000000000000000000000000 DUP2 MSTORE PUSH1 0x4 ADD PUSH2 0x8F2 SWAP1 PUSH2 0x1CFD JUMP JUMPDEST PUSH1 0x40 MLOAD DUP1 SWAP2 SUB SWAP1 REVERT JUMPDEST PUSH0 PUSH1 0x14 SWAP1 SLOAD SWAP1 PUSH2 0x100 EXP SWAP1 DIV PUSH1 0xFF AND ISZERO PUSH2 0x94A JUMPI PUSH1 0x40 MLOAD PUSH32 0x8C379A000000000000000000000000000000000000000000000000000000000 DUP2 MSTORE PUSH1 0x4 ADD PUSH2 0x941 SWAP1 PUSH2 0x219B JUMP JUMPDEST PUSH1 0x40 MLOAD DUP1 SWAP2 SUB SWAP1 REVERT JUMPDEST PUSH1 0x1 PUSH0 PUSH1 0x14 PUSH2 0x100 EXP DUP2 SLOAD DUP2 PUSH1 0xFF MUL NOT AND SWAP1 DUP4 ISZERO ISZERO MUL OR SWAP1 SSTORE POP PUSH32 0xC475C26AA25ED8E85A7FAA790E5F63B5D7EE1025F12821F4C9BFDDD36AB4D112 PUSH1 0x40 MLOAD PUSH1 0x40 MLOAD DUP1 SWAP2 SUB SWAP1 LOG1 JUMP JUMPDEST PUSH1 0x60 PUSH0 PUSH0 PUSH0 PUSH1 0x14 SWAP1 SLOAD SWAP1 PUSH2 0x100 EXP SWAP1 DIV PUSH1 0xFF AND ISZERO PUSH2 0x9E5 JUMPI PUSH1 0x40 MLOAD PUSH32 0x8C379A000000000000000000000000000000000000000000000000000000000 DUP2 MSTORE PUSH1 0x4 ADD PUSH2 0x9DC SWAP1 PUSH2 0x2203 JUMP JUMPDEST PUSH1 0x40 MLOAD DUP1 SWAP2 SUB SWAP1 REVERT JUMPDEST PUSH0 PUSH0 PUSH0 SWAP1 POP PUSH0 PUSH1 0x1 SWAP1 POP JUMPDEST PUSH1 0x3 SLOAD DUP2 GT PUSH2 0xA43 JUMPI DUP2 PUSH1 0x1 PUSH0 DUP4 DUP2 MSTORE PUSH1 0x20 ADD SWAP1 DUP2 MSTORE PUSH1 0x20 ADD PUSH0 KECCAK256 PUSH1 0x3 ADD SLOAD GT ISZERO PUSH2 0xA30 JUMPI PUSH1 0x1 PUSH0 DUP3 DUP2 MSTORE PUSH1 0x20 ADD SWAP1 DUP2 MSTORE PUSH1 0x20 ADD PUSH0 KECCAK256 PUSH1 0x3 ADD SLOAD SWAP2 POP DUP1 SWAP3 POP JUMPDEST DUP1 DUP1 PUSH2 0xA3B SWAP1 PUSH2 0x1DD6 JUMP JUMPDEST SWAP2 POP POP PUSH2 0x9F0 JUMP JUMPDEST POP PUSH0 PUSH1 0x1 PUSH0 DUP5 DUP2 MSTORE PUSH1 0x20 ADD SWAP1 DUP2 MSTORE PUSH1 0x20 ADD PUSH0 KECCAK256 PUSH1 0x40 MLOAD DUP1 PUSH1 0x80 ADD PUSH1 0x40 MSTORE SWAP1 DUP2 PUSH0 DUP3 ADD SLOAD DUP2 MSTORE PUSH1 0x20 ADD PUSH1 0x1 DUP3 ADD DUP1 SLOAD PUSH2 0xA7A SWAP1 PUSH2 0x1E4A JUMP JUMPDEST DUP1 PUSH1 0x1F ADD PUSH1 0x20 DUP1 SWAP2 DIV MUL PUSH1 0x20 ADD PUSH1 0x40 MLOAD SWAP1 DUP2 ADD PUSH1 0x40 MSTORE DUP1 SWAP3 SWAP2 SWAP1 DUP2 DUP2 MSTORE PUSH1 0x20 ADD DUP3 DUP1 SLOAD PUSH2 0xAA6 SWAP1 PUSH2 0x1E4A JUMP JUMPDEST DUP1 ISZERO PUSH2 0xAF1 JUMPI DUP1 PUSH1 0x1F LT PUSH2 0xAC8 JUMPI PUSH2 0x100 DUP1 DUP4 SLOAD DIV MUL DUP4 MSTORE SWAP2 PUSH1 0x20 ADD SWAP2 PUSH2 0xAF1 JUMP JUMPDEST DUP3 ADD SWAP2 SWAP1 PUSH0 MSTORE PUSH1 0x20 PUSH0 KECCAK256 SWAP1 JUMPDEST DUP2 SLOAD DUP2 MSTORE SWAP1 PUSH1 0x1 ADD SWAP1 PUSH1 0x20 ADD DUP1 DUP4 GT PUSH2 0xAD4 JUMPI DUP3 SWAP1 SUB PUSH1 0x1F AND DUP3 ADD SWAP2 JUMPDEST POP POP POP POP POP DUP2 MSTORE PUSH1 0x20 ADD PUSH1 0x2 DUP3 ADD DUP1 SLOAD PUSH2 0xB0A SWAP1 PUSH2 0x1E4A JUMP JUMPDEST DUP1 PUSH1 0x1F ADD PUSH1 0x20 DUP1 SWAP2 DIV MUL PUSH1 0x20 ADD PUSH1 0x40 MLOAD SWAP1 DUP2 ADD PUSH1 0x40 MSTORE DUP1 SWAP3 SWAP2 SWAP1 DUP2 DUP2 MSTORE PUSH1 0x20 ADD DUP3 DUP1 SLOAD PUSH2 0xB36 SWAP1 PUSH2 0x1E4A JUMP JUMPDEST DUP1 ISZERO PUSH2 0xB81 JUMPI DUP1 PUSH1 0x1F LT PUSH2 0xB58 JUMPI PUSH2 0x100 DUP1 DUP4 SLOAD DIV MUL DUP4 MSTORE SWAP2 PUSH1 0x20 ADD SWAP2 PUSH2 0xB81 JUMP JUMPDEST DUP3 ADD SWAP2 SWAP1 PUSH0 MSTORE PUSH1 0x20 PUSH0 KECCAK256 SWAP1 JUMPDEST DUP2 SLOAD DUP2 MSTORE SWAP1 PUSH1 0x1 ADD SWAP1 PUSH1 0x20 ADD DUP1 DUP4 GT PUSH2 0xB64 JUMPI DUP3 SWAP1 SUB PUSH1 0x1F AND DUP3 ADD SWAP2 JUMPDEST POP POP POP POP POP DUP2 MSTORE PUSH1 0x20 ADD PUSH1 0x3 DUP3 ADD SLOAD DUP2 MSTORE POP POP SWAP1 POP DUP1 PUSH1 0x20 ADD MLOAD DUP2 PUSH0 ADD MLOAD DUP3 PUSH1 0x60 ADD MLOAD SWAP6 POP SWAP6 POP SWAP6 POP POP POP POP SWAP1 SWAP2 SWAP3 JUMP JUMPDEST PUSH0 PUSH1 0x14 SWAP1 SLOAD SWAP1 PUSH2 0x100 EXP SWAP1 DIV PUSH1 0xFF AND DUP2 JUMP JUMPDEST PUSH1 0x2 PUSH1 0x20 MSTORE DUP1 PUSH0 MSTORE PUSH1 0x40 PUSH0 KECCAK256 PUSH0 SWAP2 POP SWAP1 POP DUP1 PUSH0 ADD PUSH0 SWAP1 SLOAD SWAP1 PUSH2 0x100 EXP SWAP1 DIV PUSH1 0xFF AND SWAP1 DUP1 PUSH0 ADD PUSH1 0x1 SWAP1 SLOAD SWAP1 PUSH2 0x100 EXP SWAP1 DIV PUSH1 0xFF AND SWAP1 DUP1 PUSH1 0x1 ADD SLOAD SWAP1 DUP1 PUSH1 0x2 ADD PUSH0 SWAP1 SLOAD SWAP1 PUSH2 0x100 EXP SWAP1 DIV PUSH20 0xFFFFFFFFFFFFFFFFFFFFFFFFFFFFFFFFFFFFFFFF AND SWAP1 DUP1 PUSH1 0x2 ADD PUSH1 0x14 SWAP1 SLOAD SWAP1 PUSH2 0x100 EXP SWAP1 DIV PUSH1 0xFF AND SWAP1 POP DUP6 JUMP JUMPDEST PUSH1 0x3 SLOAD DUP2 JUMP JUMPDEST PUSH0 PUSH1 0x14 SWAP1 SLOAD SWAP1 PUSH2 0x100 EXP SWAP1 DIV PUSH1 0xFF AND PUSH2 0xC8E JUMPI PUSH1 0x40 MLOAD PUSH32 0x8C379A000000000000000000000000000000000000000000000000000000000 DUP2 MSTORE PUSH1 0x4 ADD PUSH2 0xC85 SWAP1 PUSH2 0x2133 JUMP JUMPDEST PUSH1 0x40 MLOAD DUP1 SWAP2 SUB SWAP1 REVERT JUMPDEST PUSH1 0x2 PUSH0 CALLER PUSH20 0xFFFFFFFFFFFFFFFFFFFFFFFFFFFFFFFFFFFFFFFF AND PUSH20 0xFFFFFFFFFFFFFFFFFFFFFFFFFFFFFFFFFFFFFFFF AND DUP2 MSTORE PUSH1 0x20 ADD SWAP1 DUP2 MSTORE PUSH1 0x20 ADD PUSH0 KECCAK256 PUSH0 ADD PUSH1 0x1 SWAP1 SLOAD SWAP1 PUSH2 0x100 EXP SWAP1 DIV PUSH1 0xFF AND ISZERO PUSH2 0xD1B JUMPI PUSH1 0x40 MLOAD PUSH32 0x8C379A000000000000000000000000000000000000000000000000000000000 DUP2 MSTORE PUSH1 0x4 ADD PUSH2 0xD12 SWAP1 PUSH2 0x226B JUMP JUMPDEST PUSH1 0x40 MLOAD DUP1 SWAP2 SUB SWAP1 REVERT JUMPDEST PUSH1 0x2 PUSH0 DUP3 PUSH20 0xFFFFFFFFFFFFFFFFFFFFFFFFFFFFFFFFFFFFFFFF AND PUSH20 0xFFFFFFFFFFFFFFFFFFFFFFFFFFFFFFFFFFFFFFFF AND DUP2 MSTORE PUSH1 0x20 ADD SWAP1 DUP2 MSTORE PUSH1 0x20 ADD PUSH0 KECCAK256 PUSH0 ADD PUSH0 SWAP1 SLOAD SWAP1 PUSH2 0x100 EXP SWAP1 DIV PUSH1 0xFF AND PUSH2 0xDA6 JUMPI PUSH1 0x40 MLOAD PUSH32 0x8C379A000000000000000000000000000000000000000000000000000000000 DUP2 MSTORE PUSH1 0x4 ADD PUSH2 0xD9D SWAP1 PUSH2 0x22F9 JUMP JUMPDEST PUSH1 0x40 MLOAD DUP1 SWAP2 SUB SWAP1 REVERT JUMPDEST PUSH1 0x1 PUSH1 0x2 PUSH0 CALLER PUSH20 0xFFFFFFFFFFFFFFFFFFFFFFFFFFFFFFFFFFFFFFFF AND PUSH20 0xFFFFFFFFFFFFFFFFFFFFFFFFFFFFFFFFFFFFFFFF AND DUP2 MSTORE PUSH1 0x20 ADD SWAP1 DUP2 MSTORE PUSH1 0x20 ADD PUSH0 KECCAK256 PUSH1 0x2 ADD PUSH1 0x14 PUSH2 0x100 EXP DUP2 SLOAD DUP2 PUSH1 0xFF MUL NOT AND SWAP1 DUP4 ISZERO ISZERO MUL OR SWAP1 SSTORE POP DUP1 PUSH1 0x2 PUSH0 CALLER PUSH20 0xFFFFFFFFFFFFFFFFFFFFFFFFFFFFFFFFFFFFFFFF AND PUSH20 0xFFFFFFFFFFFFFFFFFFFFFFFFFFFFFFFFFFFFFFFF AND DUP2 MSTORE PUSH1 0x20 ADD SWAP1 DUP2 MSTORE PUSH1 0x20 ADD PUSH0 KECCAK256 PUSH1 0x2 ADD PUSH0 PUSH2 0x100 EXP DUP2 SLOAD DUP2 PUSH20 0xFFFFFFFFFFFFFFFFFFFFFFFFFFFFFFFFFFFFFFFF MUL NOT AND SWAP1 DUP4 PUSH20 0xFFFFFFFFFFFFFFFFFFFFFFFFFFFFFFFFFFFFFFFF AND MUL OR SWAP1 SSTORE POP PUSH32 0xA0FF2FA6909FE4DDD94349FC9D8E2932F3DFE666216F3CC2AA3A72F5A03B655E CALLER DUP3 PUSH1 0x40 MLOAD PUSH2 0xEAE SWAP3 SWAP2 SWAP1 PUSH2 0x2317 JUMP JUMPDEST PUSH1 0x40 MLOAD DUP1 SWAP2 SUB SWAP1 LOG1 POP JUMP JUMPDEST PUSH0 PUSH0 PUSH0 PUSH0 PUSH0 PUSH0 PUSH1 0x2 PUSH0 DUP9 PUSH20 0xFFFFFFFFFFFFFFFFFFFFFFFFFFFFFFFFFFFFFFFF AND PUSH20 0xFFFFFFFFFFFFFFFFFFFFFFFFFFFFFFFFFFFFFFFF AND DUP2 MSTORE PUSH1 0x20 ADD SWAP1 DUP2 MSTORE PUSH1 0x20 ADD PUSH0 KECCAK256 PUSH1 0x40 MLOAD DUP1 PUSH1 0xA0 ADD PUSH1 0x40 MSTORE SWAP1 DUP2 PUSH0 DUP3 ADD PUSH0 SWAP1 SLOAD SWAP1 PUSH2 0x100 EXP SWAP1 DIV PUSH1 0xFF AND ISZERO ISZERO ISZERO ISZERO DUP2 MSTORE PUSH1 0x20 ADD PUSH0 DUP3 ADD PUSH1 0x1 SWAP1 SLOAD SWAP1 PUSH2 0x100 EXP SWAP1 DIV PUSH1 0xFF AND ISZERO ISZERO ISZERO ISZERO DUP2 MSTORE PUSH1 0x20 ADD PUSH1 0x1 DUP3 ADD SLOAD DUP2 MSTORE PUSH1 0x20 ADD PUSH1 0x2 DUP3 ADD PUSH0 SWAP1 SLOAD SWAP1 PUSH2 0x100 EXP SWAP1 DIV PUSH20 0xFFFFFFFFFFFFFFFFFFFFFFFFFFFFFFFFFFFFFFFF AND PUSH20 0xFFFFFFFFFFFFFFFFFFFFFFFFFFFFFFFFFFFFFFFF AND PUSH20 0xFFFFFFFFFFFFFFFFFFFFFFFFFFFFFFFFFFFFFFFF AND DUP2 MSTORE PUSH1 0x20 ADD PUSH1 0x2 DUP3 ADD PUSH1 0x14 SWAP1 SLOAD SWAP1 PUSH2 0x100 EXP SWAP1 DIV PUSH1 0xFF AND ISZERO ISZERO ISZERO ISZERO DUP2 MSTORE POP POP SWAP1 POP DUP1 PUSH0 ADD MLOAD DUP2 PUSH1 0x20 ADD MLOAD DUP3 PUSH1 0x40 ADD MLOAD DUP4 PUSH1 0x80 ADD MLOAD DUP5 PUSH1 0x60 ADD MLOAD SWAP6 POP SWAP6 POP SWAP6 POP SWAP6 POP SWAP6 POP POP SWAP2 SWAP4 SWAP6 SWAP1 SWAP3 SWAP5 POP JUMP JUMPDEST PUSH0 PUSH1 0x14 SWAP1 SLOAD SWAP1 PUSH2 0x100 EXP SWAP1 DIV PUSH1 0xFF AND PUSH2 0x1030 JUMPI PUSH1 0x40 MLOAD PUSH32 0x8C379A000000000000000000000000000000000000000000000000000000000 DUP2 MSTORE PUSH1 0x4 ADD PUSH2 0x1027 SWAP1 PUSH2 0x2133 JUMP JUMPDEST PUSH1 0x40 MLOAD DUP1 SWAP2 SUB SWAP1 REVERT JUMPDEST PUSH1 0x2 PUSH0 CALLER PUSH20 0xFFFFFFFFFFFFFFFFFFFFFFFFFFFFFFFFFFFFFFFF AND PUSH20 0xFFFFFFFFFFFFFFFFFFFFFFFFFFFFFFFFFFFFFFFF AND DUP2 MSTORE PUSH1 0x20 ADD SWAP1 DUP2 MSTORE PUSH1 0x20 ADD PUSH0 KECCAK256 PUSH0 ADD PUSH1 0x1 SWAP1 SLOAD SWAP1 PUSH2 0x100 EXP SWAP1 DIV PUSH1 0xFF AND ISZERO PUSH2 0x10BD JUMPI PUSH1 0x40 MLOAD PUSH32 0x8C379A000000000000000000000000000000000000000000000000000000000 DUP2 MSTORE PUSH1 0x4 ADD PUSH2 0x10B4 SWAP1 PUSH2 0x226B JUMP JUMPDEST PUSH1 0x40 MLOAD DUP1 SWAP2 SUB SWAP1 REVERT JUMPDEST PUSH0 PUSH1 0x1 PUSH0 DUP4 DUP2 MSTORE PUSH1 0x20 ADD SWAP1 DUP2 MSTORE PUSH1 0x20 ADD PUSH0 KECCAK256 PUSH0 ADD SLOAD SUB PUSH2 0x1112 JUMPI PUSH1 0x40 MLOAD PUSH32 0x8C379A000000000000000000000000000000000000000000000000000000000 DUP2 MSTORE PUSH1 0x4 ADD PUSH2 0x1109 SWAP1 PUSH2 0x2388 JUMP JUMPDEST PUSH1 0x40 MLOAD DUP1 SWAP2 SUB SWAP1 REVERT JUMPDEST PUSH1 0x2 PUSH0 CALLER PUSH20 0xFFFFFFFFFFFFFFFFFFFFFFFFFFFFFFFFFFFFFFFF AND PUSH20 0xFFFFFFFFFFFFFFFFFFFFFFFFFFFFFFFFFFFFFFFF AND DUP2 MSTORE PUSH1 0x20 ADD SWAP1 DUP2 MSTORE PUSH1 0x20 ADD PUSH0 KECCAK256 PUSH1 0x2 ADD PUSH1 0x14 SWAP1 SLOAD SWAP1 PUSH2 0x100 EXP SWAP1 DIV PUSH1 0xFF AND ISZERO PUSH2 0x12C3 JUMPI PUSH0 PUSH1 0x2 PUSH0 CALLER PUSH20 0xFFFFFFFFFFFFFFFFFFFFFFFFFFFFFFFFFFFFFFFF AND PUSH20 0xFFFFFFFFFFFFFFFFFFFFFFFFFFFFFFFFFFFFFFFF AND DUP2 MSTORE PUSH1 0x20 ADD SWAP1 DUP2 MSTORE PUSH1 0x20 ADD PUSH0 KECCAK256 PUSH1 0x2 ADD PUSH0 SWAP1 SLOAD SWAP1 PUSH2 0x100 EXP SWAP1 DIV PUSH20 0xFFFFFFFFFFFFFFFFFFFFFFFFFFFFFFFFFFFFFFFF AND SWAP1 POP PUSH1 0x2 PUSH0 DUP3 PUSH20 0xFFFFFFFFFFFFFFFFFFFFFFFFFFFFFFFFFFFFFFFF AND PUSH20 0xFFFFFFFFFFFFFFFFFFFFFFFFFFFFFFFFFFFFFFFF AND DUP2 MSTORE PUSH1 0x20 ADD SWAP1 DUP2 MSTORE PUSH1 0x20 ADD PUSH0 KECCAK256 PUSH0 ADD PUSH1 0x1 SWAP1 SLOAD SWAP1 PUSH2 0x100 EXP SWAP1 DIV PUSH1 0xFF AND PUSH2 0x1254 JUMPI PUSH1 0x40 MLOAD PUSH32 0x8C379A000000000000000000000000000000000000000000000000000000000 DUP2 MSTORE PUSH1 0x4 ADD PUSH2 0x124B SWAP1 PUSH2 0x23F0 JUMP JUMPDEST PUSH1 0x40 MLOAD DUP1 SWAP2 SUB SWAP1 REVERT JUMPDEST PUSH1 0x1 PUSH0 PUSH1 0x2 PUSH0 DUP5 PUSH20 0xFFFFFFFFFFFFFFFFFFFFFFFFFFFFFFFFFFFFFFFF AND PUSH20 0xFFFFFFFFFFFFFFFFFFFFFFFFFFFFFFFFFFFFFFFF AND DUP2 MSTORE PUSH1 0x20 ADD SWAP1 DUP2 MSTORE PUSH1 0x20 ADD PUSH0 KECCAK256 PUSH1 0x1 ADD SLOAD DUP2 MSTORE PUSH1 0x20 ADD SWAP1 DUP2 MSTORE PUSH1 0x20 ADD PUSH0 KECCAK256 PUSH1 0x3 ADD PUSH0 DUP2 SLOAD DUP1 SWAP3 SWAP2 SWAP1 PUSH2 0x12B8 SWAP1 PUSH2 0x1DD6 JUMP JUMPDEST SWAP2 SWAP1 POP SSTORE POP POP PUSH2 0x12ED JUMP JUMPDEST PUSH1 0x1 PUSH0 DUP3 DUP2 MSTORE PUSH1 0x20 ADD SWAP1 DUP2 MSTORE PUSH1 0x20 ADD PUSH0 KECCAK256 PUSH1 0x3 ADD PUSH0 DUP2 SLOAD DUP1 SWAP3 SWAP2 SWAP1 PUSH2 0x12E7 SWAP1 PUSH2 0x1DD6 JUMP JUMPDEST SWAP2 SWAP1 POP SSTORE POP JUMPDEST PUSH1 0x1 PUSH1 0x2 PUSH0 CALLER PUSH20 0xFFFFFFFFFFFFFFFFFFFFFFFFFFFFFFFFFFFFFFFF AND PUSH20 0xFFFFFFFFFFFFFFFFFFFFFFFFFFFFFFFFFFFFFFFF AND DUP2 MSTORE PUSH1 0x20 ADD SWAP1 DUP2 MSTORE PUSH1 0x20 ADD PUSH0 KECCAK256 PUSH0 ADD PUSH1 0x1 PUSH2 0x100 EXP DUP2 SLOAD DUP2 PUSH1 0xFF MUL NOT AND SWAP1 DUP4 ISZERO ISZERO MUL OR SWAP1 SSTORE POP DUP1 PUSH1 0x2 PUSH0 CALLER PUSH20 0xFFFFFFFFFFFFFFFFFFFFFFFFFFFFFFFFFFFFFFFF AND PUSH20 0xFFFFFFFFFFFFFFFFFFFFFFFFFFFFFFFFFFFFFFFF AND DUP2 MSTORE PUSH1 0x20 ADD SWAP1 DUP2 MSTORE PUSH1 0x20 ADD PUSH0 KECCAK256 PUSH1 0x1 ADD DUP2 SWAP1 SSTORE POP PUSH32 0xD0E6C39F2E086DC49F1524B47725526A56945CD1FF661F37976F1725A1E56986 CALLER DUP3 PUSH1 0x40 MLOAD PUSH2 0x13BB SWAP3 SWAP2 SWAP1 PUSH2 0x240E JUMP JUMPDEST PUSH1 0x40 MLOAD DUP1 SWAP2 SUB SWAP1 LOG1 POP JUMP JUMPDEST PUSH0 PUSH0 SWAP1 SLOAD SWAP1 PUSH2 0x100 EXP SWAP1 DIV PUSH20 0xFFFFFFFFFFFFFFFFFFFFFFFFFFFFFFFFFFFFFFFF AND PUSH20 0xFFFFFFFFFFFFFFFFFFFFFFFFFFFFFFFFFFFFFFFF AND CALLER PUSH20 0xFFFFFFFFFFFFFFFFFFFFFFFFFFFFFFFFFFFFFFFF AND EQ PUSH2 0x1454 JUMPI PUSH1 0x40 MLOAD PUSH32 0x8C379A000000000000000000000000000000000000000000000000000000000 DUP2 MSTORE PUSH1 0x4 ADD PUSH2 0x144B SWAP1 PUSH2 0x1CFD JUMP JUMPDEST PUSH1 0x40 MLOAD DUP1 SWAP2 SUB SWAP1 REVERT JUMPDEST PUSH0 PUSH1 0x14 SWAP1 SLOAD SWAP1 PUSH2 0x100 EXP SWAP1 DIV PUSH1 0xFF AND ISZERO PUSH2 0x14A3 JUMPI PUSH1 0x40 MLOAD PUSH32 0x8C379A000000000000000000000000000000000000000000000000000000000 DUP2 MSTORE PUSH1 0x4 ADD PUSH2 0x149A SWAP1 PUSH2 0x24A5 JUMP JUMPDEST PUSH1 0x40 MLOAD DUP1 SWAP2 SUB SWAP1 REVERT JUMPDEST PUSH1 0x2 PUSH0 DUP3 PUSH20 0xFFFFFFFFFFFFFFFFFFFFFFFFFFFFFFFFFFFFFFFF AND PUSH20 0xFFFFFFFFFFFFFFFFFFFFFFFFFFFFFFFFFFFFFFFF AND DUP2 MSTORE PUSH1 0x20 ADD SWAP1 DUP2 MSTORE PUSH1 0x20 ADD PUSH0 KECCAK256 PUSH0 ADD PUSH0 SWAP1 SLOAD SWAP1 PUSH2 0x100 EXP SWAP1 DIV PUSH1 0xFF AND ISZERO PUSH2 0x152F JUMPI PUSH1 0x40 MLOAD PUSH32 0x8C379A000000000000000000000000000000000000000000000000000000000 DUP2 MSTORE PUSH1 0x4 ADD PUSH2 0x1526 SWAP1 PUSH2 0x250D JUMP JUMPDEST PUSH1 0x40 MLOAD DUP1 SWAP2 SUB SWAP1 REVERT JUMPDEST PUSH1 0x1 PUSH1 0x2 PUSH0 DUP4 PUSH20 0xFFFFFFFFFFFFFFFFFFFFFFFFFFFFFFFFFFFFFFFF AND PUSH20 0xFFFFFFFFFFFFFFFFFFFFFFFFFFFFFFFFFFFFFFFF AND DUP2 MSTORE PUSH1 0x20 ADD SWAP1 DUP2 MSTORE PUSH1 0x20 ADD PUSH0 KECCAK256 PUSH0 ADD PUSH0 PUSH2 0x100 EXP DUP2 SLOAD DUP2 PUSH1 0xFF MUL NOT AND SWAP1 DUP4 ISZERO ISZERO MUL OR SWAP1 SSTORE POP PUSH32 0xA636F4A11E2D3BA7F89D042ECB0A6B886716E98CD49D8FD876EE0F73BCED42B8 DUP2 PUSH1 0x40 MLOAD PUSH2 0x15B5 SWAP2 SWAP1 PUSH2 0x1C38 JUMP JUMPDEST PUSH1 0x40 MLOAD DUP1 SWAP2 SUB SWAP1 LOG1 POP JUMP JUMPDEST PUSH0 PUSH0 SWAP1 SLOAD SWAP1 PUSH2 0x100 EXP SWAP1 DIV PUSH20 0xFFFFFFFFFFFFFFFFFFFFFFFFFFFFFFFFFFFFFFFF AND DUP2 JUMP JUMPDEST PUSH0 PUSH1 0x60 PUSH0 PUSH0 PUSH1 0x1 PUSH0 DUP7 DUP2 MSTORE PUSH1 0x20 ADD SWAP1 DUP2 MSTORE PUSH1 0x20 ADD PUSH0 KECCAK256 PUSH1 0x40 MLOAD DUP1 PUSH1 0x80 ADD PUSH1 0x40 MSTORE SWAP1 DUP2 PUSH0 DUP3 ADD SLOAD DUP2 MSTORE PUSH1 0x20 ADD PUSH1 0x1 DUP3 ADD DUP1 SLOAD PUSH2 0x161E SWAP1 PUSH2 0x1E4A JUMP JUMPDEST DUP1 PUSH1 0x1F ADD PUSH1 0x20 DUP1 SWAP2 DIV MUL PUSH1 0x20 ADD PUSH1 0x40 MLOAD SWAP1 DUP2 ADD PUSH1 0x40 MSTORE DUP1 SWAP3 SWAP2 SWAP1 DUP2 DUP2 MSTORE PUSH1 0x20 ADD DUP3 DUP1 SLOAD PUSH2 0x164A SWAP1 PUSH2 0x1E4A JUMP JUMPDEST DUP1 ISZERO PUSH2 0x1695 JUMPI DUP1 PUSH1 0x1F LT PUSH2 0x166C JUMPI PUSH2 0x100 DUP1 DUP4 SLOAD DIV MUL DUP4 MSTORE SWAP2 PUSH1 0x20 ADD SWAP2 PUSH2 0x1695 JUMP JUMPDEST DUP3 ADD SWAP2 SWAP1 PUSH0 MSTORE PUSH1 0x20 PUSH0 KECCAK256 SWAP1 JUMPDEST DUP2 SLOAD DUP2 MSTORE SWAP1 PUSH1 0x1 ADD SWAP1 PUSH1 0x20 ADD DUP1 DUP4 GT PUSH2 0x1678 JUMPI DUP3 SWAP1 SUB PUSH1 0x1F AND DUP3 ADD SWAP2 JUMPDEST POP POP POP POP POP DUP2 MSTORE PUSH1 0x20 ADD PUSH1 0x2 DUP3 ADD DUP1 SLOAD PUSH2 0x16AE SWAP1 PUSH2 0x1E4A JUMP JUMPDEST DUP1 PUSH1 0x1F ADD PUSH1 0x20 DUP1 SWAP2 DIV MUL PUSH1 0x20 ADD PUSH1 0x40 MLOAD SWAP1 DUP2 ADD PUSH1 0x40 MSTORE DUP1 SWAP3 SWAP2 SWAP1 DUP2 DUP2 MSTORE PUSH1 0x20 ADD DUP3 DUP1 SLOAD PUSH2 0x16DA SWAP1 PUSH2 0x1E4A JUMP JUMPDEST DUP1 ISZERO PUSH2 0x1725 JUMPI DUP1 PUSH1 0x1F LT PUSH2 0x16FC JUMPI PUSH2 0x100 DUP1 DUP4 SLOAD DIV MUL DUP4 MSTORE SWAP2 PUSH1 0x20 ADD SWAP2 PUSH2 0x1725 JUMP JUMPDEST DUP3 ADD SWAP2 SWAP1 PUSH0 MSTORE PUSH1 0x20 PUSH0 KECCAK256 SWAP1 JUMPDEST DUP2 SLOAD DUP2 MSTORE SWAP1 PUSH1 0x1 ADD SWAP1 PUSH1 0x20 ADD DUP1 DUP4 GT PUSH2 0x1708 JUMPI DUP3 SWAP1 SUB PUSH1 0x1F AND DUP3 ADD SWAP2 JUMPDEST POP POP POP POP POP DUP2 MSTORE PUSH1 0x20 ADD PUSH1 0x3 DUP3 ADD SLOAD DUP2 MSTORE POP POP SWAP1 POP DUP1 PUSH0 ADD MLOAD DUP2 PUSH1 0x20 ADD MLOAD DUP3 PUSH1 0x60 ADD MLOAD SWAP4 POP SWAP4 POP SWAP4 POP POP SWAP2 SWAP4 SWAP1 SWAP3 POP JUMP JUMPDEST PUSH0 PUSH1 0x40 MLOAD SWAP1 POP SWAP1 JUMP JUMPDEST PUSH0 PUSH0 REVERT JUMPDEST PUSH0 PUSH0 REVERT JUMPDEST PUSH0 PUSH0 REVERT JUMPDEST PUSH0 PUSH0 REVERT JUMPDEST PUSH0 PUSH1 0x1F NOT PUSH1 0x1F DUP4 ADD AND SWAP1 POP SWAP2 SWAP1 POP JUMP JUMPDEST PUSH32 0x4E487B7100000000000000000000000000000000000000000000000000000000 PUSH0 MSTORE PUSH1 0x41 PUSH1 0x4 MSTORE PUSH1 0x24 PUSH0 REVERT JUMPDEST PUSH2 0x17B5 DUP3 PUSH2 0x176F JUMP JUMPDEST DUP2 ADD DUP2 DUP2 LT PUSH8 0xFFFFFFFFFFFFFFFF DUP3 GT OR ISZERO PUSH2 0x17D4 JUMPI PUSH2 0x17D3 PUSH2 0x177F JUMP JUMPDEST JUMPDEST DUP1 PUSH1 0x40 MSTORE POP POP POP JUMP JUMPDEST PUSH0 PUSH2 0x17E6 PUSH2 0x1756 JUMP JUMPDEST SWAP1 POP PUSH2 0x17F2 DUP3 DUP3 PUSH2 0x17AC JUMP JUMPDEST SWAP2 SWAP1 POP JUMP JUMPDEST PUSH0 PUSH8 0xFFFFFFFFFFFFFFFF DUP3 GT ISZERO PUSH2 0x1811 JUMPI PUSH2 0x1810 PUSH2 0x177F JUMP JUMPDEST JUMPDEST PUSH2 0x181A DUP3 PUSH2 0x176F JUMP JUMPDEST SWAP1 POP PUSH1 0x20 DUP2 ADD SWAP1 POP SWAP2 SWAP1 POP JUMP JUMPDEST DUP3 DUP2 DUP4 CALLDATACOPY PUSH0 DUP4 DUP4 ADD MSTORE POP POP POP JUMP JUMPDEST PUSH0 PUSH2 0x1847 PUSH2 0x1842 DUP5 PUSH2 0x17F7 JUMP JUMPDEST PUSH2 0x17DD JUMP JUMPDEST SWAP1 POP DUP3 DUP2 MSTORE PUSH1 0x20 DUP2 ADD DUP5 DUP5 DUP5 ADD GT ISZERO PUSH2 0x1863 JUMPI PUSH2 0x1862 PUSH2 0x176B JUMP JUMPDEST JUMPDEST PUSH2 0x186E DUP5 DUP3 DUP6 PUSH2 0x1827 JUMP JUMPDEST POP SWAP4 SWAP3 POP POP POP JUMP JUMPDEST PUSH0 DUP3 PUSH1 0x1F DUP4 ADD SLT PUSH2 0x188A JUMPI PUSH2 0x1889 PUSH2 0x1767 JUMP JUMPDEST JUMPDEST DUP2 CALLDATALOAD PUSH2 0x189A DUP5 DUP3 PUSH1 0x20 DUP7 ADD PUSH2 0x1835 JUMP JUMPDEST SWAP2 POP POP SWAP3 SWAP2 POP POP JUMP JUMPDEST PUSH0 PUSH0 PUSH1 0x40 DUP4 DUP6 SUB SLT ISZERO PUSH2 0x18B9 JUMPI PUSH2 0x18B8 PUSH2 0x175F JUMP JUMPDEST JUMPDEST PUSH0 DUP4 ADD CALLDATALOAD PUSH8 0xFFFFFFFFFFFFFFFF DUP2 GT ISZERO PUSH2 0x18D6 JUMPI PUSH2 0x18D5 PUSH2 0x1763 JUMP JUMPDEST JUMPDEST PUSH2 0x18E2 DUP6 DUP3 DUP7 ADD PUSH2 0x1876 JUMP JUMPDEST SWAP3 POP POP PUSH1 0x20 DUP4 ADD CALLDATALOAD PUSH8 0xFFFFFFFFFFFFFFFF DUP2 GT ISZERO PUSH2 0x1903 JUMPI PUSH2 0x1902 PUSH2 0x1763 JUMP JUMPDEST JUMPDEST PUSH2 0x190F DUP6 DUP3 DUP7 ADD PUSH2 0x1876 JUMP JUMPDEST SWAP2 POP POP SWAP3 POP SWAP3 SWAP1 POP JUMP JUMPDEST PUSH0 DUP2 SWAP1 POP SWAP2 SWAP1 POP JUMP JUMPDEST PUSH2 0x192B DUP2 PUSH2 0x1919 JUMP JUMPDEST DUP2 EQ PUSH2 0x1935 JUMPI PUSH0 PUSH0 REVERT JUMPDEST POP JUMP JUMPDEST PUSH0 DUP2 CALLDATALOAD SWAP1 POP PUSH2 0x1946 DUP2 PUSH2 0x1922 JUMP JUMPDEST SWAP3 SWAP2 POP POP JUMP JUMPDEST PUSH0 PUSH1 0x20 DUP3 DUP5 SUB SLT ISZERO PUSH2 0x1961 JUMPI PUSH2 0x1960 PUSH2 0x175F JUMP JUMPDEST JUMPDEST PUSH0 PUSH2 0x196E DUP5 DUP3 DUP6 ADD PUSH2 0x1938 JUMP JUMPDEST SWAP2 POP POP SWAP3 SWAP2 POP POP JUMP JUMPDEST PUSH2 0x1980 DUP2 PUSH2 0x1919 JUMP JUMPDEST DUP3 MSTORE POP POP JUMP JUMPDEST PUSH0 DUP2 MLOAD SWAP1 POP SWAP2 SWAP1 POP JUMP JUMPDEST PUSH0 DUP3 DUP3 MSTORE PUSH1 0x20 DUP3 ADD SWAP1 POP SWAP3 SWAP2 POP POP JUMP JUMPDEST DUP3 DUP2 DUP4 MCOPY PUSH0 DUP4 DUP4 ADD MSTORE POP POP POP JUMP JUMPDEST PUSH0 PUSH2 0x19B8 DUP3 PUSH2 0x1986 JUMP JUMPDEST PUSH2 0x19C2 DUP2 DUP6 PUSH2 0x1990 JUMP JUMPDEST SWAP4 POP PUSH2 0x19D2 DUP2 DUP6 PUSH1 0x20 DUP7 ADD PUSH2 0x19A0 JUMP JUMPDEST PUSH2 0x19DB DUP2 PUSH2 0x176F JUMP JUMPDEST DUP5 ADD SWAP2 POP POP SWAP3 SWAP2 POP POP JUMP JUMPDEST PUSH0 PUSH1 0x80 DUP3 ADD SWAP1 POP PUSH2 0x19F9 PUSH0 DUP4 ADD DUP8 PUSH2 0x1977 JUMP JUMPDEST DUP2 DUP2 SUB PUSH1 0x20 DUP4 ADD MSTORE PUSH2 0x1A0B DUP2 DUP7 PUSH2 0x19AE JUMP JUMPDEST SWAP1 POP DUP2 DUP2 SUB PUSH1 0x40 DUP4 ADD MSTORE PUSH2 0x1A1F DUP2 DUP6 PUSH2 0x19AE JUMP JUMPDEST SWAP1 POP PUSH2 0x1A2E PUSH1 0x60 DUP4 ADD DUP5 PUSH2 0x1977 JUMP JUMPDEST SWAP6 SWAP5 POP POP POP POP POP JUMP JUMPDEST PUSH0 PUSH1 0x60 DUP3 ADD SWAP1 POP PUSH2 0x1A4A PUSH0 DUP4 ADD DUP7 PUSH2 0x1977 JUMP JUMPDEST DUP2 DUP2 SUB PUSH1 0x20 DUP4 ADD MSTORE PUSH2 0x1A5C DUP2 DUP6 PUSH2 0x19AE JUMP JUMPDEST SWAP1 POP DUP2 DUP2 SUB PUSH1 0x40 DUP4 ADD MSTORE PUSH2 0x1A70 DUP2 DUP5 PUSH2 0x19AE JUMP JUMPDEST SWAP1 POP SWAP5 SWAP4 POP POP POP POP JUMP JUMPDEST PUSH0 PUSH1 0x60 DUP3 ADD SWAP1 POP DUP2 DUP2 SUB PUSH0 DUP4 ADD MSTORE PUSH2 0x1A92 DUP2 DUP7 PUSH2 0x19AE JUMP JUMPDEST SWAP1 POP PUSH2 0x1AA1 PUSH1 0x20 DUP4 ADD DUP6 PUSH2 0x1977 JUMP JUMPDEST PUSH2 0x1AAE PUSH1 0x40 DUP4 ADD DUP5 PUSH2 0x1977 JUMP JUMPDEST SWAP5 SWAP4 POP POP POP POP JUMP JUMPDEST PUSH0 DUP2 ISZERO ISZERO SWAP1 POP SWAP2 SWAP1 POP JUMP JUMPDEST PUSH2 0x1ACA DUP2 PUSH2 0x1AB6 JUMP JUMPDEST DUP3 MSTORE POP POP JUMP JUMPDEST PUSH0 PUSH1 0x20 DUP3 ADD SWAP1 POP PUSH2 0x1AE3 PUSH0 DUP4 ADD DUP5 PUSH2 0x1AC1 JUMP JUMPDEST SWAP3 SWAP2 POP POP JUMP JUMPDEST PUSH0 PUSH20 0xFFFFFFFFFFFFFFFFFFFFFFFFFFFFFFFFFFFFFFFF DUP3 AND SWAP1 POP SWAP2 SWAP1 POP JUMP JUMPDEST PUSH0 PUSH2 0x1B12 DUP3 PUSH2 0x1AE9 JUMP JUMPDEST SWAP1 POP SWAP2 SWAP1 POP JUMP JUMPDEST PUSH2 0x1B22 DUP2 PUSH2 0x1B08 JUMP JUMPDEST DUP2 EQ PUSH2 0x1B2C JUMPI PUSH0 PUSH0 REVERT JUMPDEST POP JUMP JUMPDEST PUSH0 DUP2 CALLDATALOAD SWAP1 POP PUSH2 0x1B3D DUP2 PUSH2 0x1B19 JUMP JUMPDEST SWAP3 SWAP2 POP POP JUMP JUMPDEST PUSH0 PUSH1 0x20 DUP3 DUP5 SUB SLT ISZERO PUSH2 0x1B58 JUMPI PUSH2 0x1B57 PUSH2 0x175F JUMP JUMPDEST JUMPDEST PUSH0 PUSH2 0x1B65 DUP5 DUP3 DUP6 ADD PUSH2 0x1B2F JUMP JUMPDEST SWAP2 POP POP SWAP3 SWAP2 POP POP JUMP JUMPDEST PUSH2 0x1B77 DUP2 PUSH2 0x1B08 JUMP JUMPDEST DUP3 MSTORE POP POP JUMP JUMPDEST PUSH0 PUSH1 0xA0 DUP3 ADD SWAP1 POP PUSH2 0x1B90 PUSH0 DUP4 ADD DUP9 PUSH2 0x1AC1 JUMP JUMPDEST PUSH2 0x1B9D PUSH1 0x20 DUP4 ADD DUP8 PUSH2 0x1AC1 JUMP JUMPDEST PUSH2 0x1BAA PUSH1 0x40 DUP4 ADD DUP7 PUSH2 0x1977 JUMP JUMPDEST PUSH2 0x1BB7 PUSH1 0x60 DUP4 ADD DUP6 PUSH2 0x1B6E JUMP JUMPDEST PUSH2 0x1BC4 PUSH1 0x80 DUP4 ADD DUP5 PUSH2 0x1AC1 JUMP JUMPDEST SWAP7 SWAP6 POP POP POP POP POP POP JUMP JUMPDEST PUSH0 PUSH1 0x20 DUP3 ADD SWAP1 POP PUSH2 0x1BE1 PUSH0 DUP4 ADD DUP5 PUSH2 0x1977 JUMP JUMPDEST SWAP3 SWAP2 POP POP JUMP JUMPDEST PUSH0 PUSH1 0xA0 DUP3 ADD SWAP1 POP PUSH2 0x1BFA PUSH0 DUP4 ADD DUP9 PUSH2 0x1AC1 JUMP JUMPDEST PUSH2 0x1C07 PUSH1 0x20 DUP4 ADD DUP8 PUSH2 0x1AC1 JUMP JUMPDEST PUSH2 0x1C14 PUSH1 0x40 DUP4 ADD DUP7 PUSH2 0x1977 JUMP JUMPDEST PUSH2 0x1C21 PUSH1 0x60 DUP4 ADD DUP6 PUSH2 0x1AC1 JUMP JUMPDEST PUSH2 0x1C2E PUSH1 0x80 DUP4 ADD DUP5 PUSH2 0x1B6E JUMP JUMPDEST SWAP7 SWAP6 POP POP POP POP POP POP JUMP JUMPDEST PUSH0 PUSH1 0x20 DUP3 ADD SWAP1 POP PUSH2 0x1C4B PUSH0 DUP4 ADD DUP5 PUSH2 0x1B6E JUMP JUMPDEST SWAP3 SWAP2 POP POP JUMP JUMPDEST PUSH0 PUSH1 0x60 DUP3 ADD SWAP1 POP PUSH2 0x1C64 PUSH0 DUP4 ADD DUP7 PUSH2 0x1977 JUMP JUMPDEST DUP2 DUP2 SUB PUSH1 0x20 DUP4 ADD MSTORE PUSH2 0x1C76 DUP2 DUP6 PUSH2 0x19AE JUMP JUMPDEST SWAP1 POP PUSH2 0x1C85 PUSH1 0x40 DUP4 ADD DUP5 PUSH2 0x1977 JUMP JUMPDEST SWAP5 SWAP4 POP POP POP POP JUMP JUMPDEST PUSH32 0x4F6E6C792061646D696E2063616E20706572666F726D20746869732061637469 PUSH0 DUP3 ADD MSTORE PUSH32 0x6F6E000000000000000000000000000000000000000000000000000000000000 PUSH1 0x20 DUP3 ADD MSTORE POP JUMP JUMPDEST PUSH0 PUSH2 0x1CE7 PUSH1 0x22 DUP4 PUSH2 0x1990 JUMP JUMPDEST SWAP2 POP PUSH2 0x1CF2 DUP3 PUSH2 0x1C8D JUMP JUMPDEST PUSH1 0x40 DUP3 ADD SWAP1 POP SWAP2 SWAP1 POP JUMP JUMPDEST PUSH0 PUSH1 0x20 DUP3 ADD SWAP1 POP DUP2 DUP2 SUB PUSH0 DUP4 ADD MSTORE PUSH2 0x1D14 DUP2 PUSH2 0x1CDB JUMP JUMPDEST SWAP1 POP SWAP2 SWAP1 POP JUMP JUMPDEST PUSH32 0x43616E6E6F74206164642063616E6469646174657320647572696E6720616E20 PUSH0 DUP3 ADD MSTORE PUSH32 0x656C656374696F6E000000000000000000000000000000000000000000000000 PUSH1 0x20 DUP3 ADD MSTORE POP JUMP JUMPDEST PUSH0 PUSH2 0x1D75 PUSH1 0x28 DUP4 PUSH2 0x1990 JUMP JUMPDEST SWAP2 POP PUSH2 0x1D80 DUP3 PUSH2 0x1D1B JUMP JUMPDEST PUSH1 0x40 DUP3 ADD SWAP1 POP SWAP2 SWAP1 POP JUMP JUMPDEST PUSH0 PUSH1 0x20 DUP3 ADD SWAP1 POP DUP2 DUP2 SUB PUSH0 DUP4 ADD MSTORE PUSH2 0x1DA2 DUP2 PUSH2 0x1D69 JUMP JUMPDEST SWAP1 POP SWAP2 SWAP1 POP JUMP JUMPDEST PUSH32 0x4E487B7100000000000000000000000000000000000000000000000000000000 PUSH0 MSTORE PUSH1 0x11 PUSH1 0x4 MSTORE PUSH1 0x24 PUSH0 REVERT JUMPDEST PUSH0 PUSH2 0x1DE0 DUP3 PUSH2 0x1919 JUMP JUMPDEST SWAP2 POP PUSH32 0xFFFFFFFFFFFFFFFFFFFFFFFFFFFFFFFFFFFFFFFFFFFFFFFFFFFFFFFFFFFFFFFF DUP3 SUB PUSH2 0x1E12 JUMPI PUSH2 0x1E11 PUSH2 0x1DA9 JUMP JUMPDEST JUMPDEST PUSH1 0x1 DUP3 ADD SWAP1 POP SWAP2 SWAP1 POP JUMP JUMPDEST PUSH32 0x4E487B7100000000000000000000000000000000000000000000000000000000 PUSH0 MSTORE PUSH1 0x22 PUSH1 0x4 MSTORE PUSH1 0x24 PUSH0 REVERT JUMPDEST PUSH0 PUSH1 0x2 DUP3 DIV SWAP1 POP PUSH1 0x1 DUP3 AND DUP1 PUSH2 0x1E61 JUMPI PUSH1 0x7F DUP3 AND SWAP2 POP JUMPDEST PUSH1 0x20 DUP3 LT DUP2 SUB PUSH2 0x1E74 JUMPI PUSH2 0x1E73 PUSH2 0x1E1D JUMP JUMPDEST JUMPDEST POP SWAP2 SWAP1 POP JUMP JUMPDEST PUSH0 DUP2 SWAP1 POP DUP2 PUSH0 MSTORE PUSH1 0x20 PUSH0 KECCAK256 SWAP1 POP SWAP2 SWAP1 POP JUMP JUMPDEST PUSH0 PUSH1 0x20 PUSH1 0x1F DUP4 ADD DIV SWAP1 POP SWAP2 SWAP1 POP JUMP JUMPDEST PUSH0 DUP3 DUP3 SHL SWAP1 POP SWAP3 SWAP2 POP POP JUMP JUMPDEST PUSH0 PUSH1 0x8 DUP4 MUL PUSH2 0x1ED6 PUSH32 0xFFFFFFFFFFFFFFFFFFFFFFFFFFFFFFFFFFFFFFFFFFFFFFFFFFFFFFFFFFFFFFFF DUP3 PUSH2 0x1E9B JUMP JUMPDEST PUSH2 0x1EE0 DUP7 DUP4 PUSH2 0x1E9B JUMP JUMPDEST SWAP6 POP DUP1 NOT DUP5 AND SWAP4 POP DUP1 DUP7 AND DUP5 OR SWAP3 POP POP POP SWAP4 SWAP3 POP POP POP JUMP JUMPDEST PUSH0 DUP2 SWAP1 POP SWAP2 SWAP1 POP JUMP JUMPDEST PUSH0 PUSH2 0x1F1B PUSH2 0x1F16 PUSH2 0x1F11 DUP5 PUSH2 0x1919 JUMP JUMPDEST PUSH2 0x1EF8 JUMP JUMPDEST PUSH2 0x1919 JUMP JUMPDEST SWAP1 POP SWAP2 SWAP1 POP JUMP JUMPDEST PUSH0 DUP2 SWAP1 POP SWAP2 SWAP1 POP JUMP JUMPDEST PUSH2 0x1F34 DUP4 PUSH2 0x1F01 JUMP JUMPDEST PUSH2 0x1F48 PUSH2 0x1F40 DUP3 PUSH2 0x1F22 JUMP JUMPDEST DUP5 DUP5 SLOAD PUSH2 0x1EA7 JUMP JUMPDEST DUP3 SSTORE POP POP POP POP JUMP JUMPDEST PUSH0 PUSH0 SWAP1 POP SWAP1 JUMP JUMPDEST PUSH2 0x1F5F PUSH2 0x1F50 JUMP JUMPDEST PUSH2 0x1F6A DUP2 DUP5 DUP5 PUSH2 0x1F2B JUMP JUMPDEST POP POP POP JUMP JUMPDEST JUMPDEST DUP2 DUP2 LT ISZERO PUSH2 0x1F8D JUMPI PUSH2 0x1F82 PUSH0 DUP3 PUSH2 0x1F57 JUMP JUMPDEST PUSH1 0x1 DUP2 ADD SWAP1 POP PUSH2 0x1F70 JUMP JUMPDEST POP POP JUMP JUMPDEST PUSH1 0x1F DUP3 GT ISZERO PUSH2 0x1FD2 JUMPI PUSH2 0x1FA3 DUP2 PUSH2 0x1E7A JUMP JUMPDEST PUSH2 0x1FAC DUP5 PUSH2 0x1E8C JUMP JUMPDEST DUP2 ADD PUSH1 0x20 DUP6 LT ISZERO PUSH2 0x1FBB JUMPI DUP2 SWAP1 POP JUMPDEST PUSH2 0x1FCF PUSH2 0x1FC7 DUP6 PUSH2 0x1E8C JUMP JUMPDEST DUP4 ADD DUP3 PUSH2 0x1F6F JUMP JUMPDEST POP POP JUMPDEST POP POP POP JUMP JUMPDEST PUSH0 DUP3 DUP3 SHR SWAP1 POP SWAP3 SWAP2 POP POP JUMP JUMPDEST PUSH0 PUSH2 0x1FF2 PUSH0 NOT DUP5 PUSH1 0x8 MUL PUSH2 0x1FD7 JUMP JUMPDEST NOT DUP1 DUP4 AND SWAP2 POP POP SWAP3 SWAP2 POP POP JUMP JUMPDEST PUSH0 PUSH2 0x200A DUP4 DUP4 PUSH2 0x1FE3 JUMP JUMPDEST SWAP2 POP DUP3 PUSH1 0x2 MUL DUP3 OR SWAP1 POP SWAP3 SWAP2 POP POP JUMP JUMPDEST PUSH2 0x2023 DUP3 PUSH2 0x1986 JUMP JUMPDEST PUSH8 0xFFFFFFFFFFFFFFFF DUP2 GT ISZERO PUSH2 0x203C JUMPI PUSH2 0x203B PUSH2 0x177F JUMP JUMPDEST JUMPDEST PUSH2 0x2046 DUP3 SLOAD PUSH2 0x1E4A JUMP JUMPDEST PUSH2 0x2051 DUP3 DUP3 DUP6 PUSH2 0x1F91 JUMP JUMPDEST PUSH0 PUSH1 0x20 SWAP1 POP PUSH1 0x1F DUP4 GT PUSH1 0x1 DUP2 EQ PUSH2 0x2082 JUMPI PUSH0 DUP5 ISZERO PUSH2 0x2070 JUMPI DUP3 DUP8 ADD MLOAD SWAP1 POP JUMPDEST PUSH2 0x207A DUP6 DUP3 PUSH2 0x1FFF JUMP JUMPDEST DUP7 SSTORE POP PUSH2 0x20E1 JUMP JUMPDEST PUSH1 0x1F NOT DUP5 AND PUSH2 0x2090 DUP7 PUSH2 0x1E7A JUMP JUMPDEST PUSH0 JUMPDEST DUP3 DUP2 LT ISZERO PUSH2 0x20B7 JUMPI DUP5 DUP10 ADD MLOAD DUP3 SSTORE PUSH1 0x1 DUP3 ADD SWAP2 POP PUSH1 0x20 DUP6 ADD SWAP5 POP PUSH1 0x20 DUP2 ADD SWAP1 POP PUSH2 0x2092 JUMP JUMPDEST DUP7 DUP4 LT ISZERO PUSH2 0x20D4 JUMPI DUP5 DUP10 ADD MLOAD PUSH2 0x20D0 PUSH1 0x1F DUP10 AND DUP3 PUSH2 0x1FE3 JUMP JUMPDEST DUP4 SSTORE POP JUMPDEST PUSH1 0x1 PUSH1 0x2 DUP9 MUL ADD DUP9 SSTORE POP POP POP JUMPDEST POP POP POP POP POP POP JUMP JUMPDEST PUSH32 0x456C656374696F6E206973206E6F74206F6E676F696E67000000000000000000 PUSH0 DUP3 ADD MSTORE POP JUMP JUMPDEST PUSH0 PUSH2 0x211D PUSH1 0x17 DUP4 PUSH2 0x1990 JUMP JUMPDEST SWAP2 POP PUSH2 0x2128 DUP3 PUSH2 0x20E9 JUMP JUMPDEST PUSH1 0x20 DUP3 ADD SWAP1 POP SWAP2 SWAP1 POP JUMP JUMPDEST PUSH0 PUSH1 0x20 DUP3 ADD SWAP1 POP DUP2 DUP2 SUB PUSH0 DUP4 ADD MSTORE PUSH2 0x214A DUP2 PUSH2 0x2111 JUMP JUMPDEST SWAP1 POP SWAP2 SWAP1 POP JUMP JUMPDEST PUSH32 0x456C656374696F6E20616C726561647920737461727465640000000000000000 PUSH0 DUP3 ADD MSTORE POP JUMP JUMPDEST PUSH0 PUSH2 0x2185 PUSH1 0x18 DUP4 PUSH2 0x1990 JUMP JUMPDEST SWAP2 POP PUSH2 0x2190 DUP3 PUSH2 0x2151 JUMP JUMPDEST PUSH1 0x20 DUP3 ADD SWAP1 POP SWAP2 SWAP1 POP JUMP JUMPDEST PUSH0 PUSH1 0x20 DUP3 ADD SWAP1 POP DUP2 DUP2 SUB PUSH0 DUP4 ADD MSTORE PUSH2 0x21B2 DUP2 PUSH2 0x2179 JUMP JUMPDEST SWAP1 POP SWAP2 SWAP1 POP JUMP JUMPDEST PUSH32 0x456C656374696F6E206973206F6E676F696E6700000000000000000000000000 PUSH0 DUP3 ADD MSTORE POP JUMP JUMPDEST PUSH0 PUSH2 0x21ED PUSH1 0x13 DUP4 PUSH2 0x1990 JUMP JUMPDEST SWAP2 POP PUSH2 0x21F8 DUP3 PUSH2 0x21B9 JUMP JUMPDEST PUSH1 0x20 DUP3 ADD SWAP1 POP SWAP2 SWAP1 POP JUMP JUMPDEST PUSH0 PUSH1 0x20 DUP3 ADD SWAP1 POP DUP2 DUP2 SUB PUSH0 DUP4 ADD MSTORE PUSH2 0x221A DUP2 PUSH2 0x21E1 JUMP JUMPDEST SWAP1 POP SWAP2 SWAP1 POP JUMP JUMPDEST PUSH32 0x596F75206861766520616C726561647920766F74656400000000000000000000 PUSH0 DUP3 ADD MSTORE POP JUMP JUMPDEST PUSH0 PUSH2 0x2255 PUSH1 0x16 DUP4 PUSH2 0x1990 JUMP JUMPDEST SWAP2 POP PUSH2 0x2260 DUP3 PUSH2 0x2221 JUMP JUMPDEST PUSH1 0x20 DUP3 ADD SWAP1 POP SWAP2 SWAP1 POP JUMP JUMPDEST PUSH0 PUSH1 0x20 DUP3 ADD SWAP1 POP DUP2 DUP2 SUB PUSH0 DUP4 ADD MSTORE PUSH2 0x2282 DUP2 PUSH2 0x2249 JUMP JUMPDEST SWAP1 POP SWAP2 SWAP1 POP JUMP JUMPDEST PUSH32 0x44656C65676174652061646472657373206973206E6F74206120726567697374 PUSH0 DUP3 ADD MSTORE PUSH32 0x6572656420766F74657200000000000000000000000000000000000000000000 PUSH1 0x20 DUP3 ADD MSTORE POP JUMP JUMPDEST PUSH0 PUSH2 0x22E3 PUSH1 0x2A DUP4 PUSH2 0x1990 JUMP JUMPDEST SWAP2 POP PUSH2 0x22EE DUP3 PUSH2 0x2289 JUMP JUMPDEST PUSH1 0x40 DUP3 ADD SWAP1 POP SWAP2 SWAP1 POP JUMP JUMPDEST PUSH0 PUSH1 0x20 DUP3 ADD SWAP1 POP DUP2 DUP2 SUB PUSH0 DUP4 ADD MSTORE PUSH2 0x2310 DUP2 PUSH2 0x22D7 JUMP JUMPDEST SWAP1 POP SWAP2 SWAP1 POP JUMP JUMPDEST PUSH0 PUSH1 0x40 DUP3 ADD SWAP1 POP PUSH2 0x232A PUSH0 DUP4 ADD DUP6 PUSH2 0x1B6E JUMP JUMPDEST PUSH2 0x2337 PUSH1 0x20 DUP4 ADD DUP5 PUSH2 0x1B6E JUMP JUMPDEST SWAP4 SWAP3 POP POP POP JUMP JUMPDEST PUSH32 0x43616E64696461746520646F6573206E6F742065786973740000000000000000 PUSH0 DUP3 ADD MSTORE POP JUMP JUMPDEST PUSH0 PUSH2 0x2372 PUSH1 0x18 DUP4 PUSH2 0x1990 JUMP JUMPDEST SWAP2 POP PUSH2 0x237D DUP3 PUSH2 0x233E JUMP JUMPDEST PUSH1 0x20 DUP3 ADD SWAP1 POP SWAP2 SWAP1 POP JUMP JUMPDEST PUSH0 PUSH1 0x20 DUP3 ADD SWAP1 POP DUP2 DUP2 SUB PUSH0 DUP4 ADD MSTORE PUSH2 0x239F DUP2 PUSH2 0x2366 JUMP JUMPDEST SWAP1 POP SWAP2 SWAP1 POP JUMP JUMPDEST PUSH32 0x44656C65676174656520686173206E6F7420766F746564207965740000000000 PUSH0 DUP3 ADD MSTORE POP JUMP JUMPDEST PUSH0 PUSH2 0x23DA PUSH1 0x1B DUP4 PUSH2 0x1990 JUMP JUMPDEST SWAP2 POP PUSH2 0x23E5 DUP3 PUSH2 0x23A6 JUMP JUMPDEST PUSH1 0x20 DUP3 ADD SWAP1 POP SWAP2 SWAP1 POP JUMP JUMPDEST PUSH0 PUSH1 0x20 DUP3 ADD SWAP1 POP DUP2 DUP2 SUB PUSH0 DUP4 ADD MSTORE PUSH2 0x2407 DUP2 PUSH2 0x23CE JUMP JUMPDEST SWAP1 POP SWAP2 SWAP1 POP JUMP JUMPDEST PUSH0 PUSH1 0x40 DUP3 ADD SWAP1 POP PUSH2 0x2421 PUSH0 DUP4 ADD DUP6 PUSH2 0x1B6E JUMP JUMPDEST PUSH2 0x242E PUSH1 0x20 DUP4 ADD DUP5 PUSH2 0x1977 JUMP JUMPDEST SWAP4 SWAP3 POP POP POP JUMP JUMPDEST PUSH32 0x43616E6E6F742061646420766F7465727320647572696E6720616E20656C6563 PUSH0 DUP3 ADD MSTORE PUSH32 0x74696F6E00000000000000000000000000000000000000000000000000000000 PUSH1 0x20 DUP3 ADD MSTORE POP JUMP JUMPDEST PUSH0 PUSH2 0x248F PUSH1 0x24 DUP4 PUSH2 0x1990 JUMP JUMPDEST SWAP2 POP PUSH2 0x249A DUP3 PUSH2 0x2435 JUMP JUMPDEST PUSH1 0x40 DUP3 ADD SWAP1 POP SWAP2 SWAP1 POP JUMP JUMPDEST PUSH0 PUSH1 0x20 DUP3 ADD SWAP1 POP DUP2 DUP2 SUB PUSH0 DUP4 ADD MSTORE PUSH2 0x24BC DUP2 PUSH2 0x2483 JUMP JUMPDEST SWAP1 POP SWAP2 SWAP1 POP JUMP JUMPDEST PUSH32 0x566F74657220616C726561647920726567697374657265640000000000000000 PUSH0 DUP3 ADD MSTORE POP JUMP JUMPDEST PUSH0 PUSH2 0x24F7 PUSH1 0x18 DUP4 PUSH2 0x1990 JUMP JUMPDEST SWAP2 POP PUSH2 0x2502 DUP3 PUSH2 0x24C3 JUMP JUMPDEST PUSH1 0x20 DUP3 ADD SWAP1 POP SWAP2 SWAP1 POP JUMP JUMPDEST PUSH0 PUSH1 0x20 DUP3 ADD SWAP1 POP DUP2 DUP2 SUB PUSH0 DUP4 ADD MSTORE PUSH2 0x2524 DUP2 PUSH2 0x24EB JUMP JUMPDEST SWAP1 POP SWAP2 SWAP1 POP JUMP INVALID LOG2 PUSH5 0x6970667358 0x22 SLT KECCAK256 0xCB POP PUSH32 0xC9CA2E8896BAE381E49910CB74853677CE5EC111F085B122AA2B8D04D564736F PUSH13 0x634300081C0033000000000000 "
				},
				"gasEstimates": {
					"creation": {
						"codeDepositCost": "1913800",
						"executionCost": "26288",
						"totalCost": "1940088"
					},
					"external": {
						"Vote(uint256)": "infinite",
						"addCandidate(string,string)": "infinite",
						"addVoter(address)": "infinite",
						"admin()": "2573",
						"candidateCount()": "2470",
						"candidates(uint256)": "infinite",
						"delegateVote(address)": "infinite",
						"electionOngoing()": "2605",
						"endElection()": "29628",
						"getCandidate(uint256)": "infinite",
						"getVoterProfile(address)": "infinite",
						"getVotes(uint256)": "infinite",
						"getWinner()": "infinite",
						"startElection()": "29654",
						"voters(address)": "infinite"
					}
				},
				"methodIdentifiers": {
					"Vote(uint256)": "dcd6a5cd",
					"addCandidate(string,string)": "26541b56",
					"addVoter(address)": "f4ab9adf",
					"admin()": "f851a440",
					"candidateCount()": "a9a981a3",
					"candidates(uint256)": "3477ee2e",
					"delegateVote(address)": "b31e1d4d",
					"electionOngoing()": "972b4192",
					"endElection()": "59f78468",
					"getCandidate(uint256)": "35b8e820",
					"getVoterProfile(address)": "d8a6f68f",
					"getVotes(uint256)": "ff981099",
					"getWinner()": "8e7ea5b2",
					"startElection()": "62d73eb8",
					"voters(address)": "a3ec138d"
				}
			},
			"storageLayout": {
				"storage": [
					{
						"astId": 3,
						"contract": "contracts/PRACTICE/Project_Voting.sol:Voting",
						"label": "admin",
						"offset": 0,
						"slot": "0",
						"type": "t_address"
					},
					{
						"astId": 5,
						"contract": "contracts/PRACTICE/Project_Voting.sol:Voting",
						"label": "electionOngoing",
						"offset": 20,
						"slot": "0",
						"type": "t_bool"
					},
					{
						"astId": 30,
						"contract": "contracts/PRACTICE/Project_Voting.sol:Voting",
						"label": "candidates",
						"offset": 0,
						"slot": "1",
						"type": "t_mapping(t_uint256,t_struct(Candidate)14_storage)"
					},
					{
						"astId": 35,
						"contract": "contracts/PRACTICE/Project_Voting.sol:Voting",
						"label": "voters",
						"offset": 0,
						"slot": "2",
						"type": "t_mapping(t_address,t_struct(Voter)25_storage)"
					},
					{
						"astId": 37,
						"contract": "contracts/PRACTICE/Project_Voting.sol:Voting",
						"label": "candidateCount",
						"offset": 0,
						"slot": "3",
						"type": "t_uint256"
					}
				],
				"types": {
					"t_address": {
						"encoding": "inplace",
						"label": "address",
						"numberOfBytes": "20"
					},
					"t_bool": {
						"encoding": "inplace",
						"label": "bool",
						"numberOfBytes": "1"
					},
					"t_mapping(t_address,t_struct(Voter)25_storage)": {
						"encoding": "mapping",
						"key": "t_address",
						"label": "mapping(address => struct Voting.Voter)",
						"numberOfBytes": "32",
						"value": "t_struct(Voter)25_storage"
					},
					"t_mapping(t_uint256,t_struct(Candidate)14_storage)": {
						"encoding": "mapping",
						"key": "t_uint256",
						"label": "mapping(uint256 => struct Voting.Candidate)",
						"numberOfBytes": "32",
						"value": "t_struct(Candidate)14_storage"
					},
					"t_string_storage": {
						"encoding": "bytes",
						"label": "string",
						"numberOfBytes": "32"
					},
					"t_struct(Candidate)14_storage": {
						"encoding": "inplace",
						"label": "struct Voting.Candidate",
						"members": [
							{
								"astId": 7,
								"contract": "contracts/PRACTICE/Project_Voting.sol:Voting",
								"label": "id",
								"offset": 0,
								"slot": "0",
								"type": "t_uint256"
							},
							{
								"astId": 9,
								"contract": "contracts/PRACTICE/Project_Voting.sol:Voting",
								"label": "name",
								"offset": 0,
								"slot": "1",
								"type": "t_string_storage"
							},
							{
								"astId": 11,
								"contract": "contracts/PRACTICE/Project_Voting.sol:Voting",
								"label": "proposal",
								"offset": 0,
								"slot": "2",
								"type": "t_string_storage"
							},
							{
								"astId": 13,
								"contract": "contracts/PRACTICE/Project_Voting.sol:Voting",
								"label": "voteCount",
								"offset": 0,
								"slot": "3",
								"type": "t_uint256"
							}
						],
						"numberOfBytes": "128"
					},
					"t_struct(Voter)25_storage": {
						"encoding": "inplace",
						"label": "struct Voting.Voter",
						"members": [
							{
								"astId": 16,
								"contract": "contracts/PRACTICE/Project_Voting.sol:Voting",
								"label": "registered",
								"offset": 0,
								"slot": "0",
								"type": "t_bool"
							},
							{
								"astId": 18,
								"contract": "contracts/PRACTICE/Project_Voting.sol:Voting",
								"label": "hasVoted",
								"offset": 1,
								"slot": "0",
								"type": "t_bool"
							},
							{
								"astId": 20,
								"contract": "contracts/PRACTICE/Project_Voting.sol:Voting",
								"label": "votedCandidateId",
								"offset": 0,
								"slot": "1",
								"type": "t_uint256"
							},
							{
								"astId": 22,
								"contract": "contracts/PRACTICE/Project_Voting.sol:Voting",
								"label": "delegateTo",
								"offset": 0,
								"slot": "2",
								"type": "t_address"
							},
							{
								"astId": 24,
								"contract": "contracts/PRACTICE/Project_Voting.sol:Voting",
								"label": "voteDelegated",
								"offset": 20,
								"slot": "2",
								"type": "t_bool"
							}
						],
						"numberOfBytes": "96"
					},
					"t_uint256": {
						"encoding": "inplace",
						"label": "uint256",
						"numberOfBytes": "32"
					}
				}
			},
			"userdoc": {
				"kind": "user",
				"methods": {},
				"version": 1
			}
		}
	}
}