{
	"contracts/PRACTICE/SimpleBank.sol": {
		"SimpleBank": {
			"abi": [
				{
					"inputs": [
						{
							"internalType": "address",
							"name": "",
							"type": "address"
						}
					],
					"name": "balances",
					"outputs": [
						{
							"internalType": "uint256",
							"name": "",
							"type": "uint256"
						}
					],
					"stateMutability": "view",
					"type": "function"
				},
				{
					"inputs": [],
					"name": "deposit",
					"outputs": [],
					"stateMutability": "payable",
					"type": "function"
				},
				{
					"inputs": [],
					"name": "getBalance",
					"outputs": [
						{
							"internalType": "uint256",
							"name": "",
							"type": "uint256"
						}
					],
					"stateMutability": "view",
					"type": "function"
				},
				{
					"inputs": [],
					"name": "getContractBalance",
					"outputs": [
						{
							"internalType": "uint256",
							"name": "",
							"type": "uint256"
						}
					],
					"stateMutability": "view",
					"type": "function"
				},
				{
					"inputs": [
						{
							"internalType": "address",
							"name": "user",
							"type": "address"
						}
					],
					"name": "getUserBalance",
					"outputs": [
						{
							"internalType": "uint256",
							"name": "",
							"type": "uint256"
						}
					],
					"stateMutability": "view",
					"type": "function"
				},
				{
					"inputs": [
						{
							"internalType": "uint256",
							"name": "amount",
							"type": "uint256"
						},
						{
							"internalType": "address payable",
							"name": "recipient",
							"type": "address"
						}
					],
					"name": "withdraw",
					"outputs": [],
					"stateMutability": "nonpayable",
					"type": "function"
				}
			],
			"devdoc": {
				"kind": "dev",
				"methods": {},
				"version": 1
			},
			"evm": {
				"assembly": "    /* \"contracts/PRACTICE/SimpleBank.sol\":60:1537  contract SimpleBank {... */\n  mstore(0x40, 0x80)\n  callvalue\n  dup1\n  iszero\n  tag_1\n  jumpi\n  revert(0x00, 0x00)\ntag_1:\n  pop\n  dataSize(sub_0)\n  dup1\n  dataOffset(sub_0)\n  0x00\n  codecopy\n  0x00\n  return\nstop\n\nsub_0: assembly {\n        /* \"contracts/PRACTICE/SimpleBank.sol\":60:1537  contract SimpleBank {... */\n      mstore(0x40, 0x80)\n      jumpi(tag_1, lt(calldatasize, 0x04))\n      shr(0xe0, calldataload(0x00))\n      dup1\n      0xf714ce\n      eq\n      tag_2\n      jumpi\n      dup1\n      0x12065fe0\n      eq\n      tag_3\n      jumpi\n      dup1\n      0x27e235e3\n      eq\n      tag_4\n      jumpi\n      dup1\n      0x47734892\n      eq\n      tag_5\n      jumpi\n      dup1\n      0x6f9fb98a\n      eq\n      tag_6\n      jumpi\n      dup1\n      0xd0e30db0\n      eq\n      tag_7\n      jumpi\n    tag_1:\n      revert(0x00, 0x00)\n        /* \"contracts/PRACTICE/SimpleBank.sol\":623:994  function withdraw(uint256 amount, address payable recipient) public {... */\n    tag_2:\n      callvalue\n      dup1\n      iszero\n      tag_8\n      jumpi\n      revert(0x00, 0x00)\n    tag_8:\n      pop\n      tag_9\n      0x04\n      dup1\n      calldatasize\n      sub\n      dup2\n      add\n      swap1\n      tag_10\n      swap2\n      swap1\n      tag_11\n      jump\t// in\n    tag_10:\n      tag_12\n      jump\t// in\n    tag_9:\n      stop\n        /* \"contracts/PRACTICE/SimpleBank.sol\":1271:1369  function getBalance() public view returns (uint256) {... */\n    tag_3:\n      callvalue\n      dup1\n      iszero\n      tag_13\n      jumpi\n      revert(0x00, 0x00)\n    tag_13:\n      pop\n      tag_14\n      tag_15\n      jump\t// in\n    tag_14:\n      mload(0x40)\n      tag_16\n      swap2\n      swap1\n      tag_17\n      jump\t// in\n    tag_16:\n      mload(0x40)\n      dup1\n      swap2\n      sub\n      swap1\n      return\n        /* \"contracts/PRACTICE/SimpleBank.sol\":140:183  mapping(address => uint256) public balances */\n    tag_4:\n      callvalue\n      dup1\n      iszero\n      tag_18\n      jumpi\n      revert(0x00, 0x00)\n    tag_18:\n      pop\n      tag_19\n      0x04\n      dup1\n      calldatasize\n      sub\n      dup2\n      add\n      swap1\n      tag_20\n      swap2\n      swap1\n      tag_21\n      jump\t// in\n    tag_20:\n      tag_22\n      jump\t// in\n    tag_19:\n      mload(0x40)\n      tag_23\n      swap2\n      swap1\n      tag_17\n      jump\t// in\n    tag_23:\n      mload(0x40)\n      dup1\n      swap2\n      sub\n      swap1\n      return\n        /* \"contracts/PRACTICE/SimpleBank.sol\":1426:1534  function getUserBalance(address user) public view returns (uint256) {... */\n    tag_5:\n      callvalue\n      dup1\n      iszero\n      tag_24\n      jumpi\n      revert(0x00, 0x00)\n    tag_24:\n      pop\n      tag_25\n      0x04\n      dup1\n      calldatasize\n      sub\n      dup2\n      add\n      swap1\n      tag_26\n      swap2\n      swap1\n      tag_21\n      jump\t// in\n    tag_26:\n      tag_27\n      jump\t// in\n    tag_25:\n      mload(0x40)\n      tag_28\n      swap2\n      swap1\n      tag_17\n      jump\t// in\n    tag_28:\n      mload(0x40)\n      dup1\n      swap2\n      sub\n      swap1\n      return\n        /* \"contracts/PRACTICE/SimpleBank.sol\":1051:1197  function getContractBalance() public view returns (uint256) {... */\n    tag_6:\n      callvalue\n      dup1\n      iszero\n      tag_29\n      jumpi\n      revert(0x00, 0x00)\n    tag_29:\n      pop\n      tag_30\n      tag_31\n      jump\t// in\n    tag_30:\n      mload(0x40)\n      tag_32\n      swap2\n      swap1\n      tag_17\n      jump\t// in\n    tag_32:\n      mload(0x40)\n      dup1\n      swap2\n      sub\n      swap1\n      return\n        /* \"contracts/PRACTICE/SimpleBank.sol\":247:525  function deposit() public payable {... */\n    tag_7:\n      tag_33\n      tag_34\n      jump\t// in\n    tag_33:\n      stop\n        /* \"contracts/PRACTICE/SimpleBank.sol\":623:994  function withdraw(uint256 amount, address payable recipient) public {... */\n    tag_12:\n        /* \"contracts/PRACTICE/SimpleBank.sol\":720:728  balances */\n      0x00\n        /* \"contracts/PRACTICE/SimpleBank.sol\":720:740  balances[msg.sender] */\n      0x00\n        /* \"contracts/PRACTICE/SimpleBank.sol\":729:739  msg.sender */\n      caller\n        /* \"contracts/PRACTICE/SimpleBank.sol\":720:740  balances[msg.sender] */\n      0xffffffffffffffffffffffffffffffffffffffff\n      and\n      0xffffffffffffffffffffffffffffffffffffffff\n      and\n      dup2\n      mstore\n      0x20\n      add\n      swap1\n      dup2\n      mstore\n      0x20\n      add\n      0x00\n      keccak256\n      sload\n        /* \"contracts/PRACTICE/SimpleBank.sol\":710:716  amount */\n      dup3\n        /* \"contracts/PRACTICE/SimpleBank.sol\":710:740  amount <= balances[msg.sender] */\n      gt\n      iszero\n        /* \"contracts/PRACTICE/SimpleBank.sol\":702:765  require(amount <= balances[msg.sender], \"Insufficient balance\") */\n      tag_36\n      jumpi\n      mload(0x40)\n      0x08c379a000000000000000000000000000000000000000000000000000000000\n      dup2\n      mstore\n      0x04\n      add\n      tag_37\n      swap1\n      tag_38\n      jump\t// in\n    tag_37:\n      mload(0x40)\n      dup1\n      swap2\n      sub\n      swap1\n      revert\n    tag_36:\n        /* \"contracts/PRACTICE/SimpleBank.sol\":852:858  amount */\n      dup2\n        /* \"contracts/PRACTICE/SimpleBank.sol\":828:836  balances */\n      0x00\n        /* \"contracts/PRACTICE/SimpleBank.sol\":828:848  balances[msg.sender] */\n      0x00\n        /* \"contracts/PRACTICE/SimpleBank.sol\":837:847  msg.sender */\n      caller\n        /* \"contracts/PRACTICE/SimpleBank.sol\":828:848  balances[msg.sender] */\n      0xffffffffffffffffffffffffffffffffffffffff\n      and\n      0xffffffffffffffffffffffffffffffffffffffff\n      and\n      dup2\n      mstore\n      0x20\n      add\n      swap1\n      dup2\n      mstore\n      0x20\n      add\n      0x00\n      keccak256\n      0x00\n        /* \"contracts/PRACTICE/SimpleBank.sol\":828:858  balances[msg.sender] -= amount */\n      dup3\n      dup3\n      sload\n      tag_39\n      swap2\n      swap1\n      tag_40\n      jump\t// in\n    tag_39:\n      swap3\n      pop\n      pop\n      dup2\n      swap1\n      sstore\n      pop\n        /* \"contracts/PRACTICE/SimpleBank.sol\":960:969  recipient */\n      dup1\n        /* \"contracts/PRACTICE/SimpleBank.sol\":960:978  recipient.transfer */\n      0xffffffffffffffffffffffffffffffffffffffff\n      and\n        /* \"contracts/PRACTICE/SimpleBank.sol\":960:986  recipient.transfer(amount) */\n      0x08fc\n        /* \"contracts/PRACTICE/SimpleBank.sol\":979:985  amount */\n      dup4\n        /* \"contracts/PRACTICE/SimpleBank.sol\":960:986  recipient.transfer(amount) */\n      swap1\n      dup2\n      iszero\n      mul\n      swap1\n      mload(0x40)\n      0x00\n      mload(0x40)\n      dup1\n      dup4\n      sub\n      dup2\n      dup6\n      dup9\n      dup9\n      call\n      swap4\n      pop\n      pop\n      pop\n      pop\n      iszero\n      dup1\n      iszero\n      tag_42\n      jumpi\n      returndatacopy(0x00, 0x00, returndatasize)\n      revert(0x00, returndatasize)\n    tag_42:\n      pop\n        /* \"contracts/PRACTICE/SimpleBank.sol\":623:994  function withdraw(uint256 amount, address payable recipient) public {... */\n      pop\n      pop\n      jump\t// out\n        /* \"contracts/PRACTICE/SimpleBank.sol\":1271:1369  function getBalance() public view returns (uint256) {... */\n    tag_15:\n        /* \"contracts/PRACTICE/SimpleBank.sol\":1314:1321  uint256 */\n      0x00\n        /* \"contracts/PRACTICE/SimpleBank.sol\":1341:1349  balances */\n      0x00\n        /* \"contracts/PRACTICE/SimpleBank.sol\":1341:1361  balances[msg.sender] */\n      0x00\n        /* \"contracts/PRACTICE/SimpleBank.sol\":1350:1360  msg.sender */\n      caller\n        /* \"contracts/PRACTICE/SimpleBank.sol\":1341:1361  balances[msg.sender] */\n      0xffffffffffffffffffffffffffffffffffffffff\n      and\n      0xffffffffffffffffffffffffffffffffffffffff\n      and\n      dup2\n      mstore\n      0x20\n      add\n      swap1\n      dup2\n      mstore\n      0x20\n      add\n      0x00\n      keccak256\n      sload\n        /* \"contracts/PRACTICE/SimpleBank.sol\":1334:1361  return balances[msg.sender] */\n      swap1\n      pop\n        /* \"contracts/PRACTICE/SimpleBank.sol\":1271:1369  function getBalance() public view returns (uint256) {... */\n      swap1\n      jump\t// out\n        /* \"contracts/PRACTICE/SimpleBank.sol\":140:183  mapping(address => uint256) public balances */\n    tag_22:\n      mstore(0x20, 0x00)\n      dup1\n      0x00\n      mstore\n      keccak256(0x00, 0x40)\n      0x00\n      swap2\n      pop\n      swap1\n      pop\n      sload\n      dup2\n      jump\t// out\n        /* \"contracts/PRACTICE/SimpleBank.sol\":1426:1534  function getUserBalance(address user) public view returns (uint256) {... */\n    tag_27:\n        /* \"contracts/PRACTICE/SimpleBank.sol\":1485:1492  uint256 */\n      0x00\n        /* \"contracts/PRACTICE/SimpleBank.sol\":1512:1520  balances */\n      0x00\n        /* \"contracts/PRACTICE/SimpleBank.sol\":1512:1526  balances[user] */\n      0x00\n        /* \"contracts/PRACTICE/SimpleBank.sol\":1521:1525  user */\n      dup4\n        /* \"contracts/PRACTICE/SimpleBank.sol\":1512:1526  balances[user] */\n      0xffffffffffffffffffffffffffffffffffffffff\n      and\n      0xffffffffffffffffffffffffffffffffffffffff\n      and\n      dup2\n      mstore\n      0x20\n      add\n      swap1\n      dup2\n      mstore\n      0x20\n      add\n      0x00\n      keccak256\n      sload\n        /* \"contracts/PRACTICE/SimpleBank.sol\":1505:1526  return balances[user] */\n      swap1\n      pop\n        /* \"contracts/PRACTICE/SimpleBank.sol\":1426:1534  function getUserBalance(address user) public view returns (uint256) {... */\n      swap2\n      swap1\n      pop\n      jump\t// out\n        /* \"contracts/PRACTICE/SimpleBank.sol\":1051:1197  function getContractBalance() public view returns (uint256) {... */\n    tag_31:\n        /* \"contracts/PRACTICE/SimpleBank.sol\":1102:1109  uint256 */\n      0x00\n        /* \"contracts/PRACTICE/SimpleBank.sol\":1129:1150  address(this).balance */\n      selfbalance\n        /* \"contracts/PRACTICE/SimpleBank.sol\":1122:1150  return address(this).balance */\n      swap1\n      pop\n        /* \"contracts/PRACTICE/SimpleBank.sol\":1051:1197  function getContractBalance() public view returns (uint256) {... */\n      swap1\n      jump\t// out\n        /* \"contracts/PRACTICE/SimpleBank.sol\":247:525  function deposit() public payable {... */\n    tag_34:\n        /* \"contracts/PRACTICE/SimpleBank.sol\":312:313  0 */\n      0x00\n        /* \"contracts/PRACTICE/SimpleBank.sol\":300:309  msg.value */\n      callvalue\n        /* \"contracts/PRACTICE/SimpleBank.sol\":300:313  msg.value > 0 */\n      gt\n        /* \"contracts/PRACTICE/SimpleBank.sol\":292:355  require(msg.value > 0, \"Deposit amount must be greater than 0\") */\n      tag_47\n      jumpi\n      mload(0x40)\n      0x08c379a000000000000000000000000000000000000000000000000000000000\n      dup2\n      mstore\n      0x04\n      add\n      tag_48\n      swap1\n      tag_49\n      jump\t// in\n    tag_48:\n      mload(0x40)\n      dup1\n      swap2\n      sub\n      swap1\n      revert\n    tag_47:\n        /* \"contracts/PRACTICE/SimpleBank.sol\":508:517  msg.value */\n      callvalue\n        /* \"contracts/PRACTICE/SimpleBank.sol\":484:492  balances */\n      0x00\n        /* \"contracts/PRACTICE/SimpleBank.sol\":484:504  balances[msg.sender] */\n      0x00\n        /* \"contracts/PRACTICE/SimpleBank.sol\":493:503  msg.sender */\n      caller\n        /* \"contracts/PRACTICE/SimpleBank.sol\":484:504  balances[msg.sender] */\n      0xffffffffffffffffffffffffffffffffffffffff\n      and\n      0xffffffffffffffffffffffffffffffffffffffff\n      and\n      dup2\n      mstore\n      0x20\n      add\n      swap1\n      dup2\n      mstore\n      0x20\n      add\n      0x00\n      keccak256\n      0x00\n        /* \"contracts/PRACTICE/SimpleBank.sol\":484:517  balances[msg.sender] += msg.value */\n      dup3\n      dup3\n      sload\n      tag_50\n      swap2\n      swap1\n      tag_51\n      jump\t// in\n    tag_50:\n      swap3\n      pop\n      pop\n      dup2\n      swap1\n      sstore\n      pop\n        /* \"contracts/PRACTICE/SimpleBank.sol\":247:525  function deposit() public payable {... */\n      jump\t// out\n        /* \"#utility.yul\":88:205   */\n    tag_53:\n        /* \"#utility.yul\":197:198   */\n      0x00\n        /* \"#utility.yul\":194:195   */\n      0x00\n        /* \"#utility.yul\":187:199   */\n      revert\n        /* \"#utility.yul\":334:411   */\n    tag_55:\n        /* \"#utility.yul\":371:378   */\n      0x00\n        /* \"#utility.yul\":400:405   */\n      dup2\n        /* \"#utility.yul\":389:405   */\n      swap1\n      pop\n        /* \"#utility.yul\":334:411   */\n      swap2\n      swap1\n      pop\n      jump\t// out\n        /* \"#utility.yul\":417:539   */\n    tag_56:\n        /* \"#utility.yul\":490:514   */\n      tag_78\n        /* \"#utility.yul\":508:513   */\n      dup2\n        /* \"#utility.yul\":490:514   */\n      tag_55\n      jump\t// in\n    tag_78:\n        /* \"#utility.yul\":483:488   */\n      dup2\n        /* \"#utility.yul\":480:515   */\n      eq\n        /* \"#utility.yul\":470:533   */\n      tag_79\n      jumpi\n        /* \"#utility.yul\":529:530   */\n      0x00\n        /* \"#utility.yul\":526:527   */\n      0x00\n        /* \"#utility.yul\":519:531   */\n      revert\n        /* \"#utility.yul\":470:533   */\n    tag_79:\n        /* \"#utility.yul\":417:539   */\n      pop\n      jump\t// out\n        /* \"#utility.yul\":545:684   */\n    tag_57:\n        /* \"#utility.yul\":591:596   */\n      0x00\n        /* \"#utility.yul\":629:635   */\n      dup2\n        /* \"#utility.yul\":616:636   */\n      calldataload\n        /* \"#utility.yul\":607:636   */\n      swap1\n      pop\n        /* \"#utility.yul\":645:678   */\n      tag_81\n        /* \"#utility.yul\":672:677   */\n      dup2\n        /* \"#utility.yul\":645:678   */\n      tag_56\n      jump\t// in\n    tag_81:\n        /* \"#utility.yul\":545:684   */\n      swap3\n      swap2\n      pop\n      pop\n      jump\t// out\n        /* \"#utility.yul\":690:816   */\n    tag_58:\n        /* \"#utility.yul\":727:734   */\n      0x00\n        /* \"#utility.yul\":767:809   */\n      0xffffffffffffffffffffffffffffffffffffffff\n        /* \"#utility.yul\":760:765   */\n      dup3\n        /* \"#utility.yul\":756:810   */\n      and\n        /* \"#utility.yul\":745:810   */\n      swap1\n      pop\n        /* \"#utility.yul\":690:816   */\n      swap2\n      swap1\n      pop\n      jump\t// out\n        /* \"#utility.yul\":822:926   */\n    tag_59:\n        /* \"#utility.yul\":867:874   */\n      0x00\n        /* \"#utility.yul\":896:920   */\n      tag_84\n        /* \"#utility.yul\":914:919   */\n      dup3\n        /* \"#utility.yul\":896:920   */\n      tag_58\n      jump\t// in\n    tag_84:\n        /* \"#utility.yul\":885:920   */\n      swap1\n      pop\n        /* \"#utility.yul\":822:926   */\n      swap2\n      swap1\n      pop\n      jump\t// out\n        /* \"#utility.yul\":932:1070   */\n    tag_60:\n        /* \"#utility.yul\":1013:1045   */\n      tag_86\n        /* \"#utility.yul\":1039:1044   */\n      dup2\n        /* \"#utility.yul\":1013:1045   */\n      tag_59\n      jump\t// in\n    tag_86:\n        /* \"#utility.yul\":1006:1011   */\n      dup2\n        /* \"#utility.yul\":1003:1046   */\n      eq\n        /* \"#utility.yul\":993:1064   */\n      tag_87\n      jumpi\n        /* \"#utility.yul\":1060:1061   */\n      0x00\n        /* \"#utility.yul\":1057:1058   */\n      0x00\n        /* \"#utility.yul\":1050:1062   */\n      revert\n        /* \"#utility.yul\":993:1064   */\n    tag_87:\n        /* \"#utility.yul\":932:1070   */\n      pop\n      jump\t// out\n        /* \"#utility.yul\":1076:1231   */\n    tag_61:\n        /* \"#utility.yul\":1130:1135   */\n      0x00\n        /* \"#utility.yul\":1168:1174   */\n      dup2\n        /* \"#utility.yul\":1155:1175   */\n      calldataload\n        /* \"#utility.yul\":1146:1175   */\n      swap1\n      pop\n        /* \"#utility.yul\":1184:1225   */\n      tag_89\n        /* \"#utility.yul\":1219:1224   */\n      dup2\n        /* \"#utility.yul\":1184:1225   */\n      tag_60\n      jump\t// in\n    tag_89:\n        /* \"#utility.yul\":1076:1231   */\n      swap3\n      swap2\n      pop\n      pop\n      jump\t// out\n        /* \"#utility.yul\":1237:1727   */\n    tag_11:\n        /* \"#utility.yul\":1313:1319   */\n      0x00\n        /* \"#utility.yul\":1321:1327   */\n      0x00\n        /* \"#utility.yul\":1370:1372   */\n      0x40\n        /* \"#utility.yul\":1358:1367   */\n      dup4\n        /* \"#utility.yul\":1349:1356   */\n      dup6\n        /* \"#utility.yul\":1345:1368   */\n      sub\n        /* \"#utility.yul\":1341:1373   */\n      slt\n        /* \"#utility.yul\":1338:1457   */\n      iszero\n      tag_91\n      jumpi\n        /* \"#utility.yul\":1376:1455   */\n      tag_92\n      tag_53\n      jump\t// in\n    tag_92:\n        /* \"#utility.yul\":1338:1457   */\n    tag_91:\n        /* \"#utility.yul\":1496:1497   */\n      0x00\n        /* \"#utility.yul\":1521:1574   */\n      tag_93\n        /* \"#utility.yul\":1566:1573   */\n      dup6\n        /* \"#utility.yul\":1557:1563   */\n      dup3\n        /* \"#utility.yul\":1546:1555   */\n      dup7\n        /* \"#utility.yul\":1542:1564   */\n      add\n        /* \"#utility.yul\":1521:1574   */\n      tag_57\n      jump\t// in\n    tag_93:\n        /* \"#utility.yul\":1511:1574   */\n      swap3\n      pop\n        /* \"#utility.yul\":1467:1584   */\n      pop\n        /* \"#utility.yul\":1623:1625   */\n      0x20\n        /* \"#utility.yul\":1649:1710   */\n      tag_94\n        /* \"#utility.yul\":1702:1709   */\n      dup6\n        /* \"#utility.yul\":1693:1699   */\n      dup3\n        /* \"#utility.yul\":1682:1691   */\n      dup7\n        /* \"#utility.yul\":1678:1700   */\n      add\n        /* \"#utility.yul\":1649:1710   */\n      tag_61\n      jump\t// in\n    tag_94:\n        /* \"#utility.yul\":1639:1710   */\n      swap2\n      pop\n        /* \"#utility.yul\":1594:1720   */\n      pop\n        /* \"#utility.yul\":1237:1727   */\n      swap3\n      pop\n      swap3\n      swap1\n      pop\n      jump\t// out\n        /* \"#utility.yul\":1733:1851   */\n    tag_62:\n        /* \"#utility.yul\":1820:1844   */\n      tag_96\n        /* \"#utility.yul\":1838:1843   */\n      dup2\n        /* \"#utility.yul\":1820:1844   */\n      tag_55\n      jump\t// in\n    tag_96:\n        /* \"#utility.yul\":1815:1818   */\n      dup3\n        /* \"#utility.yul\":1808:1845   */\n      mstore\n        /* \"#utility.yul\":1733:1851   */\n      pop\n      pop\n      jump\t// out\n        /* \"#utility.yul\":1857:2079   */\n    tag_17:\n        /* \"#utility.yul\":1950:1954   */\n      0x00\n        /* \"#utility.yul\":1988:1990   */\n      0x20\n        /* \"#utility.yul\":1977:1986   */\n      dup3\n        /* \"#utility.yul\":1973:1991   */\n      add\n        /* \"#utility.yul\":1965:1991   */\n      swap1\n      pop\n        /* \"#utility.yul\":2001:2072   */\n      tag_98\n        /* \"#utility.yul\":2069:2070   */\n      0x00\n        /* \"#utility.yul\":2058:2067   */\n      dup4\n        /* \"#utility.yul\":2054:2071   */\n      add\n        /* \"#utility.yul\":2045:2051   */\n      dup5\n        /* \"#utility.yul\":2001:2072   */\n      tag_62\n      jump\t// in\n    tag_98:\n        /* \"#utility.yul\":1857:2079   */\n      swap3\n      swap2\n      pop\n      pop\n      jump\t// out\n        /* \"#utility.yul\":2085:2181   */\n    tag_63:\n        /* \"#utility.yul\":2122:2129   */\n      0x00\n        /* \"#utility.yul\":2151:2175   */\n      tag_100\n        /* \"#utility.yul\":2169:2174   */\n      dup3\n        /* \"#utility.yul\":2151:2175   */\n      tag_58\n      jump\t// in\n    tag_100:\n        /* \"#utility.yul\":2140:2175   */\n      swap1\n      pop\n        /* \"#utility.yul\":2085:2181   */\n      swap2\n      swap1\n      pop\n      jump\t// out\n        /* \"#utility.yul\":2187:2309   */\n    tag_64:\n        /* \"#utility.yul\":2260:2284   */\n      tag_102\n        /* \"#utility.yul\":2278:2283   */\n      dup2\n        /* \"#utility.yul\":2260:2284   */\n      tag_63\n      jump\t// in\n    tag_102:\n        /* \"#utility.yul\":2253:2258   */\n      dup2\n        /* \"#utility.yul\":2250:2285   */\n      eq\n        /* \"#utility.yul\":2240:2303   */\n      tag_103\n      jumpi\n        /* \"#utility.yul\":2299:2300   */\n      0x00\n        /* \"#utility.yul\":2296:2297   */\n      0x00\n        /* \"#utility.yul\":2289:2301   */\n      revert\n        /* \"#utility.yul\":2240:2303   */\n    tag_103:\n        /* \"#utility.yul\":2187:2309   */\n      pop\n      jump\t// out\n        /* \"#utility.yul\":2315:2454   */\n    tag_65:\n        /* \"#utility.yul\":2361:2366   */\n      0x00\n        /* \"#utility.yul\":2399:2405   */\n      dup2\n        /* \"#utility.yul\":2386:2406   */\n      calldataload\n        /* \"#utility.yul\":2377:2406   */\n      swap1\n      pop\n        /* \"#utility.yul\":2415:2448   */\n      tag_105\n        /* \"#utility.yul\":2442:2447   */\n      dup2\n        /* \"#utility.yul\":2415:2448   */\n      tag_64\n      jump\t// in\n    tag_105:\n        /* \"#utility.yul\":2315:2454   */\n      swap3\n      swap2\n      pop\n      pop\n      jump\t// out\n        /* \"#utility.yul\":2460:2789   */\n    tag_21:\n        /* \"#utility.yul\":2519:2525   */\n      0x00\n        /* \"#utility.yul\":2568:2570   */\n      0x20\n        /* \"#utility.yul\":2556:2565   */\n      dup3\n        /* \"#utility.yul\":2547:2554   */\n      dup5\n        /* \"#utility.yul\":2543:2566   */\n      sub\n        /* \"#utility.yul\":2539:2571   */\n      slt\n        /* \"#utility.yul\":2536:2655   */\n      iszero\n      tag_107\n      jumpi\n        /* \"#utility.yul\":2574:2653   */\n      tag_108\n      tag_53\n      jump\t// in\n    tag_108:\n        /* \"#utility.yul\":2536:2655   */\n    tag_107:\n        /* \"#utility.yul\":2694:2695   */\n      0x00\n        /* \"#utility.yul\":2719:2772   */\n      tag_109\n        /* \"#utility.yul\":2764:2771   */\n      dup5\n        /* \"#utility.yul\":2755:2761   */\n      dup3\n        /* \"#utility.yul\":2744:2753   */\n      dup6\n        /* \"#utility.yul\":2740:2762   */\n      add\n        /* \"#utility.yul\":2719:2772   */\n      tag_65\n      jump\t// in\n    tag_109:\n        /* \"#utility.yul\":2709:2772   */\n      swap2\n      pop\n        /* \"#utility.yul\":2665:2782   */\n      pop\n        /* \"#utility.yul\":2460:2789   */\n      swap3\n      swap2\n      pop\n      pop\n      jump\t// out\n        /* \"#utility.yul\":2795:2964   */\n    tag_66:\n        /* \"#utility.yul\":2879:2890   */\n      0x00\n        /* \"#utility.yul\":2913:2919   */\n      dup3\n        /* \"#utility.yul\":2908:2911   */\n      dup3\n        /* \"#utility.yul\":2901:2920   */\n      mstore\n        /* \"#utility.yul\":2953:2957   */\n      0x20\n        /* \"#utility.yul\":2948:2951   */\n      dup3\n        /* \"#utility.yul\":2944:2958   */\n      add\n        /* \"#utility.yul\":2929:2958   */\n      swap1\n      pop\n        /* \"#utility.yul\":2795:2964   */\n      swap3\n      swap2\n      pop\n      pop\n      jump\t// out\n        /* \"#utility.yul\":2970:3140   */\n    tag_67:\n        /* \"#utility.yul\":3110:3132   */\n      0x496e73756666696369656e742062616c616e6365000000000000000000000000\n        /* \"#utility.yul\":3106:3107   */\n      0x00\n        /* \"#utility.yul\":3098:3104   */\n      dup3\n        /* \"#utility.yul\":3094:3108   */\n      add\n        /* \"#utility.yul\":3087:3133   */\n      mstore\n        /* \"#utility.yul\":2970:3140   */\n      pop\n      jump\t// out\n        /* \"#utility.yul\":3146:3512   */\n    tag_68:\n        /* \"#utility.yul\":3288:3291   */\n      0x00\n        /* \"#utility.yul\":3309:3376   */\n      tag_113\n        /* \"#utility.yul\":3373:3375   */\n      0x14\n        /* \"#utility.yul\":3368:3371   */\n      dup4\n        /* \"#utility.yul\":3309:3376   */\n      tag_66\n      jump\t// in\n    tag_113:\n        /* \"#utility.yul\":3302:3376   */\n      swap2\n      pop\n        /* \"#utility.yul\":3385:3478   */\n      tag_114\n        /* \"#utility.yul\":3474:3477   */\n      dup3\n        /* \"#utility.yul\":3385:3478   */\n      tag_67\n      jump\t// in\n    tag_114:\n        /* \"#utility.yul\":3503:3505   */\n      0x20\n        /* \"#utility.yul\":3498:3501   */\n      dup3\n        /* \"#utility.yul\":3494:3506   */\n      add\n        /* \"#utility.yul\":3487:3506   */\n      swap1\n      pop\n        /* \"#utility.yul\":3146:3512   */\n      swap2\n      swap1\n      pop\n      jump\t// out\n        /* \"#utility.yul\":3518:3937   */\n    tag_38:\n        /* \"#utility.yul\":3684:3688   */\n      0x00\n        /* \"#utility.yul\":3722:3724   */\n      0x20\n        /* \"#utility.yul\":3711:3720   */\n      dup3\n        /* \"#utility.yul\":3707:3725   */\n      add\n        /* \"#utility.yul\":3699:3725   */\n      swap1\n      pop\n        /* \"#utility.yul\":3771:3780   */\n      dup2\n        /* \"#utility.yul\":3765:3769   */\n      dup2\n        /* \"#utility.yul\":3761:3781   */\n      sub\n        /* \"#utility.yul\":3757:3758   */\n      0x00\n        /* \"#utility.yul\":3746:3755   */\n      dup4\n        /* \"#utility.yul\":3742:3759   */\n      add\n        /* \"#utility.yul\":3735:3782   */\n      mstore\n        /* \"#utility.yul\":3799:3930   */\n      tag_116\n        /* \"#utility.yul\":3925:3929   */\n      dup2\n        /* \"#utility.yul\":3799:3930   */\n      tag_68\n      jump\t// in\n    tag_116:\n        /* \"#utility.yul\":3791:3930   */\n      swap1\n      pop\n        /* \"#utility.yul\":3518:3937   */\n      swap2\n      swap1\n      pop\n      jump\t// out\n        /* \"#utility.yul\":3943:4123   */\n    tag_69:\n        /* \"#utility.yul\":3991:4068   */\n      0x4e487b7100000000000000000000000000000000000000000000000000000000\n        /* \"#utility.yul\":3988:3989   */\n      0x00\n        /* \"#utility.yul\":3981:4069   */\n      mstore\n        /* \"#utility.yul\":4088:4092   */\n      0x11\n        /* \"#utility.yul\":4085:4086   */\n      0x04\n        /* \"#utility.yul\":4078:4093   */\n      mstore\n        /* \"#utility.yul\":4112:4116   */\n      0x24\n        /* \"#utility.yul\":4109:4110   */\n      0x00\n        /* \"#utility.yul\":4102:4117   */\n      revert\n        /* \"#utility.yul\":4129:4323   */\n    tag_40:\n        /* \"#utility.yul\":4169:4173   */\n      0x00\n        /* \"#utility.yul\":4189:4209   */\n      tag_119\n        /* \"#utility.yul\":4207:4208   */\n      dup3\n        /* \"#utility.yul\":4189:4209   */\n      tag_55\n      jump\t// in\n    tag_119:\n        /* \"#utility.yul\":4184:4209   */\n      swap2\n      pop\n        /* \"#utility.yul\":4223:4243   */\n      tag_120\n        /* \"#utility.yul\":4241:4242   */\n      dup4\n        /* \"#utility.yul\":4223:4243   */\n      tag_55\n      jump\t// in\n    tag_120:\n        /* \"#utility.yul\":4218:4243   */\n      swap3\n      pop\n        /* \"#utility.yul\":4267:4268   */\n      dup3\n        /* \"#utility.yul\":4264:4265   */\n      dup3\n        /* \"#utility.yul\":4260:4269   */\n      sub\n        /* \"#utility.yul\":4252:4269   */\n      swap1\n      pop\n        /* \"#utility.yul\":4291:4292   */\n      dup2\n        /* \"#utility.yul\":4285:4289   */\n      dup2\n        /* \"#utility.yul\":4282:4293   */\n      gt\n        /* \"#utility.yul\":4279:4316   */\n      iszero\n      tag_121\n      jumpi\n        /* \"#utility.yul\":4296:4314   */\n      tag_122\n      tag_69\n      jump\t// in\n    tag_122:\n        /* \"#utility.yul\":4279:4316   */\n    tag_121:\n        /* \"#utility.yul\":4129:4323   */\n      swap3\n      swap2\n      pop\n      pop\n      jump\t// out\n        /* \"#utility.yul\":4329:4553   */\n    tag_70:\n        /* \"#utility.yul\":4469:4503   */\n      0x4465706f73697420616d6f756e74206d75737420626520677265617465722074\n        /* \"#utility.yul\":4465:4466   */\n      0x00\n        /* \"#utility.yul\":4457:4463   */\n      dup3\n        /* \"#utility.yul\":4453:4467   */\n      add\n        /* \"#utility.yul\":4446:4504   */\n      mstore\n        /* \"#utility.yul\":4538:4545   */\n      0x68616e2030000000000000000000000000000000000000000000000000000000\n        /* \"#utility.yul\":4533:4535   */\n      0x20\n        /* \"#utility.yul\":4525:4531   */\n      dup3\n        /* \"#utility.yul\":4521:4536   */\n      add\n        /* \"#utility.yul\":4514:4546   */\n      mstore\n        /* \"#utility.yul\":4329:4553   */\n      pop\n      jump\t// out\n        /* \"#utility.yul\":4559:4925   */\n    tag_71:\n        /* \"#utility.yul\":4701:4704   */\n      0x00\n        /* \"#utility.yul\":4722:4789   */\n      tag_125\n        /* \"#utility.yul\":4786:4788   */\n      0x25\n        /* \"#utility.yul\":4781:4784   */\n      dup4\n        /* \"#utility.yul\":4722:4789   */\n      tag_66\n      jump\t// in\n    tag_125:\n        /* \"#utility.yul\":4715:4789   */\n      swap2\n      pop\n        /* \"#utility.yul\":4798:4891   */\n      tag_126\n        /* \"#utility.yul\":4887:4890   */\n      dup3\n        /* \"#utility.yul\":4798:4891   */\n      tag_70\n      jump\t// in\n    tag_126:\n        /* \"#utility.yul\":4916:4918   */\n      0x40\n        /* \"#utility.yul\":4911:4914   */\n      dup3\n        /* \"#utility.yul\":4907:4919   */\n      add\n        /* \"#utility.yul\":4900:4919   */\n      swap1\n      pop\n        /* \"#utility.yul\":4559:4925   */\n      swap2\n      swap1\n      pop\n      jump\t// out\n        /* \"#utility.yul\":4931:5350   */\n    tag_49:\n        /* \"#utility.yul\":5097:5101   */\n      0x00\n        /* \"#utility.yul\":5135:5137   */\n      0x20\n        /* \"#utility.yul\":5124:5133   */\n      dup3\n        /* \"#utility.yul\":5120:5138   */\n      add\n        /* \"#utility.yul\":5112:5138   */\n      swap1\n      pop\n        /* \"#utility.yul\":5184:5193   */\n      dup2\n        /* \"#utility.yul\":5178:5182   */\n      dup2\n        /* \"#utility.yul\":5174:5194   */\n      sub\n        /* \"#utility.yul\":5170:5171   */\n      0x00\n        /* \"#utility.yul\":5159:5168   */\n      dup4\n        /* \"#utility.yul\":5155:5172   */\n      add\n        /* \"#utility.yul\":5148:5195   */\n      mstore\n        /* \"#utility.yul\":5212:5343   */\n      tag_128\n        /* \"#utility.yul\":5338:5342   */\n      dup2\n        /* \"#utility.yul\":5212:5343   */\n      tag_71\n      jump\t// in\n    tag_128:\n        /* \"#utility.yul\":5204:5343   */\n      swap1\n      pop\n        /* \"#utility.yul\":4931:5350   */\n      swap2\n      swap1\n      pop\n      jump\t// out\n        /* \"#utility.yul\":5356:5547   */\n    tag_51:\n        /* \"#utility.yul\":5396:5399   */\n      0x00\n        /* \"#utility.yul\":5415:5435   */\n      tag_130\n        /* \"#utility.yul\":5433:5434   */\n      dup3\n        /* \"#utility.yul\":5415:5435   */\n      tag_55\n      jump\t// in\n    tag_130:\n        /* \"#utility.yul\":5410:5435   */\n      swap2\n      pop\n        /* \"#utility.yul\":5449:5469   */\n      tag_131\n        /* \"#utility.yul\":5467:5468   */\n      dup4\n        /* \"#utility.yul\":5449:5469   */\n      tag_55\n      jump\t// in\n    tag_131:\n        /* \"#utility.yul\":5444:5469   */\n      swap3\n      pop\n        /* \"#utility.yul\":5492:5493   */\n      dup3\n        /* \"#utility.yul\":5489:5490   */\n      dup3\n        /* \"#utility.yul\":5485:5494   */\n      add\n        /* \"#utility.yul\":5478:5494   */\n      swap1\n      pop\n        /* \"#utility.yul\":5513:5516   */\n      dup1\n        /* \"#utility.yul\":5510:5511   */\n      dup3\n        /* \"#utility.yul\":5507:5517   */\n      gt\n        /* \"#utility.yul\":5504:5540   */\n      iszero\n      tag_132\n      jumpi\n        /* \"#utility.yul\":5520:5538   */\n      tag_133\n      tag_69\n      jump\t// in\n    tag_133:\n        /* \"#utility.yul\":5504:5540   */\n    tag_132:\n        /* \"#utility.yul\":5356:5547   */\n      swap3\n      swap2\n      pop\n      pop\n      jump\t// out\n\n    auxdata: 0xa26469706673582212204b4103e4e31649365e0b148a8ec4019dea6fd10710c94fc7024951fa39aaba9864736f6c634300081c0033\n}\n",
				"bytecode": {
					"linkReferences": {},
					"object": "6080604052348015600e575f5ffd5b506106d38061001c5f395ff3fe608060405260043610610053575f3560e01c8062f714ce1461005757806312065fe01461007f57806327e235e3146100a957806347734892146100e55780636f9fb98a14610121578063d0e30db01461014b575b5f5ffd5b348015610062575f5ffd5b5061007d60048036038101906100789190610438565b610155565b005b34801561008a575f5ffd5b5061009361026e565b6040516100a09190610485565b60405180910390f35b3480156100b4575f5ffd5b506100cf60048036038101906100ca91906104d9565b6102b1565b6040516100dc9190610485565b60405180910390f35b3480156100f0575f5ffd5b5061010b600480360381019061010691906104d9565b6102c5565b6040516101189190610485565b60405180910390f35b34801561012c575f5ffd5b5061013561030a565b6040516101429190610485565b60405180910390f35b610153610311565b005b5f5f3373ffffffffffffffffffffffffffffffffffffffff1673ffffffffffffffffffffffffffffffffffffffff1681526020019081526020015f20548211156101d4576040517f08c379a00000000000000000000000000000000000000000000000000000000081526004016101cb9061055e565b60405180910390fd5b815f5f3373ffffffffffffffffffffffffffffffffffffffff1673ffffffffffffffffffffffffffffffffffffffff1681526020019081526020015f205f82825461021f91906105a9565b925050819055508073ffffffffffffffffffffffffffffffffffffffff166108fc8390811502906040515f60405180830381858888f19350505050158015610269573d5f5f3e3d5ffd5b505050565b5f5f5f3373ffffffffffffffffffffffffffffffffffffffff1673ffffffffffffffffffffffffffffffffffffffff1681526020019081526020015f2054905090565b5f602052805f5260405f205f915090505481565b5f5f5f8373ffffffffffffffffffffffffffffffffffffffff1673ffffffffffffffffffffffffffffffffffffffff1681526020019081526020015f20549050919050565b5f47905090565b5f3411610353576040517f08c379a000000000000000000000000000000000000000000000000000000000815260040161034a9061064c565b60405180910390fd5b345f5f3373ffffffffffffffffffffffffffffffffffffffff1673ffffffffffffffffffffffffffffffffffffffff1681526020019081526020015f205f82825461039e919061066a565b92505081905550565b5f5ffd5b5f819050919050565b6103bd816103ab565b81146103c7575f5ffd5b50565b5f813590506103d8816103b4565b92915050565b5f73ffffffffffffffffffffffffffffffffffffffff82169050919050565b5f610407826103de565b9050919050565b610417816103fd565b8114610421575f5ffd5b50565b5f813590506104328161040e565b92915050565b5f5f6040838503121561044e5761044d6103a7565b5b5f61045b858286016103ca565b925050602061046c85828601610424565b9150509250929050565b61047f816103ab565b82525050565b5f6020820190506104985f830184610476565b92915050565b5f6104a8826103de565b9050919050565b6104b88161049e565b81146104c2575f5ffd5b50565b5f813590506104d3816104af565b92915050565b5f602082840312156104ee576104ed6103a7565b5b5f6104fb848285016104c5565b91505092915050565b5f82825260208201905092915050565b7f496e73756666696369656e742062616c616e63650000000000000000000000005f82015250565b5f610548601483610504565b915061055382610514565b602082019050919050565b5f6020820190508181035f8301526105758161053c565b9050919050565b7f4e487b71000000000000000000000000000000000000000000000000000000005f52601160045260245ffd5b5f6105b3826103ab565b91506105be836103ab565b92508282039050818111156105d6576105d561057c565b5b92915050565b7f4465706f73697420616d6f756e74206d757374206265206772656174657220745f8201527f68616e2030000000000000000000000000000000000000000000000000000000602082015250565b5f610636602583610504565b9150610641826105dc565b604082019050919050565b5f6020820190508181035f8301526106638161062a565b9050919050565b5f610674826103ab565b915061067f836103ab565b92508282019050808211156106975761069661057c565b5b9291505056fea26469706673582212204b4103e4e31649365e0b148a8ec4019dea6fd10710c94fc7024951fa39aaba9864736f6c634300081c0033",
					"opcodes": "PUSH1 0x80 PUSH1 0x40 MSTORE CALLVALUE DUP1 ISZERO PUSH1 0xE JUMPI PUSH0 PUSH0 REVERT JUMPDEST POP PUSH2 0x6D3 DUP1 PUSH2 0x1C PUSH0 CODECOPY PUSH0 RETURN INVALID PUSH1 0x80 PUSH1 0x40 MSTORE PUSH1 0x4 CALLDATASIZE LT PUSH2 0x53 JUMPI PUSH0 CALLDATALOAD PUSH1 0xE0 SHR DUP1 PUSH3 0xF714CE EQ PUSH2 0x57 JUMPI DUP1 PUSH4 0x12065FE0 EQ PUSH2 0x7F JUMPI DUP1 PUSH4 0x27E235E3 EQ PUSH2 0xA9 JUMPI DUP1 PUSH4 0x47734892 EQ PUSH2 0xE5 JUMPI DUP1 PUSH4 0x6F9FB98A EQ PUSH2 0x121 JUMPI DUP1 PUSH4 0xD0E30DB0 EQ PUSH2 0x14B JUMPI JUMPDEST PUSH0 PUSH0 REVERT JUMPDEST CALLVALUE DUP1 ISZERO PUSH2 0x62 JUMPI PUSH0 PUSH0 REVERT JUMPDEST POP PUSH2 0x7D PUSH1 0x4 DUP1 CALLDATASIZE SUB DUP2 ADD SWAP1 PUSH2 0x78 SWAP2 SWAP1 PUSH2 0x438 JUMP JUMPDEST PUSH2 0x155 JUMP JUMPDEST STOP JUMPDEST CALLVALUE DUP1 ISZERO PUSH2 0x8A JUMPI PUSH0 PUSH0 REVERT JUMPDEST POP PUSH2 0x93 PUSH2 0x26E JUMP JUMPDEST PUSH1 0x40 MLOAD PUSH2 0xA0 SWAP2 SWAP1 PUSH2 0x485 JUMP JUMPDEST PUSH1 0x40 MLOAD DUP1 SWAP2 SUB SWAP1 RETURN JUMPDEST CALLVALUE DUP1 ISZERO PUSH2 0xB4 JUMPI PUSH0 PUSH0 REVERT JUMPDEST POP PUSH2 0xCF PUSH1 0x4 DUP1 CALLDATASIZE SUB DUP2 ADD SWAP1 PUSH2 0xCA SWAP2 SWAP1 PUSH2 0x4D9 JUMP JUMPDEST PUSH2 0x2B1 JUMP JUMPDEST PUSH1 0x40 MLOAD PUSH2 0xDC SWAP2 SWAP1 PUSH2 0x485 JUMP JUMPDEST PUSH1 0x40 MLOAD DUP1 SWAP2 SUB SWAP1 RETURN JUMPDEST CALLVALUE DUP1 ISZERO PUSH2 0xF0 JUMPI PUSH0 PUSH0 REVERT JUMPDEST POP PUSH2 0x10B PUSH1 0x4 DUP1 CALLDATASIZE SUB DUP2 ADD SWAP1 PUSH2 0x106 SWAP2 SWAP1 PUSH2 0x4D9 JUMP JUMPDEST PUSH2 0x2C5 JUMP JUMPDEST PUSH1 0x40 MLOAD PUSH2 0x118 SWAP2 SWAP1 PUSH2 0x485 JUMP JUMPDEST PUSH1 0x40 MLOAD DUP1 SWAP2 SUB SWAP1 RETURN JUMPDEST CALLVALUE DUP1 ISZERO PUSH2 0x12C JUMPI PUSH0 PUSH0 REVERT JUMPDEST POP PUSH2 0x135 PUSH2 0x30A JUMP JUMPDEST PUSH1 0x40 MLOAD PUSH2 0x142 SWAP2 SWAP1 PUSH2 0x485 JUMP JUMPDEST PUSH1 0x40 MLOAD DUP1 SWAP2 SUB SWAP1 RETURN JUMPDEST PUSH2 0x153 PUSH2 0x311 JUMP JUMPDEST STOP JUMPDEST PUSH0 PUSH0 CALLER PUSH20 0xFFFFFFFFFFFFFFFFFFFFFFFFFFFFFFFFFFFFFFFF AND PUSH20 0xFFFFFFFFFFFFFFFFFFFFFFFFFFFFFFFFFFFFFFFF AND DUP2 MSTORE PUSH1 0x20 ADD SWAP1 DUP2 MSTORE PUSH1 0x20 ADD PUSH0 KECCAK256 SLOAD DUP3 GT ISZERO PUSH2 0x1D4 JUMPI PUSH1 0x40 MLOAD PUSH32 0x8C379A000000000000000000000000000000000000000000000000000000000 DUP2 MSTORE PUSH1 0x4 ADD PUSH2 0x1CB SWAP1 PUSH2 0x55E JUMP JUMPDEST PUSH1 0x40 MLOAD DUP1 SWAP2 SUB SWAP1 REVERT JUMPDEST DUP2 PUSH0 PUSH0 CALLER PUSH20 0xFFFFFFFFFFFFFFFFFFFFFFFFFFFFFFFFFFFFFFFF AND PUSH20 0xFFFFFFFFFFFFFFFFFFFFFFFFFFFFFFFFFFFFFFFF AND DUP2 MSTORE PUSH1 0x20 ADD SWAP1 DUP2 MSTORE PUSH1 0x20 ADD PUSH0 KECCAK256 PUSH0 DUP3 DUP3 SLOAD PUSH2 0x21F SWAP2 SWAP1 PUSH2 0x5A9 JUMP JUMPDEST SWAP3 POP POP DUP2 SWAP1 SSTORE POP DUP1 PUSH20 0xFFFFFFFFFFFFFFFFFFFFFFFFFFFFFFFFFFFFFFFF AND PUSH2 0x8FC DUP4 SWAP1 DUP2 ISZERO MUL SWAP1 PUSH1 0x40 MLOAD PUSH0 PUSH1 0x40 MLOAD DUP1 DUP4 SUB DUP2 DUP6 DUP9 DUP9 CALL SWAP4 POP POP POP POP ISZERO DUP1 ISZERO PUSH2 0x269 JUMPI RETURNDATASIZE PUSH0 PUSH0 RETURNDATACOPY RETURNDATASIZE PUSH0 REVERT JUMPDEST POP POP POP JUMP JUMPDEST PUSH0 PUSH0 PUSH0 CALLER PUSH20 0xFFFFFFFFFFFFFFFFFFFFFFFFFFFFFFFFFFFFFFFF AND PUSH20 0xFFFFFFFFFFFFFFFFFFFFFFFFFFFFFFFFFFFFFFFF AND DUP2 MSTORE PUSH1 0x20 ADD SWAP1 DUP2 MSTORE PUSH1 0x20 ADD PUSH0 KECCAK256 SLOAD SWAP1 POP SWAP1 JUMP JUMPDEST PUSH0 PUSH1 0x20 MSTORE DUP1 PUSH0 MSTORE PUSH1 0x40 PUSH0 KECCAK256 PUSH0 SWAP2 POP SWAP1 POP SLOAD DUP2 JUMP JUMPDEST PUSH0 PUSH0 PUSH0 DUP4 PUSH20 0xFFFFFFFFFFFFFFFFFFFFFFFFFFFFFFFFFFFFFFFF AND PUSH20 0xFFFFFFFFFFFFFFFFFFFFFFFFFFFFFFFFFFFFFFFF AND DUP2 MSTORE PUSH1 0x20 ADD SWAP1 DUP2 MSTORE PUSH1 0x20 ADD PUSH0 KECCAK256 SLOAD SWAP1 POP SWAP2 SWAP1 POP JUMP JUMPDEST PUSH0 SELFBALANCE SWAP1 POP SWAP1 JUMP JUMPDEST PUSH0 CALLVALUE GT PUSH2 0x353 JUMPI PUSH1 0x40 MLOAD PUSH32 0x8C379A000000000000000000000000000000000000000000000000000000000 DUP2 MSTORE PUSH1 0x4 ADD PUSH2 0x34A SWAP1 PUSH2 0x64C JUMP JUMPDEST PUSH1 0x40 MLOAD DUP1 SWAP2 SUB SWAP1 REVERT JUMPDEST CALLVALUE PUSH0 PUSH0 CALLER PUSH20 0xFFFFFFFFFFFFFFFFFFFFFFFFFFFFFFFFFFFFFFFF AND PUSH20 0xFFFFFFFFFFFFFFFFFFFFFFFFFFFFFFFFFFFFFFFF AND DUP2 MSTORE PUSH1 0x20 ADD SWAP1 DUP2 MSTORE PUSH1 0x20 ADD PUSH0 KECCAK256 PUSH0 DUP3 DUP3 SLOAD PUSH2 0x39E SWAP2 SWAP1 PUSH2 0x66A JUMP JUMPDEST SWAP3 POP POP DUP2 SWAP1 SSTORE POP JUMP JUMPDEST PUSH0 PUSH0 REVERT JUMPDEST PUSH0 DUP2 SWAP1 POP SWAP2 SWAP1 POP JUMP JUMPDEST PUSH2 0x3BD DUP2 PUSH2 0x3AB JUMP JUMPDEST DUP2 EQ PUSH2 0x3C7 JUMPI PUSH0 PUSH0 REVERT JUMPDEST POP JUMP JUMPDEST PUSH0 DUP2 CALLDATALOAD SWAP1 POP PUSH2 0x3D8 DUP2 PUSH2 0x3B4 JUMP JUMPDEST SWAP3 SWAP2 POP POP JUMP JUMPDEST PUSH0 PUSH20 0xFFFFFFFFFFFFFFFFFFFFFFFFFFFFFFFFFFFFFFFF DUP3 AND SWAP1 POP SWAP2 SWAP1 POP JUMP JUMPDEST PUSH0 PUSH2 0x407 DUP3 PUSH2 0x3DE JUMP JUMPDEST SWAP1 POP SWAP2 SWAP1 POP JUMP JUMPDEST PUSH2 0x417 DUP2 PUSH2 0x3FD JUMP JUMPDEST DUP2 EQ PUSH2 0x421 JUMPI PUSH0 PUSH0 REVERT JUMPDEST POP JUMP JUMPDEST PUSH0 DUP2 CALLDATALOAD SWAP1 POP PUSH2 0x432 DUP2 PUSH2 0x40E JUMP JUMPDEST SWAP3 SWAP2 POP POP JUMP JUMPDEST PUSH0 PUSH0 PUSH1 0x40 DUP4 DUP6 SUB SLT ISZERO PUSH2 0x44E JUMPI PUSH2 0x44D PUSH2 0x3A7 JUMP JUMPDEST JUMPDEST PUSH0 PUSH2 0x45B DUP6 DUP3 DUP7 ADD PUSH2 0x3CA JUMP JUMPDEST SWAP3 POP POP PUSH1 0x20 PUSH2 0x46C DUP6 DUP3 DUP7 ADD PUSH2 0x424 JUMP JUMPDEST SWAP2 POP POP SWAP3 POP SWAP3 SWAP1 POP JUMP JUMPDEST PUSH2 0x47F DUP2 PUSH2 0x3AB JUMP JUMPDEST DUP3 MSTORE POP POP JUMP JUMPDEST PUSH0 PUSH1 0x20 DUP3 ADD SWAP1 POP PUSH2 0x498 PUSH0 DUP4 ADD DUP5 PUSH2 0x476 JUMP JUMPDEST SWAP3 SWAP2 POP POP JUMP JUMPDEST PUSH0 PUSH2 0x4A8 DUP3 PUSH2 0x3DE JUMP JUMPDEST SWAP1 POP SWAP2 SWAP1 POP JUMP JUMPDEST PUSH2 0x4B8 DUP2 PUSH2 0x49E JUMP JUMPDEST DUP2 EQ PUSH2 0x4C2 JUMPI PUSH0 PUSH0 REVERT JUMPDEST POP JUMP JUMPDEST PUSH0 DUP2 CALLDATALOAD SWAP1 POP PUSH2 0x4D3 DUP2 PUSH2 0x4AF JUMP JUMPDEST SWAP3 SWAP2 POP POP JUMP JUMPDEST PUSH0 PUSH1 0x20 DUP3 DUP5 SUB SLT ISZERO PUSH2 0x4EE JUMPI PUSH2 0x4ED PUSH2 0x3A7 JUMP JUMPDEST JUMPDEST PUSH0 PUSH2 0x4FB DUP5 DUP3 DUP6 ADD PUSH2 0x4C5 JUMP JUMPDEST SWAP2 POP POP SWAP3 SWAP2 POP POP JUMP JUMPDEST PUSH0 DUP3 DUP3 MSTORE PUSH1 0x20 DUP3 ADD SWAP1 POP SWAP3 SWAP2 POP POP JUMP JUMPDEST PUSH32 0x496E73756666696369656E742062616C616E6365000000000000000000000000 PUSH0 DUP3 ADD MSTORE POP JUMP JUMPDEST PUSH0 PUSH2 0x548 PUSH1 0x14 DUP4 PUSH2 0x504 JUMP JUMPDEST SWAP2 POP PUSH2 0x553 DUP3 PUSH2 0x514 JUMP JUMPDEST PUSH1 0x20 DUP3 ADD SWAP1 POP SWAP2 SWAP1 POP JUMP JUMPDEST PUSH0 PUSH1 0x20 DUP3 ADD SWAP1 POP DUP2 DUP2 SUB PUSH0 DUP4 ADD MSTORE PUSH2 0x575 DUP2 PUSH2 0x53C JUMP JUMPDEST SWAP1 POP SWAP2 SWAP1 POP JUMP JUMPDEST PUSH32 0x4E487B7100000000000000000000000000000000000000000000000000000000 PUSH0 MSTORE PUSH1 0x11 PUSH1 0x4 MSTORE PUSH1 0x24 PUSH0 REVERT JUMPDEST PUSH0 PUSH2 0x5B3 DUP3 PUSH2 0x3AB JUMP JUMPDEST SWAP2 POP PUSH2 0x5BE DUP4 PUSH2 0x3AB JUMP JUMPDEST SWAP3 POP DUP3 DUP3 SUB SWAP1 POP DUP2 DUP2 GT ISZERO PUSH2 0x5D6 JUMPI PUSH2 0x5D5 PUSH2 0x57C JUMP JUMPDEST JUMPDEST SWAP3 SWAP2 POP POP JUMP JUMPDEST PUSH32 0x4465706F73697420616D6F756E74206D75737420626520677265617465722074 PUSH0 DUP3 ADD MSTORE PUSH32 0x68616E2030000000000000000000000000000000000000000000000000000000 PUSH1 0x20 DUP3 ADD MSTORE POP JUMP JUMPDEST PUSH0 PUSH2 0x636 PUSH1 0x25 DUP4 PUSH2 0x504 JUMP JUMPDEST SWAP2 POP PUSH2 0x641 DUP3 PUSH2 0x5DC JUMP JUMPDEST PUSH1 0x40 DUP3 ADD SWAP1 POP SWAP2 SWAP1 POP JUMP JUMPDEST PUSH0 PUSH1 0x20 DUP3 ADD SWAP1 POP DUP2 DUP2 SUB PUSH0 DUP4 ADD MSTORE PUSH2 0x663 DUP2 PUSH2 0x62A JUMP JUMPDEST SWAP1 POP SWAP2 SWAP1 POP JUMP JUMPDEST PUSH0 PUSH2 0x674 DUP3 PUSH2 0x3AB JUMP JUMPDEST SWAP2 POP PUSH2 0x67F DUP4 PUSH2 0x3AB JUMP JUMPDEST SWAP3 POP DUP3 DUP3 ADD SWAP1 POP DUP1 DUP3 GT ISZERO PUSH2 0x697 JUMPI PUSH2 0x696 PUSH2 0x57C JUMP JUMPDEST JUMPDEST SWAP3 SWAP2 POP POP JUMP INVALID LOG2 PUSH5 0x6970667358 0x22 SLT KECCAK256 0x4B COINBASE SUB 0xE4 0xE3 AND BLOBHASH CALLDATASIZE MCOPY SIGNEXTEND EQ DUP11 DUP15 0xC4 ADD SWAP14 0xEA PUSH16 0xD10710C94FC7024951FA39AABA986473 PUSH16 0x6C634300081C00330000000000000000 "
				},
				"gasEstimates": {
					"creation": {
						"codeDepositCost": "349400",
						"executionCost": "384",
						"totalCost": "349784"
					},
					"external": {
						"balances(address)": "2823",
						"deposit()": "infinite",
						"getBalance()": "2518",
						"getContractBalance()": "400",
						"getUserBalance(address)": "2872",
						"withdraw(uint256,address)": "infinite"
					}
				},
				"methodIdentifiers": {
					"balances(address)": "27e235e3",
					"deposit()": "d0e30db0",
					"getBalance()": "12065fe0",
					"getContractBalance()": "6f9fb98a",
					"getUserBalance(address)": "47734892",
					"withdraw(uint256,address)": "00f714ce"
				}
			},
			"storageLayout": {
				"storage": [
					{
						"astId": 5,
						"contract": "contracts/PRACTICE/SimpleBank.sol:SimpleBank",
						"label": "balances",
						"offset": 0,
						"slot": "0",
						"type": "t_mapping(t_address,t_uint256)"
					}
				],
				"types": {
					"t_address": {
						"encoding": "inplace",
						"label": "address",
						"numberOfBytes": "20"
					},
					"t_mapping(t_address,t_uint256)": {
						"encoding": "mapping",
						"key": "t_address",
						"label": "mapping(address => uint256)",
						"numberOfBytes": "32",
						"value": "t_uint256"
					},
					"t_uint256": {
						"encoding": "inplace",
						"label": "uint256",
						"numberOfBytes": "32"
					}
				}
			},
			"userdoc": {
				"kind": "user",
				"methods": {},
				"version": 1
			}
		}
	}
}