{
	"contracts/PRACTICE/L.C.M.sol": {
		"LCMCalculator": {
			"abi": [
				{
					"inputs": [
						{
							"internalType": "uint256",
							"name": "a",
							"type": "uint256"
						},
						{
							"internalType": "uint256",
							"name": "b",
							"type": "uint256"
						}
					],
					"name": "lcm",
					"outputs": [
						{
							"internalType": "uint256",
							"name": "result",
							"type": "uint256"
						}
					],
					"stateMutability": "pure",
					"type": "function"
				}
			],
			"devdoc": {
				"kind": "dev",
				"methods": {},
				"version": 1
			},
			"evm": {
				"assembly": "    /* \"contracts/PRACTICE/L.C.M.sol\":60:778  contract LCMCalculator {... */\n  mstore(0x40, 0x80)\n  callvalue\n  dup1\n  iszero\n  tag_1\n  jumpi\n  revert(0x00, 0x00)\ntag_1:\n  pop\n  dataSize(sub_0)\n  dup1\n  dataOffset(sub_0)\n  0x00\n  codecopy\n  0x00\n  return\nstop\n\nsub_0: assembly {\n        /* \"contracts/PRACTICE/L.C.M.sol\":60:778  contract LCMCalculator {... */\n      mstore(0x40, 0x80)\n      callvalue\n      dup1\n      iszero\n      tag_1\n      jumpi\n      revert(0x00, 0x00)\n    tag_1:\n      pop\n      jumpi(tag_2, lt(calldatasize, 0x04))\n      shr(0xe0, calldataload(0x00))\n      dup1\n      0x4471ad9d\n      eq\n      tag_3\n      jumpi\n    tag_2:\n      revert(0x00, 0x00)\n        /* \"contracts/PRACTICE/L.C.M.sol\":172:775  function lcm(uint a, uint b) public pure returns (uint result) {... */\n    tag_3:\n      tag_4\n      0x04\n      dup1\n      calldatasize\n      sub\n      dup2\n      add\n      swap1\n      tag_5\n      swap2\n      swap1\n      tag_6\n      jump\t// in\n    tag_5:\n      tag_7\n      jump\t// in\n    tag_4:\n      mload(0x40)\n      tag_8\n      swap2\n      swap1\n      tag_9\n      jump\t// in\n    tag_8:\n      mload(0x40)\n      dup1\n      swap2\n      sub\n      swap1\n      return\n    tag_7:\n        /* \"contracts/PRACTICE/L.C.M.sol\":222:233  uint result */\n      0x00\n        /* \"contracts/PRACTICE/L.C.M.sol\":246:254  uint max */\n      0x00\n        /* \"contracts/PRACTICE/L.C.M.sol\":261:262  b */\n      dup3\n        /* \"contracts/PRACTICE/L.C.M.sol\":257:258  a */\n      dup5\n        /* \"contracts/PRACTICE/L.C.M.sol\":257:262  a > b */\n      gt\n        /* \"contracts/PRACTICE/L.C.M.sol\":257:270  a > b ? a : b */\n      tag_11\n      jumpi\n        /* \"contracts/PRACTICE/L.C.M.sol\":269:270  b */\n      dup3\n        /* \"contracts/PRACTICE/L.C.M.sol\":257:270  a > b ? a : b */\n      jump(tag_12)\n    tag_11:\n        /* \"contracts/PRACTICE/L.C.M.sol\":265:266  a */\n      dup4\n        /* \"contracts/PRACTICE/L.C.M.sol\":257:270  a > b ? a : b */\n    tag_12:\n        /* \"contracts/PRACTICE/L.C.M.sol\":246:270  uint max = a > b ? a : b */\n      swap1\n      pop\n        /* \"contracts/PRACTICE/L.C.M.sol\":398:404  uint i */\n      0x00\n        /* \"contracts/PRACTICE/L.C.M.sol\":407:410  max */\n      dup2\n        /* \"contracts/PRACTICE/L.C.M.sol\":398:410  uint i = max */\n      swap1\n      pop\n        /* \"contracts/PRACTICE/L.C.M.sol\":393:604  for (uint i = max; i <= a * b; i += max) {... */\n    tag_13:\n        /* \"contracts/PRACTICE/L.C.M.sol\":421:422  b */\n      dup4\n        /* \"contracts/PRACTICE/L.C.M.sol\":417:418  a */\n      dup6\n        /* \"contracts/PRACTICE/L.C.M.sol\":417:422  a * b */\n      tag_16\n      swap2\n      swap1\n      tag_17\n      jump\t// in\n    tag_16:\n        /* \"contracts/PRACTICE/L.C.M.sol\":412:413  i */\n      dup2\n        /* \"contracts/PRACTICE/L.C.M.sol\":412:422  i <= a * b */\n      gt\n        /* \"contracts/PRACTICE/L.C.M.sol\":393:604  for (uint i = max; i <= a * b; i += max) {... */\n      tag_14\n      jumpi\n        /* \"contracts/PRACTICE/L.C.M.sol\":462:463  0 */\n      0x00\n        /* \"contracts/PRACTICE/L.C.M.sol\":457:458  a */\n      dup6\n        /* \"contracts/PRACTICE/L.C.M.sol\":453:454  i */\n      dup3\n        /* \"contracts/PRACTICE/L.C.M.sol\":453:458  i % a */\n      tag_18\n      swap2\n      swap1\n      tag_19\n      jump\t// in\n    tag_18:\n        /* \"contracts/PRACTICE/L.C.M.sol\":453:463  i % a == 0 */\n      eq\n        /* \"contracts/PRACTICE/L.C.M.sol\":453:477  i % a == 0 && i % b == 0 */\n      dup1\n      iszero\n      tag_20\n      jumpi\n      pop\n        /* \"contracts/PRACTICE/L.C.M.sol\":476:477  0 */\n      0x00\n        /* \"contracts/PRACTICE/L.C.M.sol\":471:472  b */\n      dup5\n        /* \"contracts/PRACTICE/L.C.M.sol\":467:468  i */\n      dup3\n        /* \"contracts/PRACTICE/L.C.M.sol\":467:472  i % b */\n      tag_21\n      swap2\n      swap1\n      tag_19\n      jump\t// in\n    tag_21:\n        /* \"contracts/PRACTICE/L.C.M.sol\":467:477  i % b == 0 */\n      eq\n        /* \"contracts/PRACTICE/L.C.M.sol\":453:477  i % a == 0 && i % b == 0 */\n    tag_20:\n        /* \"contracts/PRACTICE/L.C.M.sol\":449:593  if (i % a == 0 && i % b == 0) {... */\n      iszero\n      tag_22\n      jumpi\n        /* \"contracts/PRACTICE/L.C.M.sol\":505:506  i */\n      dup1\n        /* \"contracts/PRACTICE/L.C.M.sol\":498:506  return i */\n      swap3\n      pop\n      pop\n      pop\n      jump(tag_10)\n        /* \"contracts/PRACTICE/L.C.M.sol\":449:593  if (i % a == 0 && i % b == 0) {... */\n    tag_22:\n        /* \"contracts/PRACTICE/L.C.M.sol\":429:432  max */\n      dup2\n        /* \"contracts/PRACTICE/L.C.M.sol\":424:432  i += max */\n      dup2\n      tag_23\n      swap2\n      swap1\n      tag_24\n      jump\t// in\n    tag_23:\n      swap1\n      pop\n        /* \"contracts/PRACTICE/L.C.M.sol\":393:604  for (uint i = max; i <= a * b; i += max) {... */\n      jump(tag_13)\n    tag_14:\n      pop\n        /* \"contracts/PRACTICE/L.C.M.sol\":722:723  0 */\n      0x00\n        /* \"contracts/PRACTICE/L.C.M.sol\":715:723  return 0 */\n      swap2\n      pop\n      pop\n        /* \"contracts/PRACTICE/L.C.M.sol\":172:775  function lcm(uint a, uint b) public pure returns (uint result) {... */\n    tag_10:\n      swap3\n      swap2\n      pop\n      pop\n      jump\t// out\n        /* \"#utility.yul\":88:205   */\n    tag_26:\n        /* \"#utility.yul\":197:198   */\n      0x00\n        /* \"#utility.yul\":194:195   */\n      0x00\n        /* \"#utility.yul\":187:199   */\n      revert\n        /* \"#utility.yul\":334:411   */\n    tag_28:\n        /* \"#utility.yul\":371:378   */\n      0x00\n        /* \"#utility.yul\":400:405   */\n      dup2\n        /* \"#utility.yul\":389:405   */\n      swap1\n      pop\n        /* \"#utility.yul\":334:411   */\n      swap2\n      swap1\n      pop\n      jump\t// out\n        /* \"#utility.yul\":417:539   */\n    tag_29:\n        /* \"#utility.yul\":490:514   */\n      tag_40\n        /* \"#utility.yul\":508:513   */\n      dup2\n        /* \"#utility.yul\":490:514   */\n      tag_28\n      jump\t// in\n    tag_40:\n        /* \"#utility.yul\":483:488   */\n      dup2\n        /* \"#utility.yul\":480:515   */\n      eq\n        /* \"#utility.yul\":470:533   */\n      tag_41\n      jumpi\n        /* \"#utility.yul\":529:530   */\n      0x00\n        /* \"#utility.yul\":526:527   */\n      0x00\n        /* \"#utility.yul\":519:531   */\n      revert\n        /* \"#utility.yul\":470:533   */\n    tag_41:\n        /* \"#utility.yul\":417:539   */\n      pop\n      jump\t// out\n        /* \"#utility.yul\":545:684   */\n    tag_30:\n        /* \"#utility.yul\":591:596   */\n      0x00\n        /* \"#utility.yul\":629:635   */\n      dup2\n        /* \"#utility.yul\":616:636   */\n      calldataload\n        /* \"#utility.yul\":607:636   */\n      swap1\n      pop\n        /* \"#utility.yul\":645:678   */\n      tag_43\n        /* \"#utility.yul\":672:677   */\n      dup2\n        /* \"#utility.yul\":645:678   */\n      tag_29\n      jump\t// in\n    tag_43:\n        /* \"#utility.yul\":545:684   */\n      swap3\n      swap2\n      pop\n      pop\n      jump\t// out\n        /* \"#utility.yul\":690:1164   */\n    tag_6:\n        /* \"#utility.yul\":758:764   */\n      0x00\n        /* \"#utility.yul\":766:772   */\n      0x00\n        /* \"#utility.yul\":815:817   */\n      0x40\n        /* \"#utility.yul\":803:812   */\n      dup4\n        /* \"#utility.yul\":794:801   */\n      dup6\n        /* \"#utility.yul\":790:813   */\n      sub\n        /* \"#utility.yul\":786:818   */\n      slt\n        /* \"#utility.yul\":783:902   */\n      iszero\n      tag_45\n      jumpi\n        /* \"#utility.yul\":821:900   */\n      tag_46\n      tag_26\n      jump\t// in\n    tag_46:\n        /* \"#utility.yul\":783:902   */\n    tag_45:\n        /* \"#utility.yul\":941:942   */\n      0x00\n        /* \"#utility.yul\":966:1019   */\n      tag_47\n        /* \"#utility.yul\":1011:1018   */\n      dup6\n        /* \"#utility.yul\":1002:1008   */\n      dup3\n        /* \"#utility.yul\":991:1000   */\n      dup7\n        /* \"#utility.yul\":987:1009   */\n      add\n        /* \"#utility.yul\":966:1019   */\n      tag_30\n      jump\t// in\n    tag_47:\n        /* \"#utility.yul\":956:1019   */\n      swap3\n      pop\n        /* \"#utility.yul\":912:1029   */\n      pop\n        /* \"#utility.yul\":1068:1070   */\n      0x20\n        /* \"#utility.yul\":1094:1147   */\n      tag_48\n        /* \"#utility.yul\":1139:1146   */\n      dup6\n        /* \"#utility.yul\":1130:1136   */\n      dup3\n        /* \"#utility.yul\":1119:1128   */\n      dup7\n        /* \"#utility.yul\":1115:1137   */\n      add\n        /* \"#utility.yul\":1094:1147   */\n      tag_30\n      jump\t// in\n    tag_48:\n        /* \"#utility.yul\":1084:1147   */\n      swap2\n      pop\n        /* \"#utility.yul\":1039:1157   */\n      pop\n        /* \"#utility.yul\":690:1164   */\n      swap3\n      pop\n      swap3\n      swap1\n      pop\n      jump\t// out\n        /* \"#utility.yul\":1170:1288   */\n    tag_31:\n        /* \"#utility.yul\":1257:1281   */\n      tag_50\n        /* \"#utility.yul\":1275:1280   */\n      dup2\n        /* \"#utility.yul\":1257:1281   */\n      tag_28\n      jump\t// in\n    tag_50:\n        /* \"#utility.yul\":1252:1255   */\n      dup3\n        /* \"#utility.yul\":1245:1282   */\n      mstore\n        /* \"#utility.yul\":1170:1288   */\n      pop\n      pop\n      jump\t// out\n        /* \"#utility.yul\":1294:1516   */\n    tag_9:\n        /* \"#utility.yul\":1387:1391   */\n      0x00\n        /* \"#utility.yul\":1425:1427   */\n      0x20\n        /* \"#utility.yul\":1414:1423   */\n      dup3\n        /* \"#utility.yul\":1410:1428   */\n      add\n        /* \"#utility.yul\":1402:1428   */\n      swap1\n      pop\n        /* \"#utility.yul\":1438:1509   */\n      tag_52\n        /* \"#utility.yul\":1506:1507   */\n      0x00\n        /* \"#utility.yul\":1495:1504   */\n      dup4\n        /* \"#utility.yul\":1491:1508   */\n      add\n        /* \"#utility.yul\":1482:1488   */\n      dup5\n        /* \"#utility.yul\":1438:1509   */\n      tag_31\n      jump\t// in\n    tag_52:\n        /* \"#utility.yul\":1294:1516   */\n      swap3\n      swap2\n      pop\n      pop\n      jump\t// out\n        /* \"#utility.yul\":1522:1702   */\n    tag_32:\n        /* \"#utility.yul\":1570:1647   */\n      0x4e487b7100000000000000000000000000000000000000000000000000000000\n        /* \"#utility.yul\":1567:1568   */\n      0x00\n        /* \"#utility.yul\":1560:1648   */\n      mstore\n        /* \"#utility.yul\":1667:1671   */\n      0x11\n        /* \"#utility.yul\":1664:1665   */\n      0x04\n        /* \"#utility.yul\":1657:1672   */\n      mstore\n        /* \"#utility.yul\":1691:1695   */\n      0x24\n        /* \"#utility.yul\":1688:1689   */\n      0x00\n        /* \"#utility.yul\":1681:1696   */\n      revert\n        /* \"#utility.yul\":1708:2118   */\n    tag_17:\n        /* \"#utility.yul\":1748:1755   */\n      0x00\n        /* \"#utility.yul\":1771:1791   */\n      tag_55\n        /* \"#utility.yul\":1789:1790   */\n      dup3\n        /* \"#utility.yul\":1771:1791   */\n      tag_28\n      jump\t// in\n    tag_55:\n        /* \"#utility.yul\":1766:1791   */\n      swap2\n      pop\n        /* \"#utility.yul\":1805:1825   */\n      tag_56\n        /* \"#utility.yul\":1823:1824   */\n      dup4\n        /* \"#utility.yul\":1805:1825   */\n      tag_28\n      jump\t// in\n    tag_56:\n        /* \"#utility.yul\":1800:1825   */\n      swap3\n      pop\n        /* \"#utility.yul\":1860:1861   */\n      dup3\n        /* \"#utility.yul\":1857:1858   */\n      dup3\n        /* \"#utility.yul\":1853:1862   */\n      mul\n        /* \"#utility.yul\":1882:1912   */\n      tag_57\n        /* \"#utility.yul\":1900:1911   */\n      dup2\n        /* \"#utility.yul\":1882:1912   */\n      tag_28\n      jump\t// in\n    tag_57:\n        /* \"#utility.yul\":1871:1912   */\n      swap2\n      pop\n        /* \"#utility.yul\":2061:2062   */\n      dup3\n        /* \"#utility.yul\":2052:2059   */\n      dup3\n        /* \"#utility.yul\":2048:2063   */\n      div\n        /* \"#utility.yul\":2045:2046   */\n      dup5\n        /* \"#utility.yul\":2042:2064   */\n      eq\n        /* \"#utility.yul\":2022:2023   */\n      dup4\n        /* \"#utility.yul\":2015:2024   */\n      iszero\n        /* \"#utility.yul\":1995:2078   */\n      or\n        /* \"#utility.yul\":1972:2111   */\n      tag_58\n      jumpi\n        /* \"#utility.yul\":2091:2109   */\n      tag_59\n      tag_32\n      jump\t// in\n    tag_59:\n        /* \"#utility.yul\":1972:2111   */\n    tag_58:\n        /* \"#utility.yul\":1756:2118   */\n      pop\n        /* \"#utility.yul\":1708:2118   */\n      swap3\n      swap2\n      pop\n      pop\n      jump\t// out\n        /* \"#utility.yul\":2124:2304   */\n    tag_33:\n        /* \"#utility.yul\":2172:2249   */\n      0x4e487b7100000000000000000000000000000000000000000000000000000000\n        /* \"#utility.yul\":2169:2170   */\n      0x00\n        /* \"#utility.yul\":2162:2250   */\n      mstore\n        /* \"#utility.yul\":2269:2273   */\n      0x12\n        /* \"#utility.yul\":2266:2267   */\n      0x04\n        /* \"#utility.yul\":2259:2274   */\n      mstore\n        /* \"#utility.yul\":2293:2297   */\n      0x24\n        /* \"#utility.yul\":2290:2291   */\n      0x00\n        /* \"#utility.yul\":2283:2298   */\n      revert\n        /* \"#utility.yul\":2310:2486   */\n    tag_19:\n        /* \"#utility.yul\":2342:2343   */\n      0x00\n        /* \"#utility.yul\":2359:2379   */\n      tag_62\n        /* \"#utility.yul\":2377:2378   */\n      dup3\n        /* \"#utility.yul\":2359:2379   */\n      tag_28\n      jump\t// in\n    tag_62:\n        /* \"#utility.yul\":2354:2379   */\n      swap2\n      pop\n        /* \"#utility.yul\":2393:2413   */\n      tag_63\n        /* \"#utility.yul\":2411:2412   */\n      dup4\n        /* \"#utility.yul\":2393:2413   */\n      tag_28\n      jump\t// in\n    tag_63:\n        /* \"#utility.yul\":2388:2413   */\n      swap3\n      pop\n        /* \"#utility.yul\":2432:2433   */\n      dup3\n        /* \"#utility.yul\":2422:2457   */\n      tag_64\n      jumpi\n        /* \"#utility.yul\":2437:2455   */\n      tag_65\n      tag_33\n      jump\t// in\n    tag_65:\n        /* \"#utility.yul\":2422:2457   */\n    tag_64:\n        /* \"#utility.yul\":2478:2479   */\n      dup3\n        /* \"#utility.yul\":2475:2476   */\n      dup3\n        /* \"#utility.yul\":2471:2480   */\n      mod\n        /* \"#utility.yul\":2466:2480   */\n      swap1\n      pop\n        /* \"#utility.yul\":2310:2486   */\n      swap3\n      swap2\n      pop\n      pop\n      jump\t// out\n        /* \"#utility.yul\":2492:2683   */\n    tag_24:\n        /* \"#utility.yul\":2532:2535   */\n      0x00\n        /* \"#utility.yul\":2551:2571   */\n      tag_67\n        /* \"#utility.yul\":2569:2570   */\n      dup3\n        /* \"#utility.yul\":2551:2571   */\n      tag_28\n      jump\t// in\n    tag_67:\n        /* \"#utility.yul\":2546:2571   */\n      swap2\n      pop\n        /* \"#utility.yul\":2585:2605   */\n      tag_68\n        /* \"#utility.yul\":2603:2604   */\n      dup4\n        /* \"#utility.yul\":2585:2605   */\n      tag_28\n      jump\t// in\n    tag_68:\n        /* \"#utility.yul\":2580:2605   */\n      swap3\n      pop\n        /* \"#utility.yul\":2628:2629   */\n      dup3\n        /* \"#utility.yul\":2625:2626   */\n      dup3\n        /* \"#utility.yul\":2621:2630   */\n      add\n        /* \"#utility.yul\":2614:2630   */\n      swap1\n      pop\n        /* \"#utility.yul\":2649:2652   */\n      dup1\n        /* \"#utility.yul\":2646:2647   */\n      dup3\n        /* \"#utility.yul\":2643:2653   */\n      gt\n        /* \"#utility.yul\":2640:2676   */\n      iszero\n      tag_69\n      jumpi\n        /* \"#utility.yul\":2656:2674   */\n      tag_70\n      tag_32\n      jump\t// in\n    tag_70:\n        /* \"#utility.yul\":2640:2676   */\n    tag_69:\n        /* \"#utility.yul\":2492:2683   */\n      swap3\n      swap2\n      pop\n      pop\n      jump\t// out\n\n    auxdata: 0xa26469706673582212200711bb6e915f3ccd89916f7840ebf8312bf6446ba3e8ef79e6d9699d7fe091c964736f6c634300081c0033\n}\n",
				"bytecode": {
					"linkReferences": {},
					"object": "6080604052348015600e575f5ffd5b506102aa8061001c5f395ff3fe608060405234801561000f575f5ffd5b5060043610610029575f3560e01c80634471ad9d1461002d575b5f5ffd5b61004760048036038101906100429190610110565b61005d565b604051610054919061015d565b60405180910390f35b5f5f82841161006c578261006e565b835b90505f8190505b838561008191906101a3565b81116100cd575f85826100949190610211565b1480156100ab57505f84826100a99190610211565b145b156100ba5780925050506100d3565b81816100c69190610241565b9050610075565b505f9150505b92915050565b5f5ffd5b5f819050919050565b6100ef816100dd565b81146100f9575f5ffd5b50565b5f8135905061010a816100e6565b92915050565b5f5f60408385031215610126576101256100d9565b5b5f610133858286016100fc565b9250506020610144858286016100fc565b9150509250929050565b610157816100dd565b82525050565b5f6020820190506101705f83018461014e565b92915050565b7f4e487b71000000000000000000000000000000000000000000000000000000005f52601160045260245ffd5b5f6101ad826100dd565b91506101b8836100dd565b92508282026101c6816100dd565b915082820484148315176101dd576101dc610176565b5b5092915050565b7f4e487b71000000000000000000000000000000000000000000000000000000005f52601260045260245ffd5b5f61021b826100dd565b9150610226836100dd565b925082610236576102356101e4565b5b828206905092915050565b5f61024b826100dd565b9150610256836100dd565b925082820190508082111561026e5761026d610176565b5b9291505056fea26469706673582212200711bb6e915f3ccd89916f7840ebf8312bf6446ba3e8ef79e6d9699d7fe091c964736f6c634300081c0033",
					"opcodes": "PUSH1 0x80 PUSH1 0x40 MSTORE CALLVALUE DUP1 ISZERO PUSH1 0xE JUMPI PUSH0 PUSH0 REVERT JUMPDEST POP PUSH2 0x2AA DUP1 PUSH2 0x1C PUSH0 CODECOPY PUSH0 RETURN INVALID PUSH1 0x80 PUSH1 0x40 MSTORE CALLVALUE DUP1 ISZERO PUSH2 0xF JUMPI PUSH0 PUSH0 REVERT JUMPDEST POP PUSH1 0x4 CALLDATASIZE LT PUSH2 0x29 JUMPI PUSH0 CALLDATALOAD PUSH1 0xE0 SHR DUP1 PUSH4 0x4471AD9D EQ PUSH2 0x2D JUMPI JUMPDEST PUSH0 PUSH0 REVERT JUMPDEST PUSH2 0x47 PUSH1 0x4 DUP1 CALLDATASIZE SUB DUP2 ADD SWAP1 PUSH2 0x42 SWAP2 SWAP1 PUSH2 0x110 JUMP JUMPDEST PUSH2 0x5D JUMP JUMPDEST PUSH1 0x40 MLOAD PUSH2 0x54 SWAP2 SWAP1 PUSH2 0x15D JUMP JUMPDEST PUSH1 0x40 MLOAD DUP1 SWAP2 SUB SWAP1 RETURN JUMPDEST PUSH0 PUSH0 DUP3 DUP5 GT PUSH2 0x6C JUMPI DUP3 PUSH2 0x6E JUMP JUMPDEST DUP4 JUMPDEST SWAP1 POP PUSH0 DUP2 SWAP1 POP JUMPDEST DUP4 DUP6 PUSH2 0x81 SWAP2 SWAP1 PUSH2 0x1A3 JUMP JUMPDEST DUP2 GT PUSH2 0xCD JUMPI PUSH0 DUP6 DUP3 PUSH2 0x94 SWAP2 SWAP1 PUSH2 0x211 JUMP JUMPDEST EQ DUP1 ISZERO PUSH2 0xAB JUMPI POP PUSH0 DUP5 DUP3 PUSH2 0xA9 SWAP2 SWAP1 PUSH2 0x211 JUMP JUMPDEST EQ JUMPDEST ISZERO PUSH2 0xBA JUMPI DUP1 SWAP3 POP POP POP PUSH2 0xD3 JUMP JUMPDEST DUP2 DUP2 PUSH2 0xC6 SWAP2 SWAP1 PUSH2 0x241 JUMP JUMPDEST SWAP1 POP PUSH2 0x75 JUMP JUMPDEST POP PUSH0 SWAP2 POP POP JUMPDEST SWAP3 SWAP2 POP POP JUMP JUMPDEST PUSH0 PUSH0 REVERT JUMPDEST PUSH0 DUP2 SWAP1 POP SWAP2 SWAP1 POP JUMP JUMPDEST PUSH2 0xEF DUP2 PUSH2 0xDD JUMP JUMPDEST DUP2 EQ PUSH2 0xF9 JUMPI PUSH0 PUSH0 REVERT JUMPDEST POP JUMP JUMPDEST PUSH0 DUP2 CALLDATALOAD SWAP1 POP PUSH2 0x10A DUP2 PUSH2 0xE6 JUMP JUMPDEST SWAP3 SWAP2 POP POP JUMP JUMPDEST PUSH0 PUSH0 PUSH1 0x40 DUP4 DUP6 SUB SLT ISZERO PUSH2 0x126 JUMPI PUSH2 0x125 PUSH2 0xD9 JUMP JUMPDEST JUMPDEST PUSH0 PUSH2 0x133 DUP6 DUP3 DUP7 ADD PUSH2 0xFC JUMP JUMPDEST SWAP3 POP POP PUSH1 0x20 PUSH2 0x144 DUP6 DUP3 DUP7 ADD PUSH2 0xFC JUMP JUMPDEST SWAP2 POP POP SWAP3 POP SWAP3 SWAP1 POP JUMP JUMPDEST PUSH2 0x157 DUP2 PUSH2 0xDD JUMP JUMPDEST DUP3 MSTORE POP POP JUMP JUMPDEST PUSH0 PUSH1 0x20 DUP3 ADD SWAP1 POP PUSH2 0x170 PUSH0 DUP4 ADD DUP5 PUSH2 0x14E JUMP JUMPDEST SWAP3 SWAP2 POP POP JUMP JUMPDEST PUSH32 0x4E487B7100000000000000000000000000000000000000000000000000000000 PUSH0 MSTORE PUSH1 0x11 PUSH1 0x4 MSTORE PUSH1 0x24 PUSH0 REVERT JUMPDEST PUSH0 PUSH2 0x1AD DUP3 PUSH2 0xDD JUMP JUMPDEST SWAP2 POP PUSH2 0x1B8 DUP4 PUSH2 0xDD JUMP JUMPDEST SWAP3 POP DUP3 DUP3 MUL PUSH2 0x1C6 DUP2 PUSH2 0xDD JUMP JUMPDEST SWAP2 POP DUP3 DUP3 DIV DUP5 EQ DUP4 ISZERO OR PUSH2 0x1DD JUMPI PUSH2 0x1DC PUSH2 0x176 JUMP JUMPDEST JUMPDEST POP SWAP3 SWAP2 POP POP JUMP JUMPDEST PUSH32 0x4E487B7100000000000000000000000000000000000000000000000000000000 PUSH0 MSTORE PUSH1 0x12 PUSH1 0x4 MSTORE PUSH1 0x24 PUSH0 REVERT JUMPDEST PUSH0 PUSH2 0x21B DUP3 PUSH2 0xDD JUMP JUMPDEST SWAP2 POP PUSH2 0x226 DUP4 PUSH2 0xDD JUMP JUMPDEST SWAP3 POP DUP3 PUSH2 0x236 JUMPI PUSH2 0x235 PUSH2 0x1E4 JUMP JUMPDEST JUMPDEST DUP3 DUP3 MOD SWAP1 POP SWAP3 SWAP2 POP POP JUMP JUMPDEST PUSH0 PUSH2 0x24B DUP3 PUSH2 0xDD JUMP JUMPDEST SWAP2 POP PUSH2 0x256 DUP4 PUSH2 0xDD JUMP JUMPDEST SWAP3 POP DUP3 DUP3 ADD SWAP1 POP DUP1 DUP3 GT ISZERO PUSH2 0x26E JUMPI PUSH2 0x26D PUSH2 0x176 JUMP JUMPDEST JUMPDEST SWAP3 SWAP2 POP POP JUMP INVALID LOG2 PUSH5 0x6970667358 0x22 SLT KECCAK256 SMOD GT 0xBB PUSH15 0x915F3CCD89916F7840EBF8312BF644 PUSH12 0xA3E8EF79E6D9699D7FE091C9 PUSH5 0x736F6C6343 STOP ADDMOD SHR STOP CALLER "
				},
				"gasEstimates": {
					"creation": {
						"codeDepositCost": "136400",
						"executionCost": "181",
						"totalCost": "136581"
					},
					"external": {
						"lcm(uint256,uint256)": "infinite"
					}
				},
				"methodIdentifiers": {
					"lcm(uint256,uint256)": "4471ad9d"
				}
			},
			"storageLayout": {
				"storage": [],
				"types": null
			},
			"userdoc": {
				"kind": "user",
				"methods": {},
				"version": 1
			}
		}
	}
}