{
	"contracts/PRACTICE/Basic Calculator.sol": {
		"Calculator": {
			"abi": [
				{
					"inputs": [
						{
							"internalType": "uint256",
							"name": "a",
							"type": "uint256"
						},
						{
							"internalType": "uint256",
							"name": "b",
							"type": "uint256"
						}
					],
					"name": "add",
					"outputs": [
						{
							"internalType": "uint256",
							"name": "",
							"type": "uint256"
						}
					],
					"stateMutability": "pure",
					"type": "function"
				},
				{
					"inputs": [
						{
							"internalType": "uint256",
							"name": "a",
							"type": "uint256"
						},
						{
							"internalType": "uint256",
							"name": "b",
							"type": "uint256"
						}
					],
					"name": "div",
					"outputs": [
						{
							"internalType": "uint256",
							"name": "",
							"type": "uint256"
						}
					],
					"stateMutability": "pure",
					"type": "function"
				},
				{
					"inputs": [
						{
							"internalType": "uint256",
							"name": "a",
							"type": "uint256"
						},
						{
							"internalType": "uint256",
							"name": "b",
							"type": "uint256"
						}
					],
					"name": "mod",
					"outputs": [
						{
							"internalType": "uint256",
							"name": "",
							"type": "uint256"
						}
					],
					"stateMutability": "pure",
					"type": "function"
				},
				{
					"inputs": [
						{
							"internalType": "uint256",
							"name": "a",
							"type": "uint256"
						},
						{
							"internalType": "uint256",
							"name": "b",
							"type": "uint256"
						}
					],
					"name": "mul",
					"outputs": [
						{
							"internalType": "uint256",
							"name": "",
							"type": "uint256"
						}
					],
					"stateMutability": "pure",
					"type": "function"
				},
				{
					"inputs": [
						{
							"internalType": "uint256",
							"name": "a",
							"type": "uint256"
						},
						{
							"internalType": "uint256",
							"name": "b",
							"type": "uint256"
						}
					],
					"name": "pow",
					"outputs": [
						{
							"internalType": "uint256",
							"name": "",
							"type": "uint256"
						}
					],
					"stateMutability": "pure",
					"type": "function"
				},
				{
					"inputs": [
						{
							"internalType": "uint256",
							"name": "a",
							"type": "uint256"
						},
						{
							"internalType": "uint256",
							"name": "b",
							"type": "uint256"
						}
					],
					"name": "sub",
					"outputs": [
						{
							"internalType": "uint256",
							"name": "",
							"type": "uint256"
						}
					],
					"stateMutability": "pure",
					"type": "function"
				}
			],
			"devdoc": {
				"kind": "dev",
				"methods": {},
				"version": 1
			},
			"evm": {
				"assembly": "    /* \"contracts/PRACTICE/Basic Calculator.sol\":59:615  contract Calculator{... */\n  mstore(0x40, 0x80)\n  callvalue\n  dup1\n  iszero\n  tag_1\n  jumpi\n  revert(0x00, 0x00)\ntag_1:\n  pop\n  dataSize(sub_0)\n  dup1\n  dataOffset(sub_0)\n  0x00\n  codecopy\n  0x00\n  return\nstop\n\nsub_0: assembly {\n        /* \"contracts/PRACTICE/Basic Calculator.sol\":59:615  contract Calculator{... */\n      mstore(0x40, 0x80)\n      callvalue\n      dup1\n      iszero\n      tag_1\n      jumpi\n      revert(0x00, 0x00)\n    tag_1:\n      pop\n      jumpi(tag_2, lt(calldatasize, 0x04))\n      shr(0xe0, calldataload(0x00))\n      dup1\n      0x2e4c697f\n      eq\n      tag_3\n      jumpi\n      dup1\n      0x771602f7\n      eq\n      tag_4\n      jumpi\n      dup1\n      0xa391c15b\n      eq\n      tag_5\n      jumpi\n      dup1\n      0xb67d77c5\n      eq\n      tag_6\n      jumpi\n      dup1\n      0xc8a4ac9c\n      eq\n      tag_7\n      jumpi\n      dup1\n      0xf43f523a\n      eq\n      tag_8\n      jumpi\n    tag_2:\n      revert(0x00, 0x00)\n        /* \"contracts/PRACTICE/Basic Calculator.sol\":425:503  function pow(uint a , uint b ) public pure returns(uint){... */\n    tag_3:\n      tag_9\n      0x04\n      dup1\n      calldatasize\n      sub\n      dup2\n      add\n      swap1\n      tag_10\n      swap2\n      swap1\n      tag_11\n      jump\t// in\n    tag_10:\n      tag_12\n      jump\t// in\n    tag_9:\n      mload(0x40)\n      tag_13\n      swap2\n      swap1\n      tag_14\n      jump\t// in\n    tag_13:\n      mload(0x40)\n      dup1\n      swap2\n      sub\n      swap1\n      return\n        /* \"contracts/PRACTICE/Basic Calculator.sol\":85:162  function add(uint a , uint b ) public pure returns(uint){... */\n    tag_4:\n      tag_15\n      0x04\n      dup1\n      calldatasize\n      sub\n      dup2\n      add\n      swap1\n      tag_16\n      swap2\n      swap1\n      tag_11\n      jump\t// in\n    tag_16:\n      tag_17\n      jump\t// in\n    tag_15:\n      mload(0x40)\n      tag_18\n      swap2\n      swap1\n      tag_14\n      jump\t// in\n    tag_18:\n      mload(0x40)\n      dup1\n      swap2\n      sub\n      swap1\n      return\n        /* \"contracts/PRACTICE/Basic Calculator.sol\":338:415  function div(uint a , uint b ) public pure returns(uint){... */\n    tag_5:\n      tag_19\n      0x04\n      dup1\n      calldatasize\n      sub\n      dup2\n      add\n      swap1\n      tag_20\n      swap2\n      swap1\n      tag_11\n      jump\t// in\n    tag_20:\n      tag_21\n      jump\t// in\n    tag_19:\n      mload(0x40)\n      tag_22\n      swap2\n      swap1\n      tag_14\n      jump\t// in\n    tag_22:\n      mload(0x40)\n      dup1\n      swap2\n      sub\n      swap1\n      return\n        /* \"contracts/PRACTICE/Basic Calculator.sol\":255:332  function sub(uint a , uint b ) public pure returns(uint){... */\n    tag_6:\n      tag_23\n      0x04\n      dup1\n      calldatasize\n      sub\n      dup2\n      add\n      swap1\n      tag_24\n      swap2\n      swap1\n      tag_11\n      jump\t// in\n    tag_24:\n      tag_25\n      jump\t// in\n    tag_23:\n      mload(0x40)\n      tag_26\n      swap2\n      swap1\n      tag_14\n      jump\t// in\n    tag_26:\n      mload(0x40)\n      dup1\n      swap2\n      sub\n      swap1\n      return\n        /* \"contracts/PRACTICE/Basic Calculator.sol\":172:249  function mul(uint a , uint b ) public pure returns(uint){... */\n    tag_7:\n      tag_27\n      0x04\n      dup1\n      calldatasize\n      sub\n      dup2\n      add\n      swap1\n      tag_28\n      swap2\n      swap1\n      tag_11\n      jump\t// in\n    tag_28:\n      tag_29\n      jump\t// in\n    tag_27:\n      mload(0x40)\n      tag_30\n      swap2\n      swap1\n      tag_14\n      jump\t// in\n    tag_30:\n      mload(0x40)\n      dup1\n      swap2\n      sub\n      swap1\n      return\n        /* \"contracts/PRACTICE/Basic Calculator.sol\":513:590  function mod(uint a , uint b ) public pure returns(uint){... */\n    tag_8:\n      tag_31\n      0x04\n      dup1\n      calldatasize\n      sub\n      dup2\n      add\n      swap1\n      tag_32\n      swap2\n      swap1\n      tag_11\n      jump\t// in\n    tag_32:\n      tag_33\n      jump\t// in\n    tag_31:\n      mload(0x40)\n      tag_34\n      swap2\n      swap1\n      tag_14\n      jump\t// in\n    tag_34:\n      mload(0x40)\n      dup1\n      swap2\n      sub\n      swap1\n      return\n        /* \"contracts/PRACTICE/Basic Calculator.sol\":425:503  function pow(uint a , uint b ) public pure returns(uint){... */\n    tag_12:\n        /* \"contracts/PRACTICE/Basic Calculator.sol\":476:480  uint */\n      0x00\n        /* \"contracts/PRACTICE/Basic Calculator.sol\":494:495  b */\n      dup2\n        /* \"contracts/PRACTICE/Basic Calculator.sol\":491:492  a */\n      dup4\n        /* \"contracts/PRACTICE/Basic Calculator.sol\":491:495  a**b */\n      tag_36\n      swap2\n      swap1\n      tag_37\n      jump\t// in\n    tag_36:\n        /* \"contracts/PRACTICE/Basic Calculator.sol\":484:495  return a**b */\n      swap1\n      pop\n        /* \"contracts/PRACTICE/Basic Calculator.sol\":425:503  function pow(uint a , uint b ) public pure returns(uint){... */\n      swap3\n      swap2\n      pop\n      pop\n      jump\t// out\n        /* \"contracts/PRACTICE/Basic Calculator.sol\":85:162  function add(uint a , uint b ) public pure returns(uint){... */\n    tag_17:\n        /* \"contracts/PRACTICE/Basic Calculator.sol\":136:140  uint */\n      0x00\n        /* \"contracts/PRACTICE/Basic Calculator.sol\":153:154  b */\n      dup2\n        /* \"contracts/PRACTICE/Basic Calculator.sol\":151:152  a */\n      dup4\n        /* \"contracts/PRACTICE/Basic Calculator.sol\":151:154  a+b */\n      tag_39\n      swap2\n      swap1\n      tag_40\n      jump\t// in\n    tag_39:\n        /* \"contracts/PRACTICE/Basic Calculator.sol\":144:154  return a+b */\n      swap1\n      pop\n        /* \"contracts/PRACTICE/Basic Calculator.sol\":85:162  function add(uint a , uint b ) public pure returns(uint){... */\n      swap3\n      swap2\n      pop\n      pop\n      jump\t// out\n        /* \"contracts/PRACTICE/Basic Calculator.sol\":338:415  function div(uint a , uint b ) public pure returns(uint){... */\n    tag_21:\n        /* \"contracts/PRACTICE/Basic Calculator.sol\":389:393  uint */\n      0x00\n        /* \"contracts/PRACTICE/Basic Calculator.sol\":406:407  b */\n      dup2\n        /* \"contracts/PRACTICE/Basic Calculator.sol\":404:405  a */\n      dup4\n        /* \"contracts/PRACTICE/Basic Calculator.sol\":404:407  a/b */\n      tag_42\n      swap2\n      swap1\n      tag_43\n      jump\t// in\n    tag_42:\n        /* \"contracts/PRACTICE/Basic Calculator.sol\":397:407  return a/b */\n      swap1\n      pop\n        /* \"contracts/PRACTICE/Basic Calculator.sol\":338:415  function div(uint a , uint b ) public pure returns(uint){... */\n      swap3\n      swap2\n      pop\n      pop\n      jump\t// out\n        /* \"contracts/PRACTICE/Basic Calculator.sol\":255:332  function sub(uint a , uint b ) public pure returns(uint){... */\n    tag_25:\n        /* \"contracts/PRACTICE/Basic Calculator.sol\":306:310  uint */\n      0x00\n        /* \"contracts/PRACTICE/Basic Calculator.sol\":323:324  b */\n      dup2\n        /* \"contracts/PRACTICE/Basic Calculator.sol\":321:322  a */\n      dup4\n        /* \"contracts/PRACTICE/Basic Calculator.sol\":321:324  a-b */\n      tag_45\n      swap2\n      swap1\n      tag_46\n      jump\t// in\n    tag_45:\n        /* \"contracts/PRACTICE/Basic Calculator.sol\":314:324  return a-b */\n      swap1\n      pop\n        /* \"contracts/PRACTICE/Basic Calculator.sol\":255:332  function sub(uint a , uint b ) public pure returns(uint){... */\n      swap3\n      swap2\n      pop\n      pop\n      jump\t// out\n        /* \"contracts/PRACTICE/Basic Calculator.sol\":172:249  function mul(uint a , uint b ) public pure returns(uint){... */\n    tag_29:\n        /* \"contracts/PRACTICE/Basic Calculator.sol\":223:227  uint */\n      0x00\n        /* \"contracts/PRACTICE/Basic Calculator.sol\":240:241  b */\n      dup2\n        /* \"contracts/PRACTICE/Basic Calculator.sol\":238:239  a */\n      dup4\n        /* \"contracts/PRACTICE/Basic Calculator.sol\":238:241  a*b */\n      tag_48\n      swap2\n      swap1\n      tag_49\n      jump\t// in\n    tag_48:\n        /* \"contracts/PRACTICE/Basic Calculator.sol\":231:241  return a*b */\n      swap1\n      pop\n        /* \"contracts/PRACTICE/Basic Calculator.sol\":172:249  function mul(uint a , uint b ) public pure returns(uint){... */\n      swap3\n      swap2\n      pop\n      pop\n      jump\t// out\n        /* \"contracts/PRACTICE/Basic Calculator.sol\":513:590  function mod(uint a , uint b ) public pure returns(uint){... */\n    tag_33:\n        /* \"contracts/PRACTICE/Basic Calculator.sol\":564:568  uint */\n      0x00\n        /* \"contracts/PRACTICE/Basic Calculator.sol\":581:582  b */\n      dup2\n        /* \"contracts/PRACTICE/Basic Calculator.sol\":579:580  a */\n      dup4\n        /* \"contracts/PRACTICE/Basic Calculator.sol\":579:582  a%b */\n      tag_51\n      swap2\n      swap1\n      tag_52\n      jump\t// in\n    tag_51:\n        /* \"contracts/PRACTICE/Basic Calculator.sol\":572:582  return a%b */\n      swap1\n      pop\n        /* \"contracts/PRACTICE/Basic Calculator.sol\":513:590  function mod(uint a , uint b ) public pure returns(uint){... */\n      swap3\n      swap2\n      pop\n      pop\n      jump\t// out\n        /* \"#utility.yul\":88:205   */\n    tag_54:\n        /* \"#utility.yul\":197:198   */\n      0x00\n        /* \"#utility.yul\":194:195   */\n      0x00\n        /* \"#utility.yul\":187:199   */\n      revert\n        /* \"#utility.yul\":334:411   */\n    tag_56:\n        /* \"#utility.yul\":371:378   */\n      0x00\n        /* \"#utility.yul\":400:405   */\n      dup2\n        /* \"#utility.yul\":389:405   */\n      swap1\n      pop\n        /* \"#utility.yul\":334:411   */\n      swap2\n      swap1\n      pop\n      jump\t// out\n        /* \"#utility.yul\":417:539   */\n    tag_57:\n        /* \"#utility.yul\":490:514   */\n      tag_71\n        /* \"#utility.yul\":508:513   */\n      dup2\n        /* \"#utility.yul\":490:514   */\n      tag_56\n      jump\t// in\n    tag_71:\n        /* \"#utility.yul\":483:488   */\n      dup2\n        /* \"#utility.yul\":480:515   */\n      eq\n        /* \"#utility.yul\":470:533   */\n      tag_72\n      jumpi\n        /* \"#utility.yul\":529:530   */\n      0x00\n        /* \"#utility.yul\":526:527   */\n      0x00\n        /* \"#utility.yul\":519:531   */\n      revert\n        /* \"#utility.yul\":470:533   */\n    tag_72:\n        /* \"#utility.yul\":417:539   */\n      pop\n      jump\t// out\n        /* \"#utility.yul\":545:684   */\n    tag_58:\n        /* \"#utility.yul\":591:596   */\n      0x00\n        /* \"#utility.yul\":629:635   */\n      dup2\n        /* \"#utility.yul\":616:636   */\n      calldataload\n        /* \"#utility.yul\":607:636   */\n      swap1\n      pop\n        /* \"#utility.yul\":645:678   */\n      tag_74\n        /* \"#utility.yul\":672:677   */\n      dup2\n        /* \"#utility.yul\":645:678   */\n      tag_57\n      jump\t// in\n    tag_74:\n        /* \"#utility.yul\":545:684   */\n      swap3\n      swap2\n      pop\n      pop\n      jump\t// out\n        /* \"#utility.yul\":690:1164   */\n    tag_11:\n        /* \"#utility.yul\":758:764   */\n      0x00\n        /* \"#utility.yul\":766:772   */\n      0x00\n        /* \"#utility.yul\":815:817   */\n      0x40\n        /* \"#utility.yul\":803:812   */\n      dup4\n        /* \"#utility.yul\":794:801   */\n      dup6\n        /* \"#utility.yul\":790:813   */\n      sub\n        /* \"#utility.yul\":786:818   */\n      slt\n        /* \"#utility.yul\":783:902   */\n      iszero\n      tag_76\n      jumpi\n        /* \"#utility.yul\":821:900   */\n      tag_77\n      tag_54\n      jump\t// in\n    tag_77:\n        /* \"#utility.yul\":783:902   */\n    tag_76:\n        /* \"#utility.yul\":941:942   */\n      0x00\n        /* \"#utility.yul\":966:1019   */\n      tag_78\n        /* \"#utility.yul\":1011:1018   */\n      dup6\n        /* \"#utility.yul\":1002:1008   */\n      dup3\n        /* \"#utility.yul\":991:1000   */\n      dup7\n        /* \"#utility.yul\":987:1009   */\n      add\n        /* \"#utility.yul\":966:1019   */\n      tag_58\n      jump\t// in\n    tag_78:\n        /* \"#utility.yul\":956:1019   */\n      swap3\n      pop\n        /* \"#utility.yul\":912:1029   */\n      pop\n        /* \"#utility.yul\":1068:1070   */\n      0x20\n        /* \"#utility.yul\":1094:1147   */\n      tag_79\n        /* \"#utility.yul\":1139:1146   */\n      dup6\n        /* \"#utility.yul\":1130:1136   */\n      dup3\n        /* \"#utility.yul\":1119:1128   */\n      dup7\n        /* \"#utility.yul\":1115:1137   */\n      add\n        /* \"#utility.yul\":1094:1147   */\n      tag_58\n      jump\t// in\n    tag_79:\n        /* \"#utility.yul\":1084:1147   */\n      swap2\n      pop\n        /* \"#utility.yul\":1039:1157   */\n      pop\n        /* \"#utility.yul\":690:1164   */\n      swap3\n      pop\n      swap3\n      swap1\n      pop\n      jump\t// out\n        /* \"#utility.yul\":1170:1288   */\n    tag_59:\n        /* \"#utility.yul\":1257:1281   */\n      tag_81\n        /* \"#utility.yul\":1275:1280   */\n      dup2\n        /* \"#utility.yul\":1257:1281   */\n      tag_56\n      jump\t// in\n    tag_81:\n        /* \"#utility.yul\":1252:1255   */\n      dup3\n        /* \"#utility.yul\":1245:1282   */\n      mstore\n        /* \"#utility.yul\":1170:1288   */\n      pop\n      pop\n      jump\t// out\n        /* \"#utility.yul\":1294:1516   */\n    tag_14:\n        /* \"#utility.yul\":1387:1391   */\n      0x00\n        /* \"#utility.yul\":1425:1427   */\n      0x20\n        /* \"#utility.yul\":1414:1423   */\n      dup3\n        /* \"#utility.yul\":1410:1428   */\n      add\n        /* \"#utility.yul\":1402:1428   */\n      swap1\n      pop\n        /* \"#utility.yul\":1438:1509   */\n      tag_83\n        /* \"#utility.yul\":1506:1507   */\n      0x00\n        /* \"#utility.yul\":1495:1504   */\n      dup4\n        /* \"#utility.yul\":1491:1508   */\n      add\n        /* \"#utility.yul\":1482:1488   */\n      dup5\n        /* \"#utility.yul\":1438:1509   */\n      tag_59\n      jump\t// in\n    tag_83:\n        /* \"#utility.yul\":1294:1516   */\n      swap3\n      swap2\n      pop\n      pop\n      jump\t// out\n        /* \"#utility.yul\":1522:1702   */\n    tag_60:\n        /* \"#utility.yul\":1570:1647   */\n      0x4e487b7100000000000000000000000000000000000000000000000000000000\n        /* \"#utility.yul\":1567:1568   */\n      0x00\n        /* \"#utility.yul\":1560:1648   */\n      mstore\n        /* \"#utility.yul\":1667:1671   */\n      0x11\n        /* \"#utility.yul\":1664:1665   */\n      0x04\n        /* \"#utility.yul\":1657:1672   */\n      mstore\n        /* \"#utility.yul\":1691:1695   */\n      0x24\n        /* \"#utility.yul\":1688:1689   */\n      0x00\n        /* \"#utility.yul\":1681:1696   */\n      revert\n        /* \"#utility.yul\":1708:1810   */\n    tag_61:\n        /* \"#utility.yul\":1750:1758   */\n      0x00\n        /* \"#utility.yul\":1797:1802   */\n      dup2\n        /* \"#utility.yul\":1794:1795   */\n      0x01\n        /* \"#utility.yul\":1790:1803   */\n      shr\n        /* \"#utility.yul\":1769:1803   */\n      swap1\n      pop\n        /* \"#utility.yul\":1708:1810   */\n      swap2\n      swap1\n      pop\n      jump\t// out\n        /* \"#utility.yul\":1816:2664   */\n    tag_62:\n        /* \"#utility.yul\":1877:1882   */\n      0x00\n        /* \"#utility.yul\":1884:1888   */\n      0x00\n        /* \"#utility.yul\":1908:1914   */\n      dup3\n        /* \"#utility.yul\":1899:1914   */\n      swap2\n      pop\n        /* \"#utility.yul\":1932:1937   */\n      dup4\n        /* \"#utility.yul\":1923:1937   */\n      swap1\n      pop\n        /* \"#utility.yul\":1946:2658   */\n    tag_87:\n        /* \"#utility.yul\":1967:1968   */\n      0x01\n        /* \"#utility.yul\":1957:1965   */\n      dup6\n        /* \"#utility.yul\":1954:1969   */\n      gt\n        /* \"#utility.yul\":1946:2658   */\n      iszero\n      tag_89\n      jumpi\n        /* \"#utility.yul\":2062:2066   */\n      dup1\n        /* \"#utility.yul\":2057:2060   */\n      dup7\n        /* \"#utility.yul\":2053:2067   */\n      div\n        /* \"#utility.yul\":2047:2051   */\n      dup2\n        /* \"#utility.yul\":2044:2068   */\n      gt\n        /* \"#utility.yul\":2041:2091   */\n      iszero\n      tag_90\n      jumpi\n        /* \"#utility.yul\":2071:2089   */\n      tag_91\n      tag_60\n      jump\t// in\n    tag_91:\n        /* \"#utility.yul\":2041:2091   */\n    tag_90:\n        /* \"#utility.yul\":2121:2122   */\n      0x01\n        /* \"#utility.yul\":2111:2119   */\n      dup6\n        /* \"#utility.yul\":2107:2123   */\n      and\n        /* \"#utility.yul\":2104:2555   */\n      iszero\n      tag_92\n      jumpi\n        /* \"#utility.yul\":2536:2540   */\n      dup1\n        /* \"#utility.yul\":2529:2534   */\n      dup3\n        /* \"#utility.yul\":2525:2541   */\n      mul\n        /* \"#utility.yul\":2516:2541   */\n      swap2\n      pop\n        /* \"#utility.yul\":2104:2555   */\n    tag_92:\n        /* \"#utility.yul\":2586:2590   */\n      dup1\n        /* \"#utility.yul\":2580:2584   */\n      dup2\n        /* \"#utility.yul\":2576:2591   */\n      mul\n        /* \"#utility.yul\":2568:2591   */\n      swap1\n      pop\n        /* \"#utility.yul\":2616:2648   */\n      tag_93\n        /* \"#utility.yul\":2639:2647   */\n      dup6\n        /* \"#utility.yul\":2616:2648   */\n      tag_61\n      jump\t// in\n    tag_93:\n        /* \"#utility.yul\":2604:2648   */\n      swap5\n      pop\n        /* \"#utility.yul\":1946:2658   */\n      jump(tag_87)\n    tag_89:\n        /* \"#utility.yul\":1816:2664   */\n      swap5\n      pop\n      swap5\n      swap3\n      pop\n      pop\n      pop\n      jump\t// out\n        /* \"#utility.yul\":2670:3743   */\n    tag_63:\n        /* \"#utility.yul\":2724:2729   */\n      0x00\n        /* \"#utility.yul\":2915:2923   */\n      dup3\n        /* \"#utility.yul\":2905:2945   */\n      tag_95\n      jumpi\n        /* \"#utility.yul\":2936:2937   */\n      0x01\n        /* \"#utility.yul\":2927:2937   */\n      swap1\n      pop\n        /* \"#utility.yul\":2938:2943   */\n      jump(tag_94)\n        /* \"#utility.yul\":2905:2945   */\n    tag_95:\n        /* \"#utility.yul\":2964:2968   */\n      dup2\n        /* \"#utility.yul\":2954:2990   */\n      tag_96\n      jumpi\n        /* \"#utility.yul\":2981:2982   */\n      0x00\n        /* \"#utility.yul\":2972:2982   */\n      swap1\n      pop\n        /* \"#utility.yul\":2983:2988   */\n      jump(tag_94)\n        /* \"#utility.yul\":2954:2990   */\n    tag_96:\n        /* \"#utility.yul\":3050:3054   */\n      dup2\n        /* \"#utility.yul\":3098:3099   */\n      0x01\n        /* \"#utility.yul\":3093:3120   */\n      dup2\n      eq\n      tag_98\n      jumpi\n        /* \"#utility.yul\":3134:3135   */\n      0x02\n        /* \"#utility.yul\":3129:3320   */\n      dup2\n      eq\n      tag_99\n      jumpi\n        /* \"#utility.yul\":3043:3320   */\n      jump(tag_97)\n        /* \"#utility.yul\":3093:3120   */\n    tag_98:\n        /* \"#utility.yul\":3111:3112   */\n      0x01\n        /* \"#utility.yul\":3102:3112   */\n      swap2\n      pop\n        /* \"#utility.yul\":3113:3118   */\n      pop\n      jump(tag_94)\n        /* \"#utility.yul\":3129:3320   */\n    tag_99:\n        /* \"#utility.yul\":3174:3177   */\n      0xff\n        /* \"#utility.yul\":3164:3172   */\n      dup5\n        /* \"#utility.yul\":3161:3178   */\n      gt\n        /* \"#utility.yul\":3158:3201   */\n      iszero\n      tag_100\n      jumpi\n        /* \"#utility.yul\":3181:3199   */\n      tag_101\n      tag_60\n      jump\t// in\n    tag_101:\n        /* \"#utility.yul\":3158:3201   */\n    tag_100:\n        /* \"#utility.yul\":3230:3238   */\n      dup4\n        /* \"#utility.yul\":3227:3228   */\n      0x02\n        /* \"#utility.yul\":3223:3239   */\n      exp\n        /* \"#utility.yul\":3214:3239   */\n      swap2\n      pop\n        /* \"#utility.yul\":3265:3268   */\n      dup5\n        /* \"#utility.yul\":3258:3263   */\n      dup3\n        /* \"#utility.yul\":3255:3269   */\n      gt\n        /* \"#utility.yul\":3252:3292   */\n      iszero\n      tag_102\n      jumpi\n        /* \"#utility.yul\":3272:3290   */\n      tag_103\n      tag_60\n      jump\t// in\n    tag_103:\n        /* \"#utility.yul\":3252:3292   */\n    tag_102:\n        /* \"#utility.yul\":3305:3310   */\n      pop\n      jump(tag_94)\n        /* \"#utility.yul\":3043:3320   */\n    tag_97:\n      pop\n        /* \"#utility.yul\":3429:3431   */\n      0x20\n        /* \"#utility.yul\":3419:3427   */\n      dup4\n        /* \"#utility.yul\":3416:3432   */\n      lt\n        /* \"#utility.yul\":3410:3413   */\n      0x0133\n        /* \"#utility.yul\":3404:3408   */\n      dup4\n        /* \"#utility.yul\":3401:3414   */\n      lt\n        /* \"#utility.yul\":3397:3433   */\n      and\n        /* \"#utility.yul\":3379:3381   */\n      0x4e\n        /* \"#utility.yul\":3369:3377   */\n      dup5\n        /* \"#utility.yul\":3366:3382   */\n      lt\n        /* \"#utility.yul\":3361:3363   */\n      0x0b\n        /* \"#utility.yul\":3355:3359   */\n      dup5\n        /* \"#utility.yul\":3352:3364   */\n      lt\n        /* \"#utility.yul\":3348:3383   */\n      and\n        /* \"#utility.yul\":3332:3443   */\n      or\n        /* \"#utility.yul\":3329:3575   */\n      iszero\n      tag_104\n      jumpi\n        /* \"#utility.yul\":3485:3493   */\n      dup3\n        /* \"#utility.yul\":3479:3483   */\n      dup3\n        /* \"#utility.yul\":3475:3494   */\n      exp\n        /* \"#utility.yul\":3466:3494   */\n      swap1\n      pop\n        /* \"#utility.yul\":3520:3523   */\n      dup4\n        /* \"#utility.yul\":3513:3518   */\n      dup2\n        /* \"#utility.yul\":3510:3524   */\n      gt\n        /* \"#utility.yul\":3507:3547   */\n      iszero\n      tag_105\n      jumpi\n        /* \"#utility.yul\":3527:3545   */\n      tag_106\n      tag_60\n      jump\t// in\n    tag_106:\n        /* \"#utility.yul\":3507:3547   */\n    tag_105:\n        /* \"#utility.yul\":3560:3565   */\n      jump(tag_94)\n        /* \"#utility.yul\":3329:3575   */\n    tag_104:\n        /* \"#utility.yul\":3600:3642   */\n      tag_107\n        /* \"#utility.yul\":3638:3641   */\n      dup5\n        /* \"#utility.yul\":3628:3636   */\n      dup5\n        /* \"#utility.yul\":3622:3626   */\n      dup5\n        /* \"#utility.yul\":3619:3620   */\n      0x01\n        /* \"#utility.yul\":3600:3642   */\n      tag_62\n      jump\t// in\n    tag_107:\n        /* \"#utility.yul\":3585:3642   */\n      swap3\n      pop\n      swap1\n      pop\n        /* \"#utility.yul\":3674:3678   */\n      dup2\n        /* \"#utility.yul\":3669:3672   */\n      dup5\n        /* \"#utility.yul\":3665:3679   */\n      div\n        /* \"#utility.yul\":3658:3663   */\n      dup2\n        /* \"#utility.yul\":3655:3680   */\n      gt\n        /* \"#utility.yul\":3652:3703   */\n      iszero\n      tag_108\n      jumpi\n        /* \"#utility.yul\":3683:3701   */\n      tag_109\n      tag_60\n      jump\t// in\n    tag_109:\n        /* \"#utility.yul\":3652:3703   */\n    tag_108:\n        /* \"#utility.yul\":3732:3736   */\n      dup2\n        /* \"#utility.yul\":3725:3730   */\n      dup2\n        /* \"#utility.yul\":3721:3737   */\n      mul\n        /* \"#utility.yul\":3712:3737   */\n      swap1\n      pop\n        /* \"#utility.yul\":2670:3743   */\n    tag_94:\n      swap4\n      swap3\n      pop\n      pop\n      pop\n      jump\t// out\n        /* \"#utility.yul\":3749:4034   */\n    tag_37:\n        /* \"#utility.yul\":3809:3814   */\n      0x00\n        /* \"#utility.yul\":3833:3856   */\n      tag_111\n        /* \"#utility.yul\":3851:3855   */\n      dup3\n        /* \"#utility.yul\":3833:3856   */\n      tag_56\n      jump\t// in\n    tag_111:\n        /* \"#utility.yul\":3825:3856   */\n      swap2\n      pop\n        /* \"#utility.yul\":3877:3904   */\n      tag_112\n        /* \"#utility.yul\":3895:3903   */\n      dup4\n        /* \"#utility.yul\":3877:3904   */\n      tag_56\n      jump\t// in\n    tag_112:\n        /* \"#utility.yul\":3865:3904   */\n      swap3\n      pop\n        /* \"#utility.yul\":3923:4027   */\n      tag_113\n        /* \"#utility.yul\":3960:4026   */\n      0xffffffffffffffffffffffffffffffffffffffffffffffffffffffffffffffff\n        /* \"#utility.yul\":3950:3958   */\n      dup5\n        /* \"#utility.yul\":3944:3948   */\n      dup5\n        /* \"#utility.yul\":3923:4027   */\n      tag_63\n      jump\t// in\n    tag_113:\n        /* \"#utility.yul\":3914:4027   */\n      swap1\n      pop\n        /* \"#utility.yul\":3749:4034   */\n      swap3\n      swap2\n      pop\n      pop\n      jump\t// out\n        /* \"#utility.yul\":4040:4231   */\n    tag_40:\n        /* \"#utility.yul\":4080:4083   */\n      0x00\n        /* \"#utility.yul\":4099:4119   */\n      tag_115\n        /* \"#utility.yul\":4117:4118   */\n      dup3\n        /* \"#utility.yul\":4099:4119   */\n      tag_56\n      jump\t// in\n    tag_115:\n        /* \"#utility.yul\":4094:4119   */\n      swap2\n      pop\n        /* \"#utility.yul\":4133:4153   */\n      tag_116\n        /* \"#utility.yul\":4151:4152   */\n      dup4\n        /* \"#utility.yul\":4133:4153   */\n      tag_56\n      jump\t// in\n    tag_116:\n        /* \"#utility.yul\":4128:4153   */\n      swap3\n      pop\n        /* \"#utility.yul\":4176:4177   */\n      dup3\n        /* \"#utility.yul\":4173:4174   */\n      dup3\n        /* \"#utility.yul\":4169:4178   */\n      add\n        /* \"#utility.yul\":4162:4178   */\n      swap1\n      pop\n        /* \"#utility.yul\":4197:4200   */\n      dup1\n        /* \"#utility.yul\":4194:4195   */\n      dup3\n        /* \"#utility.yul\":4191:4201   */\n      gt\n        /* \"#utility.yul\":4188:4224   */\n      iszero\n      tag_117\n      jumpi\n        /* \"#utility.yul\":4204:4222   */\n      tag_118\n      tag_60\n      jump\t// in\n    tag_118:\n        /* \"#utility.yul\":4188:4224   */\n    tag_117:\n        /* \"#utility.yul\":4040:4231   */\n      swap3\n      swap2\n      pop\n      pop\n      jump\t// out\n        /* \"#utility.yul\":4237:4417   */\n    tag_64:\n        /* \"#utility.yul\":4285:4362   */\n      0x4e487b7100000000000000000000000000000000000000000000000000000000\n        /* \"#utility.yul\":4282:4283   */\n      0x00\n        /* \"#utility.yul\":4275:4363   */\n      mstore\n        /* \"#utility.yul\":4382:4386   */\n      0x12\n        /* \"#utility.yul\":4379:4380   */\n      0x04\n        /* \"#utility.yul\":4372:4387   */\n      mstore\n        /* \"#utility.yul\":4406:4410   */\n      0x24\n        /* \"#utility.yul\":4403:4404   */\n      0x00\n        /* \"#utility.yul\":4396:4411   */\n      revert\n        /* \"#utility.yul\":4423:4608   */\n    tag_43:\n        /* \"#utility.yul\":4463:4464   */\n      0x00\n        /* \"#utility.yul\":4480:4500   */\n      tag_121\n        /* \"#utility.yul\":4498:4499   */\n      dup3\n        /* \"#utility.yul\":4480:4500   */\n      tag_56\n      jump\t// in\n    tag_121:\n        /* \"#utility.yul\":4475:4500   */\n      swap2\n      pop\n        /* \"#utility.yul\":4514:4534   */\n      tag_122\n        /* \"#utility.yul\":4532:4533   */\n      dup4\n        /* \"#utility.yul\":4514:4534   */\n      tag_56\n      jump\t// in\n    tag_122:\n        /* \"#utility.yul\":4509:4534   */\n      swap3\n      pop\n        /* \"#utility.yul\":4553:4554   */\n      dup3\n        /* \"#utility.yul\":4543:4578   */\n      tag_123\n      jumpi\n        /* \"#utility.yul\":4558:4576   */\n      tag_124\n      tag_64\n      jump\t// in\n    tag_124:\n        /* \"#utility.yul\":4543:4578   */\n    tag_123:\n        /* \"#utility.yul\":4600:4601   */\n      dup3\n        /* \"#utility.yul\":4597:4598   */\n      dup3\n        /* \"#utility.yul\":4593:4602   */\n      div\n        /* \"#utility.yul\":4588:4602   */\n      swap1\n      pop\n        /* \"#utility.yul\":4423:4608   */\n      swap3\n      swap2\n      pop\n      pop\n      jump\t// out\n        /* \"#utility.yul\":4614:4808   */\n    tag_46:\n        /* \"#utility.yul\":4654:4658   */\n      0x00\n        /* \"#utility.yul\":4674:4694   */\n      tag_126\n        /* \"#utility.yul\":4692:4693   */\n      dup3\n        /* \"#utility.yul\":4674:4694   */\n      tag_56\n      jump\t// in\n    tag_126:\n        /* \"#utility.yul\":4669:4694   */\n      swap2\n      pop\n        /* \"#utility.yul\":4708:4728   */\n      tag_127\n        /* \"#utility.yul\":4726:4727   */\n      dup4\n        /* \"#utility.yul\":4708:4728   */\n      tag_56\n      jump\t// in\n    tag_127:\n        /* \"#utility.yul\":4703:4728   */\n      swap3\n      pop\n        /* \"#utility.yul\":4752:4753   */\n      dup3\n        /* \"#utility.yul\":4749:4750   */\n      dup3\n        /* \"#utility.yul\":4745:4754   */\n      sub\n        /* \"#utility.yul\":4737:4754   */\n      swap1\n      pop\n        /* \"#utility.yul\":4776:4777   */\n      dup2\n        /* \"#utility.yul\":4770:4774   */\n      dup2\n        /* \"#utility.yul\":4767:4778   */\n      gt\n        /* \"#utility.yul\":4764:4801   */\n      iszero\n      tag_128\n      jumpi\n        /* \"#utility.yul\":4781:4799   */\n      tag_129\n      tag_60\n      jump\t// in\n    tag_129:\n        /* \"#utility.yul\":4764:4801   */\n    tag_128:\n        /* \"#utility.yul\":4614:4808   */\n      swap3\n      swap2\n      pop\n      pop\n      jump\t// out\n        /* \"#utility.yul\":4814:5224   */\n    tag_49:\n        /* \"#utility.yul\":4854:4861   */\n      0x00\n        /* \"#utility.yul\":4877:4897   */\n      tag_131\n        /* \"#utility.yul\":4895:4896   */\n      dup3\n        /* \"#utility.yul\":4877:4897   */\n      tag_56\n      jump\t// in\n    tag_131:\n        /* \"#utility.yul\":4872:4897   */\n      swap2\n      pop\n        /* \"#utility.yul\":4911:4931   */\n      tag_132\n        /* \"#utility.yul\":4929:4930   */\n      dup4\n        /* \"#utility.yul\":4911:4931   */\n      tag_56\n      jump\t// in\n    tag_132:\n        /* \"#utility.yul\":4906:4931   */\n      swap3\n      pop\n        /* \"#utility.yul\":4966:4967   */\n      dup3\n        /* \"#utility.yul\":4963:4964   */\n      dup3\n        /* \"#utility.yul\":4959:4968   */\n      mul\n        /* \"#utility.yul\":4988:5018   */\n      tag_133\n        /* \"#utility.yul\":5006:5017   */\n      dup2\n        /* \"#utility.yul\":4988:5018   */\n      tag_56\n      jump\t// in\n    tag_133:\n        /* \"#utility.yul\":4977:5018   */\n      swap2\n      pop\n        /* \"#utility.yul\":5167:5168   */\n      dup3\n        /* \"#utility.yul\":5158:5165   */\n      dup3\n        /* \"#utility.yul\":5154:5169   */\n      div\n        /* \"#utility.yul\":5151:5152   */\n      dup5\n        /* \"#utility.yul\":5148:5170   */\n      eq\n        /* \"#utility.yul\":5128:5129   */\n      dup4\n        /* \"#utility.yul\":5121:5130   */\n      iszero\n        /* \"#utility.yul\":5101:5184   */\n      or\n        /* \"#utility.yul\":5078:5217   */\n      tag_134\n      jumpi\n        /* \"#utility.yul\":5197:5215   */\n      tag_135\n      tag_60\n      jump\t// in\n    tag_135:\n        /* \"#utility.yul\":5078:5217   */\n    tag_134:\n        /* \"#utility.yul\":4862:5224   */\n      pop\n        /* \"#utility.yul\":4814:5224   */\n      swap3\n      swap2\n      pop\n      pop\n      jump\t// out\n        /* \"#utility.yul\":5230:5406   */\n    tag_52:\n        /* \"#utility.yul\":5262:5263   */\n      0x00\n        /* \"#utility.yul\":5279:5299   */\n      tag_137\n        /* \"#utility.yul\":5297:5298   */\n      dup3\n        /* \"#utility.yul\":5279:5299   */\n      tag_56\n      jump\t// in\n    tag_137:\n        /* \"#utility.yul\":5274:5299   */\n      swap2\n      pop\n        /* \"#utility.yul\":5313:5333   */\n      tag_138\n        /* \"#utility.yul\":5331:5332   */\n      dup4\n        /* \"#utility.yul\":5313:5333   */\n      tag_56\n      jump\t// in\n    tag_138:\n        /* \"#utility.yul\":5308:5333   */\n      swap3\n      pop\n        /* \"#utility.yul\":5352:5353   */\n      dup3\n        /* \"#utility.yul\":5342:5377   */\n      tag_139\n      jumpi\n        /* \"#utility.yul\":5357:5375   */\n      tag_140\n      tag_64\n      jump\t// in\n    tag_140:\n        /* \"#utility.yul\":5342:5377   */\n    tag_139:\n        /* \"#utility.yul\":5398:5399   */\n      dup3\n        /* \"#utility.yul\":5395:5396   */\n      dup3\n        /* \"#utility.yul\":5391:5400   */\n      mod\n        /* \"#utility.yul\":5386:5400   */\n      swap1\n      pop\n        /* \"#utility.yul\":5230:5406   */\n      swap3\n      swap2\n      pop\n      pop\n      jump\t// out\n\n    auxdata: 0xa26469706673582212205be0ec150b29d79ba90721f2ee9c062dc1fa310cd54708281583b10a5bf907b164736f6c634300081c0033\n}\n",
				"bytecode": {
					"linkReferences": {},
					"object": "6080604052348015600e575f5ffd5b506105af8061001c5f395ff3fe608060405234801561000f575f5ffd5b5060043610610060575f3560e01c80632e4c697f14610064578063771602f714610094578063a391c15b146100c4578063b67d77c5146100f4578063c8a4ac9c14610124578063f43f523a14610154575b5f5ffd5b61007e60048036038101906100799190610239565b610184565b60405161008b9190610286565b60405180910390f35b6100ae60048036038101906100a99190610239565b610199565b6040516100bb9190610286565b60405180910390f35b6100de60048036038101906100d99190610239565b6101ae565b6040516100eb9190610286565b60405180910390f35b61010e60048036038101906101099190610239565b6101c3565b60405161011b9190610286565b60405180910390f35b61013e60048036038101906101399190610239565b6101d8565b60405161014b9190610286565b60405180910390f35b61016e60048036038101906101699190610239565b6101ed565b60405161017b9190610286565b60405180910390f35b5f818361019191906103fb565b905092915050565b5f81836101a69190610445565b905092915050565b5f81836101bb91906104a5565b905092915050565b5f81836101d091906104d5565b905092915050565b5f81836101e59190610508565b905092915050565b5f81836101fa9190610549565b905092915050565b5f5ffd5b5f819050919050565b61021881610206565b8114610222575f5ffd5b50565b5f813590506102338161020f565b92915050565b5f5f6040838503121561024f5761024e610202565b5b5f61025c85828601610225565b925050602061026d85828601610225565b9150509250929050565b61028081610206565b82525050565b5f6020820190506102995f830184610277565b92915050565b7f4e487b71000000000000000000000000000000000000000000000000000000005f52601160045260245ffd5b5f8160011c9050919050565b5f5f8291508390505b6001851115610321578086048111156102fd576102fc61029f565b5b600185161561030c5780820291505b808102905061031a856102cc565b94506102e1565b94509492505050565b5f8261033957600190506103f4565b81610346575f90506103f4565b816001811461035c576002811461036657610395565b60019150506103f4565b60ff8411156103785761037761029f565b5b8360020a91508482111561038f5761038e61029f565b5b506103f4565b5060208310610133831016604e8410600b84101617156103ca5782820a9050838111156103c5576103c461029f565b5b6103f4565b6103d784848460016102d8565b925090508184048111156103ee576103ed61029f565b5b81810290505b9392505050565b5f61040582610206565b915061041083610206565b925061043d7fffffffffffffffffffffffffffffffffffffffffffffffffffffffffffffffff848461032a565b905092915050565b5f61044f82610206565b915061045a83610206565b92508282019050808211156104725761047161029f565b5b92915050565b7f4e487b71000000000000000000000000000000000000000000000000000000005f52601260045260245ffd5b5f6104af82610206565b91506104ba83610206565b9250826104ca576104c9610478565b5b828204905092915050565b5f6104df82610206565b91506104ea83610206565b92508282039050818111156105025761050161029f565b5b92915050565b5f61051282610206565b915061051d83610206565b925082820261052b81610206565b915082820484148315176105425761054161029f565b5b5092915050565b5f61055382610206565b915061055e83610206565b92508261056e5761056d610478565b5b82820690509291505056fea26469706673582212205be0ec150b29d79ba90721f2ee9c062dc1fa310cd54708281583b10a5bf907b164736f6c634300081c0033",
					"opcodes": "PUSH1 0x80 PUSH1 0x40 MSTORE CALLVALUE DUP1 ISZERO PUSH1 0xE JUMPI PUSH0 PUSH0 REVERT JUMPDEST POP PUSH2 0x5AF DUP1 PUSH2 0x1C PUSH0 CODECOPY PUSH0 RETURN INVALID PUSH1 0x80 PUSH1 0x40 MSTORE CALLVALUE DUP1 ISZERO PUSH2 0xF JUMPI PUSH0 PUSH0 REVERT JUMPDEST POP PUSH1 0x4 CALLDATASIZE LT PUSH2 0x60 JUMPI PUSH0 CALLDATALOAD PUSH1 0xE0 SHR DUP1 PUSH4 0x2E4C697F EQ PUSH2 0x64 JUMPI DUP1 PUSH4 0x771602F7 EQ PUSH2 0x94 JUMPI DUP1 PUSH4 0xA391C15B EQ PUSH2 0xC4 JUMPI DUP1 PUSH4 0xB67D77C5 EQ PUSH2 0xF4 JUMPI DUP1 PUSH4 0xC8A4AC9C EQ PUSH2 0x124 JUMPI DUP1 PUSH4 0xF43F523A EQ PUSH2 0x154 JUMPI JUMPDEST PUSH0 PUSH0 REVERT JUMPDEST PUSH2 0x7E PUSH1 0x4 DUP1 CALLDATASIZE SUB DUP2 ADD SWAP1 PUSH2 0x79 SWAP2 SWAP1 PUSH2 0x239 JUMP JUMPDEST PUSH2 0x184 JUMP JUMPDEST PUSH1 0x40 MLOAD PUSH2 0x8B SWAP2 SWAP1 PUSH2 0x286 JUMP JUMPDEST PUSH1 0x40 MLOAD DUP1 SWAP2 SUB SWAP1 RETURN JUMPDEST PUSH2 0xAE PUSH1 0x4 DUP1 CALLDATASIZE SUB DUP2 ADD SWAP1 PUSH2 0xA9 SWAP2 SWAP1 PUSH2 0x239 JUMP JUMPDEST PUSH2 0x199 JUMP JUMPDEST PUSH1 0x40 MLOAD PUSH2 0xBB SWAP2 SWAP1 PUSH2 0x286 JUMP JUMPDEST PUSH1 0x40 MLOAD DUP1 SWAP2 SUB SWAP1 RETURN JUMPDEST PUSH2 0xDE PUSH1 0x4 DUP1 CALLDATASIZE SUB DUP2 ADD SWAP1 PUSH2 0xD9 SWAP2 SWAP1 PUSH2 0x239 JUMP JUMPDEST PUSH2 0x1AE JUMP JUMPDEST PUSH1 0x40 MLOAD PUSH2 0xEB SWAP2 SWAP1 PUSH2 0x286 JUMP JUMPDEST PUSH1 0x40 MLOAD DUP1 SWAP2 SUB SWAP1 RETURN JUMPDEST PUSH2 0x10E PUSH1 0x4 DUP1 CALLDATASIZE SUB DUP2 ADD SWAP1 PUSH2 0x109 SWAP2 SWAP1 PUSH2 0x239 JUMP JUMPDEST PUSH2 0x1C3 JUMP JUMPDEST PUSH1 0x40 MLOAD PUSH2 0x11B SWAP2 SWAP1 PUSH2 0x286 JUMP JUMPDEST PUSH1 0x40 MLOAD DUP1 SWAP2 SUB SWAP1 RETURN JUMPDEST PUSH2 0x13E PUSH1 0x4 DUP1 CALLDATASIZE SUB DUP2 ADD SWAP1 PUSH2 0x139 SWAP2 SWAP1 PUSH2 0x239 JUMP JUMPDEST PUSH2 0x1D8 JUMP JUMPDEST PUSH1 0x40 MLOAD PUSH2 0x14B SWAP2 SWAP1 PUSH2 0x286 JUMP JUMPDEST PUSH1 0x40 MLOAD DUP1 SWAP2 SUB SWAP1 RETURN JUMPDEST PUSH2 0x16E PUSH1 0x4 DUP1 CALLDATASIZE SUB DUP2 ADD SWAP1 PUSH2 0x169 SWAP2 SWAP1 PUSH2 0x239 JUMP JUMPDEST PUSH2 0x1ED JUMP JUMPDEST PUSH1 0x40 MLOAD PUSH2 0x17B SWAP2 SWAP1 PUSH2 0x286 JUMP JUMPDEST PUSH1 0x40 MLOAD DUP1 SWAP2 SUB SWAP1 RETURN JUMPDEST PUSH0 DUP2 DUP4 PUSH2 0x191 SWAP2 SWAP1 PUSH2 0x3FB JUMP JUMPDEST SWAP1 POP SWAP3 SWAP2 POP POP JUMP JUMPDEST PUSH0 DUP2 DUP4 PUSH2 0x1A6 SWAP2 SWAP1 PUSH2 0x445 JUMP JUMPDEST SWAP1 POP SWAP3 SWAP2 POP POP JUMP JUMPDEST PUSH0 DUP2 DUP4 PUSH2 0x1BB SWAP2 SWAP1 PUSH2 0x4A5 JUMP JUMPDEST SWAP1 POP SWAP3 SWAP2 POP POP JUMP JUMPDEST PUSH0 DUP2 DUP4 PUSH2 0x1D0 SWAP2 SWAP1 PUSH2 0x4D5 JUMP JUMPDEST SWAP1 POP SWAP3 SWAP2 POP POP JUMP JUMPDEST PUSH0 DUP2 DUP4 PUSH2 0x1E5 SWAP2 SWAP1 PUSH2 0x508 JUMP JUMPDEST SWAP1 POP SWAP3 SWAP2 POP POP JUMP JUMPDEST PUSH0 DUP2 DUP4 PUSH2 0x1FA SWAP2 SWAP1 PUSH2 0x549 JUMP JUMPDEST SWAP1 POP SWAP3 SWAP2 POP POP JUMP JUMPDEST PUSH0 PUSH0 REVERT JUMPDEST PUSH0 DUP2 SWAP1 POP SWAP2 SWAP1 POP JUMP JUMPDEST PUSH2 0x218 DUP2 PUSH2 0x206 JUMP JUMPDEST DUP2 EQ PUSH2 0x222 JUMPI PUSH0 PUSH0 REVERT JUMPDEST POP JUMP JUMPDEST PUSH0 DUP2 CALLDATALOAD SWAP1 POP PUSH2 0x233 DUP2 PUSH2 0x20F JUMP JUMPDEST SWAP3 SWAP2 POP POP JUMP JUMPDEST PUSH0 PUSH0 PUSH1 0x40 DUP4 DUP6 SUB SLT ISZERO PUSH2 0x24F JUMPI PUSH2 0x24E PUSH2 0x202 JUMP JUMPDEST JUMPDEST PUSH0 PUSH2 0x25C DUP6 DUP3 DUP7 ADD PUSH2 0x225 JUMP JUMPDEST SWAP3 POP POP PUSH1 0x20 PUSH2 0x26D DUP6 DUP3 DUP7 ADD PUSH2 0x225 JUMP JUMPDEST SWAP2 POP POP SWAP3 POP SWAP3 SWAP1 POP JUMP JUMPDEST PUSH2 0x280 DUP2 PUSH2 0x206 JUMP JUMPDEST DUP3 MSTORE POP POP JUMP JUMPDEST PUSH0 PUSH1 0x20 DUP3 ADD SWAP1 POP PUSH2 0x299 PUSH0 DUP4 ADD DUP5 PUSH2 0x277 JUMP JUMPDEST SWAP3 SWAP2 POP POP JUMP JUMPDEST PUSH32 0x4E487B7100000000000000000000000000000000000000000000000000000000 PUSH0 MSTORE PUSH1 0x11 PUSH1 0x4 MSTORE PUSH1 0x24 PUSH0 REVERT JUMPDEST PUSH0 DUP2 PUSH1 0x1 SHR SWAP1 POP SWAP2 SWAP1 POP JUMP JUMPDEST PUSH0 PUSH0 DUP3 SWAP2 POP DUP4 SWAP1 POP JUMPDEST PUSH1 0x1 DUP6 GT ISZERO PUSH2 0x321 JUMPI DUP1 DUP7 DIV DUP2 GT ISZERO PUSH2 0x2FD JUMPI PUSH2 0x2FC PUSH2 0x29F JUMP JUMPDEST JUMPDEST PUSH1 0x1 DUP6 AND ISZERO PUSH2 0x30C JUMPI DUP1 DUP3 MUL SWAP2 POP JUMPDEST DUP1 DUP2 MUL SWAP1 POP PUSH2 0x31A DUP6 PUSH2 0x2CC JUMP JUMPDEST SWAP5 POP PUSH2 0x2E1 JUMP JUMPDEST SWAP5 POP SWAP5 SWAP3 POP POP POP JUMP JUMPDEST PUSH0 DUP3 PUSH2 0x339 JUMPI PUSH1 0x1 SWAP1 POP PUSH2 0x3F4 JUMP JUMPDEST DUP2 PUSH2 0x346 JUMPI PUSH0 SWAP1 POP PUSH2 0x3F4 JUMP JUMPDEST DUP2 PUSH1 0x1 DUP2 EQ PUSH2 0x35C JUMPI PUSH1 0x2 DUP2 EQ PUSH2 0x366 JUMPI PUSH2 0x395 JUMP JUMPDEST PUSH1 0x1 SWAP2 POP POP PUSH2 0x3F4 JUMP JUMPDEST PUSH1 0xFF DUP5 GT ISZERO PUSH2 0x378 JUMPI PUSH2 0x377 PUSH2 0x29F JUMP JUMPDEST JUMPDEST DUP4 PUSH1 0x2 EXP SWAP2 POP DUP5 DUP3 GT ISZERO PUSH2 0x38F JUMPI PUSH2 0x38E PUSH2 0x29F JUMP JUMPDEST JUMPDEST POP PUSH2 0x3F4 JUMP JUMPDEST POP PUSH1 0x20 DUP4 LT PUSH2 0x133 DUP4 LT AND PUSH1 0x4E DUP5 LT PUSH1 0xB DUP5 LT AND OR ISZERO PUSH2 0x3CA JUMPI DUP3 DUP3 EXP SWAP1 POP DUP4 DUP2 GT ISZERO PUSH2 0x3C5 JUMPI PUSH2 0x3C4 PUSH2 0x29F JUMP JUMPDEST JUMPDEST PUSH2 0x3F4 JUMP JUMPDEST PUSH2 0x3D7 DUP5 DUP5 DUP5 PUSH1 0x1 PUSH2 0x2D8 JUMP JUMPDEST SWAP3 POP SWAP1 POP DUP2 DUP5 DIV DUP2 GT ISZERO PUSH2 0x3EE JUMPI PUSH2 0x3ED PUSH2 0x29F JUMP JUMPDEST JUMPDEST DUP2 DUP2 MUL SWAP1 POP JUMPDEST SWAP4 SWAP3 POP POP POP JUMP JUMPDEST PUSH0 PUSH2 0x405 DUP3 PUSH2 0x206 JUMP JUMPDEST SWAP2 POP PUSH2 0x410 DUP4 PUSH2 0x206 JUMP JUMPDEST SWAP3 POP PUSH2 0x43D PUSH32 0xFFFFFFFFFFFFFFFFFFFFFFFFFFFFFFFFFFFFFFFFFFFFFFFFFFFFFFFFFFFFFFFF DUP5 DUP5 PUSH2 0x32A JUMP JUMPDEST SWAP1 POP SWAP3 SWAP2 POP POP JUMP JUMPDEST PUSH0 PUSH2 0x44F DUP3 PUSH2 0x206 JUMP JUMPDEST SWAP2 POP PUSH2 0x45A DUP4 PUSH2 0x206 JUMP JUMPDEST SWAP3 POP DUP3 DUP3 ADD SWAP1 POP DUP1 DUP3 GT ISZERO PUSH2 0x472 JUMPI PUSH2 0x471 PUSH2 0x29F JUMP JUMPDEST JUMPDEST SWAP3 SWAP2 POP POP JUMP JUMPDEST PUSH32 0x4E487B7100000000000000000000000000000000000000000000000000000000 PUSH0 MSTORE PUSH1 0x12 PUSH1 0x4 MSTORE PUSH1 0x24 PUSH0 REVERT JUMPDEST PUSH0 PUSH2 0x4AF DUP3 PUSH2 0x206 JUMP JUMPDEST SWAP2 POP PUSH2 0x4BA DUP4 PUSH2 0x206 JUMP JUMPDEST SWAP3 POP DUP3 PUSH2 0x4CA JUMPI PUSH2 0x4C9 PUSH2 0x478 JUMP JUMPDEST JUMPDEST DUP3 DUP3 DIV SWAP1 POP SWAP3 SWAP2 POP POP JUMP JUMPDEST PUSH0 PUSH2 0x4DF DUP3 PUSH2 0x206 JUMP JUMPDEST SWAP2 POP PUSH2 0x4EA DUP4 PUSH2 0x206 JUMP JUMPDEST SWAP3 POP DUP3 DUP3 SUB SWAP1 POP DUP2 DUP2 GT ISZERO PUSH2 0x502 JUMPI PUSH2 0x501 PUSH2 0x29F JUMP JUMPDEST JUMPDEST SWAP3 SWAP2 POP POP JUMP JUMPDEST PUSH0 PUSH2 0x512 DUP3 PUSH2 0x206 JUMP JUMPDEST SWAP2 POP PUSH2 0x51D DUP4 PUSH2 0x206 JUMP JUMPDEST SWAP3 POP DUP3 DUP3 MUL PUSH2 0x52B DUP2 PUSH2 0x206 JUMP JUMPDEST SWAP2 POP DUP3 DUP3 DIV DUP5 EQ DUP4 ISZERO OR PUSH2 0x542 JUMPI PUSH2 0x541 PUSH2 0x29F JUMP JUMPDEST JUMPDEST POP SWAP3 SWAP2 POP POP JUMP JUMPDEST PUSH0 PUSH2 0x553 DUP3 PUSH2 0x206 JUMP JUMPDEST SWAP2 POP PUSH2 0x55E DUP4 PUSH2 0x206 JUMP JUMPDEST SWAP3 POP DUP3 PUSH2 0x56E JUMPI PUSH2 0x56D PUSH2 0x478 JUMP JUMPDEST JUMPDEST DUP3 DUP3 MOD SWAP1 POP SWAP3 SWAP2 POP POP JUMP INVALID LOG2 PUSH5 0x6970667358 0x22 SLT KECCAK256 JUMPDEST 0xE0 0xEC ISZERO SIGNEXTEND 0x29 0xD7 SWAP12 0xA9 SMOD 0x21 CALLCODE 0xEE SWAP13 MOD 0x2D 0xC1 STATICCALL BALANCE 0xC 0xD5 SELFBALANCE ADDMOD 0x28 ISZERO DUP4 0xB1 EXP JUMPDEST 0xF9 SMOD 0xB1 PUSH5 0x736F6C6343 STOP ADDMOD SHR STOP CALLER "
				},
				"gasEstimates": {
					"creation": {
						"codeDepositCost": "291000",
						"executionCost": "329",
						"totalCost": "291329"
					},
					"external": {
						"add(uint256,uint256)": "infinite",
						"div(uint256,uint256)": "infinite",
						"mod(uint256,uint256)": "infinite",
						"mul(uint256,uint256)": "infinite",
						"pow(uint256,uint256)": "infinite",
						"sub(uint256,uint256)": "infinite"
					}
				},
				"methodIdentifiers": {
					"add(uint256,uint256)": "771602f7",
					"div(uint256,uint256)": "a391c15b",
					"mod(uint256,uint256)": "f43f523a",
					"mul(uint256,uint256)": "c8a4ac9c",
					"pow(uint256,uint256)": "2e4c697f",
					"sub(uint256,uint256)": "b67d77c5"
				}
			},
			"storageLayout": {
				"storage": [],
				"types": null
			},
			"userdoc": {
				"kind": "user",
				"methods": {},
				"version": 1
			}
		}
	}
}