{
	"contracts/PRACTICE/Prime-No.sol": {
		"Fun": {
			"abi": [
				{
					"inputs": [
						{
							"internalType": "uint256",
							"name": "n",
							"type": "uint256"
						}
					],
					"name": "pn",
					"outputs": [
						{
							"internalType": "uint256",
							"name": "",
							"type": "uint256"
						}
					],
					"stateMutability": "pure",
					"type": "function"
				}
			],
			"devdoc": {
				"kind": "dev",
				"methods": {},
				"version": 1
			},
			"evm": {
				"assembly": "    /* \"contracts/PRACTICE/Prime-No.sol\":59:393  contract Fun{... */\n  mstore(0x40, 0x80)\n  callvalue\n  dup1\n  iszero\n  tag_1\n  jumpi\n  revert(0x00, 0x00)\ntag_1:\n  pop\n  dataSize(sub_0)\n  dup1\n  dataOffset(sub_0)\n  0x00\n  codecopy\n  0x00\n  return\nstop\n\nsub_0: assembly {\n        /* \"contracts/PRACTICE/Prime-No.sol\":59:393  contract Fun{... */\n      mstore(0x40, 0x80)\n      callvalue\n      dup1\n      iszero\n      tag_1\n      jumpi\n      revert(0x00, 0x00)\n    tag_1:\n      pop\n      jumpi(tag_2, lt(calldatasize, 0x04))\n      shr(0xe0, calldataload(0x00))\n      dup1\n      0x19e94640\n      eq\n      tag_3\n      jumpi\n    tag_2:\n      revert(0x00, 0x00)\n        /* \"contracts/PRACTICE/Prime-No.sol\":78:390  function pn(uint n) public pure returns (uint){... */\n    tag_3:\n      tag_4\n      0x04\n      dup1\n      calldatasize\n      sub\n      dup2\n      add\n      swap1\n      tag_5\n      swap2\n      swap1\n      tag_6\n      jump\t// in\n    tag_5:\n      tag_7\n      jump\t// in\n    tag_4:\n      mload(0x40)\n      tag_8\n      swap2\n      swap1\n      tag_9\n      jump\t// in\n    tag_8:\n      mload(0x40)\n      dup1\n      swap2\n      sub\n      swap1\n      return\n    tag_7:\n        /* \"contracts/PRACTICE/Prime-No.sol\":119:123  uint */\n      0x00\n        /* \"contracts/PRACTICE/Prime-No.sol\":147:148  1 */\n      0x01\n        /* \"contracts/PRACTICE/Prime-No.sol\":142:143  n */\n      dup3\n        /* \"contracts/PRACTICE/Prime-No.sol\":142:148  n <= 1 */\n      gt\n        /* \"contracts/PRACTICE/Prime-No.sol\":138:179  if (n <= 1) {... */\n      tag_11\n      jumpi\n        /* \"contracts/PRACTICE/Prime-No.sol\":176:177  0 */\n      0x00\n        /* \"contracts/PRACTICE/Prime-No.sol\":169:177  return 0 */\n      swap1\n      pop\n      jump(tag_10)\n        /* \"contracts/PRACTICE/Prime-No.sol\":138:179  if (n <= 1) {... */\n    tag_11:\n        /* \"contracts/PRACTICE/Prime-No.sol\":193:199  uint i */\n      0x00\n        /* \"contracts/PRACTICE/Prime-No.sol\":202:203  2 */\n      0x02\n        /* \"contracts/PRACTICE/Prime-No.sol\":193:203  uint i = 2 */\n      swap1\n      pop\n        /* \"contracts/PRACTICE/Prime-No.sol\":188:364  for (uint i = 2; i *i <= n; i++) {... */\n    tag_12:\n        /* \"contracts/PRACTICE/Prime-No.sol\":213:214  n */\n      dup3\n        /* \"contracts/PRACTICE/Prime-No.sol\":208:209  i */\n      dup2\n        /* \"contracts/PRACTICE/Prime-No.sol\":205:206  i */\n      dup3\n        /* \"contracts/PRACTICE/Prime-No.sol\":205:209  i *i */\n      tag_15\n      swap2\n      swap1\n      tag_16\n      jump\t// in\n    tag_15:\n        /* \"contracts/PRACTICE/Prime-No.sol\":205:214  i *i <= n */\n      gt\n        /* \"contracts/PRACTICE/Prime-No.sol\":188:364  for (uint i = 2; i *i <= n; i++) {... */\n      tag_13\n      jumpi\n        /* \"contracts/PRACTICE/Prime-No.sol\":249:250  0 */\n      0x00\n        /* \"contracts/PRACTICE/Prime-No.sol\":244:245  i */\n      dup2\n        /* \"contracts/PRACTICE/Prime-No.sol\":240:241  n */\n      dup5\n        /* \"contracts/PRACTICE/Prime-No.sol\":240:245  n % i */\n      tag_17\n      swap2\n      swap1\n      tag_18\n      jump\t// in\n    tag_17:\n        /* \"contracts/PRACTICE/Prime-No.sol\":240:250  n % i == 0 */\n      sub\n        /* \"contracts/PRACTICE/Prime-No.sol\":236:354  if (n % i == 0) {... */\n      tag_19\n      jumpi\n        /* \"contracts/PRACTICE/Prime-No.sol\":278:279  0 */\n      0x00\n        /* \"contracts/PRACTICE/Prime-No.sol\":271:279  return 0 */\n      swap2\n      pop\n      pop\n      jump(tag_10)\n        /* \"contracts/PRACTICE/Prime-No.sol\":236:354  if (n % i == 0) {... */\n    tag_19:\n        /* \"contracts/PRACTICE/Prime-No.sol\":216:219  i++ */\n      dup1\n      dup1\n      tag_20\n      swap1\n      tag_21\n      jump\t// in\n    tag_20:\n      swap2\n      pop\n      pop\n        /* \"contracts/PRACTICE/Prime-No.sol\":188:364  for (uint i = 2; i *i <= n; i++) {... */\n      jump(tag_12)\n    tag_13:\n      pop\n        /* \"contracts/PRACTICE/Prime-No.sol\":381:382  1 */\n      0x01\n        /* \"contracts/PRACTICE/Prime-No.sol\":374:382  return 1 */\n      swap1\n      pop\n        /* \"contracts/PRACTICE/Prime-No.sol\":78:390  function pn(uint n) public pure returns (uint){... */\n    tag_10:\n      swap2\n      swap1\n      pop\n      jump\t// out\n        /* \"#utility.yul\":88:205   */\n    tag_23:\n        /* \"#utility.yul\":197:198   */\n      0x00\n        /* \"#utility.yul\":194:195   */\n      0x00\n        /* \"#utility.yul\":187:199   */\n      revert\n        /* \"#utility.yul\":334:411   */\n    tag_25:\n        /* \"#utility.yul\":371:378   */\n      0x00\n        /* \"#utility.yul\":400:405   */\n      dup2\n        /* \"#utility.yul\":389:405   */\n      swap1\n      pop\n        /* \"#utility.yul\":334:411   */\n      swap2\n      swap1\n      pop\n      jump\t// out\n        /* \"#utility.yul\":417:539   */\n    tag_26:\n        /* \"#utility.yul\":490:514   */\n      tag_37\n        /* \"#utility.yul\":508:513   */\n      dup2\n        /* \"#utility.yul\":490:514   */\n      tag_25\n      jump\t// in\n    tag_37:\n        /* \"#utility.yul\":483:488   */\n      dup2\n        /* \"#utility.yul\":480:515   */\n      eq\n        /* \"#utility.yul\":470:533   */\n      tag_38\n      jumpi\n        /* \"#utility.yul\":529:530   */\n      0x00\n        /* \"#utility.yul\":526:527   */\n      0x00\n        /* \"#utility.yul\":519:531   */\n      revert\n        /* \"#utility.yul\":470:533   */\n    tag_38:\n        /* \"#utility.yul\":417:539   */\n      pop\n      jump\t// out\n        /* \"#utility.yul\":545:684   */\n    tag_27:\n        /* \"#utility.yul\":591:596   */\n      0x00\n        /* \"#utility.yul\":629:635   */\n      dup2\n        /* \"#utility.yul\":616:636   */\n      calldataload\n        /* \"#utility.yul\":607:636   */\n      swap1\n      pop\n        /* \"#utility.yul\":645:678   */\n      tag_40\n        /* \"#utility.yul\":672:677   */\n      dup2\n        /* \"#utility.yul\":645:678   */\n      tag_26\n      jump\t// in\n    tag_40:\n        /* \"#utility.yul\":545:684   */\n      swap3\n      swap2\n      pop\n      pop\n      jump\t// out\n        /* \"#utility.yul\":690:1019   */\n    tag_6:\n        /* \"#utility.yul\":749:755   */\n      0x00\n        /* \"#utility.yul\":798:800   */\n      0x20\n        /* \"#utility.yul\":786:795   */\n      dup3\n        /* \"#utility.yul\":777:784   */\n      dup5\n        /* \"#utility.yul\":773:796   */\n      sub\n        /* \"#utility.yul\":769:801   */\n      slt\n        /* \"#utility.yul\":766:885   */\n      iszero\n      tag_42\n      jumpi\n        /* \"#utility.yul\":804:883   */\n      tag_43\n      tag_23\n      jump\t// in\n    tag_43:\n        /* \"#utility.yul\":766:885   */\n    tag_42:\n        /* \"#utility.yul\":924:925   */\n      0x00\n        /* \"#utility.yul\":949:1002   */\n      tag_44\n        /* \"#utility.yul\":994:1001   */\n      dup5\n        /* \"#utility.yul\":985:991   */\n      dup3\n        /* \"#utility.yul\":974:983   */\n      dup6\n        /* \"#utility.yul\":970:992   */\n      add\n        /* \"#utility.yul\":949:1002   */\n      tag_27\n      jump\t// in\n    tag_44:\n        /* \"#utility.yul\":939:1002   */\n      swap2\n      pop\n        /* \"#utility.yul\":895:1012   */\n      pop\n        /* \"#utility.yul\":690:1019   */\n      swap3\n      swap2\n      pop\n      pop\n      jump\t// out\n        /* \"#utility.yul\":1025:1143   */\n    tag_28:\n        /* \"#utility.yul\":1112:1136   */\n      tag_46\n        /* \"#utility.yul\":1130:1135   */\n      dup2\n        /* \"#utility.yul\":1112:1136   */\n      tag_25\n      jump\t// in\n    tag_46:\n        /* \"#utility.yul\":1107:1110   */\n      dup3\n        /* \"#utility.yul\":1100:1137   */\n      mstore\n        /* \"#utility.yul\":1025:1143   */\n      pop\n      pop\n      jump\t// out\n        /* \"#utility.yul\":1149:1371   */\n    tag_9:\n        /* \"#utility.yul\":1242:1246   */\n      0x00\n        /* \"#utility.yul\":1280:1282   */\n      0x20\n        /* \"#utility.yul\":1269:1278   */\n      dup3\n        /* \"#utility.yul\":1265:1283   */\n      add\n        /* \"#utility.yul\":1257:1283   */\n      swap1\n      pop\n        /* \"#utility.yul\":1293:1364   */\n      tag_48\n        /* \"#utility.yul\":1361:1362   */\n      0x00\n        /* \"#utility.yul\":1350:1359   */\n      dup4\n        /* \"#utility.yul\":1346:1363   */\n      add\n        /* \"#utility.yul\":1337:1343   */\n      dup5\n        /* \"#utility.yul\":1293:1364   */\n      tag_28\n      jump\t// in\n    tag_48:\n        /* \"#utility.yul\":1149:1371   */\n      swap3\n      swap2\n      pop\n      pop\n      jump\t// out\n        /* \"#utility.yul\":1377:1557   */\n    tag_29:\n        /* \"#utility.yul\":1425:1502   */\n      0x4e487b7100000000000000000000000000000000000000000000000000000000\n        /* \"#utility.yul\":1422:1423   */\n      0x00\n        /* \"#utility.yul\":1415:1503   */\n      mstore\n        /* \"#utility.yul\":1522:1526   */\n      0x11\n        /* \"#utility.yul\":1519:1520   */\n      0x04\n        /* \"#utility.yul\":1512:1527   */\n      mstore\n        /* \"#utility.yul\":1546:1550   */\n      0x24\n        /* \"#utility.yul\":1543:1544   */\n      0x00\n        /* \"#utility.yul\":1536:1551   */\n      revert\n        /* \"#utility.yul\":1563:1973   */\n    tag_16:\n        /* \"#utility.yul\":1603:1610   */\n      0x00\n        /* \"#utility.yul\":1626:1646   */\n      tag_51\n        /* \"#utility.yul\":1644:1645   */\n      dup3\n        /* \"#utility.yul\":1626:1646   */\n      tag_25\n      jump\t// in\n    tag_51:\n        /* \"#utility.yul\":1621:1646   */\n      swap2\n      pop\n        /* \"#utility.yul\":1660:1680   */\n      tag_52\n        /* \"#utility.yul\":1678:1679   */\n      dup4\n        /* \"#utility.yul\":1660:1680   */\n      tag_25\n      jump\t// in\n    tag_52:\n        /* \"#utility.yul\":1655:1680   */\n      swap3\n      pop\n        /* \"#utility.yul\":1715:1716   */\n      dup3\n        /* \"#utility.yul\":1712:1713   */\n      dup3\n        /* \"#utility.yul\":1708:1717   */\n      mul\n        /* \"#utility.yul\":1737:1767   */\n      tag_53\n        /* \"#utility.yul\":1755:1766   */\n      dup2\n        /* \"#utility.yul\":1737:1767   */\n      tag_25\n      jump\t// in\n    tag_53:\n        /* \"#utility.yul\":1726:1767   */\n      swap2\n      pop\n        /* \"#utility.yul\":1916:1917   */\n      dup3\n        /* \"#utility.yul\":1907:1914   */\n      dup3\n        /* \"#utility.yul\":1903:1918   */\n      div\n        /* \"#utility.yul\":1900:1901   */\n      dup5\n        /* \"#utility.yul\":1897:1919   */\n      eq\n        /* \"#utility.yul\":1877:1878   */\n      dup4\n        /* \"#utility.yul\":1870:1879   */\n      iszero\n        /* \"#utility.yul\":1850:1933   */\n      or\n        /* \"#utility.yul\":1827:1966   */\n      tag_54\n      jumpi\n        /* \"#utility.yul\":1946:1964   */\n      tag_55\n      tag_29\n      jump\t// in\n    tag_55:\n        /* \"#utility.yul\":1827:1966   */\n    tag_54:\n        /* \"#utility.yul\":1611:1973   */\n      pop\n        /* \"#utility.yul\":1563:1973   */\n      swap3\n      swap2\n      pop\n      pop\n      jump\t// out\n        /* \"#utility.yul\":1979:2159   */\n    tag_30:\n        /* \"#utility.yul\":2027:2104   */\n      0x4e487b7100000000000000000000000000000000000000000000000000000000\n        /* \"#utility.yul\":2024:2025   */\n      0x00\n        /* \"#utility.yul\":2017:2105   */\n      mstore\n        /* \"#utility.yul\":2124:2128   */\n      0x12\n        /* \"#utility.yul\":2121:2122   */\n      0x04\n        /* \"#utility.yul\":2114:2129   */\n      mstore\n        /* \"#utility.yul\":2148:2152   */\n      0x24\n        /* \"#utility.yul\":2145:2146   */\n      0x00\n        /* \"#utility.yul\":2138:2153   */\n      revert\n        /* \"#utility.yul\":2165:2341   */\n    tag_18:\n        /* \"#utility.yul\":2197:2198   */\n      0x00\n        /* \"#utility.yul\":2214:2234   */\n      tag_58\n        /* \"#utility.yul\":2232:2233   */\n      dup3\n        /* \"#utility.yul\":2214:2234   */\n      tag_25\n      jump\t// in\n    tag_58:\n        /* \"#utility.yul\":2209:2234   */\n      swap2\n      pop\n        /* \"#utility.yul\":2248:2268   */\n      tag_59\n        /* \"#utility.yul\":2266:2267   */\n      dup4\n        /* \"#utility.yul\":2248:2268   */\n      tag_25\n      jump\t// in\n    tag_59:\n        /* \"#utility.yul\":2243:2268   */\n      swap3\n      pop\n        /* \"#utility.yul\":2287:2288   */\n      dup3\n        /* \"#utility.yul\":2277:2312   */\n      tag_60\n      jumpi\n        /* \"#utility.yul\":2292:2310   */\n      tag_61\n      tag_30\n      jump\t// in\n    tag_61:\n        /* \"#utility.yul\":2277:2312   */\n    tag_60:\n        /* \"#utility.yul\":2333:2334   */\n      dup3\n        /* \"#utility.yul\":2330:2331   */\n      dup3\n        /* \"#utility.yul\":2326:2335   */\n      mod\n        /* \"#utility.yul\":2321:2335   */\n      swap1\n      pop\n        /* \"#utility.yul\":2165:2341   */\n      swap3\n      swap2\n      pop\n      pop\n      jump\t// out\n        /* \"#utility.yul\":2347:2580   */\n    tag_21:\n        /* \"#utility.yul\":2386:2389   */\n      0x00\n        /* \"#utility.yul\":2409:2433   */\n      tag_63\n        /* \"#utility.yul\":2427:2432   */\n      dup3\n        /* \"#utility.yul\":2409:2433   */\n      tag_25\n      jump\t// in\n    tag_63:\n        /* \"#utility.yul\":2400:2433   */\n      swap2\n      pop\n        /* \"#utility.yul\":2455:2521   */\n      0xffffffffffffffffffffffffffffffffffffffffffffffffffffffffffffffff\n        /* \"#utility.yul\":2448:2453   */\n      dup3\n        /* \"#utility.yul\":2445:2522   */\n      sub\n        /* \"#utility.yul\":2442:2545   */\n      tag_64\n      jumpi\n        /* \"#utility.yul\":2525:2543   */\n      tag_65\n      tag_29\n      jump\t// in\n    tag_65:\n        /* \"#utility.yul\":2442:2545   */\n    tag_64:\n        /* \"#utility.yul\":2572:2573   */\n      0x01\n        /* \"#utility.yul\":2565:2570   */\n      dup3\n        /* \"#utility.yul\":2561:2574   */\n      add\n        /* \"#utility.yul\":2554:2574   */\n      swap1\n      pop\n        /* \"#utility.yul\":2347:2580   */\n      swap2\n      swap1\n      pop\n      jump\t// out\n\n    auxdata: 0xa26469706673582212205c9b78501f178dcaeee1c09f0ac9eec8c1f8bb73b0714aae5ecfabb71ff62f6264736f6c634300081c0033\n}\n",
				"bytecode": {
					"linkReferences": {},
					"object": "6080604052348015600e575f5ffd5b506102918061001c5f395ff3fe608060405234801561000f575f5ffd5b5060043610610029575f3560e01c806319e946401461002d575b5f5ffd5b610047600480360381019061004291906100f6565b61005d565b6040516100549190610130565b60405180910390f35b5f6001821161006e575f90506100ba565b5f600290505b8281826100819190610176565b116100b4575f818461009391906101e4565b036100a1575f9150506100ba565b80806100ac90610214565b915050610074565b50600190505b919050565b5f5ffd5b5f819050919050565b6100d5816100c3565b81146100df575f5ffd5b50565b5f813590506100f0816100cc565b92915050565b5f6020828403121561010b5761010a6100bf565b5b5f610118848285016100e2565b91505092915050565b61012a816100c3565b82525050565b5f6020820190506101435f830184610121565b92915050565b7f4e487b71000000000000000000000000000000000000000000000000000000005f52601160045260245ffd5b5f610180826100c3565b915061018b836100c3565b9250828202610199816100c3565b915082820484148315176101b0576101af610149565b5b5092915050565b7f4e487b71000000000000000000000000000000000000000000000000000000005f52601260045260245ffd5b5f6101ee826100c3565b91506101f9836100c3565b925082610209576102086101b7565b5b828206905092915050565b5f61021e826100c3565b91507fffffffffffffffffffffffffffffffffffffffffffffffffffffffffffffffff82036102505761024f610149565b5b60018201905091905056fea26469706673582212205c9b78501f178dcaeee1c09f0ac9eec8c1f8bb73b0714aae5ecfabb71ff62f6264736f6c634300081c0033",
					"opcodes": "PUSH1 0x80 PUSH1 0x40 MSTORE CALLVALUE DUP1 ISZERO PUSH1 0xE JUMPI PUSH0 PUSH0 REVERT JUMPDEST POP PUSH2 0x291 DUP1 PUSH2 0x1C PUSH0 CODECOPY PUSH0 RETURN INVALID PUSH1 0x80 PUSH1 0x40 MSTORE CALLVALUE DUP1 ISZERO PUSH2 0xF JUMPI PUSH0 PUSH0 REVERT JUMPDEST POP PUSH1 0x4 CALLDATASIZE LT PUSH2 0x29 JUMPI PUSH0 CALLDATALOAD PUSH1 0xE0 SHR DUP1 PUSH4 0x19E94640 EQ PUSH2 0x2D JUMPI JUMPDEST PUSH0 PUSH0 REVERT JUMPDEST PUSH2 0x47 PUSH1 0x4 DUP1 CALLDATASIZE SUB DUP2 ADD SWAP1 PUSH2 0x42 SWAP2 SWAP1 PUSH2 0xF6 JUMP JUMPDEST PUSH2 0x5D JUMP JUMPDEST PUSH1 0x40 MLOAD PUSH2 0x54 SWAP2 SWAP1 PUSH2 0x130 JUMP JUMPDEST PUSH1 0x40 MLOAD DUP1 SWAP2 SUB SWAP1 RETURN JUMPDEST PUSH0 PUSH1 0x1 DUP3 GT PUSH2 0x6E JUMPI PUSH0 SWAP1 POP PUSH2 0xBA JUMP JUMPDEST PUSH0 PUSH1 0x2 SWAP1 POP JUMPDEST DUP3 DUP2 DUP3 PUSH2 0x81 SWAP2 SWAP1 PUSH2 0x176 JUMP JUMPDEST GT PUSH2 0xB4 JUMPI PUSH0 DUP2 DUP5 PUSH2 0x93 SWAP2 SWAP1 PUSH2 0x1E4 JUMP JUMPDEST SUB PUSH2 0xA1 JUMPI PUSH0 SWAP2 POP POP PUSH2 0xBA JUMP JUMPDEST DUP1 DUP1 PUSH2 0xAC SWAP1 PUSH2 0x214 JUMP JUMPDEST SWAP2 POP POP PUSH2 0x74 JUMP JUMPDEST POP PUSH1 0x1 SWAP1 POP JUMPDEST SWAP2 SWAP1 POP JUMP JUMPDEST PUSH0 PUSH0 REVERT JUMPDEST PUSH0 DUP2 SWAP1 POP SWAP2 SWAP1 POP JUMP JUMPDEST PUSH2 0xD5 DUP2 PUSH2 0xC3 JUMP JUMPDEST DUP2 EQ PUSH2 0xDF JUMPI PUSH0 PUSH0 REVERT JUMPDEST POP JUMP JUMPDEST PUSH0 DUP2 CALLDATALOAD SWAP1 POP PUSH2 0xF0 DUP2 PUSH2 0xCC JUMP JUMPDEST SWAP3 SWAP2 POP POP JUMP JUMPDEST PUSH0 PUSH1 0x20 DUP3 DUP5 SUB SLT ISZERO PUSH2 0x10B JUMPI PUSH2 0x10A PUSH2 0xBF JUMP JUMPDEST JUMPDEST PUSH0 PUSH2 0x118 DUP5 DUP3 DUP6 ADD PUSH2 0xE2 JUMP JUMPDEST SWAP2 POP POP SWAP3 SWAP2 POP POP JUMP JUMPDEST PUSH2 0x12A DUP2 PUSH2 0xC3 JUMP JUMPDEST DUP3 MSTORE POP POP JUMP JUMPDEST PUSH0 PUSH1 0x20 DUP3 ADD SWAP1 POP PUSH2 0x143 PUSH0 DUP4 ADD DUP5 PUSH2 0x121 JUMP JUMPDEST SWAP3 SWAP2 POP POP JUMP JUMPDEST PUSH32 0x4E487B7100000000000000000000000000000000000000000000000000000000 PUSH0 MSTORE PUSH1 0x11 PUSH1 0x4 MSTORE PUSH1 0x24 PUSH0 REVERT JUMPDEST PUSH0 PUSH2 0x180 DUP3 PUSH2 0xC3 JUMP JUMPDEST SWAP2 POP PUSH2 0x18B DUP4 PUSH2 0xC3 JUMP JUMPDEST SWAP3 POP DUP3 DUP3 MUL PUSH2 0x199 DUP2 PUSH2 0xC3 JUMP JUMPDEST SWAP2 POP DUP3 DUP3 DIV DUP5 EQ DUP4 ISZERO OR PUSH2 0x1B0 JUMPI PUSH2 0x1AF PUSH2 0x149 JUMP JUMPDEST JUMPDEST POP SWAP3 SWAP2 POP POP JUMP JUMPDEST PUSH32 0x4E487B7100000000000000000000000000000000000000000000000000000000 PUSH0 MSTORE PUSH1 0x12 PUSH1 0x4 MSTORE PUSH1 0x24 PUSH0 REVERT JUMPDEST PUSH0 PUSH2 0x1EE DUP3 PUSH2 0xC3 JUMP JUMPDEST SWAP2 POP PUSH2 0x1F9 DUP4 PUSH2 0xC3 JUMP JUMPDEST SWAP3 POP DUP3 PUSH2 0x209 JUMPI PUSH2 0x208 PUSH2 0x1B7 JUMP JUMPDEST JUMPDEST DUP3 DUP3 MOD SWAP1 POP SWAP3 SWAP2 POP POP JUMP JUMPDEST PUSH0 PUSH2 0x21E DUP3 PUSH2 0xC3 JUMP JUMPDEST SWAP2 POP PUSH32 0xFFFFFFFFFFFFFFFFFFFFFFFFFFFFFFFFFFFFFFFFFFFFFFFFFFFFFFFFFFFFFFFF DUP3 SUB PUSH2 0x250 JUMPI PUSH2 0x24F PUSH2 0x149 JUMP JUMPDEST JUMPDEST PUSH1 0x1 DUP3 ADD SWAP1 POP SWAP2 SWAP1 POP JUMP INVALID LOG2 PUSH5 0x6970667358 0x22 SLT KECCAK256 TLOAD SWAP12 PUSH25 0x501F178DCAEEE1C09F0AC9EEC8C1F8BB73B0714AAE5ECFABB7 0x1F 0xF6 0x2F PUSH3 0x64736F PUSH13 0x634300081C0033000000000000 "
				},
				"gasEstimates": {
					"creation": {
						"codeDepositCost": "131400",
						"executionCost": "175",
						"totalCost": "131575"
					},
					"external": {
						"pn(uint256)": "infinite"
					}
				},
				"methodIdentifiers": {
					"pn(uint256)": "19e94640"
				}
			},
			"storageLayout": {
				"storage": [],
				"types": null
			},
			"userdoc": {
				"kind": "user",
				"methods": {},
				"version": 1
			}
		}
	}
}