{
	"contracts/PRACTICE/Get Bit.sol": {
		"SimpleOperations": {
			"abi": [
				{
					"inputs": [
						{
							"internalType": "uint256",
							"name": "a",
							"type": "uint256"
						},
						{
							"internalType": "uint256",
							"name": "b",
							"type": "uint256"
						}
					],
					"name": "calculateAverage",
					"outputs": [
						{
							"internalType": "uint256",
							"name": "",
							"type": "uint256"
						}
					],
					"stateMutability": "pure",
					"type": "function"
				},
				{
					"inputs": [
						{
							"internalType": "uint256",
							"name": "num",
							"type": "uint256"
						},
						{
							"internalType": "uint256",
							"name": "position",
							"type": "uint256"
						}
					],
					"name": "getBit",
					"outputs": [
						{
							"internalType": "uint8",
							"name": "",
							"type": "uint8"
						}
					],
					"stateMutability": "pure",
					"type": "function"
				},
				{
					"inputs": [
						{
							"internalType": "address",
							"name": "to",
							"type": "address"
						}
					],
					"name": "sendEth",
					"outputs": [],
					"stateMutability": "payable",
					"type": "function"
				}
			],
			"devdoc": {
				"kind": "dev",
				"methods": {},
				"version": 1
			},
			"evm": {
				"assembly": "    /* \"contracts/PRACTICE/Get Bit.sol\":61:695  contract SimpleOperations {... */\n  mstore(0x40, 0x80)\n  callvalue\n  dup1\n  iszero\n  tag_1\n  jumpi\n  revert(0x00, 0x00)\ntag_1:\n  pop\n  dataSize(sub_0)\n  dup1\n  dataOffset(sub_0)\n  0x00\n  codecopy\n  0x00\n  return\nstop\n\nsub_0: assembly {\n        /* \"contracts/PRACTICE/Get Bit.sol\":61:695  contract SimpleOperations {... */\n      mstore(0x40, 0x80)\n      jumpi(tag_1, lt(calldatasize, 0x04))\n      shr(0xe0, calldataload(0x00))\n      dup1\n      0x76a54c60\n      eq\n      tag_2\n      jumpi\n      dup1\n      0x8fb3c55d\n      eq\n      tag_3\n      jumpi\n      dup1\n      0xd5050029\n      eq\n      tag_4\n      jumpi\n    tag_1:\n      revert(0x00, 0x00)\n        /* \"contracts/PRACTICE/Get Bit.sol\":544:692  function sendEth(address to) public payable {... */\n    tag_2:\n      tag_5\n      0x04\n      dup1\n      calldatasize\n      sub\n      dup2\n      add\n      swap1\n      tag_6\n      swap2\n      swap1\n      tag_7\n      jump\t// in\n    tag_6:\n      tag_8\n      jump\t// in\n    tag_5:\n      stop\n        /* \"contracts/PRACTICE/Get Bit.sol\":98:235  function calculateAverage(... */\n    tag_3:\n      callvalue\n      dup1\n      iszero\n      tag_9\n      jumpi\n      revert(0x00, 0x00)\n    tag_9:\n      pop\n      tag_10\n      0x04\n      dup1\n      calldatasize\n      sub\n      dup2\n      add\n      swap1\n      tag_11\n      swap2\n      swap1\n      tag_12\n      jump\t// in\n    tag_11:\n      tag_13\n      jump\t// in\n    tag_10:\n      mload(0x40)\n      tag_14\n      swap2\n      swap1\n      tag_15\n      jump\t// in\n    tag_14:\n      mload(0x40)\n      dup1\n      swap2\n      sub\n      swap1\n      return\n        /* \"contracts/PRACTICE/Get Bit.sol\":246:526  function getBit(uint256 num, uint256 position) public pure returns (uint8) {... */\n    tag_4:\n      callvalue\n      dup1\n      iszero\n      tag_16\n      jumpi\n      revert(0x00, 0x00)\n    tag_16:\n      pop\n      tag_17\n      0x04\n      dup1\n      calldatasize\n      sub\n      dup2\n      add\n      swap1\n      tag_18\n      swap2\n      swap1\n      tag_12\n      jump\t// in\n    tag_18:\n      tag_19\n      jump\t// in\n    tag_17:\n      mload(0x40)\n      tag_20\n      swap2\n      swap1\n      tag_21\n      jump\t// in\n    tag_20:\n      mload(0x40)\n      dup1\n      swap2\n      sub\n      swap1\n      return\n        /* \"contracts/PRACTICE/Get Bit.sol\":544:692  function sendEth(address to) public payable {... */\n    tag_8:\n        /* \"contracts/PRACTICE/Get Bit.sol\":619:621  to */\n      dup1\n        /* \"contracts/PRACTICE/Get Bit.sol\":607:621  msg.sender!=to */\n      0xffffffffffffffffffffffffffffffffffffffff\n      and\n        /* \"contracts/PRACTICE/Get Bit.sol\":607:617  msg.sender */\n      caller\n        /* \"contracts/PRACTICE/Get Bit.sol\":607:621  msg.sender!=to */\n      0xffffffffffffffffffffffffffffffffffffffff\n      and\n      sub\n        /* \"contracts/PRACTICE/Get Bit.sol\":599:642  require(msg.sender!=to,\"both cant be same\") */\n      tag_23\n      jumpi\n      mload(0x40)\n      0x08c379a000000000000000000000000000000000000000000000000000000000\n      dup2\n      mstore\n      0x04\n      add\n      tag_24\n      swap1\n      tag_25\n      jump\t// in\n    tag_24:\n      mload(0x40)\n      dup1\n      swap2\n      sub\n      swap1\n      revert\n    tag_23:\n        /* \"contracts/PRACTICE/Get Bit.sol\":661:663  to */\n      dup1\n        /* \"contracts/PRACTICE/Get Bit.sol\":653:673  payable(to).transfer */\n      0xffffffffffffffffffffffffffffffffffffffff\n      and\n        /* \"contracts/PRACTICE/Get Bit.sol\":653:684  payable(to).transfer(msg.value) */\n      0x08fc\n        /* \"contracts/PRACTICE/Get Bit.sol\":674:683  msg.value */\n      callvalue\n        /* \"contracts/PRACTICE/Get Bit.sol\":653:684  payable(to).transfer(msg.value) */\n      swap1\n      dup2\n      iszero\n      mul\n      swap1\n      mload(0x40)\n      0x00\n      mload(0x40)\n      dup1\n      dup4\n      sub\n      dup2\n      dup6\n      dup9\n      dup9\n      call\n      swap4\n      pop\n      pop\n      pop\n      pop\n      iszero\n      dup1\n      iszero\n      tag_27\n      jumpi\n      returndatacopy(0x00, 0x00, returndatasize)\n      revert(0x00, returndatasize)\n    tag_27:\n      pop\n        /* \"contracts/PRACTICE/Get Bit.sol\":544:692  function sendEth(address to) public payable {... */\n      pop\n      jump\t// out\n        /* \"contracts/PRACTICE/Get Bit.sol\":98:235  function calculateAverage(... */\n    tag_13:\n        /* \"contracts/PRACTICE/Get Bit.sol\":193:200  uint256 */\n      0x00\n        /* \"contracts/PRACTICE/Get Bit.sol\":226:227  2 */\n      0x02\n        /* \"contracts/PRACTICE/Get Bit.sol\":223:224  b */\n      dup3\n        /* \"contracts/PRACTICE/Get Bit.sol\":221:222  a */\n      dup5\n        /* \"contracts/PRACTICE/Get Bit.sol\":221:224  a+b */\n      tag_29\n      swap2\n      swap1\n      tag_30\n      jump\t// in\n    tag_29:\n        /* \"contracts/PRACTICE/Get Bit.sol\":220:227  (a+b)/2 */\n      tag_31\n      swap2\n      swap1\n      tag_32\n      jump\t// in\n    tag_31:\n        /* \"contracts/PRACTICE/Get Bit.sol\":213:227  return (a+b)/2 */\n      swap1\n      pop\n        /* \"contracts/PRACTICE/Get Bit.sol\":98:235  function calculateAverage(... */\n      swap3\n      swap2\n      pop\n      pop\n      jump\t// out\n        /* \"contracts/PRACTICE/Get Bit.sol\":246:526  function getBit(uint256 num, uint256 position) public pure returns (uint8) {... */\n    tag_19:\n        /* \"contracts/PRACTICE/Get Bit.sol\":314:319  uint8 */\n      0x00\n        /* \"contracts/PRACTICE/Get Bit.sol\":329:337  uint32 i */\n      0x00\n        /* \"contracts/PRACTICE/Get Bit.sol\":340:341  1 */\n      0x01\n        /* \"contracts/PRACTICE/Get Bit.sol\":329:341  uint32 i = 1 */\n      swap1\n      pop\n        /* \"contracts/PRACTICE/Get Bit.sol\":350:502  while (num != 0) { ... */\n    tag_34:\n        /* \"contracts/PRACTICE/Get Bit.sol\":364:365  0 */\n      0x00\n        /* \"contracts/PRACTICE/Get Bit.sol\":357:360  num */\n      dup5\n        /* \"contracts/PRACTICE/Get Bit.sol\":357:365  num != 0 */\n      eq\n        /* \"contracts/PRACTICE/Get Bit.sol\":350:502  while (num != 0) { ... */\n      tag_35\n      jumpi\n        /* \"contracts/PRACTICE/Get Bit.sol\":379:388  uint8 bit */\n      0x00\n        /* \"contracts/PRACTICE/Get Bit.sol\":403:404  2 */\n      0x02\n        /* \"contracts/PRACTICE/Get Bit.sol\":397:400  num */\n      dup6\n        /* \"contracts/PRACTICE/Get Bit.sol\":397:404  num % 2 */\n      tag_36\n      swap2\n      swap1\n      tag_37\n      jump\t// in\n    tag_36:\n        /* \"contracts/PRACTICE/Get Bit.sol\":379:405  uint8 bit = uint8(num % 2) */\n      swap1\n      pop\n        /* \"contracts/PRACTICE/Get Bit.sol\":426:434  position */\n      dup4\n        /* \"contracts/PRACTICE/Get Bit.sol\":421:422  i */\n      dup3\n        /* \"contracts/PRACTICE/Get Bit.sol\":421:434  i == position */\n      0xffffffff\n      and\n      sub\n        /* \"contracts/PRACTICE/Get Bit.sol\":417:462  if (i == position) ... */\n      tag_38\n      jumpi\n        /* \"contracts/PRACTICE/Get Bit.sol\":456:459  bit */\n      dup1\n        /* \"contracts/PRACTICE/Get Bit.sol\":449:459  return bit */\n      swap3\n      pop\n      pop\n      pop\n      jump(tag_33)\n        /* \"contracts/PRACTICE/Get Bit.sol\":417:462  if (i == position) ... */\n    tag_38:\n        /* \"contracts/PRACTICE/Get Bit.sol\":481:482  2 */\n      0x02\n        /* \"contracts/PRACTICE/Get Bit.sol\":474:482  num /= 2 */\n      dup6\n      tag_39\n      swap2\n      swap1\n      tag_32\n      jump\t// in\n    tag_39:\n      swap5\n      pop\n        /* \"contracts/PRACTICE/Get Bit.sol\":496:499  i++ */\n      dup2\n      dup1\n      tag_40\n      swap1\n      tag_41\n      jump\t// in\n    tag_40:\n      swap3\n      pop\n      pop\n        /* \"contracts/PRACTICE/Get Bit.sol\":367:502  { ... */\n      pop\n        /* \"contracts/PRACTICE/Get Bit.sol\":350:502  while (num != 0) { ... */\n      jump(tag_34)\n    tag_35:\n        /* \"contracts/PRACTICE/Get Bit.sol\":515:523  revert() */\n      revert(0x00, 0x00)\n        /* \"contracts/PRACTICE/Get Bit.sol\":246:526  function getBit(uint256 num, uint256 position) public pure returns (uint8) {... */\n    tag_33:\n      swap3\n      swap2\n      pop\n      pop\n      jump\t// out\n        /* \"#utility.yul\":88:205   */\n    tag_43:\n        /* \"#utility.yul\":197:198   */\n      0x00\n        /* \"#utility.yul\":194:195   */\n      0x00\n        /* \"#utility.yul\":187:199   */\n      revert\n        /* \"#utility.yul\":334:460   */\n    tag_45:\n        /* \"#utility.yul\":371:378   */\n      0x00\n        /* \"#utility.yul\":411:453   */\n      0xffffffffffffffffffffffffffffffffffffffff\n        /* \"#utility.yul\":404:409   */\n      dup3\n        /* \"#utility.yul\":400:454   */\n      and\n        /* \"#utility.yul\":389:454   */\n      swap1\n      pop\n        /* \"#utility.yul\":334:460   */\n      swap2\n      swap1\n      pop\n      jump\t// out\n        /* \"#utility.yul\":466:562   */\n    tag_46:\n        /* \"#utility.yul\":503:510   */\n      0x00\n        /* \"#utility.yul\":532:556   */\n      tag_67\n        /* \"#utility.yul\":550:555   */\n      dup3\n        /* \"#utility.yul\":532:556   */\n      tag_45\n      jump\t// in\n    tag_67:\n        /* \"#utility.yul\":521:556   */\n      swap1\n      pop\n        /* \"#utility.yul\":466:562   */\n      swap2\n      swap1\n      pop\n      jump\t// out\n        /* \"#utility.yul\":568:690   */\n    tag_47:\n        /* \"#utility.yul\":641:665   */\n      tag_69\n        /* \"#utility.yul\":659:664   */\n      dup2\n        /* \"#utility.yul\":641:665   */\n      tag_46\n      jump\t// in\n    tag_69:\n        /* \"#utility.yul\":634:639   */\n      dup2\n        /* \"#utility.yul\":631:666   */\n      eq\n        /* \"#utility.yul\":621:684   */\n      tag_70\n      jumpi\n        /* \"#utility.yul\":680:681   */\n      0x00\n        /* \"#utility.yul\":677:678   */\n      0x00\n        /* \"#utility.yul\":670:682   */\n      revert\n        /* \"#utility.yul\":621:684   */\n    tag_70:\n        /* \"#utility.yul\":568:690   */\n      pop\n      jump\t// out\n        /* \"#utility.yul\":696:835   */\n    tag_48:\n        /* \"#utility.yul\":742:747   */\n      0x00\n        /* \"#utility.yul\":780:786   */\n      dup2\n        /* \"#utility.yul\":767:787   */\n      calldataload\n        /* \"#utility.yul\":758:787   */\n      swap1\n      pop\n        /* \"#utility.yul\":796:829   */\n      tag_72\n        /* \"#utility.yul\":823:828   */\n      dup2\n        /* \"#utility.yul\":796:829   */\n      tag_47\n      jump\t// in\n    tag_72:\n        /* \"#utility.yul\":696:835   */\n      swap3\n      swap2\n      pop\n      pop\n      jump\t// out\n        /* \"#utility.yul\":841:1170   */\n    tag_7:\n        /* \"#utility.yul\":900:906   */\n      0x00\n        /* \"#utility.yul\":949:951   */\n      0x20\n        /* \"#utility.yul\":937:946   */\n      dup3\n        /* \"#utility.yul\":928:935   */\n      dup5\n        /* \"#utility.yul\":924:947   */\n      sub\n        /* \"#utility.yul\":920:952   */\n      slt\n        /* \"#utility.yul\":917:1036   */\n      iszero\n      tag_74\n      jumpi\n        /* \"#utility.yul\":955:1034   */\n      tag_75\n      tag_43\n      jump\t// in\n    tag_75:\n        /* \"#utility.yul\":917:1036   */\n    tag_74:\n        /* \"#utility.yul\":1075:1076   */\n      0x00\n        /* \"#utility.yul\":1100:1153   */\n      tag_76\n        /* \"#utility.yul\":1145:1152   */\n      dup5\n        /* \"#utility.yul\":1136:1142   */\n      dup3\n        /* \"#utility.yul\":1125:1134   */\n      dup6\n        /* \"#utility.yul\":1121:1143   */\n      add\n        /* \"#utility.yul\":1100:1153   */\n      tag_48\n      jump\t// in\n    tag_76:\n        /* \"#utility.yul\":1090:1153   */\n      swap2\n      pop\n        /* \"#utility.yul\":1046:1163   */\n      pop\n        /* \"#utility.yul\":841:1170   */\n      swap3\n      swap2\n      pop\n      pop\n      jump\t// out\n        /* \"#utility.yul\":1176:1253   */\n    tag_49:\n        /* \"#utility.yul\":1213:1220   */\n      0x00\n        /* \"#utility.yul\":1242:1247   */\n      dup2\n        /* \"#utility.yul\":1231:1247   */\n      swap1\n      pop\n        /* \"#utility.yul\":1176:1253   */\n      swap2\n      swap1\n      pop\n      jump\t// out\n        /* \"#utility.yul\":1259:1381   */\n    tag_50:\n        /* \"#utility.yul\":1332:1356   */\n      tag_79\n        /* \"#utility.yul\":1350:1355   */\n      dup2\n        /* \"#utility.yul\":1332:1356   */\n      tag_49\n      jump\t// in\n    tag_79:\n        /* \"#utility.yul\":1325:1330   */\n      dup2\n        /* \"#utility.yul\":1322:1357   */\n      eq\n        /* \"#utility.yul\":1312:1375   */\n      tag_80\n      jumpi\n        /* \"#utility.yul\":1371:1372   */\n      0x00\n        /* \"#utility.yul\":1368:1369   */\n      0x00\n        /* \"#utility.yul\":1361:1373   */\n      revert\n        /* \"#utility.yul\":1312:1375   */\n    tag_80:\n        /* \"#utility.yul\":1259:1381   */\n      pop\n      jump\t// out\n        /* \"#utility.yul\":1387:1526   */\n    tag_51:\n        /* \"#utility.yul\":1433:1438   */\n      0x00\n        /* \"#utility.yul\":1471:1477   */\n      dup2\n        /* \"#utility.yul\":1458:1478   */\n      calldataload\n        /* \"#utility.yul\":1449:1478   */\n      swap1\n      pop\n        /* \"#utility.yul\":1487:1520   */\n      tag_82\n        /* \"#utility.yul\":1514:1519   */\n      dup2\n        /* \"#utility.yul\":1487:1520   */\n      tag_50\n      jump\t// in\n    tag_82:\n        /* \"#utility.yul\":1387:1526   */\n      swap3\n      swap2\n      pop\n      pop\n      jump\t// out\n        /* \"#utility.yul\":1532:2006   */\n    tag_12:\n        /* \"#utility.yul\":1600:1606   */\n      0x00\n        /* \"#utility.yul\":1608:1614   */\n      0x00\n        /* \"#utility.yul\":1657:1659   */\n      0x40\n        /* \"#utility.yul\":1645:1654   */\n      dup4\n        /* \"#utility.yul\":1636:1643   */\n      dup6\n        /* \"#utility.yul\":1632:1655   */\n      sub\n        /* \"#utility.yul\":1628:1660   */\n      slt\n        /* \"#utility.yul\":1625:1744   */\n      iszero\n      tag_84\n      jumpi\n        /* \"#utility.yul\":1663:1742   */\n      tag_85\n      tag_43\n      jump\t// in\n    tag_85:\n        /* \"#utility.yul\":1625:1744   */\n    tag_84:\n        /* \"#utility.yul\":1783:1784   */\n      0x00\n        /* \"#utility.yul\":1808:1861   */\n      tag_86\n        /* \"#utility.yul\":1853:1860   */\n      dup6\n        /* \"#utility.yul\":1844:1850   */\n      dup3\n        /* \"#utility.yul\":1833:1842   */\n      dup7\n        /* \"#utility.yul\":1829:1851   */\n      add\n        /* \"#utility.yul\":1808:1861   */\n      tag_51\n      jump\t// in\n    tag_86:\n        /* \"#utility.yul\":1798:1861   */\n      swap3\n      pop\n        /* \"#utility.yul\":1754:1871   */\n      pop\n        /* \"#utility.yul\":1910:1912   */\n      0x20\n        /* \"#utility.yul\":1936:1989   */\n      tag_87\n        /* \"#utility.yul\":1981:1988   */\n      dup6\n        /* \"#utility.yul\":1972:1978   */\n      dup3\n        /* \"#utility.yul\":1961:1970   */\n      dup7\n        /* \"#utility.yul\":1957:1979   */\n      add\n        /* \"#utility.yul\":1936:1989   */\n      tag_51\n      jump\t// in\n    tag_87:\n        /* \"#utility.yul\":1926:1989   */\n      swap2\n      pop\n        /* \"#utility.yul\":1881:1999   */\n      pop\n        /* \"#utility.yul\":1532:2006   */\n      swap3\n      pop\n      swap3\n      swap1\n      pop\n      jump\t// out\n        /* \"#utility.yul\":2012:2130   */\n    tag_52:\n        /* \"#utility.yul\":2099:2123   */\n      tag_89\n        /* \"#utility.yul\":2117:2122   */\n      dup2\n        /* \"#utility.yul\":2099:2123   */\n      tag_49\n      jump\t// in\n    tag_89:\n        /* \"#utility.yul\":2094:2097   */\n      dup3\n        /* \"#utility.yul\":2087:2124   */\n      mstore\n        /* \"#utility.yul\":2012:2130   */\n      pop\n      pop\n      jump\t// out\n        /* \"#utility.yul\":2136:2358   */\n    tag_15:\n        /* \"#utility.yul\":2229:2233   */\n      0x00\n        /* \"#utility.yul\":2267:2269   */\n      0x20\n        /* \"#utility.yul\":2256:2265   */\n      dup3\n        /* \"#utility.yul\":2252:2270   */\n      add\n        /* \"#utility.yul\":2244:2270   */\n      swap1\n      pop\n        /* \"#utility.yul\":2280:2351   */\n      tag_91\n        /* \"#utility.yul\":2348:2349   */\n      0x00\n        /* \"#utility.yul\":2337:2346   */\n      dup4\n        /* \"#utility.yul\":2333:2350   */\n      add\n        /* \"#utility.yul\":2324:2330   */\n      dup5\n        /* \"#utility.yul\":2280:2351   */\n      tag_52\n      jump\t// in\n    tag_91:\n        /* \"#utility.yul\":2136:2358   */\n      swap3\n      swap2\n      pop\n      pop\n      jump\t// out\n        /* \"#utility.yul\":2364:2450   */\n    tag_53:\n        /* \"#utility.yul\":2399:2406   */\n      0x00\n        /* \"#utility.yul\":2439:2443   */\n      0xff\n        /* \"#utility.yul\":2432:2437   */\n      dup3\n        /* \"#utility.yul\":2428:2444   */\n      and\n        /* \"#utility.yul\":2417:2444   */\n      swap1\n      pop\n        /* \"#utility.yul\":2364:2450   */\n      swap2\n      swap1\n      pop\n      jump\t// out\n        /* \"#utility.yul\":2456:2568   */\n    tag_54:\n        /* \"#utility.yul\":2539:2561   */\n      tag_94\n        /* \"#utility.yul\":2555:2560   */\n      dup2\n        /* \"#utility.yul\":2539:2561   */\n      tag_53\n      jump\t// in\n    tag_94:\n        /* \"#utility.yul\":2534:2537   */\n      dup3\n        /* \"#utility.yul\":2527:2562   */\n      mstore\n        /* \"#utility.yul\":2456:2568   */\n      pop\n      pop\n      jump\t// out\n        /* \"#utility.yul\":2574:2788   */\n    tag_21:\n        /* \"#utility.yul\":2663:2667   */\n      0x00\n        /* \"#utility.yul\":2701:2703   */\n      0x20\n        /* \"#utility.yul\":2690:2699   */\n      dup3\n        /* \"#utility.yul\":2686:2704   */\n      add\n        /* \"#utility.yul\":2678:2704   */\n      swap1\n      pop\n        /* \"#utility.yul\":2714:2781   */\n      tag_96\n        /* \"#utility.yul\":2778:2779   */\n      0x00\n        /* \"#utility.yul\":2767:2776   */\n      dup4\n        /* \"#utility.yul\":2763:2780   */\n      add\n        /* \"#utility.yul\":2754:2760   */\n      dup5\n        /* \"#utility.yul\":2714:2781   */\n      tag_54\n      jump\t// in\n    tag_96:\n        /* \"#utility.yul\":2574:2788   */\n      swap3\n      swap2\n      pop\n      pop\n      jump\t// out\n        /* \"#utility.yul\":2794:2963   */\n    tag_55:\n        /* \"#utility.yul\":2878:2889   */\n      0x00\n        /* \"#utility.yul\":2912:2918   */\n      dup3\n        /* \"#utility.yul\":2907:2910   */\n      dup3\n        /* \"#utility.yul\":2900:2919   */\n      mstore\n        /* \"#utility.yul\":2952:2956   */\n      0x20\n        /* \"#utility.yul\":2947:2950   */\n      dup3\n        /* \"#utility.yul\":2943:2957   */\n      add\n        /* \"#utility.yul\":2928:2957   */\n      swap1\n      pop\n        /* \"#utility.yul\":2794:2963   */\n      swap3\n      swap2\n      pop\n      pop\n      jump\t// out\n        /* \"#utility.yul\":2969:3136   */\n    tag_56:\n        /* \"#utility.yul\":3109:3128   */\n      0x626f74682063616e742062652073616d65000000000000000000000000000000\n        /* \"#utility.yul\":3105:3106   */\n      0x00\n        /* \"#utility.yul\":3097:3103   */\n      dup3\n        /* \"#utility.yul\":3093:3107   */\n      add\n        /* \"#utility.yul\":3086:3129   */\n      mstore\n        /* \"#utility.yul\":2969:3136   */\n      pop\n      jump\t// out\n        /* \"#utility.yul\":3142:3508   */\n    tag_57:\n        /* \"#utility.yul\":3284:3287   */\n      0x00\n        /* \"#utility.yul\":3305:3372   */\n      tag_100\n        /* \"#utility.yul\":3369:3371   */\n      0x11\n        /* \"#utility.yul\":3364:3367   */\n      dup4\n        /* \"#utility.yul\":3305:3372   */\n      tag_55\n      jump\t// in\n    tag_100:\n        /* \"#utility.yul\":3298:3372   */\n      swap2\n      pop\n        /* \"#utility.yul\":3381:3474   */\n      tag_101\n        /* \"#utility.yul\":3470:3473   */\n      dup3\n        /* \"#utility.yul\":3381:3474   */\n      tag_56\n      jump\t// in\n    tag_101:\n        /* \"#utility.yul\":3499:3501   */\n      0x20\n        /* \"#utility.yul\":3494:3497   */\n      dup3\n        /* \"#utility.yul\":3490:3502   */\n      add\n        /* \"#utility.yul\":3483:3502   */\n      swap1\n      pop\n        /* \"#utility.yul\":3142:3508   */\n      swap2\n      swap1\n      pop\n      jump\t// out\n        /* \"#utility.yul\":3514:3933   */\n    tag_25:\n        /* \"#utility.yul\":3680:3684   */\n      0x00\n        /* \"#utility.yul\":3718:3720   */\n      0x20\n        /* \"#utility.yul\":3707:3716   */\n      dup3\n        /* \"#utility.yul\":3703:3721   */\n      add\n        /* \"#utility.yul\":3695:3721   */\n      swap1\n      pop\n        /* \"#utility.yul\":3767:3776   */\n      dup2\n        /* \"#utility.yul\":3761:3765   */\n      dup2\n        /* \"#utility.yul\":3757:3777   */\n      sub\n        /* \"#utility.yul\":3753:3754   */\n      0x00\n        /* \"#utility.yul\":3742:3751   */\n      dup4\n        /* \"#utility.yul\":3738:3755   */\n      add\n        /* \"#utility.yul\":3731:3778   */\n      mstore\n        /* \"#utility.yul\":3795:3926   */\n      tag_103\n        /* \"#utility.yul\":3921:3925   */\n      dup2\n        /* \"#utility.yul\":3795:3926   */\n      tag_57\n      jump\t// in\n    tag_103:\n        /* \"#utility.yul\":3787:3926   */\n      swap1\n      pop\n        /* \"#utility.yul\":3514:3933   */\n      swap2\n      swap1\n      pop\n      jump\t// out\n        /* \"#utility.yul\":3939:4119   */\n    tag_58:\n        /* \"#utility.yul\":3987:4064   */\n      0x4e487b7100000000000000000000000000000000000000000000000000000000\n        /* \"#utility.yul\":3984:3985   */\n      0x00\n        /* \"#utility.yul\":3977:4065   */\n      mstore\n        /* \"#utility.yul\":4084:4088   */\n      0x11\n        /* \"#utility.yul\":4081:4082   */\n      0x04\n        /* \"#utility.yul\":4074:4089   */\n      mstore\n        /* \"#utility.yul\":4108:4112   */\n      0x24\n        /* \"#utility.yul\":4105:4106   */\n      0x00\n        /* \"#utility.yul\":4098:4113   */\n      revert\n        /* \"#utility.yul\":4125:4316   */\n    tag_30:\n        /* \"#utility.yul\":4165:4168   */\n      0x00\n        /* \"#utility.yul\":4184:4204   */\n      tag_106\n        /* \"#utility.yul\":4202:4203   */\n      dup3\n        /* \"#utility.yul\":4184:4204   */\n      tag_49\n      jump\t// in\n    tag_106:\n        /* \"#utility.yul\":4179:4204   */\n      swap2\n      pop\n        /* \"#utility.yul\":4218:4238   */\n      tag_107\n        /* \"#utility.yul\":4236:4237   */\n      dup4\n        /* \"#utility.yul\":4218:4238   */\n      tag_49\n      jump\t// in\n    tag_107:\n        /* \"#utility.yul\":4213:4238   */\n      swap3\n      pop\n        /* \"#utility.yul\":4261:4262   */\n      dup3\n        /* \"#utility.yul\":4258:4259   */\n      dup3\n        /* \"#utility.yul\":4254:4263   */\n      add\n        /* \"#utility.yul\":4247:4263   */\n      swap1\n      pop\n        /* \"#utility.yul\":4282:4285   */\n      dup1\n        /* \"#utility.yul\":4279:4280   */\n      dup3\n        /* \"#utility.yul\":4276:4286   */\n      gt\n        /* \"#utility.yul\":4273:4309   */\n      iszero\n      tag_108\n      jumpi\n        /* \"#utility.yul\":4289:4307   */\n      tag_109\n      tag_58\n      jump\t// in\n    tag_109:\n        /* \"#utility.yul\":4273:4309   */\n    tag_108:\n        /* \"#utility.yul\":4125:4316   */\n      swap3\n      swap2\n      pop\n      pop\n      jump\t// out\n        /* \"#utility.yul\":4322:4502   */\n    tag_59:\n        /* \"#utility.yul\":4370:4447   */\n      0x4e487b7100000000000000000000000000000000000000000000000000000000\n        /* \"#utility.yul\":4367:4368   */\n      0x00\n        /* \"#utility.yul\":4360:4448   */\n      mstore\n        /* \"#utility.yul\":4467:4471   */\n      0x12\n        /* \"#utility.yul\":4464:4465   */\n      0x04\n        /* \"#utility.yul\":4457:4472   */\n      mstore\n        /* \"#utility.yul\":4491:4495   */\n      0x24\n        /* \"#utility.yul\":4488:4489   */\n      0x00\n        /* \"#utility.yul\":4481:4496   */\n      revert\n        /* \"#utility.yul\":4508:4693   */\n    tag_32:\n        /* \"#utility.yul\":4548:4549   */\n      0x00\n        /* \"#utility.yul\":4565:4585   */\n      tag_112\n        /* \"#utility.yul\":4583:4584   */\n      dup3\n        /* \"#utility.yul\":4565:4585   */\n      tag_49\n      jump\t// in\n    tag_112:\n        /* \"#utility.yul\":4560:4585   */\n      swap2\n      pop\n        /* \"#utility.yul\":4599:4619   */\n      tag_113\n        /* \"#utility.yul\":4617:4618   */\n      dup4\n        /* \"#utility.yul\":4599:4619   */\n      tag_49\n      jump\t// in\n    tag_113:\n        /* \"#utility.yul\":4594:4619   */\n      swap3\n      pop\n        /* \"#utility.yul\":4638:4639   */\n      dup3\n        /* \"#utility.yul\":4628:4663   */\n      tag_114\n      jumpi\n        /* \"#utility.yul\":4643:4661   */\n      tag_115\n      tag_59\n      jump\t// in\n    tag_115:\n        /* \"#utility.yul\":4628:4663   */\n    tag_114:\n        /* \"#utility.yul\":4685:4686   */\n      dup3\n        /* \"#utility.yul\":4682:4683   */\n      dup3\n        /* \"#utility.yul\":4678:4687   */\n      div\n        /* \"#utility.yul\":4673:4687   */\n      swap1\n      pop\n        /* \"#utility.yul\":4508:4693   */\n      swap3\n      swap2\n      pop\n      pop\n      jump\t// out\n        /* \"#utility.yul\":4699:4875   */\n    tag_37:\n        /* \"#utility.yul\":4731:4732   */\n      0x00\n        /* \"#utility.yul\":4748:4768   */\n      tag_117\n        /* \"#utility.yul\":4766:4767   */\n      dup3\n        /* \"#utility.yul\":4748:4768   */\n      tag_49\n      jump\t// in\n    tag_117:\n        /* \"#utility.yul\":4743:4768   */\n      swap2\n      pop\n        /* \"#utility.yul\":4782:4802   */\n      tag_118\n        /* \"#utility.yul\":4800:4801   */\n      dup4\n        /* \"#utility.yul\":4782:4802   */\n      tag_49\n      jump\t// in\n    tag_118:\n        /* \"#utility.yul\":4777:4802   */\n      swap3\n      pop\n        /* \"#utility.yul\":4821:4822   */\n      dup3\n        /* \"#utility.yul\":4811:4846   */\n      tag_119\n      jumpi\n        /* \"#utility.yul\":4826:4844   */\n      tag_120\n      tag_59\n      jump\t// in\n    tag_120:\n        /* \"#utility.yul\":4811:4846   */\n    tag_119:\n        /* \"#utility.yul\":4867:4868   */\n      dup3\n        /* \"#utility.yul\":4864:4865   */\n      dup3\n        /* \"#utility.yul\":4860:4869   */\n      mod\n        /* \"#utility.yul\":4855:4869   */\n      swap1\n      pop\n        /* \"#utility.yul\":4699:4875   */\n      swap3\n      swap2\n      pop\n      pop\n      jump\t// out\n        /* \"#utility.yul\":4881:4974   */\n    tag_60:\n        /* \"#utility.yul\":4917:4924   */\n      0x00\n        /* \"#utility.yul\":4957:4967   */\n      0xffffffff\n        /* \"#utility.yul\":4950:4955   */\n      dup3\n        /* \"#utility.yul\":4946:4968   */\n      and\n        /* \"#utility.yul\":4935:4968   */\n      swap1\n      pop\n        /* \"#utility.yul\":4881:4974   */\n      swap2\n      swap1\n      pop\n      jump\t// out\n        /* \"#utility.yul\":4980:5155   */\n    tag_41:\n        /* \"#utility.yul\":5018:5021   */\n      0x00\n        /* \"#utility.yul\":5041:5064   */\n      tag_123\n        /* \"#utility.yul\":5058:5063   */\n      dup3\n        /* \"#utility.yul\":5041:5064   */\n      tag_60\n      jump\t// in\n    tag_123:\n        /* \"#utility.yul\":5032:5064   */\n      swap2\n      pop\n        /* \"#utility.yul\":5086:5096   */\n      0xffffffff\n        /* \"#utility.yul\":5079:5084   */\n      dup3\n        /* \"#utility.yul\":5076:5097   */\n      sub\n        /* \"#utility.yul\":5073:5120   */\n      tag_124\n      jumpi\n        /* \"#utility.yul\":5100:5118   */\n      tag_125\n      tag_58\n      jump\t// in\n    tag_125:\n        /* \"#utility.yul\":5073:5120   */\n    tag_124:\n        /* \"#utility.yul\":5147:5148   */\n      0x01\n        /* \"#utility.yul\":5140:5145   */\n      dup3\n        /* \"#utility.yul\":5136:5149   */\n      add\n        /* \"#utility.yul\":5129:5149   */\n      swap1\n      pop\n        /* \"#utility.yul\":4980:5155   */\n      swap2\n      swap1\n      pop\n      jump\t// out\n\n    auxdata: 0xa26469706673582212202c2b54edcf2768a71eca58012f24c60531b1f1b6a47d27768d0787869d232ee064736f6c634300081c0033\n}\n",
				"bytecode": {
					"linkReferences": {},
					"object": "6080604052348015600e575f5ffd5b5061052e8061001c5f395ff3fe608060405260043610610033575f3560e01c806376a54c60146100375780638fb3c55d14610053578063d50500291461008f575b5f5ffd5b610051600480360381019061004c9190610261565b6100cb565b005b34801561005e575f5ffd5b50610079600480360381019061007491906102bf565b610180565b604051610086919061030c565b60405180910390f35b34801561009a575f5ffd5b506100b560048036038101906100b091906102bf565b6101a1565b6040516100c29190610340565b60405180910390f35b8073ffffffffffffffffffffffffffffffffffffffff163373ffffffffffffffffffffffffffffffffffffffff1603610139576040517f08c379a0000000000000000000000000000000000000000000000000000000008152600401610130906103b3565b60405180910390fd5b8073ffffffffffffffffffffffffffffffffffffffff166108fc3490811502906040515f60405180830381858888f1935050505015801561017c573d5f5f3e3d5ffd5b5050565b5f6002828461018f91906103fe565b610199919061045e565b905092915050565b5f5f600190505b5f84146101f9575f6002856101bd919061048e565b9050838263ffffffff16036101d65780925050506101fd565b6002856101e3919061045e565b945081806101f0906104cd565b925050506101a8565b5f5ffd5b92915050565b5f5ffd5b5f73ffffffffffffffffffffffffffffffffffffffff82169050919050565b5f61023082610207565b9050919050565b61024081610226565b811461024a575f5ffd5b50565b5f8135905061025b81610237565b92915050565b5f6020828403121561027657610275610203565b5b5f6102838482850161024d565b91505092915050565b5f819050919050565b61029e8161028c565b81146102a8575f5ffd5b50565b5f813590506102b981610295565b92915050565b5f5f604083850312156102d5576102d4610203565b5b5f6102e2858286016102ab565b92505060206102f3858286016102ab565b9150509250929050565b6103068161028c565b82525050565b5f60208201905061031f5f8301846102fd565b92915050565b5f60ff82169050919050565b61033a81610325565b82525050565b5f6020820190506103535f830184610331565b92915050565b5f82825260208201905092915050565b7f626f74682063616e742062652073616d650000000000000000000000000000005f82015250565b5f61039d601183610359565b91506103a882610369565b602082019050919050565b5f6020820190508181035f8301526103ca81610391565b9050919050565b7f4e487b71000000000000000000000000000000000000000000000000000000005f52601160045260245ffd5b5f6104088261028c565b91506104138361028c565b925082820190508082111561042b5761042a6103d1565b5b92915050565b7f4e487b71000000000000000000000000000000000000000000000000000000005f52601260045260245ffd5b5f6104688261028c565b91506104738361028c565b92508261048357610482610431565b5b828204905092915050565b5f6104988261028c565b91506104a38361028c565b9250826104b3576104b2610431565b5b828206905092915050565b5f63ffffffff82169050919050565b5f6104d7826104be565b915063ffffffff82036104ed576104ec6103d1565b5b60018201905091905056fea26469706673582212202c2b54edcf2768a71eca58012f24c60531b1f1b6a47d27768d0787869d232ee064736f6c634300081c0033",
					"opcodes": "PUSH1 0x80 PUSH1 0x40 MSTORE CALLVALUE DUP1 ISZERO PUSH1 0xE JUMPI PUSH0 PUSH0 REVERT JUMPDEST POP PUSH2 0x52E DUP1 PUSH2 0x1C PUSH0 CODECOPY PUSH0 RETURN INVALID PUSH1 0x80 PUSH1 0x40 MSTORE PUSH1 0x4 CALLDATASIZE LT PUSH2 0x33 JUMPI PUSH0 CALLDATALOAD PUSH1 0xE0 SHR DUP1 PUSH4 0x76A54C60 EQ PUSH2 0x37 JUMPI DUP1 PUSH4 0x8FB3C55D EQ PUSH2 0x53 JUMPI DUP1 PUSH4 0xD5050029 EQ PUSH2 0x8F JUMPI JUMPDEST PUSH0 PUSH0 REVERT JUMPDEST PUSH2 0x51 PUSH1 0x4 DUP1 CALLDATASIZE SUB DUP2 ADD SWAP1 PUSH2 0x4C SWAP2 SWAP1 PUSH2 0x261 JUMP JUMPDEST PUSH2 0xCB JUMP JUMPDEST STOP JUMPDEST CALLVALUE DUP1 ISZERO PUSH2 0x5E JUMPI PUSH0 PUSH0 REVERT JUMPDEST POP PUSH2 0x79 PUSH1 0x4 DUP1 CALLDATASIZE SUB DUP2 ADD SWAP1 PUSH2 0x74 SWAP2 SWAP1 PUSH2 0x2BF JUMP JUMPDEST PUSH2 0x180 JUMP JUMPDEST PUSH1 0x40 MLOAD PUSH2 0x86 SWAP2 SWAP1 PUSH2 0x30C JUMP JUMPDEST PUSH1 0x40 MLOAD DUP1 SWAP2 SUB SWAP1 RETURN JUMPDEST CALLVALUE DUP1 ISZERO PUSH2 0x9A JUMPI PUSH0 PUSH0 REVERT JUMPDEST POP PUSH2 0xB5 PUSH1 0x4 DUP1 CALLDATASIZE SUB DUP2 ADD SWAP1 PUSH2 0xB0 SWAP2 SWAP1 PUSH2 0x2BF JUMP JUMPDEST PUSH2 0x1A1 JUMP JUMPDEST PUSH1 0x40 MLOAD PUSH2 0xC2 SWAP2 SWAP1 PUSH2 0x340 JUMP JUMPDEST PUSH1 0x40 MLOAD DUP1 SWAP2 SUB SWAP1 RETURN JUMPDEST DUP1 PUSH20 0xFFFFFFFFFFFFFFFFFFFFFFFFFFFFFFFFFFFFFFFF AND CALLER PUSH20 0xFFFFFFFFFFFFFFFFFFFFFFFFFFFFFFFFFFFFFFFF AND SUB PUSH2 0x139 JUMPI PUSH1 0x40 MLOAD PUSH32 0x8C379A000000000000000000000000000000000000000000000000000000000 DUP2 MSTORE PUSH1 0x4 ADD PUSH2 0x130 SWAP1 PUSH2 0x3B3 JUMP JUMPDEST PUSH1 0x40 MLOAD DUP1 SWAP2 SUB SWAP1 REVERT JUMPDEST DUP1 PUSH20 0xFFFFFFFFFFFFFFFFFFFFFFFFFFFFFFFFFFFFFFFF AND PUSH2 0x8FC CALLVALUE SWAP1 DUP2 ISZERO MUL SWAP1 PUSH1 0x40 MLOAD PUSH0 PUSH1 0x40 MLOAD DUP1 DUP4 SUB DUP2 DUP6 DUP9 DUP9 CALL SWAP4 POP POP POP POP ISZERO DUP1 ISZERO PUSH2 0x17C JUMPI RETURNDATASIZE PUSH0 PUSH0 RETURNDATACOPY RETURNDATASIZE PUSH0 REVERT JUMPDEST POP POP JUMP JUMPDEST PUSH0 PUSH1 0x2 DUP3 DUP5 PUSH2 0x18F SWAP2 SWAP1 PUSH2 0x3FE JUMP JUMPDEST PUSH2 0x199 SWAP2 SWAP1 PUSH2 0x45E JUMP JUMPDEST SWAP1 POP SWAP3 SWAP2 POP POP JUMP JUMPDEST PUSH0 PUSH0 PUSH1 0x1 SWAP1 POP JUMPDEST PUSH0 DUP5 EQ PUSH2 0x1F9 JUMPI PUSH0 PUSH1 0x2 DUP6 PUSH2 0x1BD SWAP2 SWAP1 PUSH2 0x48E JUMP JUMPDEST SWAP1 POP DUP4 DUP3 PUSH4 0xFFFFFFFF AND SUB PUSH2 0x1D6 JUMPI DUP1 SWAP3 POP POP POP PUSH2 0x1FD JUMP JUMPDEST PUSH1 0x2 DUP6 PUSH2 0x1E3 SWAP2 SWAP1 PUSH2 0x45E JUMP JUMPDEST SWAP5 POP DUP2 DUP1 PUSH2 0x1F0 SWAP1 PUSH2 0x4CD JUMP JUMPDEST SWAP3 POP POP POP PUSH2 0x1A8 JUMP JUMPDEST PUSH0 PUSH0 REVERT JUMPDEST SWAP3 SWAP2 POP POP JUMP JUMPDEST PUSH0 PUSH0 REVERT JUMPDEST PUSH0 PUSH20 0xFFFFFFFFFFFFFFFFFFFFFFFFFFFFFFFFFFFFFFFF DUP3 AND SWAP1 POP SWAP2 SWAP1 POP JUMP JUMPDEST PUSH0 PUSH2 0x230 DUP3 PUSH2 0x207 JUMP JUMPDEST SWAP1 POP SWAP2 SWAP1 POP JUMP JUMPDEST PUSH2 0x240 DUP2 PUSH2 0x226 JUMP JUMPDEST DUP2 EQ PUSH2 0x24A JUMPI PUSH0 PUSH0 REVERT JUMPDEST POP JUMP JUMPDEST PUSH0 DUP2 CALLDATALOAD SWAP1 POP PUSH2 0x25B DUP2 PUSH2 0x237 JUMP JUMPDEST SWAP3 SWAP2 POP POP JUMP JUMPDEST PUSH0 PUSH1 0x20 DUP3 DUP5 SUB SLT ISZERO PUSH2 0x276 JUMPI PUSH2 0x275 PUSH2 0x203 JUMP JUMPDEST JUMPDEST PUSH0 PUSH2 0x283 DUP5 DUP3 DUP6 ADD PUSH2 0x24D JUMP JUMPDEST SWAP2 POP POP SWAP3 SWAP2 POP POP JUMP JUMPDEST PUSH0 DUP2 SWAP1 POP SWAP2 SWAP1 POP JUMP JUMPDEST PUSH2 0x29E DUP2 PUSH2 0x28C JUMP JUMPDEST DUP2 EQ PUSH2 0x2A8 JUMPI PUSH0 PUSH0 REVERT JUMPDEST POP JUMP JUMPDEST PUSH0 DUP2 CALLDATALOAD SWAP1 POP PUSH2 0x2B9 DUP2 PUSH2 0x295 JUMP JUMPDEST SWAP3 SWAP2 POP POP JUMP JUMPDEST PUSH0 PUSH0 PUSH1 0x40 DUP4 DUP6 SUB SLT ISZERO PUSH2 0x2D5 JUMPI PUSH2 0x2D4 PUSH2 0x203 JUMP JUMPDEST JUMPDEST PUSH0 PUSH2 0x2E2 DUP6 DUP3 DUP7 ADD PUSH2 0x2AB JUMP JUMPDEST SWAP3 POP POP PUSH1 0x20 PUSH2 0x2F3 DUP6 DUP3 DUP7 ADD PUSH2 0x2AB JUMP JUMPDEST SWAP2 POP POP SWAP3 POP SWAP3 SWAP1 POP JUMP JUMPDEST PUSH2 0x306 DUP2 PUSH2 0x28C JUMP JUMPDEST DUP3 MSTORE POP POP JUMP JUMPDEST PUSH0 PUSH1 0x20 DUP3 ADD SWAP1 POP PUSH2 0x31F PUSH0 DUP4 ADD DUP5 PUSH2 0x2FD JUMP JUMPDEST SWAP3 SWAP2 POP POP JUMP JUMPDEST PUSH0 PUSH1 0xFF DUP3 AND SWAP1 POP SWAP2 SWAP1 POP JUMP JUMPDEST PUSH2 0x33A DUP2 PUSH2 0x325 JUMP JUMPDEST DUP3 MSTORE POP POP JUMP JUMPDEST PUSH0 PUSH1 0x20 DUP3 ADD SWAP1 POP PUSH2 0x353 PUSH0 DUP4 ADD DUP5 PUSH2 0x331 JUMP JUMPDEST SWAP3 SWAP2 POP POP JUMP JUMPDEST PUSH0 DUP3 DUP3 MSTORE PUSH1 0x20 DUP3 ADD SWAP1 POP SWAP3 SWAP2 POP POP JUMP JUMPDEST PUSH32 0x626F74682063616E742062652073616D65000000000000000000000000000000 PUSH0 DUP3 ADD MSTORE POP JUMP JUMPDEST PUSH0 PUSH2 0x39D PUSH1 0x11 DUP4 PUSH2 0x359 JUMP JUMPDEST SWAP2 POP PUSH2 0x3A8 DUP3 PUSH2 0x369 JUMP JUMPDEST PUSH1 0x20 DUP3 ADD SWAP1 POP SWAP2 SWAP1 POP JUMP JUMPDEST PUSH0 PUSH1 0x20 DUP3 ADD SWAP1 POP DUP2 DUP2 SUB PUSH0 DUP4 ADD MSTORE PUSH2 0x3CA DUP2 PUSH2 0x391 JUMP JUMPDEST SWAP1 POP SWAP2 SWAP1 POP JUMP JUMPDEST PUSH32 0x4E487B7100000000000000000000000000000000000000000000000000000000 PUSH0 MSTORE PUSH1 0x11 PUSH1 0x4 MSTORE PUSH1 0x24 PUSH0 REVERT JUMPDEST PUSH0 PUSH2 0x408 DUP3 PUSH2 0x28C JUMP JUMPDEST SWAP2 POP PUSH2 0x413 DUP4 PUSH2 0x28C JUMP JUMPDEST SWAP3 POP DUP3 DUP3 ADD SWAP1 POP DUP1 DUP3 GT ISZERO PUSH2 0x42B JUMPI PUSH2 0x42A PUSH2 0x3D1 JUMP JUMPDEST JUMPDEST SWAP3 SWAP2 POP POP JUMP JUMPDEST PUSH32 0x4E487B7100000000000000000000000000000000000000000000000000000000 PUSH0 MSTORE PUSH1 0x12 PUSH1 0x4 MSTORE PUSH1 0x24 PUSH0 REVERT JUMPDEST PUSH0 PUSH2 0x468 DUP3 PUSH2 0x28C JUMP JUMPDEST SWAP2 POP PUSH2 0x473 DUP4 PUSH2 0x28C JUMP JUMPDEST SWAP3 POP DUP3 PUSH2 0x483 JUMPI PUSH2 0x482 PUSH2 0x431 JUMP JUMPDEST JUMPDEST DUP3 DUP3 DIV SWAP1 POP SWAP3 SWAP2 POP POP JUMP JUMPDEST PUSH0 PUSH2 0x498 DUP3 PUSH2 0x28C JUMP JUMPDEST SWAP2 POP PUSH2 0x4A3 DUP4 PUSH2 0x28C JUMP JUMPDEST SWAP3 POP DUP3 PUSH2 0x4B3 JUMPI PUSH2 0x4B2 PUSH2 0x431 JUMP JUMPDEST JUMPDEST DUP3 DUP3 MOD SWAP1 POP SWAP3 SWAP2 POP POP JUMP JUMPDEST PUSH0 PUSH4 0xFFFFFFFF DUP3 AND SWAP1 POP SWAP2 SWAP1 POP JUMP JUMPDEST PUSH0 PUSH2 0x4D7 DUP3 PUSH2 0x4BE JUMP JUMPDEST SWAP2 POP PUSH4 0xFFFFFFFF DUP3 SUB PUSH2 0x4ED JUMPI PUSH2 0x4EC PUSH2 0x3D1 JUMP JUMPDEST JUMPDEST PUSH1 0x1 DUP3 ADD SWAP1 POP SWAP2 SWAP1 POP JUMP INVALID LOG2 PUSH5 0x6970667358 0x22 SLT KECCAK256 0x2C 0x2B SLOAD 0xED 0xCF 0x27 PUSH9 0xA71ECA58012F24C605 BALANCE 0xB1 CALL 0xB6 LOG4 PUSH30 0x27768D0787869D232EE064736F6C634300081C0033000000000000000000 "
				},
				"gasEstimates": {
					"creation": {
						"codeDepositCost": "265200",
						"executionCost": "304",
						"totalCost": "265504"
					},
					"external": {
						"calculateAverage(uint256,uint256)": "infinite",
						"getBit(uint256,uint256)": "infinite",
						"sendEth(address)": "infinite"
					}
				},
				"methodIdentifiers": {
					"calculateAverage(uint256,uint256)": "8fb3c55d",
					"getBit(uint256,uint256)": "d5050029",
					"sendEth(address)": "76a54c60"
				}
			},
			"storageLayout": {
				"storage": [],
				"types": null
			},
			"userdoc": {
				"kind": "user",
				"methods": {},
				"version": 1
			}
		}
	}
}