{
	"contracts/PRACTICE/Medium lvl Important Uint-to-String.sol": {
		"UintToString": {
			"abi": [
				{
					"inputs": [
						{
							"internalType": "uint256",
							"name": "value",
							"type": "uint256"
						}
					],
					"name": "uintToString",
					"outputs": [
						{
							"internalType": "string",
							"name": "",
							"type": "string"
						}
					],
					"stateMutability": "pure",
					"type": "function"
				}
			],
			"devdoc": {
				"kind": "dev",
				"methods": {},
				"version": 1
			},
			"evm": {
				"assembly": "    /* \"contracts/PRACTICE/Medium lvl Important Uint-to-String.sol\":60:945  contract UintToString {... */\n  mstore(0x40, 0x80)\n  callvalue\n  dup1\n  iszero\n  tag_1\n  jumpi\n  revert(0x00, 0x00)\ntag_1:\n  pop\n  dataSize(sub_0)\n  dup1\n  dataOffset(sub_0)\n  0x00\n  codecopy\n  0x00\n  return\nstop\n\nsub_0: assembly {\n        /* \"contracts/PRACTICE/Medium lvl Important Uint-to-String.sol\":60:945  contract UintToString {... */\n      mstore(0x40, 0x80)\n      callvalue\n      dup1\n      iszero\n      tag_1\n      jumpi\n      revert(0x00, 0x00)\n    tag_1:\n      pop\n      jumpi(tag_2, lt(calldatasize, 0x04))\n      shr(0xe0, calldataload(0x00))\n      dup1\n      0xe9395679\n      eq\n      tag_3\n      jumpi\n    tag_2:\n      revert(0x00, 0x00)\n        /* \"contracts/PRACTICE/Medium lvl Important Uint-to-String.sol\":134:942  function uintToString(uint256 value) public pure returns (string memory) {... */\n    tag_3:\n      tag_4\n      0x04\n      dup1\n      calldatasize\n      sub\n      dup2\n      add\n      swap1\n      tag_5\n      swap2\n      swap1\n      tag_6\n      jump\t// in\n    tag_5:\n      tag_7\n      jump\t// in\n    tag_4:\n      mload(0x40)\n      tag_8\n      swap2\n      swap1\n      tag_9\n      jump\t// in\n    tag_8:\n      mload(0x40)\n      dup1\n      swap2\n      sub\n      swap1\n      return\n    tag_7:\n        /* \"contracts/PRACTICE/Medium lvl Important Uint-to-String.sol\":192:205  string memory */\n      0x60\n        /* \"contracts/PRACTICE/Medium lvl Important Uint-to-String.sol\":231:232  0 */\n      0x00\n        /* \"contracts/PRACTICE/Medium lvl Important Uint-to-String.sol\":222:227  value */\n      dup3\n        /* \"contracts/PRACTICE/Medium lvl Important Uint-to-String.sol\":222:232  value == 0 */\n      sub\n        /* \"contracts/PRACTICE/Medium lvl Important Uint-to-String.sol\":218:297  if (value == 0) {... */\n      tag_11\n      jumpi\n        /* \"contracts/PRACTICE/Medium lvl Important Uint-to-String.sol\":249:259  return \"0\" */\n      mload(0x40)\n      dup1\n      0x40\n      add\n      0x40\n      mstore\n      dup1\n      0x01\n      dup2\n      mstore\n      0x20\n      add\n      0x3000000000000000000000000000000000000000000000000000000000000000\n      dup2\n      mstore\n      pop\n      swap1\n      pop\n      jump(tag_10)\n        /* \"contracts/PRACTICE/Medium lvl Important Uint-to-String.sol\":218:297  if (value == 0) {... */\n    tag_11:\n        /* \"contracts/PRACTICE/Medium lvl Important Uint-to-String.sol\":317:329  uint256 temp */\n      0x00\n        /* \"contracts/PRACTICE/Medium lvl Important Uint-to-String.sol\":332:337  value */\n      dup3\n        /* \"contracts/PRACTICE/Medium lvl Important Uint-to-String.sol\":317:337  uint256 temp = value */\n      swap1\n      pop\n        /* \"contracts/PRACTICE/Medium lvl Important Uint-to-String.sol\":348:362  uint256 digits */\n      0x00\n        /* \"contracts/PRACTICE/Medium lvl Important Uint-to-String.sol\":432:510  while (temp != 0) {... */\n    tag_12:\n        /* \"contracts/PRACTICE/Medium lvl Important Uint-to-String.sol\":447:448  0 */\n      0x00\n        /* \"contracts/PRACTICE/Medium lvl Important Uint-to-String.sol\":439:443  temp */\n      dup3\n        /* \"contracts/PRACTICE/Medium lvl Important Uint-to-String.sol\":439:448  temp != 0 */\n      eq\n        /* \"contracts/PRACTICE/Medium lvl Important Uint-to-String.sol\":432:510  while (temp != 0) {... */\n      tag_13\n      jumpi\n        /* \"contracts/PRACTICE/Medium lvl Important Uint-to-String.sol\":465:473  digits++ */\n      dup1\n      dup1\n      tag_14\n      swap1\n      tag_15\n      jump\t// in\n    tag_14:\n      swap2\n      pop\n      pop\n        /* \"contracts/PRACTICE/Medium lvl Important Uint-to-String.sol\":496:498  10 */\n      0x0a\n        /* \"contracts/PRACTICE/Medium lvl Important Uint-to-String.sol\":488:498  temp /= 10 */\n      dup3\n      tag_16\n      swap2\n      swap1\n      tag_17\n      jump\t// in\n    tag_16:\n      swap2\n      pop\n        /* \"contracts/PRACTICE/Medium lvl Important Uint-to-String.sol\":432:510  while (temp != 0) {... */\n      jump(tag_12)\n    tag_13:\n        /* \"contracts/PRACTICE/Medium lvl Important Uint-to-String.sol\":579:598  bytes memory buffer */\n      0x00\n        /* \"contracts/PRACTICE/Medium lvl Important Uint-to-String.sol\":611:617  digits */\n      dup2\n        /* \"contracts/PRACTICE/Medium lvl Important Uint-to-String.sol\":601:618  new bytes(digits) */\n      0xffffffffffffffff\n      dup2\n      gt\n      iszero\n      tag_18\n      jumpi\n      tag_19\n      tag_20\n      jump\t// in\n    tag_19:\n    tag_18:\n      mload(0x40)\n      swap1\n      dup1\n      dup3\n      mstore\n      dup1\n      0x1f\n      add\n      not(0x1f)\n      and\n      0x20\n      add\n      dup3\n      add\n      0x40\n      mstore\n      dup1\n      iszero\n      tag_21\n      jumpi\n      dup2\n      0x20\n      add\n      0x01\n      dup3\n      mul\n      dup1\n      calldatasize\n      dup4\n      calldatacopy\n      dup1\n      dup3\n      add\n      swap2\n      pop\n      pop\n      swap1\n      pop\n    tag_21:\n      pop\n        /* \"contracts/PRACTICE/Medium lvl Important Uint-to-String.sol\":579:618  bytes memory buffer = new bytes(digits) */\n      swap1\n      pop\n        /* \"contracts/PRACTICE/Medium lvl Important Uint-to-String.sol\":670:683  uint256 index */\n      0x00\n        /* \"contracts/PRACTICE/Medium lvl Important Uint-to-String.sol\":695:696  1 */\n      0x01\n        /* \"contracts/PRACTICE/Medium lvl Important Uint-to-String.sol\":686:692  digits */\n      dup4\n        /* \"contracts/PRACTICE/Medium lvl Important Uint-to-String.sol\":686:696  digits - 1 */\n      tag_22\n      swap2\n      swap1\n      tag_23\n      jump\t// in\n    tag_22:\n        /* \"contracts/PRACTICE/Medium lvl Important Uint-to-String.sol\":670:696  uint256 index = digits - 1 */\n      swap1\n      pop\n        /* \"contracts/PRACTICE/Medium lvl Important Uint-to-String.sol\":707:873  while (value != 0) {... */\n    tag_24:\n        /* \"contracts/PRACTICE/Medium lvl Important Uint-to-String.sol\":723:724  0 */\n      0x00\n        /* \"contracts/PRACTICE/Medium lvl Important Uint-to-String.sol\":714:719  value */\n      dup7\n        /* \"contracts/PRACTICE/Medium lvl Important Uint-to-String.sol\":714:724  value != 0 */\n      eq\n        /* \"contracts/PRACTICE/Medium lvl Important Uint-to-String.sol\":707:873  while (value != 0) {... */\n      tag_25\n      jumpi\n        /* \"contracts/PRACTICE/Medium lvl Important Uint-to-String.sol\":786:788  10 */\n      0x0a\n        /* \"contracts/PRACTICE/Medium lvl Important Uint-to-String.sol\":778:783  value */\n      dup7\n        /* \"contracts/PRACTICE/Medium lvl Important Uint-to-String.sol\":778:788  value % 10 */\n      tag_26\n      swap2\n      swap1\n      tag_27\n      jump\t// in\n    tag_26:\n        /* \"contracts/PRACTICE/Medium lvl Important Uint-to-String.sol\":772:774  48 */\n      0x30\n        /* \"contracts/PRACTICE/Medium lvl Important Uint-to-String.sol\":772:789  48 + (value % 10) */\n      tag_28\n      swap2\n      swap1\n      tag_29\n      jump\t// in\n    tag_28:\n        /* \"contracts/PRACTICE/Medium lvl Important Uint-to-String.sol\":759:791  bytes1(uint8(48 + (value % 10))) */\n      0xf8\n      shl\n        /* \"contracts/PRACTICE/Medium lvl Important Uint-to-String.sol\":741:747  buffer */\n      dup3\n        /* \"contracts/PRACTICE/Medium lvl Important Uint-to-String.sol\":748:755  index-- */\n      dup3\n      dup1\n      tag_30\n      swap1\n      tag_31\n      jump\t// in\n    tag_30:\n      swap4\n      pop\n        /* \"contracts/PRACTICE/Medium lvl Important Uint-to-String.sol\":741:756  buffer[index--] */\n      dup2\n      mload\n      dup2\n      lt\n      tag_32\n      jumpi\n      tag_33\n      tag_34\n      jump\t// in\n    tag_33:\n    tag_32:\n      0x20\n      add\n      add\n        /* \"contracts/PRACTICE/Medium lvl Important Uint-to-String.sol\":741:791  buffer[index--] = bytes1(uint8(48 + (value % 10))) */\n      swap1\n      not(0xffffffffffffffffffffffffffffffffffffffffffffffffffffffffffffff)\n      and\n      swap1\n      dup2\n      0x00\n      byte\n      swap1\n      mstore8\n      pop\n        /* \"contracts/PRACTICE/Medium lvl Important Uint-to-String.sol\":859:861  10 */\n      0x0a\n        /* \"contracts/PRACTICE/Medium lvl Important Uint-to-String.sol\":850:861  value /= 10 */\n      dup7\n      tag_35\n      swap2\n      swap1\n      tag_17\n      jump\t// in\n    tag_35:\n      swap6\n      pop\n        /* \"contracts/PRACTICE/Medium lvl Important Uint-to-String.sol\":707:873  while (value != 0) {... */\n      jump(tag_24)\n    tag_25:\n        /* \"contracts/PRACTICE/Medium lvl Important Uint-to-String.sol\":899:905  buffer */\n      dup2\n        /* \"contracts/PRACTICE/Medium lvl Important Uint-to-String.sol\":885:906  return string(buffer) */\n      swap5\n      pop\n      pop\n      pop\n      pop\n      pop\n        /* \"contracts/PRACTICE/Medium lvl Important Uint-to-String.sol\":134:942  function uintToString(uint256 value) public pure returns (string memory) {... */\n    tag_10:\n      swap2\n      swap1\n      pop\n      jump\t// out\n        /* \"#utility.yul\":88:205   */\n    tag_37:\n        /* \"#utility.yul\":197:198   */\n      0x00\n        /* \"#utility.yul\":194:195   */\n      0x00\n        /* \"#utility.yul\":187:199   */\n      revert\n        /* \"#utility.yul\":334:411   */\n    tag_39:\n        /* \"#utility.yul\":371:378   */\n      0x00\n        /* \"#utility.yul\":400:405   */\n      dup2\n        /* \"#utility.yul\":389:405   */\n      swap1\n      pop\n        /* \"#utility.yul\":334:411   */\n      swap2\n      swap1\n      pop\n      jump\t// out\n        /* \"#utility.yul\":417:539   */\n    tag_40:\n        /* \"#utility.yul\":490:514   */\n      tag_55\n        /* \"#utility.yul\":508:513   */\n      dup2\n        /* \"#utility.yul\":490:514   */\n      tag_39\n      jump\t// in\n    tag_55:\n        /* \"#utility.yul\":483:488   */\n      dup2\n        /* \"#utility.yul\":480:515   */\n      eq\n        /* \"#utility.yul\":470:533   */\n      tag_56\n      jumpi\n        /* \"#utility.yul\":529:530   */\n      0x00\n        /* \"#utility.yul\":526:527   */\n      0x00\n        /* \"#utility.yul\":519:531   */\n      revert\n        /* \"#utility.yul\":470:533   */\n    tag_56:\n        /* \"#utility.yul\":417:539   */\n      pop\n      jump\t// out\n        /* \"#utility.yul\":545:684   */\n    tag_41:\n        /* \"#utility.yul\":591:596   */\n      0x00\n        /* \"#utility.yul\":629:635   */\n      dup2\n        /* \"#utility.yul\":616:636   */\n      calldataload\n        /* \"#utility.yul\":607:636   */\n      swap1\n      pop\n        /* \"#utility.yul\":645:678   */\n      tag_58\n        /* \"#utility.yul\":672:677   */\n      dup2\n        /* \"#utility.yul\":645:678   */\n      tag_40\n      jump\t// in\n    tag_58:\n        /* \"#utility.yul\":545:684   */\n      swap3\n      swap2\n      pop\n      pop\n      jump\t// out\n        /* \"#utility.yul\":690:1019   */\n    tag_6:\n        /* \"#utility.yul\":749:755   */\n      0x00\n        /* \"#utility.yul\":798:800   */\n      0x20\n        /* \"#utility.yul\":786:795   */\n      dup3\n        /* \"#utility.yul\":777:784   */\n      dup5\n        /* \"#utility.yul\":773:796   */\n      sub\n        /* \"#utility.yul\":769:801   */\n      slt\n        /* \"#utility.yul\":766:885   */\n      iszero\n      tag_60\n      jumpi\n        /* \"#utility.yul\":804:883   */\n      tag_61\n      tag_37\n      jump\t// in\n    tag_61:\n        /* \"#utility.yul\":766:885   */\n    tag_60:\n        /* \"#utility.yul\":924:925   */\n      0x00\n        /* \"#utility.yul\":949:1002   */\n      tag_62\n        /* \"#utility.yul\":994:1001   */\n      dup5\n        /* \"#utility.yul\":985:991   */\n      dup3\n        /* \"#utility.yul\":974:983   */\n      dup6\n        /* \"#utility.yul\":970:992   */\n      add\n        /* \"#utility.yul\":949:1002   */\n      tag_41\n      jump\t// in\n    tag_62:\n        /* \"#utility.yul\":939:1002   */\n      swap2\n      pop\n        /* \"#utility.yul\":895:1012   */\n      pop\n        /* \"#utility.yul\":690:1019   */\n      swap3\n      swap2\n      pop\n      pop\n      jump\t// out\n        /* \"#utility.yul\":1025:1124   */\n    tag_42:\n        /* \"#utility.yul\":1077:1083   */\n      0x00\n        /* \"#utility.yul\":1111:1116   */\n      dup2\n        /* \"#utility.yul\":1105:1117   */\n      mload\n        /* \"#utility.yul\":1095:1117   */\n      swap1\n      pop\n        /* \"#utility.yul\":1025:1124   */\n      swap2\n      swap1\n      pop\n      jump\t// out\n        /* \"#utility.yul\":1130:1299   */\n    tag_43:\n        /* \"#utility.yul\":1214:1225   */\n      0x00\n        /* \"#utility.yul\":1248:1254   */\n      dup3\n        /* \"#utility.yul\":1243:1246   */\n      dup3\n        /* \"#utility.yul\":1236:1255   */\n      mstore\n        /* \"#utility.yul\":1288:1292   */\n      0x20\n        /* \"#utility.yul\":1283:1286   */\n      dup3\n        /* \"#utility.yul\":1279:1293   */\n      add\n        /* \"#utility.yul\":1264:1293   */\n      swap1\n      pop\n        /* \"#utility.yul\":1130:1299   */\n      swap3\n      swap2\n      pop\n      pop\n      jump\t// out\n        /* \"#utility.yul\":1305:1444   */\n    tag_44:\n        /* \"#utility.yul\":1394:1400   */\n      dup3\n        /* \"#utility.yul\":1389:1392   */\n      dup2\n        /* \"#utility.yul\":1384:1387   */\n      dup4\n        /* \"#utility.yul\":1378:1401   */\n      mcopy\n        /* \"#utility.yul\":1435:1436   */\n      0x00\n        /* \"#utility.yul\":1426:1432   */\n      dup4\n        /* \"#utility.yul\":1421:1424   */\n      dup4\n        /* \"#utility.yul\":1417:1433   */\n      add\n        /* \"#utility.yul\":1410:1437   */\n      mstore\n        /* \"#utility.yul\":1305:1444   */\n      pop\n      pop\n      pop\n      jump\t// out\n        /* \"#utility.yul\":1450:1552   */\n    tag_45:\n        /* \"#utility.yul\":1491:1497   */\n      0x00\n        /* \"#utility.yul\":1542:1544   */\n      0x1f\n        /* \"#utility.yul\":1538:1545   */\n      not\n        /* \"#utility.yul\":1533:1535   */\n      0x1f\n        /* \"#utility.yul\":1526:1531   */\n      dup4\n        /* \"#utility.yul\":1522:1536   */\n      add\n        /* \"#utility.yul\":1518:1546   */\n      and\n        /* \"#utility.yul\":1508:1546   */\n      swap1\n      pop\n        /* \"#utility.yul\":1450:1552   */\n      swap2\n      swap1\n      pop\n      jump\t// out\n        /* \"#utility.yul\":1558:1935   */\n    tag_46:\n        /* \"#utility.yul\":1646:1649   */\n      0x00\n        /* \"#utility.yul\":1674:1713   */\n      tag_68\n        /* \"#utility.yul\":1707:1712   */\n      dup3\n        /* \"#utility.yul\":1674:1713   */\n      tag_42\n      jump\t// in\n    tag_68:\n        /* \"#utility.yul\":1729:1800   */\n      tag_69\n        /* \"#utility.yul\":1793:1799   */\n      dup2\n        /* \"#utility.yul\":1788:1791   */\n      dup6\n        /* \"#utility.yul\":1729:1800   */\n      tag_43\n      jump\t// in\n    tag_69:\n        /* \"#utility.yul\":1722:1800   */\n      swap4\n      pop\n        /* \"#utility.yul\":1809:1874   */\n      tag_70\n        /* \"#utility.yul\":1867:1873   */\n      dup2\n        /* \"#utility.yul\":1862:1865   */\n      dup6\n        /* \"#utility.yul\":1855:1859   */\n      0x20\n        /* \"#utility.yul\":1848:1853   */\n      dup7\n        /* \"#utility.yul\":1844:1860   */\n      add\n        /* \"#utility.yul\":1809:1874   */\n      tag_44\n      jump\t// in\n    tag_70:\n        /* \"#utility.yul\":1899:1928   */\n      tag_71\n        /* \"#utility.yul\":1921:1927   */\n      dup2\n        /* \"#utility.yul\":1899:1928   */\n      tag_45\n      jump\t// in\n    tag_71:\n        /* \"#utility.yul\":1894:1897   */\n      dup5\n        /* \"#utility.yul\":1890:1929   */\n      add\n        /* \"#utility.yul\":1883:1929   */\n      swap2\n      pop\n        /* \"#utility.yul\":1650:1935   */\n      pop\n        /* \"#utility.yul\":1558:1935   */\n      swap3\n      swap2\n      pop\n      pop\n      jump\t// out\n        /* \"#utility.yul\":1941:2254   */\n    tag_9:\n        /* \"#utility.yul\":2054:2058   */\n      0x00\n        /* \"#utility.yul\":2092:2094   */\n      0x20\n        /* \"#utility.yul\":2081:2090   */\n      dup3\n        /* \"#utility.yul\":2077:2095   */\n      add\n        /* \"#utility.yul\":2069:2095   */\n      swap1\n      pop\n        /* \"#utility.yul\":2141:2150   */\n      dup2\n        /* \"#utility.yul\":2135:2139   */\n      dup2\n        /* \"#utility.yul\":2131:2151   */\n      sub\n        /* \"#utility.yul\":2127:2128   */\n      0x00\n        /* \"#utility.yul\":2116:2125   */\n      dup4\n        /* \"#utility.yul\":2112:2129   */\n      add\n        /* \"#utility.yul\":2105:2152   */\n      mstore\n        /* \"#utility.yul\":2169:2247   */\n      tag_73\n        /* \"#utility.yul\":2242:2246   */\n      dup2\n        /* \"#utility.yul\":2233:2239   */\n      dup5\n        /* \"#utility.yul\":2169:2247   */\n      tag_46\n      jump\t// in\n    tag_73:\n        /* \"#utility.yul\":2161:2247   */\n      swap1\n      pop\n        /* \"#utility.yul\":1941:2254   */\n      swap3\n      swap2\n      pop\n      pop\n      jump\t// out\n        /* \"#utility.yul\":2260:2440   */\n    tag_47:\n        /* \"#utility.yul\":2308:2385   */\n      0x4e487b7100000000000000000000000000000000000000000000000000000000\n        /* \"#utility.yul\":2305:2306   */\n      0x00\n        /* \"#utility.yul\":2298:2386   */\n      mstore\n        /* \"#utility.yul\":2405:2409   */\n      0x11\n        /* \"#utility.yul\":2402:2403   */\n      0x04\n        /* \"#utility.yul\":2395:2410   */\n      mstore\n        /* \"#utility.yul\":2429:2433   */\n      0x24\n        /* \"#utility.yul\":2426:2427   */\n      0x00\n        /* \"#utility.yul\":2419:2434   */\n      revert\n        /* \"#utility.yul\":2446:2679   */\n    tag_15:\n        /* \"#utility.yul\":2485:2488   */\n      0x00\n        /* \"#utility.yul\":2508:2532   */\n      tag_76\n        /* \"#utility.yul\":2526:2531   */\n      dup3\n        /* \"#utility.yul\":2508:2532   */\n      tag_39\n      jump\t// in\n    tag_76:\n        /* \"#utility.yul\":2499:2532   */\n      swap2\n      pop\n        /* \"#utility.yul\":2554:2620   */\n      0xffffffffffffffffffffffffffffffffffffffffffffffffffffffffffffffff\n        /* \"#utility.yul\":2547:2552   */\n      dup3\n        /* \"#utility.yul\":2544:2621   */\n      sub\n        /* \"#utility.yul\":2541:2644   */\n      tag_77\n      jumpi\n        /* \"#utility.yul\":2624:2642   */\n      tag_78\n      tag_47\n      jump\t// in\n    tag_78:\n        /* \"#utility.yul\":2541:2644   */\n    tag_77:\n        /* \"#utility.yul\":2671:2672   */\n      0x01\n        /* \"#utility.yul\":2664:2669   */\n      dup3\n        /* \"#utility.yul\":2660:2673   */\n      add\n        /* \"#utility.yul\":2653:2673   */\n      swap1\n      pop\n        /* \"#utility.yul\":2446:2679   */\n      swap2\n      swap1\n      pop\n      jump\t// out\n        /* \"#utility.yul\":2685:2865   */\n    tag_48:\n        /* \"#utility.yul\":2733:2810   */\n      0x4e487b7100000000000000000000000000000000000000000000000000000000\n        /* \"#utility.yul\":2730:2731   */\n      0x00\n        /* \"#utility.yul\":2723:2811   */\n      mstore\n        /* \"#utility.yul\":2830:2834   */\n      0x12\n        /* \"#utility.yul\":2827:2828   */\n      0x04\n        /* \"#utility.yul\":2820:2835   */\n      mstore\n        /* \"#utility.yul\":2854:2858   */\n      0x24\n        /* \"#utility.yul\":2851:2852   */\n      0x00\n        /* \"#utility.yul\":2844:2859   */\n      revert\n        /* \"#utility.yul\":2871:3056   */\n    tag_17:\n        /* \"#utility.yul\":2911:2912   */\n      0x00\n        /* \"#utility.yul\":2928:2948   */\n      tag_81\n        /* \"#utility.yul\":2946:2947   */\n      dup3\n        /* \"#utility.yul\":2928:2948   */\n      tag_39\n      jump\t// in\n    tag_81:\n        /* \"#utility.yul\":2923:2948   */\n      swap2\n      pop\n        /* \"#utility.yul\":2962:2982   */\n      tag_82\n        /* \"#utility.yul\":2980:2981   */\n      dup4\n        /* \"#utility.yul\":2962:2982   */\n      tag_39\n      jump\t// in\n    tag_82:\n        /* \"#utility.yul\":2957:2982   */\n      swap3\n      pop\n        /* \"#utility.yul\":3001:3002   */\n      dup3\n        /* \"#utility.yul\":2991:3026   */\n      tag_83\n      jumpi\n        /* \"#utility.yul\":3006:3024   */\n      tag_84\n      tag_48\n      jump\t// in\n    tag_84:\n        /* \"#utility.yul\":2991:3026   */\n    tag_83:\n        /* \"#utility.yul\":3048:3049   */\n      dup3\n        /* \"#utility.yul\":3045:3046   */\n      dup3\n        /* \"#utility.yul\":3041:3050   */\n      div\n        /* \"#utility.yul\":3036:3050   */\n      swap1\n      pop\n        /* \"#utility.yul\":2871:3056   */\n      swap3\n      swap2\n      pop\n      pop\n      jump\t// out\n        /* \"#utility.yul\":3062:3242   */\n    tag_20:\n        /* \"#utility.yul\":3110:3187   */\n      0x4e487b7100000000000000000000000000000000000000000000000000000000\n        /* \"#utility.yul\":3107:3108   */\n      0x00\n        /* \"#utility.yul\":3100:3188   */\n      mstore\n        /* \"#utility.yul\":3207:3211   */\n      0x41\n        /* \"#utility.yul\":3204:3205   */\n      0x04\n        /* \"#utility.yul\":3197:3212   */\n      mstore\n        /* \"#utility.yul\":3231:3235   */\n      0x24\n        /* \"#utility.yul\":3228:3229   */\n      0x00\n        /* \"#utility.yul\":3221:3236   */\n      revert\n        /* \"#utility.yul\":3248:3442   */\n    tag_23:\n        /* \"#utility.yul\":3288:3292   */\n      0x00\n        /* \"#utility.yul\":3308:3328   */\n      tag_87\n        /* \"#utility.yul\":3326:3327   */\n      dup3\n        /* \"#utility.yul\":3308:3328   */\n      tag_39\n      jump\t// in\n    tag_87:\n        /* \"#utility.yul\":3303:3328   */\n      swap2\n      pop\n        /* \"#utility.yul\":3342:3362   */\n      tag_88\n        /* \"#utility.yul\":3360:3361   */\n      dup4\n        /* \"#utility.yul\":3342:3362   */\n      tag_39\n      jump\t// in\n    tag_88:\n        /* \"#utility.yul\":3337:3362   */\n      swap3\n      pop\n        /* \"#utility.yul\":3386:3387   */\n      dup3\n        /* \"#utility.yul\":3383:3384   */\n      dup3\n        /* \"#utility.yul\":3379:3388   */\n      sub\n        /* \"#utility.yul\":3371:3388   */\n      swap1\n      pop\n        /* \"#utility.yul\":3410:3411   */\n      dup2\n        /* \"#utility.yul\":3404:3408   */\n      dup2\n        /* \"#utility.yul\":3401:3412   */\n      gt\n        /* \"#utility.yul\":3398:3435   */\n      iszero\n      tag_89\n      jumpi\n        /* \"#utility.yul\":3415:3433   */\n      tag_90\n      tag_47\n      jump\t// in\n    tag_90:\n        /* \"#utility.yul\":3398:3435   */\n    tag_89:\n        /* \"#utility.yul\":3248:3442   */\n      swap3\n      swap2\n      pop\n      pop\n      jump\t// out\n        /* \"#utility.yul\":3448:3624   */\n    tag_27:\n        /* \"#utility.yul\":3480:3481   */\n      0x00\n        /* \"#utility.yul\":3497:3517   */\n      tag_92\n        /* \"#utility.yul\":3515:3516   */\n      dup3\n        /* \"#utility.yul\":3497:3517   */\n      tag_39\n      jump\t// in\n    tag_92:\n        /* \"#utility.yul\":3492:3517   */\n      swap2\n      pop\n        /* \"#utility.yul\":3531:3551   */\n      tag_93\n        /* \"#utility.yul\":3549:3550   */\n      dup4\n        /* \"#utility.yul\":3531:3551   */\n      tag_39\n      jump\t// in\n    tag_93:\n        /* \"#utility.yul\":3526:3551   */\n      swap3\n      pop\n        /* \"#utility.yul\":3570:3571   */\n      dup3\n        /* \"#utility.yul\":3560:3595   */\n      tag_94\n      jumpi\n        /* \"#utility.yul\":3575:3593   */\n      tag_95\n      tag_48\n      jump\t// in\n    tag_95:\n        /* \"#utility.yul\":3560:3595   */\n    tag_94:\n        /* \"#utility.yul\":3616:3617   */\n      dup3\n        /* \"#utility.yul\":3613:3614   */\n      dup3\n        /* \"#utility.yul\":3609:3618   */\n      mod\n        /* \"#utility.yul\":3604:3618   */\n      swap1\n      pop\n        /* \"#utility.yul\":3448:3624   */\n      swap3\n      swap2\n      pop\n      pop\n      jump\t// out\n        /* \"#utility.yul\":3630:3821   */\n    tag_29:\n        /* \"#utility.yul\":3670:3673   */\n      0x00\n        /* \"#utility.yul\":3689:3709   */\n      tag_97\n        /* \"#utility.yul\":3707:3708   */\n      dup3\n        /* \"#utility.yul\":3689:3709   */\n      tag_39\n      jump\t// in\n    tag_97:\n        /* \"#utility.yul\":3684:3709   */\n      swap2\n      pop\n        /* \"#utility.yul\":3723:3743   */\n      tag_98\n        /* \"#utility.yul\":3741:3742   */\n      dup4\n        /* \"#utility.yul\":3723:3743   */\n      tag_39\n      jump\t// in\n    tag_98:\n        /* \"#utility.yul\":3718:3743   */\n      swap3\n      pop\n        /* \"#utility.yul\":3766:3767   */\n      dup3\n        /* \"#utility.yul\":3763:3764   */\n      dup3\n        /* \"#utility.yul\":3759:3768   */\n      add\n        /* \"#utility.yul\":3752:3768   */\n      swap1\n      pop\n        /* \"#utility.yul\":3787:3790   */\n      dup1\n        /* \"#utility.yul\":3784:3785   */\n      dup3\n        /* \"#utility.yul\":3781:3791   */\n      gt\n        /* \"#utility.yul\":3778:3814   */\n      iszero\n      tag_99\n      jumpi\n        /* \"#utility.yul\":3794:3812   */\n      tag_100\n      tag_47\n      jump\t// in\n    tag_100:\n        /* \"#utility.yul\":3778:3814   */\n    tag_99:\n        /* \"#utility.yul\":3630:3821   */\n      swap3\n      swap2\n      pop\n      pop\n      jump\t// out\n        /* \"#utility.yul\":3827:3998   */\n    tag_31:\n        /* \"#utility.yul\":3866:3869   */\n      0x00\n        /* \"#utility.yul\":3889:3913   */\n      tag_102\n        /* \"#utility.yul\":3907:3912   */\n      dup3\n        /* \"#utility.yul\":3889:3913   */\n      tag_39\n      jump\t// in\n    tag_102:\n        /* \"#utility.yul\":3880:3913   */\n      swap2\n      pop\n        /* \"#utility.yul\":3935:3939   */\n      0x00\n        /* \"#utility.yul\":3928:3933   */\n      dup3\n        /* \"#utility.yul\":3925:3940   */\n      sub\n        /* \"#utility.yul\":3922:3963   */\n      tag_103\n      jumpi\n        /* \"#utility.yul\":3943:3961   */\n      tag_104\n      tag_47\n      jump\t// in\n    tag_104:\n        /* \"#utility.yul\":3922:3963   */\n    tag_103:\n        /* \"#utility.yul\":3990:3991   */\n      0x01\n        /* \"#utility.yul\":3983:3988   */\n      dup3\n        /* \"#utility.yul\":3979:3992   */\n      sub\n        /* \"#utility.yul\":3972:3992   */\n      swap1\n      pop\n        /* \"#utility.yul\":3827:3998   */\n      swap2\n      swap1\n      pop\n      jump\t// out\n        /* \"#utility.yul\":4004:4184   */\n    tag_34:\n        /* \"#utility.yul\":4052:4129   */\n      0x4e487b7100000000000000000000000000000000000000000000000000000000\n        /* \"#utility.yul\":4049:4050   */\n      0x00\n        /* \"#utility.yul\":4042:4130   */\n      mstore\n        /* \"#utility.yul\":4149:4153   */\n      0x32\n        /* \"#utility.yul\":4146:4147   */\n      0x04\n        /* \"#utility.yul\":4139:4154   */\n      mstore\n        /* \"#utility.yul\":4173:4177   */\n      0x24\n        /* \"#utility.yul\":4170:4171   */\n      0x00\n        /* \"#utility.yul\":4163:4178   */\n      revert\n\n    auxdata: 0xa26469706673582212208e2fc2a4d81771ffb52e3687df1aa45728f8e3977cb7ca6038a60b6bbe6e7c8064736f6c634300081c0033\n}\n",
				"bytecode": {
					"linkReferences": {},
					"object": "6080604052348015600e575f5ffd5b506104d48061001c5f395ff3fe608060405234801561000f575f5ffd5b5060043610610029575f3560e01c8063e93956791461002d575b5f5ffd5b610047600480360381019061004291906101fb565b61005d565b6040516100549190610296565b60405180910390f35b60605f82036100a3576040518060400160405280600181526020017f300000000000000000000000000000000000000000000000000000000000000081525090506101bf565b5f8290505f5b5f82146100d25780806100bb906102e3565b915050600a826100cb9190610357565b91506100a9565b5f8167ffffffffffffffff8111156100ed576100ec610387565b5b6040519080825280601f01601f19166020018201604052801561011f5781602001600182028036833780820191505090505b5090505f60018361013091906103b4565b90505b5f86146101b757600a8661014791906103e7565b60306101539190610417565b60f81b8282806101629061044a565b93508151811061017557610174610471565b5b60200101907effffffffffffffffffffffffffffffffffffffffffffffffffffffffffffff191690815f1a905350600a866101b09190610357565b9550610133565b819450505050505b919050565b5f5ffd5b5f819050919050565b6101da816101c8565b81146101e4575f5ffd5b50565b5f813590506101f5816101d1565b92915050565b5f602082840312156102105761020f6101c4565b5b5f61021d848285016101e7565b91505092915050565b5f81519050919050565b5f82825260208201905092915050565b8281835e5f83830152505050565b5f601f19601f8301169050919050565b5f61026882610226565b6102728185610230565b9350610282818560208601610240565b61028b8161024e565b840191505092915050565b5f6020820190508181035f8301526102ae818461025e565b905092915050565b7f4e487b71000000000000000000000000000000000000000000000000000000005f52601160045260245ffd5b5f6102ed826101c8565b91507fffffffffffffffffffffffffffffffffffffffffffffffffffffffffffffffff820361031f5761031e6102b6565b5b600182019050919050565b7f4e487b71000000000000000000000000000000000000000000000000000000005f52601260045260245ffd5b5f610361826101c8565b915061036c836101c8565b92508261037c5761037b61032a565b5b828204905092915050565b7f4e487b71000000000000000000000000000000000000000000000000000000005f52604160045260245ffd5b5f6103be826101c8565b91506103c9836101c8565b92508282039050818111156103e1576103e06102b6565b5b92915050565b5f6103f1826101c8565b91506103fc836101c8565b92508261040c5761040b61032a565b5b828206905092915050565b5f610421826101c8565b915061042c836101c8565b9250828201905080821115610444576104436102b6565b5b92915050565b5f610454826101c8565b91505f8203610466576104656102b6565b5b600182039050919050565b7f4e487b71000000000000000000000000000000000000000000000000000000005f52603260045260245ffdfea26469706673582212208e2fc2a4d81771ffb52e3687df1aa45728f8e3977cb7ca6038a60b6bbe6e7c8064736f6c634300081c0033",
					"opcodes": "PUSH1 0x80 PUSH1 0x40 MSTORE CALLVALUE DUP1 ISZERO PUSH1 0xE JUMPI PUSH0 PUSH0 REVERT JUMPDEST POP PUSH2 0x4D4 DUP1 PUSH2 0x1C PUSH0 CODECOPY PUSH0 RETURN INVALID PUSH1 0x80 PUSH1 0x40 MSTORE CALLVALUE DUP1 ISZERO PUSH2 0xF JUMPI PUSH0 PUSH0 REVERT JUMPDEST POP PUSH1 0x4 CALLDATASIZE LT PUSH2 0x29 JUMPI PUSH0 CALLDATALOAD PUSH1 0xE0 SHR DUP1 PUSH4 0xE9395679 EQ PUSH2 0x2D JUMPI JUMPDEST PUSH0 PUSH0 REVERT JUMPDEST PUSH2 0x47 PUSH1 0x4 DUP1 CALLDATASIZE SUB DUP2 ADD SWAP1 PUSH2 0x42 SWAP2 SWAP1 PUSH2 0x1FB JUMP JUMPDEST PUSH2 0x5D JUMP JUMPDEST PUSH1 0x40 MLOAD PUSH2 0x54 SWAP2 SWAP1 PUSH2 0x296 JUMP JUMPDEST PUSH1 0x40 MLOAD DUP1 SWAP2 SUB SWAP1 RETURN JUMPDEST PUSH1 0x60 PUSH0 DUP3 SUB PUSH2 0xA3 JUMPI PUSH1 0x40 MLOAD DUP1 PUSH1 0x40 ADD PUSH1 0x40 MSTORE DUP1 PUSH1 0x1 DUP2 MSTORE PUSH1 0x20 ADD PUSH32 0x3000000000000000000000000000000000000000000000000000000000000000 DUP2 MSTORE POP SWAP1 POP PUSH2 0x1BF JUMP JUMPDEST PUSH0 DUP3 SWAP1 POP PUSH0 JUMPDEST PUSH0 DUP3 EQ PUSH2 0xD2 JUMPI DUP1 DUP1 PUSH2 0xBB SWAP1 PUSH2 0x2E3 JUMP JUMPDEST SWAP2 POP POP PUSH1 0xA DUP3 PUSH2 0xCB SWAP2 SWAP1 PUSH2 0x357 JUMP JUMPDEST SWAP2 POP PUSH2 0xA9 JUMP JUMPDEST PUSH0 DUP2 PUSH8 0xFFFFFFFFFFFFFFFF DUP2 GT ISZERO PUSH2 0xED JUMPI PUSH2 0xEC PUSH2 0x387 JUMP JUMPDEST JUMPDEST PUSH1 0x40 MLOAD SWAP1 DUP1 DUP3 MSTORE DUP1 PUSH1 0x1F ADD PUSH1 0x1F NOT AND PUSH1 0x20 ADD DUP3 ADD PUSH1 0x40 MSTORE DUP1 ISZERO PUSH2 0x11F JUMPI DUP2 PUSH1 0x20 ADD PUSH1 0x1 DUP3 MUL DUP1 CALLDATASIZE DUP4 CALLDATACOPY DUP1 DUP3 ADD SWAP2 POP POP SWAP1 POP JUMPDEST POP SWAP1 POP PUSH0 PUSH1 0x1 DUP4 PUSH2 0x130 SWAP2 SWAP1 PUSH2 0x3B4 JUMP JUMPDEST SWAP1 POP JUMPDEST PUSH0 DUP7 EQ PUSH2 0x1B7 JUMPI PUSH1 0xA DUP7 PUSH2 0x147 SWAP2 SWAP1 PUSH2 0x3E7 JUMP JUMPDEST PUSH1 0x30 PUSH2 0x153 SWAP2 SWAP1 PUSH2 0x417 JUMP JUMPDEST PUSH1 0xF8 SHL DUP3 DUP3 DUP1 PUSH2 0x162 SWAP1 PUSH2 0x44A JUMP JUMPDEST SWAP4 POP DUP2 MLOAD DUP2 LT PUSH2 0x175 JUMPI PUSH2 0x174 PUSH2 0x471 JUMP JUMPDEST JUMPDEST PUSH1 0x20 ADD ADD SWAP1 PUSH31 0xFFFFFFFFFFFFFFFFFFFFFFFFFFFFFFFFFFFFFFFFFFFFFFFFFFFFFFFFFFFFFF NOT AND SWAP1 DUP2 PUSH0 BYTE SWAP1 MSTORE8 POP PUSH1 0xA DUP7 PUSH2 0x1B0 SWAP2 SWAP1 PUSH2 0x357 JUMP JUMPDEST SWAP6 POP PUSH2 0x133 JUMP JUMPDEST DUP2 SWAP5 POP POP POP POP POP JUMPDEST SWAP2 SWAP1 POP JUMP JUMPDEST PUSH0 PUSH0 REVERT JUMPDEST PUSH0 DUP2 SWAP1 POP SWAP2 SWAP1 POP JUMP JUMPDEST PUSH2 0x1DA DUP2 PUSH2 0x1C8 JUMP JUMPDEST DUP2 EQ PUSH2 0x1E4 JUMPI PUSH0 PUSH0 REVERT JUMPDEST POP JUMP JUMPDEST PUSH0 DUP2 CALLDATALOAD SWAP1 POP PUSH2 0x1F5 DUP2 PUSH2 0x1D1 JUMP JUMPDEST SWAP3 SWAP2 POP POP JUMP JUMPDEST PUSH0 PUSH1 0x20 DUP3 DUP5 SUB SLT ISZERO PUSH2 0x210 JUMPI PUSH2 0x20F PUSH2 0x1C4 JUMP JUMPDEST JUMPDEST PUSH0 PUSH2 0x21D DUP5 DUP3 DUP6 ADD PUSH2 0x1E7 JUMP JUMPDEST SWAP2 POP POP SWAP3 SWAP2 POP POP JUMP JUMPDEST PUSH0 DUP2 MLOAD SWAP1 POP SWAP2 SWAP1 POP JUMP JUMPDEST PUSH0 DUP3 DUP3 MSTORE PUSH1 0x20 DUP3 ADD SWAP1 POP SWAP3 SWAP2 POP POP JUMP JUMPDEST DUP3 DUP2 DUP4 MCOPY PUSH0 DUP4 DUP4 ADD MSTORE POP POP POP JUMP JUMPDEST PUSH0 PUSH1 0x1F NOT PUSH1 0x1F DUP4 ADD AND SWAP1 POP SWAP2 SWAP1 POP JUMP JUMPDEST PUSH0 PUSH2 0x268 DUP3 PUSH2 0x226 JUMP JUMPDEST PUSH2 0x272 DUP2 DUP6 PUSH2 0x230 JUMP JUMPDEST SWAP4 POP PUSH2 0x282 DUP2 DUP6 PUSH1 0x20 DUP7 ADD PUSH2 0x240 JUMP JUMPDEST PUSH2 0x28B DUP2 PUSH2 0x24E JUMP JUMPDEST DUP5 ADD SWAP2 POP POP SWAP3 SWAP2 POP POP JUMP JUMPDEST PUSH0 PUSH1 0x20 DUP3 ADD SWAP1 POP DUP2 DUP2 SUB PUSH0 DUP4 ADD MSTORE PUSH2 0x2AE DUP2 DUP5 PUSH2 0x25E JUMP JUMPDEST SWAP1 POP SWAP3 SWAP2 POP POP JUMP JUMPDEST PUSH32 0x4E487B7100000000000000000000000000000000000000000000000000000000 PUSH0 MSTORE PUSH1 0x11 PUSH1 0x4 MSTORE PUSH1 0x24 PUSH0 REVERT JUMPDEST PUSH0 PUSH2 0x2ED DUP3 PUSH2 0x1C8 JUMP JUMPDEST SWAP2 POP PUSH32 0xFFFFFFFFFFFFFFFFFFFFFFFFFFFFFFFFFFFFFFFFFFFFFFFFFFFFFFFFFFFFFFFF DUP3 SUB PUSH2 0x31F JUMPI PUSH2 0x31E PUSH2 0x2B6 JUMP JUMPDEST JUMPDEST PUSH1 0x1 DUP3 ADD SWAP1 POP SWAP2 SWAP1 POP JUMP JUMPDEST PUSH32 0x4E487B7100000000000000000000000000000000000000000000000000000000 PUSH0 MSTORE PUSH1 0x12 PUSH1 0x4 MSTORE PUSH1 0x24 PUSH0 REVERT JUMPDEST PUSH0 PUSH2 0x361 DUP3 PUSH2 0x1C8 JUMP JUMPDEST SWAP2 POP PUSH2 0x36C DUP4 PUSH2 0x1C8 JUMP JUMPDEST SWAP3 POP DUP3 PUSH2 0x37C JUMPI PUSH2 0x37B PUSH2 0x32A JUMP JUMPDEST JUMPDEST DUP3 DUP3 DIV SWAP1 POP SWAP3 SWAP2 POP POP JUMP JUMPDEST PUSH32 0x4E487B7100000000000000000000000000000000000000000000000000000000 PUSH0 MSTORE PUSH1 0x41 PUSH1 0x4 MSTORE PUSH1 0x24 PUSH0 REVERT JUMPDEST PUSH0 PUSH2 0x3BE DUP3 PUSH2 0x1C8 JUMP JUMPDEST SWAP2 POP PUSH2 0x3C9 DUP4 PUSH2 0x1C8 JUMP JUMPDEST SWAP3 POP DUP3 DUP3 SUB SWAP1 POP DUP2 DUP2 GT ISZERO PUSH2 0x3E1 JUMPI PUSH2 0x3E0 PUSH2 0x2B6 JUMP JUMPDEST JUMPDEST SWAP3 SWAP2 POP POP JUMP JUMPDEST PUSH0 PUSH2 0x3F1 DUP3 PUSH2 0x1C8 JUMP JUMPDEST SWAP2 POP PUSH2 0x3FC DUP4 PUSH2 0x1C8 JUMP JUMPDEST SWAP3 POP DUP3 PUSH2 0x40C JUMPI PUSH2 0x40B PUSH2 0x32A JUMP JUMPDEST JUMPDEST DUP3 DUP3 MOD SWAP1 POP SWAP3 SWAP2 POP POP JUMP JUMPDEST PUSH0 PUSH2 0x421 DUP3 PUSH2 0x1C8 JUMP JUMPDEST SWAP2 POP PUSH2 0x42C DUP4 PUSH2 0x1C8 JUMP JUMPDEST SWAP3 POP DUP3 DUP3 ADD SWAP1 POP DUP1 DUP3 GT ISZERO PUSH2 0x444 JUMPI PUSH2 0x443 PUSH2 0x2B6 JUMP JUMPDEST JUMPDEST SWAP3 SWAP2 POP POP JUMP JUMPDEST PUSH0 PUSH2 0x454 DUP3 PUSH2 0x1C8 JUMP JUMPDEST SWAP2 POP PUSH0 DUP3 SUB PUSH2 0x466 JUMPI PUSH2 0x465 PUSH2 0x2B6 JUMP JUMPDEST JUMPDEST PUSH1 0x1 DUP3 SUB SWAP1 POP SWAP2 SWAP1 POP JUMP JUMPDEST PUSH32 0x4E487B7100000000000000000000000000000000000000000000000000000000 PUSH0 MSTORE PUSH1 0x32 PUSH1 0x4 MSTORE PUSH1 0x24 PUSH0 REVERT INVALID LOG2 PUSH5 0x6970667358 0x22 SLT KECCAK256 DUP15 0x2F 0xC2 LOG4 0xD8 OR PUSH18 0xFFB52E3687DF1AA45728F8E3977CB7CA6038 0xA6 SIGNEXTEND PUSH12 0xBE6E7C8064736F6C63430008 SHR STOP CALLER "
				},
				"gasEstimates": {
					"creation": {
						"codeDepositCost": "247200",
						"executionCost": "285",
						"totalCost": "247485"
					},
					"external": {
						"uintToString(uint256)": "infinite"
					}
				},
				"methodIdentifiers": {
					"uintToString(uint256)": "e9395679"
				}
			},
			"storageLayout": {
				"storage": [],
				"types": null
			},
			"userdoc": {
				"kind": "user",
				"methods": {},
				"version": 1
			}
		}
	}
}