{
	"contracts/PRACTICE/Job-Portal.sol": {
		"JobPortal": {
			"abi": [
				{
					"inputs": [],
					"stateMutability": "nonpayable",
					"type": "constructor"
				},
				{
					"inputs": [
						{
							"internalType": "string",
							"name": "_name",
							"type": "string"
						},
						{
							"internalType": "string",
							"name": "_location",
							"type": "string"
						},
						{
							"internalType": "uint256",
							"name": "_age",
							"type": "uint256"
						},
						{
							"internalType": "uint256",
							"name": "_applicantID",
							"type": "uint256"
						},
						{
							"internalType": "bool",
							"name": "_isSkilled",
							"type": "bool"
						}
					],
					"name": "addNewApplicant",
					"outputs": [],
					"stateMutability": "nonpayable",
					"type": "function"
				},
				{
					"inputs": [
						{
							"internalType": "uint256",
							"name": "_jobID",
							"type": "uint256"
						},
						{
							"internalType": "string",
							"name": "_jobTitle",
							"type": "string"
						}
					],
					"name": "addNewJob",
					"outputs": [],
					"stateMutability": "nonpayable",
					"type": "function"
				},
				{
					"inputs": [],
					"name": "admin",
					"outputs": [
						{
							"internalType": "address",
							"name": "",
							"type": "address"
						}
					],
					"stateMutability": "view",
					"type": "function"
				},
				{
					"inputs": [
						{
							"internalType": "uint256",
							"name": "_applicantID",
							"type": "uint256"
						},
						{
							"internalType": "uint256",
							"name": "_jobID",
							"type": "uint256"
						},
						{
							"internalType": "string",
							"name": "_additionalInfo",
							"type": "string"
						}
					],
					"name": "applyForJob",
					"outputs": [],
					"stateMutability": "nonpayable",
					"type": "function"
				},
				{
					"inputs": [
						{
							"internalType": "uint256",
							"name": "_applicantID",
							"type": "uint256"
						}
					],
					"name": "fetchApplicantRating",
					"outputs": [
						{
							"internalType": "uint256",
							"name": "",
							"type": "uint256"
						}
					],
					"stateMutability": "view",
					"type": "function"
				},
				{
					"inputs": [
						{
							"internalType": "uint256",
							"name": "_applicantID",
							"type": "uint256"
						}
					],
					"name": "getApplicantDetails",
					"outputs": [
						{
							"components": [
								{
									"internalType": "string",
									"name": "name",
									"type": "string"
								},
								{
									"internalType": "string",
									"name": "location",
									"type": "string"
								},
								{
									"internalType": "uint256",
									"name": "age",
									"type": "uint256"
								},
								{
									"internalType": "uint256",
									"name": "rating",
									"type": "uint256"
								},
								{
									"internalType": "uint256",
									"name": "applicantID",
									"type": "uint256"
								},
								{
									"internalType": "bool",
									"name": "isSkilled",
									"type": "bool"
								}
							],
							"internalType": "struct JobPortal.Applicant",
							"name": "",
							"type": "tuple"
						}
					],
					"stateMutability": "view",
					"type": "function"
				},
				{
					"inputs": [
						{
							"internalType": "uint256",
							"name": "_applicantID",
							"type": "uint256"
						}
					],
					"name": "getApplicantType",
					"outputs": [
						{
							"internalType": "string",
							"name": "",
							"type": "string"
						}
					],
					"stateMutability": "view",
					"type": "function"
				},
				{
					"inputs": [
						{
							"internalType": "uint256",
							"name": "_jobID",
							"type": "uint256"
						}
					],
					"name": "getJobDetails",
					"outputs": [
						{
							"components": [
								{
									"internalType": "uint256",
									"name": "jobID",
									"type": "uint256"
								},
								{
									"internalType": "string",
									"name": "jobTitle",
									"type": "string"
								}
							],
							"internalType": "struct JobPortal.Job",
							"name": "",
							"type": "tuple"
						}
					],
					"stateMutability": "view",
					"type": "function"
				},
				{
					"inputs": [
						{
							"internalType": "uint256",
							"name": "_applicantID",
							"type": "uint256"
						},
						{
							"internalType": "uint8",
							"name": "_rating",
							"type": "uint8"
						}
					],
					"name": "giveRating",
					"outputs": [],
					"stateMutability": "nonpayable",
					"type": "function"
				}
			],
			"devdoc": {
				"kind": "dev",
				"methods": {},
				"version": 1
			},
			"evm": {
				"assembly": "    /* \"contracts/PRACTICE/Job-Portal.sol\":97:3447  contract JobPortal {   ... */\n  mstore(0x40, 0x80)\n    /* \"contracts/PRACTICE/Job-Portal.sol\":171:234  constructor() {            ... */\n  callvalue\n  dup1\n  iszero\n  tag_1\n  jumpi\n  revert(0x00, 0x00)\ntag_1:\n  pop\n    /* \"contracts/PRACTICE/Job-Portal.sol\":216:226  msg.sender */\n  caller\n    /* \"contracts/PRACTICE/Job-Portal.sol\":208:213  admin */\n  0x00\n  0x00\n    /* \"contracts/PRACTICE/Job-Portal.sol\":208:226  admin = msg.sender */\n  0x0100\n  exp\n  dup2\n  sload\n  dup2\n  0xffffffffffffffffffffffffffffffffffffffff\n  mul\n  not\n  and\n  swap1\n  dup4\n  0xffffffffffffffffffffffffffffffffffffffff\n  and\n  mul\n  or\n  swap1\n  sstore\n  pop\n    /* \"contracts/PRACTICE/Job-Portal.sol\":97:3447  contract JobPortal {   ... */\n  dataSize(sub_0)\n  dup1\n  dataOffset(sub_0)\n  0x00\n  codecopy\n  0x00\n  return\nstop\n\nsub_0: assembly {\n        /* \"contracts/PRACTICE/Job-Portal.sol\":97:3447  contract JobPortal {   ... */\n      mstore(0x40, 0x80)\n      callvalue\n      dup1\n      iszero\n      tag_1\n      jumpi\n      revert(0x00, 0x00)\n    tag_1:\n      pop\n      jumpi(tag_2, lt(calldatasize, 0x04))\n      shr(0xe0, calldataload(0x00))\n      dup1\n      0xbbbc6a31\n      gt\n      tag_12\n      jumpi\n      dup1\n      0xbbbc6a31\n      eq\n      tag_7\n      jumpi\n      dup1\n      0xd280267d\n      eq\n      tag_8\n      jumpi\n      dup1\n      0xd352092d\n      eq\n      tag_9\n      jumpi\n      dup1\n      0xe5b870e4\n      eq\n      tag_10\n      jumpi\n      dup1\n      0xf851a440\n      eq\n      tag_11\n      jumpi\n      jump(tag_2)\n    tag_12:\n      dup1\n      0x4cac35c6\n      eq\n      tag_3\n      jumpi\n      dup1\n      0x6c8548ff\n      eq\n      tag_4\n      jumpi\n      dup1\n      0x8798a47b\n      eq\n      tag_5\n      jumpi\n      dup1\n      0x8c48e912\n      eq\n      tag_6\n      jumpi\n    tag_2:\n      revert(0x00, 0x00)\n        /* \"contracts/PRACTICE/Job-Portal.sol\":1976:2148  function getJobDetails(uint _jobID) public view returns (Job memory) {... */\n    tag_3:\n      tag_13\n      0x04\n      dup1\n      calldatasize\n      sub\n      dup2\n      add\n      swap1\n      tag_14\n      swap2\n      swap1\n      tag_15\n      jump\t// in\n    tag_14:\n      tag_16\n      jump\t// in\n    tag_13:\n      mload(0x40)\n      tag_17\n      swap2\n      swap1\n      tag_18\n      jump\t// in\n    tag_17:\n      mload(0x40)\n      dup1\n      swap2\n      sub\n      swap1\n      return\n        /* \"contracts/PRACTICE/Job-Portal.sol\":2448:2582  function fetchApplicantRating(uint _applicantID) public view returns (uint) ... */\n    tag_4:\n      tag_19\n      0x04\n      dup1\n      calldatasize\n      sub\n      dup2\n      add\n      swap1\n      tag_20\n      swap2\n      swap1\n      tag_15\n      jump\t// in\n    tag_20:\n      tag_21\n      jump\t// in\n    tag_19:\n      mload(0x40)\n      tag_22\n      swap2\n      swap1\n      tag_23\n      jump\t// in\n    tag_22:\n      mload(0x40)\n      dup1\n      swap2\n      sub\n      swap1\n      return\n        /* \"contracts/PRACTICE/Job-Portal.sol\":1482:1703  function getApplicantDetails(uint _applicantID) public view returns (Applicant memory) {... */\n    tag_5:\n      tag_24\n      0x04\n      dup1\n      calldatasize\n      sub\n      dup2\n      add\n      swap1\n      tag_25\n      swap2\n      swap1\n      tag_15\n      jump\t// in\n    tag_25:\n      tag_26\n      jump\t// in\n    tag_24:\n      mload(0x40)\n      tag_27\n      swap2\n      swap1\n      tag_28\n      jump\t// in\n    tag_27:\n      mload(0x40)\n      dup1\n      swap2\n      sub\n      swap1\n      return\n        /* \"contracts/PRACTICE/Job-Portal.sol\":1029:1432  function addNewApplicant(string memory _name, string memory _location, uint _age, uint _applicantID, bool _isSkilled) public onlyAdmin {... */\n    tag_6:\n      tag_29\n      0x04\n      dup1\n      calldatasize\n      sub\n      dup2\n      add\n      swap1\n      tag_30\n      swap2\n      swap1\n      tag_31\n      jump\t// in\n    tag_30:\n      tag_32\n      jump\t// in\n    tag_29:\n      stop\n        /* \"contracts/PRACTICE/Job-Portal.sol\":2212:2399  function giveRating(uint _applicantID, uint8 _rating) public onlyAdmin {... */\n    tag_7:\n      tag_33\n      0x04\n      dup1\n      calldatasize\n      sub\n      dup2\n      add\n      swap1\n      tag_34\n      swap2\n      swap1\n      tag_35\n      jump\t// in\n    tag_34:\n      tag_36\n      jump\t// in\n    tag_33:\n      stop\n        /* \"contracts/PRACTICE/Job-Portal.sol\":3051:3443  function getApplicantType(uint _applicantID) public view returns (string memory) {... */\n    tag_8:\n      tag_37\n      0x04\n      dup1\n      calldatasize\n      sub\n      dup2\n      add\n      swap1\n      tag_38\n      swap2\n      swap1\n      tag_15\n      jump\t// in\n    tag_38:\n      tag_39\n      jump\t// in\n    tag_37:\n      mload(0x40)\n      tag_40\n      swap2\n      swap1\n      tag_41\n      jump\t// in\n    tag_40:\n      mload(0x40)\n      dup1\n      swap2\n      sub\n      swap1\n      return\n        /* \"contracts/PRACTICE/Job-Portal.sol\":1752:1934  function addNewJob(uint _jobID, string memory _jobTitle) public onlyAdmin {... */\n    tag_9:\n      tag_42\n      0x04\n      dup1\n      calldatasize\n      sub\n      dup2\n      add\n      swap1\n      tag_43\n      swap2\n      swap1\n      tag_44\n      jump\t// in\n    tag_43:\n      tag_45\n      jump\t// in\n    tag_42:\n      stop\n        /* \"contracts/PRACTICE/Job-Portal.sol\":2639:2906  function applyForJob(uint _applicantID, uint _jobID, string memory _additionalInfo) public {... */\n    tag_10:\n      tag_46\n      0x04\n      dup1\n      calldatasize\n      sub\n      dup2\n      add\n      swap1\n      tag_47\n      swap2\n      swap1\n      tag_48\n      jump\t// in\n    tag_47:\n      tag_49\n      jump\t// in\n    tag_46:\n      stop\n        /* \"contracts/PRACTICE/Job-Portal.sol\":127:147  address public admin */\n    tag_11:\n      tag_50\n      tag_51\n      jump\t// in\n    tag_50:\n      mload(0x40)\n      tag_52\n      swap2\n      swap1\n      tag_53\n      jump\t// in\n    tag_52:\n      mload(0x40)\n      dup1\n      swap2\n      sub\n      swap1\n      return\n        /* \"contracts/PRACTICE/Job-Portal.sol\":1976:2148  function getJobDetails(uint _jobID) public view returns (Job memory) {... */\n    tag_16:\n        /* \"contracts/PRACTICE/Job-Portal.sol\":2033:2043  Job memory */\n      tag_54\n      tag_55\n      jump\t// in\n    tag_54:\n        /* \"contracts/PRACTICE/Job-Portal.sol\":2073:2077  jobs */\n      0x02\n        /* \"contracts/PRACTICE/Job-Portal.sol\":2073:2084  jobs.length */\n      dup1\n      sload\n      swap1\n      pop\n        /* \"contracts/PRACTICE/Job-Portal.sol\":2064:2070  _jobID */\n      dup3\n        /* \"contracts/PRACTICE/Job-Portal.sol\":2064:2084  _jobID < jobs.length */\n      lt\n        /* \"contracts/PRACTICE/Job-Portal.sol\":2056:2110  require(_jobID < jobs.length, \"Job ID does not exist\") */\n      tag_57\n      jumpi\n      mload(0x40)\n      0x08c379a000000000000000000000000000000000000000000000000000000000\n      dup2\n      mstore\n      0x04\n      add\n      tag_58\n      swap1\n      tag_59\n      jump\t// in\n    tag_58:\n      mload(0x40)\n      dup1\n      swap2\n      sub\n      swap1\n      revert\n    tag_57:\n        /* \"contracts/PRACTICE/Job-Portal.sol\":2128:2132  jobs */\n      0x02\n        /* \"contracts/PRACTICE/Job-Portal.sol\":2133:2139  _jobID */\n      dup3\n        /* \"contracts/PRACTICE/Job-Portal.sol\":2128:2140  jobs[_jobID] */\n      dup2\n      sload\n      dup2\n      lt\n      tag_60\n      jumpi\n      tag_61\n      tag_62\n      jump\t// in\n    tag_61:\n    tag_60:\n      swap1\n      0x00\n      mstore\n      keccak256(0x00, 0x20)\n      swap1\n      0x02\n      mul\n      add\n        /* \"contracts/PRACTICE/Job-Portal.sol\":2121:2140  return jobs[_jobID] */\n      mload(0x40)\n      dup1\n      0x40\n      add\n      0x40\n      mstore\n      swap1\n      dup2\n      0x00\n      dup3\n      add\n      sload\n      dup2\n      mstore\n      0x20\n      add\n      0x01\n      dup3\n      add\n      dup1\n      sload\n      tag_64\n      swap1\n      tag_65\n      jump\t// in\n    tag_64:\n      dup1\n      0x1f\n      add\n      0x20\n      dup1\n      swap2\n      div\n      mul\n      0x20\n      add\n      mload(0x40)\n      swap1\n      dup2\n      add\n      0x40\n      mstore\n      dup1\n      swap3\n      swap2\n      swap1\n      dup2\n      dup2\n      mstore\n      0x20\n      add\n      dup3\n      dup1\n      sload\n      tag_66\n      swap1\n      tag_65\n      jump\t// in\n    tag_66:\n      dup1\n      iszero\n      tag_67\n      jumpi\n      dup1\n      0x1f\n      lt\n      tag_68\n      jumpi\n      0x0100\n      dup1\n      dup4\n      sload\n      div\n      mul\n      dup4\n      mstore\n      swap2\n      0x20\n      add\n      swap2\n      jump(tag_67)\n    tag_68:\n      dup3\n      add\n      swap2\n      swap1\n      0x00\n      mstore\n      keccak256(0x00, 0x20)\n      swap1\n    tag_69:\n      dup2\n      sload\n      dup2\n      mstore\n      swap1\n      0x01\n      add\n      swap1\n      0x20\n      add\n      dup1\n      dup4\n      gt\n      tag_69\n      jumpi\n      dup3\n      swap1\n      sub\n      0x1f\n      and\n      dup3\n      add\n      swap2\n    tag_67:\n      pop\n      pop\n      pop\n      pop\n      pop\n      dup2\n      mstore\n      pop\n      pop\n      swap1\n      pop\n        /* \"contracts/PRACTICE/Job-Portal.sol\":1976:2148  function getJobDetails(uint _jobID) public view returns (Job memory) {... */\n      swap2\n      swap1\n      pop\n      jump\t// out\n        /* \"contracts/PRACTICE/Job-Portal.sol\":2448:2582  function fetchApplicantRating(uint _applicantID) public view returns (uint) ... */\n    tag_21:\n        /* \"contracts/PRACTICE/Job-Portal.sol\":2518:2522  uint */\n      0x00\n        /* \"contracts/PRACTICE/Job-Portal.sol\":2544:2560  applicantRatings */\n      0x03\n        /* \"contracts/PRACTICE/Job-Portal.sol\":2544:2574  applicantRatings[_applicantID] */\n      0x00\n        /* \"contracts/PRACTICE/Job-Portal.sol\":2561:2573  _applicantID */\n      dup4\n        /* \"contracts/PRACTICE/Job-Portal.sol\":2544:2574  applicantRatings[_applicantID] */\n      dup2\n      mstore\n      0x20\n      add\n      swap1\n      dup2\n      mstore\n      0x20\n      add\n      0x00\n      keccak256\n      0x00\n      swap1\n      sload\n      swap1\n      0x0100\n      exp\n      swap1\n      div\n      0xff\n      and\n        /* \"contracts/PRACTICE/Job-Portal.sol\":2537:2574  return applicantRatings[_applicantID] */\n      0xff\n      and\n      swap1\n      pop\n        /* \"contracts/PRACTICE/Job-Portal.sol\":2448:2582  function fetchApplicantRating(uint _applicantID) public view returns (uint) ... */\n      swap2\n      swap1\n      pop\n      jump\t// out\n        /* \"contracts/PRACTICE/Job-Portal.sol\":1482:1703  function getApplicantDetails(uint _applicantID) public view returns (Applicant memory) {... */\n    tag_26:\n        /* \"contracts/PRACTICE/Job-Portal.sol\":1551:1567  Applicant memory */\n      tag_71\n      tag_72\n      jump\t// in\n    tag_71:\n        /* \"contracts/PRACTICE/Job-Portal.sol\":1604:1614  applicants */\n      0x01\n        /* \"contracts/PRACTICE/Job-Portal.sol\":1604:1621  applicants.length */\n      dup1\n      sload\n      swap1\n      pop\n        /* \"contracts/PRACTICE/Job-Portal.sol\":1589:1601  _applicantID */\n      dup3\n        /* \"contracts/PRACTICE/Job-Portal.sol\":1589:1621  _applicantID < applicants.length */\n      lt\n        /* \"contracts/PRACTICE/Job-Portal.sol\":1581:1653  require(_applicantID < applicants.length, \"Applicant ID does not exist\") */\n      tag_74\n      jumpi\n      mload(0x40)\n      0x08c379a000000000000000000000000000000000000000000000000000000000\n      dup2\n      mstore\n      0x04\n      add\n      tag_75\n      swap1\n      tag_76\n      jump\t// in\n    tag_75:\n      mload(0x40)\n      dup1\n      swap2\n      sub\n      swap1\n      revert\n    tag_74:\n        /* \"contracts/PRACTICE/Job-Portal.sol\":1671:1681  applicants */\n      0x01\n        /* \"contracts/PRACTICE/Job-Portal.sol\":1682:1694  _applicantID */\n      dup3\n        /* \"contracts/PRACTICE/Job-Portal.sol\":1671:1695  applicants[_applicantID] */\n      dup2\n      sload\n      dup2\n      lt\n      tag_77\n      jumpi\n      tag_78\n      tag_62\n      jump\t// in\n    tag_78:\n    tag_77:\n      swap1\n      0x00\n      mstore\n      keccak256(0x00, 0x20)\n      swap1\n      0x06\n      mul\n      add\n        /* \"contracts/PRACTICE/Job-Portal.sol\":1664:1695  return applicants[_applicantID] */\n      mload(0x40)\n      dup1\n      0xc0\n      add\n      0x40\n      mstore\n      swap1\n      dup2\n      0x00\n      dup3\n      add\n      dup1\n      sload\n      tag_80\n      swap1\n      tag_65\n      jump\t// in\n    tag_80:\n      dup1\n      0x1f\n      add\n      0x20\n      dup1\n      swap2\n      div\n      mul\n      0x20\n      add\n      mload(0x40)\n      swap1\n      dup2\n      add\n      0x40\n      mstore\n      dup1\n      swap3\n      swap2\n      swap1\n      dup2\n      dup2\n      mstore\n      0x20\n      add\n      dup3\n      dup1\n      sload\n      tag_81\n      swap1\n      tag_65\n      jump\t// in\n    tag_81:\n      dup1\n      iszero\n      tag_82\n      jumpi\n      dup1\n      0x1f\n      lt\n      tag_83\n      jumpi\n      0x0100\n      dup1\n      dup4\n      sload\n      div\n      mul\n      dup4\n      mstore\n      swap2\n      0x20\n      add\n      swap2\n      jump(tag_82)\n    tag_83:\n      dup3\n      add\n      swap2\n      swap1\n      0x00\n      mstore\n      keccak256(0x00, 0x20)\n      swap1\n    tag_84:\n      dup2\n      sload\n      dup2\n      mstore\n      swap1\n      0x01\n      add\n      swap1\n      0x20\n      add\n      dup1\n      dup4\n      gt\n      tag_84\n      jumpi\n      dup3\n      swap1\n      sub\n      0x1f\n      and\n      dup3\n      add\n      swap2\n    tag_82:\n      pop\n      pop\n      pop\n      pop\n      pop\n      dup2\n      mstore\n      0x20\n      add\n      0x01\n      dup3\n      add\n      dup1\n      sload\n      tag_85\n      swap1\n      tag_65\n      jump\t// in\n    tag_85:\n      dup1\n      0x1f\n      add\n      0x20\n      dup1\n      swap2\n      div\n      mul\n      0x20\n      add\n      mload(0x40)\n      swap1\n      dup2\n      add\n      0x40\n      mstore\n      dup1\n      swap3\n      swap2\n      swap1\n      dup2\n      dup2\n      mstore\n      0x20\n      add\n      dup3\n      dup1\n      sload\n      tag_86\n      swap1\n      tag_65\n      jump\t// in\n    tag_86:\n      dup1\n      iszero\n      tag_87\n      jumpi\n      dup1\n      0x1f\n      lt\n      tag_88\n      jumpi\n      0x0100\n      dup1\n      dup4\n      sload\n      div\n      mul\n      dup4\n      mstore\n      swap2\n      0x20\n      add\n      swap2\n      jump(tag_87)\n    tag_88:\n      dup3\n      add\n      swap2\n      swap1\n      0x00\n      mstore\n      keccak256(0x00, 0x20)\n      swap1\n    tag_89:\n      dup2\n      sload\n      dup2\n      mstore\n      swap1\n      0x01\n      add\n      swap1\n      0x20\n      add\n      dup1\n      dup4\n      gt\n      tag_89\n      jumpi\n      dup3\n      swap1\n      sub\n      0x1f\n      and\n      dup3\n      add\n      swap2\n    tag_87:\n      pop\n      pop\n      pop\n      pop\n      pop\n      dup2\n      mstore\n      0x20\n      add\n      0x02\n      dup3\n      add\n      sload\n      dup2\n      mstore\n      0x20\n      add\n      0x03\n      dup3\n      add\n      sload\n      dup2\n      mstore\n      0x20\n      add\n      0x04\n      dup3\n      add\n      sload\n      dup2\n      mstore\n      0x20\n      add\n      0x05\n      dup3\n      add\n      0x00\n      swap1\n      sload\n      swap1\n      0x0100\n      exp\n      swap1\n      div\n      0xff\n      and\n      iszero\n      iszero\n      iszero\n      iszero\n      dup2\n      mstore\n      pop\n      pop\n      swap1\n      pop\n        /* \"contracts/PRACTICE/Job-Portal.sol\":1482:1703  function getApplicantDetails(uint _applicantID) public view returns (Applicant memory) {... */\n      swap2\n      swap1\n      pop\n      jump\t// out\n        /* \"contracts/PRACTICE/Job-Portal.sol\":1029:1432  function addNewApplicant(string memory _name, string memory _location, uint _age, uint _applicantID, bool _isSkilled) public onlyAdmin {... */\n    tag_32:\n        /* \"contracts/PRACTICE/Job-Portal.sol\":294:299  admin */\n      0x00\n      0x00\n      swap1\n      sload\n      swap1\n      0x0100\n      exp\n      swap1\n      div\n      0xffffffffffffffffffffffffffffffffffffffff\n      and\n        /* \"contracts/PRACTICE/Job-Portal.sol\":280:299  msg.sender == admin */\n      0xffffffffffffffffffffffffffffffffffffffff\n      and\n        /* \"contracts/PRACTICE/Job-Portal.sol\":280:290  msg.sender */\n      caller\n        /* \"contracts/PRACTICE/Job-Portal.sol\":280:299  msg.sender == admin */\n      0xffffffffffffffffffffffffffffffffffffffff\n      and\n      eq\n        /* \"contracts/PRACTICE/Job-Portal.sol\":272:325  require(msg.sender == admin, \"You are not the admin\") */\n      tag_91\n      jumpi\n      mload(0x40)\n      0x08c379a000000000000000000000000000000000000000000000000000000000\n      dup2\n      mstore\n      0x04\n      add\n      tag_92\n      swap1\n      tag_93\n      jump\t// in\n    tag_92:\n      mload(0x40)\n      dup1\n      swap2\n      sub\n      swap1\n      revert\n    tag_91:\n        /* \"contracts/PRACTICE/Job-Portal.sol\":1175:1185  applicants */\n      0x01\n        /* \"contracts/PRACTICE/Job-Portal.sol\":1191:1423  Applicant({... */\n      mload(0x40)\n      dup1\n      0xc0\n      add\n      0x40\n      mstore\n      dup1\n        /* \"contracts/PRACTICE/Job-Portal.sol\":1222:1227  _name */\n      dup8\n        /* \"contracts/PRACTICE/Job-Portal.sol\":1191:1423  Applicant({... */\n      dup2\n      mstore\n      0x20\n      add\n        /* \"contracts/PRACTICE/Job-Portal.sol\":1252:1261  _location */\n      dup7\n        /* \"contracts/PRACTICE/Job-Portal.sol\":1191:1423  Applicant({... */\n      dup2\n      mstore\n      0x20\n      add\n        /* \"contracts/PRACTICE/Job-Portal.sol\":1281:1285  _age */\n      dup6\n        /* \"contracts/PRACTICE/Job-Portal.sol\":1191:1423  Applicant({... */\n      dup2\n      mstore\n      0x20\n      add\n        /* \"contracts/PRACTICE/Job-Portal.sol\":1384:1385  0 */\n      0x00\n        /* \"contracts/PRACTICE/Job-Portal.sol\":1191:1423  Applicant({... */\n      dup2\n      mstore\n      0x20\n      add\n        /* \"contracts/PRACTICE/Job-Portal.sol\":1313:1325  _applicantID */\n      dup5\n        /* \"contracts/PRACTICE/Job-Portal.sol\":1191:1423  Applicant({... */\n      dup2\n      mstore\n      0x20\n      add\n        /* \"contracts/PRACTICE/Job-Portal.sol\":1351:1361  _isSkilled */\n      dup4\n        /* \"contracts/PRACTICE/Job-Portal.sol\":1191:1423  Applicant({... */\n      iszero\n      iszero\n      dup2\n      mstore\n      pop\n        /* \"contracts/PRACTICE/Job-Portal.sol\":1175:1424  applicants.push(Applicant({... */\n      swap1\n      dup1\n      0x01\n      dup2\n      sload\n      add\n      dup1\n      dup3\n      sstore\n      dup1\n      swap2\n      pop\n      pop\n      0x01\n      swap1\n      sub\n      swap1\n      0x00\n      mstore\n      keccak256(0x00, 0x20)\n      swap1\n      0x06\n      mul\n      add\n      0x00\n      swap1\n      swap2\n      swap1\n      swap2\n      swap1\n      swap2\n      pop\n      0x00\n      dup3\n      add\n      mload\n      dup2\n      0x00\n      add\n      swap1\n      dup2\n      tag_96\n      swap2\n      swap1\n      tag_97\n      jump\t// in\n    tag_96:\n      pop\n      0x20\n      dup3\n      add\n      mload\n      dup2\n      0x01\n      add\n      swap1\n      dup2\n      tag_98\n      swap2\n      swap1\n      tag_97\n      jump\t// in\n    tag_98:\n      pop\n      0x40\n      dup3\n      add\n      mload\n      dup2\n      0x02\n      add\n      sstore\n      0x60\n      dup3\n      add\n      mload\n      dup2\n      0x03\n      add\n      sstore\n      0x80\n      dup3\n      add\n      mload\n      dup2\n      0x04\n      add\n      sstore\n      0xa0\n      dup3\n      add\n      mload\n      dup2\n      0x05\n      add\n      exp(0x0100, 0x00)\n      dup2\n      sload\n      dup2\n      0xff\n      mul\n      not\n      and\n      swap1\n      dup4\n      iszero\n      iszero\n      mul\n      or\n      swap1\n      sstore\n      pop\n      pop\n      pop\n        /* \"contracts/PRACTICE/Job-Portal.sol\":1029:1432  function addNewApplicant(string memory _name, string memory _location, uint _age, uint _applicantID, bool _isSkilled) public onlyAdmin {... */\n      pop\n      pop\n      pop\n      pop\n      pop\n      jump\t// out\n        /* \"contracts/PRACTICE/Job-Portal.sol\":2212:2399  function giveRating(uint _applicantID, uint8 _rating) public onlyAdmin {... */\n    tag_36:\n        /* \"contracts/PRACTICE/Job-Portal.sol\":294:299  admin */\n      0x00\n      0x00\n      swap1\n      sload\n      swap1\n      0x0100\n      exp\n      swap1\n      div\n      0xffffffffffffffffffffffffffffffffffffffff\n      and\n        /* \"contracts/PRACTICE/Job-Portal.sol\":280:299  msg.sender == admin */\n      0xffffffffffffffffffffffffffffffffffffffff\n      and\n        /* \"contracts/PRACTICE/Job-Portal.sol\":280:290  msg.sender */\n      caller\n        /* \"contracts/PRACTICE/Job-Portal.sol\":280:299  msg.sender == admin */\n      0xffffffffffffffffffffffffffffffffffffffff\n      and\n      eq\n        /* \"contracts/PRACTICE/Job-Portal.sol\":272:325  require(msg.sender == admin, \"You are not the admin\") */\n      tag_100\n      jumpi\n      mload(0x40)\n      0x08c379a000000000000000000000000000000000000000000000000000000000\n      dup2\n      mstore\n      0x04\n      add\n      tag_101\n      swap1\n      tag_93\n      jump\t// in\n    tag_101:\n      mload(0x40)\n      dup1\n      swap2\n      sub\n      swap1\n      revert\n    tag_100:\n        /* \"contracts/PRACTICE/Job-Portal.sol\":2313:2315  10 */\n      0x0a\n        /* \"contracts/PRACTICE/Job-Portal.sol\":2302:2309  _rating */\n      dup2\n        /* \"contracts/PRACTICE/Job-Portal.sol\":2302:2315  _rating <= 10 */\n      0xff\n      and\n      gt\n      iszero\n        /* \"contracts/PRACTICE/Job-Portal.sol\":2294:2340  require(_rating <= 10, \"Maximum rating is 10\") */\n      tag_103\n      jumpi\n      mload(0x40)\n      0x08c379a000000000000000000000000000000000000000000000000000000000\n      dup2\n      mstore\n      0x04\n      add\n      tag_104\n      swap1\n      tag_105\n      jump\t// in\n    tag_104:\n      mload(0x40)\n      dup1\n      swap2\n      sub\n      swap1\n      revert\n    tag_103:\n        /* \"contracts/PRACTICE/Job-Portal.sol\":2384:2391  _rating */\n      dup1\n        /* \"contracts/PRACTICE/Job-Portal.sol\":2351:2367  applicantRatings */\n      0x03\n        /* \"contracts/PRACTICE/Job-Portal.sol\":2351:2381  applicantRatings[_applicantID] */\n      0x00\n        /* \"contracts/PRACTICE/Job-Portal.sol\":2368:2380  _applicantID */\n      dup5\n        /* \"contracts/PRACTICE/Job-Portal.sol\":2351:2381  applicantRatings[_applicantID] */\n      dup2\n      mstore\n      0x20\n      add\n      swap1\n      dup2\n      mstore\n      0x20\n      add\n      0x00\n      keccak256\n      0x00\n        /* \"contracts/PRACTICE/Job-Portal.sol\":2351:2391  applicantRatings[_applicantID] = _rating */\n      0x0100\n      exp\n      dup2\n      sload\n      dup2\n      0xff\n      mul\n      not\n      and\n      swap1\n      dup4\n      0xff\n      and\n      mul\n      or\n      swap1\n      sstore\n      pop\n        /* \"contracts/PRACTICE/Job-Portal.sol\":2212:2399  function giveRating(uint _applicantID, uint8 _rating) public onlyAdmin {... */\n      pop\n      pop\n      jump\t// out\n        /* \"contracts/PRACTICE/Job-Portal.sol\":3051:3443  function getApplicantType(uint _applicantID) public view returns (string memory) {... */\n    tag_39:\n        /* \"contracts/PRACTICE/Job-Portal.sol\":3117:3130  string memory */\n      0x60\n        /* \"contracts/PRACTICE/Job-Portal.sol\":3143:3155  uint8 rating */\n      0x00\n        /* \"contracts/PRACTICE/Job-Portal.sol\":3158:3174  applicantRatings */\n      0x03\n        /* \"contracts/PRACTICE/Job-Portal.sol\":3158:3188  applicantRatings[_applicantID] */\n      0x00\n        /* \"contracts/PRACTICE/Job-Portal.sol\":3175:3187  _applicantID */\n      dup5\n        /* \"contracts/PRACTICE/Job-Portal.sol\":3158:3188  applicantRatings[_applicantID] */\n      dup2\n      mstore\n      0x20\n      add\n      swap1\n      dup2\n      mstore\n      0x20\n      add\n      0x00\n      keccak256\n      0x00\n      swap1\n      sload\n      swap1\n      0x0100\n      exp\n      swap1\n      div\n      0xff\n      and\n        /* \"contracts/PRACTICE/Job-Portal.sol\":3143:3188  uint8 rating = applicantRatings[_applicantID] */\n      swap1\n      pop\n        /* \"contracts/PRACTICE/Job-Portal.sol\":3213:3214  8 */\n      0x08\n        /* \"contracts/PRACTICE/Job-Portal.sol\":3203:3209  rating */\n      dup2\n        /* \"contracts/PRACTICE/Job-Portal.sol\":3203:3214  rating >= 8 */\n      0xff\n      and\n      lt\n        /* \"contracts/PRACTICE/Job-Portal.sol\":3199:3436  if (rating >= 8) {... */\n      tag_107\n      jumpi\n        /* \"contracts/PRACTICE/Job-Portal.sol\":3231:3243  return \"Pro\" */\n      mload(0x40)\n      dup1\n      0x40\n      add\n      0x40\n      mstore\n      dup1\n      0x03\n      dup2\n      mstore\n      0x20\n      add\n      0x50726f0000000000000000000000000000000000000000000000000000000000\n      dup2\n      mstore\n      pop\n      swap2\n      pop\n      pop\n      jump(tag_106)\n        /* \"contracts/PRACTICE/Job-Portal.sol\":3199:3436  if (rating >= 8) {... */\n    tag_107:\n        /* \"contracts/PRACTICE/Job-Portal.sol\":3275:3276  6 */\n      0x06\n        /* \"contracts/PRACTICE/Job-Portal.sol\":3265:3271  rating */\n      dup2\n        /* \"contracts/PRACTICE/Job-Portal.sol\":3265:3276  rating >= 6 */\n      0xff\n      and\n      lt\n        /* \"contracts/PRACTICE/Job-Portal.sol\":3261:3436  if (rating >= 6) {... */\n      tag_109\n      jumpi\n        /* \"contracts/PRACTICE/Job-Portal.sol\":3293:3313  return \"Experienced\" */\n      mload(0x40)\n      dup1\n      0x40\n      add\n      0x40\n      mstore\n      dup1\n      0x0b\n      dup2\n      mstore\n      0x20\n      add\n      0x457870657269656e636564000000000000000000000000000000000000000000\n      dup2\n      mstore\n      pop\n      swap2\n      pop\n      pop\n      jump(tag_106)\n        /* \"contracts/PRACTICE/Job-Portal.sol\":3261:3436  if (rating >= 6) {... */\n    tag_109:\n        /* \"contracts/PRACTICE/Job-Portal.sol\":3345:3346  4 */\n      0x04\n        /* \"contracts/PRACTICE/Job-Portal.sol\":3335:3341  rating */\n      dup2\n        /* \"contracts/PRACTICE/Job-Portal.sol\":3335:3346  rating >= 4 */\n      0xff\n      and\n      lt\n        /* \"contracts/PRACTICE/Job-Portal.sol\":3331:3436  if (rating >= 4) {... */\n      tag_111\n      jumpi\n        /* \"contracts/PRACTICE/Job-Portal.sol\":3363:3376  return \"Good\" */\n      mload(0x40)\n      dup1\n      0x40\n      add\n      0x40\n      mstore\n      dup1\n      0x04\n      dup2\n      mstore\n      0x20\n      add\n      0x476f6f6400000000000000000000000000000000000000000000000000000000\n      dup2\n      mstore\n      pop\n      swap2\n      pop\n      pop\n      jump(tag_106)\n        /* \"contracts/PRACTICE/Job-Portal.sol\":3331:3436  if (rating >= 4) {... */\n    tag_111:\n        /* \"contracts/PRACTICE/Job-Portal.sol\":3409:3424  return \"Newbie\" */\n      mload(0x40)\n      dup1\n      0x40\n      add\n      0x40\n      mstore\n      dup1\n      0x06\n      dup2\n      mstore\n      0x20\n      add\n      0x4e65776269650000000000000000000000000000000000000000000000000000\n      dup2\n      mstore\n      pop\n      swap2\n      pop\n      pop\n        /* \"contracts/PRACTICE/Job-Portal.sol\":3051:3443  function getApplicantType(uint _applicantID) public view returns (string memory) {... */\n    tag_106:\n      swap2\n      swap1\n      pop\n      jump\t// out\n        /* \"contracts/PRACTICE/Job-Portal.sol\":1752:1934  function addNewJob(uint _jobID, string memory _jobTitle) public onlyAdmin {... */\n    tag_45:\n        /* \"contracts/PRACTICE/Job-Portal.sol\":294:299  admin */\n      0x00\n      0x00\n      swap1\n      sload\n      swap1\n      0x0100\n      exp\n      swap1\n      div\n      0xffffffffffffffffffffffffffffffffffffffff\n      and\n        /* \"contracts/PRACTICE/Job-Portal.sol\":280:299  msg.sender == admin */\n      0xffffffffffffffffffffffffffffffffffffffff\n      and\n        /* \"contracts/PRACTICE/Job-Portal.sol\":280:290  msg.sender */\n      caller\n        /* \"contracts/PRACTICE/Job-Portal.sol\":280:299  msg.sender == admin */\n      0xffffffffffffffffffffffffffffffffffffffff\n      and\n      eq\n        /* \"contracts/PRACTICE/Job-Portal.sol\":272:325  require(msg.sender == admin, \"You are not the admin\") */\n      tag_114\n      jumpi\n      mload(0x40)\n      0x08c379a000000000000000000000000000000000000000000000000000000000\n      dup2\n      mstore\n      0x04\n      add\n      tag_115\n      swap1\n      tag_93\n      jump\t// in\n    tag_115:\n      mload(0x40)\n      dup1\n      swap2\n      sub\n      swap1\n      revert\n    tag_114:\n        /* \"contracts/PRACTICE/Job-Portal.sol\":1837:1841  jobs */\n      0x02\n        /* \"contracts/PRACTICE/Job-Portal.sol\":1847:1925  Job({... */\n      mload(0x40)\n      dup1\n      0x40\n      add\n      0x40\n      mstore\n      dup1\n        /* \"contracts/PRACTICE/Job-Portal.sol\":1873:1879  _jobID */\n      dup5\n        /* \"contracts/PRACTICE/Job-Portal.sol\":1847:1925  Job({... */\n      dup2\n      mstore\n      0x20\n      add\n        /* \"contracts/PRACTICE/Job-Portal.sol\":1904:1913  _jobTitle */\n      dup4\n        /* \"contracts/PRACTICE/Job-Portal.sol\":1847:1925  Job({... */\n      dup2\n      mstore\n      pop\n        /* \"contracts/PRACTICE/Job-Portal.sol\":1837:1926  jobs.push(Job({... */\n      swap1\n      dup1\n      0x01\n      dup2\n      sload\n      add\n      dup1\n      dup3\n      sstore\n      dup1\n      swap2\n      pop\n      pop\n      0x01\n      swap1\n      sub\n      swap1\n      0x00\n      mstore\n      keccak256(0x00, 0x20)\n      swap1\n      0x02\n      mul\n      add\n      0x00\n      swap1\n      swap2\n      swap1\n      swap2\n      swap1\n      swap2\n      pop\n      0x00\n      dup3\n      add\n      mload\n      dup2\n      0x00\n      add\n      sstore\n      0x20\n      dup3\n      add\n      mload\n      dup2\n      0x01\n      add\n      swap1\n      dup2\n      tag_118\n      swap2\n      swap1\n      tag_97\n      jump\t// in\n    tag_118:\n      pop\n      pop\n      pop\n        /* \"contracts/PRACTICE/Job-Portal.sol\":1752:1934  function addNewJob(uint _jobID, string memory _jobTitle) public onlyAdmin {... */\n      pop\n      pop\n      jump\t// out\n        /* \"contracts/PRACTICE/Job-Portal.sol\":2639:2906  function applyForJob(uint _applicantID, uint _jobID, string memory _additionalInfo) public {... */\n    tag_49:\n        /* \"contracts/PRACTICE/Job-Portal.sol\":2741:2753  applications */\n      0x04\n        /* \"contracts/PRACTICE/Job-Portal.sol\":2759:2897  Application({... */\n      mload(0x40)\n      dup1\n      0x60\n      add\n      0x40\n      mstore\n      dup1\n        /* \"contracts/PRACTICE/Job-Portal.sol\":2799:2811  _applicantID */\n      dup6\n        /* \"contracts/PRACTICE/Job-Portal.sol\":2759:2897  Application({... */\n      dup2\n      mstore\n      0x20\n      add\n        /* \"contracts/PRACTICE/Job-Portal.sol\":2833:2839  _jobID */\n      dup5\n        /* \"contracts/PRACTICE/Job-Portal.sol\":2759:2897  Application({... */\n      dup2\n      mstore\n      0x20\n      add\n        /* \"contracts/PRACTICE/Job-Portal.sol\":2870:2885  _additionalInfo */\n      dup4\n        /* \"contracts/PRACTICE/Job-Portal.sol\":2759:2897  Application({... */\n      dup2\n      mstore\n      pop\n        /* \"contracts/PRACTICE/Job-Portal.sol\":2741:2898  applications.push(Application({... */\n      swap1\n      dup1\n      0x01\n      dup2\n      sload\n      add\n      dup1\n      dup3\n      sstore\n      dup1\n      swap2\n      pop\n      pop\n      0x01\n      swap1\n      sub\n      swap1\n      0x00\n      mstore\n      keccak256(0x00, 0x20)\n      swap1\n      0x03\n      mul\n      add\n      0x00\n      swap1\n      swap2\n      swap1\n      swap2\n      swap1\n      swap2\n      pop\n      0x00\n      dup3\n      add\n      mload\n      dup2\n      0x00\n      add\n      sstore\n      0x20\n      dup3\n      add\n      mload\n      dup2\n      0x01\n      add\n      sstore\n      0x40\n      dup3\n      add\n      mload\n      dup2\n      0x02\n      add\n      swap1\n      dup2\n      tag_121\n      swap2\n      swap1\n      tag_97\n      jump\t// in\n    tag_121:\n      pop\n      pop\n      pop\n        /* \"contracts/PRACTICE/Job-Portal.sol\":2639:2906  function applyForJob(uint _applicantID, uint _jobID, string memory _additionalInfo) public {... */\n      pop\n      pop\n      pop\n      jump\t// out\n        /* \"contracts/PRACTICE/Job-Portal.sol\":127:147  address public admin */\n    tag_51:\n      0x00\n      0x00\n      swap1\n      sload\n      swap1\n      0x0100\n      exp\n      swap1\n      div\n      0xffffffffffffffffffffffffffffffffffffffff\n      and\n      dup2\n      jump\t// out\n    tag_55:\n      mload(0x40)\n      dup1\n      0x40\n      add\n      0x40\n      mstore\n      dup1\n      0x00\n      dup2\n      mstore\n      0x20\n      add\n      0x60\n      dup2\n      mstore\n      pop\n      swap1\n      jump\t// out\n    tag_72:\n      mload(0x40)\n      dup1\n      0xc0\n      add\n      0x40\n      mstore\n      dup1\n      0x60\n      dup2\n      mstore\n      0x20\n      add\n      0x60\n      dup2\n      mstore\n      0x20\n      add\n      0x00\n      dup2\n      mstore\n      0x20\n      add\n      0x00\n      dup2\n      mstore\n      0x20\n      add\n      0x00\n      dup2\n      mstore\n      0x20\n      add\n      iszero(iszero(0x00))\n      dup2\n      mstore\n      pop\n      swap1\n      jump\t// out\n        /* \"#utility.yul\":7:82   */\n    tag_122:\n        /* \"#utility.yul\":40:46   */\n      0x00\n        /* \"#utility.yul\":73:75   */\n      0x40\n        /* \"#utility.yul\":67:76   */\n      mload\n        /* \"#utility.yul\":57:76   */\n      swap1\n      pop\n        /* \"#utility.yul\":7:82   */\n      swap1\n      jump\t// out\n        /* \"#utility.yul\":88:205   */\n    tag_123:\n        /* \"#utility.yul\":197:198   */\n      0x00\n        /* \"#utility.yul\":194:195   */\n      0x00\n        /* \"#utility.yul\":187:199   */\n      revert\n        /* \"#utility.yul\":211:328   */\n    tag_124:\n        /* \"#utility.yul\":320:321   */\n      0x00\n        /* \"#utility.yul\":317:318   */\n      0x00\n        /* \"#utility.yul\":310:322   */\n      revert\n        /* \"#utility.yul\":334:411   */\n    tag_125:\n        /* \"#utility.yul\":371:378   */\n      0x00\n        /* \"#utility.yul\":400:405   */\n      dup2\n        /* \"#utility.yul\":389:405   */\n      swap1\n      pop\n        /* \"#utility.yul\":334:411   */\n      swap2\n      swap1\n      pop\n      jump\t// out\n        /* \"#utility.yul\":417:539   */\n    tag_126:\n        /* \"#utility.yul\":490:514   */\n      tag_188\n        /* \"#utility.yul\":508:513   */\n      dup2\n        /* \"#utility.yul\":490:514   */\n      tag_125\n      jump\t// in\n    tag_188:\n        /* \"#utility.yul\":483:488   */\n      dup2\n        /* \"#utility.yul\":480:515   */\n      eq\n        /* \"#utility.yul\":470:533   */\n      tag_189\n      jumpi\n        /* \"#utility.yul\":529:530   */\n      0x00\n        /* \"#utility.yul\":526:527   */\n      0x00\n        /* \"#utility.yul\":519:531   */\n      revert\n        /* \"#utility.yul\":470:533   */\n    tag_189:\n        /* \"#utility.yul\":417:539   */\n      pop\n      jump\t// out\n        /* \"#utility.yul\":545:684   */\n    tag_127:\n        /* \"#utility.yul\":591:596   */\n      0x00\n        /* \"#utility.yul\":629:635   */\n      dup2\n        /* \"#utility.yul\":616:636   */\n      calldataload\n        /* \"#utility.yul\":607:636   */\n      swap1\n      pop\n        /* \"#utility.yul\":645:678   */\n      tag_191\n        /* \"#utility.yul\":672:677   */\n      dup2\n        /* \"#utility.yul\":645:678   */\n      tag_126\n      jump\t// in\n    tag_191:\n        /* \"#utility.yul\":545:684   */\n      swap3\n      swap2\n      pop\n      pop\n      jump\t// out\n        /* \"#utility.yul\":690:1019   */\n    tag_15:\n        /* \"#utility.yul\":749:755   */\n      0x00\n        /* \"#utility.yul\":798:800   */\n      0x20\n        /* \"#utility.yul\":786:795   */\n      dup3\n        /* \"#utility.yul\":777:784   */\n      dup5\n        /* \"#utility.yul\":773:796   */\n      sub\n        /* \"#utility.yul\":769:801   */\n      slt\n        /* \"#utility.yul\":766:885   */\n      iszero\n      tag_193\n      jumpi\n        /* \"#utility.yul\":804:883   */\n      tag_194\n      tag_123\n      jump\t// in\n    tag_194:\n        /* \"#utility.yul\":766:885   */\n    tag_193:\n        /* \"#utility.yul\":924:925   */\n      0x00\n        /* \"#utility.yul\":949:1002   */\n      tag_195\n        /* \"#utility.yul\":994:1001   */\n      dup5\n        /* \"#utility.yul\":985:991   */\n      dup3\n        /* \"#utility.yul\":974:983   */\n      dup6\n        /* \"#utility.yul\":970:992   */\n      add\n        /* \"#utility.yul\":949:1002   */\n      tag_127\n      jump\t// in\n    tag_195:\n        /* \"#utility.yul\":939:1002   */\n      swap2\n      pop\n        /* \"#utility.yul\":895:1012   */\n      pop\n        /* \"#utility.yul\":690:1019   */\n      swap3\n      swap2\n      pop\n      pop\n      jump\t// out\n        /* \"#utility.yul\":1025:1133   */\n    tag_128:\n        /* \"#utility.yul\":1102:1126   */\n      tag_197\n        /* \"#utility.yul\":1120:1125   */\n      dup2\n        /* \"#utility.yul\":1102:1126   */\n      tag_125\n      jump\t// in\n    tag_197:\n        /* \"#utility.yul\":1097:1100   */\n      dup3\n        /* \"#utility.yul\":1090:1127   */\n      mstore\n        /* \"#utility.yul\":1025:1133   */\n      pop\n      pop\n      jump\t// out\n        /* \"#utility.yul\":1139:1238   */\n    tag_129:\n        /* \"#utility.yul\":1191:1197   */\n      0x00\n        /* \"#utility.yul\":1225:1230   */\n      dup2\n        /* \"#utility.yul\":1219:1231   */\n      mload\n        /* \"#utility.yul\":1209:1231   */\n      swap1\n      pop\n        /* \"#utility.yul\":1139:1238   */\n      swap2\n      swap1\n      pop\n      jump\t// out\n        /* \"#utility.yul\":1244:1403   */\n    tag_130:\n        /* \"#utility.yul\":1318:1329   */\n      0x00\n        /* \"#utility.yul\":1352:1358   */\n      dup3\n        /* \"#utility.yul\":1347:1350   */\n      dup3\n        /* \"#utility.yul\":1340:1359   */\n      mstore\n        /* \"#utility.yul\":1392:1396   */\n      0x20\n        /* \"#utility.yul\":1387:1390   */\n      dup3\n        /* \"#utility.yul\":1383:1397   */\n      add\n        /* \"#utility.yul\":1368:1397   */\n      swap1\n      pop\n        /* \"#utility.yul\":1244:1403   */\n      swap3\n      swap2\n      pop\n      pop\n      jump\t// out\n        /* \"#utility.yul\":1409:1548   */\n    tag_131:\n        /* \"#utility.yul\":1498:1504   */\n      dup3\n        /* \"#utility.yul\":1493:1496   */\n      dup2\n        /* \"#utility.yul\":1488:1491   */\n      dup4\n        /* \"#utility.yul\":1482:1505   */\n      mcopy\n        /* \"#utility.yul\":1539:1540   */\n      0x00\n        /* \"#utility.yul\":1530:1536   */\n      dup4\n        /* \"#utility.yul\":1525:1528   */\n      dup4\n        /* \"#utility.yul\":1521:1537   */\n      add\n        /* \"#utility.yul\":1514:1541   */\n      mstore\n        /* \"#utility.yul\":1409:1548   */\n      pop\n      pop\n      pop\n      jump\t// out\n        /* \"#utility.yul\":1554:1656   */\n    tag_132:\n        /* \"#utility.yul\":1595:1601   */\n      0x00\n        /* \"#utility.yul\":1646:1648   */\n      0x1f\n        /* \"#utility.yul\":1642:1649   */\n      not\n        /* \"#utility.yul\":1637:1639   */\n      0x1f\n        /* \"#utility.yul\":1630:1635   */\n      dup4\n        /* \"#utility.yul\":1626:1640   */\n      add\n        /* \"#utility.yul\":1622:1650   */\n      and\n        /* \"#utility.yul\":1612:1650   */\n      swap1\n      pop\n        /* \"#utility.yul\":1554:1656   */\n      swap2\n      swap1\n      pop\n      jump\t// out\n        /* \"#utility.yul\":1662:2019   */\n    tag_133:\n        /* \"#utility.yul\":1740:1743   */\n      0x00\n        /* \"#utility.yul\":1768:1807   */\n      tag_203\n        /* \"#utility.yul\":1801:1806   */\n      dup3\n        /* \"#utility.yul\":1768:1807   */\n      tag_129\n      jump\t// in\n    tag_203:\n        /* \"#utility.yul\":1823:1884   */\n      tag_204\n        /* \"#utility.yul\":1877:1883   */\n      dup2\n        /* \"#utility.yul\":1872:1875   */\n      dup6\n        /* \"#utility.yul\":1823:1884   */\n      tag_130\n      jump\t// in\n    tag_204:\n        /* \"#utility.yul\":1816:1884   */\n      swap4\n      pop\n        /* \"#utility.yul\":1893:1958   */\n      tag_205\n        /* \"#utility.yul\":1951:1957   */\n      dup2\n        /* \"#utility.yul\":1946:1949   */\n      dup6\n        /* \"#utility.yul\":1939:1943   */\n      0x20\n        /* \"#utility.yul\":1932:1937   */\n      dup7\n        /* \"#utility.yul\":1928:1944   */\n      add\n        /* \"#utility.yul\":1893:1958   */\n      tag_131\n      jump\t// in\n    tag_205:\n        /* \"#utility.yul\":1983:2012   */\n      tag_206\n        /* \"#utility.yul\":2005:2011   */\n      dup2\n        /* \"#utility.yul\":1983:2012   */\n      tag_132\n      jump\t// in\n    tag_206:\n        /* \"#utility.yul\":1978:1981   */\n      dup5\n        /* \"#utility.yul\":1974:2013   */\n      add\n        /* \"#utility.yul\":1967:2013   */\n      swap2\n      pop\n        /* \"#utility.yul\":1744:2019   */\n      pop\n        /* \"#utility.yul\":1662:2019   */\n      swap3\n      swap2\n      pop\n      pop\n      jump\t// out\n        /* \"#utility.yul\":2077:2676   */\n    tag_134:\n        /* \"#utility.yul\":2184:2187   */\n      0x00\n        /* \"#utility.yul\":2220:2224   */\n      0x40\n        /* \"#utility.yul\":2215:2218   */\n      dup4\n        /* \"#utility.yul\":2211:2225   */\n      add\n        /* \"#utility.yul\":2308:2312   */\n      0x00\n        /* \"#utility.yul\":2301:2306   */\n      dup4\n        /* \"#utility.yul\":2297:2313   */\n      add\n        /* \"#utility.yul\":2291:2314   */\n      mload\n        /* \"#utility.yul\":2327:2390   */\n      tag_208\n        /* \"#utility.yul\":2384:2388   */\n      0x00\n        /* \"#utility.yul\":2379:2382   */\n      dup7\n        /* \"#utility.yul\":2375:2389   */\n      add\n        /* \"#utility.yul\":2361:2373   */\n      dup3\n        /* \"#utility.yul\":2327:2390   */\n      tag_128\n      jump\t// in\n    tag_208:\n        /* \"#utility.yul\":2235:2400   */\n      pop\n        /* \"#utility.yul\":2486:2490   */\n      0x20\n        /* \"#utility.yul\":2479:2484   */\n      dup4\n        /* \"#utility.yul\":2475:2491   */\n      add\n        /* \"#utility.yul\":2469:2492   */\n      mload\n        /* \"#utility.yul\":2539:2542   */\n      dup5\n        /* \"#utility.yul\":2533:2537   */\n      dup3\n        /* \"#utility.yul\":2529:2543   */\n      sub\n        /* \"#utility.yul\":2522:2526   */\n      0x20\n        /* \"#utility.yul\":2517:2520   */\n      dup7\n        /* \"#utility.yul\":2513:2527   */\n      add\n        /* \"#utility.yul\":2506:2544   */\n      mstore\n        /* \"#utility.yul\":2565:2638   */\n      tag_209\n        /* \"#utility.yul\":2633:2637   */\n      dup3\n        /* \"#utility.yul\":2619:2631   */\n      dup3\n        /* \"#utility.yul\":2565:2638   */\n      tag_133\n      jump\t// in\n    tag_209:\n        /* \"#utility.yul\":2557:2638   */\n      swap2\n      pop\n        /* \"#utility.yul\":2410:2649   */\n      pop\n        /* \"#utility.yul\":2666:2670   */\n      dup1\n        /* \"#utility.yul\":2659:2670   */\n      swap2\n      pop\n        /* \"#utility.yul\":2189:2676   */\n      pop\n        /* \"#utility.yul\":2077:2676   */\n      swap3\n      swap2\n      pop\n      pop\n      jump\t// out\n        /* \"#utility.yul\":2682:3031   */\n    tag_18:\n        /* \"#utility.yul\":2813:2817   */\n      0x00\n        /* \"#utility.yul\":2851:2853   */\n      0x20\n        /* \"#utility.yul\":2840:2849   */\n      dup3\n        /* \"#utility.yul\":2836:2854   */\n      add\n        /* \"#utility.yul\":2828:2854   */\n      swap1\n      pop\n        /* \"#utility.yul\":2900:2909   */\n      dup2\n        /* \"#utility.yul\":2894:2898   */\n      dup2\n        /* \"#utility.yul\":2890:2910   */\n      sub\n        /* \"#utility.yul\":2886:2887   */\n      0x00\n        /* \"#utility.yul\":2875:2884   */\n      dup4\n        /* \"#utility.yul\":2871:2888   */\n      add\n        /* \"#utility.yul\":2864:2911   */\n      mstore\n        /* \"#utility.yul\":2928:3024   */\n      tag_211\n        /* \"#utility.yul\":3019:3023   */\n      dup2\n        /* \"#utility.yul\":3010:3016   */\n      dup5\n        /* \"#utility.yul\":2928:3024   */\n      tag_134\n      jump\t// in\n    tag_211:\n        /* \"#utility.yul\":2920:3024   */\n      swap1\n      pop\n        /* \"#utility.yul\":2682:3031   */\n      swap3\n      swap2\n      pop\n      pop\n      jump\t// out\n        /* \"#utility.yul\":3037:3155   */\n    tag_135:\n        /* \"#utility.yul\":3124:3148   */\n      tag_213\n        /* \"#utility.yul\":3142:3147   */\n      dup2\n        /* \"#utility.yul\":3124:3148   */\n      tag_125\n      jump\t// in\n    tag_213:\n        /* \"#utility.yul\":3119:3122   */\n      dup3\n        /* \"#utility.yul\":3112:3149   */\n      mstore\n        /* \"#utility.yul\":3037:3155   */\n      pop\n      pop\n      jump\t// out\n        /* \"#utility.yul\":3161:3383   */\n    tag_23:\n        /* \"#utility.yul\":3254:3258   */\n      0x00\n        /* \"#utility.yul\":3292:3294   */\n      0x20\n        /* \"#utility.yul\":3281:3290   */\n      dup3\n        /* \"#utility.yul\":3277:3295   */\n      add\n        /* \"#utility.yul\":3269:3295   */\n      swap1\n      pop\n        /* \"#utility.yul\":3305:3376   */\n      tag_215\n        /* \"#utility.yul\":3373:3374   */\n      0x00\n        /* \"#utility.yul\":3362:3371   */\n      dup4\n        /* \"#utility.yul\":3358:3375   */\n      add\n        /* \"#utility.yul\":3349:3355   */\n      dup5\n        /* \"#utility.yul\":3305:3376   */\n      tag_135\n      jump\t// in\n    tag_215:\n        /* \"#utility.yul\":3161:3383   */\n      swap3\n      swap2\n      pop\n      pop\n      jump\t// out\n        /* \"#utility.yul\":3389:3479   */\n    tag_136:\n        /* \"#utility.yul\":3423:3430   */\n      0x00\n        /* \"#utility.yul\":3466:3471   */\n      dup2\n        /* \"#utility.yul\":3459:3472   */\n      iszero\n        /* \"#utility.yul\":3452:3473   */\n      iszero\n        /* \"#utility.yul\":3441:3473   */\n      swap1\n      pop\n        /* \"#utility.yul\":3389:3479   */\n      swap2\n      swap1\n      pop\n      jump\t// out\n        /* \"#utility.yul\":3485:3584   */\n    tag_137:\n        /* \"#utility.yul\":3556:3577   */\n      tag_218\n        /* \"#utility.yul\":3571:3576   */\n      dup2\n        /* \"#utility.yul\":3556:3577   */\n      tag_136\n      jump\t// in\n    tag_218:\n        /* \"#utility.yul\":3551:3554   */\n      dup3\n        /* \"#utility.yul\":3544:3578   */\n      mstore\n        /* \"#utility.yul\":3485:3584   */\n      pop\n      pop\n      jump\t// out\n        /* \"#utility.yul\":3654:5038   */\n    tag_138:\n        /* \"#utility.yul\":3773:3776   */\n      0x00\n        /* \"#utility.yul\":3809:3813   */\n      0xc0\n        /* \"#utility.yul\":3804:3807   */\n      dup4\n        /* \"#utility.yul\":3800:3814   */\n      add\n        /* \"#utility.yul\":3896:3900   */\n      0x00\n        /* \"#utility.yul\":3889:3894   */\n      dup4\n        /* \"#utility.yul\":3885:3901   */\n      add\n        /* \"#utility.yul\":3879:3902   */\n      mload\n        /* \"#utility.yul\":3949:3952   */\n      dup5\n        /* \"#utility.yul\":3943:3947   */\n      dup3\n        /* \"#utility.yul\":3939:3953   */\n      sub\n        /* \"#utility.yul\":3932:3936   */\n      0x00\n        /* \"#utility.yul\":3927:3930   */\n      dup7\n        /* \"#utility.yul\":3923:3937   */\n      add\n        /* \"#utility.yul\":3916:3954   */\n      mstore\n        /* \"#utility.yul\":3975:4048   */\n      tag_220\n        /* \"#utility.yul\":4043:4047   */\n      dup3\n        /* \"#utility.yul\":4029:4041   */\n      dup3\n        /* \"#utility.yul\":3975:4048   */\n      tag_133\n      jump\t// in\n    tag_220:\n        /* \"#utility.yul\":3967:4048   */\n      swap2\n      pop\n        /* \"#utility.yul\":3824:4059   */\n      pop\n        /* \"#utility.yul\":4145:4149   */\n      0x20\n        /* \"#utility.yul\":4138:4143   */\n      dup4\n        /* \"#utility.yul\":4134:4150   */\n      add\n        /* \"#utility.yul\":4128:4151   */\n      mload\n        /* \"#utility.yul\":4198:4201   */\n      dup5\n        /* \"#utility.yul\":4192:4196   */\n      dup3\n        /* \"#utility.yul\":4188:4202   */\n      sub\n        /* \"#utility.yul\":4181:4185   */\n      0x20\n        /* \"#utility.yul\":4176:4179   */\n      dup7\n        /* \"#utility.yul\":4172:4186   */\n      add\n        /* \"#utility.yul\":4165:4203   */\n      mstore\n        /* \"#utility.yul\":4224:4297   */\n      tag_221\n        /* \"#utility.yul\":4292:4296   */\n      dup3\n        /* \"#utility.yul\":4278:4290   */\n      dup3\n        /* \"#utility.yul\":4224:4297   */\n      tag_133\n      jump\t// in\n    tag_221:\n        /* \"#utility.yul\":4216:4297   */\n      swap2\n      pop\n        /* \"#utility.yul\":4069:4308   */\n      pop\n        /* \"#utility.yul\":4389:4393   */\n      0x40\n        /* \"#utility.yul\":4382:4387   */\n      dup4\n        /* \"#utility.yul\":4378:4394   */\n      add\n        /* \"#utility.yul\":4372:4395   */\n      mload\n        /* \"#utility.yul\":4408:4471   */\n      tag_222\n        /* \"#utility.yul\":4465:4469   */\n      0x40\n        /* \"#utility.yul\":4460:4463   */\n      dup7\n        /* \"#utility.yul\":4456:4470   */\n      add\n        /* \"#utility.yul\":4442:4454   */\n      dup3\n        /* \"#utility.yul\":4408:4471   */\n      tag_128\n      jump\t// in\n    tag_222:\n        /* \"#utility.yul\":4318:4481   */\n      pop\n        /* \"#utility.yul\":4565:4569   */\n      0x60\n        /* \"#utility.yul\":4558:4563   */\n      dup4\n        /* \"#utility.yul\":4554:4570   */\n      add\n        /* \"#utility.yul\":4548:4571   */\n      mload\n        /* \"#utility.yul\":4584:4647   */\n      tag_223\n        /* \"#utility.yul\":4641:4645   */\n      0x60\n        /* \"#utility.yul\":4636:4639   */\n      dup7\n        /* \"#utility.yul\":4632:4646   */\n      add\n        /* \"#utility.yul\":4618:4630   */\n      dup3\n        /* \"#utility.yul\":4584:4647   */\n      tag_128\n      jump\t// in\n    tag_223:\n        /* \"#utility.yul\":4491:4657   */\n      pop\n        /* \"#utility.yul\":4746:4750   */\n      0x80\n        /* \"#utility.yul\":4739:4744   */\n      dup4\n        /* \"#utility.yul\":4735:4751   */\n      add\n        /* \"#utility.yul\":4729:4752   */\n      mload\n        /* \"#utility.yul\":4765:4828   */\n      tag_224\n        /* \"#utility.yul\":4822:4826   */\n      0x80\n        /* \"#utility.yul\":4817:4820   */\n      dup7\n        /* \"#utility.yul\":4813:4827   */\n      add\n        /* \"#utility.yul\":4799:4811   */\n      dup3\n        /* \"#utility.yul\":4765:4828   */\n      tag_128\n      jump\t// in\n    tag_224:\n        /* \"#utility.yul\":4667:4838   */\n      pop\n        /* \"#utility.yul\":4925:4929   */\n      0xa0\n        /* \"#utility.yul\":4918:4923   */\n      dup4\n        /* \"#utility.yul\":4914:4930   */\n      add\n        /* \"#utility.yul\":4908:4931   */\n      mload\n        /* \"#utility.yul\":4944:5001   */\n      tag_225\n        /* \"#utility.yul\":4995:4999   */\n      0xa0\n        /* \"#utility.yul\":4990:4993   */\n      dup7\n        /* \"#utility.yul\":4986:5000   */\n      add\n        /* \"#utility.yul\":4972:4984   */\n      dup3\n        /* \"#utility.yul\":4944:5001   */\n      tag_137\n      jump\t// in\n    tag_225:\n        /* \"#utility.yul\":4848:5011   */\n      pop\n        /* \"#utility.yul\":5028:5032   */\n      dup1\n        /* \"#utility.yul\":5021:5032   */\n      swap2\n      pop\n        /* \"#utility.yul\":3778:5038   */\n      pop\n        /* \"#utility.yul\":3654:5038   */\n      swap3\n      swap2\n      pop\n      pop\n      jump\t// out\n        /* \"#utility.yul\":5044:5417   */\n    tag_28:\n        /* \"#utility.yul\":5187:5191   */\n      0x00\n        /* \"#utility.yul\":5225:5227   */\n      0x20\n        /* \"#utility.yul\":5214:5223   */\n      dup3\n        /* \"#utility.yul\":5210:5228   */\n      add\n        /* \"#utility.yul\":5202:5228   */\n      swap1\n      pop\n        /* \"#utility.yul\":5274:5283   */\n      dup2\n        /* \"#utility.yul\":5268:5272   */\n      dup2\n        /* \"#utility.yul\":5264:5284   */\n      sub\n        /* \"#utility.yul\":5260:5261   */\n      0x00\n        /* \"#utility.yul\":5249:5258   */\n      dup4\n        /* \"#utility.yul\":5245:5262   */\n      add\n        /* \"#utility.yul\":5238:5285   */\n      mstore\n        /* \"#utility.yul\":5302:5410   */\n      tag_227\n        /* \"#utility.yul\":5405:5409   */\n      dup2\n        /* \"#utility.yul\":5396:5402   */\n      dup5\n        /* \"#utility.yul\":5302:5410   */\n      tag_138\n      jump\t// in\n    tag_227:\n        /* \"#utility.yul\":5294:5410   */\n      swap1\n      pop\n        /* \"#utility.yul\":5044:5417   */\n      swap3\n      swap2\n      pop\n      pop\n      jump\t// out\n        /* \"#utility.yul\":5423:5540   */\n    tag_139:\n        /* \"#utility.yul\":5532:5533   */\n      0x00\n        /* \"#utility.yul\":5529:5530   */\n      0x00\n        /* \"#utility.yul\":5522:5534   */\n      revert\n        /* \"#utility.yul\":5546:5663   */\n    tag_140:\n        /* \"#utility.yul\":5655:5656   */\n      0x00\n        /* \"#utility.yul\":5652:5653   */\n      0x00\n        /* \"#utility.yul\":5645:5657   */\n      revert\n        /* \"#utility.yul\":5669:5849   */\n    tag_141:\n        /* \"#utility.yul\":5717:5794   */\n      0x4e487b7100000000000000000000000000000000000000000000000000000000\n        /* \"#utility.yul\":5714:5715   */\n      0x00\n        /* \"#utility.yul\":5707:5795   */\n      mstore\n        /* \"#utility.yul\":5814:5818   */\n      0x41\n        /* \"#utility.yul\":5811:5812   */\n      0x04\n        /* \"#utility.yul\":5804:5819   */\n      mstore\n        /* \"#utility.yul\":5838:5842   */\n      0x24\n        /* \"#utility.yul\":5835:5836   */\n      0x00\n        /* \"#utility.yul\":5828:5843   */\n      revert\n        /* \"#utility.yul\":5855:6136   */\n    tag_142:\n        /* \"#utility.yul\":5938:5965   */\n      tag_232\n        /* \"#utility.yul\":5960:5964   */\n      dup3\n        /* \"#utility.yul\":5938:5965   */\n      tag_132\n      jump\t// in\n    tag_232:\n        /* \"#utility.yul\":5930:5936   */\n      dup2\n        /* \"#utility.yul\":5926:5966   */\n      add\n        /* \"#utility.yul\":6068:6074   */\n      dup2\n        /* \"#utility.yul\":6056:6066   */\n      dup2\n        /* \"#utility.yul\":6053:6075   */\n      lt\n        /* \"#utility.yul\":6032:6050   */\n      0xffffffffffffffff\n        /* \"#utility.yul\":6020:6030   */\n      dup3\n        /* \"#utility.yul\":6017:6051   */\n      gt\n        /* \"#utility.yul\":6014:6076   */\n      or\n        /* \"#utility.yul\":6011:6099   */\n      iszero\n      tag_233\n      jumpi\n        /* \"#utility.yul\":6079:6097   */\n      tag_234\n      tag_141\n      jump\t// in\n    tag_234:\n        /* \"#utility.yul\":6011:6099   */\n    tag_233:\n        /* \"#utility.yul\":6119:6129   */\n      dup1\n        /* \"#utility.yul\":6115:6117   */\n      0x40\n        /* \"#utility.yul\":6108:6130   */\n      mstore\n        /* \"#utility.yul\":5898:6136   */\n      pop\n        /* \"#utility.yul\":5855:6136   */\n      pop\n      pop\n      jump\t// out\n        /* \"#utility.yul\":6142:6271   */\n    tag_143:\n        /* \"#utility.yul\":6176:6182   */\n      0x00\n        /* \"#utility.yul\":6203:6223   */\n      tag_236\n      tag_122\n      jump\t// in\n    tag_236:\n        /* \"#utility.yul\":6193:6223   */\n      swap1\n      pop\n        /* \"#utility.yul\":6232:6265   */\n      tag_237\n        /* \"#utility.yul\":6260:6264   */\n      dup3\n        /* \"#utility.yul\":6252:6258   */\n      dup3\n        /* \"#utility.yul\":6232:6265   */\n      tag_142\n      jump\t// in\n    tag_237:\n        /* \"#utility.yul\":6142:6271   */\n      swap2\n      swap1\n      pop\n      jump\t// out\n        /* \"#utility.yul\":6277:6585   */\n    tag_144:\n        /* \"#utility.yul\":6339:6343   */\n      0x00\n        /* \"#utility.yul\":6429:6447   */\n      0xffffffffffffffff\n        /* \"#utility.yul\":6421:6427   */\n      dup3\n        /* \"#utility.yul\":6418:6448   */\n      gt\n        /* \"#utility.yul\":6415:6471   */\n      iszero\n      tag_239\n      jumpi\n        /* \"#utility.yul\":6451:6469   */\n      tag_240\n      tag_141\n      jump\t// in\n    tag_240:\n        /* \"#utility.yul\":6415:6471   */\n    tag_239:\n        /* \"#utility.yul\":6489:6518   */\n      tag_241\n        /* \"#utility.yul\":6511:6517   */\n      dup3\n        /* \"#utility.yul\":6489:6518   */\n      tag_132\n      jump\t// in\n    tag_241:\n        /* \"#utility.yul\":6481:6518   */\n      swap1\n      pop\n        /* \"#utility.yul\":6573:6577   */\n      0x20\n        /* \"#utility.yul\":6567:6571   */\n      dup2\n        /* \"#utility.yul\":6563:6578   */\n      add\n        /* \"#utility.yul\":6555:6578   */\n      swap1\n      pop\n        /* \"#utility.yul\":6277:6585   */\n      swap2\n      swap1\n      pop\n      jump\t// out\n        /* \"#utility.yul\":6591:6739   */\n    tag_145:\n        /* \"#utility.yul\":6689:6695   */\n      dup3\n        /* \"#utility.yul\":6684:6687   */\n      dup2\n        /* \"#utility.yul\":6679:6682   */\n      dup4\n        /* \"#utility.yul\":6666:6696   */\n      calldatacopy\n        /* \"#utility.yul\":6730:6731   */\n      0x00\n        /* \"#utility.yul\":6721:6727   */\n      dup4\n        /* \"#utility.yul\":6716:6719   */\n      dup4\n        /* \"#utility.yul\":6712:6728   */\n      add\n        /* \"#utility.yul\":6705:6732   */\n      mstore\n        /* \"#utility.yul\":6591:6739   */\n      pop\n      pop\n      pop\n      jump\t// out\n        /* \"#utility.yul\":6745:7170   */\n    tag_146:\n        /* \"#utility.yul\":6823:6828   */\n      0x00\n        /* \"#utility.yul\":6848:6914   */\n      tag_244\n        /* \"#utility.yul\":6864:6913   */\n      tag_245\n        /* \"#utility.yul\":6906:6912   */\n      dup5\n        /* \"#utility.yul\":6864:6913   */\n      tag_144\n      jump\t// in\n    tag_245:\n        /* \"#utility.yul\":6848:6914   */\n      tag_143\n      jump\t// in\n    tag_244:\n        /* \"#utility.yul\":6839:6914   */\n      swap1\n      pop\n        /* \"#utility.yul\":6937:6943   */\n      dup3\n        /* \"#utility.yul\":6930:6935   */\n      dup2\n        /* \"#utility.yul\":6923:6944   */\n      mstore\n        /* \"#utility.yul\":6975:6979   */\n      0x20\n        /* \"#utility.yul\":6968:6973   */\n      dup2\n        /* \"#utility.yul\":6964:6980   */\n      add\n        /* \"#utility.yul\":7013:7016   */\n      dup5\n        /* \"#utility.yul\":7004:7010   */\n      dup5\n        /* \"#utility.yul\":6999:7002   */\n      dup5\n        /* \"#utility.yul\":6995:7011   */\n      add\n        /* \"#utility.yul\":6992:7017   */\n      gt\n        /* \"#utility.yul\":6989:7101   */\n      iszero\n      tag_246\n      jumpi\n        /* \"#utility.yul\":7020:7099   */\n      tag_247\n      tag_140\n      jump\t// in\n    tag_247:\n        /* \"#utility.yul\":6989:7101   */\n    tag_246:\n        /* \"#utility.yul\":7110:7164   */\n      tag_248\n        /* \"#utility.yul\":7157:7163   */\n      dup5\n        /* \"#utility.yul\":7152:7155   */\n      dup3\n        /* \"#utility.yul\":7147:7150   */\n      dup6\n        /* \"#utility.yul\":7110:7164   */\n      tag_145\n      jump\t// in\n    tag_248:\n        /* \"#utility.yul\":6829:7170   */\n      pop\n        /* \"#utility.yul\":6745:7170   */\n      swap4\n      swap3\n      pop\n      pop\n      pop\n      jump\t// out\n        /* \"#utility.yul\":7190:7530   */\n    tag_147:\n        /* \"#utility.yul\":7246:7251   */\n      0x00\n        /* \"#utility.yul\":7295:7298   */\n      dup3\n        /* \"#utility.yul\":7288:7292   */\n      0x1f\n        /* \"#utility.yul\":7280:7286   */\n      dup4\n        /* \"#utility.yul\":7276:7293   */\n      add\n        /* \"#utility.yul\":7272:7299   */\n      slt\n        /* \"#utility.yul\":7262:7384   */\n      tag_250\n      jumpi\n        /* \"#utility.yul\":7303:7382   */\n      tag_251\n      tag_139\n      jump\t// in\n    tag_251:\n        /* \"#utility.yul\":7262:7384   */\n    tag_250:\n        /* \"#utility.yul\":7420:7426   */\n      dup2\n        /* \"#utility.yul\":7407:7427   */\n      calldataload\n        /* \"#utility.yul\":7445:7524   */\n      tag_252\n        /* \"#utility.yul\":7520:7523   */\n      dup5\n        /* \"#utility.yul\":7512:7518   */\n      dup3\n        /* \"#utility.yul\":7505:7509   */\n      0x20\n        /* \"#utility.yul\":7497:7503   */\n      dup7\n        /* \"#utility.yul\":7493:7510   */\n      add\n        /* \"#utility.yul\":7445:7524   */\n      tag_146\n      jump\t// in\n    tag_252:\n        /* \"#utility.yul\":7436:7524   */\n      swap2\n      pop\n        /* \"#utility.yul\":7252:7530   */\n      pop\n        /* \"#utility.yul\":7190:7530   */\n      swap3\n      swap2\n      pop\n      pop\n      jump\t// out\n        /* \"#utility.yul\":7536:7652   */\n    tag_148:\n        /* \"#utility.yul\":7606:7627   */\n      tag_254\n        /* \"#utility.yul\":7621:7626   */\n      dup2\n        /* \"#utility.yul\":7606:7627   */\n      tag_136\n      jump\t// in\n    tag_254:\n        /* \"#utility.yul\":7599:7604   */\n      dup2\n        /* \"#utility.yul\":7596:7628   */\n      eq\n        /* \"#utility.yul\":7586:7646   */\n      tag_255\n      jumpi\n        /* \"#utility.yul\":7642:7643   */\n      0x00\n        /* \"#utility.yul\":7639:7640   */\n      0x00\n        /* \"#utility.yul\":7632:7644   */\n      revert\n        /* \"#utility.yul\":7586:7646   */\n    tag_255:\n        /* \"#utility.yul\":7536:7652   */\n      pop\n      jump\t// out\n        /* \"#utility.yul\":7658:7791   */\n    tag_149:\n        /* \"#utility.yul\":7701:7706   */\n      0x00\n        /* \"#utility.yul\":7739:7745   */\n      dup2\n        /* \"#utility.yul\":7726:7746   */\n      calldataload\n        /* \"#utility.yul\":7717:7746   */\n      swap1\n      pop\n        /* \"#utility.yul\":7755:7785   */\n      tag_257\n        /* \"#utility.yul\":7779:7784   */\n      dup2\n        /* \"#utility.yul\":7755:7785   */\n      tag_148\n      jump\t// in\n    tag_257:\n        /* \"#utility.yul\":7658:7791   */\n      swap3\n      swap2\n      pop\n      pop\n      jump\t// out\n        /* \"#utility.yul\":7797:9062   */\n    tag_31:\n        /* \"#utility.yul\":7909:7915   */\n      0x00\n        /* \"#utility.yul\":7917:7923   */\n      0x00\n        /* \"#utility.yul\":7925:7931   */\n      0x00\n        /* \"#utility.yul\":7933:7939   */\n      0x00\n        /* \"#utility.yul\":7941:7947   */\n      0x00\n        /* \"#utility.yul\":7990:7993   */\n      0xa0\n        /* \"#utility.yul\":7978:7987   */\n      dup7\n        /* \"#utility.yul\":7969:7976   */\n      dup9\n        /* \"#utility.yul\":7965:7988   */\n      sub\n        /* \"#utility.yul\":7961:7994   */\n      slt\n        /* \"#utility.yul\":7958:8078   */\n      iszero\n      tag_259\n      jumpi\n        /* \"#utility.yul\":7997:8076   */\n      tag_260\n      tag_123\n      jump\t// in\n    tag_260:\n        /* \"#utility.yul\":7958:8078   */\n    tag_259:\n        /* \"#utility.yul\":8145:8146   */\n      0x00\n        /* \"#utility.yul\":8134:8143   */\n      dup7\n        /* \"#utility.yul\":8130:8147   */\n      add\n        /* \"#utility.yul\":8117:8148   */\n      calldataload\n        /* \"#utility.yul\":8175:8193   */\n      0xffffffffffffffff\n        /* \"#utility.yul\":8167:8173   */\n      dup2\n        /* \"#utility.yul\":8164:8194   */\n      gt\n        /* \"#utility.yul\":8161:8278   */\n      iszero\n      tag_261\n      jumpi\n        /* \"#utility.yul\":8197:8276   */\n      tag_262\n      tag_124\n      jump\t// in\n    tag_262:\n        /* \"#utility.yul\":8161:8278   */\n    tag_261:\n        /* \"#utility.yul\":8302:8365   */\n      tag_263\n        /* \"#utility.yul\":8357:8364   */\n      dup9\n        /* \"#utility.yul\":8348:8354   */\n      dup3\n        /* \"#utility.yul\":8337:8346   */\n      dup10\n        /* \"#utility.yul\":8333:8355   */\n      add\n        /* \"#utility.yul\":8302:8365   */\n      tag_147\n      jump\t// in\n    tag_263:\n        /* \"#utility.yul\":8292:8365   */\n      swap6\n      pop\n        /* \"#utility.yul\":8088:8375   */\n      pop\n        /* \"#utility.yul\":8442:8444   */\n      0x20\n        /* \"#utility.yul\":8431:8440   */\n      dup7\n        /* \"#utility.yul\":8427:8445   */\n      add\n        /* \"#utility.yul\":8414:8446   */\n      calldataload\n        /* \"#utility.yul\":8473:8491   */\n      0xffffffffffffffff\n        /* \"#utility.yul\":8465:8471   */\n      dup2\n        /* \"#utility.yul\":8462:8492   */\n      gt\n        /* \"#utility.yul\":8459:8576   */\n      iszero\n      tag_264\n      jumpi\n        /* \"#utility.yul\":8495:8574   */\n      tag_265\n      tag_124\n      jump\t// in\n    tag_265:\n        /* \"#utility.yul\":8459:8576   */\n    tag_264:\n        /* \"#utility.yul\":8600:8663   */\n      tag_266\n        /* \"#utility.yul\":8655:8662   */\n      dup9\n        /* \"#utility.yul\":8646:8652   */\n      dup3\n        /* \"#utility.yul\":8635:8644   */\n      dup10\n        /* \"#utility.yul\":8631:8653   */\n      add\n        /* \"#utility.yul\":8600:8663   */\n      tag_147\n      jump\t// in\n    tag_266:\n        /* \"#utility.yul\":8590:8663   */\n      swap5\n      pop\n        /* \"#utility.yul\":8385:8673   */\n      pop\n        /* \"#utility.yul\":8712:8714   */\n      0x40\n        /* \"#utility.yul\":8738:8791   */\n      tag_267\n        /* \"#utility.yul\":8783:8790   */\n      dup9\n        /* \"#utility.yul\":8774:8780   */\n      dup3\n        /* \"#utility.yul\":8763:8772   */\n      dup10\n        /* \"#utility.yul\":8759:8781   */\n      add\n        /* \"#utility.yul\":8738:8791   */\n      tag_127\n      jump\t// in\n    tag_267:\n        /* \"#utility.yul\":8728:8791   */\n      swap4\n      pop\n        /* \"#utility.yul\":8683:8801   */\n      pop\n        /* \"#utility.yul\":8840:8842   */\n      0x60\n        /* \"#utility.yul\":8866:8919   */\n      tag_268\n        /* \"#utility.yul\":8911:8918   */\n      dup9\n        /* \"#utility.yul\":8902:8908   */\n      dup3\n        /* \"#utility.yul\":8891:8900   */\n      dup10\n        /* \"#utility.yul\":8887:8909   */\n      add\n        /* \"#utility.yul\":8866:8919   */\n      tag_127\n      jump\t// in\n    tag_268:\n        /* \"#utility.yul\":8856:8919   */\n      swap3\n      pop\n        /* \"#utility.yul\":8811:8929   */\n      pop\n        /* \"#utility.yul\":8968:8971   */\n      0x80\n        /* \"#utility.yul\":8995:9045   */\n      tag_269\n        /* \"#utility.yul\":9037:9044   */\n      dup9\n        /* \"#utility.yul\":9028:9034   */\n      dup3\n        /* \"#utility.yul\":9017:9026   */\n      dup10\n        /* \"#utility.yul\":9013:9035   */\n      add\n        /* \"#utility.yul\":8995:9045   */\n      tag_149\n      jump\t// in\n    tag_269:\n        /* \"#utility.yul\":8985:9045   */\n      swap2\n      pop\n        /* \"#utility.yul\":8939:9055   */\n      pop\n        /* \"#utility.yul\":7797:9062   */\n      swap3\n      swap6\n      pop\n      swap3\n      swap6\n      swap1\n      swap4\n      pop\n      jump\t// out\n        /* \"#utility.yul\":9068:9154   */\n    tag_150:\n        /* \"#utility.yul\":9103:9110   */\n      0x00\n        /* \"#utility.yul\":9143:9147   */\n      0xff\n        /* \"#utility.yul\":9136:9141   */\n      dup3\n        /* \"#utility.yul\":9132:9148   */\n      and\n        /* \"#utility.yul\":9121:9148   */\n      swap1\n      pop\n        /* \"#utility.yul\":9068:9154   */\n      swap2\n      swap1\n      pop\n      jump\t// out\n        /* \"#utility.yul\":9160:9278   */\n    tag_151:\n        /* \"#utility.yul\":9231:9253   */\n      tag_272\n        /* \"#utility.yul\":9247:9252   */\n      dup2\n        /* \"#utility.yul\":9231:9253   */\n      tag_150\n      jump\t// in\n    tag_272:\n        /* \"#utility.yul\":9224:9229   */\n      dup2\n        /* \"#utility.yul\":9221:9254   */\n      eq\n        /* \"#utility.yul\":9211:9272   */\n      tag_273\n      jumpi\n        /* \"#utility.yul\":9268:9269   */\n      0x00\n        /* \"#utility.yul\":9265:9266   */\n      0x00\n        /* \"#utility.yul\":9258:9270   */\n      revert\n        /* \"#utility.yul\":9211:9272   */\n    tag_273:\n        /* \"#utility.yul\":9160:9278   */\n      pop\n      jump\t// out\n        /* \"#utility.yul\":9284:9419   */\n    tag_152:\n        /* \"#utility.yul\":9328:9333   */\n      0x00\n        /* \"#utility.yul\":9366:9372   */\n      dup2\n        /* \"#utility.yul\":9353:9373   */\n      calldataload\n        /* \"#utility.yul\":9344:9373   */\n      swap1\n      pop\n        /* \"#utility.yul\":9382:9413   */\n      tag_275\n        /* \"#utility.yul\":9407:9412   */\n      dup2\n        /* \"#utility.yul\":9382:9413   */\n      tag_151\n      jump\t// in\n    tag_275:\n        /* \"#utility.yul\":9284:9419   */\n      swap3\n      swap2\n      pop\n      pop\n      jump\t// out\n        /* \"#utility.yul\":9425:9895   */\n    tag_35:\n        /* \"#utility.yul\":9491:9497   */\n      0x00\n        /* \"#utility.yul\":9499:9505   */\n      0x00\n        /* \"#utility.yul\":9548:9550   */\n      0x40\n        /* \"#utility.yul\":9536:9545   */\n      dup4\n        /* \"#utility.yul\":9527:9534   */\n      dup6\n        /* \"#utility.yul\":9523:9546   */\n      sub\n        /* \"#utility.yul\":9519:9551   */\n      slt\n        /* \"#utility.yul\":9516:9635   */\n      iszero\n      tag_277\n      jumpi\n        /* \"#utility.yul\":9554:9633   */\n      tag_278\n      tag_123\n      jump\t// in\n    tag_278:\n        /* \"#utility.yul\":9516:9635   */\n    tag_277:\n        /* \"#utility.yul\":9674:9675   */\n      0x00\n        /* \"#utility.yul\":9699:9752   */\n      tag_279\n        /* \"#utility.yul\":9744:9751   */\n      dup6\n        /* \"#utility.yul\":9735:9741   */\n      dup3\n        /* \"#utility.yul\":9724:9733   */\n      dup7\n        /* \"#utility.yul\":9720:9742   */\n      add\n        /* \"#utility.yul\":9699:9752   */\n      tag_127\n      jump\t// in\n    tag_279:\n        /* \"#utility.yul\":9689:9752   */\n      swap3\n      pop\n        /* \"#utility.yul\":9645:9762   */\n      pop\n        /* \"#utility.yul\":9801:9803   */\n      0x20\n        /* \"#utility.yul\":9827:9878   */\n      tag_280\n        /* \"#utility.yul\":9870:9877   */\n      dup6\n        /* \"#utility.yul\":9861:9867   */\n      dup3\n        /* \"#utility.yul\":9850:9859   */\n      dup7\n        /* \"#utility.yul\":9846:9868   */\n      add\n        /* \"#utility.yul\":9827:9878   */\n      tag_152\n      jump\t// in\n    tag_280:\n        /* \"#utility.yul\":9817:9878   */\n      swap2\n      pop\n        /* \"#utility.yul\":9772:9888   */\n      pop\n        /* \"#utility.yul\":9425:9895   */\n      swap3\n      pop\n      swap3\n      swap1\n      pop\n      jump\t// out\n        /* \"#utility.yul\":9901:10070   */\n    tag_153:\n        /* \"#utility.yul\":9985:9996   */\n      0x00\n        /* \"#utility.yul\":10019:10025   */\n      dup3\n        /* \"#utility.yul\":10014:10017   */\n      dup3\n        /* \"#utility.yul\":10007:10026   */\n      mstore\n        /* \"#utility.yul\":10059:10063   */\n      0x20\n        /* \"#utility.yul\":10054:10057   */\n      dup3\n        /* \"#utility.yul\":10050:10064   */\n      add\n        /* \"#utility.yul\":10035:10064   */\n      swap1\n      pop\n        /* \"#utility.yul\":9901:10070   */\n      swap3\n      swap2\n      pop\n      pop\n      jump\t// out\n        /* \"#utility.yul\":10076:10453   */\n    tag_154:\n        /* \"#utility.yul\":10164:10167   */\n      0x00\n        /* \"#utility.yul\":10192:10231   */\n      tag_283\n        /* \"#utility.yul\":10225:10230   */\n      dup3\n        /* \"#utility.yul\":10192:10231   */\n      tag_129\n      jump\t// in\n    tag_283:\n        /* \"#utility.yul\":10247:10318   */\n      tag_284\n        /* \"#utility.yul\":10311:10317   */\n      dup2\n        /* \"#utility.yul\":10306:10309   */\n      dup6\n        /* \"#utility.yul\":10247:10318   */\n      tag_153\n      jump\t// in\n    tag_284:\n        /* \"#utility.yul\":10240:10318   */\n      swap4\n      pop\n        /* \"#utility.yul\":10327:10392   */\n      tag_285\n        /* \"#utility.yul\":10385:10391   */\n      dup2\n        /* \"#utility.yul\":10380:10383   */\n      dup6\n        /* \"#utility.yul\":10373:10377   */\n      0x20\n        /* \"#utility.yul\":10366:10371   */\n      dup7\n        /* \"#utility.yul\":10362:10378   */\n      add\n        /* \"#utility.yul\":10327:10392   */\n      tag_131\n      jump\t// in\n    tag_285:\n        /* \"#utility.yul\":10417:10446   */\n      tag_286\n        /* \"#utility.yul\":10439:10445   */\n      dup2\n        /* \"#utility.yul\":10417:10446   */\n      tag_132\n      jump\t// in\n    tag_286:\n        /* \"#utility.yul\":10412:10415   */\n      dup5\n        /* \"#utility.yul\":10408:10447   */\n      add\n        /* \"#utility.yul\":10401:10447   */\n      swap2\n      pop\n        /* \"#utility.yul\":10168:10453   */\n      pop\n        /* \"#utility.yul\":10076:10453   */\n      swap3\n      swap2\n      pop\n      pop\n      jump\t// out\n        /* \"#utility.yul\":10459:10772   */\n    tag_41:\n        /* \"#utility.yul\":10572:10576   */\n      0x00\n        /* \"#utility.yul\":10610:10612   */\n      0x20\n        /* \"#utility.yul\":10599:10608   */\n      dup3\n        /* \"#utility.yul\":10595:10613   */\n      add\n        /* \"#utility.yul\":10587:10613   */\n      swap1\n      pop\n        /* \"#utility.yul\":10659:10668   */\n      dup2\n        /* \"#utility.yul\":10653:10657   */\n      dup2\n        /* \"#utility.yul\":10649:10669   */\n      sub\n        /* \"#utility.yul\":10645:10646   */\n      0x00\n        /* \"#utility.yul\":10634:10643   */\n      dup4\n        /* \"#utility.yul\":10630:10647   */\n      add\n        /* \"#utility.yul\":10623:10670   */\n      mstore\n        /* \"#utility.yul\":10687:10765   */\n      tag_288\n        /* \"#utility.yul\":10760:10764   */\n      dup2\n        /* \"#utility.yul\":10751:10757   */\n      dup5\n        /* \"#utility.yul\":10687:10765   */\n      tag_154\n      jump\t// in\n    tag_288:\n        /* \"#utility.yul\":10679:10765   */\n      swap1\n      pop\n        /* \"#utility.yul\":10459:10772   */\n      swap3\n      swap2\n      pop\n      pop\n      jump\t// out\n        /* \"#utility.yul\":10778:11432   */\n    tag_44:\n        /* \"#utility.yul\":10856:10862   */\n      0x00\n        /* \"#utility.yul\":10864:10870   */\n      0x00\n        /* \"#utility.yul\":10913:10915   */\n      0x40\n        /* \"#utility.yul\":10901:10910   */\n      dup4\n        /* \"#utility.yul\":10892:10899   */\n      dup6\n        /* \"#utility.yul\":10888:10911   */\n      sub\n        /* \"#utility.yul\":10884:10916   */\n      slt\n        /* \"#utility.yul\":10881:11000   */\n      iszero\n      tag_290\n      jumpi\n        /* \"#utility.yul\":10919:10998   */\n      tag_291\n      tag_123\n      jump\t// in\n    tag_291:\n        /* \"#utility.yul\":10881:11000   */\n    tag_290:\n        /* \"#utility.yul\":11039:11040   */\n      0x00\n        /* \"#utility.yul\":11064:11117   */\n      tag_292\n        /* \"#utility.yul\":11109:11116   */\n      dup6\n        /* \"#utility.yul\":11100:11106   */\n      dup3\n        /* \"#utility.yul\":11089:11098   */\n      dup7\n        /* \"#utility.yul\":11085:11107   */\n      add\n        /* \"#utility.yul\":11064:11117   */\n      tag_127\n      jump\t// in\n    tag_292:\n        /* \"#utility.yul\":11054:11117   */\n      swap3\n      pop\n        /* \"#utility.yul\":11010:11127   */\n      pop\n        /* \"#utility.yul\":11194:11196   */\n      0x20\n        /* \"#utility.yul\":11183:11192   */\n      dup4\n        /* \"#utility.yul\":11179:11197   */\n      add\n        /* \"#utility.yul\":11166:11198   */\n      calldataload\n        /* \"#utility.yul\":11225:11243   */\n      0xffffffffffffffff\n        /* \"#utility.yul\":11217:11223   */\n      dup2\n        /* \"#utility.yul\":11214:11244   */\n      gt\n        /* \"#utility.yul\":11211:11328   */\n      iszero\n      tag_293\n      jumpi\n        /* \"#utility.yul\":11247:11326   */\n      tag_294\n      tag_124\n      jump\t// in\n    tag_294:\n        /* \"#utility.yul\":11211:11328   */\n    tag_293:\n        /* \"#utility.yul\":11352:11415   */\n      tag_295\n        /* \"#utility.yul\":11407:11414   */\n      dup6\n        /* \"#utility.yul\":11398:11404   */\n      dup3\n        /* \"#utility.yul\":11387:11396   */\n      dup7\n        /* \"#utility.yul\":11383:11405   */\n      add\n        /* \"#utility.yul\":11352:11415   */\n      tag_147\n      jump\t// in\n    tag_295:\n        /* \"#utility.yul\":11342:11415   */\n      swap2\n      pop\n        /* \"#utility.yul\":11137:11425   */\n      pop\n        /* \"#utility.yul\":10778:11432   */\n      swap3\n      pop\n      swap3\n      swap1\n      pop\n      jump\t// out\n        /* \"#utility.yul\":11438:12237   */\n    tag_48:\n        /* \"#utility.yul\":11525:11531   */\n      0x00\n        /* \"#utility.yul\":11533:11539   */\n      0x00\n        /* \"#utility.yul\":11541:11547   */\n      0x00\n        /* \"#utility.yul\":11590:11592   */\n      0x60\n        /* \"#utility.yul\":11578:11587   */\n      dup5\n        /* \"#utility.yul\":11569:11576   */\n      dup7\n        /* \"#utility.yul\":11565:11588   */\n      sub\n        /* \"#utility.yul\":11561:11593   */\n      slt\n        /* \"#utility.yul\":11558:11677   */\n      iszero\n      tag_297\n      jumpi\n        /* \"#utility.yul\":11596:11675   */\n      tag_298\n      tag_123\n      jump\t// in\n    tag_298:\n        /* \"#utility.yul\":11558:11677   */\n    tag_297:\n        /* \"#utility.yul\":11716:11717   */\n      0x00\n        /* \"#utility.yul\":11741:11794   */\n      tag_299\n        /* \"#utility.yul\":11786:11793   */\n      dup7\n        /* \"#utility.yul\":11777:11783   */\n      dup3\n        /* \"#utility.yul\":11766:11775   */\n      dup8\n        /* \"#utility.yul\":11762:11784   */\n      add\n        /* \"#utility.yul\":11741:11794   */\n      tag_127\n      jump\t// in\n    tag_299:\n        /* \"#utility.yul\":11731:11794   */\n      swap4\n      pop\n        /* \"#utility.yul\":11687:11804   */\n      pop\n        /* \"#utility.yul\":11843:11845   */\n      0x20\n        /* \"#utility.yul\":11869:11922   */\n      tag_300\n        /* \"#utility.yul\":11914:11921   */\n      dup7\n        /* \"#utility.yul\":11905:11911   */\n      dup3\n        /* \"#utility.yul\":11894:11903   */\n      dup8\n        /* \"#utility.yul\":11890:11912   */\n      add\n        /* \"#utility.yul\":11869:11922   */\n      tag_127\n      jump\t// in\n    tag_300:\n        /* \"#utility.yul\":11859:11922   */\n      swap3\n      pop\n        /* \"#utility.yul\":11814:11932   */\n      pop\n        /* \"#utility.yul\":11999:12001   */\n      0x40\n        /* \"#utility.yul\":11988:11997   */\n      dup5\n        /* \"#utility.yul\":11984:12002   */\n      add\n        /* \"#utility.yul\":11971:12003   */\n      calldataload\n        /* \"#utility.yul\":12030:12048   */\n      0xffffffffffffffff\n        /* \"#utility.yul\":12022:12028   */\n      dup2\n        /* \"#utility.yul\":12019:12049   */\n      gt\n        /* \"#utility.yul\":12016:12133   */\n      iszero\n      tag_301\n      jumpi\n        /* \"#utility.yul\":12052:12131   */\n      tag_302\n      tag_124\n      jump\t// in\n    tag_302:\n        /* \"#utility.yul\":12016:12133   */\n    tag_301:\n        /* \"#utility.yul\":12157:12220   */\n      tag_303\n        /* \"#utility.yul\":12212:12219   */\n      dup7\n        /* \"#utility.yul\":12203:12209   */\n      dup3\n        /* \"#utility.yul\":12192:12201   */\n      dup8\n        /* \"#utility.yul\":12188:12210   */\n      add\n        /* \"#utility.yul\":12157:12220   */\n      tag_147\n      jump\t// in\n    tag_303:\n        /* \"#utility.yul\":12147:12220   */\n      swap2\n      pop\n        /* \"#utility.yul\":11942:12230   */\n      pop\n        /* \"#utility.yul\":11438:12237   */\n      swap3\n      pop\n      swap3\n      pop\n      swap3\n      jump\t// out\n        /* \"#utility.yul\":12243:12369   */\n    tag_155:\n        /* \"#utility.yul\":12280:12287   */\n      0x00\n        /* \"#utility.yul\":12320:12362   */\n      0xffffffffffffffffffffffffffffffffffffffff\n        /* \"#utility.yul\":12313:12318   */\n      dup3\n        /* \"#utility.yul\":12309:12363   */\n      and\n        /* \"#utility.yul\":12298:12363   */\n      swap1\n      pop\n        /* \"#utility.yul\":12243:12369   */\n      swap2\n      swap1\n      pop\n      jump\t// out\n        /* \"#utility.yul\":12375:12471   */\n    tag_156:\n        /* \"#utility.yul\":12412:12419   */\n      0x00\n        /* \"#utility.yul\":12441:12465   */\n      tag_306\n        /* \"#utility.yul\":12459:12464   */\n      dup3\n        /* \"#utility.yul\":12441:12465   */\n      tag_155\n      jump\t// in\n    tag_306:\n        /* \"#utility.yul\":12430:12465   */\n      swap1\n      pop\n        /* \"#utility.yul\":12375:12471   */\n      swap2\n      swap1\n      pop\n      jump\t// out\n        /* \"#utility.yul\":12477:12595   */\n    tag_157:\n        /* \"#utility.yul\":12564:12588   */\n      tag_308\n        /* \"#utility.yul\":12582:12587   */\n      dup2\n        /* \"#utility.yul\":12564:12588   */\n      tag_156\n      jump\t// in\n    tag_308:\n        /* \"#utility.yul\":12559:12562   */\n      dup3\n        /* \"#utility.yul\":12552:12589   */\n      mstore\n        /* \"#utility.yul\":12477:12595   */\n      pop\n      pop\n      jump\t// out\n        /* \"#utility.yul\":12601:12823   */\n    tag_53:\n        /* \"#utility.yul\":12694:12698   */\n      0x00\n        /* \"#utility.yul\":12732:12734   */\n      0x20\n        /* \"#utility.yul\":12721:12730   */\n      dup3\n        /* \"#utility.yul\":12717:12735   */\n      add\n        /* \"#utility.yul\":12709:12735   */\n      swap1\n      pop\n        /* \"#utility.yul\":12745:12816   */\n      tag_310\n        /* \"#utility.yul\":12813:12814   */\n      0x00\n        /* \"#utility.yul\":12802:12811   */\n      dup4\n        /* \"#utility.yul\":12798:12815   */\n      add\n        /* \"#utility.yul\":12789:12795   */\n      dup5\n        /* \"#utility.yul\":12745:12816   */\n      tag_157\n      jump\t// in\n    tag_310:\n        /* \"#utility.yul\":12601:12823   */\n      swap3\n      swap2\n      pop\n      pop\n      jump\t// out\n        /* \"#utility.yul\":12829:13000   */\n    tag_158:\n        /* \"#utility.yul\":12969:12992   */\n      0x4a6f6220494420646f6573206e6f742065786973740000000000000000000000\n        /* \"#utility.yul\":12965:12966   */\n      0x00\n        /* \"#utility.yul\":12957:12963   */\n      dup3\n        /* \"#utility.yul\":12953:12967   */\n      add\n        /* \"#utility.yul\":12946:12993   */\n      mstore\n        /* \"#utility.yul\":12829:13000   */\n      pop\n      jump\t// out\n        /* \"#utility.yul\":13006:13372   */\n    tag_159:\n        /* \"#utility.yul\":13148:13151   */\n      0x00\n        /* \"#utility.yul\":13169:13236   */\n      tag_313\n        /* \"#utility.yul\":13233:13235   */\n      0x15\n        /* \"#utility.yul\":13228:13231   */\n      dup4\n        /* \"#utility.yul\":13169:13236   */\n      tag_153\n      jump\t// in\n    tag_313:\n        /* \"#utility.yul\":13162:13236   */\n      swap2\n      pop\n        /* \"#utility.yul\":13245:13338   */\n      tag_314\n        /* \"#utility.yul\":13334:13337   */\n      dup3\n        /* \"#utility.yul\":13245:13338   */\n      tag_158\n      jump\t// in\n    tag_314:\n        /* \"#utility.yul\":13363:13365   */\n      0x20\n        /* \"#utility.yul\":13358:13361   */\n      dup3\n        /* \"#utility.yul\":13354:13366   */\n      add\n        /* \"#utility.yul\":13347:13366   */\n      swap1\n      pop\n        /* \"#utility.yul\":13006:13372   */\n      swap2\n      swap1\n      pop\n      jump\t// out\n        /* \"#utility.yul\":13378:13797   */\n    tag_59:\n        /* \"#utility.yul\":13544:13548   */\n      0x00\n        /* \"#utility.yul\":13582:13584   */\n      0x20\n        /* \"#utility.yul\":13571:13580   */\n      dup3\n        /* \"#utility.yul\":13567:13585   */\n      add\n        /* \"#utility.yul\":13559:13585   */\n      swap1\n      pop\n        /* \"#utility.yul\":13631:13640   */\n      dup2\n        /* \"#utility.yul\":13625:13629   */\n      dup2\n        /* \"#utility.yul\":13621:13641   */\n      sub\n        /* \"#utility.yul\":13617:13618   */\n      0x00\n        /* \"#utility.yul\":13606:13615   */\n      dup4\n        /* \"#utility.yul\":13602:13619   */\n      add\n        /* \"#utility.yul\":13595:13642   */\n      mstore\n        /* \"#utility.yul\":13659:13790   */\n      tag_316\n        /* \"#utility.yul\":13785:13789   */\n      dup2\n        /* \"#utility.yul\":13659:13790   */\n      tag_159\n      jump\t// in\n    tag_316:\n        /* \"#utility.yul\":13651:13790   */\n      swap1\n      pop\n        /* \"#utility.yul\":13378:13797   */\n      swap2\n      swap1\n      pop\n      jump\t// out\n        /* \"#utility.yul\":13803:13983   */\n    tag_62:\n        /* \"#utility.yul\":13851:13928   */\n      0x4e487b7100000000000000000000000000000000000000000000000000000000\n        /* \"#utility.yul\":13848:13849   */\n      0x00\n        /* \"#utility.yul\":13841:13929   */\n      mstore\n        /* \"#utility.yul\":13948:13952   */\n      0x32\n        /* \"#utility.yul\":13945:13946   */\n      0x04\n        /* \"#utility.yul\":13938:13953   */\n      mstore\n        /* \"#utility.yul\":13972:13976   */\n      0x24\n        /* \"#utility.yul\":13969:13970   */\n      0x00\n        /* \"#utility.yul\":13962:13977   */\n      revert\n        /* \"#utility.yul\":13989:14169   */\n    tag_160:\n        /* \"#utility.yul\":14037:14114   */\n      0x4e487b7100000000000000000000000000000000000000000000000000000000\n        /* \"#utility.yul\":14034:14035   */\n      0x00\n        /* \"#utility.yul\":14027:14115   */\n      mstore\n        /* \"#utility.yul\":14134:14138   */\n      0x22\n        /* \"#utility.yul\":14131:14132   */\n      0x04\n        /* \"#utility.yul\":14124:14139   */\n      mstore\n        /* \"#utility.yul\":14158:14162   */\n      0x24\n        /* \"#utility.yul\":14155:14156   */\n      0x00\n        /* \"#utility.yul\":14148:14163   */\n      revert\n        /* \"#utility.yul\":14175:14495   */\n    tag_65:\n        /* \"#utility.yul\":14219:14225   */\n      0x00\n        /* \"#utility.yul\":14256:14257   */\n      0x02\n        /* \"#utility.yul\":14250:14254   */\n      dup3\n        /* \"#utility.yul\":14246:14258   */\n      div\n        /* \"#utility.yul\":14236:14258   */\n      swap1\n      pop\n        /* \"#utility.yul\":14303:14304   */\n      0x01\n        /* \"#utility.yul\":14297:14301   */\n      dup3\n        /* \"#utility.yul\":14293:14305   */\n      and\n        /* \"#utility.yul\":14324:14342   */\n      dup1\n        /* \"#utility.yul\":14314:14395   */\n      tag_320\n      jumpi\n        /* \"#utility.yul\":14380:14384   */\n      0x7f\n        /* \"#utility.yul\":14372:14378   */\n      dup3\n        /* \"#utility.yul\":14368:14385   */\n      and\n        /* \"#utility.yul\":14358:14385   */\n      swap2\n      pop\n        /* \"#utility.yul\":14314:14395   */\n    tag_320:\n        /* \"#utility.yul\":14442:14444   */\n      0x20\n        /* \"#utility.yul\":14434:14440   */\n      dup3\n        /* \"#utility.yul\":14431:14445   */\n      lt\n        /* \"#utility.yul\":14411:14429   */\n      dup2\n        /* \"#utility.yul\":14408:14446   */\n      sub\n        /* \"#utility.yul\":14405:14489   */\n      tag_321\n      jumpi\n        /* \"#utility.yul\":14461:14479   */\n      tag_322\n      tag_160\n      jump\t// in\n    tag_322:\n        /* \"#utility.yul\":14405:14489   */\n    tag_321:\n        /* \"#utility.yul\":14226:14495   */\n      pop\n        /* \"#utility.yul\":14175:14495   */\n      swap2\n      swap1\n      pop\n      jump\t// out\n        /* \"#utility.yul\":14501:14678   */\n    tag_161:\n        /* \"#utility.yul\":14641:14670   */\n      0x4170706c6963616e7420494420646f6573206e6f742065786973740000000000\n        /* \"#utility.yul\":14637:14638   */\n      0x00\n        /* \"#utility.yul\":14629:14635   */\n      dup3\n        /* \"#utility.yul\":14625:14639   */\n      add\n        /* \"#utility.yul\":14618:14671   */\n      mstore\n        /* \"#utility.yul\":14501:14678   */\n      pop\n      jump\t// out\n        /* \"#utility.yul\":14684:15050   */\n    tag_162:\n        /* \"#utility.yul\":14826:14829   */\n      0x00\n        /* \"#utility.yul\":14847:14914   */\n      tag_325\n        /* \"#utility.yul\":14911:14913   */\n      0x1b\n        /* \"#utility.yul\":14906:14909   */\n      dup4\n        /* \"#utility.yul\":14847:14914   */\n      tag_153\n      jump\t// in\n    tag_325:\n        /* \"#utility.yul\":14840:14914   */\n      swap2\n      pop\n        /* \"#utility.yul\":14923:15016   */\n      tag_326\n        /* \"#utility.yul\":15012:15015   */\n      dup3\n        /* \"#utility.yul\":14923:15016   */\n      tag_161\n      jump\t// in\n    tag_326:\n        /* \"#utility.yul\":15041:15043   */\n      0x20\n        /* \"#utility.yul\":15036:15039   */\n      dup3\n        /* \"#utility.yul\":15032:15044   */\n      add\n        /* \"#utility.yul\":15025:15044   */\n      swap1\n      pop\n        /* \"#utility.yul\":14684:15050   */\n      swap2\n      swap1\n      pop\n      jump\t// out\n        /* \"#utility.yul\":15056:15475   */\n    tag_76:\n        /* \"#utility.yul\":15222:15226   */\n      0x00\n        /* \"#utility.yul\":15260:15262   */\n      0x20\n        /* \"#utility.yul\":15249:15258   */\n      dup3\n        /* \"#utility.yul\":15245:15263   */\n      add\n        /* \"#utility.yul\":15237:15263   */\n      swap1\n      pop\n        /* \"#utility.yul\":15309:15318   */\n      dup2\n        /* \"#utility.yul\":15303:15307   */\n      dup2\n        /* \"#utility.yul\":15299:15319   */\n      sub\n        /* \"#utility.yul\":15295:15296   */\n      0x00\n        /* \"#utility.yul\":15284:15293   */\n      dup4\n        /* \"#utility.yul\":15280:15297   */\n      add\n        /* \"#utility.yul\":15273:15320   */\n      mstore\n        /* \"#utility.yul\":15337:15468   */\n      tag_328\n        /* \"#utility.yul\":15463:15467   */\n      dup2\n        /* \"#utility.yul\":15337:15468   */\n      tag_162\n      jump\t// in\n    tag_328:\n        /* \"#utility.yul\":15329:15468   */\n      swap1\n      pop\n        /* \"#utility.yul\":15056:15475   */\n      swap2\n      swap1\n      pop\n      jump\t// out\n        /* \"#utility.yul\":15481:15652   */\n    tag_163:\n        /* \"#utility.yul\":15621:15644   */\n      0x596f7520617265206e6f74207468652061646d696e0000000000000000000000\n        /* \"#utility.yul\":15617:15618   */\n      0x00\n        /* \"#utility.yul\":15609:15615   */\n      dup3\n        /* \"#utility.yul\":15605:15619   */\n      add\n        /* \"#utility.yul\":15598:15645   */\n      mstore\n        /* \"#utility.yul\":15481:15652   */\n      pop\n      jump\t// out\n        /* \"#utility.yul\":15658:16024   */\n    tag_164:\n        /* \"#utility.yul\":15800:15803   */\n      0x00\n        /* \"#utility.yul\":15821:15888   */\n      tag_331\n        /* \"#utility.yul\":15885:15887   */\n      0x15\n        /* \"#utility.yul\":15880:15883   */\n      dup4\n        /* \"#utility.yul\":15821:15888   */\n      tag_153\n      jump\t// in\n    tag_331:\n        /* \"#utility.yul\":15814:15888   */\n      swap2\n      pop\n        /* \"#utility.yul\":15897:15990   */\n      tag_332\n        /* \"#utility.yul\":15986:15989   */\n      dup3\n        /* \"#utility.yul\":15897:15990   */\n      tag_163\n      jump\t// in\n    tag_332:\n        /* \"#utility.yul\":16015:16017   */\n      0x20\n        /* \"#utility.yul\":16010:16013   */\n      dup3\n        /* \"#utility.yul\":16006:16018   */\n      add\n        /* \"#utility.yul\":15999:16018   */\n      swap1\n      pop\n        /* \"#utility.yul\":15658:16024   */\n      swap2\n      swap1\n      pop\n      jump\t// out\n        /* \"#utility.yul\":16030:16449   */\n    tag_93:\n        /* \"#utility.yul\":16196:16200   */\n      0x00\n        /* \"#utility.yul\":16234:16236   */\n      0x20\n        /* \"#utility.yul\":16223:16232   */\n      dup3\n        /* \"#utility.yul\":16219:16237   */\n      add\n        /* \"#utility.yul\":16211:16237   */\n      swap1\n      pop\n        /* \"#utility.yul\":16283:16292   */\n      dup2\n        /* \"#utility.yul\":16277:16281   */\n      dup2\n        /* \"#utility.yul\":16273:16293   */\n      sub\n        /* \"#utility.yul\":16269:16270   */\n      0x00\n        /* \"#utility.yul\":16258:16267   */\n      dup4\n        /* \"#utility.yul\":16254:16271   */\n      add\n        /* \"#utility.yul\":16247:16294   */\n      mstore\n        /* \"#utility.yul\":16311:16442   */\n      tag_334\n        /* \"#utility.yul\":16437:16441   */\n      dup2\n        /* \"#utility.yul\":16311:16442   */\n      tag_164\n      jump\t// in\n    tag_334:\n        /* \"#utility.yul\":16303:16442   */\n      swap1\n      pop\n        /* \"#utility.yul\":16030:16449   */\n      swap2\n      swap1\n      pop\n      jump\t// out\n        /* \"#utility.yul\":16455:16596   */\n    tag_165:\n        /* \"#utility.yul\":16504:16508   */\n      0x00\n        /* \"#utility.yul\":16527:16530   */\n      dup2\n        /* \"#utility.yul\":16519:16530   */\n      swap1\n      pop\n        /* \"#utility.yul\":16550:16553   */\n      dup2\n        /* \"#utility.yul\":16547:16548   */\n      0x00\n        /* \"#utility.yul\":16540:16554   */\n      mstore\n        /* \"#utility.yul\":16584:16588   */\n      0x20\n        /* \"#utility.yul\":16581:16582   */\n      0x00\n        /* \"#utility.yul\":16571:16589   */\n      keccak256\n        /* \"#utility.yul\":16563:16589   */\n      swap1\n      pop\n        /* \"#utility.yul\":16455:16596   */\n      swap2\n      swap1\n      pop\n      jump\t// out\n        /* \"#utility.yul\":16602:16695   */\n    tag_166:\n        /* \"#utility.yul\":16639:16645   */\n      0x00\n        /* \"#utility.yul\":16686:16688   */\n      0x20\n        /* \"#utility.yul\":16681:16683   */\n      0x1f\n        /* \"#utility.yul\":16674:16679   */\n      dup4\n        /* \"#utility.yul\":16670:16684   */\n      add\n        /* \"#utility.yul\":16666:16689   */\n      div\n        /* \"#utility.yul\":16656:16689   */\n      swap1\n      pop\n        /* \"#utility.yul\":16602:16695   */\n      swap2\n      swap1\n      pop\n      jump\t// out\n        /* \"#utility.yul\":16701:16808   */\n    tag_167:\n        /* \"#utility.yul\":16745:16753   */\n      0x00\n        /* \"#utility.yul\":16795:16800   */\n      dup3\n        /* \"#utility.yul\":16789:16793   */\n      dup3\n        /* \"#utility.yul\":16785:16801   */\n      shl\n        /* \"#utility.yul\":16764:16801   */\n      swap1\n      pop\n        /* \"#utility.yul\":16701:16808   */\n      swap3\n      swap2\n      pop\n      pop\n      jump\t// out\n        /* \"#utility.yul\":16814:17207   */\n    tag_168:\n        /* \"#utility.yul\":16883:16889   */\n      0x00\n        /* \"#utility.yul\":16933:16934   */\n      0x08\n        /* \"#utility.yul\":16921:16931   */\n      dup4\n        /* \"#utility.yul\":16917:16935   */\n      mul\n        /* \"#utility.yul\":16956:17053   */\n      tag_339\n        /* \"#utility.yul\":16986:17052   */\n      0xffffffffffffffffffffffffffffffffffffffffffffffffffffffffffffffff\n        /* \"#utility.yul\":16975:16984   */\n      dup3\n        /* \"#utility.yul\":16956:17053   */\n      tag_167\n      jump\t// in\n    tag_339:\n        /* \"#utility.yul\":17074:17113   */\n      tag_340\n        /* \"#utility.yul\":17104:17112   */\n      dup7\n        /* \"#utility.yul\":17093:17102   */\n      dup4\n        /* \"#utility.yul\":17074:17113   */\n      tag_167\n      jump\t// in\n    tag_340:\n        /* \"#utility.yul\":17062:17113   */\n      swap6\n      pop\n        /* \"#utility.yul\":17146:17150   */\n      dup1\n        /* \"#utility.yul\":17142:17151   */\n      not\n        /* \"#utility.yul\":17135:17140   */\n      dup5\n        /* \"#utility.yul\":17131:17152   */\n      and\n        /* \"#utility.yul\":17122:17152   */\n      swap4\n      pop\n        /* \"#utility.yul\":17195:17199   */\n      dup1\n        /* \"#utility.yul\":17185:17193   */\n      dup7\n        /* \"#utility.yul\":17181:17200   */\n      and\n        /* \"#utility.yul\":17174:17179   */\n      dup5\n        /* \"#utility.yul\":17171:17201   */\n      or\n        /* \"#utility.yul\":17161:17201   */\n      swap3\n      pop\n        /* \"#utility.yul\":16890:17207   */\n      pop\n      pop\n        /* \"#utility.yul\":16814:17207   */\n      swap4\n      swap3\n      pop\n      pop\n      pop\n      jump\t// out\n        /* \"#utility.yul\":17213:17273   */\n    tag_169:\n        /* \"#utility.yul\":17241:17244   */\n      0x00\n        /* \"#utility.yul\":17262:17267   */\n      dup2\n        /* \"#utility.yul\":17255:17267   */\n      swap1\n      pop\n        /* \"#utility.yul\":17213:17273   */\n      swap2\n      swap1\n      pop\n      jump\t// out\n        /* \"#utility.yul\":17279:17421   */\n    tag_170:\n        /* \"#utility.yul\":17329:17338   */\n      0x00\n        /* \"#utility.yul\":17362:17415   */\n      tag_343\n        /* \"#utility.yul\":17380:17414   */\n      tag_344\n        /* \"#utility.yul\":17389:17413   */\n      tag_345\n        /* \"#utility.yul\":17407:17412   */\n      dup5\n        /* \"#utility.yul\":17389:17413   */\n      tag_125\n      jump\t// in\n    tag_345:\n        /* \"#utility.yul\":17380:17414   */\n      tag_169\n      jump\t// in\n    tag_344:\n        /* \"#utility.yul\":17362:17415   */\n      tag_125\n      jump\t// in\n    tag_343:\n        /* \"#utility.yul\":17349:17415   */\n      swap1\n      pop\n        /* \"#utility.yul\":17279:17421   */\n      swap2\n      swap1\n      pop\n      jump\t// out\n        /* \"#utility.yul\":17427:17502   */\n    tag_171:\n        /* \"#utility.yul\":17470:17473   */\n      0x00\n        /* \"#utility.yul\":17491:17496   */\n      dup2\n        /* \"#utility.yul\":17484:17496   */\n      swap1\n      pop\n        /* \"#utility.yul\":17427:17502   */\n      swap2\n      swap1\n      pop\n      jump\t// out\n        /* \"#utility.yul\":17508:17777   */\n    tag_172:\n        /* \"#utility.yul\":17618:17657   */\n      tag_348\n        /* \"#utility.yul\":17649:17656   */\n      dup4\n        /* \"#utility.yul\":17618:17657   */\n      tag_170\n      jump\t// in\n    tag_348:\n        /* \"#utility.yul\":17679:17770   */\n      tag_349\n        /* \"#utility.yul\":17728:17769   */\n      tag_350\n        /* \"#utility.yul\":17752:17768   */\n      dup3\n        /* \"#utility.yul\":17728:17769   */\n      tag_171\n      jump\t// in\n    tag_350:\n        /* \"#utility.yul\":17720:17726   */\n      dup5\n        /* \"#utility.yul\":17713:17717   */\n      dup5\n        /* \"#utility.yul\":17707:17718   */\n      sload\n        /* \"#utility.yul\":17679:17770   */\n      tag_168\n      jump\t// in\n    tag_349:\n        /* \"#utility.yul\":17673:17677   */\n      dup3\n        /* \"#utility.yul\":17666:17771   */\n      sstore\n        /* \"#utility.yul\":17584:17777   */\n      pop\n        /* \"#utility.yul\":17508:17777   */\n      pop\n      pop\n      pop\n      jump\t// out\n        /* \"#utility.yul\":17783:17856   */\n    tag_173:\n        /* \"#utility.yul\":17828:17831   */\n      0x00\n        /* \"#utility.yul\":17849:17850   */\n      0x00\n        /* \"#utility.yul\":17842:17850   */\n      swap1\n      pop\n        /* \"#utility.yul\":17783:17856   */\n      swap1\n      jump\t// out\n        /* \"#utility.yul\":17862:18051   */\n    tag_174:\n        /* \"#utility.yul\":17939:17971   */\n      tag_353\n      tag_173\n      jump\t// in\n    tag_353:\n        /* \"#utility.yul\":17980:18045   */\n      tag_354\n        /* \"#utility.yul\":18038:18044   */\n      dup2\n        /* \"#utility.yul\":18030:18036   */\n      dup5\n        /* \"#utility.yul\":18024:18028   */\n      dup5\n        /* \"#utility.yul\":17980:18045   */\n      tag_172\n      jump\t// in\n    tag_354:\n        /* \"#utility.yul\":17915:18051   */\n      pop\n        /* \"#utility.yul\":17862:18051   */\n      pop\n      pop\n      jump\t// out\n        /* \"#utility.yul\":18057:18243   */\n    tag_175:\n        /* \"#utility.yul\":18117:18237   */\n    tag_356:\n        /* \"#utility.yul\":18134:18137   */\n      dup2\n        /* \"#utility.yul\":18127:18132   */\n      dup2\n        /* \"#utility.yul\":18124:18138   */\n      lt\n        /* \"#utility.yul\":18117:18237   */\n      iszero\n      tag_358\n      jumpi\n        /* \"#utility.yul\":18188:18227   */\n      tag_359\n        /* \"#utility.yul\":18225:18226   */\n      0x00\n        /* \"#utility.yul\":18218:18223   */\n      dup3\n        /* \"#utility.yul\":18188:18227   */\n      tag_174\n      jump\t// in\n    tag_359:\n        /* \"#utility.yul\":18161:18162   */\n      0x01\n        /* \"#utility.yul\":18154:18159   */\n      dup2\n        /* \"#utility.yul\":18150:18163   */\n      add\n        /* \"#utility.yul\":18141:18163   */\n      swap1\n      pop\n        /* \"#utility.yul\":18117:18237   */\n      jump(tag_356)\n    tag_358:\n        /* \"#utility.yul\":18057:18243   */\n      pop\n      pop\n      jump\t// out\n        /* \"#utility.yul\":18249:18792   */\n    tag_176:\n        /* \"#utility.yul\":18350:18352   */\n      0x1f\n        /* \"#utility.yul\":18345:18348   */\n      dup3\n        /* \"#utility.yul\":18342:18353   */\n      gt\n        /* \"#utility.yul\":18339:18785   */\n      iszero\n      tag_361\n      jumpi\n        /* \"#utility.yul\":18384:18422   */\n      tag_362\n        /* \"#utility.yul\":18416:18421   */\n      dup2\n        /* \"#utility.yul\":18384:18422   */\n      tag_165\n      jump\t// in\n    tag_362:\n        /* \"#utility.yul\":18468:18497   */\n      tag_363\n        /* \"#utility.yul\":18486:18496   */\n      dup5\n        /* \"#utility.yul\":18468:18497   */\n      tag_166\n      jump\t// in\n    tag_363:\n        /* \"#utility.yul\":18458:18466   */\n      dup2\n        /* \"#utility.yul\":18454:18498   */\n      add\n        /* \"#utility.yul\":18651:18653   */\n      0x20\n        /* \"#utility.yul\":18639:18649   */\n      dup6\n        /* \"#utility.yul\":18636:18654   */\n      lt\n        /* \"#utility.yul\":18633:18682   */\n      iszero\n      tag_364\n      jumpi\n        /* \"#utility.yul\":18672:18680   */\n      dup2\n        /* \"#utility.yul\":18657:18680   */\n      swap1\n      pop\n        /* \"#utility.yul\":18633:18682   */\n    tag_364:\n        /* \"#utility.yul\":18695:18775   */\n      tag_365\n        /* \"#utility.yul\":18751:18773   */\n      tag_366\n        /* \"#utility.yul\":18769:18772   */\n      dup6\n        /* \"#utility.yul\":18751:18773   */\n      tag_166\n      jump\t// in\n    tag_366:\n        /* \"#utility.yul\":18741:18749   */\n      dup4\n        /* \"#utility.yul\":18737:18774   */\n      add\n        /* \"#utility.yul\":18724:18735   */\n      dup3\n        /* \"#utility.yul\":18695:18775   */\n      tag_175\n      jump\t// in\n    tag_365:\n        /* \"#utility.yul\":18354:18785   */\n      pop\n      pop\n        /* \"#utility.yul\":18339:18785   */\n    tag_361:\n        /* \"#utility.yul\":18249:18792   */\n      pop\n      pop\n      pop\n      jump\t// out\n        /* \"#utility.yul\":18798:18915   */\n    tag_177:\n        /* \"#utility.yul\":18852:18860   */\n      0x00\n        /* \"#utility.yul\":18902:18907   */\n      dup3\n        /* \"#utility.yul\":18896:18900   */\n      dup3\n        /* \"#utility.yul\":18892:18908   */\n      shr\n        /* \"#utility.yul\":18871:18908   */\n      swap1\n      pop\n        /* \"#utility.yul\":18798:18915   */\n      swap3\n      swap2\n      pop\n      pop\n      jump\t// out\n        /* \"#utility.yul\":18921:19090   */\n    tag_178:\n        /* \"#utility.yul\":18965:18971   */\n      0x00\n        /* \"#utility.yul\":18998:19049   */\n      tag_369\n        /* \"#utility.yul\":19046:19047   */\n      0x00\n        /* \"#utility.yul\":19042:19048   */\n      not\n        /* \"#utility.yul\":19034:19039   */\n      dup5\n        /* \"#utility.yul\":19031:19032   */\n      0x08\n        /* \"#utility.yul\":19027:19040   */\n      mul\n        /* \"#utility.yul\":18998:19049   */\n      tag_177\n      jump\t// in\n    tag_369:\n        /* \"#utility.yul\":18994:19050   */\n      not\n        /* \"#utility.yul\":19079:19083   */\n      dup1\n        /* \"#utility.yul\":19073:19077   */\n      dup4\n        /* \"#utility.yul\":19069:19084   */\n      and\n        /* \"#utility.yul\":19059:19084   */\n      swap2\n      pop\n        /* \"#utility.yul\":18972:19090   */\n      pop\n        /* \"#utility.yul\":18921:19090   */\n      swap3\n      swap2\n      pop\n      pop\n      jump\t// out\n        /* \"#utility.yul\":19095:19390   */\n    tag_179:\n        /* \"#utility.yul\":19171:19175   */\n      0x00\n        /* \"#utility.yul\":19317:19346   */\n      tag_371\n        /* \"#utility.yul\":19342:19345   */\n      dup4\n        /* \"#utility.yul\":19336:19340   */\n      dup4\n        /* \"#utility.yul\":19317:19346   */\n      tag_178\n      jump\t// in\n    tag_371:\n        /* \"#utility.yul\":19309:19346   */\n      swap2\n      pop\n        /* \"#utility.yul\":19379:19382   */\n      dup3\n        /* \"#utility.yul\":19376:19377   */\n      0x02\n        /* \"#utility.yul\":19372:19383   */\n      mul\n        /* \"#utility.yul\":19366:19370   */\n      dup3\n        /* \"#utility.yul\":19363:19384   */\n      or\n        /* \"#utility.yul\":19355:19384   */\n      swap1\n      pop\n        /* \"#utility.yul\":19095:19390   */\n      swap3\n      swap2\n      pop\n      pop\n      jump\t// out\n        /* \"#utility.yul\":19395:20790   */\n    tag_97:\n        /* \"#utility.yul\":19512:19549   */\n      tag_373\n        /* \"#utility.yul\":19545:19548   */\n      dup3\n        /* \"#utility.yul\":19512:19549   */\n      tag_129\n      jump\t// in\n    tag_373:\n        /* \"#utility.yul\":19614:19632   */\n      0xffffffffffffffff\n        /* \"#utility.yul\":19606:19612   */\n      dup2\n        /* \"#utility.yul\":19603:19633   */\n      gt\n        /* \"#utility.yul\":19600:19656   */\n      iszero\n      tag_374\n      jumpi\n        /* \"#utility.yul\":19636:19654   */\n      tag_375\n      tag_141\n      jump\t// in\n    tag_375:\n        /* \"#utility.yul\":19600:19656   */\n    tag_374:\n        /* \"#utility.yul\":19680:19718   */\n      tag_376\n        /* \"#utility.yul\":19712:19716   */\n      dup3\n        /* \"#utility.yul\":19706:19717   */\n      sload\n        /* \"#utility.yul\":19680:19718   */\n      tag_65\n      jump\t// in\n    tag_376:\n        /* \"#utility.yul\":19765:19832   */\n      tag_377\n        /* \"#utility.yul\":19825:19831   */\n      dup3\n        /* \"#utility.yul\":19817:19823   */\n      dup3\n        /* \"#utility.yul\":19811:19815   */\n      dup6\n        /* \"#utility.yul\":19765:19832   */\n      tag_176\n      jump\t// in\n    tag_377:\n        /* \"#utility.yul\":19859:19860   */\n      0x00\n        /* \"#utility.yul\":19883:19887   */\n      0x20\n        /* \"#utility.yul\":19870:19887   */\n      swap1\n      pop\n        /* \"#utility.yul\":19915:19917   */\n      0x1f\n        /* \"#utility.yul\":19907:19913   */\n      dup4\n        /* \"#utility.yul\":19904:19918   */\n      gt\n        /* \"#utility.yul\":19932:19933   */\n      0x01\n        /* \"#utility.yul\":19927:20545   */\n      dup2\n      eq\n      tag_379\n      jumpi\n        /* \"#utility.yul\":20589:20590   */\n      0x00\n        /* \"#utility.yul\":20606:20612   */\n      dup5\n        /* \"#utility.yul\":20603:20680   */\n      iszero\n      tag_380\n      jumpi\n        /* \"#utility.yul\":20655:20664   */\n      dup3\n        /* \"#utility.yul\":20650:20653   */\n      dup8\n        /* \"#utility.yul\":20646:20665   */\n      add\n        /* \"#utility.yul\":20640:20666   */\n      mload\n        /* \"#utility.yul\":20631:20666   */\n      swap1\n      pop\n        /* \"#utility.yul\":20603:20680   */\n    tag_380:\n        /* \"#utility.yul\":20706:20773   */\n      tag_381\n        /* \"#utility.yul\":20766:20772   */\n      dup6\n        /* \"#utility.yul\":20759:20764   */\n      dup3\n        /* \"#utility.yul\":20706:20773   */\n      tag_179\n      jump\t// in\n    tag_381:\n        /* \"#utility.yul\":20700:20704   */\n      dup7\n        /* \"#utility.yul\":20693:20774   */\n      sstore\n        /* \"#utility.yul\":20562:20784   */\n      pop\n        /* \"#utility.yul\":19897:20784   */\n      jump(tag_378)\n        /* \"#utility.yul\":19927:20545   */\n    tag_379:\n        /* \"#utility.yul\":19979:19983   */\n      0x1f\n        /* \"#utility.yul\":19975:19984   */\n      not\n        /* \"#utility.yul\":19967:19973   */\n      dup5\n        /* \"#utility.yul\":19963:19985   */\n      and\n        /* \"#utility.yul\":20013:20050   */\n      tag_382\n        /* \"#utility.yul\":20045:20049   */\n      dup7\n        /* \"#utility.yul\":20013:20050   */\n      tag_165\n      jump\t// in\n    tag_382:\n        /* \"#utility.yul\":20072:20073   */\n      0x00\n        /* \"#utility.yul\":20086:20294   */\n    tag_383:\n        /* \"#utility.yul\":20100:20107   */\n      dup3\n        /* \"#utility.yul\":20097:20098   */\n      dup2\n        /* \"#utility.yul\":20094:20108   */\n      lt\n        /* \"#utility.yul\":20086:20294   */\n      iszero\n      tag_385\n      jumpi\n        /* \"#utility.yul\":20179:20188   */\n      dup5\n        /* \"#utility.yul\":20174:20177   */\n      dup10\n        /* \"#utility.yul\":20170:20189   */\n      add\n        /* \"#utility.yul\":20164:20190   */\n      mload\n        /* \"#utility.yul\":20156:20162   */\n      dup3\n        /* \"#utility.yul\":20149:20191   */\n      sstore\n        /* \"#utility.yul\":20230:20231   */\n      0x01\n        /* \"#utility.yul\":20222:20228   */\n      dup3\n        /* \"#utility.yul\":20218:20232   */\n      add\n        /* \"#utility.yul\":20208:20232   */\n      swap2\n      pop\n        /* \"#utility.yul\":20277:20279   */\n      0x20\n        /* \"#utility.yul\":20266:20275   */\n      dup6\n        /* \"#utility.yul\":20262:20280   */\n      add\n        /* \"#utility.yul\":20249:20280   */\n      swap5\n      pop\n        /* \"#utility.yul\":20123:20127   */\n      0x20\n        /* \"#utility.yul\":20120:20121   */\n      dup2\n        /* \"#utility.yul\":20116:20128   */\n      add\n        /* \"#utility.yul\":20111:20128   */\n      swap1\n      pop\n        /* \"#utility.yul\":20086:20294   */\n      jump(tag_383)\n    tag_385:\n        /* \"#utility.yul\":20322:20328   */\n      dup7\n        /* \"#utility.yul\":20313:20320   */\n      dup4\n        /* \"#utility.yul\":20310:20329   */\n      lt\n        /* \"#utility.yul\":20307:20486   */\n      iszero\n      tag_386\n      jumpi\n        /* \"#utility.yul\":20380:20389   */\n      dup5\n        /* \"#utility.yul\":20375:20378   */\n      dup10\n        /* \"#utility.yul\":20371:20390   */\n      add\n        /* \"#utility.yul\":20365:20391   */\n      mload\n        /* \"#utility.yul\":20423:20471   */\n      tag_387\n        /* \"#utility.yul\":20465:20469   */\n      0x1f\n        /* \"#utility.yul\":20457:20463   */\n      dup10\n        /* \"#utility.yul\":20453:20470   */\n      and\n        /* \"#utility.yul\":20442:20451   */\n      dup3\n        /* \"#utility.yul\":20423:20471   */\n      tag_178\n      jump\t// in\n    tag_387:\n        /* \"#utility.yul\":20415:20421   */\n      dup4\n        /* \"#utility.yul\":20408:20472   */\n      sstore\n        /* \"#utility.yul\":20330:20486   */\n      pop\n        /* \"#utility.yul\":20307:20486   */\n    tag_386:\n        /* \"#utility.yul\":20532:20533   */\n      0x01\n        /* \"#utility.yul\":20528:20529   */\n      0x02\n        /* \"#utility.yul\":20520:20526   */\n      dup9\n        /* \"#utility.yul\":20516:20530   */\n      mul\n        /* \"#utility.yul\":20512:20534   */\n      add\n        /* \"#utility.yul\":20506:20510   */\n      dup9\n        /* \"#utility.yul\":20499:20535   */\n      sstore\n        /* \"#utility.yul\":19934:20545   */\n      pop\n      pop\n      pop\n        /* \"#utility.yul\":19897:20784   */\n    tag_378:\n      pop\n        /* \"#utility.yul\":19487:20790   */\n      pop\n      pop\n      pop\n        /* \"#utility.yul\":19395:20790   */\n      pop\n      pop\n      jump\t// out\n        /* \"#utility.yul\":20796:20966   */\n    tag_180:\n        /* \"#utility.yul\":20936:20958   */\n      0x4d6178696d756d20726174696e67206973203130000000000000000000000000\n        /* \"#utility.yul\":20932:20933   */\n      0x00\n        /* \"#utility.yul\":20924:20930   */\n      dup3\n        /* \"#utility.yul\":20920:20934   */\n      add\n        /* \"#utility.yul\":20913:20959   */\n      mstore\n        /* \"#utility.yul\":20796:20966   */\n      pop\n      jump\t// out\n        /* \"#utility.yul\":20972:21338   */\n    tag_181:\n        /* \"#utility.yul\":21114:21117   */\n      0x00\n        /* \"#utility.yul\":21135:21202   */\n      tag_390\n        /* \"#utility.yul\":21199:21201   */\n      0x14\n        /* \"#utility.yul\":21194:21197   */\n      dup4\n        /* \"#utility.yul\":21135:21202   */\n      tag_153\n      jump\t// in\n    tag_390:\n        /* \"#utility.yul\":21128:21202   */\n      swap2\n      pop\n        /* \"#utility.yul\":21211:21304   */\n      tag_391\n        /* \"#utility.yul\":21300:21303   */\n      dup3\n        /* \"#utility.yul\":21211:21304   */\n      tag_180\n      jump\t// in\n    tag_391:\n        /* \"#utility.yul\":21329:21331   */\n      0x20\n        /* \"#utility.yul\":21324:21327   */\n      dup3\n        /* \"#utility.yul\":21320:21332   */\n      add\n        /* \"#utility.yul\":21313:21332   */\n      swap1\n      pop\n        /* \"#utility.yul\":20972:21338   */\n      swap2\n      swap1\n      pop\n      jump\t// out\n        /* \"#utility.yul\":21344:21763   */\n    tag_105:\n        /* \"#utility.yul\":21510:21514   */\n      0x00\n        /* \"#utility.yul\":21548:21550   */\n      0x20\n        /* \"#utility.yul\":21537:21546   */\n      dup3\n        /* \"#utility.yul\":21533:21551   */\n      add\n        /* \"#utility.yul\":21525:21551   */\n      swap1\n      pop\n        /* \"#utility.yul\":21597:21606   */\n      dup2\n        /* \"#utility.yul\":21591:21595   */\n      dup2\n        /* \"#utility.yul\":21587:21607   */\n      sub\n        /* \"#utility.yul\":21583:21584   */\n      0x00\n        /* \"#utility.yul\":21572:21581   */\n      dup4\n        /* \"#utility.yul\":21568:21585   */\n      add\n        /* \"#utility.yul\":21561:21608   */\n      mstore\n        /* \"#utility.yul\":21625:21756   */\n      tag_393\n        /* \"#utility.yul\":21751:21755   */\n      dup2\n        /* \"#utility.yul\":21625:21756   */\n      tag_181\n      jump\t// in\n    tag_393:\n        /* \"#utility.yul\":21617:21756   */\n      swap1\n      pop\n        /* \"#utility.yul\":21344:21763   */\n      swap2\n      swap1\n      pop\n      jump\t// out\n\n    auxdata: 0xa264697066735822122049a3874487da38c3aa1205816f52d08d28445756719c8ca7a2308892727154f264736f6c634300081c0033\n}\n",
				"bytecode": {
					"linkReferences": {},
					"object": "6080604052348015600e575f5ffd5b50335f5f6101000a81548173ffffffffffffffffffffffffffffffffffffffff021916908373ffffffffffffffffffffffffffffffffffffffff1602179055506115698061005b5f395ff3fe608060405234801561000f575f5ffd5b5060043610610091575f3560e01c8063bbbc6a3111610064578063bbbc6a3114610141578063d280267d1461015d578063d352092d1461018d578063e5b870e4146101a9578063f851a440146101c557610091565b80634cac35c6146100955780636c8548ff146100c55780638798a47b146100f55780638c48e91214610125575b5f5ffd5b6100af60048036038101906100aa9190610aa8565b6101e3565b6040516100bc9190610b8c565b60405180910390f35b6100df60048036038101906100da9190610aa8565b6102fd565b6040516100ec9190610bbb565b60405180910390f35b61010f600480360381019061010a9190610aa8565b610326565b60405161011c9190610c7b565b60405180910390f35b61013f600480360381019061013a9190610df1565b6104fe565b005b61015b60048036038101906101569190610ed6565b610653565b005b61017760048036038101906101729190610aa8565b610755565b6040516101849190610f5c565b60405180910390f35b6101a760048036038101906101a29190610f7c565b610892565b005b6101c360048036038101906101be9190610fd6565b610981565b005b6101cd6109f3565b6040516101da9190611081565b60405180910390f35b6101eb610a17565b6002805490508210610232576040517f08c379a0000000000000000000000000000000000000000000000000000000008152600401610229906110e4565b60405180910390fd5b6002828154811061024657610245611102565b5b905f5260205f2090600202016040518060400160405290815f82015481526020016001820180546102769061115c565b80601f01602080910402602001604051908101604052809291908181526020018280546102a29061115c565b80156102ed5780601f106102c4576101008083540402835291602001916102ed565b820191905f5260205f20905b8154815290600101906020018083116102d057829003601f168201915b5050505050815250509050919050565b5f60035f8381526020019081526020015f205f9054906101000a900460ff1660ff169050919050565b61032e610a30565b6001805490508210610375576040517f08c379a000000000000000000000000000000000000000000000000000000000815260040161036c906111d6565b60405180910390fd5b6001828154811061038957610388611102565b5b905f5260205f2090600602016040518060c00160405290815f820180546103af9061115c565b80601f01602080910402602001604051908101604052809291908181526020018280546103db9061115c565b80156104265780601f106103fd57610100808354040283529160200191610426565b820191905f5260205f20905b81548152906001019060200180831161040957829003601f168201915b5050505050815260200160018201805461043f9061115c565b80601f016020809104026020016040519081016040528092919081815260200182805461046b9061115c565b80156104b65780601f1061048d576101008083540402835291602001916104b6565b820191905f5260205f20905b81548152906001019060200180831161049957829003601f168201915b50505050508152602001600282015481526020016003820154815260200160048201548152602001600582015f9054906101000a900460ff1615151515815250509050919050565b5f5f9054906101000a900473ffffffffffffffffffffffffffffffffffffffff1673ffffffffffffffffffffffffffffffffffffffff163373ffffffffffffffffffffffffffffffffffffffff161461058c576040517f08c379a00000000000000000000000000000000000000000000000000000000081526004016105839061123e565b60405180910390fd5b60016040518060c001604052808781526020018681526020018581526020015f8152602001848152602001831515815250908060018154018082558091505060019003905f5260205f2090600602015f909190919091505f820151815f0190816105f691906113fc565b50602082015181600101908161060c91906113fc565b5060408201518160020155606082015181600301556080820151816004015560a0820151816005015f6101000a81548160ff02191690831515021790555050505050505050565b5f5f9054906101000a900473ffffffffffffffffffffffffffffffffffffffff1673ffffffffffffffffffffffffffffffffffffffff163373ffffffffffffffffffffffffffffffffffffffff16146106e1576040517f08c379a00000000000000000000000000000000000000000000000000000000081526004016106d89061123e565b60405180910390fd5b600a8160ff161115610728576040517f08c379a000000000000000000000000000000000000000000000000000000000815260040161071f90611515565b60405180910390fd5b8060035f8481526020019081526020015f205f6101000a81548160ff021916908360ff1602179055505050565b60605f60035f8481526020019081526020015f205f9054906101000a900460ff16905060088160ff16106107c1576040518060400160405280600381526020017f50726f000000000000000000000000000000000000000000000000000000000081525091505061088d565b60068160ff161061080a576040518060400160405280600b81526020017f457870657269656e63656400000000000000000000000000000000000000000081525091505061088d565b60048160ff1610610853576040518060400160405280600481526020017f476f6f640000000000000000000000000000000000000000000000000000000081525091505061088d565b6040518060400160405280600681526020017f4e657762696500000000000000000000000000000000000000000000000000008152509150505b919050565b5f5f9054906101000a900473ffffffffffffffffffffffffffffffffffffffff1673ffffffffffffffffffffffffffffffffffffffff163373ffffffffffffffffffffffffffffffffffffffff1614610920576040517f08c379a00000000000000000000000000000000000000000000000000000000081526004016109179061123e565b60405180910390fd5b6002604051806040016040528084815260200183815250908060018154018082558091505060019003905f5260205f2090600202015f909190919091505f820151815f0155602082015181600101908161097a91906113fc565b5050505050565b6004604051806060016040528085815260200184815260200183815250908060018154018082558091505060019003905f5260205f2090600302015f909190919091505f820151815f01556020820151816001015560408201518160020190816109eb91906113fc565b505050505050565b5f5f9054906101000a900473ffffffffffffffffffffffffffffffffffffffff1681565b60405180604001604052805f8152602001606081525090565b6040518060c0016040528060608152602001606081526020015f81526020015f81526020015f81526020015f151581525090565b5f604051905090565b5f5ffd5b5f5ffd5b5f819050919050565b610a8781610a75565b8114610a91575f5ffd5b50565b5f81359050610aa281610a7e565b92915050565b5f60208284031215610abd57610abc610a6d565b5b5f610aca84828501610a94565b91505092915050565b610adc81610a75565b82525050565b5f81519050919050565b5f82825260208201905092915050565b8281835e5f83830152505050565b5f601f19601f8301169050919050565b5f610b2482610ae2565b610b2e8185610aec565b9350610b3e818560208601610afc565b610b4781610b0a565b840191505092915050565b5f604083015f830151610b675f860182610ad3565b5060208301518482036020860152610b7f8282610b1a565b9150508091505092915050565b5f6020820190508181035f830152610ba48184610b52565b905092915050565b610bb581610a75565b82525050565b5f602082019050610bce5f830184610bac565b92915050565b5f8115159050919050565b610be881610bd4565b82525050565b5f60c083015f8301518482035f860152610c088282610b1a565b91505060208301518482036020860152610c228282610b1a565b9150506040830151610c376040860182610ad3565b506060830151610c4a6060860182610ad3565b506080830151610c5d6080860182610ad3565b5060a0830151610c7060a0860182610bdf565b508091505092915050565b5f6020820190508181035f830152610c938184610bee565b905092915050565b5f5ffd5b5f5ffd5b7f4e487b71000000000000000000000000000000000000000000000000000000005f52604160045260245ffd5b610cd982610b0a565b810181811067ffffffffffffffff82111715610cf857610cf7610ca3565b5b80604052505050565b5f610d0a610a64565b9050610d168282610cd0565b919050565b5f67ffffffffffffffff821115610d3557610d34610ca3565b5b610d3e82610b0a565b9050602081019050919050565b828183375f83830152505050565b5f610d6b610d6684610d1b565b610d01565b905082815260208101848484011115610d8757610d86610c9f565b5b610d92848285610d4b565b509392505050565b5f82601f830112610dae57610dad610c9b565b5b8135610dbe848260208601610d59565b91505092915050565b610dd081610bd4565b8114610dda575f5ffd5b50565b5f81359050610deb81610dc7565b92915050565b5f5f5f5f5f60a08688031215610e0a57610e09610a6d565b5b5f86013567ffffffffffffffff811115610e2757610e26610a71565b5b610e3388828901610d9a565b955050602086013567ffffffffffffffff811115610e5457610e53610a71565b5b610e6088828901610d9a565b9450506040610e7188828901610a94565b9350506060610e8288828901610a94565b9250506080610e9388828901610ddd565b9150509295509295909350565b5f60ff82169050919050565b610eb581610ea0565b8114610ebf575f5ffd5b50565b5f81359050610ed081610eac565b92915050565b5f5f60408385031215610eec57610eeb610a6d565b5b5f610ef985828601610a94565b9250506020610f0a85828601610ec2565b9150509250929050565b5f82825260208201905092915050565b5f610f2e82610ae2565b610f388185610f14565b9350610f48818560208601610afc565b610f5181610b0a565b840191505092915050565b5f6020820190508181035f830152610f748184610f24565b905092915050565b5f5f60408385031215610f9257610f91610a6d565b5b5f610f9f85828601610a94565b925050602083013567ffffffffffffffff811115610fc057610fbf610a71565b5b610fcc85828601610d9a565b9150509250929050565b5f5f5f60608486031215610fed57610fec610a6d565b5b5f610ffa86828701610a94565b935050602061100b86828701610a94565b925050604084013567ffffffffffffffff81111561102c5761102b610a71565b5b61103886828701610d9a565b9150509250925092565b5f73ffffffffffffffffffffffffffffffffffffffff82169050919050565b5f61106b82611042565b9050919050565b61107b81611061565b82525050565b5f6020820190506110945f830184611072565b92915050565b7f4a6f6220494420646f6573206e6f7420657869737400000000000000000000005f82015250565b5f6110ce601583610f14565b91506110d98261109a565b602082019050919050565b5f6020820190508181035f8301526110fb816110c2565b9050919050565b7f4e487b71000000000000000000000000000000000000000000000000000000005f52603260045260245ffd5b7f4e487b71000000000000000000000000000000000000000000000000000000005f52602260045260245ffd5b5f600282049050600182168061117357607f821691505b6020821081036111865761118561112f565b5b50919050565b7f4170706c6963616e7420494420646f6573206e6f7420657869737400000000005f82015250565b5f6111c0601b83610f14565b91506111cb8261118c565b602082019050919050565b5f6020820190508181035f8301526111ed816111b4565b9050919050565b7f596f7520617265206e6f74207468652061646d696e00000000000000000000005f82015250565b5f611228601583610f14565b9150611233826111f4565b602082019050919050565b5f6020820190508181035f8301526112558161121c565b9050919050565b5f819050815f5260205f209050919050565b5f6020601f8301049050919050565b5f82821b905092915050565b5f600883026112b87fffffffffffffffffffffffffffffffffffffffffffffffffffffffffffffffff8261127d565b6112c2868361127d565b95508019841693508086168417925050509392505050565b5f819050919050565b5f6112fd6112f86112f384610a75565b6112da565b610a75565b9050919050565b5f819050919050565b611316836112e3565b61132a61132282611304565b848454611289565b825550505050565b5f5f905090565b611341611332565b61134c81848461130d565b505050565b5b8181101561136f576113645f82611339565b600181019050611352565b5050565b601f8211156113b4576113858161125c565b61138e8461126e565b8101602085101561139d578190505b6113b16113a98561126e565b830182611351565b50505b505050565b5f82821c905092915050565b5f6113d45f19846008026113b9565b1980831691505092915050565b5f6113ec83836113c5565b9150826002028217905092915050565b61140582610ae2565b67ffffffffffffffff81111561141e5761141d610ca3565b5b611428825461115c565b611433828285611373565b5f60209050601f831160018114611464575f8415611452578287015190505b61145c85826113e1565b8655506114c3565b601f1984166114728661125c565b5f5b8281101561149957848901518255600182019150602085019450602081019050611474565b868310156114b657848901516114b2601f8916826113c5565b8355505b6001600288020188555050505b505050505050565b7f4d6178696d756d20726174696e672069732031300000000000000000000000005f82015250565b5f6114ff601483610f14565b915061150a826114cb565b602082019050919050565b5f6020820190508181035f83015261152c816114f3565b905091905056fea264697066735822122049a3874487da38c3aa1205816f52d08d28445756719c8ca7a2308892727154f264736f6c634300081c0033",
					"opcodes": "PUSH1 0x80 PUSH1 0x40 MSTORE CALLVALUE DUP1 ISZERO PUSH1 0xE JUMPI PUSH0 PUSH0 REVERT JUMPDEST POP CALLER PUSH0 PUSH0 PUSH2 0x100 EXP DUP2 SLOAD DUP2 PUSH20 0xFFFFFFFFFFFFFFFFFFFFFFFFFFFFFFFFFFFFFFFF MUL NOT AND SWAP1 DUP4 PUSH20 0xFFFFFFFFFFFFFFFFFFFFFFFFFFFFFFFFFFFFFFFF AND MUL OR SWAP1 SSTORE POP PUSH2 0x1569 DUP1 PUSH2 0x5B PUSH0 CODECOPY PUSH0 RETURN INVALID PUSH1 0x80 PUSH1 0x40 MSTORE CALLVALUE DUP1 ISZERO PUSH2 0xF JUMPI PUSH0 PUSH0 REVERT JUMPDEST POP PUSH1 0x4 CALLDATASIZE LT PUSH2 0x91 JUMPI PUSH0 CALLDATALOAD PUSH1 0xE0 SHR DUP1 PUSH4 0xBBBC6A31 GT PUSH2 0x64 JUMPI DUP1 PUSH4 0xBBBC6A31 EQ PUSH2 0x141 JUMPI DUP1 PUSH4 0xD280267D EQ PUSH2 0x15D JUMPI DUP1 PUSH4 0xD352092D EQ PUSH2 0x18D JUMPI DUP1 PUSH4 0xE5B870E4 EQ PUSH2 0x1A9 JUMPI DUP1 PUSH4 0xF851A440 EQ PUSH2 0x1C5 JUMPI PUSH2 0x91 JUMP JUMPDEST DUP1 PUSH4 0x4CAC35C6 EQ PUSH2 0x95 JUMPI DUP1 PUSH4 0x6C8548FF EQ PUSH2 0xC5 JUMPI DUP1 PUSH4 0x8798A47B EQ PUSH2 0xF5 JUMPI DUP1 PUSH4 0x8C48E912 EQ PUSH2 0x125 JUMPI JUMPDEST PUSH0 PUSH0 REVERT JUMPDEST PUSH2 0xAF PUSH1 0x4 DUP1 CALLDATASIZE SUB DUP2 ADD SWAP1 PUSH2 0xAA SWAP2 SWAP1 PUSH2 0xAA8 JUMP JUMPDEST PUSH2 0x1E3 JUMP JUMPDEST PUSH1 0x40 MLOAD PUSH2 0xBC SWAP2 SWAP1 PUSH2 0xB8C JUMP JUMPDEST PUSH1 0x40 MLOAD DUP1 SWAP2 SUB SWAP1 RETURN JUMPDEST PUSH2 0xDF PUSH1 0x4 DUP1 CALLDATASIZE SUB DUP2 ADD SWAP1 PUSH2 0xDA SWAP2 SWAP1 PUSH2 0xAA8 JUMP JUMPDEST PUSH2 0x2FD JUMP JUMPDEST PUSH1 0x40 MLOAD PUSH2 0xEC SWAP2 SWAP1 PUSH2 0xBBB JUMP JUMPDEST PUSH1 0x40 MLOAD DUP1 SWAP2 SUB SWAP1 RETURN JUMPDEST PUSH2 0x10F PUSH1 0x4 DUP1 CALLDATASIZE SUB DUP2 ADD SWAP1 PUSH2 0x10A SWAP2 SWAP1 PUSH2 0xAA8 JUMP JUMPDEST PUSH2 0x326 JUMP JUMPDEST PUSH1 0x40 MLOAD PUSH2 0x11C SWAP2 SWAP1 PUSH2 0xC7B JUMP JUMPDEST PUSH1 0x40 MLOAD DUP1 SWAP2 SUB SWAP1 RETURN JUMPDEST PUSH2 0x13F PUSH1 0x4 DUP1 CALLDATASIZE SUB DUP2 ADD SWAP1 PUSH2 0x13A SWAP2 SWAP1 PUSH2 0xDF1 JUMP JUMPDEST PUSH2 0x4FE JUMP JUMPDEST STOP JUMPDEST PUSH2 0x15B PUSH1 0x4 DUP1 CALLDATASIZE SUB DUP2 ADD SWAP1 PUSH2 0x156 SWAP2 SWAP1 PUSH2 0xED6 JUMP JUMPDEST PUSH2 0x653 JUMP JUMPDEST STOP JUMPDEST PUSH2 0x177 PUSH1 0x4 DUP1 CALLDATASIZE SUB DUP2 ADD SWAP1 PUSH2 0x172 SWAP2 SWAP1 PUSH2 0xAA8 JUMP JUMPDEST PUSH2 0x755 JUMP JUMPDEST PUSH1 0x40 MLOAD PUSH2 0x184 SWAP2 SWAP1 PUSH2 0xF5C JUMP JUMPDEST PUSH1 0x40 MLOAD DUP1 SWAP2 SUB SWAP1 RETURN JUMPDEST PUSH2 0x1A7 PUSH1 0x4 DUP1 CALLDATASIZE SUB DUP2 ADD SWAP1 PUSH2 0x1A2 SWAP2 SWAP1 PUSH2 0xF7C JUMP JUMPDEST PUSH2 0x892 JUMP JUMPDEST STOP JUMPDEST PUSH2 0x1C3 PUSH1 0x4 DUP1 CALLDATASIZE SUB DUP2 ADD SWAP1 PUSH2 0x1BE SWAP2 SWAP1 PUSH2 0xFD6 JUMP JUMPDEST PUSH2 0x981 JUMP JUMPDEST STOP JUMPDEST PUSH2 0x1CD PUSH2 0x9F3 JUMP JUMPDEST PUSH1 0x40 MLOAD PUSH2 0x1DA SWAP2 SWAP1 PUSH2 0x1081 JUMP JUMPDEST PUSH1 0x40 MLOAD DUP1 SWAP2 SUB SWAP1 RETURN JUMPDEST PUSH2 0x1EB PUSH2 0xA17 JUMP JUMPDEST PUSH1 0x2 DUP1 SLOAD SWAP1 POP DUP3 LT PUSH2 0x232 JUMPI PUSH1 0x40 MLOAD PUSH32 0x8C379A000000000000000000000000000000000000000000000000000000000 DUP2 MSTORE PUSH1 0x4 ADD PUSH2 0x229 SWAP1 PUSH2 0x10E4 JUMP JUMPDEST PUSH1 0x40 MLOAD DUP1 SWAP2 SUB SWAP1 REVERT JUMPDEST PUSH1 0x2 DUP3 DUP2 SLOAD DUP2 LT PUSH2 0x246 JUMPI PUSH2 0x245 PUSH2 0x1102 JUMP JUMPDEST JUMPDEST SWAP1 PUSH0 MSTORE PUSH1 0x20 PUSH0 KECCAK256 SWAP1 PUSH1 0x2 MUL ADD PUSH1 0x40 MLOAD DUP1 PUSH1 0x40 ADD PUSH1 0x40 MSTORE SWAP1 DUP2 PUSH0 DUP3 ADD SLOAD DUP2 MSTORE PUSH1 0x20 ADD PUSH1 0x1 DUP3 ADD DUP1 SLOAD PUSH2 0x276 SWAP1 PUSH2 0x115C JUMP JUMPDEST DUP1 PUSH1 0x1F ADD PUSH1 0x20 DUP1 SWAP2 DIV MUL PUSH1 0x20 ADD PUSH1 0x40 MLOAD SWAP1 DUP2 ADD PUSH1 0x40 MSTORE DUP1 SWAP3 SWAP2 SWAP1 DUP2 DUP2 MSTORE PUSH1 0x20 ADD DUP3 DUP1 SLOAD PUSH2 0x2A2 SWAP1 PUSH2 0x115C JUMP JUMPDEST DUP1 ISZERO PUSH2 0x2ED JUMPI DUP1 PUSH1 0x1F LT PUSH2 0x2C4 JUMPI PUSH2 0x100 DUP1 DUP4 SLOAD DIV MUL DUP4 MSTORE SWAP2 PUSH1 0x20 ADD SWAP2 PUSH2 0x2ED JUMP JUMPDEST DUP3 ADD SWAP2 SWAP1 PUSH0 MSTORE PUSH1 0x20 PUSH0 KECCAK256 SWAP1 JUMPDEST DUP2 SLOAD DUP2 MSTORE SWAP1 PUSH1 0x1 ADD SWAP1 PUSH1 0x20 ADD DUP1 DUP4 GT PUSH2 0x2D0 JUMPI DUP3 SWAP1 SUB PUSH1 0x1F AND DUP3 ADD SWAP2 JUMPDEST POP POP POP POP POP DUP2 MSTORE POP POP SWAP1 POP SWAP2 SWAP1 POP JUMP JUMPDEST PUSH0 PUSH1 0x3 PUSH0 DUP4 DUP2 MSTORE PUSH1 0x20 ADD SWAP1 DUP2 MSTORE PUSH1 0x20 ADD PUSH0 KECCAK256 PUSH0 SWAP1 SLOAD SWAP1 PUSH2 0x100 EXP SWAP1 DIV PUSH1 0xFF AND PUSH1 0xFF AND SWAP1 POP SWAP2 SWAP1 POP JUMP JUMPDEST PUSH2 0x32E PUSH2 0xA30 JUMP JUMPDEST PUSH1 0x1 DUP1 SLOAD SWAP1 POP DUP3 LT PUSH2 0x375 JUMPI PUSH1 0x40 MLOAD PUSH32 0x8C379A000000000000000000000000000000000000000000000000000000000 DUP2 MSTORE PUSH1 0x4 ADD PUSH2 0x36C SWAP1 PUSH2 0x11D6 JUMP JUMPDEST PUSH1 0x40 MLOAD DUP1 SWAP2 SUB SWAP1 REVERT JUMPDEST PUSH1 0x1 DUP3 DUP2 SLOAD DUP2 LT PUSH2 0x389 JUMPI PUSH2 0x388 PUSH2 0x1102 JUMP JUMPDEST JUMPDEST SWAP1 PUSH0 MSTORE PUSH1 0x20 PUSH0 KECCAK256 SWAP1 PUSH1 0x6 MUL ADD PUSH1 0x40 MLOAD DUP1 PUSH1 0xC0 ADD PUSH1 0x40 MSTORE SWAP1 DUP2 PUSH0 DUP3 ADD DUP1 SLOAD PUSH2 0x3AF SWAP1 PUSH2 0x115C JUMP JUMPDEST DUP1 PUSH1 0x1F ADD PUSH1 0x20 DUP1 SWAP2 DIV MUL PUSH1 0x20 ADD PUSH1 0x40 MLOAD SWAP1 DUP2 ADD PUSH1 0x40 MSTORE DUP1 SWAP3 SWAP2 SWAP1 DUP2 DUP2 MSTORE PUSH1 0x20 ADD DUP3 DUP1 SLOAD PUSH2 0x3DB SWAP1 PUSH2 0x115C JUMP JUMPDEST DUP1 ISZERO PUSH2 0x426 JUMPI DUP1 PUSH1 0x1F LT PUSH2 0x3FD JUMPI PUSH2 0x100 DUP1 DUP4 SLOAD DIV MUL DUP4 MSTORE SWAP2 PUSH1 0x20 ADD SWAP2 PUSH2 0x426 JUMP JUMPDEST DUP3 ADD SWAP2 SWAP1 PUSH0 MSTORE PUSH1 0x20 PUSH0 KECCAK256 SWAP1 JUMPDEST DUP2 SLOAD DUP2 MSTORE SWAP1 PUSH1 0x1 ADD SWAP1 PUSH1 0x20 ADD DUP1 DUP4 GT PUSH2 0x409 JUMPI DUP3 SWAP1 SUB PUSH1 0x1F AND DUP3 ADD SWAP2 JUMPDEST POP POP POP POP POP DUP2 MSTORE PUSH1 0x20 ADD PUSH1 0x1 DUP3 ADD DUP1 SLOAD PUSH2 0x43F SWAP1 PUSH2 0x115C JUMP JUMPDEST DUP1 PUSH1 0x1F ADD PUSH1 0x20 DUP1 SWAP2 DIV MUL PUSH1 0x20 ADD PUSH1 0x40 MLOAD SWAP1 DUP2 ADD PUSH1 0x40 MSTORE DUP1 SWAP3 SWAP2 SWAP1 DUP2 DUP2 MSTORE PUSH1 0x20 ADD DUP3 DUP1 SLOAD PUSH2 0x46B SWAP1 PUSH2 0x115C JUMP JUMPDEST DUP1 ISZERO PUSH2 0x4B6 JUMPI DUP1 PUSH1 0x1F LT PUSH2 0x48D JUMPI PUSH2 0x100 DUP1 DUP4 SLOAD DIV MUL DUP4 MSTORE SWAP2 PUSH1 0x20 ADD SWAP2 PUSH2 0x4B6 JUMP JUMPDEST DUP3 ADD SWAP2 SWAP1 PUSH0 MSTORE PUSH1 0x20 PUSH0 KECCAK256 SWAP1 JUMPDEST DUP2 SLOAD DUP2 MSTORE SWAP1 PUSH1 0x1 ADD SWAP1 PUSH1 0x20 ADD DUP1 DUP4 GT PUSH2 0x499 JUMPI DUP3 SWAP1 SUB PUSH1 0x1F AND DUP3 ADD SWAP2 JUMPDEST POP POP POP POP POP DUP2 MSTORE PUSH1 0x20 ADD PUSH1 0x2 DUP3 ADD SLOAD DUP2 MSTORE PUSH1 0x20 ADD PUSH1 0x3 DUP3 ADD SLOAD DUP2 MSTORE PUSH1 0x20 ADD PUSH1 0x4 DUP3 ADD SLOAD DUP2 MSTORE PUSH1 0x20 ADD PUSH1 0x5 DUP3 ADD PUSH0 SWAP1 SLOAD SWAP1 PUSH2 0x100 EXP SWAP1 DIV PUSH1 0xFF AND ISZERO ISZERO ISZERO ISZERO DUP2 MSTORE POP POP SWAP1 POP SWAP2 SWAP1 POP JUMP JUMPDEST PUSH0 PUSH0 SWAP1 SLOAD SWAP1 PUSH2 0x100 EXP SWAP1 DIV PUSH20 0xFFFFFFFFFFFFFFFFFFFFFFFFFFFFFFFFFFFFFFFF AND PUSH20 0xFFFFFFFFFFFFFFFFFFFFFFFFFFFFFFFFFFFFFFFF AND CALLER PUSH20 0xFFFFFFFFFFFFFFFFFFFFFFFFFFFFFFFFFFFFFFFF AND EQ PUSH2 0x58C JUMPI PUSH1 0x40 MLOAD PUSH32 0x8C379A000000000000000000000000000000000000000000000000000000000 DUP2 MSTORE PUSH1 0x4 ADD PUSH2 0x583 SWAP1 PUSH2 0x123E JUMP JUMPDEST PUSH1 0x40 MLOAD DUP1 SWAP2 SUB SWAP1 REVERT JUMPDEST PUSH1 0x1 PUSH1 0x40 MLOAD DUP1 PUSH1 0xC0 ADD PUSH1 0x40 MSTORE DUP1 DUP8 DUP2 MSTORE PUSH1 0x20 ADD DUP7 DUP2 MSTORE PUSH1 0x20 ADD DUP6 DUP2 MSTORE PUSH1 0x20 ADD PUSH0 DUP2 MSTORE PUSH1 0x20 ADD DUP5 DUP2 MSTORE PUSH1 0x20 ADD DUP4 ISZERO ISZERO DUP2 MSTORE POP SWAP1 DUP1 PUSH1 0x1 DUP2 SLOAD ADD DUP1 DUP3 SSTORE DUP1 SWAP2 POP POP PUSH1 0x1 SWAP1 SUB SWAP1 PUSH0 MSTORE PUSH1 0x20 PUSH0 KECCAK256 SWAP1 PUSH1 0x6 MUL ADD PUSH0 SWAP1 SWAP2 SWAP1 SWAP2 SWAP1 SWAP2 POP PUSH0 DUP3 ADD MLOAD DUP2 PUSH0 ADD SWAP1 DUP2 PUSH2 0x5F6 SWAP2 SWAP1 PUSH2 0x13FC JUMP JUMPDEST POP PUSH1 0x20 DUP3 ADD MLOAD DUP2 PUSH1 0x1 ADD SWAP1 DUP2 PUSH2 0x60C SWAP2 SWAP1 PUSH2 0x13FC JUMP JUMPDEST POP PUSH1 0x40 DUP3 ADD MLOAD DUP2 PUSH1 0x2 ADD SSTORE PUSH1 0x60 DUP3 ADD MLOAD DUP2 PUSH1 0x3 ADD SSTORE PUSH1 0x80 DUP3 ADD MLOAD DUP2 PUSH1 0x4 ADD SSTORE PUSH1 0xA0 DUP3 ADD MLOAD DUP2 PUSH1 0x5 ADD PUSH0 PUSH2 0x100 EXP DUP2 SLOAD DUP2 PUSH1 0xFF MUL NOT AND SWAP1 DUP4 ISZERO ISZERO MUL OR SWAP1 SSTORE POP POP POP POP POP POP POP POP JUMP JUMPDEST PUSH0 PUSH0 SWAP1 SLOAD SWAP1 PUSH2 0x100 EXP SWAP1 DIV PUSH20 0xFFFFFFFFFFFFFFFFFFFFFFFFFFFFFFFFFFFFFFFF AND PUSH20 0xFFFFFFFFFFFFFFFFFFFFFFFFFFFFFFFFFFFFFFFF AND CALLER PUSH20 0xFFFFFFFFFFFFFFFFFFFFFFFFFFFFFFFFFFFFFFFF AND EQ PUSH2 0x6E1 JUMPI PUSH1 0x40 MLOAD PUSH32 0x8C379A000000000000000000000000000000000000000000000000000000000 DUP2 MSTORE PUSH1 0x4 ADD PUSH2 0x6D8 SWAP1 PUSH2 0x123E JUMP JUMPDEST PUSH1 0x40 MLOAD DUP1 SWAP2 SUB SWAP1 REVERT JUMPDEST PUSH1 0xA DUP2 PUSH1 0xFF AND GT ISZERO PUSH2 0x728 JUMPI PUSH1 0x40 MLOAD PUSH32 0x8C379A000000000000000000000000000000000000000000000000000000000 DUP2 MSTORE PUSH1 0x4 ADD PUSH2 0x71F SWAP1 PUSH2 0x1515 JUMP JUMPDEST PUSH1 0x40 MLOAD DUP1 SWAP2 SUB SWAP1 REVERT JUMPDEST DUP1 PUSH1 0x3 PUSH0 DUP5 DUP2 MSTORE PUSH1 0x20 ADD SWAP1 DUP2 MSTORE PUSH1 0x20 ADD PUSH0 KECCAK256 PUSH0 PUSH2 0x100 EXP DUP2 SLOAD DUP2 PUSH1 0xFF MUL NOT AND SWAP1 DUP4 PUSH1 0xFF AND MUL OR SWAP1 SSTORE POP POP POP JUMP JUMPDEST PUSH1 0x60 PUSH0 PUSH1 0x3 PUSH0 DUP5 DUP2 MSTORE PUSH1 0x20 ADD SWAP1 DUP2 MSTORE PUSH1 0x20 ADD PUSH0 KECCAK256 PUSH0 SWAP1 SLOAD SWAP1 PUSH2 0x100 EXP SWAP1 DIV PUSH1 0xFF AND SWAP1 POP PUSH1 0x8 DUP2 PUSH1 0xFF AND LT PUSH2 0x7C1 JUMPI PUSH1 0x40 MLOAD DUP1 PUSH1 0x40 ADD PUSH1 0x40 MSTORE DUP1 PUSH1 0x3 DUP2 MSTORE PUSH1 0x20 ADD PUSH32 0x50726F0000000000000000000000000000000000000000000000000000000000 DUP2 MSTORE POP SWAP2 POP POP PUSH2 0x88D JUMP JUMPDEST PUSH1 0x6 DUP2 PUSH1 0xFF AND LT PUSH2 0x80A JUMPI PUSH1 0x40 MLOAD DUP1 PUSH1 0x40 ADD PUSH1 0x40 MSTORE DUP1 PUSH1 0xB DUP2 MSTORE PUSH1 0x20 ADD PUSH32 0x457870657269656E636564000000000000000000000000000000000000000000 DUP2 MSTORE POP SWAP2 POP POP PUSH2 0x88D JUMP JUMPDEST PUSH1 0x4 DUP2 PUSH1 0xFF AND LT PUSH2 0x853 JUMPI PUSH1 0x40 MLOAD DUP1 PUSH1 0x40 ADD PUSH1 0x40 MSTORE DUP1 PUSH1 0x4 DUP2 MSTORE PUSH1 0x20 ADD PUSH32 0x476F6F6400000000000000000000000000000000000000000000000000000000 DUP2 MSTORE POP SWAP2 POP POP PUSH2 0x88D JUMP JUMPDEST PUSH1 0x40 MLOAD DUP1 PUSH1 0x40 ADD PUSH1 0x40 MSTORE DUP1 PUSH1 0x6 DUP2 MSTORE PUSH1 0x20 ADD PUSH32 0x4E65776269650000000000000000000000000000000000000000000000000000 DUP2 MSTORE POP SWAP2 POP POP JUMPDEST SWAP2 SWAP1 POP JUMP JUMPDEST PUSH0 PUSH0 SWAP1 SLOAD SWAP1 PUSH2 0x100 EXP SWAP1 DIV PUSH20 0xFFFFFFFFFFFFFFFFFFFFFFFFFFFFFFFFFFFFFFFF AND PUSH20 0xFFFFFFFFFFFFFFFFFFFFFFFFFFFFFFFFFFFFFFFF AND CALLER PUSH20 0xFFFFFFFFFFFFFFFFFFFFFFFFFFFFFFFFFFFFFFFF AND EQ PUSH2 0x920 JUMPI PUSH1 0x40 MLOAD PUSH32 0x8C379A000000000000000000000000000000000000000000000000000000000 DUP2 MSTORE PUSH1 0x4 ADD PUSH2 0x917 SWAP1 PUSH2 0x123E JUMP JUMPDEST PUSH1 0x40 MLOAD DUP1 SWAP2 SUB SWAP1 REVERT JUMPDEST PUSH1 0x2 PUSH1 0x40 MLOAD DUP1 PUSH1 0x40 ADD PUSH1 0x40 MSTORE DUP1 DUP5 DUP2 MSTORE PUSH1 0x20 ADD DUP4 DUP2 MSTORE POP SWAP1 DUP1 PUSH1 0x1 DUP2 SLOAD ADD DUP1 DUP3 SSTORE DUP1 SWAP2 POP POP PUSH1 0x1 SWAP1 SUB SWAP1 PUSH0 MSTORE PUSH1 0x20 PUSH0 KECCAK256 SWAP1 PUSH1 0x2 MUL ADD PUSH0 SWAP1 SWAP2 SWAP1 SWAP2 SWAP1 SWAP2 POP PUSH0 DUP3 ADD MLOAD DUP2 PUSH0 ADD SSTORE PUSH1 0x20 DUP3 ADD MLOAD DUP2 PUSH1 0x1 ADD SWAP1 DUP2 PUSH2 0x97A SWAP2 SWAP1 PUSH2 0x13FC JUMP JUMPDEST POP POP POP POP POP JUMP JUMPDEST PUSH1 0x4 PUSH1 0x40 MLOAD DUP1 PUSH1 0x60 ADD PUSH1 0x40 MSTORE DUP1 DUP6 DUP2 MSTORE PUSH1 0x20 ADD DUP5 DUP2 MSTORE PUSH1 0x20 ADD DUP4 DUP2 MSTORE POP SWAP1 DUP1 PUSH1 0x1 DUP2 SLOAD ADD DUP1 DUP3 SSTORE DUP1 SWAP2 POP POP PUSH1 0x1 SWAP1 SUB SWAP1 PUSH0 MSTORE PUSH1 0x20 PUSH0 KECCAK256 SWAP1 PUSH1 0x3 MUL ADD PUSH0 SWAP1 SWAP2 SWAP1 SWAP2 SWAP1 SWAP2 POP PUSH0 DUP3 ADD MLOAD DUP2 PUSH0 ADD SSTORE PUSH1 0x20 DUP3 ADD MLOAD DUP2 PUSH1 0x1 ADD SSTORE PUSH1 0x40 DUP3 ADD MLOAD DUP2 PUSH1 0x2 ADD SWAP1 DUP2 PUSH2 0x9EB SWAP2 SWAP1 PUSH2 0x13FC JUMP JUMPDEST POP POP POP POP POP POP JUMP JUMPDEST PUSH0 PUSH0 SWAP1 SLOAD SWAP1 PUSH2 0x100 EXP SWAP1 DIV PUSH20 0xFFFFFFFFFFFFFFFFFFFFFFFFFFFFFFFFFFFFFFFF AND DUP2 JUMP JUMPDEST PUSH1 0x40 MLOAD DUP1 PUSH1 0x40 ADD PUSH1 0x40 MSTORE DUP1 PUSH0 DUP2 MSTORE PUSH1 0x20 ADD PUSH1 0x60 DUP2 MSTORE POP SWAP1 JUMP JUMPDEST PUSH1 0x40 MLOAD DUP1 PUSH1 0xC0 ADD PUSH1 0x40 MSTORE DUP1 PUSH1 0x60 DUP2 MSTORE PUSH1 0x20 ADD PUSH1 0x60 DUP2 MSTORE PUSH1 0x20 ADD PUSH0 DUP2 MSTORE PUSH1 0x20 ADD PUSH0 DUP2 MSTORE PUSH1 0x20 ADD PUSH0 DUP2 MSTORE PUSH1 0x20 ADD PUSH0 ISZERO ISZERO DUP2 MSTORE POP SWAP1 JUMP JUMPDEST PUSH0 PUSH1 0x40 MLOAD SWAP1 POP SWAP1 JUMP JUMPDEST PUSH0 PUSH0 REVERT JUMPDEST PUSH0 PUSH0 REVERT JUMPDEST PUSH0 DUP2 SWAP1 POP SWAP2 SWAP1 POP JUMP JUMPDEST PUSH2 0xA87 DUP2 PUSH2 0xA75 JUMP JUMPDEST DUP2 EQ PUSH2 0xA91 JUMPI PUSH0 PUSH0 REVERT JUMPDEST POP JUMP JUMPDEST PUSH0 DUP2 CALLDATALOAD SWAP1 POP PUSH2 0xAA2 DUP2 PUSH2 0xA7E JUMP JUMPDEST SWAP3 SWAP2 POP POP JUMP JUMPDEST PUSH0 PUSH1 0x20 DUP3 DUP5 SUB SLT ISZERO PUSH2 0xABD JUMPI PUSH2 0xABC PUSH2 0xA6D JUMP JUMPDEST JUMPDEST PUSH0 PUSH2 0xACA DUP5 DUP3 DUP6 ADD PUSH2 0xA94 JUMP JUMPDEST SWAP2 POP POP SWAP3 SWAP2 POP POP JUMP JUMPDEST PUSH2 0xADC DUP2 PUSH2 0xA75 JUMP JUMPDEST DUP3 MSTORE POP POP JUMP JUMPDEST PUSH0 DUP2 MLOAD SWAP1 POP SWAP2 SWAP1 POP JUMP JUMPDEST PUSH0 DUP3 DUP3 MSTORE PUSH1 0x20 DUP3 ADD SWAP1 POP SWAP3 SWAP2 POP POP JUMP JUMPDEST DUP3 DUP2 DUP4 MCOPY PUSH0 DUP4 DUP4 ADD MSTORE POP POP POP JUMP JUMPDEST PUSH0 PUSH1 0x1F NOT PUSH1 0x1F DUP4 ADD AND SWAP1 POP SWAP2 SWAP1 POP JUMP JUMPDEST PUSH0 PUSH2 0xB24 DUP3 PUSH2 0xAE2 JUMP JUMPDEST PUSH2 0xB2E DUP2 DUP6 PUSH2 0xAEC JUMP JUMPDEST SWAP4 POP PUSH2 0xB3E DUP2 DUP6 PUSH1 0x20 DUP7 ADD PUSH2 0xAFC JUMP JUMPDEST PUSH2 0xB47 DUP2 PUSH2 0xB0A JUMP JUMPDEST DUP5 ADD SWAP2 POP POP SWAP3 SWAP2 POP POP JUMP JUMPDEST PUSH0 PUSH1 0x40 DUP4 ADD PUSH0 DUP4 ADD MLOAD PUSH2 0xB67 PUSH0 DUP7 ADD DUP3 PUSH2 0xAD3 JUMP JUMPDEST POP PUSH1 0x20 DUP4 ADD MLOAD DUP5 DUP3 SUB PUSH1 0x20 DUP7 ADD MSTORE PUSH2 0xB7F DUP3 DUP3 PUSH2 0xB1A JUMP JUMPDEST SWAP2 POP POP DUP1 SWAP2 POP POP SWAP3 SWAP2 POP POP JUMP JUMPDEST PUSH0 PUSH1 0x20 DUP3 ADD SWAP1 POP DUP2 DUP2 SUB PUSH0 DUP4 ADD MSTORE PUSH2 0xBA4 DUP2 DUP5 PUSH2 0xB52 JUMP JUMPDEST SWAP1 POP SWAP3 SWAP2 POP POP JUMP JUMPDEST PUSH2 0xBB5 DUP2 PUSH2 0xA75 JUMP JUMPDEST DUP3 MSTORE POP POP JUMP JUMPDEST PUSH0 PUSH1 0x20 DUP3 ADD SWAP1 POP PUSH2 0xBCE PUSH0 DUP4 ADD DUP5 PUSH2 0xBAC JUMP JUMPDEST SWAP3 SWAP2 POP POP JUMP JUMPDEST PUSH0 DUP2 ISZERO ISZERO SWAP1 POP SWAP2 SWAP1 POP JUMP JUMPDEST PUSH2 0xBE8 DUP2 PUSH2 0xBD4 JUMP JUMPDEST DUP3 MSTORE POP POP JUMP JUMPDEST PUSH0 PUSH1 0xC0 DUP4 ADD PUSH0 DUP4 ADD MLOAD DUP5 DUP3 SUB PUSH0 DUP7 ADD MSTORE PUSH2 0xC08 DUP3 DUP3 PUSH2 0xB1A JUMP JUMPDEST SWAP2 POP POP PUSH1 0x20 DUP4 ADD MLOAD DUP5 DUP3 SUB PUSH1 0x20 DUP7 ADD MSTORE PUSH2 0xC22 DUP3 DUP3 PUSH2 0xB1A JUMP JUMPDEST SWAP2 POP POP PUSH1 0x40 DUP4 ADD MLOAD PUSH2 0xC37 PUSH1 0x40 DUP7 ADD DUP3 PUSH2 0xAD3 JUMP JUMPDEST POP PUSH1 0x60 DUP4 ADD MLOAD PUSH2 0xC4A PUSH1 0x60 DUP7 ADD DUP3 PUSH2 0xAD3 JUMP JUMPDEST POP PUSH1 0x80 DUP4 ADD MLOAD PUSH2 0xC5D PUSH1 0x80 DUP7 ADD DUP3 PUSH2 0xAD3 JUMP JUMPDEST POP PUSH1 0xA0 DUP4 ADD MLOAD PUSH2 0xC70 PUSH1 0xA0 DUP7 ADD DUP3 PUSH2 0xBDF JUMP JUMPDEST POP DUP1 SWAP2 POP POP SWAP3 SWAP2 POP POP JUMP JUMPDEST PUSH0 PUSH1 0x20 DUP3 ADD SWAP1 POP DUP2 DUP2 SUB PUSH0 DUP4 ADD MSTORE PUSH2 0xC93 DUP2 DUP5 PUSH2 0xBEE JUMP JUMPDEST SWAP1 POP SWAP3 SWAP2 POP POP JUMP JUMPDEST PUSH0 PUSH0 REVERT JUMPDEST PUSH0 PUSH0 REVERT JUMPDEST PUSH32 0x4E487B7100000000000000000000000000000000000000000000000000000000 PUSH0 MSTORE PUSH1 0x41 PUSH1 0x4 MSTORE PUSH1 0x24 PUSH0 REVERT JUMPDEST PUSH2 0xCD9 DUP3 PUSH2 0xB0A JUMP JUMPDEST DUP2 ADD DUP2 DUP2 LT PUSH8 0xFFFFFFFFFFFFFFFF DUP3 GT OR ISZERO PUSH2 0xCF8 JUMPI PUSH2 0xCF7 PUSH2 0xCA3 JUMP JUMPDEST JUMPDEST DUP1 PUSH1 0x40 MSTORE POP POP POP JUMP JUMPDEST PUSH0 PUSH2 0xD0A PUSH2 0xA64 JUMP JUMPDEST SWAP1 POP PUSH2 0xD16 DUP3 DUP3 PUSH2 0xCD0 JUMP JUMPDEST SWAP2 SWAP1 POP JUMP JUMPDEST PUSH0 PUSH8 0xFFFFFFFFFFFFFFFF DUP3 GT ISZERO PUSH2 0xD35 JUMPI PUSH2 0xD34 PUSH2 0xCA3 JUMP JUMPDEST JUMPDEST PUSH2 0xD3E DUP3 PUSH2 0xB0A JUMP JUMPDEST SWAP1 POP PUSH1 0x20 DUP2 ADD SWAP1 POP SWAP2 SWAP1 POP JUMP JUMPDEST DUP3 DUP2 DUP4 CALLDATACOPY PUSH0 DUP4 DUP4 ADD MSTORE POP POP POP JUMP JUMPDEST PUSH0 PUSH2 0xD6B PUSH2 0xD66 DUP5 PUSH2 0xD1B JUMP JUMPDEST PUSH2 0xD01 JUMP JUMPDEST SWAP1 POP DUP3 DUP2 MSTORE PUSH1 0x20 DUP2 ADD DUP5 DUP5 DUP5 ADD GT ISZERO PUSH2 0xD87 JUMPI PUSH2 0xD86 PUSH2 0xC9F JUMP JUMPDEST JUMPDEST PUSH2 0xD92 DUP5 DUP3 DUP6 PUSH2 0xD4B JUMP JUMPDEST POP SWAP4 SWAP3 POP POP POP JUMP JUMPDEST PUSH0 DUP3 PUSH1 0x1F DUP4 ADD SLT PUSH2 0xDAE JUMPI PUSH2 0xDAD PUSH2 0xC9B JUMP JUMPDEST JUMPDEST DUP2 CALLDATALOAD PUSH2 0xDBE DUP5 DUP3 PUSH1 0x20 DUP7 ADD PUSH2 0xD59 JUMP JUMPDEST SWAP2 POP POP SWAP3 SWAP2 POP POP JUMP JUMPDEST PUSH2 0xDD0 DUP2 PUSH2 0xBD4 JUMP JUMPDEST DUP2 EQ PUSH2 0xDDA JUMPI PUSH0 PUSH0 REVERT JUMPDEST POP JUMP JUMPDEST PUSH0 DUP2 CALLDATALOAD SWAP1 POP PUSH2 0xDEB DUP2 PUSH2 0xDC7 JUMP JUMPDEST SWAP3 SWAP2 POP POP JUMP JUMPDEST PUSH0 PUSH0 PUSH0 PUSH0 PUSH0 PUSH1 0xA0 DUP7 DUP9 SUB SLT ISZERO PUSH2 0xE0A JUMPI PUSH2 0xE09 PUSH2 0xA6D JUMP JUMPDEST JUMPDEST PUSH0 DUP7 ADD CALLDATALOAD PUSH8 0xFFFFFFFFFFFFFFFF DUP2 GT ISZERO PUSH2 0xE27 JUMPI PUSH2 0xE26 PUSH2 0xA71 JUMP JUMPDEST JUMPDEST PUSH2 0xE33 DUP9 DUP3 DUP10 ADD PUSH2 0xD9A JUMP JUMPDEST SWAP6 POP POP PUSH1 0x20 DUP7 ADD CALLDATALOAD PUSH8 0xFFFFFFFFFFFFFFFF DUP2 GT ISZERO PUSH2 0xE54 JUMPI PUSH2 0xE53 PUSH2 0xA71 JUMP JUMPDEST JUMPDEST PUSH2 0xE60 DUP9 DUP3 DUP10 ADD PUSH2 0xD9A JUMP JUMPDEST SWAP5 POP POP PUSH1 0x40 PUSH2 0xE71 DUP9 DUP3 DUP10 ADD PUSH2 0xA94 JUMP JUMPDEST SWAP4 POP POP PUSH1 0x60 PUSH2 0xE82 DUP9 DUP3 DUP10 ADD PUSH2 0xA94 JUMP JUMPDEST SWAP3 POP POP PUSH1 0x80 PUSH2 0xE93 DUP9 DUP3 DUP10 ADD PUSH2 0xDDD JUMP JUMPDEST SWAP2 POP POP SWAP3 SWAP6 POP SWAP3 SWAP6 SWAP1 SWAP4 POP JUMP JUMPDEST PUSH0 PUSH1 0xFF DUP3 AND SWAP1 POP SWAP2 SWAP1 POP JUMP JUMPDEST PUSH2 0xEB5 DUP2 PUSH2 0xEA0 JUMP JUMPDEST DUP2 EQ PUSH2 0xEBF JUMPI PUSH0 PUSH0 REVERT JUMPDEST POP JUMP JUMPDEST PUSH0 DUP2 CALLDATALOAD SWAP1 POP PUSH2 0xED0 DUP2 PUSH2 0xEAC JUMP JUMPDEST SWAP3 SWAP2 POP POP JUMP JUMPDEST PUSH0 PUSH0 PUSH1 0x40 DUP4 DUP6 SUB SLT ISZERO PUSH2 0xEEC JUMPI PUSH2 0xEEB PUSH2 0xA6D JUMP JUMPDEST JUMPDEST PUSH0 PUSH2 0xEF9 DUP6 DUP3 DUP7 ADD PUSH2 0xA94 JUMP JUMPDEST SWAP3 POP POP PUSH1 0x20 PUSH2 0xF0A DUP6 DUP3 DUP7 ADD PUSH2 0xEC2 JUMP JUMPDEST SWAP2 POP POP SWAP3 POP SWAP3 SWAP1 POP JUMP JUMPDEST PUSH0 DUP3 DUP3 MSTORE PUSH1 0x20 DUP3 ADD SWAP1 POP SWAP3 SWAP2 POP POP JUMP JUMPDEST PUSH0 PUSH2 0xF2E DUP3 PUSH2 0xAE2 JUMP JUMPDEST PUSH2 0xF38 DUP2 DUP6 PUSH2 0xF14 JUMP JUMPDEST SWAP4 POP PUSH2 0xF48 DUP2 DUP6 PUSH1 0x20 DUP7 ADD PUSH2 0xAFC JUMP JUMPDEST PUSH2 0xF51 DUP2 PUSH2 0xB0A JUMP JUMPDEST DUP5 ADD SWAP2 POP POP SWAP3 SWAP2 POP POP JUMP JUMPDEST PUSH0 PUSH1 0x20 DUP3 ADD SWAP1 POP DUP2 DUP2 SUB PUSH0 DUP4 ADD MSTORE PUSH2 0xF74 DUP2 DUP5 PUSH2 0xF24 JUMP JUMPDEST SWAP1 POP SWAP3 SWAP2 POP POP JUMP JUMPDEST PUSH0 PUSH0 PUSH1 0x40 DUP4 DUP6 SUB SLT ISZERO PUSH2 0xF92 JUMPI PUSH2 0xF91 PUSH2 0xA6D JUMP JUMPDEST JUMPDEST PUSH0 PUSH2 0xF9F DUP6 DUP3 DUP7 ADD PUSH2 0xA94 JUMP JUMPDEST SWAP3 POP POP PUSH1 0x20 DUP4 ADD CALLDATALOAD PUSH8 0xFFFFFFFFFFFFFFFF DUP2 GT ISZERO PUSH2 0xFC0 JUMPI PUSH2 0xFBF PUSH2 0xA71 JUMP JUMPDEST JUMPDEST PUSH2 0xFCC DUP6 DUP3 DUP7 ADD PUSH2 0xD9A JUMP JUMPDEST SWAP2 POP POP SWAP3 POP SWAP3 SWAP1 POP JUMP JUMPDEST PUSH0 PUSH0 PUSH0 PUSH1 0x60 DUP5 DUP7 SUB SLT ISZERO PUSH2 0xFED JUMPI PUSH2 0xFEC PUSH2 0xA6D JUMP JUMPDEST JUMPDEST PUSH0 PUSH2 0xFFA DUP7 DUP3 DUP8 ADD PUSH2 0xA94 JUMP JUMPDEST SWAP4 POP POP PUSH1 0x20 PUSH2 0x100B DUP7 DUP3 DUP8 ADD PUSH2 0xA94 JUMP JUMPDEST SWAP3 POP POP PUSH1 0x40 DUP5 ADD CALLDATALOAD PUSH8 0xFFFFFFFFFFFFFFFF DUP2 GT ISZERO PUSH2 0x102C JUMPI PUSH2 0x102B PUSH2 0xA71 JUMP JUMPDEST JUMPDEST PUSH2 0x1038 DUP7 DUP3 DUP8 ADD PUSH2 0xD9A JUMP JUMPDEST SWAP2 POP POP SWAP3 POP SWAP3 POP SWAP3 JUMP JUMPDEST PUSH0 PUSH20 0xFFFFFFFFFFFFFFFFFFFFFFFFFFFFFFFFFFFFFFFF DUP3 AND SWAP1 POP SWAP2 SWAP1 POP JUMP JUMPDEST PUSH0 PUSH2 0x106B DUP3 PUSH2 0x1042 JUMP JUMPDEST SWAP1 POP SWAP2 SWAP1 POP JUMP JUMPDEST PUSH2 0x107B DUP2 PUSH2 0x1061 JUMP JUMPDEST DUP3 MSTORE POP POP JUMP JUMPDEST PUSH0 PUSH1 0x20 DUP3 ADD SWAP1 POP PUSH2 0x1094 PUSH0 DUP4 ADD DUP5 PUSH2 0x1072 JUMP JUMPDEST SWAP3 SWAP2 POP POP JUMP JUMPDEST PUSH32 0x4A6F6220494420646F6573206E6F742065786973740000000000000000000000 PUSH0 DUP3 ADD MSTORE POP JUMP JUMPDEST PUSH0 PUSH2 0x10CE PUSH1 0x15 DUP4 PUSH2 0xF14 JUMP JUMPDEST SWAP2 POP PUSH2 0x10D9 DUP3 PUSH2 0x109A JUMP JUMPDEST PUSH1 0x20 DUP3 ADD SWAP1 POP SWAP2 SWAP1 POP JUMP JUMPDEST PUSH0 PUSH1 0x20 DUP3 ADD SWAP1 POP DUP2 DUP2 SUB PUSH0 DUP4 ADD MSTORE PUSH2 0x10FB DUP2 PUSH2 0x10C2 JUMP JUMPDEST SWAP1 POP SWAP2 SWAP1 POP JUMP JUMPDEST PUSH32 0x4E487B7100000000000000000000000000000000000000000000000000000000 PUSH0 MSTORE PUSH1 0x32 PUSH1 0x4 MSTORE PUSH1 0x24 PUSH0 REVERT JUMPDEST PUSH32 0x4E487B7100000000000000000000000000000000000000000000000000000000 PUSH0 MSTORE PUSH1 0x22 PUSH1 0x4 MSTORE PUSH1 0x24 PUSH0 REVERT JUMPDEST PUSH0 PUSH1 0x2 DUP3 DIV SWAP1 POP PUSH1 0x1 DUP3 AND DUP1 PUSH2 0x1173 JUMPI PUSH1 0x7F DUP3 AND SWAP2 POP JUMPDEST PUSH1 0x20 DUP3 LT DUP2 SUB PUSH2 0x1186 JUMPI PUSH2 0x1185 PUSH2 0x112F JUMP JUMPDEST JUMPDEST POP SWAP2 SWAP1 POP JUMP JUMPDEST PUSH32 0x4170706C6963616E7420494420646F6573206E6F742065786973740000000000 PUSH0 DUP3 ADD MSTORE POP JUMP JUMPDEST PUSH0 PUSH2 0x11C0 PUSH1 0x1B DUP4 PUSH2 0xF14 JUMP JUMPDEST SWAP2 POP PUSH2 0x11CB DUP3 PUSH2 0x118C JUMP JUMPDEST PUSH1 0x20 DUP3 ADD SWAP1 POP SWAP2 SWAP1 POP JUMP JUMPDEST PUSH0 PUSH1 0x20 DUP3 ADD SWAP1 POP DUP2 DUP2 SUB PUSH0 DUP4 ADD MSTORE PUSH2 0x11ED DUP2 PUSH2 0x11B4 JUMP JUMPDEST SWAP1 POP SWAP2 SWAP1 POP JUMP JUMPDEST PUSH32 0x596F7520617265206E6F74207468652061646D696E0000000000000000000000 PUSH0 DUP3 ADD MSTORE POP JUMP JUMPDEST PUSH0 PUSH2 0x1228 PUSH1 0x15 DUP4 PUSH2 0xF14 JUMP JUMPDEST SWAP2 POP PUSH2 0x1233 DUP3 PUSH2 0x11F4 JUMP JUMPDEST PUSH1 0x20 DUP3 ADD SWAP1 POP SWAP2 SWAP1 POP JUMP JUMPDEST PUSH0 PUSH1 0x20 DUP3 ADD SWAP1 POP DUP2 DUP2 SUB PUSH0 DUP4 ADD MSTORE PUSH2 0x1255 DUP2 PUSH2 0x121C JUMP JUMPDEST SWAP1 POP SWAP2 SWAP1 POP JUMP JUMPDEST PUSH0 DUP2 SWAP1 POP DUP2 PUSH0 MSTORE PUSH1 0x20 PUSH0 KECCAK256 SWAP1 POP SWAP2 SWAP1 POP JUMP JUMPDEST PUSH0 PUSH1 0x20 PUSH1 0x1F DUP4 ADD DIV SWAP1 POP SWAP2 SWAP1 POP JUMP JUMPDEST PUSH0 DUP3 DUP3 SHL SWAP1 POP SWAP3 SWAP2 POP POP JUMP JUMPDEST PUSH0 PUSH1 0x8 DUP4 MUL PUSH2 0x12B8 PUSH32 0xFFFFFFFFFFFFFFFFFFFFFFFFFFFFFFFFFFFFFFFFFFFFFFFFFFFFFFFFFFFFFFFF DUP3 PUSH2 0x127D JUMP JUMPDEST PUSH2 0x12C2 DUP7 DUP4 PUSH2 0x127D JUMP JUMPDEST SWAP6 POP DUP1 NOT DUP5 AND SWAP4 POP DUP1 DUP7 AND DUP5 OR SWAP3 POP POP POP SWAP4 SWAP3 POP POP POP JUMP JUMPDEST PUSH0 DUP2 SWAP1 POP SWAP2 SWAP1 POP JUMP JUMPDEST PUSH0 PUSH2 0x12FD PUSH2 0x12F8 PUSH2 0x12F3 DUP5 PUSH2 0xA75 JUMP JUMPDEST PUSH2 0x12DA JUMP JUMPDEST PUSH2 0xA75 JUMP JUMPDEST SWAP1 POP SWAP2 SWAP1 POP JUMP JUMPDEST PUSH0 DUP2 SWAP1 POP SWAP2 SWAP1 POP JUMP JUMPDEST PUSH2 0x1316 DUP4 PUSH2 0x12E3 JUMP JUMPDEST PUSH2 0x132A PUSH2 0x1322 DUP3 PUSH2 0x1304 JUMP JUMPDEST DUP5 DUP5 SLOAD PUSH2 0x1289 JUMP JUMPDEST DUP3 SSTORE POP POP POP POP JUMP JUMPDEST PUSH0 PUSH0 SWAP1 POP SWAP1 JUMP JUMPDEST PUSH2 0x1341 PUSH2 0x1332 JUMP JUMPDEST PUSH2 0x134C DUP2 DUP5 DUP5 PUSH2 0x130D JUMP JUMPDEST POP POP POP JUMP JUMPDEST JUMPDEST DUP2 DUP2 LT ISZERO PUSH2 0x136F JUMPI PUSH2 0x1364 PUSH0 DUP3 PUSH2 0x1339 JUMP JUMPDEST PUSH1 0x1 DUP2 ADD SWAP1 POP PUSH2 0x1352 JUMP JUMPDEST POP POP JUMP JUMPDEST PUSH1 0x1F DUP3 GT ISZERO PUSH2 0x13B4 JUMPI PUSH2 0x1385 DUP2 PUSH2 0x125C JUMP JUMPDEST PUSH2 0x138E DUP5 PUSH2 0x126E JUMP JUMPDEST DUP2 ADD PUSH1 0x20 DUP6 LT ISZERO PUSH2 0x139D JUMPI DUP2 SWAP1 POP JUMPDEST PUSH2 0x13B1 PUSH2 0x13A9 DUP6 PUSH2 0x126E JUMP JUMPDEST DUP4 ADD DUP3 PUSH2 0x1351 JUMP JUMPDEST POP POP JUMPDEST POP POP POP JUMP JUMPDEST PUSH0 DUP3 DUP3 SHR SWAP1 POP SWAP3 SWAP2 POP POP JUMP JUMPDEST PUSH0 PUSH2 0x13D4 PUSH0 NOT DUP5 PUSH1 0x8 MUL PUSH2 0x13B9 JUMP JUMPDEST NOT DUP1 DUP4 AND SWAP2 POP POP SWAP3 SWAP2 POP POP JUMP JUMPDEST PUSH0 PUSH2 0x13EC DUP4 DUP4 PUSH2 0x13C5 JUMP JUMPDEST SWAP2 POP DUP3 PUSH1 0x2 MUL DUP3 OR SWAP1 POP SWAP3 SWAP2 POP POP JUMP JUMPDEST PUSH2 0x1405 DUP3 PUSH2 0xAE2 JUMP JUMPDEST PUSH8 0xFFFFFFFFFFFFFFFF DUP2 GT ISZERO PUSH2 0x141E JUMPI PUSH2 0x141D PUSH2 0xCA3 JUMP JUMPDEST JUMPDEST PUSH2 0x1428 DUP3 SLOAD PUSH2 0x115C JUMP JUMPDEST PUSH2 0x1433 DUP3 DUP3 DUP6 PUSH2 0x1373 JUMP JUMPDEST PUSH0 PUSH1 0x20 SWAP1 POP PUSH1 0x1F DUP4 GT PUSH1 0x1 DUP2 EQ PUSH2 0x1464 JUMPI PUSH0 DUP5 ISZERO PUSH2 0x1452 JUMPI DUP3 DUP8 ADD MLOAD SWAP1 POP JUMPDEST PUSH2 0x145C DUP6 DUP3 PUSH2 0x13E1 JUMP JUMPDEST DUP7 SSTORE POP PUSH2 0x14C3 JUMP JUMPDEST PUSH1 0x1F NOT DUP5 AND PUSH2 0x1472 DUP7 PUSH2 0x125C JUMP JUMPDEST PUSH0 JUMPDEST DUP3 DUP2 LT ISZERO PUSH2 0x1499 JUMPI DUP5 DUP10 ADD MLOAD DUP3 SSTORE PUSH1 0x1 DUP3 ADD SWAP2 POP PUSH1 0x20 DUP6 ADD SWAP5 POP PUSH1 0x20 DUP2 ADD SWAP1 POP PUSH2 0x1474 JUMP JUMPDEST DUP7 DUP4 LT ISZERO PUSH2 0x14B6 JUMPI DUP5 DUP10 ADD MLOAD PUSH2 0x14B2 PUSH1 0x1F DUP10 AND DUP3 PUSH2 0x13C5 JUMP JUMPDEST DUP4 SSTORE POP JUMPDEST PUSH1 0x1 PUSH1 0x2 DUP9 MUL ADD DUP9 SSTORE POP POP POP JUMPDEST POP POP POP POP POP POP JUMP JUMPDEST PUSH32 0x4D6178696D756D20726174696E67206973203130000000000000000000000000 PUSH0 DUP3 ADD MSTORE POP JUMP JUMPDEST PUSH0 PUSH2 0x14FF PUSH1 0x14 DUP4 PUSH2 0xF14 JUMP JUMPDEST SWAP2 POP PUSH2 0x150A DUP3 PUSH2 0x14CB JUMP JUMPDEST PUSH1 0x20 DUP3 ADD SWAP1 POP SWAP2 SWAP1 POP JUMP JUMPDEST PUSH0 PUSH1 0x20 DUP3 ADD SWAP1 POP DUP2 DUP2 SUB PUSH0 DUP4 ADD MSTORE PUSH2 0x152C DUP2 PUSH2 0x14F3 JUMP JUMPDEST SWAP1 POP SWAP2 SWAP1 POP JUMP INVALID LOG2 PUSH5 0x6970667358 0x22 SLT KECCAK256 BLOBHASH LOG3 DUP8 PREVRANDAO DUP8 0xDA CODESIZE 0xC3 0xAA SLT SDIV DUP2 PUSH16 0x52D08D28445756719C8CA7A230889272 PUSH18 0x54F264736F6C634300081C00330000000000 "
				},
				"gasEstimates": {
					"creation": {
						"codeDepositCost": "1096200",
						"executionCost": "25402",
						"totalCost": "1121602"
					},
					"external": {
						"addNewApplicant(string,string,uint256,uint256,bool)": "infinite",
						"addNewJob(uint256,string)": "infinite",
						"admin()": "2595",
						"applyForJob(uint256,uint256,string)": "infinite",
						"fetchApplicantRating(uint256)": "infinite",
						"getApplicantDetails(uint256)": "infinite",
						"getApplicantType(uint256)": "infinite",
						"getJobDetails(uint256)": "infinite",
						"giveRating(uint256,uint8)": "27119"
					}
				},
				"methodIdentifiers": {
					"addNewApplicant(string,string,uint256,uint256,bool)": "8c48e912",
					"addNewJob(uint256,string)": "d352092d",
					"admin()": "f851a440",
					"applyForJob(uint256,uint256,string)": "e5b870e4",
					"fetchApplicantRating(uint256)": "6c8548ff",
					"getApplicantDetails(uint256)": "8798a47b",
					"getApplicantType(uint256)": "d280267d",
					"getJobDetails(uint256)": "4cac35c6",
					"giveRating(uint256,uint8)": "bbbc6a31"
				}
			},
			"storageLayout": {
				"storage": [
					{
						"astId": 3,
						"contract": "contracts/PRACTICE/Job-Portal.sol:JobPortal",
						"label": "admin",
						"offset": 0,
						"slot": "0",
						"type": "t_address"
					},
					{
						"astId": 41,
						"contract": "contracts/PRACTICE/Job-Portal.sol:JobPortal",
						"label": "applicants",
						"offset": 0,
						"slot": "1",
						"type": "t_array(t_struct(Applicant)37_storage)dyn_storage"
					},
					{
						"astId": 50,
						"contract": "contracts/PRACTICE/Job-Portal.sol:JobPortal",
						"label": "jobs",
						"offset": 0,
						"slot": "2",
						"type": "t_array(t_struct(Job)46_storage)dyn_storage"
					},
					{
						"astId": 54,
						"contract": "contracts/PRACTICE/Job-Portal.sol:JobPortal",
						"label": "applicantRatings",
						"offset": 0,
						"slot": "3",
						"type": "t_mapping(t_uint256,t_uint8)"
					},
					{
						"astId": 65,
						"contract": "contracts/PRACTICE/Job-Portal.sol:JobPortal",
						"label": "applications",
						"offset": 0,
						"slot": "4",
						"type": "t_array(t_struct(Application)61_storage)dyn_storage"
					}
				],
				"types": {
					"t_address": {
						"encoding": "inplace",
						"label": "address",
						"numberOfBytes": "20"
					},
					"t_array(t_struct(Applicant)37_storage)dyn_storage": {
						"base": "t_struct(Applicant)37_storage",
						"encoding": "dynamic_array",
						"label": "struct JobPortal.Applicant[]",
						"numberOfBytes": "32"
					},
					"t_array(t_struct(Application)61_storage)dyn_storage": {
						"base": "t_struct(Application)61_storage",
						"encoding": "dynamic_array",
						"label": "struct JobPortal.Application[]",
						"numberOfBytes": "32"
					},
					"t_array(t_struct(Job)46_storage)dyn_storage": {
						"base": "t_struct(Job)46_storage",
						"encoding": "dynamic_array",
						"label": "struct JobPortal.Job[]",
						"numberOfBytes": "32"
					},
					"t_bool": {
						"encoding": "inplace",
						"label": "bool",
						"numberOfBytes": "1"
					},
					"t_mapping(t_uint256,t_uint8)": {
						"encoding": "mapping",
						"key": "t_uint256",
						"label": "mapping(uint256 => uint8)",
						"numberOfBytes": "32",
						"value": "t_uint8"
					},
					"t_string_storage": {
						"encoding": "bytes",
						"label": "string",
						"numberOfBytes": "32"
					},
					"t_struct(Applicant)37_storage": {
						"encoding": "inplace",
						"label": "struct JobPortal.Applicant",
						"members": [
							{
								"astId": 26,
								"contract": "contracts/PRACTICE/Job-Portal.sol:JobPortal",
								"label": "name",
								"offset": 0,
								"slot": "0",
								"type": "t_string_storage"
							},
							{
								"astId": 28,
								"contract": "contracts/PRACTICE/Job-Portal.sol:JobPortal",
								"label": "location",
								"offset": 0,
								"slot": "1",
								"type": "t_string_storage"
							},
							{
								"astId": 30,
								"contract": "contracts/PRACTICE/Job-Portal.sol:JobPortal",
								"label": "age",
								"offset": 0,
								"slot": "2",
								"type": "t_uint256"
							},
							{
								"astId": 32,
								"contract": "contracts/PRACTICE/Job-Portal.sol:JobPortal",
								"label": "rating",
								"offset": 0,
								"slot": "3",
								"type": "t_uint256"
							},
							{
								"astId": 34,
								"contract": "contracts/PRACTICE/Job-Portal.sol:JobPortal",
								"label": "applicantID",
								"offset": 0,
								"slot": "4",
								"type": "t_uint256"
							},
							{
								"astId": 36,
								"contract": "contracts/PRACTICE/Job-Portal.sol:JobPortal",
								"label": "isSkilled",
								"offset": 0,
								"slot": "5",
								"type": "t_bool"
							}
						],
						"numberOfBytes": "192"
					},
					"t_struct(Application)61_storage": {
						"encoding": "inplace",
						"label": "struct JobPortal.Application",
						"members": [
							{
								"astId": 56,
								"contract": "contracts/PRACTICE/Job-Portal.sol:JobPortal",
								"label": "applicantID",
								"offset": 0,
								"slot": "0",
								"type": "t_uint256"
							},
							{
								"astId": 58,
								"contract": "contracts/PRACTICE/Job-Portal.sol:JobPortal",
								"label": "jobID",
								"offset": 0,
								"slot": "1",
								"type": "t_uint256"
							},
							{
								"astId": 60,
								"contract": "contracts/PRACTICE/Job-Portal.sol:JobPortal",
								"label": "additionalInfo",
								"offset": 0,
								"slot": "2",
								"type": "t_string_storage"
							}
						],
						"numberOfBytes": "96"
					},
					"t_struct(Job)46_storage": {
						"encoding": "inplace",
						"label": "struct JobPortal.Job",
						"members": [
							{
								"astId": 43,
								"contract": "contracts/PRACTICE/Job-Portal.sol:JobPortal",
								"label": "jobID",
								"offset": 0,
								"slot": "0",
								"type": "t_uint256"
							},
							{
								"astId": 45,
								"contract": "contracts/PRACTICE/Job-Portal.sol:JobPortal",
								"label": "jobTitle",
								"offset": 0,
								"slot": "1",
								"type": "t_string_storage"
							}
						],
						"numberOfBytes": "64"
					},
					"t_uint256": {
						"encoding": "inplace",
						"label": "uint256",
						"numberOfBytes": "32"
					},
					"t_uint8": {
						"encoding": "inplace",
						"label": "uint8",
						"numberOfBytes": "1"
					}
				}
			},
			"userdoc": {
				"kind": "user",
				"methods": {},
				"version": 1
			}
		}
	}
}