{
	"contracts/PRACTICE/Enum.sol": {
		"Enum": {
			"abi": [
				{
					"inputs": [],
					"name": "choice",
					"outputs": [
						{
							"internalType": "enum Enum.size",
							"name": "",
							"type": "uint8"
						}
					],
					"stateMutability": "view",
					"type": "function"
				},
				{
					"inputs": [],
					"name": "setLarge",
					"outputs": [],
					"stateMutability": "nonpayable",
					"type": "function"
				},
				{
					"inputs": [],
					"name": "setMedium",
					"outputs": [],
					"stateMutability": "nonpayable",
					"type": "function"
				},
				{
					"inputs": [],
					"name": "setSmall",
					"outputs": [],
					"stateMutability": "nonpayable",
					"type": "function"
				}
			],
			"devdoc": {
				"kind": "dev",
				"methods": {},
				"version": 1
			},
			"evm": {
				"assembly": "    /* \"contracts/PRACTICE/Enum.sol\":299:626  contract Enum{... */\n  mstore(0x40, 0x80)\n    /* \"contracts/PRACTICE/Enum.sol\":390:401  size.MEDIUM */\n  0x01\n    /* \"contracts/PRACTICE/Enum.sol\":370:401  size public choice= size.MEDIUM */\n  0x00\n  exp(0x0100, 0x00)\n  dup2\n  sload\n  dup2\n  0xff\n  mul\n  not\n  and\n  swap1\n  dup4\n  0x02\n  dup2\n  gt\n  iszero\n  tag_1\n  jumpi\n  tag_2\n  tag_3\n  jump\t// in\ntag_2:\ntag_1:\n  mul\n  or\n  swap1\n  sstore\n  pop\n    /* \"contracts/PRACTICE/Enum.sol\":299:626  contract Enum{... */\n  callvalue\n  dup1\n  iszero\n  tag_4\n  jumpi\n  revert(0x00, 0x00)\ntag_4:\n  pop\n  jump(tag_5)\n    /* \"#utility.yul\":7:187   */\ntag_3:\n    /* \"#utility.yul\":55:132   */\n  0x4e487b7100000000000000000000000000000000000000000000000000000000\n    /* \"#utility.yul\":52:53   */\n  0x00\n    /* \"#utility.yul\":45:133   */\n  mstore\n    /* \"#utility.yul\":152:156   */\n  0x21\n    /* \"#utility.yul\":149:150   */\n  0x04\n    /* \"#utility.yul\":142:157   */\n  mstore\n    /* \"#utility.yul\":176:180   */\n  0x24\n    /* \"#utility.yul\":173:174   */\n  0x00\n    /* \"#utility.yul\":166:181   */\n  revert\n    /* \"contracts/PRACTICE/Enum.sol\":299:626  contract Enum{... */\ntag_5:\n  dataSize(sub_0)\n  dup1\n  dataOffset(sub_0)\n  0x00\n  codecopy\n  0x00\n  return\nstop\n\nsub_0: assembly {\n        /* \"contracts/PRACTICE/Enum.sol\":299:626  contract Enum{... */\n      mstore(0x40, 0x80)\n      callvalue\n      dup1\n      iszero\n      tag_1\n      jumpi\n      revert(0x00, 0x00)\n    tag_1:\n      pop\n      jumpi(tag_2, lt(calldatasize, 0x04))\n      shr(0xe0, calldataload(0x00))\n      dup1\n      0x694ebe4f\n      eq\n      tag_3\n      jumpi\n      dup1\n      0x91ff2c86\n      eq\n      tag_4\n      jumpi\n      dup1\n      0x98f42fe3\n      eq\n      tag_5\n      jumpi\n      dup1\n      0xdb39b915\n      eq\n      tag_6\n      jumpi\n    tag_2:\n      revert(0x00, 0x00)\n        /* \"contracts/PRACTICE/Enum.sol\":481:544  function setLarge() public {... */\n    tag_3:\n      tag_7\n      tag_8\n      jump\t// in\n    tag_7:\n      stop\n        /* \"contracts/PRACTICE/Enum.sol\":408:471  function setSmall() public {... */\n    tag_4:\n      tag_9\n      tag_10\n      jump\t// in\n    tag_9:\n      stop\n        /* \"contracts/PRACTICE/Enum.sol\":370:401  size public choice= size.MEDIUM */\n    tag_5:\n      tag_11\n      tag_12\n      jump\t// in\n    tag_11:\n      mload(0x40)\n      tag_13\n      swap2\n      swap1\n      tag_14\n      jump\t// in\n    tag_13:\n      mload(0x40)\n      dup1\n      swap2\n      sub\n      swap1\n      return\n        /* \"contracts/PRACTICE/Enum.sol\":550:615  function setMedium() public {... */\n    tag_6:\n      tag_15\n      tag_16\n      jump\t// in\n    tag_15:\n      stop\n        /* \"contracts/PRACTICE/Enum.sol\":481:544  function setLarge() public {... */\n    tag_8:\n        /* \"contracts/PRACTICE/Enum.sol\":526:536  size.LARGE */\n      0x02\n        /* \"contracts/PRACTICE/Enum.sol\":519:525  choice */\n      0x00\n      0x00\n        /* \"contracts/PRACTICE/Enum.sol\":519:536  choice=size.LARGE */\n      0x0100\n      exp\n      dup2\n      sload\n      dup2\n      0xff\n      mul\n      not\n      and\n      swap1\n      dup4\n      0x02\n      dup2\n      gt\n      iszero\n      tag_18\n      jumpi\n      tag_19\n      tag_20\n      jump\t// in\n    tag_19:\n    tag_18:\n      mul\n      or\n      swap1\n      sstore\n      pop\n        /* \"contracts/PRACTICE/Enum.sol\":481:544  function setLarge() public {... */\n      jump\t// out\n        /* \"contracts/PRACTICE/Enum.sol\":408:471  function setSmall() public {... */\n    tag_10:\n        /* \"contracts/PRACTICE/Enum.sol\":453:463  size.SMALL */\n      0x00\n        /* \"contracts/PRACTICE/Enum.sol\":446:452  choice */\n      0x00\n      0x00\n        /* \"contracts/PRACTICE/Enum.sol\":446:463  choice=size.SMALL */\n      0x0100\n      exp\n      dup2\n      sload\n      dup2\n      0xff\n      mul\n      not\n      and\n      swap1\n      dup4\n      0x02\n      dup2\n      gt\n      iszero\n      tag_22\n      jumpi\n      tag_23\n      tag_20\n      jump\t// in\n    tag_23:\n    tag_22:\n      mul\n      or\n      swap1\n      sstore\n      pop\n        /* \"contracts/PRACTICE/Enum.sol\":408:471  function setSmall() public {... */\n      jump\t// out\n        /* \"contracts/PRACTICE/Enum.sol\":370:401  size public choice= size.MEDIUM */\n    tag_12:\n      0x00\n      0x00\n      swap1\n      sload\n      swap1\n      0x0100\n      exp\n      swap1\n      div\n      0xff\n      and\n      dup2\n      jump\t// out\n        /* \"contracts/PRACTICE/Enum.sol\":550:615  function setMedium() public {... */\n    tag_16:\n        /* \"contracts/PRACTICE/Enum.sol\":596:607  size.MEDIUM */\n      0x01\n        /* \"contracts/PRACTICE/Enum.sol\":589:595  choice */\n      0x00\n      0x00\n        /* \"contracts/PRACTICE/Enum.sol\":589:607  choice=size.MEDIUM */\n      0x0100\n      exp\n      dup2\n      sload\n      dup2\n      0xff\n      mul\n      not\n      and\n      swap1\n      dup4\n      0x02\n      dup2\n      gt\n      iszero\n      tag_25\n      jumpi\n      tag_26\n      tag_20\n      jump\t// in\n    tag_26:\n    tag_25:\n      mul\n      or\n      swap1\n      sstore\n      pop\n        /* \"contracts/PRACTICE/Enum.sol\":550:615  function setMedium() public {... */\n      jump\t// out\n        /* \"#utility.yul\":7:187   */\n    tag_20:\n        /* \"#utility.yul\":55:132   */\n      0x4e487b7100000000000000000000000000000000000000000000000000000000\n        /* \"#utility.yul\":52:53   */\n      0x00\n        /* \"#utility.yul\":45:133   */\n      mstore\n        /* \"#utility.yul\":152:156   */\n      0x21\n        /* \"#utility.yul\":149:150   */\n      0x04\n        /* \"#utility.yul\":142:157   */\n      mstore\n        /* \"#utility.yul\":176:180   */\n      0x24\n        /* \"#utility.yul\":173:174   */\n      0x00\n        /* \"#utility.yul\":166:181   */\n      revert\n        /* \"#utility.yul\":193:304   */\n    tag_27:\n        /* \"#utility.yul\":272:273   */\n      0x03\n        /* \"#utility.yul\":265:270   */\n      dup2\n        /* \"#utility.yul\":262:274   */\n      lt\n        /* \"#utility.yul\":252:298   */\n      tag_34\n      jumpi\n        /* \"#utility.yul\":278:296   */\n      tag_35\n      tag_20\n      jump\t// in\n    tag_35:\n        /* \"#utility.yul\":252:298   */\n    tag_34:\n        /* \"#utility.yul\":193:304   */\n      pop\n      jump\t// out\n        /* \"#utility.yul\":310:433   */\n    tag_28:\n        /* \"#utility.yul\":353:360   */\n      0x00\n        /* \"#utility.yul\":382:387   */\n      dup2\n        /* \"#utility.yul\":371:387   */\n      swap1\n      pop\n        /* \"#utility.yul\":388:427   */\n      tag_37\n        /* \"#utility.yul\":421:426   */\n      dup3\n        /* \"#utility.yul\":388:427   */\n      tag_27\n      jump\t// in\n    tag_37:\n        /* \"#utility.yul\":310:433   */\n      swap2\n      swap1\n      pop\n      jump\t// out\n        /* \"#utility.yul\":439:562   */\n    tag_29:\n        /* \"#utility.yul\":493:502   */\n      0x00\n        /* \"#utility.yul\":526:556   */\n      tag_39\n        /* \"#utility.yul\":550:555   */\n      dup3\n        /* \"#utility.yul\":526:556   */\n      tag_28\n      jump\t// in\n    tag_39:\n        /* \"#utility.yul\":513:556   */\n      swap1\n      pop\n        /* \"#utility.yul\":439:562   */\n      swap2\n      swap1\n      pop\n      jump\t// out\n        /* \"#utility.yul\":568:707   */\n    tag_30:\n        /* \"#utility.yul\":659:700   */\n      tag_41\n        /* \"#utility.yul\":694:699   */\n      dup2\n        /* \"#utility.yul\":659:700   */\n      tag_29\n      jump\t// in\n    tag_41:\n        /* \"#utility.yul\":654:657   */\n      dup3\n        /* \"#utility.yul\":647:701   */\n      mstore\n        /* \"#utility.yul\":568:707   */\n      pop\n      pop\n      jump\t// out\n        /* \"#utility.yul\":713:943   */\n    tag_14:\n        /* \"#utility.yul\":810:814   */\n      0x00\n        /* \"#utility.yul\":848:850   */\n      0x20\n        /* \"#utility.yul\":837:846   */\n      dup3\n        /* \"#utility.yul\":833:851   */\n      add\n        /* \"#utility.yul\":825:851   */\n      swap1\n      pop\n        /* \"#utility.yul\":861:936   */\n      tag_43\n        /* \"#utility.yul\":933:934   */\n      0x00\n        /* \"#utility.yul\":922:931   */\n      dup4\n        /* \"#utility.yul\":918:935   */\n      add\n        /* \"#utility.yul\":909:915   */\n      dup5\n        /* \"#utility.yul\":861:936   */\n      tag_30\n      jump\t// in\n    tag_43:\n        /* \"#utility.yul\":713:943   */\n      swap3\n      swap2\n      pop\n      pop\n      jump\t// out\n\n    auxdata: 0xa2646970667358221220422542d8da74c136c8735b6e43ba606b23e967ec4f45c752862097115b3cfbb864736f6c634300081c0033\n}\n",
				"bytecode": {
					"linkReferences": {},
					"object": "608060405260015f5f6101000a81548160ff0219169083600281111560255760246039565b5b02179055503480156034575f5ffd5b506066565b7f4e487b71000000000000000000000000000000000000000000000000000000005f52602160045260245ffd5b6101dd806100735f395ff3fe608060405234801561000f575f5ffd5b506004361061004a575f3560e01c8063694ebe4f1461004e57806391ff2c861461005857806398f42fe314610062578063db39b91514610080575b5f5ffd5b61005661008a565b005b6100606100b5565b005b61006a6100df565b604051610077919061018e565b60405180910390f35b6100886100f0565b005b60025f5f6101000a81548160ff021916908360028111156100ae576100ad61011b565b5b0217905550565b5f5f5f6101000a81548160ff021916908360028111156100d8576100d761011b565b5b0217905550565b5f5f9054906101000a900460ff1681565b60015f5f6101000a81548160ff021916908360028111156101145761011361011b565b5b0217905550565b7f4e487b71000000000000000000000000000000000000000000000000000000005f52602160045260245ffd5b600381106101595761015861011b565b5b50565b5f81905061016982610148565b919050565b5f6101788261015c565b9050919050565b6101888161016e565b82525050565b5f6020820190506101a15f83018461017f565b9291505056fea2646970667358221220422542d8da74c136c8735b6e43ba606b23e967ec4f45c752862097115b3cfbb864736f6c634300081c0033",
					"opcodes": "PUSH1 0x80 PUSH1 0x40 MSTORE PUSH1 0x1 PUSH0 PUSH0 PUSH2 0x100 EXP DUP2 SLOAD DUP2 PUSH1 0xFF MUL NOT AND SWAP1 DUP4 PUSH1 0x2 DUP2 GT ISZERO PUSH1 0x25 JUMPI PUSH1 0x24 PUSH1 0x39 JUMP JUMPDEST JUMPDEST MUL OR SWAP1 SSTORE POP CALLVALUE DUP1 ISZERO PUSH1 0x34 JUMPI PUSH0 PUSH0 REVERT JUMPDEST POP PUSH1 0x66 JUMP JUMPDEST PUSH32 0x4E487B7100000000000000000000000000000000000000000000000000000000 PUSH0 MSTORE PUSH1 0x21 PUSH1 0x4 MSTORE PUSH1 0x24 PUSH0 REVERT JUMPDEST PUSH2 0x1DD DUP1 PUSH2 0x73 PUSH0 CODECOPY PUSH0 RETURN INVALID PUSH1 0x80 PUSH1 0x40 MSTORE CALLVALUE DUP1 ISZERO PUSH2 0xF JUMPI PUSH0 PUSH0 REVERT JUMPDEST POP PUSH1 0x4 CALLDATASIZE LT PUSH2 0x4A JUMPI PUSH0 CALLDATALOAD PUSH1 0xE0 SHR DUP1 PUSH4 0x694EBE4F EQ PUSH2 0x4E JUMPI DUP1 PUSH4 0x91FF2C86 EQ PUSH2 0x58 JUMPI DUP1 PUSH4 0x98F42FE3 EQ PUSH2 0x62 JUMPI DUP1 PUSH4 0xDB39B915 EQ PUSH2 0x80 JUMPI JUMPDEST PUSH0 PUSH0 REVERT JUMPDEST PUSH2 0x56 PUSH2 0x8A JUMP JUMPDEST STOP JUMPDEST PUSH2 0x60 PUSH2 0xB5 JUMP JUMPDEST STOP JUMPDEST PUSH2 0x6A PUSH2 0xDF JUMP JUMPDEST PUSH1 0x40 MLOAD PUSH2 0x77 SWAP2 SWAP1 PUSH2 0x18E JUMP JUMPDEST PUSH1 0x40 MLOAD DUP1 SWAP2 SUB SWAP1 RETURN JUMPDEST PUSH2 0x88 PUSH2 0xF0 JUMP JUMPDEST STOP JUMPDEST PUSH1 0x2 PUSH0 PUSH0 PUSH2 0x100 EXP DUP2 SLOAD DUP2 PUSH1 0xFF MUL NOT AND SWAP1 DUP4 PUSH1 0x2 DUP2 GT ISZERO PUSH2 0xAE JUMPI PUSH2 0xAD PUSH2 0x11B JUMP JUMPDEST JUMPDEST MUL OR SWAP1 SSTORE POP JUMP JUMPDEST PUSH0 PUSH0 PUSH0 PUSH2 0x100 EXP DUP2 SLOAD DUP2 PUSH1 0xFF MUL NOT AND SWAP1 DUP4 PUSH1 0x2 DUP2 GT ISZERO PUSH2 0xD8 JUMPI PUSH2 0xD7 PUSH2 0x11B JUMP JUMPDEST JUMPDEST MUL OR SWAP1 SSTORE POP JUMP JUMPDEST PUSH0 PUSH0 SWAP1 SLOAD SWAP1 PUSH2 0x100 EXP SWAP1 DIV PUSH1 0xFF AND DUP2 JUMP JUMPDEST PUSH1 0x1 PUSH0 PUSH0 PUSH2 0x100 EXP DUP2 SLOAD DUP2 PUSH1 0xFF MUL NOT AND SWAP1 DUP4 PUSH1 0x2 DUP2 GT ISZERO PUSH2 0x114 JUMPI PUSH2 0x113 PUSH2 0x11B JUMP JUMPDEST JUMPDEST MUL OR SWAP1 SSTORE POP JUMP JUMPDEST PUSH32 0x4E487B7100000000000000000000000000000000000000000000000000000000 PUSH0 MSTORE PUSH1 0x21 PUSH1 0x4 MSTORE PUSH1 0x24 PUSH0 REVERT JUMPDEST PUSH1 0x3 DUP2 LT PUSH2 0x159 JUMPI PUSH2 0x158 PUSH2 0x11B JUMP JUMPDEST JUMPDEST POP JUMP JUMPDEST PUSH0 DUP2 SWAP1 POP PUSH2 0x169 DUP3 PUSH2 0x148 JUMP JUMPDEST SWAP2 SWAP1 POP JUMP JUMPDEST PUSH0 PUSH2 0x178 DUP3 PUSH2 0x15C JUMP JUMPDEST SWAP1 POP SWAP2 SWAP1 POP JUMP JUMPDEST PUSH2 0x188 DUP2 PUSH2 0x16E JUMP JUMPDEST DUP3 MSTORE POP POP JUMP JUMPDEST PUSH0 PUSH1 0x20 DUP3 ADD SWAP1 POP PUSH2 0x1A1 PUSH0 DUP4 ADD DUP5 PUSH2 0x17F JUMP JUMPDEST SWAP3 SWAP2 POP POP JUMP INVALID LOG2 PUSH5 0x6970667358 0x22 SLT KECCAK256 TIMESTAMP 0x25 TIMESTAMP 0xD8 0xDA PUSH21 0xC136C8735B6E43BA606B23E967EC4F45C752862097 GT JUMPDEST EXTCODECOPY 0xFB 0xB8 PUSH5 0x736F6C6343 STOP ADDMOD SHR STOP CALLER "
				},
				"gasEstimates": {
					"creation": {
						"codeDepositCost": "95400",
						"executionCost": "24436",
						"totalCost": "119836"
					},
					"external": {
						"choice()": "2575",
						"setLarge()": "24406",
						"setMedium()": "24472",
						"setSmall()": "24427"
					}
				},
				"methodIdentifiers": {
					"choice()": "98f42fe3",
					"setLarge()": "694ebe4f",
					"setMedium()": "db39b915",
					"setSmall()": "91ff2c86"
				}
			},
			"storageLayout": {
				"storage": [
					{
						"astId": 10,
						"contract": "contracts/PRACTICE/Enum.sol:Enum",
						"label": "choice",
						"offset": 0,
						"slot": "0",
						"type": "t_enum(size)5"
					}
				],
				"types": {
					"t_enum(size)5": {
						"encoding": "inplace",
						"label": "enum Enum.size",
						"numberOfBytes": "1"
					}
				}
			},
			"userdoc": {
				"kind": "user",
				"methods": {},
				"version": 1
			}
		}
	}
}