{
	"contracts/PRACTICE/If-Else.sol": {
		"decision": {
			"abi": [
				{
					"inputs": [
						{
							"internalType": "uint256",
							"name": "a",
							"type": "uint256"
						},
						{
							"internalType": "uint256",
							"name": "b",
							"type": "uint256"
						},
						{
							"internalType": "uint256",
							"name": "c",
							"type": "uint256"
						}
					],
					"name": "done",
					"outputs": [
						{
							"internalType": "string",
							"name": "",
							"type": "string"
						}
					],
					"stateMutability": "pure",
					"type": "function"
				}
			],
			"devdoc": {
				"kind": "dev",
				"methods": {},
				"version": 1
			},
			"evm": {
				"assembly": "    /* \"contracts/PRACTICE/If-Else.sol\":59:496  contract decision {... */\n  mstore(0x40, 0x80)\n  callvalue\n  dup1\n  iszero\n  tag_1\n  jumpi\n  revert(0x00, 0x00)\ntag_1:\n  pop\n  dataSize(sub_0)\n  dup1\n  dataOffset(sub_0)\n  0x00\n  codecopy\n  0x00\n  return\nstop\n\nsub_0: assembly {\n        /* \"contracts/PRACTICE/If-Else.sol\":59:496  contract decision {... */\n      mstore(0x40, 0x80)\n      callvalue\n      dup1\n      iszero\n      tag_1\n      jumpi\n      revert(0x00, 0x00)\n    tag_1:\n      pop\n      jumpi(tag_2, lt(calldatasize, 0x04))\n      shr(0xe0, calldataload(0x00))\n      dup1\n      0x874ccef9\n      eq\n      tag_3\n      jumpi\n    tag_2:\n      revert(0x00, 0x00)\n        /* \"contracts/PRACTICE/If-Else.sol\":84:489  function done(uint a,uint b,uint c) public pure returns(string memory){... */\n    tag_3:\n      tag_4\n      0x04\n      dup1\n      calldatasize\n      sub\n      dup2\n      add\n      swap1\n      tag_5\n      swap2\n      swap1\n      tag_6\n      jump\t// in\n    tag_5:\n      tag_7\n      jump\t// in\n    tag_4:\n      mload(0x40)\n      tag_8\n      swap2\n      swap1\n      tag_9\n      jump\t// in\n    tag_8:\n      mload(0x40)\n      dup1\n      swap2\n      sub\n      swap1\n      return\n    tag_7:\n        /* \"contracts/PRACTICE/If-Else.sol\":140:153  string memory */\n      0x60\n        /* \"contracts/PRACTICE/If-Else.sol\":171:172  b */\n      dup3\n        /* \"contracts/PRACTICE/If-Else.sol\":169:170  a */\n      dup5\n        /* \"contracts/PRACTICE/If-Else.sol\":169:172  a>b */\n      gt\n        /* \"contracts/PRACTICE/If-Else.sol\":169:179  a>b && a>c */\n      dup1\n      iszero\n      tag_11\n      jumpi\n      pop\n        /* \"contracts/PRACTICE/If-Else.sol\":178:179  c */\n      dup2\n        /* \"contracts/PRACTICE/If-Else.sol\":176:177  a */\n      dup5\n        /* \"contracts/PRACTICE/If-Else.sol\":176:179  a>c */\n      gt\n        /* \"contracts/PRACTICE/If-Else.sol\":169:179  a>b && a>c */\n    tag_11:\n        /* \"contracts/PRACTICE/If-Else.sol\":165:478  if (a>b && a>c){... */\n      iszero\n      tag_12\n      jumpi\n        /* \"contracts/PRACTICE/If-Else.sol\":195:230  return \"a is greater than b and c \" */\n      mload(0x40)\n      dup1\n      0x40\n      add\n      0x40\n      mstore\n      dup1\n      0x1a\n      dup2\n      mstore\n      0x20\n      add\n      0x612069732067726561746572207468616e206220616e64206320000000000000\n      dup2\n      mstore\n      pop\n      swap1\n      pop\n      jump(tag_10)\n        /* \"contracts/PRACTICE/If-Else.sol\":165:478  if (a>b && a>c){... */\n    tag_12:\n        /* \"contracts/PRACTICE/If-Else.sol\":263:264  a */\n      dup4\n        /* \"contracts/PRACTICE/If-Else.sol\":261:262  b */\n      dup4\n        /* \"contracts/PRACTICE/If-Else.sol\":261:264  b>a */\n      gt\n        /* \"contracts/PRACTICE/If-Else.sol\":261:271  b>a && b>c */\n      dup1\n      iszero\n      tag_14\n      jumpi\n      pop\n        /* \"contracts/PRACTICE/If-Else.sol\":270:271  c */\n      dup2\n        /* \"contracts/PRACTICE/If-Else.sol\":268:269  b */\n      dup4\n        /* \"contracts/PRACTICE/If-Else.sol\":268:271  b>c */\n      gt\n        /* \"contracts/PRACTICE/If-Else.sol\":261:271  b>a && b>c */\n    tag_14:\n        /* \"contracts/PRACTICE/If-Else.sol\":257:478  if (b>a && b>c){... */\n      iszero\n      tag_15\n      jumpi\n        /* \"contracts/PRACTICE/If-Else.sol\":288:323  return \"b is greater than a and c \" */\n      mload(0x40)\n      dup1\n      0x40\n      add\n      0x40\n      mstore\n      dup1\n      0x1a\n      dup2\n      mstore\n      0x20\n      add\n      0x622069732067726561746572207468616e206120616e64206320000000000000\n      dup2\n      mstore\n      pop\n      swap1\n      pop\n      jump(tag_10)\n        /* \"contracts/PRACTICE/If-Else.sol\":257:478  if (b>a && b>c){... */\n    tag_15:\n        /* \"contracts/PRACTICE/If-Else.sol\":356:357  a */\n      dup4\n        /* \"contracts/PRACTICE/If-Else.sol\":354:355  c */\n      dup3\n        /* \"contracts/PRACTICE/If-Else.sol\":354:357  c>a */\n      gt\n        /* \"contracts/PRACTICE/If-Else.sol\":354:364  c>a && c>b */\n      dup1\n      iszero\n      tag_17\n      jumpi\n      pop\n        /* \"contracts/PRACTICE/If-Else.sol\":363:364  b */\n      dup3\n        /* \"contracts/PRACTICE/If-Else.sol\":361:362  c */\n      dup3\n        /* \"contracts/PRACTICE/If-Else.sol\":361:364  c>b */\n      gt\n        /* \"contracts/PRACTICE/If-Else.sol\":354:364  c>a && c>b */\n    tag_17:\n        /* \"contracts/PRACTICE/If-Else.sol\":350:478  if (c>a && c>b){... */\n      iszero\n      tag_18\n      jumpi\n        /* \"contracts/PRACTICE/If-Else.sol\":380:402  return \"c is greater \" */\n      mload(0x40)\n      dup1\n      0x40\n      add\n      0x40\n      mstore\n      dup1\n      0x0d\n      dup2\n      mstore\n      0x20\n      add\n      0x6320697320677265617465722000000000000000000000000000000000000000\n      dup2\n      mstore\n      pop\n      swap1\n      pop\n      jump(tag_10)\n        /* \"contracts/PRACTICE/If-Else.sol\":350:478  if (c>a && c>b){... */\n    tag_18:\n        /* \"contracts/PRACTICE/If-Else.sol\":443:466  return \"they are equal\" */\n      mload(0x40)\n      dup1\n      0x40\n      add\n      0x40\n      mstore\n      dup1\n      0x0e\n      dup2\n      mstore\n      0x20\n      add\n      0x746865792061726520657175616c000000000000000000000000000000000000\n      dup2\n      mstore\n      pop\n      swap1\n      pop\n        /* \"contracts/PRACTICE/If-Else.sol\":84:489  function done(uint a,uint b,uint c) public pure returns(string memory){... */\n    tag_10:\n      swap4\n      swap3\n      pop\n      pop\n      pop\n      jump\t// out\n        /* \"#utility.yul\":88:205   */\n    tag_21:\n        /* \"#utility.yul\":197:198   */\n      0x00\n        /* \"#utility.yul\":194:195   */\n      0x00\n        /* \"#utility.yul\":187:199   */\n      revert\n        /* \"#utility.yul\":334:411   */\n    tag_23:\n        /* \"#utility.yul\":371:378   */\n      0x00\n        /* \"#utility.yul\":400:405   */\n      dup2\n        /* \"#utility.yul\":389:405   */\n      swap1\n      pop\n        /* \"#utility.yul\":334:411   */\n      swap2\n      swap1\n      pop\n      jump\t// out\n        /* \"#utility.yul\":417:539   */\n    tag_24:\n        /* \"#utility.yul\":490:514   */\n      tag_37\n        /* \"#utility.yul\":508:513   */\n      dup2\n        /* \"#utility.yul\":490:514   */\n      tag_23\n      jump\t// in\n    tag_37:\n        /* \"#utility.yul\":483:488   */\n      dup2\n        /* \"#utility.yul\":480:515   */\n      eq\n        /* \"#utility.yul\":470:533   */\n      tag_38\n      jumpi\n        /* \"#utility.yul\":529:530   */\n      0x00\n        /* \"#utility.yul\":526:527   */\n      0x00\n        /* \"#utility.yul\":519:531   */\n      revert\n        /* \"#utility.yul\":470:533   */\n    tag_38:\n        /* \"#utility.yul\":417:539   */\n      pop\n      jump\t// out\n        /* \"#utility.yul\":545:684   */\n    tag_25:\n        /* \"#utility.yul\":591:596   */\n      0x00\n        /* \"#utility.yul\":629:635   */\n      dup2\n        /* \"#utility.yul\":616:636   */\n      calldataload\n        /* \"#utility.yul\":607:636   */\n      swap1\n      pop\n        /* \"#utility.yul\":645:678   */\n      tag_40\n        /* \"#utility.yul\":672:677   */\n      dup2\n        /* \"#utility.yul\":645:678   */\n      tag_24\n      jump\t// in\n    tag_40:\n        /* \"#utility.yul\":545:684   */\n      swap3\n      swap2\n      pop\n      pop\n      jump\t// out\n        /* \"#utility.yul\":690:1309   */\n    tag_6:\n        /* \"#utility.yul\":767:773   */\n      0x00\n        /* \"#utility.yul\":775:781   */\n      0x00\n        /* \"#utility.yul\":783:789   */\n      0x00\n        /* \"#utility.yul\":832:834   */\n      0x60\n        /* \"#utility.yul\":820:829   */\n      dup5\n        /* \"#utility.yul\":811:818   */\n      dup7\n        /* \"#utility.yul\":807:830   */\n      sub\n        /* \"#utility.yul\":803:835   */\n      slt\n        /* \"#utility.yul\":800:919   */\n      iszero\n      tag_42\n      jumpi\n        /* \"#utility.yul\":838:917   */\n      tag_43\n      tag_21\n      jump\t// in\n    tag_43:\n        /* \"#utility.yul\":800:919   */\n    tag_42:\n        /* \"#utility.yul\":958:959   */\n      0x00\n        /* \"#utility.yul\":983:1036   */\n      tag_44\n        /* \"#utility.yul\":1028:1035   */\n      dup7\n        /* \"#utility.yul\":1019:1025   */\n      dup3\n        /* \"#utility.yul\":1008:1017   */\n      dup8\n        /* \"#utility.yul\":1004:1026   */\n      add\n        /* \"#utility.yul\":983:1036   */\n      tag_25\n      jump\t// in\n    tag_44:\n        /* \"#utility.yul\":973:1036   */\n      swap4\n      pop\n        /* \"#utility.yul\":929:1046   */\n      pop\n        /* \"#utility.yul\":1085:1087   */\n      0x20\n        /* \"#utility.yul\":1111:1164   */\n      tag_45\n        /* \"#utility.yul\":1156:1163   */\n      dup7\n        /* \"#utility.yul\":1147:1153   */\n      dup3\n        /* \"#utility.yul\":1136:1145   */\n      dup8\n        /* \"#utility.yul\":1132:1154   */\n      add\n        /* \"#utility.yul\":1111:1164   */\n      tag_25\n      jump\t// in\n    tag_45:\n        /* \"#utility.yul\":1101:1164   */\n      swap3\n      pop\n        /* \"#utility.yul\":1056:1174   */\n      pop\n        /* \"#utility.yul\":1213:1215   */\n      0x40\n        /* \"#utility.yul\":1239:1292   */\n      tag_46\n        /* \"#utility.yul\":1284:1291   */\n      dup7\n        /* \"#utility.yul\":1275:1281   */\n      dup3\n        /* \"#utility.yul\":1264:1273   */\n      dup8\n        /* \"#utility.yul\":1260:1282   */\n      add\n        /* \"#utility.yul\":1239:1292   */\n      tag_25\n      jump\t// in\n    tag_46:\n        /* \"#utility.yul\":1229:1292   */\n      swap2\n      pop\n        /* \"#utility.yul\":1184:1302   */\n      pop\n        /* \"#utility.yul\":690:1309   */\n      swap3\n      pop\n      swap3\n      pop\n      swap3\n      jump\t// out\n        /* \"#utility.yul\":1315:1414   */\n    tag_26:\n        /* \"#utility.yul\":1367:1373   */\n      0x00\n        /* \"#utility.yul\":1401:1406   */\n      dup2\n        /* \"#utility.yul\":1395:1407   */\n      mload\n        /* \"#utility.yul\":1385:1407   */\n      swap1\n      pop\n        /* \"#utility.yul\":1315:1414   */\n      swap2\n      swap1\n      pop\n      jump\t// out\n        /* \"#utility.yul\":1420:1589   */\n    tag_27:\n        /* \"#utility.yul\":1504:1515   */\n      0x00\n        /* \"#utility.yul\":1538:1544   */\n      dup3\n        /* \"#utility.yul\":1533:1536   */\n      dup3\n        /* \"#utility.yul\":1526:1545   */\n      mstore\n        /* \"#utility.yul\":1578:1582   */\n      0x20\n        /* \"#utility.yul\":1573:1576   */\n      dup3\n        /* \"#utility.yul\":1569:1583   */\n      add\n        /* \"#utility.yul\":1554:1583   */\n      swap1\n      pop\n        /* \"#utility.yul\":1420:1589   */\n      swap3\n      swap2\n      pop\n      pop\n      jump\t// out\n        /* \"#utility.yul\":1595:1734   */\n    tag_28:\n        /* \"#utility.yul\":1684:1690   */\n      dup3\n        /* \"#utility.yul\":1679:1682   */\n      dup2\n        /* \"#utility.yul\":1674:1677   */\n      dup4\n        /* \"#utility.yul\":1668:1691   */\n      mcopy\n        /* \"#utility.yul\":1725:1726   */\n      0x00\n        /* \"#utility.yul\":1716:1722   */\n      dup4\n        /* \"#utility.yul\":1711:1714   */\n      dup4\n        /* \"#utility.yul\":1707:1723   */\n      add\n        /* \"#utility.yul\":1700:1727   */\n      mstore\n        /* \"#utility.yul\":1595:1734   */\n      pop\n      pop\n      pop\n      jump\t// out\n        /* \"#utility.yul\":1740:1842   */\n    tag_29:\n        /* \"#utility.yul\":1781:1787   */\n      0x00\n        /* \"#utility.yul\":1832:1834   */\n      0x1f\n        /* \"#utility.yul\":1828:1835   */\n      not\n        /* \"#utility.yul\":1823:1825   */\n      0x1f\n        /* \"#utility.yul\":1816:1821   */\n      dup4\n        /* \"#utility.yul\":1812:1826   */\n      add\n        /* \"#utility.yul\":1808:1836   */\n      and\n        /* \"#utility.yul\":1798:1836   */\n      swap1\n      pop\n        /* \"#utility.yul\":1740:1842   */\n      swap2\n      swap1\n      pop\n      jump\t// out\n        /* \"#utility.yul\":1848:2225   */\n    tag_30:\n        /* \"#utility.yul\":1936:1939   */\n      0x00\n        /* \"#utility.yul\":1964:2003   */\n      tag_52\n        /* \"#utility.yul\":1997:2002   */\n      dup3\n        /* \"#utility.yul\":1964:2003   */\n      tag_26\n      jump\t// in\n    tag_52:\n        /* \"#utility.yul\":2019:2090   */\n      tag_53\n        /* \"#utility.yul\":2083:2089   */\n      dup2\n        /* \"#utility.yul\":2078:2081   */\n      dup6\n        /* \"#utility.yul\":2019:2090   */\n      tag_27\n      jump\t// in\n    tag_53:\n        /* \"#utility.yul\":2012:2090   */\n      swap4\n      pop\n        /* \"#utility.yul\":2099:2164   */\n      tag_54\n        /* \"#utility.yul\":2157:2163   */\n      dup2\n        /* \"#utility.yul\":2152:2155   */\n      dup6\n        /* \"#utility.yul\":2145:2149   */\n      0x20\n        /* \"#utility.yul\":2138:2143   */\n      dup7\n        /* \"#utility.yul\":2134:2150   */\n      add\n        /* \"#utility.yul\":2099:2164   */\n      tag_28\n      jump\t// in\n    tag_54:\n        /* \"#utility.yul\":2189:2218   */\n      tag_55\n        /* \"#utility.yul\":2211:2217   */\n      dup2\n        /* \"#utility.yul\":2189:2218   */\n      tag_29\n      jump\t// in\n    tag_55:\n        /* \"#utility.yul\":2184:2187   */\n      dup5\n        /* \"#utility.yul\":2180:2219   */\n      add\n        /* \"#utility.yul\":2173:2219   */\n      swap2\n      pop\n        /* \"#utility.yul\":1940:2225   */\n      pop\n        /* \"#utility.yul\":1848:2225   */\n      swap3\n      swap2\n      pop\n      pop\n      jump\t// out\n        /* \"#utility.yul\":2231:2544   */\n    tag_9:\n        /* \"#utility.yul\":2344:2348   */\n      0x00\n        /* \"#utility.yul\":2382:2384   */\n      0x20\n        /* \"#utility.yul\":2371:2380   */\n      dup3\n        /* \"#utility.yul\":2367:2385   */\n      add\n        /* \"#utility.yul\":2359:2385   */\n      swap1\n      pop\n        /* \"#utility.yul\":2431:2440   */\n      dup2\n        /* \"#utility.yul\":2425:2429   */\n      dup2\n        /* \"#utility.yul\":2421:2441   */\n      sub\n        /* \"#utility.yul\":2417:2418   */\n      0x00\n        /* \"#utility.yul\":2406:2415   */\n      dup4\n        /* \"#utility.yul\":2402:2419   */\n      add\n        /* \"#utility.yul\":2395:2442   */\n      mstore\n        /* \"#utility.yul\":2459:2537   */\n      tag_57\n        /* \"#utility.yul\":2532:2536   */\n      dup2\n        /* \"#utility.yul\":2523:2529   */\n      dup5\n        /* \"#utility.yul\":2459:2537   */\n      tag_30\n      jump\t// in\n    tag_57:\n        /* \"#utility.yul\":2451:2537   */\n      swap1\n      pop\n        /* \"#utility.yul\":2231:2544   */\n      swap3\n      swap2\n      pop\n      pop\n      jump\t// out\n\n    auxdata: 0xa264697066735822122028bde9b243ae8eabc69924366eb3b1a937aa2dd65f749b78672823883a62c47064736f6c634300081c0033\n}\n",
				"bytecode": {
					"linkReferences": {},
					"object": "6080604052348015600e575f5ffd5b506102dc8061001c5f395ff3fe608060405234801561000f575f5ffd5b5060043610610029575f3560e01c8063874ccef91461002d575b5f5ffd5b610047600480360381019061004291906101c6565b61005d565b6040516100549190610286565b60405180910390f35b6060828411801561006d57508184115b156100af576040518060400160405280601a81526020017f612069732067726561746572207468616e206220616e642063200000000000008152509050610188565b83831180156100bd57508183115b156100ff576040518060400160405280601a81526020017f622069732067726561746572207468616e206120616e642063200000000000008152509050610188565b838211801561010d57508282115b1561014f576040518060400160405280600d81526020017f63206973206772656174657220000000000000000000000000000000000000008152509050610188565b6040518060400160405280600e81526020017f746865792061726520657175616c00000000000000000000000000000000000081525090505b9392505050565b5f5ffd5b5f819050919050565b6101a581610193565b81146101af575f5ffd5b50565b5f813590506101c08161019c565b92915050565b5f5f5f606084860312156101dd576101dc61018f565b5b5f6101ea868287016101b2565b93505060206101fb868287016101b2565b925050604061020c868287016101b2565b9150509250925092565b5f81519050919050565b5f82825260208201905092915050565b8281835e5f83830152505050565b5f601f19601f8301169050919050565b5f61025882610216565b6102628185610220565b9350610272818560208601610230565b61027b8161023e565b840191505092915050565b5f6020820190508181035f83015261029e818461024e565b90509291505056fea264697066735822122028bde9b243ae8eabc69924366eb3b1a937aa2dd65f749b78672823883a62c47064736f6c634300081c0033",
					"opcodes": "PUSH1 0x80 PUSH1 0x40 MSTORE CALLVALUE DUP1 ISZERO PUSH1 0xE JUMPI PUSH0 PUSH0 REVERT JUMPDEST POP PUSH2 0x2DC DUP1 PUSH2 0x1C PUSH0 CODECOPY PUSH0 RETURN INVALID PUSH1 0x80 PUSH1 0x40 MSTORE CALLVALUE DUP1 ISZERO PUSH2 0xF JUMPI PUSH0 PUSH0 REVERT JUMPDEST POP PUSH1 0x4 CALLDATASIZE LT PUSH2 0x29 JUMPI PUSH0 CALLDATALOAD PUSH1 0xE0 SHR DUP1 PUSH4 0x874CCEF9 EQ PUSH2 0x2D JUMPI JUMPDEST PUSH0 PUSH0 REVERT JUMPDEST PUSH2 0x47 PUSH1 0x4 DUP1 CALLDATASIZE SUB DUP2 ADD SWAP1 PUSH2 0x42 SWAP2 SWAP1 PUSH2 0x1C6 JUMP JUMPDEST PUSH2 0x5D JUMP JUMPDEST PUSH1 0x40 MLOAD PUSH2 0x54 SWAP2 SWAP1 PUSH2 0x286 JUMP JUMPDEST PUSH1 0x40 MLOAD DUP1 SWAP2 SUB SWAP1 RETURN JUMPDEST PUSH1 0x60 DUP3 DUP5 GT DUP1 ISZERO PUSH2 0x6D JUMPI POP DUP2 DUP5 GT JUMPDEST ISZERO PUSH2 0xAF JUMPI PUSH1 0x40 MLOAD DUP1 PUSH1 0x40 ADD PUSH1 0x40 MSTORE DUP1 PUSH1 0x1A DUP2 MSTORE PUSH1 0x20 ADD PUSH32 0x612069732067726561746572207468616E206220616E64206320000000000000 DUP2 MSTORE POP SWAP1 POP PUSH2 0x188 JUMP JUMPDEST DUP4 DUP4 GT DUP1 ISZERO PUSH2 0xBD JUMPI POP DUP2 DUP4 GT JUMPDEST ISZERO PUSH2 0xFF JUMPI PUSH1 0x40 MLOAD DUP1 PUSH1 0x40 ADD PUSH1 0x40 MSTORE DUP1 PUSH1 0x1A DUP2 MSTORE PUSH1 0x20 ADD PUSH32 0x622069732067726561746572207468616E206120616E64206320000000000000 DUP2 MSTORE POP SWAP1 POP PUSH2 0x188 JUMP JUMPDEST DUP4 DUP3 GT DUP1 ISZERO PUSH2 0x10D JUMPI POP DUP3 DUP3 GT JUMPDEST ISZERO PUSH2 0x14F JUMPI PUSH1 0x40 MLOAD DUP1 PUSH1 0x40 ADD PUSH1 0x40 MSTORE DUP1 PUSH1 0xD DUP2 MSTORE PUSH1 0x20 ADD PUSH32 0x6320697320677265617465722000000000000000000000000000000000000000 DUP2 MSTORE POP SWAP1 POP PUSH2 0x188 JUMP JUMPDEST PUSH1 0x40 MLOAD DUP1 PUSH1 0x40 ADD PUSH1 0x40 MSTORE DUP1 PUSH1 0xE DUP2 MSTORE PUSH1 0x20 ADD PUSH32 0x746865792061726520657175616C000000000000000000000000000000000000 DUP2 MSTORE POP SWAP1 POP JUMPDEST SWAP4 SWAP3 POP POP POP JUMP JUMPDEST PUSH0 PUSH0 REVERT JUMPDEST PUSH0 DUP2 SWAP1 POP SWAP2 SWAP1 POP JUMP JUMPDEST PUSH2 0x1A5 DUP2 PUSH2 0x193 JUMP JUMPDEST DUP2 EQ PUSH2 0x1AF JUMPI PUSH0 PUSH0 REVERT JUMPDEST POP JUMP JUMPDEST PUSH0 DUP2 CALLDATALOAD SWAP1 POP PUSH2 0x1C0 DUP2 PUSH2 0x19C JUMP JUMPDEST SWAP3 SWAP2 POP POP JUMP JUMPDEST PUSH0 PUSH0 PUSH0 PUSH1 0x60 DUP5 DUP7 SUB SLT ISZERO PUSH2 0x1DD JUMPI PUSH2 0x1DC PUSH2 0x18F JUMP JUMPDEST JUMPDEST PUSH0 PUSH2 0x1EA DUP7 DUP3 DUP8 ADD PUSH2 0x1B2 JUMP JUMPDEST SWAP4 POP POP PUSH1 0x20 PUSH2 0x1FB DUP7 DUP3 DUP8 ADD PUSH2 0x1B2 JUMP JUMPDEST SWAP3 POP POP PUSH1 0x40 PUSH2 0x20C DUP7 DUP3 DUP8 ADD PUSH2 0x1B2 JUMP JUMPDEST SWAP2 POP POP SWAP3 POP SWAP3 POP SWAP3 JUMP JUMPDEST PUSH0 DUP2 MLOAD SWAP1 POP SWAP2 SWAP1 POP JUMP JUMPDEST PUSH0 DUP3 DUP3 MSTORE PUSH1 0x20 DUP3 ADD SWAP1 POP SWAP3 SWAP2 POP POP JUMP JUMPDEST DUP3 DUP2 DUP4 MCOPY PUSH0 DUP4 DUP4 ADD MSTORE POP POP POP JUMP JUMPDEST PUSH0 PUSH1 0x1F NOT PUSH1 0x1F DUP4 ADD AND SWAP1 POP SWAP2 SWAP1 POP JUMP JUMPDEST PUSH0 PUSH2 0x258 DUP3 PUSH2 0x216 JUMP JUMPDEST PUSH2 0x262 DUP2 DUP6 PUSH2 0x220 JUMP JUMPDEST SWAP4 POP PUSH2 0x272 DUP2 DUP6 PUSH1 0x20 DUP7 ADD PUSH2 0x230 JUMP JUMPDEST PUSH2 0x27B DUP2 PUSH2 0x23E JUMP JUMPDEST DUP5 ADD SWAP2 POP POP SWAP3 SWAP2 POP POP JUMP JUMPDEST PUSH0 PUSH1 0x20 DUP3 ADD SWAP1 POP DUP2 DUP2 SUB PUSH0 DUP4 ADD MSTORE PUSH2 0x29E DUP2 DUP5 PUSH2 0x24E JUMP JUMPDEST SWAP1 POP SWAP3 SWAP2 POP POP JUMP INVALID LOG2 PUSH5 0x6970667358 0x22 SLT KECCAK256 0x28 0xBD 0xE9 0xB2 NUMBER 0xAE DUP15 0xAB 0xC6 SWAP10 0x24 CALLDATASIZE PUSH15 0xB3B1A937AA2DD65F749B7867282388 GASPRICE PUSH3 0xC47064 PUSH20 0x6F6C634300081C00330000000000000000000000 "
				},
				"gasEstimates": {
					"creation": {
						"codeDepositCost": "146400",
						"executionCost": "188",
						"totalCost": "146588"
					},
					"external": {
						"done(uint256,uint256,uint256)": "infinite"
					}
				},
				"methodIdentifiers": {
					"done(uint256,uint256,uint256)": "874ccef9"
				}
			},
			"storageLayout": {
				"storage": [],
				"types": null
			},
			"userdoc": {
				"kind": "user",
				"methods": {},
				"version": 1
			}
		}
	}
}