{
	"contracts/PRACTICE/1/Sef_voting.sol": {
		"voting": {
			"abi": [
				{
					"inputs": [],
					"stateMutability": "nonpayable",
					"type": "constructor"
				},
				{
					"inputs": [
						{
							"internalType": "uint256",
							"name": "",
							"type": "uint256"
						}
					],
					"name": "Candidates",
					"outputs": [
						{
							"internalType": "string",
							"name": "name",
							"type": "string"
						},
						{
							"internalType": "string",
							"name": "partyname",
							"type": "string"
						}
					],
					"stateMutability": "view",
					"type": "function"
				},
				{
					"inputs": [
						{
							"internalType": "string",
							"name": "_name",
							"type": "string"
						},
						{
							"internalType": "string",
							"name": "_partyname",
							"type": "string"
						}
					],
					"name": "addCandid",
					"outputs": [],
					"stateMutability": "nonpayable",
					"type": "function"
				},
				{
					"inputs": [
						{
							"internalType": "uint256",
							"name": "",
							"type": "uint256"
						}
					],
					"name": "candidateVotes",
					"outputs": [
						{
							"internalType": "uint256",
							"name": "",
							"type": "uint256"
						}
					],
					"stateMutability": "view",
					"type": "function"
				},
				{
					"inputs": [],
					"name": "result",
					"outputs": [
						{
							"internalType": "string",
							"name": "winnerName",
							"type": "string"
						},
						{
							"internalType": "string",
							"name": "winnerParty",
							"type": "string"
						}
					],
					"stateMutability": "view",
					"type": "function"
				},
				{
					"inputs": [
						{
							"internalType": "uint256",
							"name": "_candidateIndex",
							"type": "uint256"
						}
					],
					"name": "vote",
					"outputs": [],
					"stateMutability": "nonpayable",
					"type": "function"
				},
				{
					"inputs": [
						{
							"internalType": "address",
							"name": "",
							"type": "address"
						}
					],
					"name": "voters",
					"outputs": [
						{
							"internalType": "bool",
							"name": "",
							"type": "bool"
						}
					],
					"stateMutability": "view",
					"type": "function"
				}
			],
			"devdoc": {
				"kind": "dev",
				"methods": {},
				"version": 1
			},
			"evm": {
				"assembly": "    /* \"contracts/PRACTICE/1/Sef_voting.sol\":59:1665  contract voting{... */\n  mstore(0x40, 0x80)\n    /* \"contracts/PRACTICE/1/Sef_voting.sol\":291:339  constructor(){... */\n  callvalue\n  dup1\n  iszero\n  tag_1\n  jumpi\n  revert(0x00, 0x00)\ntag_1:\n  pop\n    /* \"contracts/PRACTICE/1/Sef_voting.sol\":321:331  msg.sender */\n  caller\n    /* \"contracts/PRACTICE/1/Sef_voting.sol\":315:320  owner */\n  0x00\n  0x00\n    /* \"contracts/PRACTICE/1/Sef_voting.sol\":315:331  owner=msg.sender */\n  0x0100\n  exp\n  dup2\n  sload\n  dup2\n  0xffffffffffffffffffffffffffffffffffffffff\n  mul\n  not\n  and\n  swap1\n  dup4\n  0xffffffffffffffffffffffffffffffffffffffff\n  and\n  mul\n  or\n  swap1\n  sstore\n  pop\n    /* \"contracts/PRACTICE/1/Sef_voting.sol\":59:1665  contract voting{... */\n  dataSize(sub_0)\n  dup1\n  dataOffset(sub_0)\n  0x00\n  codecopy\n  0x00\n  return\nstop\n\nsub_0: assembly {\n        /* \"contracts/PRACTICE/1/Sef_voting.sol\":59:1665  contract voting{... */\n      mstore(0x40, 0x80)\n      callvalue\n      dup1\n      iszero\n      tag_1\n      jumpi\n      revert(0x00, 0x00)\n    tag_1:\n      pop\n      jumpi(tag_2, lt(calldatasize, 0x04))\n      shr(0xe0, calldataload(0x00))\n      dup1\n      0x0121b93f\n      eq\n      tag_3\n      jumpi\n      dup1\n      0x290e9212\n      eq\n      tag_4\n      jumpi\n      dup1\n      0x65372147\n      eq\n      tag_5\n      jumpi\n      dup1\n      0x8b9fb5f9\n      eq\n      tag_6\n      jumpi\n      dup1\n      0xa3ec138d\n      eq\n      tag_7\n      jumpi\n      dup1\n      0xf49e323e\n      eq\n      tag_8\n      jumpi\n    tag_2:\n      revert(0x00, 0x00)\n        /* \"contracts/PRACTICE/1/Sef_voting.sol\":631:1057  function vote(uint _candidateIndex) public {... */\n    tag_3:\n      tag_9\n      0x04\n      dup1\n      calldatasize\n      sub\n      dup2\n      add\n      swap1\n      tag_10\n      swap2\n      swap1\n      tag_11\n      jump\t// in\n    tag_10:\n      tag_12\n      jump\t// in\n    tag_9:\n      stop\n        /* \"contracts/PRACTICE/1/Sef_voting.sol\":257:284  candids[] public Candidates */\n    tag_4:\n      tag_13\n      0x04\n      dup1\n      calldatasize\n      sub\n      dup2\n      add\n      swap1\n      tag_14\n      swap2\n      swap1\n      tag_11\n      jump\t// in\n    tag_14:\n      tag_15\n      jump\t// in\n    tag_13:\n      mload(0x40)\n      tag_16\n      swap3\n      swap2\n      swap1\n      tag_17\n      jump\t// in\n    tag_16:\n      mload(0x40)\n      dup1\n      swap2\n      sub\n      swap1\n      return\n        /* \"contracts/PRACTICE/1/Sef_voting.sol\":1061:1662  function result() public view returns (string memory winnerName, string memory winnerParty) {... */\n    tag_5:\n      tag_18\n      tag_19\n      jump\t// in\n    tag_18:\n      mload(0x40)\n      tag_20\n      swap3\n      swap2\n      swap1\n      tag_17\n      jump\t// in\n    tag_20:\n      mload(0x40)\n      dup1\n      swap2\n      sub\n      swap1\n      return\n        /* \"contracts/PRACTICE/1/Sef_voting.sol\":440:624  function addCandid(string memory _name, string memory _partyname) public {... */\n    tag_6:\n      tag_21\n      0x04\n      dup1\n      calldatasize\n      sub\n      dup2\n      add\n      swap1\n      tag_22\n      swap2\n      swap1\n      tag_23\n      jump\t// in\n    tag_22:\n      tag_24\n      jump\t// in\n    tag_21:\n      stop\n        /* \"contracts/PRACTICE/1/Sef_voting.sol\":345:381  mapping(address=>bool) public voters */\n    tag_7:\n      tag_25\n      0x04\n      dup1\n      calldatasize\n      sub\n      dup2\n      add\n      swap1\n      tag_26\n      swap2\n      swap1\n      tag_27\n      jump\t// in\n    tag_26:\n      tag_28\n      jump\t// in\n    tag_25:\n      mload(0x40)\n      tag_29\n      swap2\n      swap1\n      tag_30\n      jump\t// in\n    tag_29:\n      mload(0x40)\n      dup1\n      swap2\n      sub\n      swap1\n      return\n        /* \"contracts/PRACTICE/1/Sef_voting.sol\":392:435  mapping(uint => uint) public candidateVotes */\n    tag_8:\n      tag_31\n      0x04\n      dup1\n      calldatasize\n      sub\n      dup2\n      add\n      swap1\n      tag_32\n      swap2\n      swap1\n      tag_11\n      jump\t// in\n    tag_32:\n      tag_33\n      jump\t// in\n    tag_31:\n      mload(0x40)\n      tag_34\n      swap2\n      swap1\n      tag_35\n      jump\t// in\n    tag_34:\n      mload(0x40)\n      dup1\n      swap2\n      sub\n      swap1\n      return\n        /* \"contracts/PRACTICE/1/Sef_voting.sol\":631:1057  function vote(uint _candidateIndex) public {... */\n    tag_12:\n        /* \"contracts/PRACTICE/1/Sef_voting.sol\":711:716  false */\n      0x00\n        /* \"contracts/PRACTICE/1/Sef_voting.sol\":689:716  voters[msg.sender] == false */\n      iszero\n      iszero\n        /* \"contracts/PRACTICE/1/Sef_voting.sol\":689:695  voters */\n      0x02\n        /* \"contracts/PRACTICE/1/Sef_voting.sol\":689:707  voters[msg.sender] */\n      0x00\n        /* \"contracts/PRACTICE/1/Sef_voting.sol\":696:706  msg.sender */\n      caller\n        /* \"contracts/PRACTICE/1/Sef_voting.sol\":689:707  voters[msg.sender] */\n      0xffffffffffffffffffffffffffffffffffffffff\n      and\n      0xffffffffffffffffffffffffffffffffffffffff\n      and\n      dup2\n      mstore\n      0x20\n      add\n      swap1\n      dup2\n      mstore\n      0x20\n      add\n      0x00\n      keccak256\n      0x00\n      swap1\n      sload\n      swap1\n      0x0100\n      exp\n      swap1\n      div\n      0xff\n      and\n        /* \"contracts/PRACTICE/1/Sef_voting.sol\":689:716  voters[msg.sender] == false */\n      iszero\n      iszero\n      eq\n        /* \"contracts/PRACTICE/1/Sef_voting.sol\":681:744  require(voters[msg.sender] == false, \"You have already voted!\") */\n      tag_37\n      jumpi\n      mload(0x40)\n      0x08c379a000000000000000000000000000000000000000000000000000000000\n      dup2\n      mstore\n      0x04\n      add\n      tag_38\n      swap1\n      tag_39\n      jump\t// in\n    tag_38:\n      mload(0x40)\n      dup1\n      swap2\n      sub\n      swap1\n      revert\n    tag_37:\n        /* \"contracts/PRACTICE/1/Sef_voting.sol\":880:890  Candidates */\n      0x01\n        /* \"contracts/PRACTICE/1/Sef_voting.sol\":880:897  Candidates.length */\n      dup1\n      sload\n      swap1\n      pop\n        /* \"contracts/PRACTICE/1/Sef_voting.sol\":862:877  _candidateIndex */\n      dup2\n        /* \"contracts/PRACTICE/1/Sef_voting.sol\":862:897  _candidateIndex < Candidates.length */\n      lt\n        /* \"contracts/PRACTICE/1/Sef_voting.sol\":854:925  require(_candidateIndex < Candidates.length, \"Invalid candidate index\") */\n      tag_40\n      jumpi\n      mload(0x40)\n      0x08c379a000000000000000000000000000000000000000000000000000000000\n      dup2\n      mstore\n      0x04\n      add\n      tag_41\n      swap1\n      tag_42\n      jump\t// in\n    tag_41:\n      mload(0x40)\n      dup1\n      swap2\n      sub\n      swap1\n      revert\n    tag_40:\n        /* \"contracts/PRACTICE/1/Sef_voting.sol\":999:1003  true */\n      0x01\n        /* \"contracts/PRACTICE/1/Sef_voting.sol\":979:985  voters */\n      0x02\n        /* \"contracts/PRACTICE/1/Sef_voting.sol\":979:997  voters[msg.sender] */\n      0x00\n        /* \"contracts/PRACTICE/1/Sef_voting.sol\":986:996  msg.sender */\n      caller\n        /* \"contracts/PRACTICE/1/Sef_voting.sol\":979:997  voters[msg.sender] */\n      0xffffffffffffffffffffffffffffffffffffffff\n      and\n      0xffffffffffffffffffffffffffffffffffffffff\n      and\n      dup2\n      mstore\n      0x20\n      add\n      swap1\n      dup2\n      mstore\n      0x20\n      add\n      0x00\n      keccak256\n      0x00\n        /* \"contracts/PRACTICE/1/Sef_voting.sol\":979:1003  voters[msg.sender] =true */\n      0x0100\n      exp\n      dup2\n      sload\n      dup2\n      0xff\n      mul\n      not\n      and\n      swap1\n      dup4\n      iszero\n      iszero\n      mul\n      or\n      swap1\n      sstore\n      pop\n        /* \"contracts/PRACTICE/1/Sef_voting.sol\":1018:1032  candidateVotes */\n      0x03\n        /* \"contracts/PRACTICE/1/Sef_voting.sol\":1018:1049  candidateVotes[_candidateIndex] */\n      0x00\n        /* \"contracts/PRACTICE/1/Sef_voting.sol\":1033:1048  _candidateIndex */\n      dup3\n        /* \"contracts/PRACTICE/1/Sef_voting.sol\":1018:1049  candidateVotes[_candidateIndex] */\n      dup2\n      mstore\n      0x20\n      add\n      swap1\n      dup2\n      mstore\n      0x20\n      add\n      0x00\n      keccak256\n      0x00\n        /* \"contracts/PRACTICE/1/Sef_voting.sol\":1018:1051  candidateVotes[_candidateIndex]++ */\n      dup2\n      sload\n      dup1\n      swap3\n      swap2\n      swap1\n      tag_43\n      swap1\n      tag_44\n      jump\t// in\n    tag_43:\n      swap2\n      swap1\n      pop\n      sstore\n      pop\n        /* \"contracts/PRACTICE/1/Sef_voting.sol\":631:1057  function vote(uint _candidateIndex) public {... */\n      pop\n      jump\t// out\n        /* \"contracts/PRACTICE/1/Sef_voting.sol\":257:284  candids[] public Candidates */\n    tag_15:\n      0x01\n      dup2\n      dup2\n      sload\n      dup2\n      lt\n      tag_45\n      jumpi\n      0x00\n      dup1\n      revert\n    tag_45:\n      swap1\n      0x00\n      mstore\n      keccak256(0x00, 0x20)\n      swap1\n      0x02\n      mul\n      add\n      0x00\n      swap2\n      pop\n      swap1\n      pop\n      dup1\n      0x00\n      add\n      dup1\n      sload\n      tag_47\n      swap1\n      tag_48\n      jump\t// in\n    tag_47:\n      dup1\n      0x1f\n      add\n      0x20\n      dup1\n      swap2\n      div\n      mul\n      0x20\n      add\n      mload(0x40)\n      swap1\n      dup2\n      add\n      0x40\n      mstore\n      dup1\n      swap3\n      swap2\n      swap1\n      dup2\n      dup2\n      mstore\n      0x20\n      add\n      dup3\n      dup1\n      sload\n      tag_49\n      swap1\n      tag_48\n      jump\t// in\n    tag_49:\n      dup1\n      iszero\n      tag_50\n      jumpi\n      dup1\n      0x1f\n      lt\n      tag_51\n      jumpi\n      0x0100\n      dup1\n      dup4\n      sload\n      div\n      mul\n      dup4\n      mstore\n      swap2\n      0x20\n      add\n      swap2\n      jump(tag_50)\n    tag_51:\n      dup3\n      add\n      swap2\n      swap1\n      0x00\n      mstore\n      keccak256(0x00, 0x20)\n      swap1\n    tag_52:\n      dup2\n      sload\n      dup2\n      mstore\n      swap1\n      0x01\n      add\n      swap1\n      0x20\n      add\n      dup1\n      dup4\n      gt\n      tag_52\n      jumpi\n      dup3\n      swap1\n      sub\n      0x1f\n      and\n      dup3\n      add\n      swap2\n    tag_50:\n      pop\n      pop\n      pop\n      pop\n      pop\n      swap1\n      dup1\n      0x01\n      add\n      dup1\n      sload\n      tag_53\n      swap1\n      tag_48\n      jump\t// in\n    tag_53:\n      dup1\n      0x1f\n      add\n      0x20\n      dup1\n      swap2\n      div\n      mul\n      0x20\n      add\n      mload(0x40)\n      swap1\n      dup2\n      add\n      0x40\n      mstore\n      dup1\n      swap3\n      swap2\n      swap1\n      dup2\n      dup2\n      mstore\n      0x20\n      add\n      dup3\n      dup1\n      sload\n      tag_54\n      swap1\n      tag_48\n      jump\t// in\n    tag_54:\n      dup1\n      iszero\n      tag_55\n      jumpi\n      dup1\n      0x1f\n      lt\n      tag_56\n      jumpi\n      0x0100\n      dup1\n      dup4\n      sload\n      div\n      mul\n      dup4\n      mstore\n      swap2\n      0x20\n      add\n      swap2\n      jump(tag_55)\n    tag_56:\n      dup3\n      add\n      swap2\n      swap1\n      0x00\n      mstore\n      keccak256(0x00, 0x20)\n      swap1\n    tag_57:\n      dup2\n      sload\n      dup2\n      mstore\n      swap1\n      0x01\n      add\n      swap1\n      0x20\n      add\n      dup1\n      dup4\n      gt\n      tag_57\n      jumpi\n      dup3\n      swap1\n      sub\n      0x1f\n      and\n      dup3\n      add\n      swap2\n    tag_55:\n      pop\n      pop\n      pop\n      pop\n      pop\n      swap1\n      pop\n      dup3\n      jump\t// out\n        /* \"contracts/PRACTICE/1/Sef_voting.sol\":1061:1662  function result() public view returns (string memory winnerName, string memory winnerParty) {... */\n    tag_19:\n        /* \"contracts/PRACTICE/1/Sef_voting.sol\":1100:1124  string memory winnerName */\n      0x60\n        /* \"contracts/PRACTICE/1/Sef_voting.sol\":1126:1151  string memory winnerParty */\n      dup1\n        /* \"contracts/PRACTICE/1/Sef_voting.sol\":1184:1189  owner */\n      0x00\n      0x00\n      swap1\n      sload\n      swap1\n      0x0100\n      exp\n      swap1\n      div\n      0xffffffffffffffffffffffffffffffffffffffff\n      and\n        /* \"contracts/PRACTICE/1/Sef_voting.sol\":1172:1189  msg.sender==owner */\n      0xffffffffffffffffffffffffffffffffffffffff\n      and\n        /* \"contracts/PRACTICE/1/Sef_voting.sol\":1172:1182  msg.sender */\n      caller\n        /* \"contracts/PRACTICE/1/Sef_voting.sol\":1172:1189  msg.sender==owner */\n      0xffffffffffffffffffffffffffffffffffffffff\n      and\n      eq\n        /* \"contracts/PRACTICE/1/Sef_voting.sol\":1164:1207  require(msg.sender==owner, \"not the owner\") */\n      tag_59\n      jumpi\n      mload(0x40)\n      0x08c379a000000000000000000000000000000000000000000000000000000000\n      dup2\n      mstore\n      0x04\n      add\n      tag_60\n      swap1\n      tag_61\n      jump\t// in\n    tag_60:\n      mload(0x40)\n      dup1\n      swap2\n      sub\n      swap1\n      revert\n    tag_59:\n        /* \"contracts/PRACTICE/1/Sef_voting.sol\":1218:1231  uint maxVotes */\n      0x00\n        /* \"contracts/PRACTICE/1/Sef_voting.sol\":1234:1235  0 */\n      0x00\n        /* \"contracts/PRACTICE/1/Sef_voting.sol\":1218:1235  uint maxVotes = 0 */\n      swap1\n      pop\n        /* \"contracts/PRACTICE/1/Sef_voting.sol\":1246:1262  uint winnerIndex */\n      0x00\n        /* \"contracts/PRACTICE/1/Sef_voting.sol\":1265:1266  0 */\n      0x00\n        /* \"contracts/PRACTICE/1/Sef_voting.sol\":1246:1266  uint winnerIndex = 0 */\n      swap1\n      pop\n        /* \"contracts/PRACTICE/1/Sef_voting.sol\":1284:1290  uint i */\n      0x00\n        /* \"contracts/PRACTICE/1/Sef_voting.sol\":1293:1294  0 */\n      0x00\n        /* \"contracts/PRACTICE/1/Sef_voting.sol\":1284:1294  uint i = 0 */\n      swap1\n      pop\n        /* \"contracts/PRACTICE/1/Sef_voting.sol\":1279:1481  for (uint i = 0; i < Candidates.length; i++) {... */\n    tag_62:\n        /* \"contracts/PRACTICE/1/Sef_voting.sol\":1300:1310  Candidates */\n      0x01\n        /* \"contracts/PRACTICE/1/Sef_voting.sol\":1300:1317  Candidates.length */\n      dup1\n      sload\n      swap1\n      pop\n        /* \"contracts/PRACTICE/1/Sef_voting.sol\":1296:1297  i */\n      dup2\n        /* \"contracts/PRACTICE/1/Sef_voting.sol\":1296:1317  i < Candidates.length */\n      lt\n        /* \"contracts/PRACTICE/1/Sef_voting.sol\":1279:1481  for (uint i = 0; i < Candidates.length; i++) {... */\n      iszero\n      tag_63\n      jumpi\n        /* \"contracts/PRACTICE/1/Sef_voting.sol\":1363:1371  maxVotes */\n      dup3\n        /* \"contracts/PRACTICE/1/Sef_voting.sol\":1343:1357  candidateVotes */\n      0x03\n        /* \"contracts/PRACTICE/1/Sef_voting.sol\":1343:1360  candidateVotes[i] */\n      0x00\n        /* \"contracts/PRACTICE/1/Sef_voting.sol\":1358:1359  i */\n      dup4\n        /* \"contracts/PRACTICE/1/Sef_voting.sol\":1343:1360  candidateVotes[i] */\n      dup2\n      mstore\n      0x20\n      add\n      swap1\n      dup2\n      mstore\n      0x20\n      add\n      0x00\n      keccak256\n      sload\n        /* \"contracts/PRACTICE/1/Sef_voting.sol\":1343:1371  candidateVotes[i] > maxVotes */\n      gt\n        /* \"contracts/PRACTICE/1/Sef_voting.sol\":1339:1470  if (candidateVotes[i] > maxVotes) {... */\n      iszero\n      tag_65\n      jumpi\n        /* \"contracts/PRACTICE/1/Sef_voting.sol\":1403:1417  candidateVotes */\n      0x03\n        /* \"contracts/PRACTICE/1/Sef_voting.sol\":1403:1420  candidateVotes[i] */\n      0x00\n        /* \"contracts/PRACTICE/1/Sef_voting.sol\":1418:1419  i */\n      dup3\n        /* \"contracts/PRACTICE/1/Sef_voting.sol\":1403:1420  candidateVotes[i] */\n      dup2\n      mstore\n      0x20\n      add\n      swap1\n      dup2\n      mstore\n      0x20\n      add\n      0x00\n      keccak256\n      sload\n        /* \"contracts/PRACTICE/1/Sef_voting.sol\":1392:1420  maxVotes = candidateVotes[i] */\n      swap3\n      pop\n        /* \"contracts/PRACTICE/1/Sef_voting.sol\":1453:1454  i */\n      dup1\n        /* \"contracts/PRACTICE/1/Sef_voting.sol\":1439:1454  winnerIndex = i */\n      swap2\n      pop\n        /* \"contracts/PRACTICE/1/Sef_voting.sol\":1339:1470  if (candidateVotes[i] > maxVotes) {... */\n    tag_65:\n        /* \"contracts/PRACTICE/1/Sef_voting.sol\":1319:1322  i++ */\n      dup1\n      dup1\n      0x01\n      add\n      swap2\n      pop\n      pop\n        /* \"contracts/PRACTICE/1/Sef_voting.sol\":1279:1481  for (uint i = 0; i < Candidates.length; i++) {... */\n      jump(tag_62)\n    tag_63:\n      pop\n        /* \"contracts/PRACTICE/1/Sef_voting.sol\":1568:1578  Candidates */\n      0x01\n        /* \"contracts/PRACTICE/1/Sef_voting.sol\":1579:1590  winnerIndex */\n      dup2\n        /* \"contracts/PRACTICE/1/Sef_voting.sol\":1568:1591  Candidates[winnerIndex] */\n      dup2\n      sload\n      dup2\n      lt\n      tag_66\n      jumpi\n      tag_67\n      tag_68\n      jump\t// in\n    tag_67:\n    tag_66:\n      swap1\n      0x00\n      mstore\n      keccak256(0x00, 0x20)\n      swap1\n      0x02\n      mul\n      add\n        /* \"contracts/PRACTICE/1/Sef_voting.sol\":1568:1596  Candidates[winnerIndex].name */\n      0x00\n      add\n        /* \"contracts/PRACTICE/1/Sef_voting.sol\":1555:1596  winnerName = Candidates[winnerIndex].name */\n      dup1\n      sload\n      tag_70\n      swap1\n      tag_48\n      jump\t// in\n    tag_70:\n      dup1\n      0x1f\n      add\n      0x20\n      dup1\n      swap2\n      div\n      mul\n      0x20\n      add\n      mload(0x40)\n      swap1\n      dup2\n      add\n      0x40\n      mstore\n      dup1\n      swap3\n      swap2\n      swap1\n      dup2\n      dup2\n      mstore\n      0x20\n      add\n      dup3\n      dup1\n      sload\n      tag_71\n      swap1\n      tag_48\n      jump\t// in\n    tag_71:\n      dup1\n      iszero\n      tag_72\n      jumpi\n      dup1\n      0x1f\n      lt\n      tag_73\n      jumpi\n      0x0100\n      dup1\n      dup4\n      sload\n      div\n      mul\n      dup4\n      mstore\n      swap2\n      0x20\n      add\n      swap2\n      jump(tag_72)\n    tag_73:\n      dup3\n      add\n      swap2\n      swap1\n      0x00\n      mstore\n      keccak256(0x00, 0x20)\n      swap1\n    tag_74:\n      dup2\n      sload\n      dup2\n      mstore\n      swap1\n      0x01\n      add\n      swap1\n      0x20\n      add\n      dup1\n      dup4\n      gt\n      tag_74\n      jumpi\n      dup3\n      swap1\n      sub\n      0x1f\n      and\n      dup3\n      add\n      swap2\n    tag_72:\n      pop\n      pop\n      pop\n      pop\n      pop\n      swap4\n      pop\n        /* \"contracts/PRACTICE/1/Sef_voting.sol\":1621:1631  Candidates */\n      0x01\n        /* \"contracts/PRACTICE/1/Sef_voting.sol\":1632:1643  winnerIndex */\n      dup2\n        /* \"contracts/PRACTICE/1/Sef_voting.sol\":1621:1644  Candidates[winnerIndex] */\n      dup2\n      sload\n      dup2\n      lt\n      tag_75\n      jumpi\n      tag_76\n      tag_68\n      jump\t// in\n    tag_76:\n    tag_75:\n      swap1\n      0x00\n      mstore\n      keccak256(0x00, 0x20)\n      swap1\n      0x02\n      mul\n      add\n        /* \"contracts/PRACTICE/1/Sef_voting.sol\":1621:1654  Candidates[winnerIndex].partyname */\n      0x01\n      add\n        /* \"contracts/PRACTICE/1/Sef_voting.sol\":1607:1654  winnerParty = Candidates[winnerIndex].partyname */\n      dup1\n      sload\n      tag_78\n      swap1\n      tag_48\n      jump\t// in\n    tag_78:\n      dup1\n      0x1f\n      add\n      0x20\n      dup1\n      swap2\n      div\n      mul\n      0x20\n      add\n      mload(0x40)\n      swap1\n      dup2\n      add\n      0x40\n      mstore\n      dup1\n      swap3\n      swap2\n      swap1\n      dup2\n      dup2\n      mstore\n      0x20\n      add\n      dup3\n      dup1\n      sload\n      tag_79\n      swap1\n      tag_48\n      jump\t// in\n    tag_79:\n      dup1\n      iszero\n      tag_80\n      jumpi\n      dup1\n      0x1f\n      lt\n      tag_81\n      jumpi\n      0x0100\n      dup1\n      dup4\n      sload\n      div\n      mul\n      dup4\n      mstore\n      swap2\n      0x20\n      add\n      swap2\n      jump(tag_80)\n    tag_81:\n      dup3\n      add\n      swap2\n      swap1\n      0x00\n      mstore\n      keccak256(0x00, 0x20)\n      swap1\n    tag_82:\n      dup2\n      sload\n      dup2\n      mstore\n      swap1\n      0x01\n      add\n      swap1\n      0x20\n      add\n      dup1\n      dup4\n      gt\n      tag_82\n      jumpi\n      dup3\n      swap1\n      sub\n      0x1f\n      and\n      dup3\n      add\n      swap2\n    tag_80:\n      pop\n      pop\n      pop\n      pop\n      pop\n      swap3\n      pop\n        /* \"contracts/PRACTICE/1/Sef_voting.sol\":1153:1662  {... */\n      pop\n      pop\n        /* \"contracts/PRACTICE/1/Sef_voting.sol\":1061:1662  function result() public view returns (string memory winnerName, string memory winnerParty) {... */\n      swap1\n      swap2\n      jump\t// out\n        /* \"contracts/PRACTICE/1/Sef_voting.sol\":440:624  function addCandid(string memory _name, string memory _partyname) public {... */\n    tag_24:\n        /* \"contracts/PRACTICE/1/Sef_voting.sol\":540:545  owner */\n      0x00\n      0x00\n      swap1\n      sload\n      swap1\n      0x0100\n      exp\n      swap1\n      div\n      0xffffffffffffffffffffffffffffffffffffffff\n      and\n        /* \"contracts/PRACTICE/1/Sef_voting.sol\":528:545  msg.sender==owner */\n      0xffffffffffffffffffffffffffffffffffffffff\n      and\n        /* \"contracts/PRACTICE/1/Sef_voting.sol\":528:538  msg.sender */\n      caller\n        /* \"contracts/PRACTICE/1/Sef_voting.sol\":528:545  msg.sender==owner */\n      0xffffffffffffffffffffffffffffffffffffffff\n      and\n      eq\n        /* \"contracts/PRACTICE/1/Sef_voting.sol\":520:563  require(msg.sender==owner, \"not the owner\") */\n      tag_84\n      jumpi\n      mload(0x40)\n      0x08c379a000000000000000000000000000000000000000000000000000000000\n      dup2\n      mstore\n      0x04\n      add\n      tag_85\n      swap1\n      tag_61\n      jump\t// in\n    tag_85:\n      mload(0x40)\n      dup1\n      swap2\n      sub\n      swap1\n      revert\n    tag_84:\n        /* \"contracts/PRACTICE/1/Sef_voting.sol\":574:584  Candidates */\n      0x01\n        /* \"contracts/PRACTICE/1/Sef_voting.sol\":590:615  candids(_name,_partyname) */\n      mload(0x40)\n      dup1\n      0x40\n      add\n      0x40\n      mstore\n      dup1\n        /* \"contracts/PRACTICE/1/Sef_voting.sol\":598:603  _name */\n      dup5\n        /* \"contracts/PRACTICE/1/Sef_voting.sol\":590:615  candids(_name,_partyname) */\n      dup2\n      mstore\n      0x20\n      add\n        /* \"contracts/PRACTICE/1/Sef_voting.sol\":604:614  _partyname */\n      dup4\n        /* \"contracts/PRACTICE/1/Sef_voting.sol\":590:615  candids(_name,_partyname) */\n      dup2\n      mstore\n      pop\n        /* \"contracts/PRACTICE/1/Sef_voting.sol\":574:616  Candidates.push(candids(_name,_partyname)) */\n      swap1\n      dup1\n      0x01\n      dup2\n      sload\n      add\n      dup1\n      dup3\n      sstore\n      dup1\n      swap2\n      pop\n      pop\n      0x01\n      swap1\n      sub\n      swap1\n      0x00\n      mstore\n      keccak256(0x00, 0x20)\n      swap1\n      0x02\n      mul\n      add\n      0x00\n      swap1\n      swap2\n      swap1\n      swap2\n      swap1\n      swap2\n      pop\n      0x00\n      dup3\n      add\n      mload\n      dup2\n      0x00\n      add\n      swap1\n      dup2\n      tag_87\n      swap2\n      swap1\n      tag_88\n      jump\t// in\n    tag_87:\n      pop\n      0x20\n      dup3\n      add\n      mload\n      dup2\n      0x01\n      add\n      swap1\n      dup2\n      tag_89\n      swap2\n      swap1\n      tag_88\n      jump\t// in\n    tag_89:\n      pop\n      pop\n      pop\n        /* \"contracts/PRACTICE/1/Sef_voting.sol\":440:624  function addCandid(string memory _name, string memory _partyname) public {... */\n      pop\n      pop\n      jump\t// out\n        /* \"contracts/PRACTICE/1/Sef_voting.sol\":345:381  mapping(address=>bool) public voters */\n    tag_28:\n      mstore(0x20, 0x02)\n      dup1\n      0x00\n      mstore\n      keccak256(0x00, 0x40)\n      0x00\n      swap2\n      pop\n      sload\n      swap1\n      0x0100\n      exp\n      swap1\n      div\n      0xff\n      and\n      dup2\n      jump\t// out\n        /* \"contracts/PRACTICE/1/Sef_voting.sol\":392:435  mapping(uint => uint) public candidateVotes */\n    tag_33:\n      mstore(0x20, 0x03)\n      dup1\n      0x00\n      mstore\n      keccak256(0x00, 0x40)\n      0x00\n      swap2\n      pop\n      swap1\n      pop\n      sload\n      dup2\n      jump\t// out\n        /* \"#utility.yul\":7:82   */\n    tag_90:\n        /* \"#utility.yul\":40:46   */\n      0x00\n        /* \"#utility.yul\":73:75   */\n      0x40\n        /* \"#utility.yul\":67:76   */\n      mload\n        /* \"#utility.yul\":57:76   */\n      swap1\n      pop\n        /* \"#utility.yul\":7:82   */\n      swap1\n      jump\t// out\n        /* \"#utility.yul\":88:205   */\n    tag_91:\n        /* \"#utility.yul\":197:198   */\n      0x00\n        /* \"#utility.yul\":194:195   */\n      0x00\n        /* \"#utility.yul\":187:199   */\n      revert\n        /* \"#utility.yul\":211:328   */\n    tag_92:\n        /* \"#utility.yul\":320:321   */\n      0x00\n        /* \"#utility.yul\":317:318   */\n      0x00\n        /* \"#utility.yul\":310:322   */\n      revert\n        /* \"#utility.yul\":334:411   */\n    tag_93:\n        /* \"#utility.yul\":371:378   */\n      0x00\n        /* \"#utility.yul\":400:405   */\n      dup2\n        /* \"#utility.yul\":389:405   */\n      swap1\n      pop\n        /* \"#utility.yul\":334:411   */\n      swap2\n      swap1\n      pop\n      jump\t// out\n        /* \"#utility.yul\":417:539   */\n    tag_94:\n        /* \"#utility.yul\":490:514   */\n      tag_146\n        /* \"#utility.yul\":508:513   */\n      dup2\n        /* \"#utility.yul\":490:514   */\n      tag_93\n      jump\t// in\n    tag_146:\n        /* \"#utility.yul\":483:488   */\n      dup2\n        /* \"#utility.yul\":480:515   */\n      eq\n        /* \"#utility.yul\":470:533   */\n      tag_147\n      jumpi\n        /* \"#utility.yul\":529:530   */\n      0x00\n        /* \"#utility.yul\":526:527   */\n      0x00\n        /* \"#utility.yul\":519:531   */\n      revert\n        /* \"#utility.yul\":470:533   */\n    tag_147:\n        /* \"#utility.yul\":417:539   */\n      pop\n      jump\t// out\n        /* \"#utility.yul\":545:684   */\n    tag_95:\n        /* \"#utility.yul\":591:596   */\n      0x00\n        /* \"#utility.yul\":629:635   */\n      dup2\n        /* \"#utility.yul\":616:636   */\n      calldataload\n        /* \"#utility.yul\":607:636   */\n      swap1\n      pop\n        /* \"#utility.yul\":645:678   */\n      tag_149\n        /* \"#utility.yul\":672:677   */\n      dup2\n        /* \"#utility.yul\":645:678   */\n      tag_94\n      jump\t// in\n    tag_149:\n        /* \"#utility.yul\":545:684   */\n      swap3\n      swap2\n      pop\n      pop\n      jump\t// out\n        /* \"#utility.yul\":690:1019   */\n    tag_11:\n        /* \"#utility.yul\":749:755   */\n      0x00\n        /* \"#utility.yul\":798:800   */\n      0x20\n        /* \"#utility.yul\":786:795   */\n      dup3\n        /* \"#utility.yul\":777:784   */\n      dup5\n        /* \"#utility.yul\":773:796   */\n      sub\n        /* \"#utility.yul\":769:801   */\n      slt\n        /* \"#utility.yul\":766:885   */\n      iszero\n      tag_151\n      jumpi\n        /* \"#utility.yul\":804:883   */\n      tag_152\n      tag_91\n      jump\t// in\n    tag_152:\n        /* \"#utility.yul\":766:885   */\n    tag_151:\n        /* \"#utility.yul\":924:925   */\n      0x00\n        /* \"#utility.yul\":949:1002   */\n      tag_153\n        /* \"#utility.yul\":994:1001   */\n      dup5\n        /* \"#utility.yul\":985:991   */\n      dup3\n        /* \"#utility.yul\":974:983   */\n      dup6\n        /* \"#utility.yul\":970:992   */\n      add\n        /* \"#utility.yul\":949:1002   */\n      tag_95\n      jump\t// in\n    tag_153:\n        /* \"#utility.yul\":939:1002   */\n      swap2\n      pop\n        /* \"#utility.yul\":895:1012   */\n      pop\n        /* \"#utility.yul\":690:1019   */\n      swap3\n      swap2\n      pop\n      pop\n      jump\t// out\n        /* \"#utility.yul\":1025:1124   */\n    tag_96:\n        /* \"#utility.yul\":1077:1083   */\n      0x00\n        /* \"#utility.yul\":1111:1116   */\n      dup2\n        /* \"#utility.yul\":1105:1117   */\n      mload\n        /* \"#utility.yul\":1095:1117   */\n      swap1\n      pop\n        /* \"#utility.yul\":1025:1124   */\n      swap2\n      swap1\n      pop\n      jump\t// out\n        /* \"#utility.yul\":1130:1299   */\n    tag_97:\n        /* \"#utility.yul\":1214:1225   */\n      0x00\n        /* \"#utility.yul\":1248:1254   */\n      dup3\n        /* \"#utility.yul\":1243:1246   */\n      dup3\n        /* \"#utility.yul\":1236:1255   */\n      mstore\n        /* \"#utility.yul\":1288:1292   */\n      0x20\n        /* \"#utility.yul\":1283:1286   */\n      dup3\n        /* \"#utility.yul\":1279:1293   */\n      add\n        /* \"#utility.yul\":1264:1293   */\n      swap1\n      pop\n        /* \"#utility.yul\":1130:1299   */\n      swap3\n      swap2\n      pop\n      pop\n      jump\t// out\n        /* \"#utility.yul\":1305:1444   */\n    tag_98:\n        /* \"#utility.yul\":1394:1400   */\n      dup3\n        /* \"#utility.yul\":1389:1392   */\n      dup2\n        /* \"#utility.yul\":1384:1387   */\n      dup4\n        /* \"#utility.yul\":1378:1401   */\n      mcopy\n        /* \"#utility.yul\":1435:1436   */\n      0x00\n        /* \"#utility.yul\":1426:1432   */\n      dup4\n        /* \"#utility.yul\":1421:1424   */\n      dup4\n        /* \"#utility.yul\":1417:1433   */\n      add\n        /* \"#utility.yul\":1410:1437   */\n      mstore\n        /* \"#utility.yul\":1305:1444   */\n      pop\n      pop\n      pop\n      jump\t// out\n        /* \"#utility.yul\":1450:1552   */\n    tag_99:\n        /* \"#utility.yul\":1491:1497   */\n      0x00\n        /* \"#utility.yul\":1542:1544   */\n      0x1f\n        /* \"#utility.yul\":1538:1545   */\n      not\n        /* \"#utility.yul\":1533:1535   */\n      0x1f\n        /* \"#utility.yul\":1526:1531   */\n      dup4\n        /* \"#utility.yul\":1522:1536   */\n      add\n        /* \"#utility.yul\":1518:1546   */\n      and\n        /* \"#utility.yul\":1508:1546   */\n      swap1\n      pop\n        /* \"#utility.yul\":1450:1552   */\n      swap2\n      swap1\n      pop\n      jump\t// out\n        /* \"#utility.yul\":1558:1935   */\n    tag_100:\n        /* \"#utility.yul\":1646:1649   */\n      0x00\n        /* \"#utility.yul\":1674:1713   */\n      tag_159\n        /* \"#utility.yul\":1707:1712   */\n      dup3\n        /* \"#utility.yul\":1674:1713   */\n      tag_96\n      jump\t// in\n    tag_159:\n        /* \"#utility.yul\":1729:1800   */\n      tag_160\n        /* \"#utility.yul\":1793:1799   */\n      dup2\n        /* \"#utility.yul\":1788:1791   */\n      dup6\n        /* \"#utility.yul\":1729:1800   */\n      tag_97\n      jump\t// in\n    tag_160:\n        /* \"#utility.yul\":1722:1800   */\n      swap4\n      pop\n        /* \"#utility.yul\":1809:1874   */\n      tag_161\n        /* \"#utility.yul\":1867:1873   */\n      dup2\n        /* \"#utility.yul\":1862:1865   */\n      dup6\n        /* \"#utility.yul\":1855:1859   */\n      0x20\n        /* \"#utility.yul\":1848:1853   */\n      dup7\n        /* \"#utility.yul\":1844:1860   */\n      add\n        /* \"#utility.yul\":1809:1874   */\n      tag_98\n      jump\t// in\n    tag_161:\n        /* \"#utility.yul\":1899:1928   */\n      tag_162\n        /* \"#utility.yul\":1921:1927   */\n      dup2\n        /* \"#utility.yul\":1899:1928   */\n      tag_99\n      jump\t// in\n    tag_162:\n        /* \"#utility.yul\":1894:1897   */\n      dup5\n        /* \"#utility.yul\":1890:1929   */\n      add\n        /* \"#utility.yul\":1883:1929   */\n      swap2\n      pop\n        /* \"#utility.yul\":1650:1935   */\n      pop\n        /* \"#utility.yul\":1558:1935   */\n      swap3\n      swap2\n      pop\n      pop\n      jump\t// out\n        /* \"#utility.yul\":1941:2455   */\n    tag_17:\n        /* \"#utility.yul\":2102:2106   */\n      0x00\n        /* \"#utility.yul\":2140:2142   */\n      0x40\n        /* \"#utility.yul\":2129:2138   */\n      dup3\n        /* \"#utility.yul\":2125:2143   */\n      add\n        /* \"#utility.yul\":2117:2143   */\n      swap1\n      pop\n        /* \"#utility.yul\":2189:2198   */\n      dup2\n        /* \"#utility.yul\":2183:2187   */\n      dup2\n        /* \"#utility.yul\":2179:2199   */\n      sub\n        /* \"#utility.yul\":2175:2176   */\n      0x00\n        /* \"#utility.yul\":2164:2173   */\n      dup4\n        /* \"#utility.yul\":2160:2177   */\n      add\n        /* \"#utility.yul\":2153:2200   */\n      mstore\n        /* \"#utility.yul\":2217:2295   */\n      tag_164\n        /* \"#utility.yul\":2290:2294   */\n      dup2\n        /* \"#utility.yul\":2281:2287   */\n      dup6\n        /* \"#utility.yul\":2217:2295   */\n      tag_100\n      jump\t// in\n    tag_164:\n        /* \"#utility.yul\":2209:2295   */\n      swap1\n      pop\n        /* \"#utility.yul\":2342:2351   */\n      dup2\n        /* \"#utility.yul\":2336:2340   */\n      dup2\n        /* \"#utility.yul\":2332:2352   */\n      sub\n        /* \"#utility.yul\":2327:2329   */\n      0x20\n        /* \"#utility.yul\":2316:2325   */\n      dup4\n        /* \"#utility.yul\":2312:2330   */\n      add\n        /* \"#utility.yul\":2305:2353   */\n      mstore\n        /* \"#utility.yul\":2370:2448   */\n      tag_165\n        /* \"#utility.yul\":2443:2447   */\n      dup2\n        /* \"#utility.yul\":2434:2440   */\n      dup5\n        /* \"#utility.yul\":2370:2448   */\n      tag_100\n      jump\t// in\n    tag_165:\n        /* \"#utility.yul\":2362:2448   */\n      swap1\n      pop\n        /* \"#utility.yul\":1941:2455   */\n      swap4\n      swap3\n      pop\n      pop\n      pop\n      jump\t// out\n        /* \"#utility.yul\":2461:2578   */\n    tag_101:\n        /* \"#utility.yul\":2570:2571   */\n      0x00\n        /* \"#utility.yul\":2567:2568   */\n      0x00\n        /* \"#utility.yul\":2560:2572   */\n      revert\n        /* \"#utility.yul\":2584:2701   */\n    tag_102:\n        /* \"#utility.yul\":2693:2694   */\n      0x00\n        /* \"#utility.yul\":2690:2691   */\n      0x00\n        /* \"#utility.yul\":2683:2695   */\n      revert\n        /* \"#utility.yul\":2707:2887   */\n    tag_103:\n        /* \"#utility.yul\":2755:2832   */\n      0x4e487b7100000000000000000000000000000000000000000000000000000000\n        /* \"#utility.yul\":2752:2753   */\n      0x00\n        /* \"#utility.yul\":2745:2833   */\n      mstore\n        /* \"#utility.yul\":2852:2856   */\n      0x41\n        /* \"#utility.yul\":2849:2850   */\n      0x04\n        /* \"#utility.yul\":2842:2857   */\n      mstore\n        /* \"#utility.yul\":2876:2880   */\n      0x24\n        /* \"#utility.yul\":2873:2874   */\n      0x00\n        /* \"#utility.yul\":2866:2881   */\n      revert\n        /* \"#utility.yul\":2893:3174   */\n    tag_104:\n        /* \"#utility.yul\":2976:3003   */\n      tag_170\n        /* \"#utility.yul\":2998:3002   */\n      dup3\n        /* \"#utility.yul\":2976:3003   */\n      tag_99\n      jump\t// in\n    tag_170:\n        /* \"#utility.yul\":2968:2974   */\n      dup2\n        /* \"#utility.yul\":2964:3004   */\n      add\n        /* \"#utility.yul\":3106:3112   */\n      dup2\n        /* \"#utility.yul\":3094:3104   */\n      dup2\n        /* \"#utility.yul\":3091:3113   */\n      lt\n        /* \"#utility.yul\":3070:3088   */\n      0xffffffffffffffff\n        /* \"#utility.yul\":3058:3068   */\n      dup3\n        /* \"#utility.yul\":3055:3089   */\n      gt\n        /* \"#utility.yul\":3052:3114   */\n      or\n        /* \"#utility.yul\":3049:3137   */\n      iszero\n      tag_171\n      jumpi\n        /* \"#utility.yul\":3117:3135   */\n      tag_172\n      tag_103\n      jump\t// in\n    tag_172:\n        /* \"#utility.yul\":3049:3137   */\n    tag_171:\n        /* \"#utility.yul\":3157:3167   */\n      dup1\n        /* \"#utility.yul\":3153:3155   */\n      0x40\n        /* \"#utility.yul\":3146:3168   */\n      mstore\n        /* \"#utility.yul\":2936:3174   */\n      pop\n        /* \"#utility.yul\":2893:3174   */\n      pop\n      pop\n      jump\t// out\n        /* \"#utility.yul\":3180:3309   */\n    tag_105:\n        /* \"#utility.yul\":3214:3220   */\n      0x00\n        /* \"#utility.yul\":3241:3261   */\n      tag_174\n      tag_90\n      jump\t// in\n    tag_174:\n        /* \"#utility.yul\":3231:3261   */\n      swap1\n      pop\n        /* \"#utility.yul\":3270:3303   */\n      tag_175\n        /* \"#utility.yul\":3298:3302   */\n      dup3\n        /* \"#utility.yul\":3290:3296   */\n      dup3\n        /* \"#utility.yul\":3270:3303   */\n      tag_104\n      jump\t// in\n    tag_175:\n        /* \"#utility.yul\":3180:3309   */\n      swap2\n      swap1\n      pop\n      jump\t// out\n        /* \"#utility.yul\":3315:3623   */\n    tag_106:\n        /* \"#utility.yul\":3377:3381   */\n      0x00\n        /* \"#utility.yul\":3467:3485   */\n      0xffffffffffffffff\n        /* \"#utility.yul\":3459:3465   */\n      dup3\n        /* \"#utility.yul\":3456:3486   */\n      gt\n        /* \"#utility.yul\":3453:3509   */\n      iszero\n      tag_177\n      jumpi\n        /* \"#utility.yul\":3489:3507   */\n      tag_178\n      tag_103\n      jump\t// in\n    tag_178:\n        /* \"#utility.yul\":3453:3509   */\n    tag_177:\n        /* \"#utility.yul\":3527:3556   */\n      tag_179\n        /* \"#utility.yul\":3549:3555   */\n      dup3\n        /* \"#utility.yul\":3527:3556   */\n      tag_99\n      jump\t// in\n    tag_179:\n        /* \"#utility.yul\":3519:3556   */\n      swap1\n      pop\n        /* \"#utility.yul\":3611:3615   */\n      0x20\n        /* \"#utility.yul\":3605:3609   */\n      dup2\n        /* \"#utility.yul\":3601:3616   */\n      add\n        /* \"#utility.yul\":3593:3616   */\n      swap1\n      pop\n        /* \"#utility.yul\":3315:3623   */\n      swap2\n      swap1\n      pop\n      jump\t// out\n        /* \"#utility.yul\":3629:3777   */\n    tag_107:\n        /* \"#utility.yul\":3727:3733   */\n      dup3\n        /* \"#utility.yul\":3722:3725   */\n      dup2\n        /* \"#utility.yul\":3717:3720   */\n      dup4\n        /* \"#utility.yul\":3704:3734   */\n      calldatacopy\n        /* \"#utility.yul\":3768:3769   */\n      0x00\n        /* \"#utility.yul\":3759:3765   */\n      dup4\n        /* \"#utility.yul\":3754:3757   */\n      dup4\n        /* \"#utility.yul\":3750:3766   */\n      add\n        /* \"#utility.yul\":3743:3770   */\n      mstore\n        /* \"#utility.yul\":3629:3777   */\n      pop\n      pop\n      pop\n      jump\t// out\n        /* \"#utility.yul\":3783:4208   */\n    tag_108:\n        /* \"#utility.yul\":3861:3866   */\n      0x00\n        /* \"#utility.yul\":3886:3952   */\n      tag_182\n        /* \"#utility.yul\":3902:3951   */\n      tag_183\n        /* \"#utility.yul\":3944:3950   */\n      dup5\n        /* \"#utility.yul\":3902:3951   */\n      tag_106\n      jump\t// in\n    tag_183:\n        /* \"#utility.yul\":3886:3952   */\n      tag_105\n      jump\t// in\n    tag_182:\n        /* \"#utility.yul\":3877:3952   */\n      swap1\n      pop\n        /* \"#utility.yul\":3975:3981   */\n      dup3\n        /* \"#utility.yul\":3968:3973   */\n      dup2\n        /* \"#utility.yul\":3961:3982   */\n      mstore\n        /* \"#utility.yul\":4013:4017   */\n      0x20\n        /* \"#utility.yul\":4006:4011   */\n      dup2\n        /* \"#utility.yul\":4002:4018   */\n      add\n        /* \"#utility.yul\":4051:4054   */\n      dup5\n        /* \"#utility.yul\":4042:4048   */\n      dup5\n        /* \"#utility.yul\":4037:4040   */\n      dup5\n        /* \"#utility.yul\":4033:4049   */\n      add\n        /* \"#utility.yul\":4030:4055   */\n      gt\n        /* \"#utility.yul\":4027:4139   */\n      iszero\n      tag_184\n      jumpi\n        /* \"#utility.yul\":4058:4137   */\n      tag_185\n      tag_102\n      jump\t// in\n    tag_185:\n        /* \"#utility.yul\":4027:4139   */\n    tag_184:\n        /* \"#utility.yul\":4148:4202   */\n      tag_186\n        /* \"#utility.yul\":4195:4201   */\n      dup5\n        /* \"#utility.yul\":4190:4193   */\n      dup3\n        /* \"#utility.yul\":4185:4188   */\n      dup6\n        /* \"#utility.yul\":4148:4202   */\n      tag_107\n      jump\t// in\n    tag_186:\n        /* \"#utility.yul\":3867:4208   */\n      pop\n        /* \"#utility.yul\":3783:4208   */\n      swap4\n      swap3\n      pop\n      pop\n      pop\n      jump\t// out\n        /* \"#utility.yul\":4228:4568   */\n    tag_109:\n        /* \"#utility.yul\":4284:4289   */\n      0x00\n        /* \"#utility.yul\":4333:4336   */\n      dup3\n        /* \"#utility.yul\":4326:4330   */\n      0x1f\n        /* \"#utility.yul\":4318:4324   */\n      dup4\n        /* \"#utility.yul\":4314:4331   */\n      add\n        /* \"#utility.yul\":4310:4337   */\n      slt\n        /* \"#utility.yul\":4300:4422   */\n      tag_188\n      jumpi\n        /* \"#utility.yul\":4341:4420   */\n      tag_189\n      tag_101\n      jump\t// in\n    tag_189:\n        /* \"#utility.yul\":4300:4422   */\n    tag_188:\n        /* \"#utility.yul\":4458:4464   */\n      dup2\n        /* \"#utility.yul\":4445:4465   */\n      calldataload\n        /* \"#utility.yul\":4483:4562   */\n      tag_190\n        /* \"#utility.yul\":4558:4561   */\n      dup5\n        /* \"#utility.yul\":4550:4556   */\n      dup3\n        /* \"#utility.yul\":4543:4547   */\n      0x20\n        /* \"#utility.yul\":4535:4541   */\n      dup7\n        /* \"#utility.yul\":4531:4548   */\n      add\n        /* \"#utility.yul\":4483:4562   */\n      tag_108\n      jump\t// in\n    tag_190:\n        /* \"#utility.yul\":4474:4562   */\n      swap2\n      pop\n        /* \"#utility.yul\":4290:4568   */\n      pop\n        /* \"#utility.yul\":4228:4568   */\n      swap3\n      swap2\n      pop\n      pop\n      jump\t// out\n        /* \"#utility.yul\":4574:5408   */\n    tag_23:\n        /* \"#utility.yul\":4662:4668   */\n      0x00\n        /* \"#utility.yul\":4670:4676   */\n      0x00\n        /* \"#utility.yul\":4719:4721   */\n      0x40\n        /* \"#utility.yul\":4707:4716   */\n      dup4\n        /* \"#utility.yul\":4698:4705   */\n      dup6\n        /* \"#utility.yul\":4694:4717   */\n      sub\n        /* \"#utility.yul\":4690:4722   */\n      slt\n        /* \"#utility.yul\":4687:4806   */\n      iszero\n      tag_192\n      jumpi\n        /* \"#utility.yul\":4725:4804   */\n      tag_193\n      tag_91\n      jump\t// in\n    tag_193:\n        /* \"#utility.yul\":4687:4806   */\n    tag_192:\n        /* \"#utility.yul\":4873:4874   */\n      0x00\n        /* \"#utility.yul\":4862:4871   */\n      dup4\n        /* \"#utility.yul\":4858:4875   */\n      add\n        /* \"#utility.yul\":4845:4876   */\n      calldataload\n        /* \"#utility.yul\":4903:4921   */\n      0xffffffffffffffff\n        /* \"#utility.yul\":4895:4901   */\n      dup2\n        /* \"#utility.yul\":4892:4922   */\n      gt\n        /* \"#utility.yul\":4889:5006   */\n      iszero\n      tag_194\n      jumpi\n        /* \"#utility.yul\":4925:5004   */\n      tag_195\n      tag_92\n      jump\t// in\n    tag_195:\n        /* \"#utility.yul\":4889:5006   */\n    tag_194:\n        /* \"#utility.yul\":5030:5093   */\n      tag_196\n        /* \"#utility.yul\":5085:5092   */\n      dup6\n        /* \"#utility.yul\":5076:5082   */\n      dup3\n        /* \"#utility.yul\":5065:5074   */\n      dup7\n        /* \"#utility.yul\":5061:5083   */\n      add\n        /* \"#utility.yul\":5030:5093   */\n      tag_109\n      jump\t// in\n    tag_196:\n        /* \"#utility.yul\":5020:5093   */\n      swap3\n      pop\n        /* \"#utility.yul\":4816:5103   */\n      pop\n        /* \"#utility.yul\":5170:5172   */\n      0x20\n        /* \"#utility.yul\":5159:5168   */\n      dup4\n        /* \"#utility.yul\":5155:5173   */\n      add\n        /* \"#utility.yul\":5142:5174   */\n      calldataload\n        /* \"#utility.yul\":5201:5219   */\n      0xffffffffffffffff\n        /* \"#utility.yul\":5193:5199   */\n      dup2\n        /* \"#utility.yul\":5190:5220   */\n      gt\n        /* \"#utility.yul\":5187:5304   */\n      iszero\n      tag_197\n      jumpi\n        /* \"#utility.yul\":5223:5302   */\n      tag_198\n      tag_92\n      jump\t// in\n    tag_198:\n        /* \"#utility.yul\":5187:5304   */\n    tag_197:\n        /* \"#utility.yul\":5328:5391   */\n      tag_199\n        /* \"#utility.yul\":5383:5390   */\n      dup6\n        /* \"#utility.yul\":5374:5380   */\n      dup3\n        /* \"#utility.yul\":5363:5372   */\n      dup7\n        /* \"#utility.yul\":5359:5381   */\n      add\n        /* \"#utility.yul\":5328:5391   */\n      tag_109\n      jump\t// in\n    tag_199:\n        /* \"#utility.yul\":5318:5391   */\n      swap2\n      pop\n        /* \"#utility.yul\":5113:5401   */\n      pop\n        /* \"#utility.yul\":4574:5408   */\n      swap3\n      pop\n      swap3\n      swap1\n      pop\n      jump\t// out\n        /* \"#utility.yul\":5414:5540   */\n    tag_110:\n        /* \"#utility.yul\":5451:5458   */\n      0x00\n        /* \"#utility.yul\":5491:5533   */\n      0xffffffffffffffffffffffffffffffffffffffff\n        /* \"#utility.yul\":5484:5489   */\n      dup3\n        /* \"#utility.yul\":5480:5534   */\n      and\n        /* \"#utility.yul\":5469:5534   */\n      swap1\n      pop\n        /* \"#utility.yul\":5414:5540   */\n      swap2\n      swap1\n      pop\n      jump\t// out\n        /* \"#utility.yul\":5546:5642   */\n    tag_111:\n        /* \"#utility.yul\":5583:5590   */\n      0x00\n        /* \"#utility.yul\":5612:5636   */\n      tag_202\n        /* \"#utility.yul\":5630:5635   */\n      dup3\n        /* \"#utility.yul\":5612:5636   */\n      tag_110\n      jump\t// in\n    tag_202:\n        /* \"#utility.yul\":5601:5636   */\n      swap1\n      pop\n        /* \"#utility.yul\":5546:5642   */\n      swap2\n      swap1\n      pop\n      jump\t// out\n        /* \"#utility.yul\":5648:5770   */\n    tag_112:\n        /* \"#utility.yul\":5721:5745   */\n      tag_204\n        /* \"#utility.yul\":5739:5744   */\n      dup2\n        /* \"#utility.yul\":5721:5745   */\n      tag_111\n      jump\t// in\n    tag_204:\n        /* \"#utility.yul\":5714:5719   */\n      dup2\n        /* \"#utility.yul\":5711:5746   */\n      eq\n        /* \"#utility.yul\":5701:5764   */\n      tag_205\n      jumpi\n        /* \"#utility.yul\":5760:5761   */\n      0x00\n        /* \"#utility.yul\":5757:5758   */\n      0x00\n        /* \"#utility.yul\":5750:5762   */\n      revert\n        /* \"#utility.yul\":5701:5764   */\n    tag_205:\n        /* \"#utility.yul\":5648:5770   */\n      pop\n      jump\t// out\n        /* \"#utility.yul\":5776:5915   */\n    tag_113:\n        /* \"#utility.yul\":5822:5827   */\n      0x00\n        /* \"#utility.yul\":5860:5866   */\n      dup2\n        /* \"#utility.yul\":5847:5867   */\n      calldataload\n        /* \"#utility.yul\":5838:5867   */\n      swap1\n      pop\n        /* \"#utility.yul\":5876:5909   */\n      tag_207\n        /* \"#utility.yul\":5903:5908   */\n      dup2\n        /* \"#utility.yul\":5876:5909   */\n      tag_112\n      jump\t// in\n    tag_207:\n        /* \"#utility.yul\":5776:5915   */\n      swap3\n      swap2\n      pop\n      pop\n      jump\t// out\n        /* \"#utility.yul\":5921:6250   */\n    tag_27:\n        /* \"#utility.yul\":5980:5986   */\n      0x00\n        /* \"#utility.yul\":6029:6031   */\n      0x20\n        /* \"#utility.yul\":6017:6026   */\n      dup3\n        /* \"#utility.yul\":6008:6015   */\n      dup5\n        /* \"#utility.yul\":6004:6027   */\n      sub\n        /* \"#utility.yul\":6000:6032   */\n      slt\n        /* \"#utility.yul\":5997:6116   */\n      iszero\n      tag_209\n      jumpi\n        /* \"#utility.yul\":6035:6114   */\n      tag_210\n      tag_91\n      jump\t// in\n    tag_210:\n        /* \"#utility.yul\":5997:6116   */\n    tag_209:\n        /* \"#utility.yul\":6155:6156   */\n      0x00\n        /* \"#utility.yul\":6180:6233   */\n      tag_211\n        /* \"#utility.yul\":6225:6232   */\n      dup5\n        /* \"#utility.yul\":6216:6222   */\n      dup3\n        /* \"#utility.yul\":6205:6214   */\n      dup6\n        /* \"#utility.yul\":6201:6223   */\n      add\n        /* \"#utility.yul\":6180:6233   */\n      tag_113\n      jump\t// in\n    tag_211:\n        /* \"#utility.yul\":6170:6233   */\n      swap2\n      pop\n        /* \"#utility.yul\":6126:6243   */\n      pop\n        /* \"#utility.yul\":5921:6250   */\n      swap3\n      swap2\n      pop\n      pop\n      jump\t// out\n        /* \"#utility.yul\":6256:6346   */\n    tag_114:\n        /* \"#utility.yul\":6290:6297   */\n      0x00\n        /* \"#utility.yul\":6333:6338   */\n      dup2\n        /* \"#utility.yul\":6326:6339   */\n      iszero\n        /* \"#utility.yul\":6319:6340   */\n      iszero\n        /* \"#utility.yul\":6308:6340   */\n      swap1\n      pop\n        /* \"#utility.yul\":6256:6346   */\n      swap2\n      swap1\n      pop\n      jump\t// out\n        /* \"#utility.yul\":6352:6461   */\n    tag_115:\n        /* \"#utility.yul\":6433:6454   */\n      tag_214\n        /* \"#utility.yul\":6448:6453   */\n      dup2\n        /* \"#utility.yul\":6433:6454   */\n      tag_114\n      jump\t// in\n    tag_214:\n        /* \"#utility.yul\":6428:6431   */\n      dup3\n        /* \"#utility.yul\":6421:6455   */\n      mstore\n        /* \"#utility.yul\":6352:6461   */\n      pop\n      pop\n      jump\t// out\n        /* \"#utility.yul\":6467:6677   */\n    tag_30:\n        /* \"#utility.yul\":6554:6558   */\n      0x00\n        /* \"#utility.yul\":6592:6594   */\n      0x20\n        /* \"#utility.yul\":6581:6590   */\n      dup3\n        /* \"#utility.yul\":6577:6595   */\n      add\n        /* \"#utility.yul\":6569:6595   */\n      swap1\n      pop\n        /* \"#utility.yul\":6605:6670   */\n      tag_216\n        /* \"#utility.yul\":6667:6668   */\n      0x00\n        /* \"#utility.yul\":6656:6665   */\n      dup4\n        /* \"#utility.yul\":6652:6669   */\n      add\n        /* \"#utility.yul\":6643:6649   */\n      dup5\n        /* \"#utility.yul\":6605:6670   */\n      tag_115\n      jump\t// in\n    tag_216:\n        /* \"#utility.yul\":6467:6677   */\n      swap3\n      swap2\n      pop\n      pop\n      jump\t// out\n        /* \"#utility.yul\":6683:6801   */\n    tag_116:\n        /* \"#utility.yul\":6770:6794   */\n      tag_218\n        /* \"#utility.yul\":6788:6793   */\n      dup2\n        /* \"#utility.yul\":6770:6794   */\n      tag_93\n      jump\t// in\n    tag_218:\n        /* \"#utility.yul\":6765:6768   */\n      dup3\n        /* \"#utility.yul\":6758:6795   */\n      mstore\n        /* \"#utility.yul\":6683:6801   */\n      pop\n      pop\n      jump\t// out\n        /* \"#utility.yul\":6807:7029   */\n    tag_35:\n        /* \"#utility.yul\":6900:6904   */\n      0x00\n        /* \"#utility.yul\":6938:6940   */\n      0x20\n        /* \"#utility.yul\":6927:6936   */\n      dup3\n        /* \"#utility.yul\":6923:6941   */\n      add\n        /* \"#utility.yul\":6915:6941   */\n      swap1\n      pop\n        /* \"#utility.yul\":6951:7022   */\n      tag_220\n        /* \"#utility.yul\":7019:7020   */\n      0x00\n        /* \"#utility.yul\":7008:7017   */\n      dup4\n        /* \"#utility.yul\":7004:7021   */\n      add\n        /* \"#utility.yul\":6995:7001   */\n      dup5\n        /* \"#utility.yul\":6951:7022   */\n      tag_116\n      jump\t// in\n    tag_220:\n        /* \"#utility.yul\":6807:7029   */\n      swap3\n      swap2\n      pop\n      pop\n      jump\t// out\n        /* \"#utility.yul\":7035:7208   */\n    tag_117:\n        /* \"#utility.yul\":7175:7200   */\n      0x596f75206861766520616c726561647920766f74656421000000000000000000\n        /* \"#utility.yul\":7171:7172   */\n      0x00\n        /* \"#utility.yul\":7163:7169   */\n      dup3\n        /* \"#utility.yul\":7159:7173   */\n      add\n        /* \"#utility.yul\":7152:7201   */\n      mstore\n        /* \"#utility.yul\":7035:7208   */\n      pop\n      jump\t// out\n        /* \"#utility.yul\":7214:7580   */\n    tag_118:\n        /* \"#utility.yul\":7356:7359   */\n      0x00\n        /* \"#utility.yul\":7377:7444   */\n      tag_223\n        /* \"#utility.yul\":7441:7443   */\n      0x17\n        /* \"#utility.yul\":7436:7439   */\n      dup4\n        /* \"#utility.yul\":7377:7444   */\n      tag_97\n      jump\t// in\n    tag_223:\n        /* \"#utility.yul\":7370:7444   */\n      swap2\n      pop\n        /* \"#utility.yul\":7453:7546   */\n      tag_224\n        /* \"#utility.yul\":7542:7545   */\n      dup3\n        /* \"#utility.yul\":7453:7546   */\n      tag_117\n      jump\t// in\n    tag_224:\n        /* \"#utility.yul\":7571:7573   */\n      0x20\n        /* \"#utility.yul\":7566:7569   */\n      dup3\n        /* \"#utility.yul\":7562:7574   */\n      add\n        /* \"#utility.yul\":7555:7574   */\n      swap1\n      pop\n        /* \"#utility.yul\":7214:7580   */\n      swap2\n      swap1\n      pop\n      jump\t// out\n        /* \"#utility.yul\":7586:8005   */\n    tag_39:\n        /* \"#utility.yul\":7752:7756   */\n      0x00\n        /* \"#utility.yul\":7790:7792   */\n      0x20\n        /* \"#utility.yul\":7779:7788   */\n      dup3\n        /* \"#utility.yul\":7775:7793   */\n      add\n        /* \"#utility.yul\":7767:7793   */\n      swap1\n      pop\n        /* \"#utility.yul\":7839:7848   */\n      dup2\n        /* \"#utility.yul\":7833:7837   */\n      dup2\n        /* \"#utility.yul\":7829:7849   */\n      sub\n        /* \"#utility.yul\":7825:7826   */\n      0x00\n        /* \"#utility.yul\":7814:7823   */\n      dup4\n        /* \"#utility.yul\":7810:7827   */\n      add\n        /* \"#utility.yul\":7803:7850   */\n      mstore\n        /* \"#utility.yul\":7867:7998   */\n      tag_226\n        /* \"#utility.yul\":7993:7997   */\n      dup2\n        /* \"#utility.yul\":7867:7998   */\n      tag_118\n      jump\t// in\n    tag_226:\n        /* \"#utility.yul\":7859:7998   */\n      swap1\n      pop\n        /* \"#utility.yul\":7586:8005   */\n      swap2\n      swap1\n      pop\n      jump\t// out\n        /* \"#utility.yul\":8011:8184   */\n    tag_119:\n        /* \"#utility.yul\":8151:8176   */\n      0x496e76616c69642063616e64696461746520696e646578000000000000000000\n        /* \"#utility.yul\":8147:8148   */\n      0x00\n        /* \"#utility.yul\":8139:8145   */\n      dup3\n        /* \"#utility.yul\":8135:8149   */\n      add\n        /* \"#utility.yul\":8128:8177   */\n      mstore\n        /* \"#utility.yul\":8011:8184   */\n      pop\n      jump\t// out\n        /* \"#utility.yul\":8190:8556   */\n    tag_120:\n        /* \"#utility.yul\":8332:8335   */\n      0x00\n        /* \"#utility.yul\":8353:8420   */\n      tag_229\n        /* \"#utility.yul\":8417:8419   */\n      0x17\n        /* \"#utility.yul\":8412:8415   */\n      dup4\n        /* \"#utility.yul\":8353:8420   */\n      tag_97\n      jump\t// in\n    tag_229:\n        /* \"#utility.yul\":8346:8420   */\n      swap2\n      pop\n        /* \"#utility.yul\":8429:8522   */\n      tag_230\n        /* \"#utility.yul\":8518:8521   */\n      dup3\n        /* \"#utility.yul\":8429:8522   */\n      tag_119\n      jump\t// in\n    tag_230:\n        /* \"#utility.yul\":8547:8549   */\n      0x20\n        /* \"#utility.yul\":8542:8545   */\n      dup3\n        /* \"#utility.yul\":8538:8550   */\n      add\n        /* \"#utility.yul\":8531:8550   */\n      swap1\n      pop\n        /* \"#utility.yul\":8190:8556   */\n      swap2\n      swap1\n      pop\n      jump\t// out\n        /* \"#utility.yul\":8562:8981   */\n    tag_42:\n        /* \"#utility.yul\":8728:8732   */\n      0x00\n        /* \"#utility.yul\":8766:8768   */\n      0x20\n        /* \"#utility.yul\":8755:8764   */\n      dup3\n        /* \"#utility.yul\":8751:8769   */\n      add\n        /* \"#utility.yul\":8743:8769   */\n      swap1\n      pop\n        /* \"#utility.yul\":8815:8824   */\n      dup2\n        /* \"#utility.yul\":8809:8813   */\n      dup2\n        /* \"#utility.yul\":8805:8825   */\n      sub\n        /* \"#utility.yul\":8801:8802   */\n      0x00\n        /* \"#utility.yul\":8790:8799   */\n      dup4\n        /* \"#utility.yul\":8786:8803   */\n      add\n        /* \"#utility.yul\":8779:8826   */\n      mstore\n        /* \"#utility.yul\":8843:8974   */\n      tag_232\n        /* \"#utility.yul\":8969:8973   */\n      dup2\n        /* \"#utility.yul\":8843:8974   */\n      tag_120\n      jump\t// in\n    tag_232:\n        /* \"#utility.yul\":8835:8974   */\n      swap1\n      pop\n        /* \"#utility.yul\":8562:8981   */\n      swap2\n      swap1\n      pop\n      jump\t// out\n        /* \"#utility.yul\":8987:9167   */\n    tag_121:\n        /* \"#utility.yul\":9035:9112   */\n      0x4e487b7100000000000000000000000000000000000000000000000000000000\n        /* \"#utility.yul\":9032:9033   */\n      0x00\n        /* \"#utility.yul\":9025:9113   */\n      mstore\n        /* \"#utility.yul\":9132:9136   */\n      0x11\n        /* \"#utility.yul\":9129:9130   */\n      0x04\n        /* \"#utility.yul\":9122:9137   */\n      mstore\n        /* \"#utility.yul\":9156:9160   */\n      0x24\n        /* \"#utility.yul\":9153:9154   */\n      0x00\n        /* \"#utility.yul\":9146:9161   */\n      revert\n        /* \"#utility.yul\":9173:9406   */\n    tag_44:\n        /* \"#utility.yul\":9212:9215   */\n      0x00\n        /* \"#utility.yul\":9235:9259   */\n      tag_235\n        /* \"#utility.yul\":9253:9258   */\n      dup3\n        /* \"#utility.yul\":9235:9259   */\n      tag_93\n      jump\t// in\n    tag_235:\n        /* \"#utility.yul\":9226:9259   */\n      swap2\n      pop\n        /* \"#utility.yul\":9281:9347   */\n      0xffffffffffffffffffffffffffffffffffffffffffffffffffffffffffffffff\n        /* \"#utility.yul\":9274:9279   */\n      dup3\n        /* \"#utility.yul\":9271:9348   */\n      sub\n        /* \"#utility.yul\":9268:9371   */\n      tag_236\n      jumpi\n        /* \"#utility.yul\":9351:9369   */\n      tag_237\n      tag_121\n      jump\t// in\n    tag_237:\n        /* \"#utility.yul\":9268:9371   */\n    tag_236:\n        /* \"#utility.yul\":9398:9399   */\n      0x01\n        /* \"#utility.yul\":9391:9396   */\n      dup3\n        /* \"#utility.yul\":9387:9400   */\n      add\n        /* \"#utility.yul\":9380:9400   */\n      swap1\n      pop\n        /* \"#utility.yul\":9173:9406   */\n      swap2\n      swap1\n      pop\n      jump\t// out\n        /* \"#utility.yul\":9412:9592   */\n    tag_122:\n        /* \"#utility.yul\":9460:9537   */\n      0x4e487b7100000000000000000000000000000000000000000000000000000000\n        /* \"#utility.yul\":9457:9458   */\n      0x00\n        /* \"#utility.yul\":9450:9538   */\n      mstore\n        /* \"#utility.yul\":9557:9561   */\n      0x22\n        /* \"#utility.yul\":9554:9555   */\n      0x04\n        /* \"#utility.yul\":9547:9562   */\n      mstore\n        /* \"#utility.yul\":9581:9585   */\n      0x24\n        /* \"#utility.yul\":9578:9579   */\n      0x00\n        /* \"#utility.yul\":9571:9586   */\n      revert\n        /* \"#utility.yul\":9598:9918   */\n    tag_48:\n        /* \"#utility.yul\":9642:9648   */\n      0x00\n        /* \"#utility.yul\":9679:9680   */\n      0x02\n        /* \"#utility.yul\":9673:9677   */\n      dup3\n        /* \"#utility.yul\":9669:9681   */\n      div\n        /* \"#utility.yul\":9659:9681   */\n      swap1\n      pop\n        /* \"#utility.yul\":9726:9727   */\n      0x01\n        /* \"#utility.yul\":9720:9724   */\n      dup3\n        /* \"#utility.yul\":9716:9728   */\n      and\n        /* \"#utility.yul\":9747:9765   */\n      dup1\n        /* \"#utility.yul\":9737:9818   */\n      tag_240\n      jumpi\n        /* \"#utility.yul\":9803:9807   */\n      0x7f\n        /* \"#utility.yul\":9795:9801   */\n      dup3\n        /* \"#utility.yul\":9791:9808   */\n      and\n        /* \"#utility.yul\":9781:9808   */\n      swap2\n      pop\n        /* \"#utility.yul\":9737:9818   */\n    tag_240:\n        /* \"#utility.yul\":9865:9867   */\n      0x20\n        /* \"#utility.yul\":9857:9863   */\n      dup3\n        /* \"#utility.yul\":9854:9868   */\n      lt\n        /* \"#utility.yul\":9834:9852   */\n      dup2\n        /* \"#utility.yul\":9831:9869   */\n      sub\n        /* \"#utility.yul\":9828:9912   */\n      tag_241\n      jumpi\n        /* \"#utility.yul\":9884:9902   */\n      tag_242\n      tag_122\n      jump\t// in\n    tag_242:\n        /* \"#utility.yul\":9828:9912   */\n    tag_241:\n        /* \"#utility.yul\":9649:9918   */\n      pop\n        /* \"#utility.yul\":9598:9918   */\n      swap2\n      swap1\n      pop\n      jump\t// out\n        /* \"#utility.yul\":9924:10087   */\n    tag_123:\n        /* \"#utility.yul\":10064:10079   */\n      0x6e6f7420746865206f776e657200000000000000000000000000000000000000\n        /* \"#utility.yul\":10060:10061   */\n      0x00\n        /* \"#utility.yul\":10052:10058   */\n      dup3\n        /* \"#utility.yul\":10048:10062   */\n      add\n        /* \"#utility.yul\":10041:10080   */\n      mstore\n        /* \"#utility.yul\":9924:10087   */\n      pop\n      jump\t// out\n        /* \"#utility.yul\":10093:10459   */\n    tag_124:\n        /* \"#utility.yul\":10235:10238   */\n      0x00\n        /* \"#utility.yul\":10256:10323   */\n      tag_245\n        /* \"#utility.yul\":10320:10322   */\n      0x0d\n        /* \"#utility.yul\":10315:10318   */\n      dup4\n        /* \"#utility.yul\":10256:10323   */\n      tag_97\n      jump\t// in\n    tag_245:\n        /* \"#utility.yul\":10249:10323   */\n      swap2\n      pop\n        /* \"#utility.yul\":10332:10425   */\n      tag_246\n        /* \"#utility.yul\":10421:10424   */\n      dup3\n        /* \"#utility.yul\":10332:10425   */\n      tag_123\n      jump\t// in\n    tag_246:\n        /* \"#utility.yul\":10450:10452   */\n      0x20\n        /* \"#utility.yul\":10445:10448   */\n      dup3\n        /* \"#utility.yul\":10441:10453   */\n      add\n        /* \"#utility.yul\":10434:10453   */\n      swap1\n      pop\n        /* \"#utility.yul\":10093:10459   */\n      swap2\n      swap1\n      pop\n      jump\t// out\n        /* \"#utility.yul\":10465:10884   */\n    tag_61:\n        /* \"#utility.yul\":10631:10635   */\n      0x00\n        /* \"#utility.yul\":10669:10671   */\n      0x20\n        /* \"#utility.yul\":10658:10667   */\n      dup3\n        /* \"#utility.yul\":10654:10672   */\n      add\n        /* \"#utility.yul\":10646:10672   */\n      swap1\n      pop\n        /* \"#utility.yul\":10718:10727   */\n      dup2\n        /* \"#utility.yul\":10712:10716   */\n      dup2\n        /* \"#utility.yul\":10708:10728   */\n      sub\n        /* \"#utility.yul\":10704:10705   */\n      0x00\n        /* \"#utility.yul\":10693:10702   */\n      dup4\n        /* \"#utility.yul\":10689:10706   */\n      add\n        /* \"#utility.yul\":10682:10729   */\n      mstore\n        /* \"#utility.yul\":10746:10877   */\n      tag_248\n        /* \"#utility.yul\":10872:10876   */\n      dup2\n        /* \"#utility.yul\":10746:10877   */\n      tag_124\n      jump\t// in\n    tag_248:\n        /* \"#utility.yul\":10738:10877   */\n      swap1\n      pop\n        /* \"#utility.yul\":10465:10884   */\n      swap2\n      swap1\n      pop\n      jump\t// out\n        /* \"#utility.yul\":10890:11070   */\n    tag_68:\n        /* \"#utility.yul\":10938:11015   */\n      0x4e487b7100000000000000000000000000000000000000000000000000000000\n        /* \"#utility.yul\":10935:10936   */\n      0x00\n        /* \"#utility.yul\":10928:11016   */\n      mstore\n        /* \"#utility.yul\":11035:11039   */\n      0x32\n        /* \"#utility.yul\":11032:11033   */\n      0x04\n        /* \"#utility.yul\":11025:11040   */\n      mstore\n        /* \"#utility.yul\":11059:11063   */\n      0x24\n        /* \"#utility.yul\":11056:11057   */\n      0x00\n        /* \"#utility.yul\":11049:11064   */\n      revert\n        /* \"#utility.yul\":11076:11217   */\n    tag_125:\n        /* \"#utility.yul\":11125:11129   */\n      0x00\n        /* \"#utility.yul\":11148:11151   */\n      dup2\n        /* \"#utility.yul\":11140:11151   */\n      swap1\n      pop\n        /* \"#utility.yul\":11171:11174   */\n      dup2\n        /* \"#utility.yul\":11168:11169   */\n      0x00\n        /* \"#utility.yul\":11161:11175   */\n      mstore\n        /* \"#utility.yul\":11205:11209   */\n      0x20\n        /* \"#utility.yul\":11202:11203   */\n      0x00\n        /* \"#utility.yul\":11192:11210   */\n      keccak256\n        /* \"#utility.yul\":11184:11210   */\n      swap1\n      pop\n        /* \"#utility.yul\":11076:11217   */\n      swap2\n      swap1\n      pop\n      jump\t// out\n        /* \"#utility.yul\":11223:11316   */\n    tag_126:\n        /* \"#utility.yul\":11260:11266   */\n      0x00\n        /* \"#utility.yul\":11307:11309   */\n      0x20\n        /* \"#utility.yul\":11302:11304   */\n      0x1f\n        /* \"#utility.yul\":11295:11300   */\n      dup4\n        /* \"#utility.yul\":11291:11305   */\n      add\n        /* \"#utility.yul\":11287:11310   */\n      div\n        /* \"#utility.yul\":11277:11310   */\n      swap1\n      pop\n        /* \"#utility.yul\":11223:11316   */\n      swap2\n      swap1\n      pop\n      jump\t// out\n        /* \"#utility.yul\":11322:11429   */\n    tag_127:\n        /* \"#utility.yul\":11366:11374   */\n      0x00\n        /* \"#utility.yul\":11416:11421   */\n      dup3\n        /* \"#utility.yul\":11410:11414   */\n      dup3\n        /* \"#utility.yul\":11406:11422   */\n      shl\n        /* \"#utility.yul\":11385:11422   */\n      swap1\n      pop\n        /* \"#utility.yul\":11322:11429   */\n      swap3\n      swap2\n      pop\n      pop\n      jump\t// out\n        /* \"#utility.yul\":11435:11828   */\n    tag_128:\n        /* \"#utility.yul\":11504:11510   */\n      0x00\n        /* \"#utility.yul\":11554:11555   */\n      0x08\n        /* \"#utility.yul\":11542:11552   */\n      dup4\n        /* \"#utility.yul\":11538:11556   */\n      mul\n        /* \"#utility.yul\":11577:11674   */\n      tag_254\n        /* \"#utility.yul\":11607:11673   */\n      0xffffffffffffffffffffffffffffffffffffffffffffffffffffffffffffffff\n        /* \"#utility.yul\":11596:11605   */\n      dup3\n        /* \"#utility.yul\":11577:11674   */\n      tag_127\n      jump\t// in\n    tag_254:\n        /* \"#utility.yul\":11695:11734   */\n      tag_255\n        /* \"#utility.yul\":11725:11733   */\n      dup7\n        /* \"#utility.yul\":11714:11723   */\n      dup4\n        /* \"#utility.yul\":11695:11734   */\n      tag_127\n      jump\t// in\n    tag_255:\n        /* \"#utility.yul\":11683:11734   */\n      swap6\n      pop\n        /* \"#utility.yul\":11767:11771   */\n      dup1\n        /* \"#utility.yul\":11763:11772   */\n      not\n        /* \"#utility.yul\":11756:11761   */\n      dup5\n        /* \"#utility.yul\":11752:11773   */\n      and\n        /* \"#utility.yul\":11743:11773   */\n      swap4\n      pop\n        /* \"#utility.yul\":11816:11820   */\n      dup1\n        /* \"#utility.yul\":11806:11814   */\n      dup7\n        /* \"#utility.yul\":11802:11821   */\n      and\n        /* \"#utility.yul\":11795:11800   */\n      dup5\n        /* \"#utility.yul\":11792:11822   */\n      or\n        /* \"#utility.yul\":11782:11822   */\n      swap3\n      pop\n        /* \"#utility.yul\":11511:11828   */\n      pop\n      pop\n        /* \"#utility.yul\":11435:11828   */\n      swap4\n      swap3\n      pop\n      pop\n      pop\n      jump\t// out\n        /* \"#utility.yul\":11834:11894   */\n    tag_129:\n        /* \"#utility.yul\":11862:11865   */\n      0x00\n        /* \"#utility.yul\":11883:11888   */\n      dup2\n        /* \"#utility.yul\":11876:11888   */\n      swap1\n      pop\n        /* \"#utility.yul\":11834:11894   */\n      swap2\n      swap1\n      pop\n      jump\t// out\n        /* \"#utility.yul\":11900:12042   */\n    tag_130:\n        /* \"#utility.yul\":11950:11959   */\n      0x00\n        /* \"#utility.yul\":11983:12036   */\n      tag_258\n        /* \"#utility.yul\":12001:12035   */\n      tag_259\n        /* \"#utility.yul\":12010:12034   */\n      tag_260\n        /* \"#utility.yul\":12028:12033   */\n      dup5\n        /* \"#utility.yul\":12010:12034   */\n      tag_93\n      jump\t// in\n    tag_260:\n        /* \"#utility.yul\":12001:12035   */\n      tag_129\n      jump\t// in\n    tag_259:\n        /* \"#utility.yul\":11983:12036   */\n      tag_93\n      jump\t// in\n    tag_258:\n        /* \"#utility.yul\":11970:12036   */\n      swap1\n      pop\n        /* \"#utility.yul\":11900:12042   */\n      swap2\n      swap1\n      pop\n      jump\t// out\n        /* \"#utility.yul\":12048:12123   */\n    tag_131:\n        /* \"#utility.yul\":12091:12094   */\n      0x00\n        /* \"#utility.yul\":12112:12117   */\n      dup2\n        /* \"#utility.yul\":12105:12117   */\n      swap1\n      pop\n        /* \"#utility.yul\":12048:12123   */\n      swap2\n      swap1\n      pop\n      jump\t// out\n        /* \"#utility.yul\":12129:12398   */\n    tag_132:\n        /* \"#utility.yul\":12239:12278   */\n      tag_263\n        /* \"#utility.yul\":12270:12277   */\n      dup4\n        /* \"#utility.yul\":12239:12278   */\n      tag_130\n      jump\t// in\n    tag_263:\n        /* \"#utility.yul\":12300:12391   */\n      tag_264\n        /* \"#utility.yul\":12349:12390   */\n      tag_265\n        /* \"#utility.yul\":12373:12389   */\n      dup3\n        /* \"#utility.yul\":12349:12390   */\n      tag_131\n      jump\t// in\n    tag_265:\n        /* \"#utility.yul\":12341:12347   */\n      dup5\n        /* \"#utility.yul\":12334:12338   */\n      dup5\n        /* \"#utility.yul\":12328:12339   */\n      sload\n        /* \"#utility.yul\":12300:12391   */\n      tag_128\n      jump\t// in\n    tag_264:\n        /* \"#utility.yul\":12294:12298   */\n      dup3\n        /* \"#utility.yul\":12287:12392   */\n      sstore\n        /* \"#utility.yul\":12205:12398   */\n      pop\n        /* \"#utility.yul\":12129:12398   */\n      pop\n      pop\n      pop\n      jump\t// out\n        /* \"#utility.yul\":12404:12477   */\n    tag_133:\n        /* \"#utility.yul\":12449:12452   */\n      0x00\n        /* \"#utility.yul\":12470:12471   */\n      0x00\n        /* \"#utility.yul\":12463:12471   */\n      swap1\n      pop\n        /* \"#utility.yul\":12404:12477   */\n      swap1\n      jump\t// out\n        /* \"#utility.yul\":12483:12672   */\n    tag_134:\n        /* \"#utility.yul\":12560:12592   */\n      tag_268\n      tag_133\n      jump\t// in\n    tag_268:\n        /* \"#utility.yul\":12601:12666   */\n      tag_269\n        /* \"#utility.yul\":12659:12665   */\n      dup2\n        /* \"#utility.yul\":12651:12657   */\n      dup5\n        /* \"#utility.yul\":12645:12649   */\n      dup5\n        /* \"#utility.yul\":12601:12666   */\n      tag_132\n      jump\t// in\n    tag_269:\n        /* \"#utility.yul\":12536:12672   */\n      pop\n        /* \"#utility.yul\":12483:12672   */\n      pop\n      pop\n      jump\t// out\n        /* \"#utility.yul\":12678:12864   */\n    tag_135:\n        /* \"#utility.yul\":12738:12858   */\n    tag_271:\n        /* \"#utility.yul\":12755:12758   */\n      dup2\n        /* \"#utility.yul\":12748:12753   */\n      dup2\n        /* \"#utility.yul\":12745:12759   */\n      lt\n        /* \"#utility.yul\":12738:12858   */\n      iszero\n      tag_273\n      jumpi\n        /* \"#utility.yul\":12809:12848   */\n      tag_274\n        /* \"#utility.yul\":12846:12847   */\n      0x00\n        /* \"#utility.yul\":12839:12844   */\n      dup3\n        /* \"#utility.yul\":12809:12848   */\n      tag_134\n      jump\t// in\n    tag_274:\n        /* \"#utility.yul\":12782:12783   */\n      0x01\n        /* \"#utility.yul\":12775:12780   */\n      dup2\n        /* \"#utility.yul\":12771:12784   */\n      add\n        /* \"#utility.yul\":12762:12784   */\n      swap1\n      pop\n        /* \"#utility.yul\":12738:12858   */\n      jump(tag_271)\n    tag_273:\n        /* \"#utility.yul\":12678:12864   */\n      pop\n      pop\n      jump\t// out\n        /* \"#utility.yul\":12870:13413   */\n    tag_136:\n        /* \"#utility.yul\":12971:12973   */\n      0x1f\n        /* \"#utility.yul\":12966:12969   */\n      dup3\n        /* \"#utility.yul\":12963:12974   */\n      gt\n        /* \"#utility.yul\":12960:13406   */\n      iszero\n      tag_276\n      jumpi\n        /* \"#utility.yul\":13005:13043   */\n      tag_277\n        /* \"#utility.yul\":13037:13042   */\n      dup2\n        /* \"#utility.yul\":13005:13043   */\n      tag_125\n      jump\t// in\n    tag_277:\n        /* \"#utility.yul\":13089:13118   */\n      tag_278\n        /* \"#utility.yul\":13107:13117   */\n      dup5\n        /* \"#utility.yul\":13089:13118   */\n      tag_126\n      jump\t// in\n    tag_278:\n        /* \"#utility.yul\":13079:13087   */\n      dup2\n        /* \"#utility.yul\":13075:13119   */\n      add\n        /* \"#utility.yul\":13272:13274   */\n      0x20\n        /* \"#utility.yul\":13260:13270   */\n      dup6\n        /* \"#utility.yul\":13257:13275   */\n      lt\n        /* \"#utility.yul\":13254:13303   */\n      iszero\n      tag_279\n      jumpi\n        /* \"#utility.yul\":13293:13301   */\n      dup2\n        /* \"#utility.yul\":13278:13301   */\n      swap1\n      pop\n        /* \"#utility.yul\":13254:13303   */\n    tag_279:\n        /* \"#utility.yul\":13316:13396   */\n      tag_280\n        /* \"#utility.yul\":13372:13394   */\n      tag_281\n        /* \"#utility.yul\":13390:13393   */\n      dup6\n        /* \"#utility.yul\":13372:13394   */\n      tag_126\n      jump\t// in\n    tag_281:\n        /* \"#utility.yul\":13362:13370   */\n      dup4\n        /* \"#utility.yul\":13358:13395   */\n      add\n        /* \"#utility.yul\":13345:13356   */\n      dup3\n        /* \"#utility.yul\":13316:13396   */\n      tag_135\n      jump\t// in\n    tag_280:\n        /* \"#utility.yul\":12975:13406   */\n      pop\n      pop\n        /* \"#utility.yul\":12960:13406   */\n    tag_276:\n        /* \"#utility.yul\":12870:13413   */\n      pop\n      pop\n      pop\n      jump\t// out\n        /* \"#utility.yul\":13419:13536   */\n    tag_137:\n        /* \"#utility.yul\":13473:13481   */\n      0x00\n        /* \"#utility.yul\":13523:13528   */\n      dup3\n        /* \"#utility.yul\":13517:13521   */\n      dup3\n        /* \"#utility.yul\":13513:13529   */\n      shr\n        /* \"#utility.yul\":13492:13529   */\n      swap1\n      pop\n        /* \"#utility.yul\":13419:13536   */\n      swap3\n      swap2\n      pop\n      pop\n      jump\t// out\n        /* \"#utility.yul\":13542:13711   */\n    tag_138:\n        /* \"#utility.yul\":13586:13592   */\n      0x00\n        /* \"#utility.yul\":13619:13670   */\n      tag_284\n        /* \"#utility.yul\":13667:13668   */\n      0x00\n        /* \"#utility.yul\":13663:13669   */\n      not\n        /* \"#utility.yul\":13655:13660   */\n      dup5\n        /* \"#utility.yul\":13652:13653   */\n      0x08\n        /* \"#utility.yul\":13648:13661   */\n      mul\n        /* \"#utility.yul\":13619:13670   */\n      tag_137\n      jump\t// in\n    tag_284:\n        /* \"#utility.yul\":13615:13671   */\n      not\n        /* \"#utility.yul\":13700:13704   */\n      dup1\n        /* \"#utility.yul\":13694:13698   */\n      dup4\n        /* \"#utility.yul\":13690:13705   */\n      and\n        /* \"#utility.yul\":13680:13705   */\n      swap2\n      pop\n        /* \"#utility.yul\":13593:13711   */\n      pop\n        /* \"#utility.yul\":13542:13711   */\n      swap3\n      swap2\n      pop\n      pop\n      jump\t// out\n        /* \"#utility.yul\":13716:14011   */\n    tag_139:\n        /* \"#utility.yul\":13792:13796   */\n      0x00\n        /* \"#utility.yul\":13938:13967   */\n      tag_286\n        /* \"#utility.yul\":13963:13966   */\n      dup4\n        /* \"#utility.yul\":13957:13961   */\n      dup4\n        /* \"#utility.yul\":13938:13967   */\n      tag_138\n      jump\t// in\n    tag_286:\n        /* \"#utility.yul\":13930:13967   */\n      swap2\n      pop\n        /* \"#utility.yul\":14000:14003   */\n      dup3\n        /* \"#utility.yul\":13997:13998   */\n      0x02\n        /* \"#utility.yul\":13993:14004   */\n      mul\n        /* \"#utility.yul\":13987:13991   */\n      dup3\n        /* \"#utility.yul\":13984:14005   */\n      or\n        /* \"#utility.yul\":13976:14005   */\n      swap1\n      pop\n        /* \"#utility.yul\":13716:14011   */\n      swap3\n      swap2\n      pop\n      pop\n      jump\t// out\n        /* \"#utility.yul\":14016:15411   */\n    tag_88:\n        /* \"#utility.yul\":14133:14170   */\n      tag_288\n        /* \"#utility.yul\":14166:14169   */\n      dup3\n        /* \"#utility.yul\":14133:14170   */\n      tag_96\n      jump\t// in\n    tag_288:\n        /* \"#utility.yul\":14235:14253   */\n      0xffffffffffffffff\n        /* \"#utility.yul\":14227:14233   */\n      dup2\n        /* \"#utility.yul\":14224:14254   */\n      gt\n        /* \"#utility.yul\":14221:14277   */\n      iszero\n      tag_289\n      jumpi\n        /* \"#utility.yul\":14257:14275   */\n      tag_290\n      tag_103\n      jump\t// in\n    tag_290:\n        /* \"#utility.yul\":14221:14277   */\n    tag_289:\n        /* \"#utility.yul\":14301:14339   */\n      tag_291\n        /* \"#utility.yul\":14333:14337   */\n      dup3\n        /* \"#utility.yul\":14327:14338   */\n      sload\n        /* \"#utility.yul\":14301:14339   */\n      tag_48\n      jump\t// in\n    tag_291:\n        /* \"#utility.yul\":14386:14453   */\n      tag_292\n        /* \"#utility.yul\":14446:14452   */\n      dup3\n        /* \"#utility.yul\":14438:14444   */\n      dup3\n        /* \"#utility.yul\":14432:14436   */\n      dup6\n        /* \"#utility.yul\":14386:14453   */\n      tag_136\n      jump\t// in\n    tag_292:\n        /* \"#utility.yul\":14480:14481   */\n      0x00\n        /* \"#utility.yul\":14504:14508   */\n      0x20\n        /* \"#utility.yul\":14491:14508   */\n      swap1\n      pop\n        /* \"#utility.yul\":14536:14538   */\n      0x1f\n        /* \"#utility.yul\":14528:14534   */\n      dup4\n        /* \"#utility.yul\":14525:14539   */\n      gt\n        /* \"#utility.yul\":14553:14554   */\n      0x01\n        /* \"#utility.yul\":14548:15166   */\n      dup2\n      eq\n      tag_294\n      jumpi\n        /* \"#utility.yul\":15210:15211   */\n      0x00\n        /* \"#utility.yul\":15227:15233   */\n      dup5\n        /* \"#utility.yul\":15224:15301   */\n      iszero\n      tag_295\n      jumpi\n        /* \"#utility.yul\":15276:15285   */\n      dup3\n        /* \"#utility.yul\":15271:15274   */\n      dup8\n        /* \"#utility.yul\":15267:15286   */\n      add\n        /* \"#utility.yul\":15261:15287   */\n      mload\n        /* \"#utility.yul\":15252:15287   */\n      swap1\n      pop\n        /* \"#utility.yul\":15224:15301   */\n    tag_295:\n        /* \"#utility.yul\":15327:15394   */\n      tag_296\n        /* \"#utility.yul\":15387:15393   */\n      dup6\n        /* \"#utility.yul\":15380:15385   */\n      dup3\n        /* \"#utility.yul\":15327:15394   */\n      tag_139\n      jump\t// in\n    tag_296:\n        /* \"#utility.yul\":15321:15325   */\n      dup7\n        /* \"#utility.yul\":15314:15395   */\n      sstore\n        /* \"#utility.yul\":15183:15405   */\n      pop\n        /* \"#utility.yul\":14518:15405   */\n      jump(tag_293)\n        /* \"#utility.yul\":14548:15166   */\n    tag_294:\n        /* \"#utility.yul\":14600:14604   */\n      0x1f\n        /* \"#utility.yul\":14596:14605   */\n      not\n        /* \"#utility.yul\":14588:14594   */\n      dup5\n        /* \"#utility.yul\":14584:14606   */\n      and\n        /* \"#utility.yul\":14634:14671   */\n      tag_297\n        /* \"#utility.yul\":14666:14670   */\n      dup7\n        /* \"#utility.yul\":14634:14671   */\n      tag_125\n      jump\t// in\n    tag_297:\n        /* \"#utility.yul\":14693:14694   */\n      0x00\n        /* \"#utility.yul\":14707:14915   */\n    tag_298:\n        /* \"#utility.yul\":14721:14728   */\n      dup3\n        /* \"#utility.yul\":14718:14719   */\n      dup2\n        /* \"#utility.yul\":14715:14729   */\n      lt\n        /* \"#utility.yul\":14707:14915   */\n      iszero\n      tag_300\n      jumpi\n        /* \"#utility.yul\":14800:14809   */\n      dup5\n        /* \"#utility.yul\":14795:14798   */\n      dup10\n        /* \"#utility.yul\":14791:14810   */\n      add\n        /* \"#utility.yul\":14785:14811   */\n      mload\n        /* \"#utility.yul\":14777:14783   */\n      dup3\n        /* \"#utility.yul\":14770:14812   */\n      sstore\n        /* \"#utility.yul\":14851:14852   */\n      0x01\n        /* \"#utility.yul\":14843:14849   */\n      dup3\n        /* \"#utility.yul\":14839:14853   */\n      add\n        /* \"#utility.yul\":14829:14853   */\n      swap2\n      pop\n        /* \"#utility.yul\":14898:14900   */\n      0x20\n        /* \"#utility.yul\":14887:14896   */\n      dup6\n        /* \"#utility.yul\":14883:14901   */\n      add\n        /* \"#utility.yul\":14870:14901   */\n      swap5\n      pop\n        /* \"#utility.yul\":14744:14748   */\n      0x20\n        /* \"#utility.yul\":14741:14742   */\n      dup2\n        /* \"#utility.yul\":14737:14749   */\n      add\n        /* \"#utility.yul\":14732:14749   */\n      swap1\n      pop\n        /* \"#utility.yul\":14707:14915   */\n      jump(tag_298)\n    tag_300:\n        /* \"#utility.yul\":14943:14949   */\n      dup7\n        /* \"#utility.yul\":14934:14941   */\n      dup4\n        /* \"#utility.yul\":14931:14950   */\n      lt\n        /* \"#utility.yul\":14928:15107   */\n      iszero\n      tag_301\n      jumpi\n        /* \"#utility.yul\":15001:15010   */\n      dup5\n        /* \"#utility.yul\":14996:14999   */\n      dup10\n        /* \"#utility.yul\":14992:15011   */\n      add\n        /* \"#utility.yul\":14986:15012   */\n      mload\n        /* \"#utility.yul\":15044:15092   */\n      tag_302\n        /* \"#utility.yul\":15086:15090   */\n      0x1f\n        /* \"#utility.yul\":15078:15084   */\n      dup10\n        /* \"#utility.yul\":15074:15091   */\n      and\n        /* \"#utility.yul\":15063:15072   */\n      dup3\n        /* \"#utility.yul\":15044:15092   */\n      tag_138\n      jump\t// in\n    tag_302:\n        /* \"#utility.yul\":15036:15042   */\n      dup4\n        /* \"#utility.yul\":15029:15093   */\n      sstore\n        /* \"#utility.yul\":14951:15107   */\n      pop\n        /* \"#utility.yul\":14928:15107   */\n    tag_301:\n        /* \"#utility.yul\":15153:15154   */\n      0x01\n        /* \"#utility.yul\":15149:15150   */\n      0x02\n        /* \"#utility.yul\":15141:15147   */\n      dup9\n        /* \"#utility.yul\":15137:15151   */\n      mul\n        /* \"#utility.yul\":15133:15155   */\n      add\n        /* \"#utility.yul\":15127:15131   */\n      dup9\n        /* \"#utility.yul\":15120:15156   */\n      sstore\n        /* \"#utility.yul\":14555:15166   */\n      pop\n      pop\n      pop\n        /* \"#utility.yul\":14518:15405   */\n    tag_293:\n      pop\n        /* \"#utility.yul\":14108:15411   */\n      pop\n      pop\n      pop\n        /* \"#utility.yul\":14016:15411   */\n      pop\n      pop\n      jump\t// out\n\n    auxdata: 0xa26469706673582212200fe0cc6f3824a7d4f64ebfdcae9e13ffed45f927921e7f34c0900cb866fcff1664736f6c634300081c0033\n}\n",
				"bytecode": {
					"linkReferences": {},
					"object": "6080604052348015600e575f5ffd5b50335f5f6101000a81548173ffffffffffffffffffffffffffffffffffffffff021916908373ffffffffffffffffffffffffffffffffffffffff160217905550610fc08061005b5f395ff3fe608060405234801561000f575f5ffd5b5060043610610060575f3560e01c80630121b93f14610064578063290e92121461008057806365372147146100b15780638b9fb5f9146100d0578063a3ec138d146100ec578063f49e323e1461011c575b5f5ffd5b61007e60048036038101906100799190610793565b61014c565b005b61009a60048036038101906100959190610793565b6102a0565b6040516100a892919061082e565b60405180910390f35b6100b96103db565b6040516100c792919061082e565b60405180910390f35b6100ea60048036038101906100e5919061098f565b610622565b005b61010660048036038101906101019190610a5f565b61071d565b6040516101139190610aa4565b60405180910390f35b61013660048036038101906101319190610793565b61073a565b6040516101439190610acc565b60405180910390f35b5f151560025f3373ffffffffffffffffffffffffffffffffffffffff1673ffffffffffffffffffffffffffffffffffffffff1681526020019081526020015f205f9054906101000a900460ff161515146101db576040517f08c379a00000000000000000000000000000000000000000000000000000000081526004016101d290610b2f565b60405180910390fd5b6001805490508110610222576040517f08c379a000000000000000000000000000000000000000000000000000000000815260040161021990610b97565b60405180910390fd5b600160025f3373ffffffffffffffffffffffffffffffffffffffff1673ffffffffffffffffffffffffffffffffffffffff1681526020019081526020015f205f6101000a81548160ff02191690831515021790555060035f8281526020019081526020015f205f81548092919061029890610be2565b919050555050565b600181815481106102af575f80fd5b905f5260205f2090600202015f91509050805f0180546102ce90610c56565b80601f01602080910402602001604051908101604052809291908181526020018280546102fa90610c56565b80156103455780601f1061031c57610100808354040283529160200191610345565b820191905f5260205f20905b81548152906001019060200180831161032857829003601f168201915b50505050509080600101805461035a90610c56565b80601f016020809104026020016040519081016040528092919081815260200182805461038690610c56565b80156103d15780601f106103a8576101008083540402835291602001916103d1565b820191905f5260205f20905b8154815290600101906020018083116103b457829003601f168201915b5050505050905082565b6060805f5f9054906101000a900473ffffffffffffffffffffffffffffffffffffffff1673ffffffffffffffffffffffffffffffffffffffff163373ffffffffffffffffffffffffffffffffffffffff161461046c576040517f08c379a000000000000000000000000000000000000000000000000000000000815260040161046390610cd0565b60405180910390fd5b5f5f90505f5f90505f5f90505b6001805490508110156104c4578260035f8381526020019081526020015f205411156104b75760035f8281526020019081526020015f205492508091505b8080600101915050610479565b50600181815481106104d9576104d8610cee565b5b905f5260205f2090600202015f0180546104f290610c56565b80601f016020809104026020016040519081016040528092919081815260200182805461051e90610c56565b80156105695780601f1061054057610100808354040283529160200191610569565b820191905f5260205f20905b81548152906001019060200180831161054c57829003601f168201915b505050505093506001818154811061058457610583610cee565b5b905f5260205f209060020201600101805461059e90610c56565b80601f01602080910402602001604051908101604052809291908181526020018280546105ca90610c56565b80156106155780601f106105ec57610100808354040283529160200191610615565b820191905f5260205f20905b8154815290600101906020018083116105f857829003601f168201915b5050505050925050509091565b5f5f9054906101000a900473ffffffffffffffffffffffffffffffffffffffff1673ffffffffffffffffffffffffffffffffffffffff163373ffffffffffffffffffffffffffffffffffffffff16146106b0576040517f08c379a00000000000000000000000000000000000000000000000000000000081526004016106a790610cd0565b60405180910390fd5b6001604051806040016040528084815260200183815250908060018154018082558091505060019003905f5260205f2090600202015f909190919091505f820151815f0190816107009190610ebb565b5060208201518160010190816107169190610ebb565b5050505050565b6002602052805f5260405f205f915054906101000a900460ff1681565b6003602052805f5260405f205f915090505481565b5f604051905090565b5f5ffd5b5f5ffd5b5f819050919050565b61077281610760565b811461077c575f5ffd5b50565b5f8135905061078d81610769565b92915050565b5f602082840312156107a8576107a7610758565b5b5f6107b58482850161077f565b91505092915050565b5f81519050919050565b5f82825260208201905092915050565b8281835e5f83830152505050565b5f601f19601f8301169050919050565b5f610800826107be565b61080a81856107c8565b935061081a8185602086016107d8565b610823816107e6565b840191505092915050565b5f6040820190508181035f83015261084681856107f6565b9050818103602083015261085a81846107f6565b90509392505050565b5f5ffd5b5f5ffd5b7f4e487b71000000000000000000000000000000000000000000000000000000005f52604160045260245ffd5b6108a1826107e6565b810181811067ffffffffffffffff821117156108c0576108bf61086b565b5b80604052505050565b5f6108d261074f565b90506108de8282610898565b919050565b5f67ffffffffffffffff8211156108fd576108fc61086b565b5b610906826107e6565b9050602081019050919050565b828183375f83830152505050565b5f61093361092e846108e3565b6108c9565b90508281526020810184848401111561094f5761094e610867565b5b61095a848285610913565b509392505050565b5f82601f83011261097657610975610863565b5b8135610986848260208601610921565b91505092915050565b5f5f604083850312156109a5576109a4610758565b5b5f83013567ffffffffffffffff8111156109c2576109c161075c565b5b6109ce85828601610962565b925050602083013567ffffffffffffffff8111156109ef576109ee61075c565b5b6109fb85828601610962565b9150509250929050565b5f73ffffffffffffffffffffffffffffffffffffffff82169050919050565b5f610a2e82610a05565b9050919050565b610a3e81610a24565b8114610a48575f5ffd5b50565b5f81359050610a5981610a35565b92915050565b5f60208284031215610a7457610a73610758565b5b5f610a8184828501610a4b565b91505092915050565b5f8115159050919050565b610a9e81610a8a565b82525050565b5f602082019050610ab75f830184610a95565b92915050565b610ac681610760565b82525050565b5f602082019050610adf5f830184610abd565b92915050565b7f596f75206861766520616c726561647920766f746564210000000000000000005f82015250565b5f610b196017836107c8565b9150610b2482610ae5565b602082019050919050565b5f6020820190508181035f830152610b4681610b0d565b9050919050565b7f496e76616c69642063616e64696461746520696e6465780000000000000000005f82015250565b5f610b816017836107c8565b9150610b8c82610b4d565b602082019050919050565b5f6020820190508181035f830152610bae81610b75565b9050919050565b7f4e487b71000000000000000000000000000000000000000000000000000000005f52601160045260245ffd5b5f610bec82610760565b91507fffffffffffffffffffffffffffffffffffffffffffffffffffffffffffffffff8203610c1e57610c1d610bb5565b5b600182019050919050565b7f4e487b71000000000000000000000000000000000000000000000000000000005f52602260045260245ffd5b5f6002820490506001821680610c6d57607f821691505b602082108103610c8057610c7f610c29565b5b50919050565b7f6e6f7420746865206f776e6572000000000000000000000000000000000000005f82015250565b5f610cba600d836107c8565b9150610cc582610c86565b602082019050919050565b5f6020820190508181035f830152610ce781610cae565b9050919050565b7f4e487b71000000000000000000000000000000000000000000000000000000005f52603260045260245ffd5b5f819050815f5260205f209050919050565b5f6020601f8301049050919050565b5f82821b905092915050565b5f60088302610d777fffffffffffffffffffffffffffffffffffffffffffffffffffffffffffffffff82610d3c565b610d818683610d3c565b95508019841693508086168417925050509392505050565b5f819050919050565b5f610dbc610db7610db284610760565b610d99565b610760565b9050919050565b5f819050919050565b610dd583610da2565b610de9610de182610dc3565b848454610d48565b825550505050565b5f5f905090565b610e00610df1565b610e0b818484610dcc565b505050565b5b81811015610e2e57610e235f82610df8565b600181019050610e11565b5050565b601f821115610e7357610e4481610d1b565b610e4d84610d2d565b81016020851015610e5c578190505b610e70610e6885610d2d565b830182610e10565b50505b505050565b5f82821c905092915050565b5f610e935f1984600802610e78565b1980831691505092915050565b5f610eab8383610e84565b9150826002028217905092915050565b610ec4826107be565b67ffffffffffffffff811115610edd57610edc61086b565b5b610ee78254610c56565b610ef2828285610e32565b5f60209050601f831160018114610f23575f8415610f11578287015190505b610f1b8582610ea0565b865550610f82565b601f198416610f3186610d1b565b5f5b82811015610f5857848901518255600182019150602085019450602081019050610f33565b86831015610f755784890151610f71601f891682610e84565b8355505b6001600288020188555050505b50505050505056fea26469706673582212200fe0cc6f3824a7d4f64ebfdcae9e13ffed45f927921e7f34c0900cb866fcff1664736f6c634300081c0033",
					"opcodes": "PUSH1 0x80 PUSH1 0x40 MSTORE CALLVALUE DUP1 ISZERO PUSH1 0xE JUMPI PUSH0 PUSH0 REVERT JUMPDEST POP CALLER PUSH0 PUSH0 PUSH2 0x100 EXP DUP2 SLOAD DUP2 PUSH20 0xFFFFFFFFFFFFFFFFFFFFFFFFFFFFFFFFFFFFFFFF MUL NOT AND SWAP1 DUP4 PUSH20 0xFFFFFFFFFFFFFFFFFFFFFFFFFFFFFFFFFFFFFFFF AND MUL OR SWAP1 SSTORE POP PUSH2 0xFC0 DUP1 PUSH2 0x5B PUSH0 CODECOPY PUSH0 RETURN INVALID PUSH1 0x80 PUSH1 0x40 MSTORE CALLVALUE DUP1 ISZERO PUSH2 0xF JUMPI PUSH0 PUSH0 REVERT JUMPDEST POP PUSH1 0x4 CALLDATASIZE LT PUSH2 0x60 JUMPI PUSH0 CALLDATALOAD PUSH1 0xE0 SHR DUP1 PUSH4 0x121B93F EQ PUSH2 0x64 JUMPI DUP1 PUSH4 0x290E9212 EQ PUSH2 0x80 JUMPI DUP1 PUSH4 0x65372147 EQ PUSH2 0xB1 JUMPI DUP1 PUSH4 0x8B9FB5F9 EQ PUSH2 0xD0 JUMPI DUP1 PUSH4 0xA3EC138D EQ PUSH2 0xEC JUMPI DUP1 PUSH4 0xF49E323E EQ PUSH2 0x11C JUMPI JUMPDEST PUSH0 PUSH0 REVERT JUMPDEST PUSH2 0x7E PUSH1 0x4 DUP1 CALLDATASIZE SUB DUP2 ADD SWAP1 PUSH2 0x79 SWAP2 SWAP1 PUSH2 0x793 JUMP JUMPDEST PUSH2 0x14C JUMP JUMPDEST STOP JUMPDEST PUSH2 0x9A PUSH1 0x4 DUP1 CALLDATASIZE SUB DUP2 ADD SWAP1 PUSH2 0x95 SWAP2 SWAP1 PUSH2 0x793 JUMP JUMPDEST PUSH2 0x2A0 JUMP JUMPDEST PUSH1 0x40 MLOAD PUSH2 0xA8 SWAP3 SWAP2 SWAP1 PUSH2 0x82E JUMP JUMPDEST PUSH1 0x40 MLOAD DUP1 SWAP2 SUB SWAP1 RETURN JUMPDEST PUSH2 0xB9 PUSH2 0x3DB JUMP JUMPDEST PUSH1 0x40 MLOAD PUSH2 0xC7 SWAP3 SWAP2 SWAP1 PUSH2 0x82E JUMP JUMPDEST PUSH1 0x40 MLOAD DUP1 SWAP2 SUB SWAP1 RETURN JUMPDEST PUSH2 0xEA PUSH1 0x4 DUP1 CALLDATASIZE SUB DUP2 ADD SWAP1 PUSH2 0xE5 SWAP2 SWAP1 PUSH2 0x98F JUMP JUMPDEST PUSH2 0x622 JUMP JUMPDEST STOP JUMPDEST PUSH2 0x106 PUSH1 0x4 DUP1 CALLDATASIZE SUB DUP2 ADD SWAP1 PUSH2 0x101 SWAP2 SWAP1 PUSH2 0xA5F JUMP JUMPDEST PUSH2 0x71D JUMP JUMPDEST PUSH1 0x40 MLOAD PUSH2 0x113 SWAP2 SWAP1 PUSH2 0xAA4 JUMP JUMPDEST PUSH1 0x40 MLOAD DUP1 SWAP2 SUB SWAP1 RETURN JUMPDEST PUSH2 0x136 PUSH1 0x4 DUP1 CALLDATASIZE SUB DUP2 ADD SWAP1 PUSH2 0x131 SWAP2 SWAP1 PUSH2 0x793 JUMP JUMPDEST PUSH2 0x73A JUMP JUMPDEST PUSH1 0x40 MLOAD PUSH2 0x143 SWAP2 SWAP1 PUSH2 0xACC JUMP JUMPDEST PUSH1 0x40 MLOAD DUP1 SWAP2 SUB SWAP1 RETURN JUMPDEST PUSH0 ISZERO ISZERO PUSH1 0x2 PUSH0 CALLER PUSH20 0xFFFFFFFFFFFFFFFFFFFFFFFFFFFFFFFFFFFFFFFF AND PUSH20 0xFFFFFFFFFFFFFFFFFFFFFFFFFFFFFFFFFFFFFFFF AND DUP2 MSTORE PUSH1 0x20 ADD SWAP1 DUP2 MSTORE PUSH1 0x20 ADD PUSH0 KECCAK256 PUSH0 SWAP1 SLOAD SWAP1 PUSH2 0x100 EXP SWAP1 DIV PUSH1 0xFF AND ISZERO ISZERO EQ PUSH2 0x1DB JUMPI PUSH1 0x40 MLOAD PUSH32 0x8C379A000000000000000000000000000000000000000000000000000000000 DUP2 MSTORE PUSH1 0x4 ADD PUSH2 0x1D2 SWAP1 PUSH2 0xB2F JUMP JUMPDEST PUSH1 0x40 MLOAD DUP1 SWAP2 SUB SWAP1 REVERT JUMPDEST PUSH1 0x1 DUP1 SLOAD SWAP1 POP DUP2 LT PUSH2 0x222 JUMPI PUSH1 0x40 MLOAD PUSH32 0x8C379A000000000000000000000000000000000000000000000000000000000 DUP2 MSTORE PUSH1 0x4 ADD PUSH2 0x219 SWAP1 PUSH2 0xB97 JUMP JUMPDEST PUSH1 0x40 MLOAD DUP1 SWAP2 SUB SWAP1 REVERT JUMPDEST PUSH1 0x1 PUSH1 0x2 PUSH0 CALLER PUSH20 0xFFFFFFFFFFFFFFFFFFFFFFFFFFFFFFFFFFFFFFFF AND PUSH20 0xFFFFFFFFFFFFFFFFFFFFFFFFFFFFFFFFFFFFFFFF AND DUP2 MSTORE PUSH1 0x20 ADD SWAP1 DUP2 MSTORE PUSH1 0x20 ADD PUSH0 KECCAK256 PUSH0 PUSH2 0x100 EXP DUP2 SLOAD DUP2 PUSH1 0xFF MUL NOT AND SWAP1 DUP4 ISZERO ISZERO MUL OR SWAP1 SSTORE POP PUSH1 0x3 PUSH0 DUP3 DUP2 MSTORE PUSH1 0x20 ADD SWAP1 DUP2 MSTORE PUSH1 0x20 ADD PUSH0 KECCAK256 PUSH0 DUP2 SLOAD DUP1 SWAP3 SWAP2 SWAP1 PUSH2 0x298 SWAP1 PUSH2 0xBE2 JUMP JUMPDEST SWAP2 SWAP1 POP SSTORE POP POP JUMP JUMPDEST PUSH1 0x1 DUP2 DUP2 SLOAD DUP2 LT PUSH2 0x2AF JUMPI PUSH0 DUP1 REVERT JUMPDEST SWAP1 PUSH0 MSTORE PUSH1 0x20 PUSH0 KECCAK256 SWAP1 PUSH1 0x2 MUL ADD PUSH0 SWAP2 POP SWAP1 POP DUP1 PUSH0 ADD DUP1 SLOAD PUSH2 0x2CE SWAP1 PUSH2 0xC56 JUMP JUMPDEST DUP1 PUSH1 0x1F ADD PUSH1 0x20 DUP1 SWAP2 DIV MUL PUSH1 0x20 ADD PUSH1 0x40 MLOAD SWAP1 DUP2 ADD PUSH1 0x40 MSTORE DUP1 SWAP3 SWAP2 SWAP1 DUP2 DUP2 MSTORE PUSH1 0x20 ADD DUP3 DUP1 SLOAD PUSH2 0x2FA SWAP1 PUSH2 0xC56 JUMP JUMPDEST DUP1 ISZERO PUSH2 0x345 JUMPI DUP1 PUSH1 0x1F LT PUSH2 0x31C JUMPI PUSH2 0x100 DUP1 DUP4 SLOAD DIV MUL DUP4 MSTORE SWAP2 PUSH1 0x20 ADD SWAP2 PUSH2 0x345 JUMP JUMPDEST DUP3 ADD SWAP2 SWAP1 PUSH0 MSTORE PUSH1 0x20 PUSH0 KECCAK256 SWAP1 JUMPDEST DUP2 SLOAD DUP2 MSTORE SWAP1 PUSH1 0x1 ADD SWAP1 PUSH1 0x20 ADD DUP1 DUP4 GT PUSH2 0x328 JUMPI DUP3 SWAP1 SUB PUSH1 0x1F AND DUP3 ADD SWAP2 JUMPDEST POP POP POP POP POP SWAP1 DUP1 PUSH1 0x1 ADD DUP1 SLOAD PUSH2 0x35A SWAP1 PUSH2 0xC56 JUMP JUMPDEST DUP1 PUSH1 0x1F ADD PUSH1 0x20 DUP1 SWAP2 DIV MUL PUSH1 0x20 ADD PUSH1 0x40 MLOAD SWAP1 DUP2 ADD PUSH1 0x40 MSTORE DUP1 SWAP3 SWAP2 SWAP1 DUP2 DUP2 MSTORE PUSH1 0x20 ADD DUP3 DUP1 SLOAD PUSH2 0x386 SWAP1 PUSH2 0xC56 JUMP JUMPDEST DUP1 ISZERO PUSH2 0x3D1 JUMPI DUP1 PUSH1 0x1F LT PUSH2 0x3A8 JUMPI PUSH2 0x100 DUP1 DUP4 SLOAD DIV MUL DUP4 MSTORE SWAP2 PUSH1 0x20 ADD SWAP2 PUSH2 0x3D1 JUMP JUMPDEST DUP3 ADD SWAP2 SWAP1 PUSH0 MSTORE PUSH1 0x20 PUSH0 KECCAK256 SWAP1 JUMPDEST DUP2 SLOAD DUP2 MSTORE SWAP1 PUSH1 0x1 ADD SWAP1 PUSH1 0x20 ADD DUP1 DUP4 GT PUSH2 0x3B4 JUMPI DUP3 SWAP1 SUB PUSH1 0x1F AND DUP3 ADD SWAP2 JUMPDEST POP POP POP POP POP SWAP1 POP DUP3 JUMP JUMPDEST PUSH1 0x60 DUP1 PUSH0 PUSH0 SWAP1 SLOAD SWAP1 PUSH2 0x100 EXP SWAP1 DIV PUSH20 0xFFFFFFFFFFFFFFFFFFFFFFFFFFFFFFFFFFFFFFFF AND PUSH20 0xFFFFFFFFFFFFFFFFFFFFFFFFFFFFFFFFFFFFFFFF AND CALLER PUSH20 0xFFFFFFFFFFFFFFFFFFFFFFFFFFFFFFFFFFFFFFFF AND EQ PUSH2 0x46C JUMPI PUSH1 0x40 MLOAD PUSH32 0x8C379A000000000000000000000000000000000000000000000000000000000 DUP2 MSTORE PUSH1 0x4 ADD PUSH2 0x463 SWAP1 PUSH2 0xCD0 JUMP JUMPDEST PUSH1 0x40 MLOAD DUP1 SWAP2 SUB SWAP1 REVERT JUMPDEST PUSH0 PUSH0 SWAP1 POP PUSH0 PUSH0 SWAP1 POP PUSH0 PUSH0 SWAP1 POP JUMPDEST PUSH1 0x1 DUP1 SLOAD SWAP1 POP DUP2 LT ISZERO PUSH2 0x4C4 JUMPI DUP3 PUSH1 0x3 PUSH0 DUP4 DUP2 MSTORE PUSH1 0x20 ADD SWAP1 DUP2 MSTORE PUSH1 0x20 ADD PUSH0 KECCAK256 SLOAD GT ISZERO PUSH2 0x4B7 JUMPI PUSH1 0x3 PUSH0 DUP3 DUP2 MSTORE PUSH1 0x20 ADD SWAP1 DUP2 MSTORE PUSH1 0x20 ADD PUSH0 KECCAK256 SLOAD SWAP3 POP DUP1 SWAP2 POP JUMPDEST DUP1 DUP1 PUSH1 0x1 ADD SWAP2 POP POP PUSH2 0x479 JUMP JUMPDEST POP PUSH1 0x1 DUP2 DUP2 SLOAD DUP2 LT PUSH2 0x4D9 JUMPI PUSH2 0x4D8 PUSH2 0xCEE JUMP JUMPDEST JUMPDEST SWAP1 PUSH0 MSTORE PUSH1 0x20 PUSH0 KECCAK256 SWAP1 PUSH1 0x2 MUL ADD PUSH0 ADD DUP1 SLOAD PUSH2 0x4F2 SWAP1 PUSH2 0xC56 JUMP JUMPDEST DUP1 PUSH1 0x1F ADD PUSH1 0x20 DUP1 SWAP2 DIV MUL PUSH1 0x20 ADD PUSH1 0x40 MLOAD SWAP1 DUP2 ADD PUSH1 0x40 MSTORE DUP1 SWAP3 SWAP2 SWAP1 DUP2 DUP2 MSTORE PUSH1 0x20 ADD DUP3 DUP1 SLOAD PUSH2 0x51E SWAP1 PUSH2 0xC56 JUMP JUMPDEST DUP1 ISZERO PUSH2 0x569 JUMPI DUP1 PUSH1 0x1F LT PUSH2 0x540 JUMPI PUSH2 0x100 DUP1 DUP4 SLOAD DIV MUL DUP4 MSTORE SWAP2 PUSH1 0x20 ADD SWAP2 PUSH2 0x569 JUMP JUMPDEST DUP3 ADD SWAP2 SWAP1 PUSH0 MSTORE PUSH1 0x20 PUSH0 KECCAK256 SWAP1 JUMPDEST DUP2 SLOAD DUP2 MSTORE SWAP1 PUSH1 0x1 ADD SWAP1 PUSH1 0x20 ADD DUP1 DUP4 GT PUSH2 0x54C JUMPI DUP3 SWAP1 SUB PUSH1 0x1F AND DUP3 ADD SWAP2 JUMPDEST POP POP POP POP POP SWAP4 POP PUSH1 0x1 DUP2 DUP2 SLOAD DUP2 LT PUSH2 0x584 JUMPI PUSH2 0x583 PUSH2 0xCEE JUMP JUMPDEST JUMPDEST SWAP1 PUSH0 MSTORE PUSH1 0x20 PUSH0 KECCAK256 SWAP1 PUSH1 0x2 MUL ADD PUSH1 0x1 ADD DUP1 SLOAD PUSH2 0x59E SWAP1 PUSH2 0xC56 JUMP JUMPDEST DUP1 PUSH1 0x1F ADD PUSH1 0x20 DUP1 SWAP2 DIV MUL PUSH1 0x20 ADD PUSH1 0x40 MLOAD SWAP1 DUP2 ADD PUSH1 0x40 MSTORE DUP1 SWAP3 SWAP2 SWAP1 DUP2 DUP2 MSTORE PUSH1 0x20 ADD DUP3 DUP1 SLOAD PUSH2 0x5CA SWAP1 PUSH2 0xC56 JUMP JUMPDEST DUP1 ISZERO PUSH2 0x615 JUMPI DUP1 PUSH1 0x1F LT PUSH2 0x5EC JUMPI PUSH2 0x100 DUP1 DUP4 SLOAD DIV MUL DUP4 MSTORE SWAP2 PUSH1 0x20 ADD SWAP2 PUSH2 0x615 JUMP JUMPDEST DUP3 ADD SWAP2 SWAP1 PUSH0 MSTORE PUSH1 0x20 PUSH0 KECCAK256 SWAP1 JUMPDEST DUP2 SLOAD DUP2 MSTORE SWAP1 PUSH1 0x1 ADD SWAP1 PUSH1 0x20 ADD DUP1 DUP4 GT PUSH2 0x5F8 JUMPI DUP3 SWAP1 SUB PUSH1 0x1F AND DUP3 ADD SWAP2 JUMPDEST POP POP POP POP POP SWAP3 POP POP POP SWAP1 SWAP2 JUMP JUMPDEST PUSH0 PUSH0 SWAP1 SLOAD SWAP1 PUSH2 0x100 EXP SWAP1 DIV PUSH20 0xFFFFFFFFFFFFFFFFFFFFFFFFFFFFFFFFFFFFFFFF AND PUSH20 0xFFFFFFFFFFFFFFFFFFFFFFFFFFFFFFFFFFFFFFFF AND CALLER PUSH20 0xFFFFFFFFFFFFFFFFFFFFFFFFFFFFFFFFFFFFFFFF AND EQ PUSH2 0x6B0 JUMPI PUSH1 0x40 MLOAD PUSH32 0x8C379A000000000000000000000000000000000000000000000000000000000 DUP2 MSTORE PUSH1 0x4 ADD PUSH2 0x6A7 SWAP1 PUSH2 0xCD0 JUMP JUMPDEST PUSH1 0x40 MLOAD DUP1 SWAP2 SUB SWAP1 REVERT JUMPDEST PUSH1 0x1 PUSH1 0x40 MLOAD DUP1 PUSH1 0x40 ADD PUSH1 0x40 MSTORE DUP1 DUP5 DUP2 MSTORE PUSH1 0x20 ADD DUP4 DUP2 MSTORE POP SWAP1 DUP1 PUSH1 0x1 DUP2 SLOAD ADD DUP1 DUP3 SSTORE DUP1 SWAP2 POP POP PUSH1 0x1 SWAP1 SUB SWAP1 PUSH0 MSTORE PUSH1 0x20 PUSH0 KECCAK256 SWAP1 PUSH1 0x2 MUL ADD PUSH0 SWAP1 SWAP2 SWAP1 SWAP2 SWAP1 SWAP2 POP PUSH0 DUP3 ADD MLOAD DUP2 PUSH0 ADD SWAP1 DUP2 PUSH2 0x700 SWAP2 SWAP1 PUSH2 0xEBB JUMP JUMPDEST POP PUSH1 0x20 DUP3 ADD MLOAD DUP2 PUSH1 0x1 ADD SWAP1 DUP2 PUSH2 0x716 SWAP2 SWAP1 PUSH2 0xEBB JUMP JUMPDEST POP POP POP POP POP JUMP JUMPDEST PUSH1 0x2 PUSH1 0x20 MSTORE DUP1 PUSH0 MSTORE PUSH1 0x40 PUSH0 KECCAK256 PUSH0 SWAP2 POP SLOAD SWAP1 PUSH2 0x100 EXP SWAP1 DIV PUSH1 0xFF AND DUP2 JUMP JUMPDEST PUSH1 0x3 PUSH1 0x20 MSTORE DUP1 PUSH0 MSTORE PUSH1 0x40 PUSH0 KECCAK256 PUSH0 SWAP2 POP SWAP1 POP SLOAD DUP2 JUMP JUMPDEST PUSH0 PUSH1 0x40 MLOAD SWAP1 POP SWAP1 JUMP JUMPDEST PUSH0 PUSH0 REVERT JUMPDEST PUSH0 PUSH0 REVERT JUMPDEST PUSH0 DUP2 SWAP1 POP SWAP2 SWAP1 POP JUMP JUMPDEST PUSH2 0x772 DUP2 PUSH2 0x760 JUMP JUMPDEST DUP2 EQ PUSH2 0x77C JUMPI PUSH0 PUSH0 REVERT JUMPDEST POP JUMP JUMPDEST PUSH0 DUP2 CALLDATALOAD SWAP1 POP PUSH2 0x78D DUP2 PUSH2 0x769 JUMP JUMPDEST SWAP3 SWAP2 POP POP JUMP JUMPDEST PUSH0 PUSH1 0x20 DUP3 DUP5 SUB SLT ISZERO PUSH2 0x7A8 JUMPI PUSH2 0x7A7 PUSH2 0x758 JUMP JUMPDEST JUMPDEST PUSH0 PUSH2 0x7B5 DUP5 DUP3 DUP6 ADD PUSH2 0x77F JUMP JUMPDEST SWAP2 POP POP SWAP3 SWAP2 POP POP JUMP JUMPDEST PUSH0 DUP2 MLOAD SWAP1 POP SWAP2 SWAP1 POP JUMP JUMPDEST PUSH0 DUP3 DUP3 MSTORE PUSH1 0x20 DUP3 ADD SWAP1 POP SWAP3 SWAP2 POP POP JUMP JUMPDEST DUP3 DUP2 DUP4 MCOPY PUSH0 DUP4 DUP4 ADD MSTORE POP POP POP JUMP JUMPDEST PUSH0 PUSH1 0x1F NOT PUSH1 0x1F DUP4 ADD AND SWAP1 POP SWAP2 SWAP1 POP JUMP JUMPDEST PUSH0 PUSH2 0x800 DUP3 PUSH2 0x7BE JUMP JUMPDEST PUSH2 0x80A DUP2 DUP6 PUSH2 0x7C8 JUMP JUMPDEST SWAP4 POP PUSH2 0x81A DUP2 DUP6 PUSH1 0x20 DUP7 ADD PUSH2 0x7D8 JUMP JUMPDEST PUSH2 0x823 DUP2 PUSH2 0x7E6 JUMP JUMPDEST DUP5 ADD SWAP2 POP POP SWAP3 SWAP2 POP POP JUMP JUMPDEST PUSH0 PUSH1 0x40 DUP3 ADD SWAP1 POP DUP2 DUP2 SUB PUSH0 DUP4 ADD MSTORE PUSH2 0x846 DUP2 DUP6 PUSH2 0x7F6 JUMP JUMPDEST SWAP1 POP DUP2 DUP2 SUB PUSH1 0x20 DUP4 ADD MSTORE PUSH2 0x85A DUP2 DUP5 PUSH2 0x7F6 JUMP JUMPDEST SWAP1 POP SWAP4 SWAP3 POP POP POP JUMP JUMPDEST PUSH0 PUSH0 REVERT JUMPDEST PUSH0 PUSH0 REVERT JUMPDEST PUSH32 0x4E487B7100000000000000000000000000000000000000000000000000000000 PUSH0 MSTORE PUSH1 0x41 PUSH1 0x4 MSTORE PUSH1 0x24 PUSH0 REVERT JUMPDEST PUSH2 0x8A1 DUP3 PUSH2 0x7E6 JUMP JUMPDEST DUP2 ADD DUP2 DUP2 LT PUSH8 0xFFFFFFFFFFFFFFFF DUP3 GT OR ISZERO PUSH2 0x8C0 JUMPI PUSH2 0x8BF PUSH2 0x86B JUMP JUMPDEST JUMPDEST DUP1 PUSH1 0x40 MSTORE POP POP POP JUMP JUMPDEST PUSH0 PUSH2 0x8D2 PUSH2 0x74F JUMP JUMPDEST SWAP1 POP PUSH2 0x8DE DUP3 DUP3 PUSH2 0x898 JUMP JUMPDEST SWAP2 SWAP1 POP JUMP JUMPDEST PUSH0 PUSH8 0xFFFFFFFFFFFFFFFF DUP3 GT ISZERO PUSH2 0x8FD JUMPI PUSH2 0x8FC PUSH2 0x86B JUMP JUMPDEST JUMPDEST PUSH2 0x906 DUP3 PUSH2 0x7E6 JUMP JUMPDEST SWAP1 POP PUSH1 0x20 DUP2 ADD SWAP1 POP SWAP2 SWAP1 POP JUMP JUMPDEST DUP3 DUP2 DUP4 CALLDATACOPY PUSH0 DUP4 DUP4 ADD MSTORE POP POP POP JUMP JUMPDEST PUSH0 PUSH2 0x933 PUSH2 0x92E DUP5 PUSH2 0x8E3 JUMP JUMPDEST PUSH2 0x8C9 JUMP JUMPDEST SWAP1 POP DUP3 DUP2 MSTORE PUSH1 0x20 DUP2 ADD DUP5 DUP5 DUP5 ADD GT ISZERO PUSH2 0x94F JUMPI PUSH2 0x94E PUSH2 0x867 JUMP JUMPDEST JUMPDEST PUSH2 0x95A DUP5 DUP3 DUP6 PUSH2 0x913 JUMP JUMPDEST POP SWAP4 SWAP3 POP POP POP JUMP JUMPDEST PUSH0 DUP3 PUSH1 0x1F DUP4 ADD SLT PUSH2 0x976 JUMPI PUSH2 0x975 PUSH2 0x863 JUMP JUMPDEST JUMPDEST DUP2 CALLDATALOAD PUSH2 0x986 DUP5 DUP3 PUSH1 0x20 DUP7 ADD PUSH2 0x921 JUMP JUMPDEST SWAP2 POP POP SWAP3 SWAP2 POP POP JUMP JUMPDEST PUSH0 PUSH0 PUSH1 0x40 DUP4 DUP6 SUB SLT ISZERO PUSH2 0x9A5 JUMPI PUSH2 0x9A4 PUSH2 0x758 JUMP JUMPDEST JUMPDEST PUSH0 DUP4 ADD CALLDATALOAD PUSH8 0xFFFFFFFFFFFFFFFF DUP2 GT ISZERO PUSH2 0x9C2 JUMPI PUSH2 0x9C1 PUSH2 0x75C JUMP JUMPDEST JUMPDEST PUSH2 0x9CE DUP6 DUP3 DUP7 ADD PUSH2 0x962 JUMP JUMPDEST SWAP3 POP POP PUSH1 0x20 DUP4 ADD CALLDATALOAD PUSH8 0xFFFFFFFFFFFFFFFF DUP2 GT ISZERO PUSH2 0x9EF JUMPI PUSH2 0x9EE PUSH2 0x75C JUMP JUMPDEST JUMPDEST PUSH2 0x9FB DUP6 DUP3 DUP7 ADD PUSH2 0x962 JUMP JUMPDEST SWAP2 POP POP SWAP3 POP SWAP3 SWAP1 POP JUMP JUMPDEST PUSH0 PUSH20 0xFFFFFFFFFFFFFFFFFFFFFFFFFFFFFFFFFFFFFFFF DUP3 AND SWAP1 POP SWAP2 SWAP1 POP JUMP JUMPDEST PUSH0 PUSH2 0xA2E DUP3 PUSH2 0xA05 JUMP JUMPDEST SWAP1 POP SWAP2 SWAP1 POP JUMP JUMPDEST PUSH2 0xA3E DUP2 PUSH2 0xA24 JUMP JUMPDEST DUP2 EQ PUSH2 0xA48 JUMPI PUSH0 PUSH0 REVERT JUMPDEST POP JUMP JUMPDEST PUSH0 DUP2 CALLDATALOAD SWAP1 POP PUSH2 0xA59 DUP2 PUSH2 0xA35 JUMP JUMPDEST SWAP3 SWAP2 POP POP JUMP JUMPDEST PUSH0 PUSH1 0x20 DUP3 DUP5 SUB SLT ISZERO PUSH2 0xA74 JUMPI PUSH2 0xA73 PUSH2 0x758 JUMP JUMPDEST JUMPDEST PUSH0 PUSH2 0xA81 DUP5 DUP3 DUP6 ADD PUSH2 0xA4B JUMP JUMPDEST SWAP2 POP POP SWAP3 SWAP2 POP POP JUMP JUMPDEST PUSH0 DUP2 ISZERO ISZERO SWAP1 POP SWAP2 SWAP1 POP JUMP JUMPDEST PUSH2 0xA9E DUP2 PUSH2 0xA8A JUMP JUMPDEST DUP3 MSTORE POP POP JUMP JUMPDEST PUSH0 PUSH1 0x20 DUP3 ADD SWAP1 POP PUSH2 0xAB7 PUSH0 DUP4 ADD DUP5 PUSH2 0xA95 JUMP JUMPDEST SWAP3 SWAP2 POP POP JUMP JUMPDEST PUSH2 0xAC6 DUP2 PUSH2 0x760 JUMP JUMPDEST DUP3 MSTORE POP POP JUMP JUMPDEST PUSH0 PUSH1 0x20 DUP3 ADD SWAP1 POP PUSH2 0xADF PUSH0 DUP4 ADD DUP5 PUSH2 0xABD JUMP JUMPDEST SWAP3 SWAP2 POP POP JUMP JUMPDEST PUSH32 0x596F75206861766520616C726561647920766F74656421000000000000000000 PUSH0 DUP3 ADD MSTORE POP JUMP JUMPDEST PUSH0 PUSH2 0xB19 PUSH1 0x17 DUP4 PUSH2 0x7C8 JUMP JUMPDEST SWAP2 POP PUSH2 0xB24 DUP3 PUSH2 0xAE5 JUMP JUMPDEST PUSH1 0x20 DUP3 ADD SWAP1 POP SWAP2 SWAP1 POP JUMP JUMPDEST PUSH0 PUSH1 0x20 DUP3 ADD SWAP1 POP DUP2 DUP2 SUB PUSH0 DUP4 ADD MSTORE PUSH2 0xB46 DUP2 PUSH2 0xB0D JUMP JUMPDEST SWAP1 POP SWAP2 SWAP1 POP JUMP JUMPDEST PUSH32 0x496E76616C69642063616E64696461746520696E646578000000000000000000 PUSH0 DUP3 ADD MSTORE POP JUMP JUMPDEST PUSH0 PUSH2 0xB81 PUSH1 0x17 DUP4 PUSH2 0x7C8 JUMP JUMPDEST SWAP2 POP PUSH2 0xB8C DUP3 PUSH2 0xB4D JUMP JUMPDEST PUSH1 0x20 DUP3 ADD SWAP1 POP SWAP2 SWAP1 POP JUMP JUMPDEST PUSH0 PUSH1 0x20 DUP3 ADD SWAP1 POP DUP2 DUP2 SUB PUSH0 DUP4 ADD MSTORE PUSH2 0xBAE DUP2 PUSH2 0xB75 JUMP JUMPDEST SWAP1 POP SWAP2 SWAP1 POP JUMP JUMPDEST PUSH32 0x4E487B7100000000000000000000000000000000000000000000000000000000 PUSH0 MSTORE PUSH1 0x11 PUSH1 0x4 MSTORE PUSH1 0x24 PUSH0 REVERT JUMPDEST PUSH0 PUSH2 0xBEC DUP3 PUSH2 0x760 JUMP JUMPDEST SWAP2 POP PUSH32 0xFFFFFFFFFFFFFFFFFFFFFFFFFFFFFFFFFFFFFFFFFFFFFFFFFFFFFFFFFFFFFFFF DUP3 SUB PUSH2 0xC1E JUMPI PUSH2 0xC1D PUSH2 0xBB5 JUMP JUMPDEST JUMPDEST PUSH1 0x1 DUP3 ADD SWAP1 POP SWAP2 SWAP1 POP JUMP JUMPDEST PUSH32 0x4E487B7100000000000000000000000000000000000000000000000000000000 PUSH0 MSTORE PUSH1 0x22 PUSH1 0x4 MSTORE PUSH1 0x24 PUSH0 REVERT JUMPDEST PUSH0 PUSH1 0x2 DUP3 DIV SWAP1 POP PUSH1 0x1 DUP3 AND DUP1 PUSH2 0xC6D JUMPI PUSH1 0x7F DUP3 AND SWAP2 POP JUMPDEST PUSH1 0x20 DUP3 LT DUP2 SUB PUSH2 0xC80 JUMPI PUSH2 0xC7F PUSH2 0xC29 JUMP JUMPDEST JUMPDEST POP SWAP2 SWAP1 POP JUMP JUMPDEST PUSH32 0x6E6F7420746865206F776E657200000000000000000000000000000000000000 PUSH0 DUP3 ADD MSTORE POP JUMP JUMPDEST PUSH0 PUSH2 0xCBA PUSH1 0xD DUP4 PUSH2 0x7C8 JUMP JUMPDEST SWAP2 POP PUSH2 0xCC5 DUP3 PUSH2 0xC86 JUMP JUMPDEST PUSH1 0x20 DUP3 ADD SWAP1 POP SWAP2 SWAP1 POP JUMP JUMPDEST PUSH0 PUSH1 0x20 DUP3 ADD SWAP1 POP DUP2 DUP2 SUB PUSH0 DUP4 ADD MSTORE PUSH2 0xCE7 DUP2 PUSH2 0xCAE JUMP JUMPDEST SWAP1 POP SWAP2 SWAP1 POP JUMP JUMPDEST PUSH32 0x4E487B7100000000000000000000000000000000000000000000000000000000 PUSH0 MSTORE PUSH1 0x32 PUSH1 0x4 MSTORE PUSH1 0x24 PUSH0 REVERT JUMPDEST PUSH0 DUP2 SWAP1 POP DUP2 PUSH0 MSTORE PUSH1 0x20 PUSH0 KECCAK256 SWAP1 POP SWAP2 SWAP1 POP JUMP JUMPDEST PUSH0 PUSH1 0x20 PUSH1 0x1F DUP4 ADD DIV SWAP1 POP SWAP2 SWAP1 POP JUMP JUMPDEST PUSH0 DUP3 DUP3 SHL SWAP1 POP SWAP3 SWAP2 POP POP JUMP JUMPDEST PUSH0 PUSH1 0x8 DUP4 MUL PUSH2 0xD77 PUSH32 0xFFFFFFFFFFFFFFFFFFFFFFFFFFFFFFFFFFFFFFFFFFFFFFFFFFFFFFFFFFFFFFFF DUP3 PUSH2 0xD3C JUMP JUMPDEST PUSH2 0xD81 DUP7 DUP4 PUSH2 0xD3C JUMP JUMPDEST SWAP6 POP DUP1 NOT DUP5 AND SWAP4 POP DUP1 DUP7 AND DUP5 OR SWAP3 POP POP POP SWAP4 SWAP3 POP POP POP JUMP JUMPDEST PUSH0 DUP2 SWAP1 POP SWAP2 SWAP1 POP JUMP JUMPDEST PUSH0 PUSH2 0xDBC PUSH2 0xDB7 PUSH2 0xDB2 DUP5 PUSH2 0x760 JUMP JUMPDEST PUSH2 0xD99 JUMP JUMPDEST PUSH2 0x760 JUMP JUMPDEST SWAP1 POP SWAP2 SWAP1 POP JUMP JUMPDEST PUSH0 DUP2 SWAP1 POP SWAP2 SWAP1 POP JUMP JUMPDEST PUSH2 0xDD5 DUP4 PUSH2 0xDA2 JUMP JUMPDEST PUSH2 0xDE9 PUSH2 0xDE1 DUP3 PUSH2 0xDC3 JUMP JUMPDEST DUP5 DUP5 SLOAD PUSH2 0xD48 JUMP JUMPDEST DUP3 SSTORE POP POP POP POP JUMP JUMPDEST PUSH0 PUSH0 SWAP1 POP SWAP1 JUMP JUMPDEST PUSH2 0xE00 PUSH2 0xDF1 JUMP JUMPDEST PUSH2 0xE0B DUP2 DUP5 DUP5 PUSH2 0xDCC JUMP JUMPDEST POP POP POP JUMP JUMPDEST JUMPDEST DUP2 DUP2 LT ISZERO PUSH2 0xE2E JUMPI PUSH2 0xE23 PUSH0 DUP3 PUSH2 0xDF8 JUMP JUMPDEST PUSH1 0x1 DUP2 ADD SWAP1 POP PUSH2 0xE11 JUMP JUMPDEST POP POP JUMP JUMPDEST PUSH1 0x1F DUP3 GT ISZERO PUSH2 0xE73 JUMPI PUSH2 0xE44 DUP2 PUSH2 0xD1B JUMP JUMPDEST PUSH2 0xE4D DUP5 PUSH2 0xD2D JUMP JUMPDEST DUP2 ADD PUSH1 0x20 DUP6 LT ISZERO PUSH2 0xE5C JUMPI DUP2 SWAP1 POP JUMPDEST PUSH2 0xE70 PUSH2 0xE68 DUP6 PUSH2 0xD2D JUMP JUMPDEST DUP4 ADD DUP3 PUSH2 0xE10 JUMP JUMPDEST POP POP JUMPDEST POP POP POP JUMP JUMPDEST PUSH0 DUP3 DUP3 SHR SWAP1 POP SWAP3 SWAP2 POP POP JUMP JUMPDEST PUSH0 PUSH2 0xE93 PUSH0 NOT DUP5 PUSH1 0x8 MUL PUSH2 0xE78 JUMP JUMPDEST NOT DUP1 DUP4 AND SWAP2 POP POP SWAP3 SWAP2 POP POP JUMP JUMPDEST PUSH0 PUSH2 0xEAB DUP4 DUP4 PUSH2 0xE84 JUMP JUMPDEST SWAP2 POP DUP3 PUSH1 0x2 MUL DUP3 OR SWAP1 POP SWAP3 SWAP2 POP POP JUMP JUMPDEST PUSH2 0xEC4 DUP3 PUSH2 0x7BE JUMP JUMPDEST PUSH8 0xFFFFFFFFFFFFFFFF DUP2 GT ISZERO PUSH2 0xEDD JUMPI PUSH2 0xEDC PUSH2 0x86B JUMP JUMPDEST JUMPDEST PUSH2 0xEE7 DUP3 SLOAD PUSH2 0xC56 JUMP JUMPDEST PUSH2 0xEF2 DUP3 DUP3 DUP6 PUSH2 0xE32 JUMP JUMPDEST PUSH0 PUSH1 0x20 SWAP1 POP PUSH1 0x1F DUP4 GT PUSH1 0x1 DUP2 EQ PUSH2 0xF23 JUMPI PUSH0 DUP5 ISZERO PUSH2 0xF11 JUMPI DUP3 DUP8 ADD MLOAD SWAP1 POP JUMPDEST PUSH2 0xF1B DUP6 DUP3 PUSH2 0xEA0 JUMP JUMPDEST DUP7 SSTORE POP PUSH2 0xF82 JUMP JUMPDEST PUSH1 0x1F NOT DUP5 AND PUSH2 0xF31 DUP7 PUSH2 0xD1B JUMP JUMPDEST PUSH0 JUMPDEST DUP3 DUP2 LT ISZERO PUSH2 0xF58 JUMPI DUP5 DUP10 ADD MLOAD DUP3 SSTORE PUSH1 0x1 DUP3 ADD SWAP2 POP PUSH1 0x20 DUP6 ADD SWAP5 POP PUSH1 0x20 DUP2 ADD SWAP1 POP PUSH2 0xF33 JUMP JUMPDEST DUP7 DUP4 LT ISZERO PUSH2 0xF75 JUMPI DUP5 DUP10 ADD MLOAD PUSH2 0xF71 PUSH1 0x1F DUP10 AND DUP3 PUSH2 0xE84 JUMP JUMPDEST DUP4 SSTORE POP JUMPDEST PUSH1 0x1 PUSH1 0x2 DUP9 MUL ADD DUP9 SSTORE POP POP POP JUMPDEST POP POP POP POP POP POP JUMP INVALID LOG2 PUSH5 0x6970667358 0x22 SLT KECCAK256 0xF 0xE0 0xCC PUSH16 0x3824A7D4F64EBFDCAE9E13FFED45F927 SWAP3 0x1E PUSH32 0x34C0900CB866FCFF1664736F6C634300081C0033000000000000000000000000 "
				},
				"gasEstimates": {
					"creation": {
						"codeDepositCost": "806400",
						"executionCost": "25100",
						"totalCost": "831500"
					},
					"external": {
						"Candidates(uint256)": "infinite",
						"addCandid(string,string)": "infinite",
						"candidateVotes(uint256)": "infinite",
						"result()": "infinite",
						"vote(uint256)": "infinite",
						"voters(address)": "2899"
					}
				},
				"methodIdentifiers": {
					"Candidates(uint256)": "290e9212",
					"addCandid(string,string)": "8b9fb5f9",
					"candidateVotes(uint256)": "f49e323e",
					"result()": "65372147",
					"vote(uint256)": "0121b93f",
					"voters(address)": "a3ec138d"
				}
			},
			"storageLayout": {
				"storage": [
					{
						"astId": 3,
						"contract": "contracts/PRACTICE/1/Sef_voting.sol:voting",
						"label": "owner",
						"offset": 0,
						"slot": "0",
						"type": "t_address"
					},
					{
						"astId": 17,
						"contract": "contracts/PRACTICE/1/Sef_voting.sol:voting",
						"label": "Candidates",
						"offset": 0,
						"slot": "1",
						"type": "t_array(t_struct(candids)8_storage)dyn_storage"
					},
					{
						"astId": 30,
						"contract": "contracts/PRACTICE/1/Sef_voting.sol:voting",
						"label": "voters",
						"offset": 0,
						"slot": "2",
						"type": "t_mapping(t_address,t_bool)"
					},
					{
						"astId": 34,
						"contract": "contracts/PRACTICE/1/Sef_voting.sol:voting",
						"label": "candidateVotes",
						"offset": 0,
						"slot": "3",
						"type": "t_mapping(t_uint256,t_uint256)"
					}
				],
				"types": {
					"t_address": {
						"encoding": "inplace",
						"label": "address",
						"numberOfBytes": "20"
					},
					"t_array(t_struct(candids)8_storage)dyn_storage": {
						"base": "t_struct(candids)8_storage",
						"encoding": "dynamic_array",
						"label": "struct voting.candids[]",
						"numberOfBytes": "32"
					},
					"t_bool": {
						"encoding": "inplace",
						"label": "bool",
						"numberOfBytes": "1"
					},
					"t_mapping(t_address,t_bool)": {
						"encoding": "mapping",
						"key": "t_address",
						"label": "mapping(address => bool)",
						"numberOfBytes": "32",
						"value": "t_bool"
					},
					"t_mapping(t_uint256,t_uint256)": {
						"encoding": "mapping",
						"key": "t_uint256",
						"label": "mapping(uint256 => uint256)",
						"numberOfBytes": "32",
						"value": "t_uint256"
					},
					"t_string_storage": {
						"encoding": "bytes",
						"label": "string",
						"numberOfBytes": "32"
					},
					"t_struct(candids)8_storage": {
						"encoding": "inplace",
						"label": "struct voting.candids",
						"members": [
							{
								"astId": 5,
								"contract": "contracts/PRACTICE/1/Sef_voting.sol:voting",
								"label": "name",
								"offset": 0,
								"slot": "0",
								"type": "t_string_storage"
							},
							{
								"astId": 7,
								"contract": "contracts/PRACTICE/1/Sef_voting.sol:voting",
								"label": "partyname",
								"offset": 0,
								"slot": "1",
								"type": "t_string_storage"
							}
						],
						"numberOfBytes": "64"
					},
					"t_uint256": {
						"encoding": "inplace",
						"label": "uint256",
						"numberOfBytes": "32"
					}
				}
			},
			"userdoc": {
				"kind": "user",
				"methods": {},
				"version": 1
			}
		}
	}
}