{
	"contracts/PRACTICE/1/Rough_Self_lottery.sol": {
		"Lottery": {
			"abi": [
				{
					"inputs": [],
					"stateMutability": "nonpayable",
					"type": "constructor"
				},
				{
					"inputs": [],
					"name": "checkBal",
					"outputs": [
						{
							"internalType": "uint256",
							"name": "",
							"type": "uint256"
						}
					],
					"stateMutability": "view",
					"type": "function"
				},
				{
					"inputs": [],
					"name": "participate",
					"outputs": [],
					"stateMutability": "payable",
					"type": "function"
				},
				{
					"inputs": [
						{
							"internalType": "uint256",
							"name": "",
							"type": "uint256"
						}
					],
					"name": "players",
					"outputs": [
						{
							"internalType": "address payable",
							"name": "",
							"type": "address"
						}
					],
					"stateMutability": "view",
					"type": "function"
				},
				{
					"inputs": [],
					"name": "random",
					"outputs": [
						{
							"internalType": "uint256",
							"name": "",
							"type": "uint256"
						}
					],
					"stateMutability": "view",
					"type": "function"
				},
				{
					"inputs": [],
					"name": "win",
					"outputs": [],
					"stateMutability": "nonpayable",
					"type": "function"
				}
			],
			"devdoc": {
				"kind": "dev",
				"methods": {},
				"version": 1
			},
			"evm": {
				"assembly": "    /* \"contracts/PRACTICE/1/Rough_Self_lottery.sol\":59:994  contract Lottery{... */\n  mstore(0x40, 0x80)\n    /* \"contracts/PRACTICE/1/Rough_Self_lottery.sol\":181:231  constructor(){... */\n  callvalue\n  dup1\n  iszero\n  tag_1\n  jumpi\n  revert(0x00, 0x00)\ntag_1:\n  pop\n    /* \"contracts/PRACTICE/1/Rough_Self_lottery.sol\":213:223  msg.sender */\n  caller\n    /* \"contracts/PRACTICE/1/Rough_Self_lottery.sol\":205:212  manager */\n  0x00\n  0x00\n    /* \"contracts/PRACTICE/1/Rough_Self_lottery.sol\":205:223  manager=msg.sender */\n  0x0100\n  exp\n  dup2\n  sload\n  dup2\n  0xffffffffffffffffffffffffffffffffffffffff\n  mul\n  not\n  and\n  swap1\n  dup4\n  0xffffffffffffffffffffffffffffffffffffffff\n  and\n  mul\n  or\n  swap1\n  sstore\n  pop\n    /* \"contracts/PRACTICE/1/Rough_Self_lottery.sol\":59:994  contract Lottery{... */\n  dataSize(sub_0)\n  dup1\n  dataOffset(sub_0)\n  0x00\n  codecopy\n  0x00\n  return\nstop\n\nsub_0: assembly {\n        /* \"contracts/PRACTICE/1/Rough_Self_lottery.sol\":59:994  contract Lottery{... */\n      mstore(0x40, 0x80)\n      jumpi(tag_1, lt(calldatasize, 0x04))\n      shr(0xe0, calldataload(0x00))\n      dup1\n      0x2058ad6b\n      eq\n      tag_2\n      jumpi\n      dup1\n      0x473ca96c\n      eq\n      tag_3\n      jumpi\n      dup1\n      0x5ec01e4d\n      eq\n      tag_4\n      jumpi\n      dup1\n      0xd11711a2\n      eq\n      tag_5\n      jumpi\n      dup1\n      0xf71d96cb\n      eq\n      tag_6\n      jumpi\n    tag_1:\n      revert(0x00, 0x00)\n        /* \"contracts/PRACTICE/1/Rough_Self_lottery.sol\":393:486  function checkBal() public view  returns(uint){... */\n    tag_2:\n      callvalue\n      dup1\n      iszero\n      tag_7\n      jumpi\n      revert(0x00, 0x00)\n    tag_7:\n      pop\n      tag_8\n      tag_9\n      jump\t// in\n    tag_8:\n      mload(0x40)\n      tag_10\n      swap2\n      swap1\n      tag_11\n      jump\t// in\n    tag_10:\n      mload(0x40)\n      dup1\n      swap2\n      sub\n      swap1\n      return\n        /* \"contracts/PRACTICE/1/Rough_Self_lottery.sol\":647:983  function win() public{... */\n    tag_3:\n      callvalue\n      dup1\n      iszero\n      tag_12\n      jumpi\n      revert(0x00, 0x00)\n    tag_12:\n      pop\n      tag_13\n      tag_14\n      jump\t// in\n    tag_13:\n      stop\n        /* \"contracts/PRACTICE/1/Rough_Self_lottery.sol\":492:641  function random() public view returns(uint){... */\n    tag_4:\n      callvalue\n      dup1\n      iszero\n      tag_15\n      jumpi\n      revert(0x00, 0x00)\n    tag_15:\n      pop\n      tag_16\n      tag_17\n      jump\t// in\n    tag_16:\n      mload(0x40)\n      tag_18\n      swap2\n      swap1\n      tag_11\n      jump\t// in\n    tag_18:\n      mload(0x40)\n      dup1\n      swap2\n      sub\n      swap1\n      return\n        /* \"contracts/PRACTICE/1/Rough_Self_lottery.sol\":237:387  function participate() payable public {... */\n    tag_5:\n      tag_19\n      tag_20\n      jump\t// in\n    tag_19:\n      stop\n        /* \"contracts/PRACTICE/1/Rough_Self_lottery.sol\":112:145  address payable [] public players */\n    tag_6:\n      callvalue\n      dup1\n      iszero\n      tag_21\n      jumpi\n      revert(0x00, 0x00)\n    tag_21:\n      pop\n      tag_22\n      0x04\n      dup1\n      calldatasize\n      sub\n      dup2\n      add\n      swap1\n      tag_23\n      swap2\n      swap1\n      tag_24\n      jump\t// in\n    tag_23:\n      tag_25\n      jump\t// in\n    tag_22:\n      mload(0x40)\n      tag_26\n      swap2\n      swap1\n      tag_27\n      jump\t// in\n    tag_26:\n      mload(0x40)\n      dup1\n      swap2\n      sub\n      swap1\n      return\n        /* \"contracts/PRACTICE/1/Rough_Self_lottery.sol\":393:486  function checkBal() public view  returns(uint){... */\n    tag_9:\n        /* \"contracts/PRACTICE/1/Rough_Self_lottery.sol\":434:438  uint */\n      0x00\n        /* \"contracts/PRACTICE/1/Rough_Self_lottery.sol\":457:478  address(this).balance */\n      selfbalance\n        /* \"contracts/PRACTICE/1/Rough_Self_lottery.sol\":450:478  return address(this).balance */\n      swap1\n      pop\n        /* \"contracts/PRACTICE/1/Rough_Self_lottery.sol\":393:486  function checkBal() public view  returns(uint){... */\n      swap1\n      jump\t// out\n        /* \"contracts/PRACTICE/1/Rough_Self_lottery.sol\":647:983  function win() public{... */\n    tag_14:\n        /* \"contracts/PRACTICE/1/Rough_Self_lottery.sol\":696:706  msg.sender */\n      caller\n        /* \"contracts/PRACTICE/1/Rough_Self_lottery.sol\":687:706  manager==msg.sender */\n      0xffffffffffffffffffffffffffffffffffffffff\n      and\n        /* \"contracts/PRACTICE/1/Rough_Self_lottery.sol\":687:694  manager */\n      0x00\n      0x00\n      swap1\n      sload\n      swap1\n      0x0100\n      exp\n      swap1\n      div\n      0xffffffffffffffffffffffffffffffffffffffff\n      and\n        /* \"contracts/PRACTICE/1/Rough_Self_lottery.sol\":687:706  manager==msg.sender */\n      0xffffffffffffffffffffffffffffffffffffffff\n      and\n      eq\n        /* \"contracts/PRACTICE/1/Rough_Self_lottery.sol\":679:733  require(manager==msg.sender,\"you are not the manager\") */\n      tag_30\n      jumpi\n      mload(0x40)\n      0x08c379a000000000000000000000000000000000000000000000000000000000\n      dup2\n      mstore\n      0x04\n      add\n      tag_31\n      swap1\n      tag_32\n      jump\t// in\n    tag_31:\n      mload(0x40)\n      dup1\n      swap2\n      sub\n      swap1\n      revert\n    tag_30:\n        /* \"contracts/PRACTICE/1/Rough_Self_lottery.sol\":767:768  3 */\n      0x03\n        /* \"contracts/PRACTICE/1/Rough_Self_lottery.sol\":752:759  players */\n      0x01\n        /* \"contracts/PRACTICE/1/Rough_Self_lottery.sol\":752:766  players.length */\n      dup1\n      sload\n      swap1\n      pop\n        /* \"contracts/PRACTICE/1/Rough_Self_lottery.sol\":752:768  players.length>3 */\n      gt\n        /* \"contracts/PRACTICE/1/Rough_Self_lottery.sol\":744:790  require(players.length>3,\"not enough players\") */\n      tag_33\n      jumpi\n      mload(0x40)\n      0x08c379a000000000000000000000000000000000000000000000000000000000\n      dup2\n      mstore\n      0x04\n      add\n      tag_34\n      swap1\n      tag_35\n      jump\t// in\n    tag_34:\n      mload(0x40)\n      dup1\n      swap2\n      sub\n      swap1\n      revert\n    tag_33:\n        /* \"contracts/PRACTICE/1/Rough_Self_lottery.sol\":803:809  uint r */\n      0x00\n        /* \"contracts/PRACTICE/1/Rough_Self_lottery.sol\":810:818  random() */\n      tag_36\n        /* \"contracts/PRACTICE/1/Rough_Self_lottery.sol\":810:816  random */\n      tag_17\n        /* \"contracts/PRACTICE/1/Rough_Self_lottery.sol\":810:818  random() */\n      jump\t// in\n    tag_36:\n        /* \"contracts/PRACTICE/1/Rough_Self_lottery.sol\":803:818  uint r=random() */\n      swap1\n      pop\n        /* \"contracts/PRACTICE/1/Rough_Self_lottery.sol\":828:834  uint i */\n      0x00\n        /* \"contracts/PRACTICE/1/Rough_Self_lottery.sol\":838:845  players */\n      0x01\n        /* \"contracts/PRACTICE/1/Rough_Self_lottery.sol\":838:852  players.length */\n      dup1\n      sload\n      swap1\n      pop\n        /* \"contracts/PRACTICE/1/Rough_Self_lottery.sol\":836:837  r */\n      dup3\n        /* \"contracts/PRACTICE/1/Rough_Self_lottery.sol\":836:852  r%players.length */\n      tag_37\n      swap2\n      swap1\n      tag_38\n      jump\t// in\n    tag_37:\n        /* \"contracts/PRACTICE/1/Rough_Self_lottery.sol\":828:852  uint i= r%players.length */\n      swap1\n      pop\n        /* \"contracts/PRACTICE/1/Rough_Self_lottery.sol\":869:876  players */\n      0x01\n        /* \"contracts/PRACTICE/1/Rough_Self_lottery.sol\":877:878  i */\n      dup2\n        /* \"contracts/PRACTICE/1/Rough_Self_lottery.sol\":869:879  players[i] */\n      dup2\n      sload\n      dup2\n      lt\n      tag_39\n      jumpi\n      tag_40\n      tag_41\n      jump\t// in\n    tag_40:\n    tag_39:\n      swap1\n      0x00\n      mstore\n      keccak256(0x00, 0x20)\n      add\n      0x00\n      swap1\n      sload\n      swap1\n      0x0100\n      exp\n      swap1\n      div\n      0xffffffffffffffffffffffffffffffffffffffff\n      and\n        /* \"contracts/PRACTICE/1/Rough_Self_lottery.sol\":862:868  Winner */\n      0x02\n      0x00\n        /* \"contracts/PRACTICE/1/Rough_Self_lottery.sol\":862:879  Winner=players[i] */\n      0x0100\n      exp\n      dup2\n      sload\n      dup2\n      0xffffffffffffffffffffffffffffffffffffffff\n      mul\n      not\n      and\n      swap1\n      dup4\n      0xffffffffffffffffffffffffffffffffffffffff\n      and\n      mul\n      or\n      swap1\n      sstore\n      pop\n        /* \"contracts/PRACTICE/1/Rough_Self_lottery.sol\":888:894  Winner */\n      0x02\n      0x00\n      swap1\n      sload\n      swap1\n      0x0100\n      exp\n      swap1\n      div\n      0xffffffffffffffffffffffffffffffffffffffff\n      and\n        /* \"contracts/PRACTICE/1/Rough_Self_lottery.sol\":888:903  Winner.transfer */\n      0xffffffffffffffffffffffffffffffffffffffff\n      and\n        /* \"contracts/PRACTICE/1/Rough_Self_lottery.sol\":888:915  Winner.transfer(checkBal()) */\n      0x08fc\n        /* \"contracts/PRACTICE/1/Rough_Self_lottery.sol\":904:914  checkBal() */\n      tag_43\n        /* \"contracts/PRACTICE/1/Rough_Self_lottery.sol\":904:912  checkBal */\n      tag_9\n        /* \"contracts/PRACTICE/1/Rough_Self_lottery.sol\":904:914  checkBal() */\n      jump\t// in\n    tag_43:\n        /* \"contracts/PRACTICE/1/Rough_Self_lottery.sol\":888:915  Winner.transfer(checkBal()) */\n      swap1\n      dup2\n      iszero\n      mul\n      swap1\n      mload(0x40)\n      0x00\n      mload(0x40)\n      dup1\n      dup4\n      sub\n      dup2\n      dup6\n      dup9\n      dup9\n      call\n      swap4\n      pop\n      pop\n      pop\n      pop\n      iszero\n      dup1\n      iszero\n      tag_45\n      jumpi\n      returndatacopy(0x00, 0x00, returndatasize)\n      revert(0x00, returndatasize)\n    tag_45:\n      pop\n        /* \"contracts/PRACTICE/1/Rough_Self_lottery.sol\":952:953  0 */\n      0x00\n        /* \"contracts/PRACTICE/1/Rough_Self_lottery.sol\":930:954  new address payable[](0) */\n      0xffffffffffffffff\n      dup2\n      gt\n      iszero\n      tag_46\n      jumpi\n      tag_47\n      tag_48\n      jump\t// in\n    tag_47:\n    tag_46:\n      mload(0x40)\n      swap1\n      dup1\n      dup3\n      mstore\n      dup1\n      0x20\n      mul\n      0x20\n      add\n      dup3\n      add\n      0x40\n      mstore\n      dup1\n      iszero\n      tag_49\n      jumpi\n      dup2\n      0x20\n      add\n      0x20\n      dup3\n      mul\n      dup1\n      calldatasize\n      dup4\n      calldatacopy\n      dup1\n      dup3\n      add\n      swap2\n      pop\n      pop\n      swap1\n      pop\n    tag_49:\n      pop\n        /* \"contracts/PRACTICE/1/Rough_Self_lottery.sol\":922:929  players */\n      0x01\n        /* \"contracts/PRACTICE/1/Rough_Self_lottery.sol\":922:954  players=new address payable[](0) */\n      swap1\n      dup1\n      mload\n      swap1\n      0x20\n      add\n      swap1\n      tag_50\n      swap3\n      swap2\n      swap1\n      tag_51\n      jump\t// in\n    tag_50:\n      pop\n        /* \"contracts/PRACTICE/1/Rough_Self_lottery.sol\":668:983  {... */\n      pop\n      pop\n        /* \"contracts/PRACTICE/1/Rough_Self_lottery.sol\":647:983  function win() public{... */\n      jump\t// out\n        /* \"contracts/PRACTICE/1/Rough_Self_lottery.sol\":492:641  function random() public view returns(uint){... */\n    tag_17:\n        /* \"contracts/PRACTICE/1/Rough_Self_lottery.sol\":530:534  uint */\n      0x00\n        /* \"contracts/PRACTICE/1/Rough_Self_lottery.sol\":583:599  block.prevrandao */\n      prevrandao\n        /* \"contracts/PRACTICE/1/Rough_Self_lottery.sol\":600:615  block.timestamp */\n      timestamp\n        /* \"contracts/PRACTICE/1/Rough_Self_lottery.sol\":616:623  players */\n      0x01\n        /* \"contracts/PRACTICE/1/Rough_Self_lottery.sol\":616:630  players.length */\n      dup1\n      sload\n      swap1\n      pop\n        /* \"contracts/PRACTICE/1/Rough_Self_lottery.sol\":566:631  abi.encodePacked(block.prevrandao,block.timestamp,players.length) */\n      add(0x20, mload(0x40))\n      tag_53\n      swap4\n      swap3\n      swap2\n      swap1\n      tag_54\n      jump\t// in\n    tag_53:\n      mload(0x40)\n      0x20\n      dup2\n      dup4\n      sub\n      sub\n      dup2\n      mstore\n      swap1\n      0x40\n      mstore\n        /* \"contracts/PRACTICE/1/Rough_Self_lottery.sol\":556:632  keccak256(abi.encodePacked(block.prevrandao,block.timestamp,players.length)) */\n      dup1\n      mload\n      swap1\n      0x20\n      add\n      keccak256\n        /* \"contracts/PRACTICE/1/Rough_Self_lottery.sol\":551:633  uint(keccak256(abi.encodePacked(block.prevrandao,block.timestamp,players.length))) */\n      0x00\n      shr\n        /* \"contracts/PRACTICE/1/Rough_Self_lottery.sol\":544:633  return uint(keccak256(abi.encodePacked(block.prevrandao,block.timestamp,players.length))) */\n      swap1\n      pop\n        /* \"contracts/PRACTICE/1/Rough_Self_lottery.sol\":492:641  function random() public view returns(uint){... */\n      swap1\n      jump\t// out\n        /* \"contracts/PRACTICE/1/Rough_Self_lottery.sol\":237:387  function participate() payable public {... */\n    tag_20:\n        /* \"contracts/PRACTICE/1/Rough_Self_lottery.sol\":304:311  100 wei */\n      0x64\n        /* \"contracts/PRACTICE/1/Rough_Self_lottery.sol\":294:303  msg.value */\n      callvalue\n        /* \"contracts/PRACTICE/1/Rough_Self_lottery.sol\":294:311  msg.value>100 wei */\n      gt\n        /* \"contracts/PRACTICE/1/Rough_Self_lottery.sol\":286:335  require(msg.value>100 wei,\"atleast give 100 wei\") */\n      tag_56\n      jumpi\n      mload(0x40)\n      0x08c379a000000000000000000000000000000000000000000000000000000000\n      dup2\n      mstore\n      0x04\n      add\n      tag_57\n      swap1\n      tag_58\n      jump\t// in\n    tag_57:\n      mload(0x40)\n      dup1\n      swap2\n      sub\n      swap1\n      revert\n    tag_56:\n        /* \"contracts/PRACTICE/1/Rough_Self_lottery.sol\":346:353  players */\n      0x01\n        /* \"contracts/PRACTICE/1/Rough_Self_lottery.sol\":367:377  msg.sender */\n      caller\n        /* \"contracts/PRACTICE/1/Rough_Self_lottery.sol\":346:379  players.push(payable(msg.sender)) */\n      swap1\n      dup1\n      0x01\n      dup2\n      sload\n      add\n      dup1\n      dup3\n      sstore\n      dup1\n      swap2\n      pop\n      pop\n      0x01\n      swap1\n      sub\n      swap1\n      0x00\n      mstore\n      keccak256(0x00, 0x20)\n      add\n      0x00\n      swap1\n      swap2\n      swap1\n      swap2\n      swap1\n      swap2\n      0x0100\n      exp\n      dup2\n      sload\n      dup2\n      0xffffffffffffffffffffffffffffffffffffffff\n      mul\n      not\n      and\n      swap1\n      dup4\n      0xffffffffffffffffffffffffffffffffffffffff\n      and\n      mul\n      or\n      swap1\n      sstore\n      pop\n        /* \"contracts/PRACTICE/1/Rough_Self_lottery.sol\":237:387  function participate() payable public {... */\n      jump\t// out\n        /* \"contracts/PRACTICE/1/Rough_Self_lottery.sol\":112:145  address payable [] public players */\n    tag_25:\n      0x01\n      dup2\n      dup2\n      sload\n      dup2\n      lt\n      tag_60\n      jumpi\n      0x00\n      dup1\n      revert\n    tag_60:\n      swap1\n      0x00\n      mstore\n      keccak256(0x00, 0x20)\n      add\n      0x00\n      swap2\n      pop\n      sload\n      swap1\n      0x0100\n      exp\n      swap1\n      div\n      0xffffffffffffffffffffffffffffffffffffffff\n      and\n      dup2\n      jump\t// out\n    tag_51:\n      dup3\n      dup1\n      sload\n      dup3\n      dup3\n      sstore\n      swap1\n      0x00\n      mstore\n      keccak256(0x00, 0x20)\n      swap1\n      dup2\n      add\n      swap3\n      dup3\n      iszero\n      tag_62\n      jumpi\n      swap2\n      0x20\n      mul\n      dup3\n      add\n    tag_63:\n      dup3\n      dup2\n      gt\n      iszero\n      tag_64\n      jumpi\n      dup3\n      mload\n      dup3\n      exp(0x0100, 0x00)\n      dup2\n      sload\n      dup2\n      0xffffffffffffffffffffffffffffffffffffffff\n      mul\n      not\n      and\n      swap1\n      dup4\n      0xffffffffffffffffffffffffffffffffffffffff\n      and\n      mul\n      or\n      swap1\n      sstore\n      pop\n      swap2\n      0x20\n      add\n      swap2\n      swap1\n      0x01\n      add\n      swap1\n      jump(tag_63)\n    tag_64:\n    tag_62:\n      pop\n      swap1\n      pop\n      tag_65\n      swap2\n      swap1\n      tag_66\n      jump\t// in\n    tag_65:\n      pop\n      swap1\n      jump\t// out\n    tag_66:\n    tag_67:\n      dup1\n      dup3\n      gt\n      iszero\n      tag_68\n      jumpi\n      0x00\n      dup2\n      0x00\n      swap1\n      sstore\n      pop\n      0x01\n      add\n      jump(tag_67)\n    tag_68:\n      pop\n      swap1\n      jump\t// out\n        /* \"#utility.yul\":7:84   */\n    tag_69:\n        /* \"#utility.yul\":44:51   */\n      0x00\n        /* \"#utility.yul\":73:78   */\n      dup2\n        /* \"#utility.yul\":62:78   */\n      swap1\n      pop\n        /* \"#utility.yul\":7:84   */\n      swap2\n      swap1\n      pop\n      jump\t// out\n        /* \"#utility.yul\":90:208   */\n    tag_70:\n        /* \"#utility.yul\":177:201   */\n      tag_92\n        /* \"#utility.yul\":195:200   */\n      dup2\n        /* \"#utility.yul\":177:201   */\n      tag_69\n      jump\t// in\n    tag_92:\n        /* \"#utility.yul\":172:175   */\n      dup3\n        /* \"#utility.yul\":165:202   */\n      mstore\n        /* \"#utility.yul\":90:208   */\n      pop\n      pop\n      jump\t// out\n        /* \"#utility.yul\":214:436   */\n    tag_11:\n        /* \"#utility.yul\":307:311   */\n      0x00\n        /* \"#utility.yul\":345:347   */\n      0x20\n        /* \"#utility.yul\":334:343   */\n      dup3\n        /* \"#utility.yul\":330:348   */\n      add\n        /* \"#utility.yul\":322:348   */\n      swap1\n      pop\n        /* \"#utility.yul\":358:429   */\n      tag_94\n        /* \"#utility.yul\":426:427   */\n      0x00\n        /* \"#utility.yul\":415:424   */\n      dup4\n        /* \"#utility.yul\":411:428   */\n      add\n        /* \"#utility.yul\":402:408   */\n      dup5\n        /* \"#utility.yul\":358:429   */\n      tag_70\n      jump\t// in\n    tag_94:\n        /* \"#utility.yul\":214:436   */\n      swap3\n      swap2\n      pop\n      pop\n      jump\t// out\n        /* \"#utility.yul\":523:640   */\n    tag_72:\n        /* \"#utility.yul\":632:633   */\n      0x00\n        /* \"#utility.yul\":629:630   */\n      0x00\n        /* \"#utility.yul\":622:634   */\n      revert\n        /* \"#utility.yul\":769:891   */\n    tag_74:\n        /* \"#utility.yul\":842:866   */\n      tag_99\n        /* \"#utility.yul\":860:865   */\n      dup2\n        /* \"#utility.yul\":842:866   */\n      tag_69\n      jump\t// in\n    tag_99:\n        /* \"#utility.yul\":835:840   */\n      dup2\n        /* \"#utility.yul\":832:867   */\n      eq\n        /* \"#utility.yul\":822:885   */\n      tag_100\n      jumpi\n        /* \"#utility.yul\":881:882   */\n      0x00\n        /* \"#utility.yul\":878:879   */\n      0x00\n        /* \"#utility.yul\":871:883   */\n      revert\n        /* \"#utility.yul\":822:885   */\n    tag_100:\n        /* \"#utility.yul\":769:891   */\n      pop\n      jump\t// out\n        /* \"#utility.yul\":897:1036   */\n    tag_75:\n        /* \"#utility.yul\":943:948   */\n      0x00\n        /* \"#utility.yul\":981:987   */\n      dup2\n        /* \"#utility.yul\":968:988   */\n      calldataload\n        /* \"#utility.yul\":959:988   */\n      swap1\n      pop\n        /* \"#utility.yul\":997:1030   */\n      tag_102\n        /* \"#utility.yul\":1024:1029   */\n      dup2\n        /* \"#utility.yul\":997:1030   */\n      tag_74\n      jump\t// in\n    tag_102:\n        /* \"#utility.yul\":897:1036   */\n      swap3\n      swap2\n      pop\n      pop\n      jump\t// out\n        /* \"#utility.yul\":1042:1371   */\n    tag_24:\n        /* \"#utility.yul\":1101:1107   */\n      0x00\n        /* \"#utility.yul\":1150:1152   */\n      0x20\n        /* \"#utility.yul\":1138:1147   */\n      dup3\n        /* \"#utility.yul\":1129:1136   */\n      dup5\n        /* \"#utility.yul\":1125:1148   */\n      sub\n        /* \"#utility.yul\":1121:1153   */\n      slt\n        /* \"#utility.yul\":1118:1237   */\n      iszero\n      tag_104\n      jumpi\n        /* \"#utility.yul\":1156:1235   */\n      tag_105\n      tag_72\n      jump\t// in\n    tag_105:\n        /* \"#utility.yul\":1118:1237   */\n    tag_104:\n        /* \"#utility.yul\":1276:1277   */\n      0x00\n        /* \"#utility.yul\":1301:1354   */\n      tag_106\n        /* \"#utility.yul\":1346:1353   */\n      dup5\n        /* \"#utility.yul\":1337:1343   */\n      dup3\n        /* \"#utility.yul\":1326:1335   */\n      dup6\n        /* \"#utility.yul\":1322:1344   */\n      add\n        /* \"#utility.yul\":1301:1354   */\n      tag_75\n      jump\t// in\n    tag_106:\n        /* \"#utility.yul\":1291:1354   */\n      swap2\n      pop\n        /* \"#utility.yul\":1247:1364   */\n      pop\n        /* \"#utility.yul\":1042:1371   */\n      swap3\n      swap2\n      pop\n      pop\n      jump\t// out\n        /* \"#utility.yul\":1377:1503   */\n    tag_76:\n        /* \"#utility.yul\":1414:1421   */\n      0x00\n        /* \"#utility.yul\":1454:1496   */\n      0xffffffffffffffffffffffffffffffffffffffff\n        /* \"#utility.yul\":1447:1452   */\n      dup3\n        /* \"#utility.yul\":1443:1497   */\n      and\n        /* \"#utility.yul\":1432:1497   */\n      swap1\n      pop\n        /* \"#utility.yul\":1377:1503   */\n      swap2\n      swap1\n      pop\n      jump\t// out\n        /* \"#utility.yul\":1509:1613   */\n    tag_77:\n        /* \"#utility.yul\":1554:1561   */\n      0x00\n        /* \"#utility.yul\":1583:1607   */\n      tag_109\n        /* \"#utility.yul\":1601:1606   */\n      dup3\n        /* \"#utility.yul\":1583:1607   */\n      tag_76\n      jump\t// in\n    tag_109:\n        /* \"#utility.yul\":1572:1607   */\n      swap1\n      pop\n        /* \"#utility.yul\":1509:1613   */\n      swap2\n      swap1\n      pop\n      jump\t// out\n        /* \"#utility.yul\":1619:1761   */\n    tag_78:\n        /* \"#utility.yul\":1722:1754   */\n      tag_111\n        /* \"#utility.yul\":1748:1753   */\n      dup2\n        /* \"#utility.yul\":1722:1754   */\n      tag_77\n      jump\t// in\n    tag_111:\n        /* \"#utility.yul\":1717:1720   */\n      dup3\n        /* \"#utility.yul\":1710:1755   */\n      mstore\n        /* \"#utility.yul\":1619:1761   */\n      pop\n      pop\n      jump\t// out\n        /* \"#utility.yul\":1767:2021   */\n    tag_27:\n        /* \"#utility.yul\":1876:1880   */\n      0x00\n        /* \"#utility.yul\":1914:1916   */\n      0x20\n        /* \"#utility.yul\":1903:1912   */\n      dup3\n        /* \"#utility.yul\":1899:1917   */\n      add\n        /* \"#utility.yul\":1891:1917   */\n      swap1\n      pop\n        /* \"#utility.yul\":1927:2014   */\n      tag_113\n        /* \"#utility.yul\":2011:2012   */\n      0x00\n        /* \"#utility.yul\":2000:2009   */\n      dup4\n        /* \"#utility.yul\":1996:2013   */\n      add\n        /* \"#utility.yul\":1987:1993   */\n      dup5\n        /* \"#utility.yul\":1927:2014   */\n      tag_78\n      jump\t// in\n    tag_113:\n        /* \"#utility.yul\":1767:2021   */\n      swap3\n      swap2\n      pop\n      pop\n      jump\t// out\n        /* \"#utility.yul\":2027:2196   */\n    tag_79:\n        /* \"#utility.yul\":2111:2122   */\n      0x00\n        /* \"#utility.yul\":2145:2151   */\n      dup3\n        /* \"#utility.yul\":2140:2143   */\n      dup3\n        /* \"#utility.yul\":2133:2152   */\n      mstore\n        /* \"#utility.yul\":2185:2189   */\n      0x20\n        /* \"#utility.yul\":2180:2183   */\n      dup3\n        /* \"#utility.yul\":2176:2190   */\n      add\n        /* \"#utility.yul\":2161:2190   */\n      swap1\n      pop\n        /* \"#utility.yul\":2027:2196   */\n      swap3\n      swap2\n      pop\n      pop\n      jump\t// out\n        /* \"#utility.yul\":2202:2375   */\n    tag_80:\n        /* \"#utility.yul\":2342:2367   */\n      0x796f7520617265206e6f7420746865206d616e61676572000000000000000000\n        /* \"#utility.yul\":2338:2339   */\n      0x00\n        /* \"#utility.yul\":2330:2336   */\n      dup3\n        /* \"#utility.yul\":2326:2340   */\n      add\n        /* \"#utility.yul\":2319:2368   */\n      mstore\n        /* \"#utility.yul\":2202:2375   */\n      pop\n      jump\t// out\n        /* \"#utility.yul\":2381:2747   */\n    tag_81:\n        /* \"#utility.yul\":2523:2526   */\n      0x00\n        /* \"#utility.yul\":2544:2611   */\n      tag_117\n        /* \"#utility.yul\":2608:2610   */\n      0x17\n        /* \"#utility.yul\":2603:2606   */\n      dup4\n        /* \"#utility.yul\":2544:2611   */\n      tag_79\n      jump\t// in\n    tag_117:\n        /* \"#utility.yul\":2537:2611   */\n      swap2\n      pop\n        /* \"#utility.yul\":2620:2713   */\n      tag_118\n        /* \"#utility.yul\":2709:2712   */\n      dup3\n        /* \"#utility.yul\":2620:2713   */\n      tag_80\n      jump\t// in\n    tag_118:\n        /* \"#utility.yul\":2738:2740   */\n      0x20\n        /* \"#utility.yul\":2733:2736   */\n      dup3\n        /* \"#utility.yul\":2729:2741   */\n      add\n        /* \"#utility.yul\":2722:2741   */\n      swap1\n      pop\n        /* \"#utility.yul\":2381:2747   */\n      swap2\n      swap1\n      pop\n      jump\t// out\n        /* \"#utility.yul\":2753:3172   */\n    tag_32:\n        /* \"#utility.yul\":2919:2923   */\n      0x00\n        /* \"#utility.yul\":2957:2959   */\n      0x20\n        /* \"#utility.yul\":2946:2955   */\n      dup3\n        /* \"#utility.yul\":2942:2960   */\n      add\n        /* \"#utility.yul\":2934:2960   */\n      swap1\n      pop\n        /* \"#utility.yul\":3006:3015   */\n      dup2\n        /* \"#utility.yul\":3000:3004   */\n      dup2\n        /* \"#utility.yul\":2996:3016   */\n      sub\n        /* \"#utility.yul\":2992:2993   */\n      0x00\n        /* \"#utility.yul\":2981:2990   */\n      dup4\n        /* \"#utility.yul\":2977:2994   */\n      add\n        /* \"#utility.yul\":2970:3017   */\n      mstore\n        /* \"#utility.yul\":3034:3165   */\n      tag_120\n        /* \"#utility.yul\":3160:3164   */\n      dup2\n        /* \"#utility.yul\":3034:3165   */\n      tag_81\n      jump\t// in\n    tag_120:\n        /* \"#utility.yul\":3026:3165   */\n      swap1\n      pop\n        /* \"#utility.yul\":2753:3172   */\n      swap2\n      swap1\n      pop\n      jump\t// out\n        /* \"#utility.yul\":3178:3346   */\n    tag_82:\n        /* \"#utility.yul\":3318:3338   */\n      0x6e6f7420656e6f75676820706c61796572730000000000000000000000000000\n        /* \"#utility.yul\":3314:3315   */\n      0x00\n        /* \"#utility.yul\":3306:3312   */\n      dup3\n        /* \"#utility.yul\":3302:3316   */\n      add\n        /* \"#utility.yul\":3295:3339   */\n      mstore\n        /* \"#utility.yul\":3178:3346   */\n      pop\n      jump\t// out\n        /* \"#utility.yul\":3352:3718   */\n    tag_83:\n        /* \"#utility.yul\":3494:3497   */\n      0x00\n        /* \"#utility.yul\":3515:3582   */\n      tag_123\n        /* \"#utility.yul\":3579:3581   */\n      0x12\n        /* \"#utility.yul\":3574:3577   */\n      dup4\n        /* \"#utility.yul\":3515:3582   */\n      tag_79\n      jump\t// in\n    tag_123:\n        /* \"#utility.yul\":3508:3582   */\n      swap2\n      pop\n        /* \"#utility.yul\":3591:3684   */\n      tag_124\n        /* \"#utility.yul\":3680:3683   */\n      dup3\n        /* \"#utility.yul\":3591:3684   */\n      tag_82\n      jump\t// in\n    tag_124:\n        /* \"#utility.yul\":3709:3711   */\n      0x20\n        /* \"#utility.yul\":3704:3707   */\n      dup3\n        /* \"#utility.yul\":3700:3712   */\n      add\n        /* \"#utility.yul\":3693:3712   */\n      swap1\n      pop\n        /* \"#utility.yul\":3352:3718   */\n      swap2\n      swap1\n      pop\n      jump\t// out\n        /* \"#utility.yul\":3724:4143   */\n    tag_35:\n        /* \"#utility.yul\":3890:3894   */\n      0x00\n        /* \"#utility.yul\":3928:3930   */\n      0x20\n        /* \"#utility.yul\":3917:3926   */\n      dup3\n        /* \"#utility.yul\":3913:3931   */\n      add\n        /* \"#utility.yul\":3905:3931   */\n      swap1\n      pop\n        /* \"#utility.yul\":3977:3986   */\n      dup2\n        /* \"#utility.yul\":3971:3975   */\n      dup2\n        /* \"#utility.yul\":3967:3987   */\n      sub\n        /* \"#utility.yul\":3963:3964   */\n      0x00\n        /* \"#utility.yul\":3952:3961   */\n      dup4\n        /* \"#utility.yul\":3948:3965   */\n      add\n        /* \"#utility.yul\":3941:3988   */\n      mstore\n        /* \"#utility.yul\":4005:4136   */\n      tag_126\n        /* \"#utility.yul\":4131:4135   */\n      dup2\n        /* \"#utility.yul\":4005:4136   */\n      tag_83\n      jump\t// in\n    tag_126:\n        /* \"#utility.yul\":3997:4136   */\n      swap1\n      pop\n        /* \"#utility.yul\":3724:4143   */\n      swap2\n      swap1\n      pop\n      jump\t// out\n        /* \"#utility.yul\":4149:4329   */\n    tag_84:\n        /* \"#utility.yul\":4197:4274   */\n      0x4e487b7100000000000000000000000000000000000000000000000000000000\n        /* \"#utility.yul\":4194:4195   */\n      0x00\n        /* \"#utility.yul\":4187:4275   */\n      mstore\n        /* \"#utility.yul\":4294:4298   */\n      0x12\n        /* \"#utility.yul\":4291:4292   */\n      0x04\n        /* \"#utility.yul\":4284:4299   */\n      mstore\n        /* \"#utility.yul\":4318:4322   */\n      0x24\n        /* \"#utility.yul\":4315:4316   */\n      0x00\n        /* \"#utility.yul\":4308:4323   */\n      revert\n        /* \"#utility.yul\":4335:4511   */\n    tag_38:\n        /* \"#utility.yul\":4367:4368   */\n      0x00\n        /* \"#utility.yul\":4384:4404   */\n      tag_129\n        /* \"#utility.yul\":4402:4403   */\n      dup3\n        /* \"#utility.yul\":4384:4404   */\n      tag_69\n      jump\t// in\n    tag_129:\n        /* \"#utility.yul\":4379:4404   */\n      swap2\n      pop\n        /* \"#utility.yul\":4418:4438   */\n      tag_130\n        /* \"#utility.yul\":4436:4437   */\n      dup4\n        /* \"#utility.yul\":4418:4438   */\n      tag_69\n      jump\t// in\n    tag_130:\n        /* \"#utility.yul\":4413:4438   */\n      swap3\n      pop\n        /* \"#utility.yul\":4457:4458   */\n      dup3\n        /* \"#utility.yul\":4447:4482   */\n      tag_131\n      jumpi\n        /* \"#utility.yul\":4462:4480   */\n      tag_132\n      tag_84\n      jump\t// in\n    tag_132:\n        /* \"#utility.yul\":4447:4482   */\n    tag_131:\n        /* \"#utility.yul\":4503:4504   */\n      dup3\n        /* \"#utility.yul\":4500:4501   */\n      dup3\n        /* \"#utility.yul\":4496:4505   */\n      mod\n        /* \"#utility.yul\":4491:4505   */\n      swap1\n      pop\n        /* \"#utility.yul\":4335:4511   */\n      swap3\n      swap2\n      pop\n      pop\n      jump\t// out\n        /* \"#utility.yul\":4517:4697   */\n    tag_41:\n        /* \"#utility.yul\":4565:4642   */\n      0x4e487b7100000000000000000000000000000000000000000000000000000000\n        /* \"#utility.yul\":4562:4563   */\n      0x00\n        /* \"#utility.yul\":4555:4643   */\n      mstore\n        /* \"#utility.yul\":4662:4666   */\n      0x32\n        /* \"#utility.yul\":4659:4660   */\n      0x04\n        /* \"#utility.yul\":4652:4667   */\n      mstore\n        /* \"#utility.yul\":4686:4690   */\n      0x24\n        /* \"#utility.yul\":4683:4684   */\n      0x00\n        /* \"#utility.yul\":4676:4691   */\n      revert\n        /* \"#utility.yul\":4703:4883   */\n    tag_48:\n        /* \"#utility.yul\":4751:4828   */\n      0x4e487b7100000000000000000000000000000000000000000000000000000000\n        /* \"#utility.yul\":4748:4749   */\n      0x00\n        /* \"#utility.yul\":4741:4829   */\n      mstore\n        /* \"#utility.yul\":4848:4852   */\n      0x41\n        /* \"#utility.yul\":4845:4846   */\n      0x04\n        /* \"#utility.yul\":4838:4853   */\n      mstore\n        /* \"#utility.yul\":4872:4876   */\n      0x24\n        /* \"#utility.yul\":4869:4870   */\n      0x00\n        /* \"#utility.yul\":4862:4877   */\n      revert\n        /* \"#utility.yul\":4889:4968   */\n    tag_85:\n        /* \"#utility.yul\":4928:4935   */\n      0x00\n        /* \"#utility.yul\":4957:4962   */\n      dup2\n        /* \"#utility.yul\":4946:4962   */\n      swap1\n      pop\n        /* \"#utility.yul\":4889:4968   */\n      swap2\n      swap1\n      pop\n      jump\t// out\n        /* \"#utility.yul\":4974:5131   */\n    tag_86:\n        /* \"#utility.yul\":5079:5124   */\n      tag_137\n        /* \"#utility.yul\":5099:5123   */\n      tag_138\n        /* \"#utility.yul\":5117:5122   */\n      dup3\n        /* \"#utility.yul\":5099:5123   */\n      tag_69\n      jump\t// in\n    tag_138:\n        /* \"#utility.yul\":5079:5124   */\n      tag_85\n      jump\t// in\n    tag_137:\n        /* \"#utility.yul\":5074:5077   */\n      dup3\n        /* \"#utility.yul\":5067:5125   */\n      mstore\n        /* \"#utility.yul\":4974:5131   */\n      pop\n      pop\n      jump\t// out\n        /* \"#utility.yul\":5137:5675   */\n    tag_54:\n        /* \"#utility.yul\":5305:5308   */\n      0x00\n        /* \"#utility.yul\":5320:5395   */\n      tag_140\n        /* \"#utility.yul\":5391:5394   */\n      dup3\n        /* \"#utility.yul\":5382:5388   */\n      dup7\n        /* \"#utility.yul\":5320:5395   */\n      tag_86\n      jump\t// in\n    tag_140:\n        /* \"#utility.yul\":5420:5422   */\n      0x20\n        /* \"#utility.yul\":5415:5418   */\n      dup3\n        /* \"#utility.yul\":5411:5423   */\n      add\n        /* \"#utility.yul\":5404:5423   */\n      swap2\n      pop\n        /* \"#utility.yul\":5433:5508   */\n      tag_141\n        /* \"#utility.yul\":5504:5507   */\n      dup3\n        /* \"#utility.yul\":5495:5501   */\n      dup6\n        /* \"#utility.yul\":5433:5508   */\n      tag_86\n      jump\t// in\n    tag_141:\n        /* \"#utility.yul\":5533:5535   */\n      0x20\n        /* \"#utility.yul\":5528:5531   */\n      dup3\n        /* \"#utility.yul\":5524:5536   */\n      add\n        /* \"#utility.yul\":5517:5536   */\n      swap2\n      pop\n        /* \"#utility.yul\":5546:5621   */\n      tag_142\n        /* \"#utility.yul\":5617:5620   */\n      dup3\n        /* \"#utility.yul\":5608:5614   */\n      dup5\n        /* \"#utility.yul\":5546:5621   */\n      tag_86\n      jump\t// in\n    tag_142:\n        /* \"#utility.yul\":5646:5648   */\n      0x20\n        /* \"#utility.yul\":5641:5644   */\n      dup3\n        /* \"#utility.yul\":5637:5649   */\n      add\n        /* \"#utility.yul\":5630:5649   */\n      swap2\n      pop\n        /* \"#utility.yul\":5666:5669   */\n      dup2\n        /* \"#utility.yul\":5659:5669   */\n      swap1\n      pop\n        /* \"#utility.yul\":5137:5675   */\n      swap5\n      swap4\n      pop\n      pop\n      pop\n      pop\n      jump\t// out\n        /* \"#utility.yul\":5681:5851   */\n    tag_87:\n        /* \"#utility.yul\":5821:5843   */\n      0x61746c6561737420676976652031303020776569000000000000000000000000\n        /* \"#utility.yul\":5817:5818   */\n      0x00\n        /* \"#utility.yul\":5809:5815   */\n      dup3\n        /* \"#utility.yul\":5805:5819   */\n      add\n        /* \"#utility.yul\":5798:5844   */\n      mstore\n        /* \"#utility.yul\":5681:5851   */\n      pop\n      jump\t// out\n        /* \"#utility.yul\":5857:6223   */\n    tag_88:\n        /* \"#utility.yul\":5999:6002   */\n      0x00\n        /* \"#utility.yul\":6020:6087   */\n      tag_145\n        /* \"#utility.yul\":6084:6086   */\n      0x14\n        /* \"#utility.yul\":6079:6082   */\n      dup4\n        /* \"#utility.yul\":6020:6087   */\n      tag_79\n      jump\t// in\n    tag_145:\n        /* \"#utility.yul\":6013:6087   */\n      swap2\n      pop\n        /* \"#utility.yul\":6096:6189   */\n      tag_146\n        /* \"#utility.yul\":6185:6188   */\n      dup3\n        /* \"#utility.yul\":6096:6189   */\n      tag_87\n      jump\t// in\n    tag_146:\n        /* \"#utility.yul\":6214:6216   */\n      0x20\n        /* \"#utility.yul\":6209:6212   */\n      dup3\n        /* \"#utility.yul\":6205:6217   */\n      add\n        /* \"#utility.yul\":6198:6217   */\n      swap1\n      pop\n        /* \"#utility.yul\":5857:6223   */\n      swap2\n      swap1\n      pop\n      jump\t// out\n        /* \"#utility.yul\":6229:6648   */\n    tag_58:\n        /* \"#utility.yul\":6395:6399   */\n      0x00\n        /* \"#utility.yul\":6433:6435   */\n      0x20\n        /* \"#utility.yul\":6422:6431   */\n      dup3\n        /* \"#utility.yul\":6418:6436   */\n      add\n        /* \"#utility.yul\":6410:6436   */\n      swap1\n      pop\n        /* \"#utility.yul\":6482:6491   */\n      dup2\n        /* \"#utility.yul\":6476:6480   */\n      dup2\n        /* \"#utility.yul\":6472:6492   */\n      sub\n        /* \"#utility.yul\":6468:6469   */\n      0x00\n        /* \"#utility.yul\":6457:6466   */\n      dup4\n        /* \"#utility.yul\":6453:6470   */\n      add\n        /* \"#utility.yul\":6446:6493   */\n      mstore\n        /* \"#utility.yul\":6510:6641   */\n      tag_148\n        /* \"#utility.yul\":6636:6640   */\n      dup2\n        /* \"#utility.yul\":6510:6641   */\n      tag_88\n      jump\t// in\n    tag_148:\n        /* \"#utility.yul\":6502:6641   */\n      swap1\n      pop\n        /* \"#utility.yul\":6229:6648   */\n      swap2\n      swap1\n      pop\n      jump\t// out\n\n    auxdata: 0xa264697066735822122028f45c0fafc3343ac588adea418cbd0f26182985313350578641926428e2244764736f6c634300081c0033\n}\n",
				"bytecode": {
					"linkReferences": {},
					"object": "6080604052348015600e575f5ffd5b50335f5f6101000a81548173ffffffffffffffffffffffffffffffffffffffff021916908373ffffffffffffffffffffffffffffffffffffffff1602179055506108708061005b5f395ff3fe608060405260043610610049575f3560e01c80632058ad6b1461004d578063473ca96c146100775780635ec01e4d1461008d578063d11711a2146100b7578063f71d96cb146100c1575b5f5ffd5b348015610058575f5ffd5b506100616100fd565b60405161006e9190610515565b60405180910390f35b348015610082575f5ffd5b5061008b610104565b005b348015610098575f5ffd5b506100a1610343565b6040516100ae9190610515565b60405180910390f35b6100bf61037b565b005b3480156100cc575f5ffd5b506100e760048036038101906100e2919061055c565b610420565b6040516100f491906105c6565b60405180910390f35b5f47905090565b3373ffffffffffffffffffffffffffffffffffffffff165f5f9054906101000a900473ffffffffffffffffffffffffffffffffffffffff1673ffffffffffffffffffffffffffffffffffffffff1614610192576040517f08c379a000000000000000000000000000000000000000000000000000000000815260040161018990610639565b60405180910390fd5b6003600180549050116101da576040517f08c379a00000000000000000000000000000000000000000000000000000000081526004016101d1906106a1565b60405180910390fd5b5f6101e3610343565b90505f600180549050826101f791906106ec565b90506001818154811061020d5761020c61071c565b5b905f5260205f20015f9054906101000a900473ffffffffffffffffffffffffffffffffffffffff1660025f6101000a81548173ffffffffffffffffffffffffffffffffffffffff021916908373ffffffffffffffffffffffffffffffffffffffff16021790555060025f9054906101000a900473ffffffffffffffffffffffffffffffffffffffff1673ffffffffffffffffffffffffffffffffffffffff166108fc6102b76100fd565b90811502906040515f60405180830381858888f193505050501580156102df573d5f5f3e3d5ffd5b505f67ffffffffffffffff8111156102fa576102f9610749565b5b6040519080825280602002602001820160405280156103285781602001602082028036833780820191505090505b506001908051906020019061033e92919061045b565b505050565b5f444260018054905060405160200161035e93929190610796565b604051602081830303815290604052805190602001205f1c905090565b606434116103be576040517f08c379a00000000000000000000000000000000000000000000000000000000081526004016103b59061081c565b60405180910390fd5b600133908060018154018082558091505060019003905f5260205f20015f9091909190916101000a81548173ffffffffffffffffffffffffffffffffffffffff021916908373ffffffffffffffffffffffffffffffffffffffff160217905550565b6001818154811061042f575f80fd5b905f5260205f20015f915054906101000a900473ffffffffffffffffffffffffffffffffffffffff1681565b828054828255905f5260205f209081019282156104d1579160200282015b828111156104d0578251825f6101000a81548173ffffffffffffffffffffffffffffffffffffffff021916908373ffffffffffffffffffffffffffffffffffffffff16021790555091602001919060010190610479565b5b5090506104de91906104e2565b5090565b5b808211156104f9575f815f9055506001016104e3565b5090565b5f819050919050565b61050f816104fd565b82525050565b5f6020820190506105285f830184610506565b92915050565b5f5ffd5b61053b816104fd565b8114610545575f5ffd5b50565b5f8135905061055681610532565b92915050565b5f602082840312156105715761057061052e565b5b5f61057e84828501610548565b91505092915050565b5f73ffffffffffffffffffffffffffffffffffffffff82169050919050565b5f6105b082610587565b9050919050565b6105c0816105a6565b82525050565b5f6020820190506105d95f8301846105b7565b92915050565b5f82825260208201905092915050565b7f796f7520617265206e6f7420746865206d616e616765720000000000000000005f82015250565b5f6106236017836105df565b915061062e826105ef565b602082019050919050565b5f6020820190508181035f83015261065081610617565b9050919050565b7f6e6f7420656e6f75676820706c617965727300000000000000000000000000005f82015250565b5f61068b6012836105df565b915061069682610657565b602082019050919050565b5f6020820190508181035f8301526106b88161067f565b9050919050565b7f4e487b71000000000000000000000000000000000000000000000000000000005f52601260045260245ffd5b5f6106f6826104fd565b9150610701836104fd565b925082610711576107106106bf565b5b828206905092915050565b7f4e487b71000000000000000000000000000000000000000000000000000000005f52603260045260245ffd5b7f4e487b71000000000000000000000000000000000000000000000000000000005f52604160045260245ffd5b5f819050919050565b61079061078b826104fd565b610776565b82525050565b5f6107a1828661077f565b6020820191506107b1828561077f565b6020820191506107c1828461077f565b602082019150819050949350505050565b7f61746c65617374206769766520313030207765690000000000000000000000005f82015250565b5f6108066014836105df565b9150610811826107d2565b602082019050919050565b5f6020820190508181035f830152610833816107fa565b905091905056fea264697066735822122028f45c0fafc3343ac588adea418cbd0f26182985313350578641926428e2244764736f6c634300081c0033",
					"opcodes": "PUSH1 0x80 PUSH1 0x40 MSTORE CALLVALUE DUP1 ISZERO PUSH1 0xE JUMPI PUSH0 PUSH0 REVERT JUMPDEST POP CALLER PUSH0 PUSH0 PUSH2 0x100 EXP DUP2 SLOAD DUP2 PUSH20 0xFFFFFFFFFFFFFFFFFFFFFFFFFFFFFFFFFFFFFFFF MUL NOT AND SWAP1 DUP4 PUSH20 0xFFFFFFFFFFFFFFFFFFFFFFFFFFFFFFFFFFFFFFFF AND MUL OR SWAP1 SSTORE POP PUSH2 0x870 DUP1 PUSH2 0x5B PUSH0 CODECOPY PUSH0 RETURN INVALID PUSH1 0x80 PUSH1 0x40 MSTORE PUSH1 0x4 CALLDATASIZE LT PUSH2 0x49 JUMPI PUSH0 CALLDATALOAD PUSH1 0xE0 SHR DUP1 PUSH4 0x2058AD6B EQ PUSH2 0x4D JUMPI DUP1 PUSH4 0x473CA96C EQ PUSH2 0x77 JUMPI DUP1 PUSH4 0x5EC01E4D EQ PUSH2 0x8D JUMPI DUP1 PUSH4 0xD11711A2 EQ PUSH2 0xB7 JUMPI DUP1 PUSH4 0xF71D96CB EQ PUSH2 0xC1 JUMPI JUMPDEST PUSH0 PUSH0 REVERT JUMPDEST CALLVALUE DUP1 ISZERO PUSH2 0x58 JUMPI PUSH0 PUSH0 REVERT JUMPDEST POP PUSH2 0x61 PUSH2 0xFD JUMP JUMPDEST PUSH1 0x40 MLOAD PUSH2 0x6E SWAP2 SWAP1 PUSH2 0x515 JUMP JUMPDEST PUSH1 0x40 MLOAD DUP1 SWAP2 SUB SWAP1 RETURN JUMPDEST CALLVALUE DUP1 ISZERO PUSH2 0x82 JUMPI PUSH0 PUSH0 REVERT JUMPDEST POP PUSH2 0x8B PUSH2 0x104 JUMP JUMPDEST STOP JUMPDEST CALLVALUE DUP1 ISZERO PUSH2 0x98 JUMPI PUSH0 PUSH0 REVERT JUMPDEST POP PUSH2 0xA1 PUSH2 0x343 JUMP JUMPDEST PUSH1 0x40 MLOAD PUSH2 0xAE SWAP2 SWAP1 PUSH2 0x515 JUMP JUMPDEST PUSH1 0x40 MLOAD DUP1 SWAP2 SUB SWAP1 RETURN JUMPDEST PUSH2 0xBF PUSH2 0x37B JUMP JUMPDEST STOP JUMPDEST CALLVALUE DUP1 ISZERO PUSH2 0xCC JUMPI PUSH0 PUSH0 REVERT JUMPDEST POP PUSH2 0xE7 PUSH1 0x4 DUP1 CALLDATASIZE SUB DUP2 ADD SWAP1 PUSH2 0xE2 SWAP2 SWAP1 PUSH2 0x55C JUMP JUMPDEST PUSH2 0x420 JUMP JUMPDEST PUSH1 0x40 MLOAD PUSH2 0xF4 SWAP2 SWAP1 PUSH2 0x5C6 JUMP JUMPDEST PUSH1 0x40 MLOAD DUP1 SWAP2 SUB SWAP1 RETURN JUMPDEST PUSH0 SELFBALANCE SWAP1 POP SWAP1 JUMP JUMPDEST CALLER PUSH20 0xFFFFFFFFFFFFFFFFFFFFFFFFFFFFFFFFFFFFFFFF AND PUSH0 PUSH0 SWAP1 SLOAD SWAP1 PUSH2 0x100 EXP SWAP1 DIV PUSH20 0xFFFFFFFFFFFFFFFFFFFFFFFFFFFFFFFFFFFFFFFF AND PUSH20 0xFFFFFFFFFFFFFFFFFFFFFFFFFFFFFFFFFFFFFFFF AND EQ PUSH2 0x192 JUMPI PUSH1 0x40 MLOAD PUSH32 0x8C379A000000000000000000000000000000000000000000000000000000000 DUP2 MSTORE PUSH1 0x4 ADD PUSH2 0x189 SWAP1 PUSH2 0x639 JUMP JUMPDEST PUSH1 0x40 MLOAD DUP1 SWAP2 SUB SWAP1 REVERT JUMPDEST PUSH1 0x3 PUSH1 0x1 DUP1 SLOAD SWAP1 POP GT PUSH2 0x1DA JUMPI PUSH1 0x40 MLOAD PUSH32 0x8C379A000000000000000000000000000000000000000000000000000000000 DUP2 MSTORE PUSH1 0x4 ADD PUSH2 0x1D1 SWAP1 PUSH2 0x6A1 JUMP JUMPDEST PUSH1 0x40 MLOAD DUP1 SWAP2 SUB SWAP1 REVERT JUMPDEST PUSH0 PUSH2 0x1E3 PUSH2 0x343 JUMP JUMPDEST SWAP1 POP PUSH0 PUSH1 0x1 DUP1 SLOAD SWAP1 POP DUP3 PUSH2 0x1F7 SWAP2 SWAP1 PUSH2 0x6EC JUMP JUMPDEST SWAP1 POP PUSH1 0x1 DUP2 DUP2 SLOAD DUP2 LT PUSH2 0x20D JUMPI PUSH2 0x20C PUSH2 0x71C JUMP JUMPDEST JUMPDEST SWAP1 PUSH0 MSTORE PUSH1 0x20 PUSH0 KECCAK256 ADD PUSH0 SWAP1 SLOAD SWAP1 PUSH2 0x100 EXP SWAP1 DIV PUSH20 0xFFFFFFFFFFFFFFFFFFFFFFFFFFFFFFFFFFFFFFFF AND PUSH1 0x2 PUSH0 PUSH2 0x100 EXP DUP2 SLOAD DUP2 PUSH20 0xFFFFFFFFFFFFFFFFFFFFFFFFFFFFFFFFFFFFFFFF MUL NOT AND SWAP1 DUP4 PUSH20 0xFFFFFFFFFFFFFFFFFFFFFFFFFFFFFFFFFFFFFFFF AND MUL OR SWAP1 SSTORE POP PUSH1 0x2 PUSH0 SWAP1 SLOAD SWAP1 PUSH2 0x100 EXP SWAP1 DIV PUSH20 0xFFFFFFFFFFFFFFFFFFFFFFFFFFFFFFFFFFFFFFFF AND PUSH20 0xFFFFFFFFFFFFFFFFFFFFFFFFFFFFFFFFFFFFFFFF AND PUSH2 0x8FC PUSH2 0x2B7 PUSH2 0xFD JUMP JUMPDEST SWAP1 DUP2 ISZERO MUL SWAP1 PUSH1 0x40 MLOAD PUSH0 PUSH1 0x40 MLOAD DUP1 DUP4 SUB DUP2 DUP6 DUP9 DUP9 CALL SWAP4 POP POP POP POP ISZERO DUP1 ISZERO PUSH2 0x2DF JUMPI RETURNDATASIZE PUSH0 PUSH0 RETURNDATACOPY RETURNDATASIZE PUSH0 REVERT JUMPDEST POP PUSH0 PUSH8 0xFFFFFFFFFFFFFFFF DUP2 GT ISZERO PUSH2 0x2FA JUMPI PUSH2 0x2F9 PUSH2 0x749 JUMP JUMPDEST JUMPDEST PUSH1 0x40 MLOAD SWAP1 DUP1 DUP3 MSTORE DUP1 PUSH1 0x20 MUL PUSH1 0x20 ADD DUP3 ADD PUSH1 0x40 MSTORE DUP1 ISZERO PUSH2 0x328 JUMPI DUP2 PUSH1 0x20 ADD PUSH1 0x20 DUP3 MUL DUP1 CALLDATASIZE DUP4 CALLDATACOPY DUP1 DUP3 ADD SWAP2 POP POP SWAP1 POP JUMPDEST POP PUSH1 0x1 SWAP1 DUP1 MLOAD SWAP1 PUSH1 0x20 ADD SWAP1 PUSH2 0x33E SWAP3 SWAP2 SWAP1 PUSH2 0x45B JUMP JUMPDEST POP POP POP JUMP JUMPDEST PUSH0 PREVRANDAO TIMESTAMP PUSH1 0x1 DUP1 SLOAD SWAP1 POP PUSH1 0x40 MLOAD PUSH1 0x20 ADD PUSH2 0x35E SWAP4 SWAP3 SWAP2 SWAP1 PUSH2 0x796 JUMP JUMPDEST PUSH1 0x40 MLOAD PUSH1 0x20 DUP2 DUP4 SUB SUB DUP2 MSTORE SWAP1 PUSH1 0x40 MSTORE DUP1 MLOAD SWAP1 PUSH1 0x20 ADD KECCAK256 PUSH0 SHR SWAP1 POP SWAP1 JUMP JUMPDEST PUSH1 0x64 CALLVALUE GT PUSH2 0x3BE JUMPI PUSH1 0x40 MLOAD PUSH32 0x8C379A000000000000000000000000000000000000000000000000000000000 DUP2 MSTORE PUSH1 0x4 ADD PUSH2 0x3B5 SWAP1 PUSH2 0x81C JUMP JUMPDEST PUSH1 0x40 MLOAD DUP1 SWAP2 SUB SWAP1 REVERT JUMPDEST PUSH1 0x1 CALLER SWAP1 DUP1 PUSH1 0x1 DUP2 SLOAD ADD DUP1 DUP3 SSTORE DUP1 SWAP2 POP POP PUSH1 0x1 SWAP1 SUB SWAP1 PUSH0 MSTORE PUSH1 0x20 PUSH0 KECCAK256 ADD PUSH0 SWAP1 SWAP2 SWAP1 SWAP2 SWAP1 SWAP2 PUSH2 0x100 EXP DUP2 SLOAD DUP2 PUSH20 0xFFFFFFFFFFFFFFFFFFFFFFFFFFFFFFFFFFFFFFFF MUL NOT AND SWAP1 DUP4 PUSH20 0xFFFFFFFFFFFFFFFFFFFFFFFFFFFFFFFFFFFFFFFF AND MUL OR SWAP1 SSTORE POP JUMP JUMPDEST PUSH1 0x1 DUP2 DUP2 SLOAD DUP2 LT PUSH2 0x42F JUMPI PUSH0 DUP1 REVERT JUMPDEST SWAP1 PUSH0 MSTORE PUSH1 0x20 PUSH0 KECCAK256 ADD PUSH0 SWAP2 POP SLOAD SWAP1 PUSH2 0x100 EXP SWAP1 DIV PUSH20 0xFFFFFFFFFFFFFFFFFFFFFFFFFFFFFFFFFFFFFFFF AND DUP2 JUMP JUMPDEST DUP3 DUP1 SLOAD DUP3 DUP3 SSTORE SWAP1 PUSH0 MSTORE PUSH1 0x20 PUSH0 KECCAK256 SWAP1 DUP2 ADD SWAP3 DUP3 ISZERO PUSH2 0x4D1 JUMPI SWAP2 PUSH1 0x20 MUL DUP3 ADD JUMPDEST DUP3 DUP2 GT ISZERO PUSH2 0x4D0 JUMPI DUP3 MLOAD DUP3 PUSH0 PUSH2 0x100 EXP DUP2 SLOAD DUP2 PUSH20 0xFFFFFFFFFFFFFFFFFFFFFFFFFFFFFFFFFFFFFFFF MUL NOT AND SWAP1 DUP4 PUSH20 0xFFFFFFFFFFFFFFFFFFFFFFFFFFFFFFFFFFFFFFFF AND MUL OR SWAP1 SSTORE POP SWAP2 PUSH1 0x20 ADD SWAP2 SWAP1 PUSH1 0x1 ADD SWAP1 PUSH2 0x479 JUMP JUMPDEST JUMPDEST POP SWAP1 POP PUSH2 0x4DE SWAP2 SWAP1 PUSH2 0x4E2 JUMP JUMPDEST POP SWAP1 JUMP JUMPDEST JUMPDEST DUP1 DUP3 GT ISZERO PUSH2 0x4F9 JUMPI PUSH0 DUP2 PUSH0 SWAP1 SSTORE POP PUSH1 0x1 ADD PUSH2 0x4E3 JUMP JUMPDEST POP SWAP1 JUMP JUMPDEST PUSH0 DUP2 SWAP1 POP SWAP2 SWAP1 POP JUMP JUMPDEST PUSH2 0x50F DUP2 PUSH2 0x4FD JUMP JUMPDEST DUP3 MSTORE POP POP JUMP JUMPDEST PUSH0 PUSH1 0x20 DUP3 ADD SWAP1 POP PUSH2 0x528 PUSH0 DUP4 ADD DUP5 PUSH2 0x506 JUMP JUMPDEST SWAP3 SWAP2 POP POP JUMP JUMPDEST PUSH0 PUSH0 REVERT JUMPDEST PUSH2 0x53B DUP2 PUSH2 0x4FD JUMP JUMPDEST DUP2 EQ PUSH2 0x545 JUMPI PUSH0 PUSH0 REVERT JUMPDEST POP JUMP JUMPDEST PUSH0 DUP2 CALLDATALOAD SWAP1 POP PUSH2 0x556 DUP2 PUSH2 0x532 JUMP JUMPDEST SWAP3 SWAP2 POP POP JUMP JUMPDEST PUSH0 PUSH1 0x20 DUP3 DUP5 SUB SLT ISZERO PUSH2 0x571 JUMPI PUSH2 0x570 PUSH2 0x52E JUMP JUMPDEST JUMPDEST PUSH0 PUSH2 0x57E DUP5 DUP3 DUP6 ADD PUSH2 0x548 JUMP JUMPDEST SWAP2 POP POP SWAP3 SWAP2 POP POP JUMP JUMPDEST PUSH0 PUSH20 0xFFFFFFFFFFFFFFFFFFFFFFFFFFFFFFFFFFFFFFFF DUP3 AND SWAP1 POP SWAP2 SWAP1 POP JUMP JUMPDEST PUSH0 PUSH2 0x5B0 DUP3 PUSH2 0x587 JUMP JUMPDEST SWAP1 POP SWAP2 SWAP1 POP JUMP JUMPDEST PUSH2 0x5C0 DUP2 PUSH2 0x5A6 JUMP JUMPDEST DUP3 MSTORE POP POP JUMP JUMPDEST PUSH0 PUSH1 0x20 DUP3 ADD SWAP1 POP PUSH2 0x5D9 PUSH0 DUP4 ADD DUP5 PUSH2 0x5B7 JUMP JUMPDEST SWAP3 SWAP2 POP POP JUMP JUMPDEST PUSH0 DUP3 DUP3 MSTORE PUSH1 0x20 DUP3 ADD SWAP1 POP SWAP3 SWAP2 POP POP JUMP JUMPDEST PUSH32 0x796F7520617265206E6F7420746865206D616E61676572000000000000000000 PUSH0 DUP3 ADD MSTORE POP JUMP JUMPDEST PUSH0 PUSH2 0x623 PUSH1 0x17 DUP4 PUSH2 0x5DF JUMP JUMPDEST SWAP2 POP PUSH2 0x62E DUP3 PUSH2 0x5EF JUMP JUMPDEST PUSH1 0x20 DUP3 ADD SWAP1 POP SWAP2 SWAP1 POP JUMP JUMPDEST PUSH0 PUSH1 0x20 DUP3 ADD SWAP1 POP DUP2 DUP2 SUB PUSH0 DUP4 ADD MSTORE PUSH2 0x650 DUP2 PUSH2 0x617 JUMP JUMPDEST SWAP1 POP SWAP2 SWAP1 POP JUMP JUMPDEST PUSH32 0x6E6F7420656E6F75676820706C61796572730000000000000000000000000000 PUSH0 DUP3 ADD MSTORE POP JUMP JUMPDEST PUSH0 PUSH2 0x68B PUSH1 0x12 DUP4 PUSH2 0x5DF JUMP JUMPDEST SWAP2 POP PUSH2 0x696 DUP3 PUSH2 0x657 JUMP JUMPDEST PUSH1 0x20 DUP3 ADD SWAP1 POP SWAP2 SWAP1 POP JUMP JUMPDEST PUSH0 PUSH1 0x20 DUP3 ADD SWAP1 POP DUP2 DUP2 SUB PUSH0 DUP4 ADD MSTORE PUSH2 0x6B8 DUP2 PUSH2 0x67F JUMP JUMPDEST SWAP1 POP SWAP2 SWAP1 POP JUMP JUMPDEST PUSH32 0x4E487B7100000000000000000000000000000000000000000000000000000000 PUSH0 MSTORE PUSH1 0x12 PUSH1 0x4 MSTORE PUSH1 0x24 PUSH0 REVERT JUMPDEST PUSH0 PUSH2 0x6F6 DUP3 PUSH2 0x4FD JUMP JUMPDEST SWAP2 POP PUSH2 0x701 DUP4 PUSH2 0x4FD JUMP JUMPDEST SWAP3 POP DUP3 PUSH2 0x711 JUMPI PUSH2 0x710 PUSH2 0x6BF JUMP JUMPDEST JUMPDEST DUP3 DUP3 MOD SWAP1 POP SWAP3 SWAP2 POP POP JUMP JUMPDEST PUSH32 0x4E487B7100000000000000000000000000000000000000000000000000000000 PUSH0 MSTORE PUSH1 0x32 PUSH1 0x4 MSTORE PUSH1 0x24 PUSH0 REVERT JUMPDEST PUSH32 0x4E487B7100000000000000000000000000000000000000000000000000000000 PUSH0 MSTORE PUSH1 0x41 PUSH1 0x4 MSTORE PUSH1 0x24 PUSH0 REVERT JUMPDEST PUSH0 DUP2 SWAP1 POP SWAP2 SWAP1 POP JUMP JUMPDEST PUSH2 0x790 PUSH2 0x78B DUP3 PUSH2 0x4FD JUMP JUMPDEST PUSH2 0x776 JUMP JUMPDEST DUP3 MSTORE POP POP JUMP JUMPDEST PUSH0 PUSH2 0x7A1 DUP3 DUP7 PUSH2 0x77F JUMP JUMPDEST PUSH1 0x20 DUP3 ADD SWAP2 POP PUSH2 0x7B1 DUP3 DUP6 PUSH2 0x77F JUMP JUMPDEST PUSH1 0x20 DUP3 ADD SWAP2 POP PUSH2 0x7C1 DUP3 DUP5 PUSH2 0x77F JUMP JUMPDEST PUSH1 0x20 DUP3 ADD SWAP2 POP DUP2 SWAP1 POP SWAP5 SWAP4 POP POP POP POP JUMP JUMPDEST PUSH32 0x61746C6561737420676976652031303020776569000000000000000000000000 PUSH0 DUP3 ADD MSTORE POP JUMP JUMPDEST PUSH0 PUSH2 0x806 PUSH1 0x14 DUP4 PUSH2 0x5DF JUMP JUMPDEST SWAP2 POP PUSH2 0x811 DUP3 PUSH2 0x7D2 JUMP JUMPDEST PUSH1 0x20 DUP3 ADD SWAP1 POP SWAP2 SWAP1 POP JUMP JUMPDEST PUSH0 PUSH1 0x20 DUP3 ADD SWAP1 POP DUP2 DUP2 SUB PUSH0 DUP4 ADD MSTORE PUSH2 0x833 DUP2 PUSH2 0x7FA JUMP JUMPDEST SWAP1 POP SWAP2 SWAP1 POP JUMP INVALID LOG2 PUSH5 0x6970667358 0x22 SLT KECCAK256 0x28 DELEGATECALL TLOAD 0xF 0xAF 0xC3 CALLVALUE GASPRICE 0xC5 DUP9 0xAD 0xEA COINBASE DUP13 0xBD 0xF 0x26 XOR 0x29 DUP6 BALANCE CALLER POP JUMPI DUP7 COINBASE SWAP3 PUSH5 0x28E2244764 PUSH20 0x6F6C634300081C00330000000000000000000000 "
				},
				"gasEstimates": {
					"creation": {
						"codeDepositCost": "432000",
						"executionCost": "24730",
						"totalCost": "456730"
					},
					"external": {
						"checkBal()": "312",
						"participate()": "48760",
						"players(uint256)": "5010",
						"random()": "infinite",
						"win()": "infinite"
					}
				},
				"methodIdentifiers": {
					"checkBal()": "2058ad6b",
					"participate()": "d11711a2",
					"players(uint256)": "f71d96cb",
					"random()": "5ec01e4d",
					"win()": "473ca96c"
				}
			},
			"storageLayout": {
				"storage": [
					{
						"astId": 3,
						"contract": "contracts/PRACTICE/1/Rough_Self_lottery.sol:Lottery",
						"label": "manager",
						"offset": 0,
						"slot": "0",
						"type": "t_address"
					},
					{
						"astId": 6,
						"contract": "contracts/PRACTICE/1/Rough_Self_lottery.sol:Lottery",
						"label": "players",
						"offset": 0,
						"slot": "1",
						"type": "t_array(t_address_payable)dyn_storage"
					},
					{
						"astId": 8,
						"contract": "contracts/PRACTICE/1/Rough_Self_lottery.sol:Lottery",
						"label": "Winner",
						"offset": 0,
						"slot": "2",
						"type": "t_address_payable"
					}
				],
				"types": {
					"t_address": {
						"encoding": "inplace",
						"label": "address",
						"numberOfBytes": "20"
					},
					"t_address_payable": {
						"encoding": "inplace",
						"label": "address payable",
						"numberOfBytes": "20"
					},
					"t_array(t_address_payable)dyn_storage": {
						"base": "t_address_payable",
						"encoding": "dynamic_array",
						"label": "address payable[]",
						"numberOfBytes": "32"
					}
				}
			},
			"userdoc": {
				"kind": "user",
				"methods": {},
				"version": 1
			}
		}
	}
}