{
	"contracts/PRACTICE/1(Basic)/Crowdfunding.sol": {
		"Crowdfunding": {
			"abi": [
				{
					"inputs": [
						{
							"internalType": "string",
							"name": "_purpose",
							"type": "string"
						},
						{
							"internalType": "uint256",
							"name": "_deadline",
							"type": "uint256"
						}
					],
					"stateMutability": "nonpayable",
					"type": "constructor"
				},
				{
					"anonymous": false,
					"inputs": [
						{
							"indexed": true,
							"internalType": "address",
							"name": "donator",
							"type": "address"
						},
						{
							"indexed": false,
							"internalType": "uint256",
							"name": "amount",
							"type": "uint256"
						}
					],
					"name": "DonationMade",
					"type": "event"
				},
				{
					"anonymous": false,
					"inputs": [
						{
							"indexed": true,
							"internalType": "address",
							"name": "manager",
							"type": "address"
						},
						{
							"indexed": false,
							"internalType": "uint256",
							"name": "amount",
							"type": "uint256"
						}
					],
					"name": "FundsWithdrawn",
					"type": "event"
				},
				{
					"anonymous": false,
					"inputs": [
						{
							"indexed": false,
							"internalType": "string",
							"name": "newPurpose",
							"type": "string"
						}
					],
					"name": "PurposeUpdated",
					"type": "event"
				},
				{
					"inputs": [],
					"name": "deadline",
					"outputs": [
						{
							"internalType": "uint256",
							"name": "",
							"type": "uint256"
						}
					],
					"stateMutability": "view",
					"type": "function"
				},
				{
					"inputs": [],
					"name": "donate",
					"outputs": [],
					"stateMutability": "payable",
					"type": "function"
				},
				{
					"inputs": [
						{
							"internalType": "address",
							"name": "",
							"type": "address"
						}
					],
					"name": "donators",
					"outputs": [
						{
							"internalType": "uint256",
							"name": "",
							"type": "uint256"
						}
					],
					"stateMutability": "view",
					"type": "function"
				},
				{
					"inputs": [],
					"name": "donatorshistory",
					"outputs": [
						{
							"internalType": "uint256",
							"name": "",
							"type": "uint256"
						}
					],
					"stateMutability": "view",
					"type": "function"
				},
				{
					"inputs": [],
					"name": "getBal",
					"outputs": [
						{
							"internalType": "uint256",
							"name": "",
							"type": "uint256"
						}
					],
					"stateMutability": "view",
					"type": "function"
				},
				{
					"inputs": [],
					"name": "manager",
					"outputs": [
						{
							"internalType": "address",
							"name": "",
							"type": "address"
						}
					],
					"stateMutability": "view",
					"type": "function"
				},
				{
					"inputs": [],
					"name": "noofdonators",
					"outputs": [
						{
							"internalType": "uint256",
							"name": "",
							"type": "uint256"
						}
					],
					"stateMutability": "view",
					"type": "function"
				},
				{
					"inputs": [],
					"name": "purpose",
					"outputs": [
						{
							"internalType": "string",
							"name": "",
							"type": "string"
						}
					],
					"stateMutability": "view",
					"type": "function"
				},
				{
					"inputs": [],
					"name": "returndonators",
					"outputs": [
						{
							"internalType": "uint256",
							"name": "",
							"type": "uint256"
						}
					],
					"stateMutability": "view",
					"type": "function"
				},
				{
					"inputs": [
						{
							"internalType": "string",
							"name": "_newPurpose",
							"type": "string"
						}
					],
					"name": "updatePurpose",
					"outputs": [],
					"stateMutability": "nonpayable",
					"type": "function"
				},
				{
					"inputs": [],
					"name": "withdraw",
					"outputs": [],
					"stateMutability": "nonpayable",
					"type": "function"
				}
			],
			"devdoc": {
				"kind": "dev",
				"methods": {},
				"version": 1
			},
			"evm": {
				"assembly": "    /* \"contracts/PRACTICE/1(Basic)/Crowdfunding.sol\":123:2299  contract Crowdfunding is ReentrancyGuard{... */\n  mstore(0x40, 0x80)\n    /* \"contracts/PRACTICE/1(Basic)/Crowdfunding.sol\":912:1071  constructor(string memory _purpose,uint _deadline){... */\n  callvalue\n  dup1\n  iszero\n  tag_1\n  jumpi\n  revert(0x00, 0x00)\ntag_1:\n  pop\n  mload(0x40)\n  sub(codesize, bytecodeSize)\n  dup1\n  bytecodeSize\n  dup4\n  codecopy\n  dup2\n  dup2\n  add\n  0x40\n  mstore\n  dup2\n  add\n  swap1\n  tag_2\n  swap2\n  swap1\n  tag_3\n  jump\t// in\ntag_2:\n    /* \"@openzeppelin/contracts/security/ReentrancyGuard.sol\":1716:1717  1 */\n  0x01\n    /* \"@openzeppelin/contracts/security/ReentrancyGuard.sol\":1821:1828  _status */\n  0x00\n    /* \"@openzeppelin/contracts/security/ReentrancyGuard.sol\":1821:1843  _status = _NOT_ENTERED */\n  dup2\n  swap1\n  sstore\n  pop\n    /* \"contracts/PRACTICE/1(Basic)/Crowdfunding.sol\":981:991  msg.sender */\n  caller\n    /* \"contracts/PRACTICE/1(Basic)/Crowdfunding.sol\":973:980  manager */\n  0x01\n  0x00\n    /* \"contracts/PRACTICE/1(Basic)/Crowdfunding.sol\":973:991  manager=msg.sender */\n  0x0100\n  exp\n  dup2\n  sload\n  dup2\n  0xffffffffffffffffffffffffffffffffffffffff\n  mul\n  not\n  and\n  swap1\n  dup4\n  0xffffffffffffffffffffffffffffffffffffffff\n  and\n  mul\n  or\n  swap1\n  sstore\n  pop\n    /* \"contracts/PRACTICE/1(Basic)/Crowdfunding.sol\":1010:1018  _purpose */\n  dup2\n    /* \"contracts/PRACTICE/1(Basic)/Crowdfunding.sol\":1002:1009  purpose */\n  0x02\n    /* \"contracts/PRACTICE/1(Basic)/Crowdfunding.sol\":1002:1018  purpose=_purpose */\n  swap1\n  dup2\n  tag_8\n  swap2\n  swap1\n  tag_9\n  jump\t// in\ntag_8:\n  pop\n    /* \"contracts/PRACTICE/1(Basic)/Crowdfunding.sol\":1054:1063  _deadline */\n  dup1\n    /* \"contracts/PRACTICE/1(Basic)/Crowdfunding.sol\":1038:1053  block.timestamp */\n  timestamp\n    /* \"contracts/PRACTICE/1(Basic)/Crowdfunding.sol\":1038:1063  block.timestamp+_deadline */\n  tag_10\n  swap2\n  swap1\n  tag_11\n  jump\t// in\ntag_10:\n    /* \"contracts/PRACTICE/1(Basic)/Crowdfunding.sol\":1029:1037  deadline */\n  0x03\n    /* \"contracts/PRACTICE/1(Basic)/Crowdfunding.sol\":1029:1063  deadline=block.timestamp+_deadline */\n  dup2\n  swap1\n  sstore\n  pop\n    /* \"contracts/PRACTICE/1(Basic)/Crowdfunding.sol\":912:1071  constructor(string memory _purpose,uint _deadline){... */\n  pop\n  pop\n    /* \"contracts/PRACTICE/1(Basic)/Crowdfunding.sol\":123:2299  contract Crowdfunding is ReentrancyGuard{... */\n  jump(tag_12)\n    /* \"#utility.yul\":7:82   */\ntag_13:\n    /* \"#utility.yul\":40:46   */\n  0x00\n    /* \"#utility.yul\":73:75   */\n  0x40\n    /* \"#utility.yul\":67:76   */\n  mload\n    /* \"#utility.yul\":57:76   */\n  swap1\n  pop\n    /* \"#utility.yul\":7:82   */\n  swap1\n  jump\t// out\n    /* \"#utility.yul\":88:205   */\ntag_14:\n    /* \"#utility.yul\":197:198   */\n  0x00\n    /* \"#utility.yul\":194:195   */\n  0x00\n    /* \"#utility.yul\":187:199   */\n  revert\n    /* \"#utility.yul\":211:328   */\ntag_15:\n    /* \"#utility.yul\":320:321   */\n  0x00\n    /* \"#utility.yul\":317:318   */\n  0x00\n    /* \"#utility.yul\":310:322   */\n  revert\n    /* \"#utility.yul\":334:451   */\ntag_16:\n    /* \"#utility.yul\":443:444   */\n  0x00\n    /* \"#utility.yul\":440:441   */\n  0x00\n    /* \"#utility.yul\":433:445   */\n  revert\n    /* \"#utility.yul\":457:574   */\ntag_17:\n    /* \"#utility.yul\":566:567   */\n  0x00\n    /* \"#utility.yul\":563:564   */\n  0x00\n    /* \"#utility.yul\":556:568   */\n  revert\n    /* \"#utility.yul\":580:682   */\ntag_18:\n    /* \"#utility.yul\":621:627   */\n  0x00\n    /* \"#utility.yul\":672:674   */\n  0x1f\n    /* \"#utility.yul\":668:675   */\n  not\n    /* \"#utility.yul\":663:665   */\n  0x1f\n    /* \"#utility.yul\":656:661   */\n  dup4\n    /* \"#utility.yul\":652:666   */\n  add\n    /* \"#utility.yul\":648:676   */\n  and\n    /* \"#utility.yul\":638:676   */\n  swap1\n  pop\n    /* \"#utility.yul\":580:682   */\n  swap2\n  swap1\n  pop\n  jump\t// out\n    /* \"#utility.yul\":688:868   */\ntag_19:\n    /* \"#utility.yul\":736:813   */\n  0x4e487b7100000000000000000000000000000000000000000000000000000000\n    /* \"#utility.yul\":733:734   */\n  0x00\n    /* \"#utility.yul\":726:814   */\n  mstore\n    /* \"#utility.yul\":833:837   */\n  0x41\n    /* \"#utility.yul\":830:831   */\n  0x04\n    /* \"#utility.yul\":823:838   */\n  mstore\n    /* \"#utility.yul\":857:861   */\n  0x24\n    /* \"#utility.yul\":854:855   */\n  0x00\n    /* \"#utility.yul\":847:862   */\n  revert\n    /* \"#utility.yul\":874:1155   */\ntag_20:\n    /* \"#utility.yul\":957:984   */\n  tag_57\n    /* \"#utility.yul\":979:983   */\n  dup3\n    /* \"#utility.yul\":957:984   */\n  tag_18\n  jump\t// in\ntag_57:\n    /* \"#utility.yul\":949:955   */\n  dup2\n    /* \"#utility.yul\":945:985   */\n  add\n    /* \"#utility.yul\":1087:1093   */\n  dup2\n    /* \"#utility.yul\":1075:1085   */\n  dup2\n    /* \"#utility.yul\":1072:1094   */\n  lt\n    /* \"#utility.yul\":1051:1069   */\n  0xffffffffffffffff\n    /* \"#utility.yul\":1039:1049   */\n  dup3\n    /* \"#utility.yul\":1036:1070   */\n  gt\n    /* \"#utility.yul\":1033:1095   */\n  or\n    /* \"#utility.yul\":1030:1118   */\n  iszero\n  tag_58\n  jumpi\n    /* \"#utility.yul\":1098:1116   */\n  tag_59\n  tag_19\n  jump\t// in\ntag_59:\n    /* \"#utility.yul\":1030:1118   */\ntag_58:\n    /* \"#utility.yul\":1138:1148   */\n  dup1\n    /* \"#utility.yul\":1134:1136   */\n  0x40\n    /* \"#utility.yul\":1127:1149   */\n  mstore\n    /* \"#utility.yul\":917:1155   */\n  pop\n    /* \"#utility.yul\":874:1155   */\n  pop\n  pop\n  jump\t// out\n    /* \"#utility.yul\":1161:1290   */\ntag_21:\n    /* \"#utility.yul\":1195:1201   */\n  0x00\n    /* \"#utility.yul\":1222:1242   */\n  tag_61\n  tag_13\n  jump\t// in\ntag_61:\n    /* \"#utility.yul\":1212:1242   */\n  swap1\n  pop\n    /* \"#utility.yul\":1251:1284   */\n  tag_62\n    /* \"#utility.yul\":1279:1283   */\n  dup3\n    /* \"#utility.yul\":1271:1277   */\n  dup3\n    /* \"#utility.yul\":1251:1284   */\n  tag_20\n  jump\t// in\ntag_62:\n    /* \"#utility.yul\":1161:1290   */\n  swap2\n  swap1\n  pop\n  jump\t// out\n    /* \"#utility.yul\":1296:1604   */\ntag_22:\n    /* \"#utility.yul\":1358:1362   */\n  0x00\n    /* \"#utility.yul\":1448:1466   */\n  0xffffffffffffffff\n    /* \"#utility.yul\":1440:1446   */\n  dup3\n    /* \"#utility.yul\":1437:1467   */\n  gt\n    /* \"#utility.yul\":1434:1490   */\n  iszero\n  tag_64\n  jumpi\n    /* \"#utility.yul\":1470:1488   */\n  tag_65\n  tag_19\n  jump\t// in\ntag_65:\n    /* \"#utility.yul\":1434:1490   */\ntag_64:\n    /* \"#utility.yul\":1508:1537   */\n  tag_66\n    /* \"#utility.yul\":1530:1536   */\n  dup3\n    /* \"#utility.yul\":1508:1537   */\n  tag_18\n  jump\t// in\ntag_66:\n    /* \"#utility.yul\":1500:1537   */\n  swap1\n  pop\n    /* \"#utility.yul\":1592:1596   */\n  0x20\n    /* \"#utility.yul\":1586:1590   */\n  dup2\n    /* \"#utility.yul\":1582:1597   */\n  add\n    /* \"#utility.yul\":1574:1597   */\n  swap1\n  pop\n    /* \"#utility.yul\":1296:1604   */\n  swap2\n  swap1\n  pop\n  jump\t// out\n    /* \"#utility.yul\":1610:1749   */\ntag_23:\n    /* \"#utility.yul\":1699:1705   */\n  dup3\n    /* \"#utility.yul\":1694:1697   */\n  dup2\n    /* \"#utility.yul\":1689:1692   */\n  dup4\n    /* \"#utility.yul\":1683:1706   */\n  mcopy\n    /* \"#utility.yul\":1740:1741   */\n  0x00\n    /* \"#utility.yul\":1731:1737   */\n  dup4\n    /* \"#utility.yul\":1726:1729   */\n  dup4\n    /* \"#utility.yul\":1722:1738   */\n  add\n    /* \"#utility.yul\":1715:1742   */\n  mstore\n    /* \"#utility.yul\":1610:1749   */\n  pop\n  pop\n  pop\n  jump\t// out\n    /* \"#utility.yul\":1755:2189   */\ntag_24:\n    /* \"#utility.yul\":1844:1849   */\n  0x00\n    /* \"#utility.yul\":1869:1935   */\n  tag_69\n    /* \"#utility.yul\":1885:1934   */\n  tag_70\n    /* \"#utility.yul\":1927:1933   */\n  dup5\n    /* \"#utility.yul\":1885:1934   */\n  tag_22\n  jump\t// in\ntag_70:\n    /* \"#utility.yul\":1869:1935   */\n  tag_21\n  jump\t// in\ntag_69:\n    /* \"#utility.yul\":1860:1935   */\n  swap1\n  pop\n    /* \"#utility.yul\":1958:1964   */\n  dup3\n    /* \"#utility.yul\":1951:1956   */\n  dup2\n    /* \"#utility.yul\":1944:1965   */\n  mstore\n    /* \"#utility.yul\":1996:2000   */\n  0x20\n    /* \"#utility.yul\":1989:1994   */\n  dup2\n    /* \"#utility.yul\":1985:2001   */\n  add\n    /* \"#utility.yul\":2034:2037   */\n  dup5\n    /* \"#utility.yul\":2025:2031   */\n  dup5\n    /* \"#utility.yul\":2020:2023   */\n  dup5\n    /* \"#utility.yul\":2016:2032   */\n  add\n    /* \"#utility.yul\":2013:2038   */\n  gt\n    /* \"#utility.yul\":2010:2122   */\n  iszero\n  tag_71\n  jumpi\n    /* \"#utility.yul\":2041:2120   */\n  tag_72\n  tag_17\n  jump\t// in\ntag_72:\n    /* \"#utility.yul\":2010:2122   */\ntag_71:\n    /* \"#utility.yul\":2131:2183   */\n  tag_73\n    /* \"#utility.yul\":2176:2182   */\n  dup5\n    /* \"#utility.yul\":2171:2174   */\n  dup3\n    /* \"#utility.yul\":2166:2169   */\n  dup6\n    /* \"#utility.yul\":2131:2183   */\n  tag_23\n  jump\t// in\ntag_73:\n    /* \"#utility.yul\":1850:2189   */\n  pop\n    /* \"#utility.yul\":1755:2189   */\n  swap4\n  swap3\n  pop\n  pop\n  pop\n  jump\t// out\n    /* \"#utility.yul\":2209:2564   */\ntag_25:\n    /* \"#utility.yul\":2276:2281   */\n  0x00\n    /* \"#utility.yul\":2325:2328   */\n  dup3\n    /* \"#utility.yul\":2318:2322   */\n  0x1f\n    /* \"#utility.yul\":2310:2316   */\n  dup4\n    /* \"#utility.yul\":2306:2323   */\n  add\n    /* \"#utility.yul\":2302:2329   */\n  slt\n    /* \"#utility.yul\":2292:2414   */\n  tag_75\n  jumpi\n    /* \"#utility.yul\":2333:2412   */\n  tag_76\n  tag_16\n  jump\t// in\ntag_76:\n    /* \"#utility.yul\":2292:2414   */\ntag_75:\n    /* \"#utility.yul\":2443:2449   */\n  dup2\n    /* \"#utility.yul\":2437:2450   */\n  mload\n    /* \"#utility.yul\":2468:2558   */\n  tag_77\n    /* \"#utility.yul\":2554:2557   */\n  dup5\n    /* \"#utility.yul\":2546:2552   */\n  dup3\n    /* \"#utility.yul\":2539:2543   */\n  0x20\n    /* \"#utility.yul\":2531:2537   */\n  dup7\n    /* \"#utility.yul\":2527:2544   */\n  add\n    /* \"#utility.yul\":2468:2558   */\n  tag_24\n  jump\t// in\ntag_77:\n    /* \"#utility.yul\":2459:2558   */\n  swap2\n  pop\n    /* \"#utility.yul\":2282:2564   */\n  pop\n    /* \"#utility.yul\":2209:2564   */\n  swap3\n  swap2\n  pop\n  pop\n  jump\t// out\n    /* \"#utility.yul\":2570:2647   */\ntag_26:\n    /* \"#utility.yul\":2607:2614   */\n  0x00\n    /* \"#utility.yul\":2636:2641   */\n  dup2\n    /* \"#utility.yul\":2625:2641   */\n  swap1\n  pop\n    /* \"#utility.yul\":2570:2647   */\n  swap2\n  swap1\n  pop\n  jump\t// out\n    /* \"#utility.yul\":2653:2775   */\ntag_27:\n    /* \"#utility.yul\":2726:2750   */\n  tag_80\n    /* \"#utility.yul\":2744:2749   */\n  dup2\n    /* \"#utility.yul\":2726:2750   */\n  tag_26\n  jump\t// in\ntag_80:\n    /* \"#utility.yul\":2719:2724   */\n  dup2\n    /* \"#utility.yul\":2716:2751   */\n  eq\n    /* \"#utility.yul\":2706:2769   */\n  tag_81\n  jumpi\n    /* \"#utility.yul\":2765:2766   */\n  0x00\n    /* \"#utility.yul\":2762:2763   */\n  0x00\n    /* \"#utility.yul\":2755:2767   */\n  revert\n    /* \"#utility.yul\":2706:2769   */\ntag_81:\n    /* \"#utility.yul\":2653:2775   */\n  pop\n  jump\t// out\n    /* \"#utility.yul\":2781:2924   */\ntag_28:\n    /* \"#utility.yul\":2838:2843   */\n  0x00\n    /* \"#utility.yul\":2869:2875   */\n  dup2\n    /* \"#utility.yul\":2863:2876   */\n  mload\n    /* \"#utility.yul\":2854:2876   */\n  swap1\n  pop\n    /* \"#utility.yul\":2885:2918   */\n  tag_83\n    /* \"#utility.yul\":2912:2917   */\n  dup2\n    /* \"#utility.yul\":2885:2918   */\n  tag_27\n  jump\t// in\ntag_83:\n    /* \"#utility.yul\":2781:2924   */\n  swap3\n  swap2\n  pop\n  pop\n  jump\t// out\n    /* \"#utility.yul\":2930:3610   */\ntag_3:\n    /* \"#utility.yul\":3019:3025   */\n  0x00\n    /* \"#utility.yul\":3027:3033   */\n  0x00\n    /* \"#utility.yul\":3076:3078   */\n  0x40\n    /* \"#utility.yul\":3064:3073   */\n  dup4\n    /* \"#utility.yul\":3055:3062   */\n  dup6\n    /* \"#utility.yul\":3051:3074   */\n  sub\n    /* \"#utility.yul\":3047:3079   */\n  slt\n    /* \"#utility.yul\":3044:3163   */\n  iszero\n  tag_85\n  jumpi\n    /* \"#utility.yul\":3082:3161   */\n  tag_86\n  tag_14\n  jump\t// in\ntag_86:\n    /* \"#utility.yul\":3044:3163   */\ntag_85:\n    /* \"#utility.yul\":3223:3224   */\n  0x00\n    /* \"#utility.yul\":3212:3221   */\n  dup4\n    /* \"#utility.yul\":3208:3225   */\n  add\n    /* \"#utility.yul\":3202:3226   */\n  mload\n    /* \"#utility.yul\":3253:3271   */\n  0xffffffffffffffff\n    /* \"#utility.yul\":3245:3251   */\n  dup2\n    /* \"#utility.yul\":3242:3272   */\n  gt\n    /* \"#utility.yul\":3239:3356   */\n  iszero\n  tag_87\n  jumpi\n    /* \"#utility.yul\":3275:3354   */\n  tag_88\n  tag_15\n  jump\t// in\ntag_88:\n    /* \"#utility.yul\":3239:3356   */\ntag_87:\n    /* \"#utility.yul\":3380:3454   */\n  tag_89\n    /* \"#utility.yul\":3446:3453   */\n  dup6\n    /* \"#utility.yul\":3437:3443   */\n  dup3\n    /* \"#utility.yul\":3426:3435   */\n  dup7\n    /* \"#utility.yul\":3422:3444   */\n  add\n    /* \"#utility.yul\":3380:3454   */\n  tag_25\n  jump\t// in\ntag_89:\n    /* \"#utility.yul\":3370:3454   */\n  swap3\n  pop\n    /* \"#utility.yul\":3173:3464   */\n  pop\n    /* \"#utility.yul\":3503:3505   */\n  0x20\n    /* \"#utility.yul\":3529:3593   */\n  tag_90\n    /* \"#utility.yul\":3585:3592   */\n  dup6\n    /* \"#utility.yul\":3576:3582   */\n  dup3\n    /* \"#utility.yul\":3565:3574   */\n  dup7\n    /* \"#utility.yul\":3561:3583   */\n  add\n    /* \"#utility.yul\":3529:3593   */\n  tag_28\n  jump\t// in\ntag_90:\n    /* \"#utility.yul\":3519:3593   */\n  swap2\n  pop\n    /* \"#utility.yul\":3474:3603   */\n  pop\n    /* \"#utility.yul\":2930:3610   */\n  swap3\n  pop\n  swap3\n  swap1\n  pop\n  jump\t// out\n    /* \"#utility.yul\":3616:3715   */\ntag_29:\n    /* \"#utility.yul\":3668:3674   */\n  0x00\n    /* \"#utility.yul\":3702:3707   */\n  dup2\n    /* \"#utility.yul\":3696:3708   */\n  mload\n    /* \"#utility.yul\":3686:3708   */\n  swap1\n  pop\n    /* \"#utility.yul\":3616:3715   */\n  swap2\n  swap1\n  pop\n  jump\t// out\n    /* \"#utility.yul\":3721:3901   */\ntag_30:\n    /* \"#utility.yul\":3769:3846   */\n  0x4e487b7100000000000000000000000000000000000000000000000000000000\n    /* \"#utility.yul\":3766:3767   */\n  0x00\n    /* \"#utility.yul\":3759:3847   */\n  mstore\n    /* \"#utility.yul\":3866:3870   */\n  0x22\n    /* \"#utility.yul\":3863:3864   */\n  0x04\n    /* \"#utility.yul\":3856:3871   */\n  mstore\n    /* \"#utility.yul\":3890:3894   */\n  0x24\n    /* \"#utility.yul\":3887:3888   */\n  0x00\n    /* \"#utility.yul\":3880:3895   */\n  revert\n    /* \"#utility.yul\":3907:4227   */\ntag_31:\n    /* \"#utility.yul\":3951:3957   */\n  0x00\n    /* \"#utility.yul\":3988:3989   */\n  0x02\n    /* \"#utility.yul\":3982:3986   */\n  dup3\n    /* \"#utility.yul\":3978:3990   */\n  div\n    /* \"#utility.yul\":3968:3990   */\n  swap1\n  pop\n    /* \"#utility.yul\":4035:4036   */\n  0x01\n    /* \"#utility.yul\":4029:4033   */\n  dup3\n    /* \"#utility.yul\":4025:4037   */\n  and\n    /* \"#utility.yul\":4056:4074   */\n  dup1\n    /* \"#utility.yul\":4046:4127   */\n  tag_94\n  jumpi\n    /* \"#utility.yul\":4112:4116   */\n  0x7f\n    /* \"#utility.yul\":4104:4110   */\n  dup3\n    /* \"#utility.yul\":4100:4117   */\n  and\n    /* \"#utility.yul\":4090:4117   */\n  swap2\n  pop\n    /* \"#utility.yul\":4046:4127   */\ntag_94:\n    /* \"#utility.yul\":4174:4176   */\n  0x20\n    /* \"#utility.yul\":4166:4172   */\n  dup3\n    /* \"#utility.yul\":4163:4177   */\n  lt\n    /* \"#utility.yul\":4143:4161   */\n  dup2\n    /* \"#utility.yul\":4140:4178   */\n  sub\n    /* \"#utility.yul\":4137:4221   */\n  tag_95\n  jumpi\n    /* \"#utility.yul\":4193:4211   */\n  tag_96\n  tag_30\n  jump\t// in\ntag_96:\n    /* \"#utility.yul\":4137:4221   */\ntag_95:\n    /* \"#utility.yul\":3958:4227   */\n  pop\n    /* \"#utility.yul\":3907:4227   */\n  swap2\n  swap1\n  pop\n  jump\t// out\n    /* \"#utility.yul\":4233:4374   */\ntag_32:\n    /* \"#utility.yul\":4282:4286   */\n  0x00\n    /* \"#utility.yul\":4305:4308   */\n  dup2\n    /* \"#utility.yul\":4297:4308   */\n  swap1\n  pop\n    /* \"#utility.yul\":4328:4331   */\n  dup2\n    /* \"#utility.yul\":4325:4326   */\n  0x00\n    /* \"#utility.yul\":4318:4332   */\n  mstore\n    /* \"#utility.yul\":4362:4366   */\n  0x20\n    /* \"#utility.yul\":4359:4360   */\n  0x00\n    /* \"#utility.yul\":4349:4367   */\n  keccak256\n    /* \"#utility.yul\":4341:4367   */\n  swap1\n  pop\n    /* \"#utility.yul\":4233:4374   */\n  swap2\n  swap1\n  pop\n  jump\t// out\n    /* \"#utility.yul\":4380:4473   */\ntag_33:\n    /* \"#utility.yul\":4417:4423   */\n  0x00\n    /* \"#utility.yul\":4464:4466   */\n  0x20\n    /* \"#utility.yul\":4459:4461   */\n  0x1f\n    /* \"#utility.yul\":4452:4457   */\n  dup4\n    /* \"#utility.yul\":4448:4462   */\n  add\n    /* \"#utility.yul\":4444:4467   */\n  div\n    /* \"#utility.yul\":4434:4467   */\n  swap1\n  pop\n    /* \"#utility.yul\":4380:4473   */\n  swap2\n  swap1\n  pop\n  jump\t// out\n    /* \"#utility.yul\":4479:4586   */\ntag_34:\n    /* \"#utility.yul\":4523:4531   */\n  0x00\n    /* \"#utility.yul\":4573:4578   */\n  dup3\n    /* \"#utility.yul\":4567:4571   */\n  dup3\n    /* \"#utility.yul\":4563:4579   */\n  shl\n    /* \"#utility.yul\":4542:4579   */\n  swap1\n  pop\n    /* \"#utility.yul\":4479:4586   */\n  swap3\n  swap2\n  pop\n  pop\n  jump\t// out\n    /* \"#utility.yul\":4592:4985   */\ntag_35:\n    /* \"#utility.yul\":4661:4667   */\n  0x00\n    /* \"#utility.yul\":4711:4712   */\n  0x08\n    /* \"#utility.yul\":4699:4709   */\n  dup4\n    /* \"#utility.yul\":4695:4713   */\n  mul\n    /* \"#utility.yul\":4734:4831   */\n  tag_101\n    /* \"#utility.yul\":4764:4830   */\n  0xffffffffffffffffffffffffffffffffffffffffffffffffffffffffffffffff\n    /* \"#utility.yul\":4753:4762   */\n  dup3\n    /* \"#utility.yul\":4734:4831   */\n  tag_34\n  jump\t// in\ntag_101:\n    /* \"#utility.yul\":4852:4891   */\n  tag_102\n    /* \"#utility.yul\":4882:4890   */\n  dup7\n    /* \"#utility.yul\":4871:4880   */\n  dup4\n    /* \"#utility.yul\":4852:4891   */\n  tag_34\n  jump\t// in\ntag_102:\n    /* \"#utility.yul\":4840:4891   */\n  swap6\n  pop\n    /* \"#utility.yul\":4924:4928   */\n  dup1\n    /* \"#utility.yul\":4920:4929   */\n  not\n    /* \"#utility.yul\":4913:4918   */\n  dup5\n    /* \"#utility.yul\":4909:4930   */\n  and\n    /* \"#utility.yul\":4900:4930   */\n  swap4\n  pop\n    /* \"#utility.yul\":4973:4977   */\n  dup1\n    /* \"#utility.yul\":4963:4971   */\n  dup7\n    /* \"#utility.yul\":4959:4978   */\n  and\n    /* \"#utility.yul\":4952:4957   */\n  dup5\n    /* \"#utility.yul\":4949:4979   */\n  or\n    /* \"#utility.yul\":4939:4979   */\n  swap3\n  pop\n    /* \"#utility.yul\":4668:4985   */\n  pop\n  pop\n    /* \"#utility.yul\":4592:4985   */\n  swap4\n  swap3\n  pop\n  pop\n  pop\n  jump\t// out\n    /* \"#utility.yul\":4991:5051   */\ntag_36:\n    /* \"#utility.yul\":5019:5022   */\n  0x00\n    /* \"#utility.yul\":5040:5045   */\n  dup2\n    /* \"#utility.yul\":5033:5045   */\n  swap1\n  pop\n    /* \"#utility.yul\":4991:5051   */\n  swap2\n  swap1\n  pop\n  jump\t// out\n    /* \"#utility.yul\":5057:5199   */\ntag_37:\n    /* \"#utility.yul\":5107:5116   */\n  0x00\n    /* \"#utility.yul\":5140:5193   */\n  tag_105\n    /* \"#utility.yul\":5158:5192   */\n  tag_106\n    /* \"#utility.yul\":5167:5191   */\n  tag_107\n    /* \"#utility.yul\":5185:5190   */\n  dup5\n    /* \"#utility.yul\":5167:5191   */\n  tag_26\n  jump\t// in\ntag_107:\n    /* \"#utility.yul\":5158:5192   */\n  tag_36\n  jump\t// in\ntag_106:\n    /* \"#utility.yul\":5140:5193   */\n  tag_26\n  jump\t// in\ntag_105:\n    /* \"#utility.yul\":5127:5193   */\n  swap1\n  pop\n    /* \"#utility.yul\":5057:5199   */\n  swap2\n  swap1\n  pop\n  jump\t// out\n    /* \"#utility.yul\":5205:5280   */\ntag_38:\n    /* \"#utility.yul\":5248:5251   */\n  0x00\n    /* \"#utility.yul\":5269:5274   */\n  dup2\n    /* \"#utility.yul\":5262:5274   */\n  swap1\n  pop\n    /* \"#utility.yul\":5205:5280   */\n  swap2\n  swap1\n  pop\n  jump\t// out\n    /* \"#utility.yul\":5286:5555   */\ntag_39:\n    /* \"#utility.yul\":5396:5435   */\n  tag_110\n    /* \"#utility.yul\":5427:5434   */\n  dup4\n    /* \"#utility.yul\":5396:5435   */\n  tag_37\n  jump\t// in\ntag_110:\n    /* \"#utility.yul\":5457:5548   */\n  tag_111\n    /* \"#utility.yul\":5506:5547   */\n  tag_112\n    /* \"#utility.yul\":5530:5546   */\n  dup3\n    /* \"#utility.yul\":5506:5547   */\n  tag_38\n  jump\t// in\ntag_112:\n    /* \"#utility.yul\":5498:5504   */\n  dup5\n    /* \"#utility.yul\":5491:5495   */\n  dup5\n    /* \"#utility.yul\":5485:5496   */\n  sload\n    /* \"#utility.yul\":5457:5548   */\n  tag_35\n  jump\t// in\ntag_111:\n    /* \"#utility.yul\":5451:5455   */\n  dup3\n    /* \"#utility.yul\":5444:5549   */\n  sstore\n    /* \"#utility.yul\":5362:5555   */\n  pop\n    /* \"#utility.yul\":5286:5555   */\n  pop\n  pop\n  pop\n  jump\t// out\n    /* \"#utility.yul\":5561:5634   */\ntag_40:\n    /* \"#utility.yul\":5606:5609   */\n  0x00\n    /* \"#utility.yul\":5627:5628   */\n  0x00\n    /* \"#utility.yul\":5620:5628   */\n  swap1\n  pop\n    /* \"#utility.yul\":5561:5634   */\n  swap1\n  jump\t// out\n    /* \"#utility.yul\":5640:5829   */\ntag_41:\n    /* \"#utility.yul\":5717:5749   */\n  tag_115\n  tag_40\n  jump\t// in\ntag_115:\n    /* \"#utility.yul\":5758:5823   */\n  tag_116\n    /* \"#utility.yul\":5816:5822   */\n  dup2\n    /* \"#utility.yul\":5808:5814   */\n  dup5\n    /* \"#utility.yul\":5802:5806   */\n  dup5\n    /* \"#utility.yul\":5758:5823   */\n  tag_39\n  jump\t// in\ntag_116:\n    /* \"#utility.yul\":5693:5829   */\n  pop\n    /* \"#utility.yul\":5640:5829   */\n  pop\n  pop\n  jump\t// out\n    /* \"#utility.yul\":5835:6021   */\ntag_42:\n    /* \"#utility.yul\":5895:6015   */\ntag_118:\n    /* \"#utility.yul\":5912:5915   */\n  dup2\n    /* \"#utility.yul\":5905:5910   */\n  dup2\n    /* \"#utility.yul\":5902:5916   */\n  lt\n    /* \"#utility.yul\":5895:6015   */\n  iszero\n  tag_120\n  jumpi\n    /* \"#utility.yul\":5966:6005   */\n  tag_121\n    /* \"#utility.yul\":6003:6004   */\n  0x00\n    /* \"#utility.yul\":5996:6001   */\n  dup3\n    /* \"#utility.yul\":5966:6005   */\n  tag_41\n  jump\t// in\ntag_121:\n    /* \"#utility.yul\":5939:5940   */\n  0x01\n    /* \"#utility.yul\":5932:5937   */\n  dup2\n    /* \"#utility.yul\":5928:5941   */\n  add\n    /* \"#utility.yul\":5919:5941   */\n  swap1\n  pop\n    /* \"#utility.yul\":5895:6015   */\n  jump(tag_118)\ntag_120:\n    /* \"#utility.yul\":5835:6021   */\n  pop\n  pop\n  jump\t// out\n    /* \"#utility.yul\":6027:6570   */\ntag_43:\n    /* \"#utility.yul\":6128:6130   */\n  0x1f\n    /* \"#utility.yul\":6123:6126   */\n  dup3\n    /* \"#utility.yul\":6120:6131   */\n  gt\n    /* \"#utility.yul\":6117:6563   */\n  iszero\n  tag_123\n  jumpi\n    /* \"#utility.yul\":6162:6200   */\n  tag_124\n    /* \"#utility.yul\":6194:6199   */\n  dup2\n    /* \"#utility.yul\":6162:6200   */\n  tag_32\n  jump\t// in\ntag_124:\n    /* \"#utility.yul\":6246:6275   */\n  tag_125\n    /* \"#utility.yul\":6264:6274   */\n  dup5\n    /* \"#utility.yul\":6246:6275   */\n  tag_33\n  jump\t// in\ntag_125:\n    /* \"#utility.yul\":6236:6244   */\n  dup2\n    /* \"#utility.yul\":6232:6276   */\n  add\n    /* \"#utility.yul\":6429:6431   */\n  0x20\n    /* \"#utility.yul\":6417:6427   */\n  dup6\n    /* \"#utility.yul\":6414:6432   */\n  lt\n    /* \"#utility.yul\":6411:6460   */\n  iszero\n  tag_126\n  jumpi\n    /* \"#utility.yul\":6450:6458   */\n  dup2\n    /* \"#utility.yul\":6435:6458   */\n  swap1\n  pop\n    /* \"#utility.yul\":6411:6460   */\ntag_126:\n    /* \"#utility.yul\":6473:6553   */\n  tag_127\n    /* \"#utility.yul\":6529:6551   */\n  tag_128\n    /* \"#utility.yul\":6547:6550   */\n  dup6\n    /* \"#utility.yul\":6529:6551   */\n  tag_33\n  jump\t// in\ntag_128:\n    /* \"#utility.yul\":6519:6527   */\n  dup4\n    /* \"#utility.yul\":6515:6552   */\n  add\n    /* \"#utility.yul\":6502:6513   */\n  dup3\n    /* \"#utility.yul\":6473:6553   */\n  tag_42\n  jump\t// in\ntag_127:\n    /* \"#utility.yul\":6132:6563   */\n  pop\n  pop\n    /* \"#utility.yul\":6117:6563   */\ntag_123:\n    /* \"#utility.yul\":6027:6570   */\n  pop\n  pop\n  pop\n  jump\t// out\n    /* \"#utility.yul\":6576:6693   */\ntag_44:\n    /* \"#utility.yul\":6630:6638   */\n  0x00\n    /* \"#utility.yul\":6680:6685   */\n  dup3\n    /* \"#utility.yul\":6674:6678   */\n  dup3\n    /* \"#utility.yul\":6670:6686   */\n  shr\n    /* \"#utility.yul\":6649:6686   */\n  swap1\n  pop\n    /* \"#utility.yul\":6576:6693   */\n  swap3\n  swap2\n  pop\n  pop\n  jump\t// out\n    /* \"#utility.yul\":6699:6868   */\ntag_45:\n    /* \"#utility.yul\":6743:6749   */\n  0x00\n    /* \"#utility.yul\":6776:6827   */\n  tag_131\n    /* \"#utility.yul\":6824:6825   */\n  0x00\n    /* \"#utility.yul\":6820:6826   */\n  not\n    /* \"#utility.yul\":6812:6817   */\n  dup5\n    /* \"#utility.yul\":6809:6810   */\n  0x08\n    /* \"#utility.yul\":6805:6818   */\n  mul\n    /* \"#utility.yul\":6776:6827   */\n  tag_44\n  jump\t// in\ntag_131:\n    /* \"#utility.yul\":6772:6828   */\n  not\n    /* \"#utility.yul\":6857:6861   */\n  dup1\n    /* \"#utility.yul\":6851:6855   */\n  dup4\n    /* \"#utility.yul\":6847:6862   */\n  and\n    /* \"#utility.yul\":6837:6862   */\n  swap2\n  pop\n    /* \"#utility.yul\":6750:6868   */\n  pop\n    /* \"#utility.yul\":6699:6868   */\n  swap3\n  swap2\n  pop\n  pop\n  jump\t// out\n    /* \"#utility.yul\":6873:7168   */\ntag_46:\n    /* \"#utility.yul\":6949:6953   */\n  0x00\n    /* \"#utility.yul\":7095:7124   */\n  tag_133\n    /* \"#utility.yul\":7120:7123   */\n  dup4\n    /* \"#utility.yul\":7114:7118   */\n  dup4\n    /* \"#utility.yul\":7095:7124   */\n  tag_45\n  jump\t// in\ntag_133:\n    /* \"#utility.yul\":7087:7124   */\n  swap2\n  pop\n    /* \"#utility.yul\":7157:7160   */\n  dup3\n    /* \"#utility.yul\":7154:7155   */\n  0x02\n    /* \"#utility.yul\":7150:7161   */\n  mul\n    /* \"#utility.yul\":7144:7148   */\n  dup3\n    /* \"#utility.yul\":7141:7162   */\n  or\n    /* \"#utility.yul\":7133:7162   */\n  swap1\n  pop\n    /* \"#utility.yul\":6873:7168   */\n  swap3\n  swap2\n  pop\n  pop\n  jump\t// out\n    /* \"#utility.yul\":7173:8568   */\ntag_9:\n    /* \"#utility.yul\":7290:7327   */\n  tag_135\n    /* \"#utility.yul\":7323:7326   */\n  dup3\n    /* \"#utility.yul\":7290:7327   */\n  tag_29\n  jump\t// in\ntag_135:\n    /* \"#utility.yul\":7392:7410   */\n  0xffffffffffffffff\n    /* \"#utility.yul\":7384:7390   */\n  dup2\n    /* \"#utility.yul\":7381:7411   */\n  gt\n    /* \"#utility.yul\":7378:7434   */\n  iszero\n  tag_136\n  jumpi\n    /* \"#utility.yul\":7414:7432   */\n  tag_137\n  tag_19\n  jump\t// in\ntag_137:\n    /* \"#utility.yul\":7378:7434   */\ntag_136:\n    /* \"#utility.yul\":7458:7496   */\n  tag_138\n    /* \"#utility.yul\":7490:7494   */\n  dup3\n    /* \"#utility.yul\":7484:7495   */\n  sload\n    /* \"#utility.yul\":7458:7496   */\n  tag_31\n  jump\t// in\ntag_138:\n    /* \"#utility.yul\":7543:7610   */\n  tag_139\n    /* \"#utility.yul\":7603:7609   */\n  dup3\n    /* \"#utility.yul\":7595:7601   */\n  dup3\n    /* \"#utility.yul\":7589:7593   */\n  dup6\n    /* \"#utility.yul\":7543:7610   */\n  tag_43\n  jump\t// in\ntag_139:\n    /* \"#utility.yul\":7637:7638   */\n  0x00\n    /* \"#utility.yul\":7661:7665   */\n  0x20\n    /* \"#utility.yul\":7648:7665   */\n  swap1\n  pop\n    /* \"#utility.yul\":7693:7695   */\n  0x1f\n    /* \"#utility.yul\":7685:7691   */\n  dup4\n    /* \"#utility.yul\":7682:7696   */\n  gt\n    /* \"#utility.yul\":7710:7711   */\n  0x01\n    /* \"#utility.yul\":7705:8323   */\n  dup2\n  eq\n  tag_141\n  jumpi\n    /* \"#utility.yul\":8367:8368   */\n  0x00\n    /* \"#utility.yul\":8384:8390   */\n  dup5\n    /* \"#utility.yul\":8381:8458   */\n  iszero\n  tag_142\n  jumpi\n    /* \"#utility.yul\":8433:8442   */\n  dup3\n    /* \"#utility.yul\":8428:8431   */\n  dup8\n    /* \"#utility.yul\":8424:8443   */\n  add\n    /* \"#utility.yul\":8418:8444   */\n  mload\n    /* \"#utility.yul\":8409:8444   */\n  swap1\n  pop\n    /* \"#utility.yul\":8381:8458   */\ntag_142:\n    /* \"#utility.yul\":8484:8551   */\n  tag_143\n    /* \"#utility.yul\":8544:8550   */\n  dup6\n    /* \"#utility.yul\":8537:8542   */\n  dup3\n    /* \"#utility.yul\":8484:8551   */\n  tag_46\n  jump\t// in\ntag_143:\n    /* \"#utility.yul\":8478:8482   */\n  dup7\n    /* \"#utility.yul\":8471:8552   */\n  sstore\n    /* \"#utility.yul\":8340:8562   */\n  pop\n    /* \"#utility.yul\":7675:8562   */\n  jump(tag_140)\n    /* \"#utility.yul\":7705:8323   */\ntag_141:\n    /* \"#utility.yul\":7757:7761   */\n  0x1f\n    /* \"#utility.yul\":7753:7762   */\n  not\n    /* \"#utility.yul\":7745:7751   */\n  dup5\n    /* \"#utility.yul\":7741:7763   */\n  and\n    /* \"#utility.yul\":7791:7828   */\n  tag_144\n    /* \"#utility.yul\":7823:7827   */\n  dup7\n    /* \"#utility.yul\":7791:7828   */\n  tag_32\n  jump\t// in\ntag_144:\n    /* \"#utility.yul\":7850:7851   */\n  0x00\n    /* \"#utility.yul\":7864:8072   */\ntag_145:\n    /* \"#utility.yul\":7878:7885   */\n  dup3\n    /* \"#utility.yul\":7875:7876   */\n  dup2\n    /* \"#utility.yul\":7872:7886   */\n  lt\n    /* \"#utility.yul\":7864:8072   */\n  iszero\n  tag_147\n  jumpi\n    /* \"#utility.yul\":7957:7966   */\n  dup5\n    /* \"#utility.yul\":7952:7955   */\n  dup10\n    /* \"#utility.yul\":7948:7967   */\n  add\n    /* \"#utility.yul\":7942:7968   */\n  mload\n    /* \"#utility.yul\":7934:7940   */\n  dup3\n    /* \"#utility.yul\":7927:7969   */\n  sstore\n    /* \"#utility.yul\":8008:8009   */\n  0x01\n    /* \"#utility.yul\":8000:8006   */\n  dup3\n    /* \"#utility.yul\":7996:8010   */\n  add\n    /* \"#utility.yul\":7986:8010   */\n  swap2\n  pop\n    /* \"#utility.yul\":8055:8057   */\n  0x20\n    /* \"#utility.yul\":8044:8053   */\n  dup6\n    /* \"#utility.yul\":8040:8058   */\n  add\n    /* \"#utility.yul\":8027:8058   */\n  swap5\n  pop\n    /* \"#utility.yul\":7901:7905   */\n  0x20\n    /* \"#utility.yul\":7898:7899   */\n  dup2\n    /* \"#utility.yul\":7894:7906   */\n  add\n    /* \"#utility.yul\":7889:7906   */\n  swap1\n  pop\n    /* \"#utility.yul\":7864:8072   */\n  jump(tag_145)\ntag_147:\n    /* \"#utility.yul\":8100:8106   */\n  dup7\n    /* \"#utility.yul\":8091:8098   */\n  dup4\n    /* \"#utility.yul\":8088:8107   */\n  lt\n    /* \"#utility.yul\":8085:8264   */\n  iszero\n  tag_148\n  jumpi\n    /* \"#utility.yul\":8158:8167   */\n  dup5\n    /* \"#utility.yul\":8153:8156   */\n  dup10\n    /* \"#utility.yul\":8149:8168   */\n  add\n    /* \"#utility.yul\":8143:8169   */\n  mload\n    /* \"#utility.yul\":8201:8249   */\n  tag_149\n    /* \"#utility.yul\":8243:8247   */\n  0x1f\n    /* \"#utility.yul\":8235:8241   */\n  dup10\n    /* \"#utility.yul\":8231:8248   */\n  and\n    /* \"#utility.yul\":8220:8229   */\n  dup3\n    /* \"#utility.yul\":8201:8249   */\n  tag_45\n  jump\t// in\ntag_149:\n    /* \"#utility.yul\":8193:8199   */\n  dup4\n    /* \"#utility.yul\":8186:8250   */\n  sstore\n    /* \"#utility.yul\":8108:8264   */\n  pop\n    /* \"#utility.yul\":8085:8264   */\ntag_148:\n    /* \"#utility.yul\":8310:8311   */\n  0x01\n    /* \"#utility.yul\":8306:8307   */\n  0x02\n    /* \"#utility.yul\":8298:8304   */\n  dup9\n    /* \"#utility.yul\":8294:8308   */\n  mul\n    /* \"#utility.yul\":8290:8312   */\n  add\n    /* \"#utility.yul\":8284:8288   */\n  dup9\n    /* \"#utility.yul\":8277:8313   */\n  sstore\n    /* \"#utility.yul\":7712:8323   */\n  pop\n  pop\n  pop\n    /* \"#utility.yul\":7675:8562   */\ntag_140:\n  pop\n    /* \"#utility.yul\":7265:8568   */\n  pop\n  pop\n  pop\n    /* \"#utility.yul\":7173:8568   */\n  pop\n  pop\n  jump\t// out\n    /* \"#utility.yul\":8574:8754   */\ntag_47:\n    /* \"#utility.yul\":8622:8699   */\n  0x4e487b7100000000000000000000000000000000000000000000000000000000\n    /* \"#utility.yul\":8619:8620   */\n  0x00\n    /* \"#utility.yul\":8612:8700   */\n  mstore\n    /* \"#utility.yul\":8719:8723   */\n  0x11\n    /* \"#utility.yul\":8716:8717   */\n  0x04\n    /* \"#utility.yul\":8709:8724   */\n  mstore\n    /* \"#utility.yul\":8743:8747   */\n  0x24\n    /* \"#utility.yul\":8740:8741   */\n  0x00\n    /* \"#utility.yul\":8733:8748   */\n  revert\n    /* \"#utility.yul\":8760:8951   */\ntag_11:\n    /* \"#utility.yul\":8800:8803   */\n  0x00\n    /* \"#utility.yul\":8819:8839   */\n  tag_152\n    /* \"#utility.yul\":8837:8838   */\n  dup3\n    /* \"#utility.yul\":8819:8839   */\n  tag_26\n  jump\t// in\ntag_152:\n    /* \"#utility.yul\":8814:8839   */\n  swap2\n  pop\n    /* \"#utility.yul\":8853:8873   */\n  tag_153\n    /* \"#utility.yul\":8871:8872   */\n  dup4\n    /* \"#utility.yul\":8853:8873   */\n  tag_26\n  jump\t// in\ntag_153:\n    /* \"#utility.yul\":8848:8873   */\n  swap3\n  pop\n    /* \"#utility.yul\":8896:8897   */\n  dup3\n    /* \"#utility.yul\":8893:8894   */\n  dup3\n    /* \"#utility.yul\":8889:8898   */\n  add\n    /* \"#utility.yul\":8882:8898   */\n  swap1\n  pop\n    /* \"#utility.yul\":8917:8920   */\n  dup1\n    /* \"#utility.yul\":8914:8915   */\n  dup3\n    /* \"#utility.yul\":8911:8921   */\n  gt\n    /* \"#utility.yul\":8908:8944   */\n  iszero\n  tag_154\n  jumpi\n    /* \"#utility.yul\":8924:8942   */\n  tag_155\n  tag_47\n  jump\t// in\ntag_155:\n    /* \"#utility.yul\":8908:8944   */\ntag_154:\n    /* \"#utility.yul\":8760:8951   */\n  swap3\n  swap2\n  pop\n  pop\n  jump\t// out\n    /* \"contracts/PRACTICE/1(Basic)/Crowdfunding.sol\":123:2299  contract Crowdfunding is ReentrancyGuard{... */\ntag_12:\n  dataSize(sub_0)\n  dup1\n  dataOffset(sub_0)\n  0x00\n  codecopy\n  0x00\n  return\nstop\n\nsub_0: assembly {\n        /* \"contracts/PRACTICE/1(Basic)/Crowdfunding.sol\":123:2299  contract Crowdfunding is ReentrancyGuard{... */\n      mstore(0x40, 0x80)\n      jumpi(tag_1, lt(calldatasize, 0x04))\n      shr(0xe0, calldataload(0x00))\n      dup1\n      0x70740aab\n      gt\n      tag_13\n      jumpi\n      dup1\n      0x70740aab\n      eq\n      tag_7\n      jumpi\n      dup1\n      0x96b1cf28\n      eq\n      tag_8\n      jumpi\n      dup1\n      0xa6a46a31\n      eq\n      tag_9\n      jumpi\n      dup1\n      0xca973fba\n      eq\n      tag_10\n      jumpi\n      dup1\n      0xd24f8cdd\n      eq\n      tag_11\n      jumpi\n      dup1\n      0xed88c68e\n      eq\n      tag_12\n      jumpi\n      jump(tag_1)\n    tag_13:\n      dup1\n      0x1fe6aa5e\n      eq\n      tag_2\n      jumpi\n      dup1\n      0x25caa262\n      eq\n      tag_3\n      jumpi\n      dup1\n      0x29dcb0cf\n      eq\n      tag_4\n      jumpi\n      dup1\n      0x3ccfd60b\n      eq\n      tag_5\n      jumpi\n      dup1\n      0x481c6a75\n      eq\n      tag_6\n      jumpi\n    tag_1:\n      revert(0x00, 0x00)\n        /* \"contracts/PRACTICE/1(Basic)/Crowdfunding.sol\":1808:2078  function donatorshistory() public view returns(uint){... */\n    tag_2:\n      callvalue\n      dup1\n      iszero\n      tag_14\n      jumpi\n      revert(0x00, 0x00)\n    tag_14:\n      pop\n      tag_15\n      tag_16\n      jump\t// in\n    tag_15:\n      mload(0x40)\n      tag_17\n      swap2\n      swap1\n      tag_18\n      jump\t// in\n    tag_17:\n      mload(0x40)\n      dup1\n      swap2\n      sub\n      swap1\n      return\n        /* \"contracts/PRACTICE/1(Basic)/Crowdfunding.sol\":2184:2280  function getBal() public view returns(uint256){... */\n    tag_3:\n      callvalue\n      dup1\n      iszero\n      tag_19\n      jumpi\n      revert(0x00, 0x00)\n    tag_19:\n      pop\n      tag_20\n      tag_21\n      jump\t// in\n    tag_20:\n      mload(0x40)\n      tag_22\n      swap2\n      swap1\n      tag_18\n      jump\t// in\n    tag_22:\n      mload(0x40)\n      dup1\n      swap2\n      sub\n      swap1\n      return\n        /* \"contracts/PRACTICE/1(Basic)/Crowdfunding.sol\":229:249  uint public deadline */\n    tag_4:\n      callvalue\n      dup1\n      iszero\n      tag_23\n      jumpi\n      revert(0x00, 0x00)\n    tag_23:\n      pop\n      tag_24\n      tag_25\n      jump\t// in\n    tag_24:\n      mload(0x40)\n      tag_26\n      swap2\n      swap1\n      tag_18\n      jump\t// in\n    tag_26:\n      mload(0x40)\n      dup1\n      swap2\n      sub\n      swap1\n      return\n        /* \"contracts/PRACTICE/1(Basic)/Crowdfunding.sol\":1434:1636  function withdraw() public onlyManager donationOFF {... */\n    tag_5:\n      callvalue\n      dup1\n      iszero\n      tag_27\n      jumpi\n      revert(0x00, 0x00)\n    tag_27:\n      pop\n      tag_28\n      tag_29\n      jump\t// in\n    tag_28:\n      stop\n        /* \"contracts/PRACTICE/1(Basic)/Crowdfunding.sol\":172:194  address public manager */\n    tag_6:\n      callvalue\n      dup1\n      iszero\n      tag_30\n      jumpi\n      revert(0x00, 0x00)\n    tag_30:\n      pop\n      tag_31\n      tag_32\n      jump\t// in\n    tag_31:\n      mload(0x40)\n      tag_33\n      swap2\n      swap1\n      tag_34\n      jump\t// in\n    tag_33:\n      mload(0x40)\n      dup1\n      swap2\n      sub\n      swap1\n      return\n        /* \"contracts/PRACTICE/1(Basic)/Crowdfunding.sol\":201:222  string public purpose */\n    tag_7:\n      callvalue\n      dup1\n      iszero\n      tag_35\n      jumpi\n      revert(0x00, 0x00)\n    tag_35:\n      pop\n      tag_36\n      tag_37\n      jump\t// in\n    tag_36:\n      mload(0x40)\n      tag_38\n      swap2\n      swap1\n      tag_39\n      jump\t// in\n    tag_38:\n      mload(0x40)\n      dup1\n      swap2\n      sub\n      swap1\n      return\n        /* \"contracts/PRACTICE/1(Basic)/Crowdfunding.sol\":1644:1800  function updatePurpose(string memory _newPurpose) public onlyManager{... */\n    tag_8:\n      callvalue\n      dup1\n      iszero\n      tag_40\n      jumpi\n      revert(0x00, 0x00)\n    tag_40:\n      pop\n      tag_41\n      0x04\n      dup1\n      calldatasize\n      sub\n      dup2\n      add\n      swap1\n      tag_42\n      swap2\n      swap1\n      tag_43\n      jump\t// in\n    tag_42:\n      tag_44\n      jump\t// in\n    tag_41:\n      stop\n        /* \"contracts/PRACTICE/1(Basic)/Crowdfunding.sol\":2086:2176  function returndonators() public view returns(uint){... */\n    tag_9:\n      callvalue\n      dup1\n      iszero\n      tag_45\n      jumpi\n      revert(0x00, 0x00)\n    tag_45:\n      pop\n      tag_46\n      tag_47\n      jump\t// in\n    tag_46:\n      mload(0x40)\n      tag_48\n      swap2\n      swap1\n      tag_18\n      jump\t// in\n    tag_48:\n      mload(0x40)\n      dup1\n      swap2\n      sub\n      swap1\n      return\n        /* \"contracts/PRACTICE/1(Basic)/Crowdfunding.sol\":305:329  uint public noofdonators */\n    tag_10:\n      callvalue\n      dup1\n      iszero\n      tag_49\n      jumpi\n      revert(0x00, 0x00)\n    tag_49:\n      pop\n      tag_50\n      tag_51\n      jump\t// in\n    tag_50:\n      mload(0x40)\n      tag_52\n      swap2\n      swap1\n      tag_18\n      jump\t// in\n    tag_52:\n      mload(0x40)\n      dup1\n      swap2\n      sub\n      swap1\n      return\n        /* \"contracts/PRACTICE/1(Basic)/Crowdfunding.sol\":258:296  mapping(address=>uint) public donators */\n    tag_11:\n      callvalue\n      dup1\n      iszero\n      tag_53\n      jumpi\n      revert(0x00, 0x00)\n    tag_53:\n      pop\n      tag_54\n      0x04\n      dup1\n      calldatasize\n      sub\n      dup2\n      add\n      swap1\n      tag_55\n      swap2\n      swap1\n      tag_56\n      jump\t// in\n    tag_55:\n      tag_57\n      jump\t// in\n    tag_54:\n      mload(0x40)\n      tag_58\n      swap2\n      swap1\n      tag_18\n      jump\t// in\n    tag_58:\n      mload(0x40)\n      dup1\n      swap2\n      sub\n      swap1\n      return\n        /* \"contracts/PRACTICE/1(Basic)/Crowdfunding.sol\":1079:1422  function donate() public payable donationON {... */\n    tag_12:\n      tag_59\n      tag_60\n      jump\t// in\n    tag_59:\n      stop\n        /* \"contracts/PRACTICE/1(Basic)/Crowdfunding.sol\":1808:2078  function donatorshistory() public view returns(uint){... */\n    tag_16:\n        /* \"contracts/PRACTICE/1(Basic)/Crowdfunding.sol\":1855:1859  uint */\n      0x00\n        /* \"contracts/PRACTICE/1(Basic)/Crowdfunding.sol\":1906:1907  0 */\n      0x00\n        /* \"contracts/PRACTICE/1(Basic)/Crowdfunding.sol\":1883:1891  donators */\n      0x04\n        /* \"contracts/PRACTICE/1(Basic)/Crowdfunding.sol\":1883:1903  donators[msg.sender] */\n      0x00\n        /* \"contracts/PRACTICE/1(Basic)/Crowdfunding.sol\":1892:1902  msg.sender */\n      caller\n        /* \"contracts/PRACTICE/1(Basic)/Crowdfunding.sol\":1883:1903  donators[msg.sender] */\n      0xffffffffffffffffffffffffffffffffffffffff\n      and\n      0xffffffffffffffffffffffffffffffffffffffff\n      and\n      dup2\n      mstore\n      0x20\n      add\n      swap1\n      dup2\n      mstore\n      0x20\n      add\n      0x00\n      keccak256\n      sload\n        /* \"contracts/PRACTICE/1(Basic)/Crowdfunding.sol\":1883:1907  donators[msg.sender] > 0 */\n      gt\n        /* \"contracts/PRACTICE/1(Basic)/Crowdfunding.sol\":1875:1935  require(donators[msg.sender] > 0, \"You haven't donated yet\") */\n      tag_62\n      jumpi\n      mload(0x40)\n      0x08c379a000000000000000000000000000000000000000000000000000000000\n      dup2\n      mstore\n      0x04\n      add\n      tag_63\n      swap1\n      tag_64\n      jump\t// in\n    tag_63:\n      mload(0x40)\n      dup1\n      swap2\n      sub\n      swap1\n      revert\n    tag_62:\n        /* \"contracts/PRACTICE/1(Basic)/Crowdfunding.sol\":2048:2056  donators */\n      0x04\n        /* \"contracts/PRACTICE/1(Basic)/Crowdfunding.sol\":2048:2068  donators[msg.sender] */\n      0x00\n        /* \"contracts/PRACTICE/1(Basic)/Crowdfunding.sol\":2057:2067  msg.sender */\n      caller\n        /* \"contracts/PRACTICE/1(Basic)/Crowdfunding.sol\":2048:2068  donators[msg.sender] */\n      0xffffffffffffffffffffffffffffffffffffffff\n      and\n      0xffffffffffffffffffffffffffffffffffffffff\n      and\n      dup2\n      mstore\n      0x20\n      add\n      swap1\n      dup2\n      mstore\n      0x20\n      add\n      0x00\n      keccak256\n      sload\n        /* \"contracts/PRACTICE/1(Basic)/Crowdfunding.sol\":2040:2068  return  donators[msg.sender] */\n      swap1\n      pop\n        /* \"contracts/PRACTICE/1(Basic)/Crowdfunding.sol\":1808:2078  function donatorshistory() public view returns(uint){... */\n      swap1\n      jump\t// out\n        /* \"contracts/PRACTICE/1(Basic)/Crowdfunding.sol\":2184:2280  function getBal() public view returns(uint256){... */\n    tag_21:\n        /* \"contracts/PRACTICE/1(Basic)/Crowdfunding.sol\":2222:2229  uint256 */\n      0x00\n        /* \"contracts/PRACTICE/1(Basic)/Crowdfunding.sol\":2248:2269  address(this).balance */\n      selfbalance\n        /* \"contracts/PRACTICE/1(Basic)/Crowdfunding.sol\":2241:2269  return address(this).balance */\n      swap1\n      pop\n        /* \"contracts/PRACTICE/1(Basic)/Crowdfunding.sol\":2184:2280  function getBal() public view returns(uint256){... */\n      swap1\n      jump\t// out\n        /* \"contracts/PRACTICE/1(Basic)/Crowdfunding.sol\":229:249  uint public deadline */\n    tag_25:\n      sload(0x03)\n      dup2\n      jump\t// out\n        /* \"contracts/PRACTICE/1(Basic)/Crowdfunding.sol\":1434:1636  function withdraw() public onlyManager donationOFF {... */\n    tag_29:\n        /* \"contracts/PRACTICE/1(Basic)/Crowdfunding.sol\":391:398  manager */\n      0x01\n      0x00\n      swap1\n      sload\n      swap1\n      0x0100\n      exp\n      swap1\n      div\n      0xffffffffffffffffffffffffffffffffffffffff\n      and\n        /* \"contracts/PRACTICE/1(Basic)/Crowdfunding.sol\":379:398  msg.sender==manager */\n      0xffffffffffffffffffffffffffffffffffffffff\n      and\n        /* \"contracts/PRACTICE/1(Basic)/Crowdfunding.sol\":379:389  msg.sender */\n      caller\n        /* \"contracts/PRACTICE/1(Basic)/Crowdfunding.sol\":379:398  msg.sender==manager */\n      0xffffffffffffffffffffffffffffffffffffffff\n      and\n      eq\n        /* \"contracts/PRACTICE/1(Basic)/Crowdfunding.sol\":371:441  require(msg.sender==manager,\"Only the manager can call this function\") */\n      tag_67\n      jumpi\n      mload(0x40)\n      0x08c379a000000000000000000000000000000000000000000000000000000000\n      dup2\n      mstore\n      0x04\n      add\n      tag_68\n      swap1\n      tag_69\n      jump\t// in\n    tag_68:\n      mload(0x40)\n      dup1\n      swap2\n      sub\n      swap1\n      revert\n    tag_67:\n        /* \"contracts/PRACTICE/1(Basic)/Crowdfunding.sol\":654:662  deadline */\n      sload(0x03)\n        /* \"contracts/PRACTICE/1(Basic)/Crowdfunding.sol\":635:650  block.timestamp */\n      timestamp\n        /* \"contracts/PRACTICE/1(Basic)/Crowdfunding.sol\":635:662  block.timestamp >= deadline */\n      lt\n      iszero\n        /* \"contracts/PRACTICE/1(Basic)/Crowdfunding.sol\":627:703  require(block.timestamp >= deadline, \"The donation period is still ongoing\") */\n      tag_71\n      jumpi\n      mload(0x40)\n      0x08c379a000000000000000000000000000000000000000000000000000000000\n      dup2\n      mstore\n      0x04\n      add\n      tag_72\n      swap1\n      tag_73\n      jump\t// in\n    tag_72:\n      mload(0x40)\n      dup1\n      swap2\n      sub\n      swap1\n      revert\n    tag_71:\n        /* \"contracts/PRACTICE/1(Basic)/Crowdfunding.sol\":1496:1508  uint balance */\n      0x00\n        /* \"contracts/PRACTICE/1(Basic)/Crowdfunding.sol\":1509:1530  address(this).balance */\n      selfbalance\n        /* \"contracts/PRACTICE/1(Basic)/Crowdfunding.sol\":1496:1530  uint balance=address(this).balance */\n      swap1\n      pop\n        /* \"contracts/PRACTICE/1(Basic)/Crowdfunding.sol\":1549:1556  manager */\n      0x01\n      0x00\n      swap1\n      sload\n      swap1\n      0x0100\n      exp\n      swap1\n      div\n      0xffffffffffffffffffffffffffffffffffffffff\n      and\n        /* \"contracts/PRACTICE/1(Basic)/Crowdfunding.sol\":1541:1566  payable(manager).transfer */\n      0xffffffffffffffffffffffffffffffffffffffff\n      and\n        /* \"contracts/PRACTICE/1(Basic)/Crowdfunding.sol\":1541:1575  payable(manager).transfer(balance) */\n      0x08fc\n        /* \"contracts/PRACTICE/1(Basic)/Crowdfunding.sol\":1567:1574  balance */\n      dup3\n        /* \"contracts/PRACTICE/1(Basic)/Crowdfunding.sol\":1541:1575  payable(manager).transfer(balance) */\n      swap1\n      dup2\n      iszero\n      mul\n      swap1\n      mload(0x40)\n      0x00\n      mload(0x40)\n      dup1\n      dup4\n      sub\n      dup2\n      dup6\n      dup9\n      dup9\n      call\n      swap4\n      pop\n      pop\n      pop\n      pop\n      iszero\n      dup1\n      iszero\n      tag_76\n      jumpi\n      returndatacopy(0x00, 0x00, returndatasize)\n      revert(0x00, returndatasize)\n    tag_76:\n      pop\n        /* \"contracts/PRACTICE/1(Basic)/Crowdfunding.sol\":1607:1617  msg.sender */\n      caller\n        /* \"contracts/PRACTICE/1(Basic)/Crowdfunding.sol\":1591:1627  FundsWithdrawn (msg.sender, balance) */\n      0xffffffffffffffffffffffffffffffffffffffff\n      and\n      0xeaff4b37086828766ad3268786972c0cd24259d4c87a80f9d3963a3c3d999b0d\n        /* \"contracts/PRACTICE/1(Basic)/Crowdfunding.sol\":1619:1626  balance */\n      dup3\n        /* \"contracts/PRACTICE/1(Basic)/Crowdfunding.sol\":1591:1627  FundsWithdrawn (msg.sender, balance) */\n      mload(0x40)\n      tag_77\n      swap2\n      swap1\n      tag_18\n      jump\t// in\n    tag_77:\n      mload(0x40)\n      dup1\n      swap2\n      sub\n      swap1\n      log2\n        /* \"contracts/PRACTICE/1(Basic)/Crowdfunding.sol\":1485:1636  {... */\n      pop\n        /* \"contracts/PRACTICE/1(Basic)/Crowdfunding.sol\":1434:1636  function withdraw() public onlyManager donationOFF {... */\n      jump\t// out\n        /* \"contracts/PRACTICE/1(Basic)/Crowdfunding.sol\":172:194  address public manager */\n    tag_32:\n      0x01\n      0x00\n      swap1\n      sload\n      swap1\n      0x0100\n      exp\n      swap1\n      div\n      0xffffffffffffffffffffffffffffffffffffffff\n      and\n      dup2\n      jump\t// out\n        /* \"contracts/PRACTICE/1(Basic)/Crowdfunding.sol\":201:222  string public purpose */\n    tag_37:\n      0x02\n      dup1\n      sload\n      tag_78\n      swap1\n      tag_79\n      jump\t// in\n    tag_78:\n      dup1\n      0x1f\n      add\n      0x20\n      dup1\n      swap2\n      div\n      mul\n      0x20\n      add\n      mload(0x40)\n      swap1\n      dup2\n      add\n      0x40\n      mstore\n      dup1\n      swap3\n      swap2\n      swap1\n      dup2\n      dup2\n      mstore\n      0x20\n      add\n      dup3\n      dup1\n      sload\n      tag_80\n      swap1\n      tag_79\n      jump\t// in\n    tag_80:\n      dup1\n      iszero\n      tag_81\n      jumpi\n      dup1\n      0x1f\n      lt\n      tag_82\n      jumpi\n      0x0100\n      dup1\n      dup4\n      sload\n      div\n      mul\n      dup4\n      mstore\n      swap2\n      0x20\n      add\n      swap2\n      jump(tag_81)\n    tag_82:\n      dup3\n      add\n      swap2\n      swap1\n      0x00\n      mstore\n      keccak256(0x00, 0x20)\n      swap1\n    tag_83:\n      dup2\n      sload\n      dup2\n      mstore\n      swap1\n      0x01\n      add\n      swap1\n      0x20\n      add\n      dup1\n      dup4\n      gt\n      tag_83\n      jumpi\n      dup3\n      swap1\n      sub\n      0x1f\n      and\n      dup3\n      add\n      swap2\n    tag_81:\n      pop\n      pop\n      pop\n      pop\n      pop\n      dup2\n      jump\t// out\n        /* \"contracts/PRACTICE/1(Basic)/Crowdfunding.sol\":1644:1800  function updatePurpose(string memory _newPurpose) public onlyManager{... */\n    tag_44:\n        /* \"contracts/PRACTICE/1(Basic)/Crowdfunding.sol\":391:398  manager */\n      0x01\n      0x00\n      swap1\n      sload\n      swap1\n      0x0100\n      exp\n      swap1\n      div\n      0xffffffffffffffffffffffffffffffffffffffff\n      and\n        /* \"contracts/PRACTICE/1(Basic)/Crowdfunding.sol\":379:398  msg.sender==manager */\n      0xffffffffffffffffffffffffffffffffffffffff\n      and\n        /* \"contracts/PRACTICE/1(Basic)/Crowdfunding.sol\":379:389  msg.sender */\n      caller\n        /* \"contracts/PRACTICE/1(Basic)/Crowdfunding.sol\":379:398  msg.sender==manager */\n      0xffffffffffffffffffffffffffffffffffffffff\n      and\n      eq\n        /* \"contracts/PRACTICE/1(Basic)/Crowdfunding.sol\":371:441  require(msg.sender==manager,\"Only the manager can call this function\") */\n      tag_85\n      jumpi\n      mload(0x40)\n      0x08c379a000000000000000000000000000000000000000000000000000000000\n      dup2\n      mstore\n      0x04\n      add\n      tag_86\n      swap1\n      tag_69\n      jump\t// in\n    tag_86:\n      mload(0x40)\n      dup1\n      swap2\n      sub\n      swap1\n      revert\n    tag_85:\n        /* \"contracts/PRACTICE/1(Basic)/Crowdfunding.sol\":1732:1743  _newPurpose */\n      dup1\n        /* \"contracts/PRACTICE/1(Basic)/Crowdfunding.sol\":1724:1731  purpose */\n      0x02\n        /* \"contracts/PRACTICE/1(Basic)/Crowdfunding.sol\":1724:1743  purpose=_newPurpose */\n      swap1\n      dup2\n      tag_88\n      swap2\n      swap1\n      tag_89\n      jump\t// in\n    tag_88:\n      pop\n        /* \"contracts/PRACTICE/1(Basic)/Crowdfunding.sol\":1764:1791  PurposeUpdated(_newPurpose) */\n      0x780a50935e552bbb4121484821a2d661ad401d0428934b0b3b388acf07d58034\n        /* \"contracts/PRACTICE/1(Basic)/Crowdfunding.sol\":1779:1790  _newPurpose */\n      dup2\n        /* \"contracts/PRACTICE/1(Basic)/Crowdfunding.sol\":1764:1791  PurposeUpdated(_newPurpose) */\n      mload(0x40)\n      tag_90\n      swap2\n      swap1\n      tag_39\n      jump\t// in\n    tag_90:\n      mload(0x40)\n      dup1\n      swap2\n      sub\n      swap1\n      log1\n        /* \"contracts/PRACTICE/1(Basic)/Crowdfunding.sol\":1644:1800  function updatePurpose(string memory _newPurpose) public onlyManager{... */\n      pop\n      jump\t// out\n        /* \"contracts/PRACTICE/1(Basic)/Crowdfunding.sol\":2086:2176  function returndonators() public view returns(uint){... */\n    tag_47:\n        /* \"contracts/PRACTICE/1(Basic)/Crowdfunding.sol\":2132:2136  uint */\n      0x00\n        /* \"contracts/PRACTICE/1(Basic)/Crowdfunding.sol\":2155:2167  noofdonators */\n      sload(0x05)\n        /* \"contracts/PRACTICE/1(Basic)/Crowdfunding.sol\":2148:2167  return noofdonators */\n      swap1\n      pop\n        /* \"contracts/PRACTICE/1(Basic)/Crowdfunding.sol\":2086:2176  function returndonators() public view returns(uint){... */\n      swap1\n      jump\t// out\n        /* \"contracts/PRACTICE/1(Basic)/Crowdfunding.sol\":305:329  uint public noofdonators */\n    tag_51:\n      sload(0x05)\n      dup2\n      jump\t// out\n        /* \"contracts/PRACTICE/1(Basic)/Crowdfunding.sol\":258:296  mapping(address=>uint) public donators */\n    tag_57:\n      mstore(0x20, 0x04)\n      dup1\n      0x00\n      mstore\n      keccak256(0x00, 0x40)\n      0x00\n      swap2\n      pop\n      swap1\n      pop\n      sload\n      dup2\n      jump\t// out\n        /* \"contracts/PRACTICE/1(Basic)/Crowdfunding.sol\":1079:1422  function donate() public payable donationON {... */\n    tag_60:\n        /* \"contracts/PRACTICE/1(Basic)/Crowdfunding.sol\":523:531  deadline */\n      sload(0x03)\n        /* \"contracts/PRACTICE/1(Basic)/Crowdfunding.sol\":507:522  block.timestamp */\n      timestamp\n        /* \"contracts/PRACTICE/1(Basic)/Crowdfunding.sol\":507:531  block.timestamp<deadline */\n      lt\n        /* \"contracts/PRACTICE/1(Basic)/Crowdfunding.sol\":499:564  require(block.timestamp<deadline,\"The donation period has ended\") */\n      tag_93\n      jumpi\n      mload(0x40)\n      0x08c379a000000000000000000000000000000000000000000000000000000000\n      dup2\n      mstore\n      0x04\n      add\n      tag_94\n      swap1\n      tag_95\n      jump\t// in\n    tag_94:\n      mload(0x40)\n      dup1\n      swap2\n      sub\n      swap1\n      revert\n    tag_93:\n        /* \"contracts/PRACTICE/1(Basic)/Crowdfunding.sol\":1153:1161  10 ether */\n      0x8ac7230489e80000\n        /* \"contracts/PRACTICE/1(Basic)/Crowdfunding.sol\":1142:1151  msg.value */\n      callvalue\n        /* \"contracts/PRACTICE/1(Basic)/Crowdfunding.sol\":1142:1161  msg.value>=10 ether */\n      lt\n      iszero\n        /* \"contracts/PRACTICE/1(Basic)/Crowdfunding.sol\":1134:1186  require(msg.value>=10 ether,\"at least pay 10 ether\") */\n      tag_97\n      jumpi\n      mload(0x40)\n      0x08c379a000000000000000000000000000000000000000000000000000000000\n      dup2\n      mstore\n      0x04\n      add\n      tag_98\n      swap1\n      tag_99\n      jump\t// in\n    tag_98:\n      mload(0x40)\n      dup1\n      swap2\n      sub\n      swap1\n      revert\n    tag_97:\n        /* \"contracts/PRACTICE/1(Basic)/Crowdfunding.sol\":1224:1225  0 */\n      0x00\n        /* \"contracts/PRACTICE/1(Basic)/Crowdfunding.sol\":1202:1210  donators */\n      0x04\n        /* \"contracts/PRACTICE/1(Basic)/Crowdfunding.sol\":1202:1222  donators[msg.sender] */\n      0x00\n        /* \"contracts/PRACTICE/1(Basic)/Crowdfunding.sol\":1211:1221  msg.sender */\n      caller\n        /* \"contracts/PRACTICE/1(Basic)/Crowdfunding.sol\":1202:1222  donators[msg.sender] */\n      0xffffffffffffffffffffffffffffffffffffffff\n      and\n      0xffffffffffffffffffffffffffffffffffffffff\n      and\n      dup2\n      mstore\n      0x20\n      add\n      swap1\n      dup2\n      mstore\n      0x20\n      add\n      0x00\n      keccak256\n      sload\n        /* \"contracts/PRACTICE/1(Basic)/Crowdfunding.sol\":1202:1225  donators[msg.sender]==0 */\n      sub\n        /* \"contracts/PRACTICE/1(Basic)/Crowdfunding.sol\":1199:1277  if(donators[msg.sender]==0)... */\n      tag_100\n      jumpi\n        /* \"contracts/PRACTICE/1(Basic)/Crowdfunding.sol\":1251:1263  noofdonators */\n      0x05\n      0x00\n        /* \"contracts/PRACTICE/1(Basic)/Crowdfunding.sol\":1251:1265  noofdonators++ */\n      dup2\n      sload\n      dup1\n      swap3\n      swap2\n      swap1\n      tag_101\n      swap1\n      tag_102\n      jump\t// in\n    tag_101:\n      swap2\n      swap1\n      pop\n      sstore\n      pop\n        /* \"contracts/PRACTICE/1(Basic)/Crowdfunding.sol\":1199:1277  if(donators[msg.sender]==0)... */\n    tag_100:\n        /* \"contracts/PRACTICE/1(Basic)/Crowdfunding.sol\":1316:1325  msg.value */\n      callvalue\n        /* \"contracts/PRACTICE/1(Basic)/Crowdfunding.sol\":1292:1300  donators */\n      0x04\n        /* \"contracts/PRACTICE/1(Basic)/Crowdfunding.sol\":1292:1312  donators[msg.sender] */\n      0x00\n        /* \"contracts/PRACTICE/1(Basic)/Crowdfunding.sol\":1301:1311  msg.sender */\n      caller\n        /* \"contracts/PRACTICE/1(Basic)/Crowdfunding.sol\":1292:1312  donators[msg.sender] */\n      0xffffffffffffffffffffffffffffffffffffffff\n      and\n      0xffffffffffffffffffffffffffffffffffffffff\n      and\n      dup2\n      mstore\n      0x20\n      add\n      swap1\n      dup2\n      mstore\n      0x20\n      add\n      0x00\n      keccak256\n      0x00\n        /* \"contracts/PRACTICE/1(Basic)/Crowdfunding.sol\":1292:1325  donators[msg.sender] += msg.value */\n      dup3\n      dup3\n      sload\n      tag_103\n      swap2\n      swap1\n      tag_104\n      jump\t// in\n    tag_103:\n      swap3\n      pop\n      pop\n      dup2\n      swap1\n      sstore\n      pop\n        /* \"contracts/PRACTICE/1(Basic)/Crowdfunding.sol\":1392:1402  msg.sender */\n      caller\n        /* \"contracts/PRACTICE/1(Basic)/Crowdfunding.sol\":1379:1413  DonationMade(msg.sender,msg.value) */\n      0xffffffffffffffffffffffffffffffffffffffff\n      and\n      0xaa13962bc79c7a0bc42cb8169b1705f0a6b55cc404ffb8a589d771ca78675978\n        /* \"contracts/PRACTICE/1(Basic)/Crowdfunding.sol\":1403:1412  msg.value */\n      callvalue\n        /* \"contracts/PRACTICE/1(Basic)/Crowdfunding.sol\":1379:1413  DonationMade(msg.sender,msg.value) */\n      mload(0x40)\n      tag_105\n      swap2\n      swap1\n      tag_18\n      jump\t// in\n    tag_105:\n      mload(0x40)\n      dup1\n      swap2\n      sub\n      swap1\n      log2\n        /* \"contracts/PRACTICE/1(Basic)/Crowdfunding.sol\":1079:1422  function donate() public payable donationON {... */\n      jump\t// out\n        /* \"#utility.yul\":7:84   */\n    tag_106:\n        /* \"#utility.yul\":44:51   */\n      0x00\n        /* \"#utility.yul\":73:78   */\n      dup2\n        /* \"#utility.yul\":62:78   */\n      swap1\n      pop\n        /* \"#utility.yul\":7:84   */\n      swap2\n      swap1\n      pop\n      jump\t// out\n        /* \"#utility.yul\":90:208   */\n    tag_107:\n        /* \"#utility.yul\":177:201   */\n      tag_160\n        /* \"#utility.yul\":195:200   */\n      dup2\n        /* \"#utility.yul\":177:201   */\n      tag_106\n      jump\t// in\n    tag_160:\n        /* \"#utility.yul\":172:175   */\n      dup3\n        /* \"#utility.yul\":165:202   */\n      mstore\n        /* \"#utility.yul\":90:208   */\n      pop\n      pop\n      jump\t// out\n        /* \"#utility.yul\":214:436   */\n    tag_18:\n        /* \"#utility.yul\":307:311   */\n      0x00\n        /* \"#utility.yul\":345:347   */\n      0x20\n        /* \"#utility.yul\":334:343   */\n      dup3\n        /* \"#utility.yul\":330:348   */\n      add\n        /* \"#utility.yul\":322:348   */\n      swap1\n      pop\n        /* \"#utility.yul\":358:429   */\n      tag_162\n        /* \"#utility.yul\":426:427   */\n      0x00\n        /* \"#utility.yul\":415:424   */\n      dup4\n        /* \"#utility.yul\":411:428   */\n      add\n        /* \"#utility.yul\":402:408   */\n      dup5\n        /* \"#utility.yul\":358:429   */\n      tag_107\n      jump\t// in\n    tag_162:\n        /* \"#utility.yul\":214:436   */\n      swap3\n      swap2\n      pop\n      pop\n      jump\t// out\n        /* \"#utility.yul\":442:568   */\n    tag_108:\n        /* \"#utility.yul\":479:486   */\n      0x00\n        /* \"#utility.yul\":519:561   */\n      0xffffffffffffffffffffffffffffffffffffffff\n        /* \"#utility.yul\":512:517   */\n      dup3\n        /* \"#utility.yul\":508:562   */\n      and\n        /* \"#utility.yul\":497:562   */\n      swap1\n      pop\n        /* \"#utility.yul\":442:568   */\n      swap2\n      swap1\n      pop\n      jump\t// out\n        /* \"#utility.yul\":574:670   */\n    tag_109:\n        /* \"#utility.yul\":611:618   */\n      0x00\n        /* \"#utility.yul\":640:664   */\n      tag_165\n        /* \"#utility.yul\":658:663   */\n      dup3\n        /* \"#utility.yul\":640:664   */\n      tag_108\n      jump\t// in\n    tag_165:\n        /* \"#utility.yul\":629:664   */\n      swap1\n      pop\n        /* \"#utility.yul\":574:670   */\n      swap2\n      swap1\n      pop\n      jump\t// out\n        /* \"#utility.yul\":676:794   */\n    tag_110:\n        /* \"#utility.yul\":763:787   */\n      tag_167\n        /* \"#utility.yul\":781:786   */\n      dup2\n        /* \"#utility.yul\":763:787   */\n      tag_109\n      jump\t// in\n    tag_167:\n        /* \"#utility.yul\":758:761   */\n      dup3\n        /* \"#utility.yul\":751:788   */\n      mstore\n        /* \"#utility.yul\":676:794   */\n      pop\n      pop\n      jump\t// out\n        /* \"#utility.yul\":800:1022   */\n    tag_34:\n        /* \"#utility.yul\":893:897   */\n      0x00\n        /* \"#utility.yul\":931:933   */\n      0x20\n        /* \"#utility.yul\":920:929   */\n      dup3\n        /* \"#utility.yul\":916:934   */\n      add\n        /* \"#utility.yul\":908:934   */\n      swap1\n      pop\n        /* \"#utility.yul\":944:1015   */\n      tag_169\n        /* \"#utility.yul\":1012:1013   */\n      0x00\n        /* \"#utility.yul\":1001:1010   */\n      dup4\n        /* \"#utility.yul\":997:1014   */\n      add\n        /* \"#utility.yul\":988:994   */\n      dup5\n        /* \"#utility.yul\":944:1015   */\n      tag_110\n      jump\t// in\n    tag_169:\n        /* \"#utility.yul\":800:1022   */\n      swap3\n      swap2\n      pop\n      pop\n      jump\t// out\n        /* \"#utility.yul\":1028:1127   */\n    tag_111:\n        /* \"#utility.yul\":1080:1086   */\n      0x00\n        /* \"#utility.yul\":1114:1119   */\n      dup2\n        /* \"#utility.yul\":1108:1120   */\n      mload\n        /* \"#utility.yul\":1098:1120   */\n      swap1\n      pop\n        /* \"#utility.yul\":1028:1127   */\n      swap2\n      swap1\n      pop\n      jump\t// out\n        /* \"#utility.yul\":1133:1302   */\n    tag_112:\n        /* \"#utility.yul\":1217:1228   */\n      0x00\n        /* \"#utility.yul\":1251:1257   */\n      dup3\n        /* \"#utility.yul\":1246:1249   */\n      dup3\n        /* \"#utility.yul\":1239:1258   */\n      mstore\n        /* \"#utility.yul\":1291:1295   */\n      0x20\n        /* \"#utility.yul\":1286:1289   */\n      dup3\n        /* \"#utility.yul\":1282:1296   */\n      add\n        /* \"#utility.yul\":1267:1296   */\n      swap1\n      pop\n        /* \"#utility.yul\":1133:1302   */\n      swap3\n      swap2\n      pop\n      pop\n      jump\t// out\n        /* \"#utility.yul\":1308:1447   */\n    tag_113:\n        /* \"#utility.yul\":1397:1403   */\n      dup3\n        /* \"#utility.yul\":1392:1395   */\n      dup2\n        /* \"#utility.yul\":1387:1390   */\n      dup4\n        /* \"#utility.yul\":1381:1404   */\n      mcopy\n        /* \"#utility.yul\":1438:1439   */\n      0x00\n        /* \"#utility.yul\":1429:1435   */\n      dup4\n        /* \"#utility.yul\":1424:1427   */\n      dup4\n        /* \"#utility.yul\":1420:1436   */\n      add\n        /* \"#utility.yul\":1413:1440   */\n      mstore\n        /* \"#utility.yul\":1308:1447   */\n      pop\n      pop\n      pop\n      jump\t// out\n        /* \"#utility.yul\":1453:1555   */\n    tag_114:\n        /* \"#utility.yul\":1494:1500   */\n      0x00\n        /* \"#utility.yul\":1545:1547   */\n      0x1f\n        /* \"#utility.yul\":1541:1548   */\n      not\n        /* \"#utility.yul\":1536:1538   */\n      0x1f\n        /* \"#utility.yul\":1529:1534   */\n      dup4\n        /* \"#utility.yul\":1525:1539   */\n      add\n        /* \"#utility.yul\":1521:1549   */\n      and\n        /* \"#utility.yul\":1511:1549   */\n      swap1\n      pop\n        /* \"#utility.yul\":1453:1555   */\n      swap2\n      swap1\n      pop\n      jump\t// out\n        /* \"#utility.yul\":1561:1938   */\n    tag_115:\n        /* \"#utility.yul\":1649:1652   */\n      0x00\n        /* \"#utility.yul\":1677:1716   */\n      tag_175\n        /* \"#utility.yul\":1710:1715   */\n      dup3\n        /* \"#utility.yul\":1677:1716   */\n      tag_111\n      jump\t// in\n    tag_175:\n        /* \"#utility.yul\":1732:1803   */\n      tag_176\n        /* \"#utility.yul\":1796:1802   */\n      dup2\n        /* \"#utility.yul\":1791:1794   */\n      dup6\n        /* \"#utility.yul\":1732:1803   */\n      tag_112\n      jump\t// in\n    tag_176:\n        /* \"#utility.yul\":1725:1803   */\n      swap4\n      pop\n        /* \"#utility.yul\":1812:1877   */\n      tag_177\n        /* \"#utility.yul\":1870:1876   */\n      dup2\n        /* \"#utility.yul\":1865:1868   */\n      dup6\n        /* \"#utility.yul\":1858:1862   */\n      0x20\n        /* \"#utility.yul\":1851:1856   */\n      dup7\n        /* \"#utility.yul\":1847:1863   */\n      add\n        /* \"#utility.yul\":1812:1877   */\n      tag_113\n      jump\t// in\n    tag_177:\n        /* \"#utility.yul\":1902:1931   */\n      tag_178\n        /* \"#utility.yul\":1924:1930   */\n      dup2\n        /* \"#utility.yul\":1902:1931   */\n      tag_114\n      jump\t// in\n    tag_178:\n        /* \"#utility.yul\":1897:1900   */\n      dup5\n        /* \"#utility.yul\":1893:1932   */\n      add\n        /* \"#utility.yul\":1886:1932   */\n      swap2\n      pop\n        /* \"#utility.yul\":1653:1938   */\n      pop\n        /* \"#utility.yul\":1561:1938   */\n      swap3\n      swap2\n      pop\n      pop\n      jump\t// out\n        /* \"#utility.yul\":1944:2257   */\n    tag_39:\n        /* \"#utility.yul\":2057:2061   */\n      0x00\n        /* \"#utility.yul\":2095:2097   */\n      0x20\n        /* \"#utility.yul\":2084:2093   */\n      dup3\n        /* \"#utility.yul\":2080:2098   */\n      add\n        /* \"#utility.yul\":2072:2098   */\n      swap1\n      pop\n        /* \"#utility.yul\":2144:2153   */\n      dup2\n        /* \"#utility.yul\":2138:2142   */\n      dup2\n        /* \"#utility.yul\":2134:2154   */\n      sub\n        /* \"#utility.yul\":2130:2131   */\n      0x00\n        /* \"#utility.yul\":2119:2128   */\n      dup4\n        /* \"#utility.yul\":2115:2132   */\n      add\n        /* \"#utility.yul\":2108:2155   */\n      mstore\n        /* \"#utility.yul\":2172:2250   */\n      tag_180\n        /* \"#utility.yul\":2245:2249   */\n      dup2\n        /* \"#utility.yul\":2236:2242   */\n      dup5\n        /* \"#utility.yul\":2172:2250   */\n      tag_115\n      jump\t// in\n    tag_180:\n        /* \"#utility.yul\":2164:2250   */\n      swap1\n      pop\n        /* \"#utility.yul\":1944:2257   */\n      swap3\n      swap2\n      pop\n      pop\n      jump\t// out\n        /* \"#utility.yul\":2263:2338   */\n    tag_116:\n        /* \"#utility.yul\":2296:2302   */\n      0x00\n        /* \"#utility.yul\":2329:2331   */\n      0x40\n        /* \"#utility.yul\":2323:2332   */\n      mload\n        /* \"#utility.yul\":2313:2332   */\n      swap1\n      pop\n        /* \"#utility.yul\":2263:2338   */\n      swap1\n      jump\t// out\n        /* \"#utility.yul\":2344:2461   */\n    tag_117:\n        /* \"#utility.yul\":2453:2454   */\n      0x00\n        /* \"#utility.yul\":2450:2451   */\n      0x00\n        /* \"#utility.yul\":2443:2455   */\n      revert\n        /* \"#utility.yul\":2467:2584   */\n    tag_118:\n        /* \"#utility.yul\":2576:2577   */\n      0x00\n        /* \"#utility.yul\":2573:2574   */\n      0x00\n        /* \"#utility.yul\":2566:2578   */\n      revert\n        /* \"#utility.yul\":2590:2707   */\n    tag_119:\n        /* \"#utility.yul\":2699:2700   */\n      0x00\n        /* \"#utility.yul\":2696:2697   */\n      0x00\n        /* \"#utility.yul\":2689:2701   */\n      revert\n        /* \"#utility.yul\":2713:2830   */\n    tag_120:\n        /* \"#utility.yul\":2822:2823   */\n      0x00\n        /* \"#utility.yul\":2819:2820   */\n      0x00\n        /* \"#utility.yul\":2812:2824   */\n      revert\n        /* \"#utility.yul\":2836:3016   */\n    tag_121:\n        /* \"#utility.yul\":2884:2961   */\n      0x4e487b7100000000000000000000000000000000000000000000000000000000\n        /* \"#utility.yul\":2881:2882   */\n      0x00\n        /* \"#utility.yul\":2874:2962   */\n      mstore\n        /* \"#utility.yul\":2981:2985   */\n      0x41\n        /* \"#utility.yul\":2978:2979   */\n      0x04\n        /* \"#utility.yul\":2971:2986   */\n      mstore\n        /* \"#utility.yul\":3005:3009   */\n      0x24\n        /* \"#utility.yul\":3002:3003   */\n      0x00\n        /* \"#utility.yul\":2995:3010   */\n      revert\n        /* \"#utility.yul\":3022:3303   */\n    tag_122:\n        /* \"#utility.yul\":3105:3132   */\n      tag_188\n        /* \"#utility.yul\":3127:3131   */\n      dup3\n        /* \"#utility.yul\":3105:3132   */\n      tag_114\n      jump\t// in\n    tag_188:\n        /* \"#utility.yul\":3097:3103   */\n      dup2\n        /* \"#utility.yul\":3093:3133   */\n      add\n        /* \"#utility.yul\":3235:3241   */\n      dup2\n        /* \"#utility.yul\":3223:3233   */\n      dup2\n        /* \"#utility.yul\":3220:3242   */\n      lt\n        /* \"#utility.yul\":3199:3217   */\n      0xffffffffffffffff\n        /* \"#utility.yul\":3187:3197   */\n      dup3\n        /* \"#utility.yul\":3184:3218   */\n      gt\n        /* \"#utility.yul\":3181:3243   */\n      or\n        /* \"#utility.yul\":3178:3266   */\n      iszero\n      tag_189\n      jumpi\n        /* \"#utility.yul\":3246:3264   */\n      tag_190\n      tag_121\n      jump\t// in\n    tag_190:\n        /* \"#utility.yul\":3178:3266   */\n    tag_189:\n        /* \"#utility.yul\":3286:3296   */\n      dup1\n        /* \"#utility.yul\":3282:3284   */\n      0x40\n        /* \"#utility.yul\":3275:3297   */\n      mstore\n        /* \"#utility.yul\":3065:3303   */\n      pop\n        /* \"#utility.yul\":3022:3303   */\n      pop\n      pop\n      jump\t// out\n        /* \"#utility.yul\":3309:3438   */\n    tag_123:\n        /* \"#utility.yul\":3343:3349   */\n      0x00\n        /* \"#utility.yul\":3370:3390   */\n      tag_192\n      tag_116\n      jump\t// in\n    tag_192:\n        /* \"#utility.yul\":3360:3390   */\n      swap1\n      pop\n        /* \"#utility.yul\":3399:3432   */\n      tag_193\n        /* \"#utility.yul\":3427:3431   */\n      dup3\n        /* \"#utility.yul\":3419:3425   */\n      dup3\n        /* \"#utility.yul\":3399:3432   */\n      tag_122\n      jump\t// in\n    tag_193:\n        /* \"#utility.yul\":3309:3438   */\n      swap2\n      swap1\n      pop\n      jump\t// out\n        /* \"#utility.yul\":3444:3752   */\n    tag_124:\n        /* \"#utility.yul\":3506:3510   */\n      0x00\n        /* \"#utility.yul\":3596:3614   */\n      0xffffffffffffffff\n        /* \"#utility.yul\":3588:3594   */\n      dup3\n        /* \"#utility.yul\":3585:3615   */\n      gt\n        /* \"#utility.yul\":3582:3638   */\n      iszero\n      tag_195\n      jumpi\n        /* \"#utility.yul\":3618:3636   */\n      tag_196\n      tag_121\n      jump\t// in\n    tag_196:\n        /* \"#utility.yul\":3582:3638   */\n    tag_195:\n        /* \"#utility.yul\":3656:3685   */\n      tag_197\n        /* \"#utility.yul\":3678:3684   */\n      dup3\n        /* \"#utility.yul\":3656:3685   */\n      tag_114\n      jump\t// in\n    tag_197:\n        /* \"#utility.yul\":3648:3685   */\n      swap1\n      pop\n        /* \"#utility.yul\":3740:3744   */\n      0x20\n        /* \"#utility.yul\":3734:3738   */\n      dup2\n        /* \"#utility.yul\":3730:3745   */\n      add\n        /* \"#utility.yul\":3722:3745   */\n      swap1\n      pop\n        /* \"#utility.yul\":3444:3752   */\n      swap2\n      swap1\n      pop\n      jump\t// out\n        /* \"#utility.yul\":3758:3906   */\n    tag_125:\n        /* \"#utility.yul\":3856:3862   */\n      dup3\n        /* \"#utility.yul\":3851:3854   */\n      dup2\n        /* \"#utility.yul\":3846:3849   */\n      dup4\n        /* \"#utility.yul\":3833:3863   */\n      calldatacopy\n        /* \"#utility.yul\":3897:3898   */\n      0x00\n        /* \"#utility.yul\":3888:3894   */\n      dup4\n        /* \"#utility.yul\":3883:3886   */\n      dup4\n        /* \"#utility.yul\":3879:3895   */\n      add\n        /* \"#utility.yul\":3872:3899   */\n      mstore\n        /* \"#utility.yul\":3758:3906   */\n      pop\n      pop\n      pop\n      jump\t// out\n        /* \"#utility.yul\":3912:4337   */\n    tag_126:\n        /* \"#utility.yul\":3990:3995   */\n      0x00\n        /* \"#utility.yul\":4015:4081   */\n      tag_200\n        /* \"#utility.yul\":4031:4080   */\n      tag_201\n        /* \"#utility.yul\":4073:4079   */\n      dup5\n        /* \"#utility.yul\":4031:4080   */\n      tag_124\n      jump\t// in\n    tag_201:\n        /* \"#utility.yul\":4015:4081   */\n      tag_123\n      jump\t// in\n    tag_200:\n        /* \"#utility.yul\":4006:4081   */\n      swap1\n      pop\n        /* \"#utility.yul\":4104:4110   */\n      dup3\n        /* \"#utility.yul\":4097:4102   */\n      dup2\n        /* \"#utility.yul\":4090:4111   */\n      mstore\n        /* \"#utility.yul\":4142:4146   */\n      0x20\n        /* \"#utility.yul\":4135:4140   */\n      dup2\n        /* \"#utility.yul\":4131:4147   */\n      add\n        /* \"#utility.yul\":4180:4183   */\n      dup5\n        /* \"#utility.yul\":4171:4177   */\n      dup5\n        /* \"#utility.yul\":4166:4169   */\n      dup5\n        /* \"#utility.yul\":4162:4178   */\n      add\n        /* \"#utility.yul\":4159:4184   */\n      gt\n        /* \"#utility.yul\":4156:4268   */\n      iszero\n      tag_202\n      jumpi\n        /* \"#utility.yul\":4187:4266   */\n      tag_203\n      tag_120\n      jump\t// in\n    tag_203:\n        /* \"#utility.yul\":4156:4268   */\n    tag_202:\n        /* \"#utility.yul\":4277:4331   */\n      tag_204\n        /* \"#utility.yul\":4324:4330   */\n      dup5\n        /* \"#utility.yul\":4319:4322   */\n      dup3\n        /* \"#utility.yul\":4314:4317   */\n      dup6\n        /* \"#utility.yul\":4277:4331   */\n      tag_125\n      jump\t// in\n    tag_204:\n        /* \"#utility.yul\":3996:4337   */\n      pop\n        /* \"#utility.yul\":3912:4337   */\n      swap4\n      swap3\n      pop\n      pop\n      pop\n      jump\t// out\n        /* \"#utility.yul\":4357:4697   */\n    tag_127:\n        /* \"#utility.yul\":4413:4418   */\n      0x00\n        /* \"#utility.yul\":4462:4465   */\n      dup3\n        /* \"#utility.yul\":4455:4459   */\n      0x1f\n        /* \"#utility.yul\":4447:4453   */\n      dup4\n        /* \"#utility.yul\":4443:4460   */\n      add\n        /* \"#utility.yul\":4439:4466   */\n      slt\n        /* \"#utility.yul\":4429:4551   */\n      tag_206\n      jumpi\n        /* \"#utility.yul\":4470:4549   */\n      tag_207\n      tag_119\n      jump\t// in\n    tag_207:\n        /* \"#utility.yul\":4429:4551   */\n    tag_206:\n        /* \"#utility.yul\":4587:4593   */\n      dup2\n        /* \"#utility.yul\":4574:4594   */\n      calldataload\n        /* \"#utility.yul\":4612:4691   */\n      tag_208\n        /* \"#utility.yul\":4687:4690   */\n      dup5\n        /* \"#utility.yul\":4679:4685   */\n      dup3\n        /* \"#utility.yul\":4672:4676   */\n      0x20\n        /* \"#utility.yul\":4664:4670   */\n      dup7\n        /* \"#utility.yul\":4660:4677   */\n      add\n        /* \"#utility.yul\":4612:4691   */\n      tag_126\n      jump\t// in\n    tag_208:\n        /* \"#utility.yul\":4603:4691   */\n      swap2\n      pop\n        /* \"#utility.yul\":4419:4697   */\n      pop\n        /* \"#utility.yul\":4357:4697   */\n      swap3\n      swap2\n      pop\n      pop\n      jump\t// out\n        /* \"#utility.yul\":4703:5212   */\n    tag_43:\n        /* \"#utility.yul\":4772:4778   */\n      0x00\n        /* \"#utility.yul\":4821:4823   */\n      0x20\n        /* \"#utility.yul\":4809:4818   */\n      dup3\n        /* \"#utility.yul\":4800:4807   */\n      dup5\n        /* \"#utility.yul\":4796:4819   */\n      sub\n        /* \"#utility.yul\":4792:4824   */\n      slt\n        /* \"#utility.yul\":4789:4908   */\n      iszero\n      tag_210\n      jumpi\n        /* \"#utility.yul\":4827:4906   */\n      tag_211\n      tag_117\n      jump\t// in\n    tag_211:\n        /* \"#utility.yul\":4789:4908   */\n    tag_210:\n        /* \"#utility.yul\":4975:4976   */\n      0x00\n        /* \"#utility.yul\":4964:4973   */\n      dup3\n        /* \"#utility.yul\":4960:4977   */\n      add\n        /* \"#utility.yul\":4947:4978   */\n      calldataload\n        /* \"#utility.yul\":5005:5023   */\n      0xffffffffffffffff\n        /* \"#utility.yul\":4997:5003   */\n      dup2\n        /* \"#utility.yul\":4994:5024   */\n      gt\n        /* \"#utility.yul\":4991:5108   */\n      iszero\n      tag_212\n      jumpi\n        /* \"#utility.yul\":5027:5106   */\n      tag_213\n      tag_118\n      jump\t// in\n    tag_213:\n        /* \"#utility.yul\":4991:5108   */\n    tag_212:\n        /* \"#utility.yul\":5132:5195   */\n      tag_214\n        /* \"#utility.yul\":5187:5194   */\n      dup5\n        /* \"#utility.yul\":5178:5184   */\n      dup3\n        /* \"#utility.yul\":5167:5176   */\n      dup6\n        /* \"#utility.yul\":5163:5185   */\n      add\n        /* \"#utility.yul\":5132:5195   */\n      tag_127\n      jump\t// in\n    tag_214:\n        /* \"#utility.yul\":5122:5195   */\n      swap2\n      pop\n        /* \"#utility.yul\":4918:5205   */\n      pop\n        /* \"#utility.yul\":4703:5212   */\n      swap3\n      swap2\n      pop\n      pop\n      jump\t// out\n        /* \"#utility.yul\":5218:5340   */\n    tag_128:\n        /* \"#utility.yul\":5291:5315   */\n      tag_216\n        /* \"#utility.yul\":5309:5314   */\n      dup2\n        /* \"#utility.yul\":5291:5315   */\n      tag_109\n      jump\t// in\n    tag_216:\n        /* \"#utility.yul\":5284:5289   */\n      dup2\n        /* \"#utility.yul\":5281:5316   */\n      eq\n        /* \"#utility.yul\":5271:5334   */\n      tag_217\n      jumpi\n        /* \"#utility.yul\":5330:5331   */\n      0x00\n        /* \"#utility.yul\":5327:5328   */\n      0x00\n        /* \"#utility.yul\":5320:5332   */\n      revert\n        /* \"#utility.yul\":5271:5334   */\n    tag_217:\n        /* \"#utility.yul\":5218:5340   */\n      pop\n      jump\t// out\n        /* \"#utility.yul\":5346:5485   */\n    tag_129:\n        /* \"#utility.yul\":5392:5397   */\n      0x00\n        /* \"#utility.yul\":5430:5436   */\n      dup2\n        /* \"#utility.yul\":5417:5437   */\n      calldataload\n        /* \"#utility.yul\":5408:5437   */\n      swap1\n      pop\n        /* \"#utility.yul\":5446:5479   */\n      tag_219\n        /* \"#utility.yul\":5473:5478   */\n      dup2\n        /* \"#utility.yul\":5446:5479   */\n      tag_128\n      jump\t// in\n    tag_219:\n        /* \"#utility.yul\":5346:5485   */\n      swap3\n      swap2\n      pop\n      pop\n      jump\t// out\n        /* \"#utility.yul\":5491:5820   */\n    tag_56:\n        /* \"#utility.yul\":5550:5556   */\n      0x00\n        /* \"#utility.yul\":5599:5601   */\n      0x20\n        /* \"#utility.yul\":5587:5596   */\n      dup3\n        /* \"#utility.yul\":5578:5585   */\n      dup5\n        /* \"#utility.yul\":5574:5597   */\n      sub\n        /* \"#utility.yul\":5570:5602   */\n      slt\n        /* \"#utility.yul\":5567:5686   */\n      iszero\n      tag_221\n      jumpi\n        /* \"#utility.yul\":5605:5684   */\n      tag_222\n      tag_117\n      jump\t// in\n    tag_222:\n        /* \"#utility.yul\":5567:5686   */\n    tag_221:\n        /* \"#utility.yul\":5725:5726   */\n      0x00\n        /* \"#utility.yul\":5750:5803   */\n      tag_223\n        /* \"#utility.yul\":5795:5802   */\n      dup5\n        /* \"#utility.yul\":5786:5792   */\n      dup3\n        /* \"#utility.yul\":5775:5784   */\n      dup6\n        /* \"#utility.yul\":5771:5793   */\n      add\n        /* \"#utility.yul\":5750:5803   */\n      tag_129\n      jump\t// in\n    tag_223:\n        /* \"#utility.yul\":5740:5803   */\n      swap2\n      pop\n        /* \"#utility.yul\":5696:5813   */\n      pop\n        /* \"#utility.yul\":5491:5820   */\n      swap3\n      swap2\n      pop\n      pop\n      jump\t// out\n        /* \"#utility.yul\":5826:5999   */\n    tag_130:\n        /* \"#utility.yul\":5966:5991   */\n      0x596f7520686176656e277420646f6e6174656420796574000000000000000000\n        /* \"#utility.yul\":5962:5963   */\n      0x00\n        /* \"#utility.yul\":5954:5960   */\n      dup3\n        /* \"#utility.yul\":5950:5964   */\n      add\n        /* \"#utility.yul\":5943:5992   */\n      mstore\n        /* \"#utility.yul\":5826:5999   */\n      pop\n      jump\t// out\n        /* \"#utility.yul\":6005:6371   */\n    tag_131:\n        /* \"#utility.yul\":6147:6150   */\n      0x00\n        /* \"#utility.yul\":6168:6235   */\n      tag_226\n        /* \"#utility.yul\":6232:6234   */\n      0x17\n        /* \"#utility.yul\":6227:6230   */\n      dup4\n        /* \"#utility.yul\":6168:6235   */\n      tag_112\n      jump\t// in\n    tag_226:\n        /* \"#utility.yul\":6161:6235   */\n      swap2\n      pop\n        /* \"#utility.yul\":6244:6337   */\n      tag_227\n        /* \"#utility.yul\":6333:6336   */\n      dup3\n        /* \"#utility.yul\":6244:6337   */\n      tag_130\n      jump\t// in\n    tag_227:\n        /* \"#utility.yul\":6362:6364   */\n      0x20\n        /* \"#utility.yul\":6357:6360   */\n      dup3\n        /* \"#utility.yul\":6353:6365   */\n      add\n        /* \"#utility.yul\":6346:6365   */\n      swap1\n      pop\n        /* \"#utility.yul\":6005:6371   */\n      swap2\n      swap1\n      pop\n      jump\t// out\n        /* \"#utility.yul\":6377:6796   */\n    tag_64:\n        /* \"#utility.yul\":6543:6547   */\n      0x00\n        /* \"#utility.yul\":6581:6583   */\n      0x20\n        /* \"#utility.yul\":6570:6579   */\n      dup3\n        /* \"#utility.yul\":6566:6584   */\n      add\n        /* \"#utility.yul\":6558:6584   */\n      swap1\n      pop\n        /* \"#utility.yul\":6630:6639   */\n      dup2\n        /* \"#utility.yul\":6624:6628   */\n      dup2\n        /* \"#utility.yul\":6620:6640   */\n      sub\n        /* \"#utility.yul\":6616:6617   */\n      0x00\n        /* \"#utility.yul\":6605:6614   */\n      dup4\n        /* \"#utility.yul\":6601:6618   */\n      add\n        /* \"#utility.yul\":6594:6641   */\n      mstore\n        /* \"#utility.yul\":6658:6789   */\n      tag_229\n        /* \"#utility.yul\":6784:6788   */\n      dup2\n        /* \"#utility.yul\":6658:6789   */\n      tag_131\n      jump\t// in\n    tag_229:\n        /* \"#utility.yul\":6650:6789   */\n      swap1\n      pop\n        /* \"#utility.yul\":6377:6796   */\n      swap2\n      swap1\n      pop\n      jump\t// out\n        /* \"#utility.yul\":6802:7028   */\n    tag_132:\n        /* \"#utility.yul\":6942:6976   */\n      0x4f6e6c7920746865206d616e616765722063616e2063616c6c20746869732066\n        /* \"#utility.yul\":6938:6939   */\n      0x00\n        /* \"#utility.yul\":6930:6936   */\n      dup3\n        /* \"#utility.yul\":6926:6940   */\n      add\n        /* \"#utility.yul\":6919:6977   */\n      mstore\n        /* \"#utility.yul\":7011:7020   */\n      0x756e6374696f6e00000000000000000000000000000000000000000000000000\n        /* \"#utility.yul\":7006:7008   */\n      0x20\n        /* \"#utility.yul\":6998:7004   */\n      dup3\n        /* \"#utility.yul\":6994:7009   */\n      add\n        /* \"#utility.yul\":6987:7021   */\n      mstore\n        /* \"#utility.yul\":6802:7028   */\n      pop\n      jump\t// out\n        /* \"#utility.yul\":7034:7400   */\n    tag_133:\n        /* \"#utility.yul\":7176:7179   */\n      0x00\n        /* \"#utility.yul\":7197:7264   */\n      tag_232\n        /* \"#utility.yul\":7261:7263   */\n      0x27\n        /* \"#utility.yul\":7256:7259   */\n      dup4\n        /* \"#utility.yul\":7197:7264   */\n      tag_112\n      jump\t// in\n    tag_232:\n        /* \"#utility.yul\":7190:7264   */\n      swap2\n      pop\n        /* \"#utility.yul\":7273:7366   */\n      tag_233\n        /* \"#utility.yul\":7362:7365   */\n      dup3\n        /* \"#utility.yul\":7273:7366   */\n      tag_132\n      jump\t// in\n    tag_233:\n        /* \"#utility.yul\":7391:7393   */\n      0x40\n        /* \"#utility.yul\":7386:7389   */\n      dup3\n        /* \"#utility.yul\":7382:7394   */\n      add\n        /* \"#utility.yul\":7375:7394   */\n      swap1\n      pop\n        /* \"#utility.yul\":7034:7400   */\n      swap2\n      swap1\n      pop\n      jump\t// out\n        /* \"#utility.yul\":7406:7825   */\n    tag_69:\n        /* \"#utility.yul\":7572:7576   */\n      0x00\n        /* \"#utility.yul\":7610:7612   */\n      0x20\n        /* \"#utility.yul\":7599:7608   */\n      dup3\n        /* \"#utility.yul\":7595:7613   */\n      add\n        /* \"#utility.yul\":7587:7613   */\n      swap1\n      pop\n        /* \"#utility.yul\":7659:7668   */\n      dup2\n        /* \"#utility.yul\":7653:7657   */\n      dup2\n        /* \"#utility.yul\":7649:7669   */\n      sub\n        /* \"#utility.yul\":7645:7646   */\n      0x00\n        /* \"#utility.yul\":7634:7643   */\n      dup4\n        /* \"#utility.yul\":7630:7647   */\n      add\n        /* \"#utility.yul\":7623:7670   */\n      mstore\n        /* \"#utility.yul\":7687:7818   */\n      tag_235\n        /* \"#utility.yul\":7813:7817   */\n      dup2\n        /* \"#utility.yul\":7687:7818   */\n      tag_133\n      jump\t// in\n    tag_235:\n        /* \"#utility.yul\":7679:7818   */\n      swap1\n      pop\n        /* \"#utility.yul\":7406:7825   */\n      swap2\n      swap1\n      pop\n      jump\t// out\n        /* \"#utility.yul\":7831:8054   */\n    tag_134:\n        /* \"#utility.yul\":7971:8005   */\n      0x54686520646f6e6174696f6e20706572696f64206973207374696c6c206f6e67\n        /* \"#utility.yul\":7967:7968   */\n      0x00\n        /* \"#utility.yul\":7959:7965   */\n      dup3\n        /* \"#utility.yul\":7955:7969   */\n      add\n        /* \"#utility.yul\":7948:8006   */\n      mstore\n        /* \"#utility.yul\":8040:8046   */\n      0x6f696e6700000000000000000000000000000000000000000000000000000000\n        /* \"#utility.yul\":8035:8037   */\n      0x20\n        /* \"#utility.yul\":8027:8033   */\n      dup3\n        /* \"#utility.yul\":8023:8038   */\n      add\n        /* \"#utility.yul\":8016:8047   */\n      mstore\n        /* \"#utility.yul\":7831:8054   */\n      pop\n      jump\t// out\n        /* \"#utility.yul\":8060:8426   */\n    tag_135:\n        /* \"#utility.yul\":8202:8205   */\n      0x00\n        /* \"#utility.yul\":8223:8290   */\n      tag_238\n        /* \"#utility.yul\":8287:8289   */\n      0x24\n        /* \"#utility.yul\":8282:8285   */\n      dup4\n        /* \"#utility.yul\":8223:8290   */\n      tag_112\n      jump\t// in\n    tag_238:\n        /* \"#utility.yul\":8216:8290   */\n      swap2\n      pop\n        /* \"#utility.yul\":8299:8392   */\n      tag_239\n        /* \"#utility.yul\":8388:8391   */\n      dup3\n        /* \"#utility.yul\":8299:8392   */\n      tag_134\n      jump\t// in\n    tag_239:\n        /* \"#utility.yul\":8417:8419   */\n      0x40\n        /* \"#utility.yul\":8412:8415   */\n      dup3\n        /* \"#utility.yul\":8408:8420   */\n      add\n        /* \"#utility.yul\":8401:8420   */\n      swap1\n      pop\n        /* \"#utility.yul\":8060:8426   */\n      swap2\n      swap1\n      pop\n      jump\t// out\n        /* \"#utility.yul\":8432:8851   */\n    tag_73:\n        /* \"#utility.yul\":8598:8602   */\n      0x00\n        /* \"#utility.yul\":8636:8638   */\n      0x20\n        /* \"#utility.yul\":8625:8634   */\n      dup3\n        /* \"#utility.yul\":8621:8639   */\n      add\n        /* \"#utility.yul\":8613:8639   */\n      swap1\n      pop\n        /* \"#utility.yul\":8685:8694   */\n      dup2\n        /* \"#utility.yul\":8679:8683   */\n      dup2\n        /* \"#utility.yul\":8675:8695   */\n      sub\n        /* \"#utility.yul\":8671:8672   */\n      0x00\n        /* \"#utility.yul\":8660:8669   */\n      dup4\n        /* \"#utility.yul\":8656:8673   */\n      add\n        /* \"#utility.yul\":8649:8696   */\n      mstore\n        /* \"#utility.yul\":8713:8844   */\n      tag_241\n        /* \"#utility.yul\":8839:8843   */\n      dup2\n        /* \"#utility.yul\":8713:8844   */\n      tag_135\n      jump\t// in\n    tag_241:\n        /* \"#utility.yul\":8705:8844   */\n      swap1\n      pop\n        /* \"#utility.yul\":8432:8851   */\n      swap2\n      swap1\n      pop\n      jump\t// out\n        /* \"#utility.yul\":8857:9037   */\n    tag_136:\n        /* \"#utility.yul\":8905:8982   */\n      0x4e487b7100000000000000000000000000000000000000000000000000000000\n        /* \"#utility.yul\":8902:8903   */\n      0x00\n        /* \"#utility.yul\":8895:8983   */\n      mstore\n        /* \"#utility.yul\":9002:9006   */\n      0x22\n        /* \"#utility.yul\":8999:9000   */\n      0x04\n        /* \"#utility.yul\":8992:9007   */\n      mstore\n        /* \"#utility.yul\":9026:9030   */\n      0x24\n        /* \"#utility.yul\":9023:9024   */\n      0x00\n        /* \"#utility.yul\":9016:9031   */\n      revert\n        /* \"#utility.yul\":9043:9363   */\n    tag_79:\n        /* \"#utility.yul\":9087:9093   */\n      0x00\n        /* \"#utility.yul\":9124:9125   */\n      0x02\n        /* \"#utility.yul\":9118:9122   */\n      dup3\n        /* \"#utility.yul\":9114:9126   */\n      div\n        /* \"#utility.yul\":9104:9126   */\n      swap1\n      pop\n        /* \"#utility.yul\":9171:9172   */\n      0x01\n        /* \"#utility.yul\":9165:9169   */\n      dup3\n        /* \"#utility.yul\":9161:9173   */\n      and\n        /* \"#utility.yul\":9192:9210   */\n      dup1\n        /* \"#utility.yul\":9182:9263   */\n      tag_244\n      jumpi\n        /* \"#utility.yul\":9248:9252   */\n      0x7f\n        /* \"#utility.yul\":9240:9246   */\n      dup3\n        /* \"#utility.yul\":9236:9253   */\n      and\n        /* \"#utility.yul\":9226:9253   */\n      swap2\n      pop\n        /* \"#utility.yul\":9182:9263   */\n    tag_244:\n        /* \"#utility.yul\":9310:9312   */\n      0x20\n        /* \"#utility.yul\":9302:9308   */\n      dup3\n        /* \"#utility.yul\":9299:9313   */\n      lt\n        /* \"#utility.yul\":9279:9297   */\n      dup2\n        /* \"#utility.yul\":9276:9314   */\n      sub\n        /* \"#utility.yul\":9273:9357   */\n      tag_245\n      jumpi\n        /* \"#utility.yul\":9329:9347   */\n      tag_246\n      tag_136\n      jump\t// in\n    tag_246:\n        /* \"#utility.yul\":9273:9357   */\n    tag_245:\n        /* \"#utility.yul\":9094:9363   */\n      pop\n        /* \"#utility.yul\":9043:9363   */\n      swap2\n      swap1\n      pop\n      jump\t// out\n        /* \"#utility.yul\":9369:9510   */\n    tag_137:\n        /* \"#utility.yul\":9418:9422   */\n      0x00\n        /* \"#utility.yul\":9441:9444   */\n      dup2\n        /* \"#utility.yul\":9433:9444   */\n      swap1\n      pop\n        /* \"#utility.yul\":9464:9467   */\n      dup2\n        /* \"#utility.yul\":9461:9462   */\n      0x00\n        /* \"#utility.yul\":9454:9468   */\n      mstore\n        /* \"#utility.yul\":9498:9502   */\n      0x20\n        /* \"#utility.yul\":9495:9496   */\n      0x00\n        /* \"#utility.yul\":9485:9503   */\n      keccak256\n        /* \"#utility.yul\":9477:9503   */\n      swap1\n      pop\n        /* \"#utility.yul\":9369:9510   */\n      swap2\n      swap1\n      pop\n      jump\t// out\n        /* \"#utility.yul\":9516:9609   */\n    tag_138:\n        /* \"#utility.yul\":9553:9559   */\n      0x00\n        /* \"#utility.yul\":9600:9602   */\n      0x20\n        /* \"#utility.yul\":9595:9597   */\n      0x1f\n        /* \"#utility.yul\":9588:9593   */\n      dup4\n        /* \"#utility.yul\":9584:9598   */\n      add\n        /* \"#utility.yul\":9580:9603   */\n      div\n        /* \"#utility.yul\":9570:9603   */\n      swap1\n      pop\n        /* \"#utility.yul\":9516:9609   */\n      swap2\n      swap1\n      pop\n      jump\t// out\n        /* \"#utility.yul\":9615:9722   */\n    tag_139:\n        /* \"#utility.yul\":9659:9667   */\n      0x00\n        /* \"#utility.yul\":9709:9714   */\n      dup3\n        /* \"#utility.yul\":9703:9707   */\n      dup3\n        /* \"#utility.yul\":9699:9715   */\n      shl\n        /* \"#utility.yul\":9678:9715   */\n      swap1\n      pop\n        /* \"#utility.yul\":9615:9722   */\n      swap3\n      swap2\n      pop\n      pop\n      jump\t// out\n        /* \"#utility.yul\":9728:10121   */\n    tag_140:\n        /* \"#utility.yul\":9797:9803   */\n      0x00\n        /* \"#utility.yul\":9847:9848   */\n      0x08\n        /* \"#utility.yul\":9835:9845   */\n      dup4\n        /* \"#utility.yul\":9831:9849   */\n      mul\n        /* \"#utility.yul\":9870:9967   */\n      tag_251\n        /* \"#utility.yul\":9900:9966   */\n      0xffffffffffffffffffffffffffffffffffffffffffffffffffffffffffffffff\n        /* \"#utility.yul\":9889:9898   */\n      dup3\n        /* \"#utility.yul\":9870:9967   */\n      tag_139\n      jump\t// in\n    tag_251:\n        /* \"#utility.yul\":9988:10027   */\n      tag_252\n        /* \"#utility.yul\":10018:10026   */\n      dup7\n        /* \"#utility.yul\":10007:10016   */\n      dup4\n        /* \"#utility.yul\":9988:10027   */\n      tag_139\n      jump\t// in\n    tag_252:\n        /* \"#utility.yul\":9976:10027   */\n      swap6\n      pop\n        /* \"#utility.yul\":10060:10064   */\n      dup1\n        /* \"#utility.yul\":10056:10065   */\n      not\n        /* \"#utility.yul\":10049:10054   */\n      dup5\n        /* \"#utility.yul\":10045:10066   */\n      and\n        /* \"#utility.yul\":10036:10066   */\n      swap4\n      pop\n        /* \"#utility.yul\":10109:10113   */\n      dup1\n        /* \"#utility.yul\":10099:10107   */\n      dup7\n        /* \"#utility.yul\":10095:10114   */\n      and\n        /* \"#utility.yul\":10088:10093   */\n      dup5\n        /* \"#utility.yul\":10085:10115   */\n      or\n        /* \"#utility.yul\":10075:10115   */\n      swap3\n      pop\n        /* \"#utility.yul\":9804:10121   */\n      pop\n      pop\n        /* \"#utility.yul\":9728:10121   */\n      swap4\n      swap3\n      pop\n      pop\n      pop\n      jump\t// out\n        /* \"#utility.yul\":10127:10187   */\n    tag_141:\n        /* \"#utility.yul\":10155:10158   */\n      0x00\n        /* \"#utility.yul\":10176:10181   */\n      dup2\n        /* \"#utility.yul\":10169:10181   */\n      swap1\n      pop\n        /* \"#utility.yul\":10127:10187   */\n      swap2\n      swap1\n      pop\n      jump\t// out\n        /* \"#utility.yul\":10193:10335   */\n    tag_142:\n        /* \"#utility.yul\":10243:10252   */\n      0x00\n        /* \"#utility.yul\":10276:10329   */\n      tag_255\n        /* \"#utility.yul\":10294:10328   */\n      tag_256\n        /* \"#utility.yul\":10303:10327   */\n      tag_257\n        /* \"#utility.yul\":10321:10326   */\n      dup5\n        /* \"#utility.yul\":10303:10327   */\n      tag_106\n      jump\t// in\n    tag_257:\n        /* \"#utility.yul\":10294:10328   */\n      tag_141\n      jump\t// in\n    tag_256:\n        /* \"#utility.yul\":10276:10329   */\n      tag_106\n      jump\t// in\n    tag_255:\n        /* \"#utility.yul\":10263:10329   */\n      swap1\n      pop\n        /* \"#utility.yul\":10193:10335   */\n      swap2\n      swap1\n      pop\n      jump\t// out\n        /* \"#utility.yul\":10341:10416   */\n    tag_143:\n        /* \"#utility.yul\":10384:10387   */\n      0x00\n        /* \"#utility.yul\":10405:10410   */\n      dup2\n        /* \"#utility.yul\":10398:10410   */\n      swap1\n      pop\n        /* \"#utility.yul\":10341:10416   */\n      swap2\n      swap1\n      pop\n      jump\t// out\n        /* \"#utility.yul\":10422:10691   */\n    tag_144:\n        /* \"#utility.yul\":10532:10571   */\n      tag_260\n        /* \"#utility.yul\":10563:10570   */\n      dup4\n        /* \"#utility.yul\":10532:10571   */\n      tag_142\n      jump\t// in\n    tag_260:\n        /* \"#utility.yul\":10593:10684   */\n      tag_261\n        /* \"#utility.yul\":10642:10683   */\n      tag_262\n        /* \"#utility.yul\":10666:10682   */\n      dup3\n        /* \"#utility.yul\":10642:10683   */\n      tag_143\n      jump\t// in\n    tag_262:\n        /* \"#utility.yul\":10634:10640   */\n      dup5\n        /* \"#utility.yul\":10627:10631   */\n      dup5\n        /* \"#utility.yul\":10621:10632   */\n      sload\n        /* \"#utility.yul\":10593:10684   */\n      tag_140\n      jump\t// in\n    tag_261:\n        /* \"#utility.yul\":10587:10591   */\n      dup3\n        /* \"#utility.yul\":10580:10685   */\n      sstore\n        /* \"#utility.yul\":10498:10691   */\n      pop\n        /* \"#utility.yul\":10422:10691   */\n      pop\n      pop\n      pop\n      jump\t// out\n        /* \"#utility.yul\":10697:10770   */\n    tag_145:\n        /* \"#utility.yul\":10742:10745   */\n      0x00\n        /* \"#utility.yul\":10763:10764   */\n      0x00\n        /* \"#utility.yul\":10756:10764   */\n      swap1\n      pop\n        /* \"#utility.yul\":10697:10770   */\n      swap1\n      jump\t// out\n        /* \"#utility.yul\":10776:10965   */\n    tag_146:\n        /* \"#utility.yul\":10853:10885   */\n      tag_265\n      tag_145\n      jump\t// in\n    tag_265:\n        /* \"#utility.yul\":10894:10959   */\n      tag_266\n        /* \"#utility.yul\":10952:10958   */\n      dup2\n        /* \"#utility.yul\":10944:10950   */\n      dup5\n        /* \"#utility.yul\":10938:10942   */\n      dup5\n        /* \"#utility.yul\":10894:10959   */\n      tag_144\n      jump\t// in\n    tag_266:\n        /* \"#utility.yul\":10829:10965   */\n      pop\n        /* \"#utility.yul\":10776:10965   */\n      pop\n      pop\n      jump\t// out\n        /* \"#utility.yul\":10971:11157   */\n    tag_147:\n        /* \"#utility.yul\":11031:11151   */\n    tag_268:\n        /* \"#utility.yul\":11048:11051   */\n      dup2\n        /* \"#utility.yul\":11041:11046   */\n      dup2\n        /* \"#utility.yul\":11038:11052   */\n      lt\n        /* \"#utility.yul\":11031:11151   */\n      iszero\n      tag_270\n      jumpi\n        /* \"#utility.yul\":11102:11141   */\n      tag_271\n        /* \"#utility.yul\":11139:11140   */\n      0x00\n        /* \"#utility.yul\":11132:11137   */\n      dup3\n        /* \"#utility.yul\":11102:11141   */\n      tag_146\n      jump\t// in\n    tag_271:\n        /* \"#utility.yul\":11075:11076   */\n      0x01\n        /* \"#utility.yul\":11068:11073   */\n      dup2\n        /* \"#utility.yul\":11064:11077   */\n      add\n        /* \"#utility.yul\":11055:11077   */\n      swap1\n      pop\n        /* \"#utility.yul\":11031:11151   */\n      jump(tag_268)\n    tag_270:\n        /* \"#utility.yul\":10971:11157   */\n      pop\n      pop\n      jump\t// out\n        /* \"#utility.yul\":11163:11706   */\n    tag_148:\n        /* \"#utility.yul\":11264:11266   */\n      0x1f\n        /* \"#utility.yul\":11259:11262   */\n      dup3\n        /* \"#utility.yul\":11256:11267   */\n      gt\n        /* \"#utility.yul\":11253:11699   */\n      iszero\n      tag_273\n      jumpi\n        /* \"#utility.yul\":11298:11336   */\n      tag_274\n        /* \"#utility.yul\":11330:11335   */\n      dup2\n        /* \"#utility.yul\":11298:11336   */\n      tag_137\n      jump\t// in\n    tag_274:\n        /* \"#utility.yul\":11382:11411   */\n      tag_275\n        /* \"#utility.yul\":11400:11410   */\n      dup5\n        /* \"#utility.yul\":11382:11411   */\n      tag_138\n      jump\t// in\n    tag_275:\n        /* \"#utility.yul\":11372:11380   */\n      dup2\n        /* \"#utility.yul\":11368:11412   */\n      add\n        /* \"#utility.yul\":11565:11567   */\n      0x20\n        /* \"#utility.yul\":11553:11563   */\n      dup6\n        /* \"#utility.yul\":11550:11568   */\n      lt\n        /* \"#utility.yul\":11547:11596   */\n      iszero\n      tag_276\n      jumpi\n        /* \"#utility.yul\":11586:11594   */\n      dup2\n        /* \"#utility.yul\":11571:11594   */\n      swap1\n      pop\n        /* \"#utility.yul\":11547:11596   */\n    tag_276:\n        /* \"#utility.yul\":11609:11689   */\n      tag_277\n        /* \"#utility.yul\":11665:11687   */\n      tag_278\n        /* \"#utility.yul\":11683:11686   */\n      dup6\n        /* \"#utility.yul\":11665:11687   */\n      tag_138\n      jump\t// in\n    tag_278:\n        /* \"#utility.yul\":11655:11663   */\n      dup4\n        /* \"#utility.yul\":11651:11688   */\n      add\n        /* \"#utility.yul\":11638:11649   */\n      dup3\n        /* \"#utility.yul\":11609:11689   */\n      tag_147\n      jump\t// in\n    tag_277:\n        /* \"#utility.yul\":11268:11699   */\n      pop\n      pop\n        /* \"#utility.yul\":11253:11699   */\n    tag_273:\n        /* \"#utility.yul\":11163:11706   */\n      pop\n      pop\n      pop\n      jump\t// out\n        /* \"#utility.yul\":11712:11829   */\n    tag_149:\n        /* \"#utility.yul\":11766:11774   */\n      0x00\n        /* \"#utility.yul\":11816:11821   */\n      dup3\n        /* \"#utility.yul\":11810:11814   */\n      dup3\n        /* \"#utility.yul\":11806:11822   */\n      shr\n        /* \"#utility.yul\":11785:11822   */\n      swap1\n      pop\n        /* \"#utility.yul\":11712:11829   */\n      swap3\n      swap2\n      pop\n      pop\n      jump\t// out\n        /* \"#utility.yul\":11835:12004   */\n    tag_150:\n        /* \"#utility.yul\":11879:11885   */\n      0x00\n        /* \"#utility.yul\":11912:11963   */\n      tag_281\n        /* \"#utility.yul\":11960:11961   */\n      0x00\n        /* \"#utility.yul\":11956:11962   */\n      not\n        /* \"#utility.yul\":11948:11953   */\n      dup5\n        /* \"#utility.yul\":11945:11946   */\n      0x08\n        /* \"#utility.yul\":11941:11954   */\n      mul\n        /* \"#utility.yul\":11912:11963   */\n      tag_149\n      jump\t// in\n    tag_281:\n        /* \"#utility.yul\":11908:11964   */\n      not\n        /* \"#utility.yul\":11993:11997   */\n      dup1\n        /* \"#utility.yul\":11987:11991   */\n      dup4\n        /* \"#utility.yul\":11983:11998   */\n      and\n        /* \"#utility.yul\":11973:11998   */\n      swap2\n      pop\n        /* \"#utility.yul\":11886:12004   */\n      pop\n        /* \"#utility.yul\":11835:12004   */\n      swap3\n      swap2\n      pop\n      pop\n      jump\t// out\n        /* \"#utility.yul\":12009:12304   */\n    tag_151:\n        /* \"#utility.yul\":12085:12089   */\n      0x00\n        /* \"#utility.yul\":12231:12260   */\n      tag_283\n        /* \"#utility.yul\":12256:12259   */\n      dup4\n        /* \"#utility.yul\":12250:12254   */\n      dup4\n        /* \"#utility.yul\":12231:12260   */\n      tag_150\n      jump\t// in\n    tag_283:\n        /* \"#utility.yul\":12223:12260   */\n      swap2\n      pop\n        /* \"#utility.yul\":12293:12296   */\n      dup3\n        /* \"#utility.yul\":12290:12291   */\n      0x02\n        /* \"#utility.yul\":12286:12297   */\n      mul\n        /* \"#utility.yul\":12280:12284   */\n      dup3\n        /* \"#utility.yul\":12277:12298   */\n      or\n        /* \"#utility.yul\":12269:12298   */\n      swap1\n      pop\n        /* \"#utility.yul\":12009:12304   */\n      swap3\n      swap2\n      pop\n      pop\n      jump\t// out\n        /* \"#utility.yul\":12309:13704   */\n    tag_89:\n        /* \"#utility.yul\":12426:12463   */\n      tag_285\n        /* \"#utility.yul\":12459:12462   */\n      dup3\n        /* \"#utility.yul\":12426:12463   */\n      tag_111\n      jump\t// in\n    tag_285:\n        /* \"#utility.yul\":12528:12546   */\n      0xffffffffffffffff\n        /* \"#utility.yul\":12520:12526   */\n      dup2\n        /* \"#utility.yul\":12517:12547   */\n      gt\n        /* \"#utility.yul\":12514:12570   */\n      iszero\n      tag_286\n      jumpi\n        /* \"#utility.yul\":12550:12568   */\n      tag_287\n      tag_121\n      jump\t// in\n    tag_287:\n        /* \"#utility.yul\":12514:12570   */\n    tag_286:\n        /* \"#utility.yul\":12594:12632   */\n      tag_288\n        /* \"#utility.yul\":12626:12630   */\n      dup3\n        /* \"#utility.yul\":12620:12631   */\n      sload\n        /* \"#utility.yul\":12594:12632   */\n      tag_79\n      jump\t// in\n    tag_288:\n        /* \"#utility.yul\":12679:12746   */\n      tag_289\n        /* \"#utility.yul\":12739:12745   */\n      dup3\n        /* \"#utility.yul\":12731:12737   */\n      dup3\n        /* \"#utility.yul\":12725:12729   */\n      dup6\n        /* \"#utility.yul\":12679:12746   */\n      tag_148\n      jump\t// in\n    tag_289:\n        /* \"#utility.yul\":12773:12774   */\n      0x00\n        /* \"#utility.yul\":12797:12801   */\n      0x20\n        /* \"#utility.yul\":12784:12801   */\n      swap1\n      pop\n        /* \"#utility.yul\":12829:12831   */\n      0x1f\n        /* \"#utility.yul\":12821:12827   */\n      dup4\n        /* \"#utility.yul\":12818:12832   */\n      gt\n        /* \"#utility.yul\":12846:12847   */\n      0x01\n        /* \"#utility.yul\":12841:13459   */\n      dup2\n      eq\n      tag_291\n      jumpi\n        /* \"#utility.yul\":13503:13504   */\n      0x00\n        /* \"#utility.yul\":13520:13526   */\n      dup5\n        /* \"#utility.yul\":13517:13594   */\n      iszero\n      tag_292\n      jumpi\n        /* \"#utility.yul\":13569:13578   */\n      dup3\n        /* \"#utility.yul\":13564:13567   */\n      dup8\n        /* \"#utility.yul\":13560:13579   */\n      add\n        /* \"#utility.yul\":13554:13580   */\n      mload\n        /* \"#utility.yul\":13545:13580   */\n      swap1\n      pop\n        /* \"#utility.yul\":13517:13594   */\n    tag_292:\n        /* \"#utility.yul\":13620:13687   */\n      tag_293\n        /* \"#utility.yul\":13680:13686   */\n      dup6\n        /* \"#utility.yul\":13673:13678   */\n      dup3\n        /* \"#utility.yul\":13620:13687   */\n      tag_151\n      jump\t// in\n    tag_293:\n        /* \"#utility.yul\":13614:13618   */\n      dup7\n        /* \"#utility.yul\":13607:13688   */\n      sstore\n        /* \"#utility.yul\":13476:13698   */\n      pop\n        /* \"#utility.yul\":12811:13698   */\n      jump(tag_290)\n        /* \"#utility.yul\":12841:13459   */\n    tag_291:\n        /* \"#utility.yul\":12893:12897   */\n      0x1f\n        /* \"#utility.yul\":12889:12898   */\n      not\n        /* \"#utility.yul\":12881:12887   */\n      dup5\n        /* \"#utility.yul\":12877:12899   */\n      and\n        /* \"#utility.yul\":12927:12964   */\n      tag_294\n        /* \"#utility.yul\":12959:12963   */\n      dup7\n        /* \"#utility.yul\":12927:12964   */\n      tag_137\n      jump\t// in\n    tag_294:\n        /* \"#utility.yul\":12986:12987   */\n      0x00\n        /* \"#utility.yul\":13000:13208   */\n    tag_295:\n        /* \"#utility.yul\":13014:13021   */\n      dup3\n        /* \"#utility.yul\":13011:13012   */\n      dup2\n        /* \"#utility.yul\":13008:13022   */\n      lt\n        /* \"#utility.yul\":13000:13208   */\n      iszero\n      tag_297\n      jumpi\n        /* \"#utility.yul\":13093:13102   */\n      dup5\n        /* \"#utility.yul\":13088:13091   */\n      dup10\n        /* \"#utility.yul\":13084:13103   */\n      add\n        /* \"#utility.yul\":13078:13104   */\n      mload\n        /* \"#utility.yul\":13070:13076   */\n      dup3\n        /* \"#utility.yul\":13063:13105   */\n      sstore\n        /* \"#utility.yul\":13144:13145   */\n      0x01\n        /* \"#utility.yul\":13136:13142   */\n      dup3\n        /* \"#utility.yul\":13132:13146   */\n      add\n        /* \"#utility.yul\":13122:13146   */\n      swap2\n      pop\n        /* \"#utility.yul\":13191:13193   */\n      0x20\n        /* \"#utility.yul\":13180:13189   */\n      dup6\n        /* \"#utility.yul\":13176:13194   */\n      add\n        /* \"#utility.yul\":13163:13194   */\n      swap5\n      pop\n        /* \"#utility.yul\":13037:13041   */\n      0x20\n        /* \"#utility.yul\":13034:13035   */\n      dup2\n        /* \"#utility.yul\":13030:13042   */\n      add\n        /* \"#utility.yul\":13025:13042   */\n      swap1\n      pop\n        /* \"#utility.yul\":13000:13208   */\n      jump(tag_295)\n    tag_297:\n        /* \"#utility.yul\":13236:13242   */\n      dup7\n        /* \"#utility.yul\":13227:13234   */\n      dup4\n        /* \"#utility.yul\":13224:13243   */\n      lt\n        /* \"#utility.yul\":13221:13400   */\n      iszero\n      tag_298\n      jumpi\n        /* \"#utility.yul\":13294:13303   */\n      dup5\n        /* \"#utility.yul\":13289:13292   */\n      dup10\n        /* \"#utility.yul\":13285:13304   */\n      add\n        /* \"#utility.yul\":13279:13305   */\n      mload\n        /* \"#utility.yul\":13337:13385   */\n      tag_299\n        /* \"#utility.yul\":13379:13383   */\n      0x1f\n        /* \"#utility.yul\":13371:13377   */\n      dup10\n        /* \"#utility.yul\":13367:13384   */\n      and\n        /* \"#utility.yul\":13356:13365   */\n      dup3\n        /* \"#utility.yul\":13337:13385   */\n      tag_150\n      jump\t// in\n    tag_299:\n        /* \"#utility.yul\":13329:13335   */\n      dup4\n        /* \"#utility.yul\":13322:13386   */\n      sstore\n        /* \"#utility.yul\":13244:13400   */\n      pop\n        /* \"#utility.yul\":13221:13400   */\n    tag_298:\n        /* \"#utility.yul\":13446:13447   */\n      0x01\n        /* \"#utility.yul\":13442:13443   */\n      0x02\n        /* \"#utility.yul\":13434:13440   */\n      dup9\n        /* \"#utility.yul\":13430:13444   */\n      mul\n        /* \"#utility.yul\":13426:13448   */\n      add\n        /* \"#utility.yul\":13420:13424   */\n      dup9\n        /* \"#utility.yul\":13413:13449   */\n      sstore\n        /* \"#utility.yul\":12848:13459   */\n      pop\n      pop\n      pop\n        /* \"#utility.yul\":12811:13698   */\n    tag_290:\n      pop\n        /* \"#utility.yul\":12401:13704   */\n      pop\n      pop\n      pop\n        /* \"#utility.yul\":12309:13704   */\n      pop\n      pop\n      jump\t// out\n        /* \"#utility.yul\":13710:13889   */\n    tag_152:\n        /* \"#utility.yul\":13850:13881   */\n      0x54686520646f6e6174696f6e20706572696f642068617320656e646564000000\n        /* \"#utility.yul\":13846:13847   */\n      0x00\n        /* \"#utility.yul\":13838:13844   */\n      dup3\n        /* \"#utility.yul\":13834:13848   */\n      add\n        /* \"#utility.yul\":13827:13882   */\n      mstore\n        /* \"#utility.yul\":13710:13889   */\n      pop\n      jump\t// out\n        /* \"#utility.yul\":13895:14261   */\n    tag_153:\n        /* \"#utility.yul\":14037:14040   */\n      0x00\n        /* \"#utility.yul\":14058:14125   */\n      tag_302\n        /* \"#utility.yul\":14122:14124   */\n      0x1d\n        /* \"#utility.yul\":14117:14120   */\n      dup4\n        /* \"#utility.yul\":14058:14125   */\n      tag_112\n      jump\t// in\n    tag_302:\n        /* \"#utility.yul\":14051:14125   */\n      swap2\n      pop\n        /* \"#utility.yul\":14134:14227   */\n      tag_303\n        /* \"#utility.yul\":14223:14226   */\n      dup3\n        /* \"#utility.yul\":14134:14227   */\n      tag_152\n      jump\t// in\n    tag_303:\n        /* \"#utility.yul\":14252:14254   */\n      0x20\n        /* \"#utility.yul\":14247:14250   */\n      dup3\n        /* \"#utility.yul\":14243:14255   */\n      add\n        /* \"#utility.yul\":14236:14255   */\n      swap1\n      pop\n        /* \"#utility.yul\":13895:14261   */\n      swap2\n      swap1\n      pop\n      jump\t// out\n        /* \"#utility.yul\":14267:14686   */\n    tag_95:\n        /* \"#utility.yul\":14433:14437   */\n      0x00\n        /* \"#utility.yul\":14471:14473   */\n      0x20\n        /* \"#utility.yul\":14460:14469   */\n      dup3\n        /* \"#utility.yul\":14456:14474   */\n      add\n        /* \"#utility.yul\":14448:14474   */\n      swap1\n      pop\n        /* \"#utility.yul\":14520:14529   */\n      dup2\n        /* \"#utility.yul\":14514:14518   */\n      dup2\n        /* \"#utility.yul\":14510:14530   */\n      sub\n        /* \"#utility.yul\":14506:14507   */\n      0x00\n        /* \"#utility.yul\":14495:14504   */\n      dup4\n        /* \"#utility.yul\":14491:14508   */\n      add\n        /* \"#utility.yul\":14484:14531   */\n      mstore\n        /* \"#utility.yul\":14548:14679   */\n      tag_305\n        /* \"#utility.yul\":14674:14678   */\n      dup2\n        /* \"#utility.yul\":14548:14679   */\n      tag_153\n      jump\t// in\n    tag_305:\n        /* \"#utility.yul\":14540:14679   */\n      swap1\n      pop\n        /* \"#utility.yul\":14267:14686   */\n      swap2\n      swap1\n      pop\n      jump\t// out\n        /* \"#utility.yul\":14692:14863   */\n    tag_154:\n        /* \"#utility.yul\":14832:14855   */\n      0x6174206c65617374207061792031302065746865720000000000000000000000\n        /* \"#utility.yul\":14828:14829   */\n      0x00\n        /* \"#utility.yul\":14820:14826   */\n      dup3\n        /* \"#utility.yul\":14816:14830   */\n      add\n        /* \"#utility.yul\":14809:14856   */\n      mstore\n        /* \"#utility.yul\":14692:14863   */\n      pop\n      jump\t// out\n        /* \"#utility.yul\":14869:15235   */\n    tag_155:\n        /* \"#utility.yul\":15011:15014   */\n      0x00\n        /* \"#utility.yul\":15032:15099   */\n      tag_308\n        /* \"#utility.yul\":15096:15098   */\n      0x15\n        /* \"#utility.yul\":15091:15094   */\n      dup4\n        /* \"#utility.yul\":15032:15099   */\n      tag_112\n      jump\t// in\n    tag_308:\n        /* \"#utility.yul\":15025:15099   */\n      swap2\n      pop\n        /* \"#utility.yul\":15108:15201   */\n      tag_309\n        /* \"#utility.yul\":15197:15200   */\n      dup3\n        /* \"#utility.yul\":15108:15201   */\n      tag_154\n      jump\t// in\n    tag_309:\n        /* \"#utility.yul\":15226:15228   */\n      0x20\n        /* \"#utility.yul\":15221:15224   */\n      dup3\n        /* \"#utility.yul\":15217:15229   */\n      add\n        /* \"#utility.yul\":15210:15229   */\n      swap1\n      pop\n        /* \"#utility.yul\":14869:15235   */\n      swap2\n      swap1\n      pop\n      jump\t// out\n        /* \"#utility.yul\":15241:15660   */\n    tag_99:\n        /* \"#utility.yul\":15407:15411   */\n      0x00\n        /* \"#utility.yul\":15445:15447   */\n      0x20\n        /* \"#utility.yul\":15434:15443   */\n      dup3\n        /* \"#utility.yul\":15430:15448   */\n      add\n        /* \"#utility.yul\":15422:15448   */\n      swap1\n      pop\n        /* \"#utility.yul\":15494:15503   */\n      dup2\n        /* \"#utility.yul\":15488:15492   */\n      dup2\n        /* \"#utility.yul\":15484:15504   */\n      sub\n        /* \"#utility.yul\":15480:15481   */\n      0x00\n        /* \"#utility.yul\":15469:15478   */\n      dup4\n        /* \"#utility.yul\":15465:15482   */\n      add\n        /* \"#utility.yul\":15458:15505   */\n      mstore\n        /* \"#utility.yul\":15522:15653   */\n      tag_311\n        /* \"#utility.yul\":15648:15652   */\n      dup2\n        /* \"#utility.yul\":15522:15653   */\n      tag_155\n      jump\t// in\n    tag_311:\n        /* \"#utility.yul\":15514:15653   */\n      swap1\n      pop\n        /* \"#utility.yul\":15241:15660   */\n      swap2\n      swap1\n      pop\n      jump\t// out\n        /* \"#utility.yul\":15666:15846   */\n    tag_156:\n        /* \"#utility.yul\":15714:15791   */\n      0x4e487b7100000000000000000000000000000000000000000000000000000000\n        /* \"#utility.yul\":15711:15712   */\n      0x00\n        /* \"#utility.yul\":15704:15792   */\n      mstore\n        /* \"#utility.yul\":15811:15815   */\n      0x11\n        /* \"#utility.yul\":15808:15809   */\n      0x04\n        /* \"#utility.yul\":15801:15816   */\n      mstore\n        /* \"#utility.yul\":15835:15839   */\n      0x24\n        /* \"#utility.yul\":15832:15833   */\n      0x00\n        /* \"#utility.yul\":15825:15840   */\n      revert\n        /* \"#utility.yul\":15852:16085   */\n    tag_102:\n        /* \"#utility.yul\":15891:15894   */\n      0x00\n        /* \"#utility.yul\":15914:15938   */\n      tag_314\n        /* \"#utility.yul\":15932:15937   */\n      dup3\n        /* \"#utility.yul\":15914:15938   */\n      tag_106\n      jump\t// in\n    tag_314:\n        /* \"#utility.yul\":15905:15938   */\n      swap2\n      pop\n        /* \"#utility.yul\":15960:16026   */\n      0xffffffffffffffffffffffffffffffffffffffffffffffffffffffffffffffff\n        /* \"#utility.yul\":15953:15958   */\n      dup3\n        /* \"#utility.yul\":15950:16027   */\n      sub\n        /* \"#utility.yul\":15947:16050   */\n      tag_315\n      jumpi\n        /* \"#utility.yul\":16030:16048   */\n      tag_316\n      tag_156\n      jump\t// in\n    tag_316:\n        /* \"#utility.yul\":15947:16050   */\n    tag_315:\n        /* \"#utility.yul\":16077:16078   */\n      0x01\n        /* \"#utility.yul\":16070:16075   */\n      dup3\n        /* \"#utility.yul\":16066:16079   */\n      add\n        /* \"#utility.yul\":16059:16079   */\n      swap1\n      pop\n        /* \"#utility.yul\":15852:16085   */\n      swap2\n      swap1\n      pop\n      jump\t// out\n        /* \"#utility.yul\":16091:16282   */\n    tag_104:\n        /* \"#utility.yul\":16131:16134   */\n      0x00\n        /* \"#utility.yul\":16150:16170   */\n      tag_318\n        /* \"#utility.yul\":16168:16169   */\n      dup3\n        /* \"#utility.yul\":16150:16170   */\n      tag_106\n      jump\t// in\n    tag_318:\n        /* \"#utility.yul\":16145:16170   */\n      swap2\n      pop\n        /* \"#utility.yul\":16184:16204   */\n      tag_319\n        /* \"#utility.yul\":16202:16203   */\n      dup4\n        /* \"#utility.yul\":16184:16204   */\n      tag_106\n      jump\t// in\n    tag_319:\n        /* \"#utility.yul\":16179:16204   */\n      swap3\n      pop\n        /* \"#utility.yul\":16227:16228   */\n      dup3\n        /* \"#utility.yul\":16224:16225   */\n      dup3\n        /* \"#utility.yul\":16220:16229   */\n      add\n        /* \"#utility.yul\":16213:16229   */\n      swap1\n      pop\n        /* \"#utility.yul\":16248:16251   */\n      dup1\n        /* \"#utility.yul\":16245:16246   */\n      dup3\n        /* \"#utility.yul\":16242:16252   */\n      gt\n        /* \"#utility.yul\":16239:16275   */\n      iszero\n      tag_320\n      jumpi\n        /* \"#utility.yul\":16255:16273   */\n      tag_321\n      tag_156\n      jump\t// in\n    tag_321:\n        /* \"#utility.yul\":16239:16275   */\n    tag_320:\n        /* \"#utility.yul\":16091:16282   */\n      swap3\n      swap2\n      pop\n      pop\n      jump\t// out\n\n    auxdata: 0xa26469706673582212200220f520443d8bf4727f102ae17fa28ac936a4db59697a3be95b80e15e07c3cc64736f6c634300081c0033\n}\n",
				"bytecode": {
					"linkReferences": {},
					"object": "608060405234801561000f575f5ffd5b5060405161169038038061169083398181016040528101906100319190610221565b60015f819055503360015f6101000a81548173ffffffffffffffffffffffffffffffffffffffff021916908373ffffffffffffffffffffffffffffffffffffffff16021790555081600290816100879190610482565b508042610094919061057e565b60038190555050506105b1565b5f604051905090565b5f5ffd5b5f5ffd5b5f5ffd5b5f5ffd5b5f601f19601f8301169050919050565b7f4e487b71000000000000000000000000000000000000000000000000000000005f52604160045260245ffd5b610100826100ba565b810181811067ffffffffffffffff8211171561011f5761011e6100ca565b5b80604052505050565b5f6101316100a1565b905061013d82826100f7565b919050565b5f67ffffffffffffffff82111561015c5761015b6100ca565b5b610165826100ba565b9050602081019050919050565b8281835e5f83830152505050565b5f61019261018d84610142565b610128565b9050828152602081018484840111156101ae576101ad6100b6565b5b6101b9848285610172565b509392505050565b5f82601f8301126101d5576101d46100b2565b5b81516101e5848260208601610180565b91505092915050565b5f819050919050565b610200816101ee565b811461020a575f5ffd5b50565b5f8151905061021b816101f7565b92915050565b5f5f60408385031215610237576102366100aa565b5b5f83015167ffffffffffffffff811115610254576102536100ae565b5b610260858286016101c1565b92505060206102718582860161020d565b9150509250929050565b5f81519050919050565b7f4e487b71000000000000000000000000000000000000000000000000000000005f52602260045260245ffd5b5f60028204905060018216806102c957607f821691505b6020821081036102dc576102db610285565b5b50919050565b5f819050815f5260205f209050919050565b5f6020601f8301049050919050565b5f82821b905092915050565b5f6008830261033e7fffffffffffffffffffffffffffffffffffffffffffffffffffffffffffffffff82610303565b6103488683610303565b95508019841693508086168417925050509392505050565b5f819050919050565b5f61038361037e610379846101ee565b610360565b6101ee565b9050919050565b5f819050919050565b61039c83610369565b6103b06103a88261038a565b84845461030f565b825550505050565b5f5f905090565b6103c76103b8565b6103d2818484610393565b505050565b5b818110156103f5576103ea5f826103bf565b6001810190506103d8565b5050565b601f82111561043a5761040b816102e2565b610414846102f4565b81016020851015610423578190505b61043761042f856102f4565b8301826103d7565b50505b505050565b5f82821c905092915050565b5f61045a5f198460080261043f565b1980831691505092915050565b5f610472838361044b565b9150826002028217905092915050565b61048b8261027b565b67ffffffffffffffff8111156104a4576104a36100ca565b5b6104ae82546102b2565b6104b98282856103f9565b5f60209050601f8311600181146104ea575f84156104d8578287015190505b6104e28582610467565b865550610549565b601f1984166104f8866102e2565b5f5b8281101561051f578489015182556001820191506020850194506020810190506104fa565b8683101561053c5784890151610538601f89168261044b565b8355505b6001600288020188555050505b505050505050565b7f4e487b71000000000000000000000000000000000000000000000000000000005f52601160045260245ffd5b5f610588826101ee565b9150610593836101ee565b92508282019050808211156105ab576105aa610551565b5b92915050565b6110d2806105be5f395ff3fe60806040526004361061009b575f3560e01c806370740aab1161006357806370740aab1461015d57806396b1cf2814610187578063a6a46a31146101af578063ca973fba146101d9578063d24f8cdd14610203578063ed88c68e1461023f5761009b565b80631fe6aa5e1461009f57806325caa262146100c957806329dcb0cf146100f35780633ccfd60b1461011d578063481c6a7514610133575b5f5ffd5b3480156100aa575f5ffd5b506100b3610249565b6040516100c091906107fb565b60405180910390f35b3480156100d4575f5ffd5b506100dd61030c565b6040516100ea91906107fb565b60405180910390f35b3480156100fe575f5ffd5b50610107610313565b60405161011491906107fb565b60405180910390f35b348015610128575f5ffd5b50610131610319565b005b34801561013e575f5ffd5b506101476104a7565b6040516101549190610853565b60405180910390f35b348015610168575f5ffd5b506101716104cc565b60405161017e91906108dc565b60405180910390f35b348015610192575f5ffd5b506101ad60048036038101906101a89190610a39565b610558565b005b3480156101ba575f5ffd5b506101c3610631565b6040516101d091906107fb565b60405180910390f35b3480156101e4575f5ffd5b506101ed61063a565b6040516101fa91906107fb565b60405180910390f35b34801561020e575f5ffd5b5061022960048036038101906102249190610aaa565b610640565b60405161023691906107fb565b60405180910390f35b610247610655565b005b5f5f60045f3373ffffffffffffffffffffffffffffffffffffffff1673ffffffffffffffffffffffffffffffffffffffff1681526020019081526020015f2054116102c9576040517f08c379a00000000000000000000000000000000000000000000000000000000081526004016102c090610b1f565b60405180910390fd5b60045f3373ffffffffffffffffffffffffffffffffffffffff1673ffffffffffffffffffffffffffffffffffffffff1681526020019081526020015f2054905090565b5f47905090565b60035481565b60015f9054906101000a900473ffffffffffffffffffffffffffffffffffffffff1673ffffffffffffffffffffffffffffffffffffffff163373ffffffffffffffffffffffffffffffffffffffff16146103a8576040517f08c379a000000000000000000000000000000000000000000000000000000000815260040161039f90610bad565b60405180910390fd5b6003544210156103ed576040517f08c379a00000000000000000000000000000000000000000000000000000000081526004016103e490610c3b565b60405180910390fd5b5f47905060015f9054906101000a900473ffffffffffffffffffffffffffffffffffffffff1673ffffffffffffffffffffffffffffffffffffffff166108fc8290811502906040515f60405180830381858888f19350505050158015610455573d5f5f3e3d5ffd5b503373ffffffffffffffffffffffffffffffffffffffff167feaff4b37086828766ad3268786972c0cd24259d4c87a80f9d3963a3c3d999b0d8260405161049c91906107fb565b60405180910390a250565b60015f9054906101000a900473ffffffffffffffffffffffffffffffffffffffff1681565b600280546104d990610c86565b80601f016020809104026020016040519081016040528092919081815260200182805461050590610c86565b80156105505780601f1061052757610100808354040283529160200191610550565b820191905f5260205f20905b81548152906001019060200180831161053357829003601f168201915b505050505081565b60015f9054906101000a900473ffffffffffffffffffffffffffffffffffffffff1673ffffffffffffffffffffffffffffffffffffffff163373ffffffffffffffffffffffffffffffffffffffff16146105e7576040517f08c379a00000000000000000000000000000000000000000000000000000000081526004016105de90610bad565b60405180910390fd5b80600290816105f69190610e56565b507f780a50935e552bbb4121484821a2d661ad401d0428934b0b3b388acf07d580348160405161062691906108dc565b60405180910390a150565b5f600554905090565b60055481565b6004602052805f5260405f205f915090505481565b6003544210610699576040517f08c379a000000000000000000000000000000000000000000000000000000000815260040161069090610f6f565b60405180910390fd5b678ac7230489e800003410156106e4576040517f08c379a00000000000000000000000000000000000000000000000000000000081526004016106db90610fd7565b60405180910390fd5b5f60045f3373ffffffffffffffffffffffffffffffffffffffff1673ffffffffffffffffffffffffffffffffffffffff1681526020019081526020015f2054036107405760055f81548092919061073a90611022565b91905055505b3460045f3373ffffffffffffffffffffffffffffffffffffffff1673ffffffffffffffffffffffffffffffffffffffff1681526020019081526020015f205f82825461078c9190611069565b925050819055503373ffffffffffffffffffffffffffffffffffffffff167faa13962bc79c7a0bc42cb8169b1705f0a6b55cc404ffb8a589d771ca78675978346040516107d991906107fb565b60405180910390a2565b5f819050919050565b6107f5816107e3565b82525050565b5f60208201905061080e5f8301846107ec565b92915050565b5f73ffffffffffffffffffffffffffffffffffffffff82169050919050565b5f61083d82610814565b9050919050565b61084d81610833565b82525050565b5f6020820190506108665f830184610844565b92915050565b5f81519050919050565b5f82825260208201905092915050565b8281835e5f83830152505050565b5f601f19601f8301169050919050565b5f6108ae8261086c565b6108b88185610876565b93506108c8818560208601610886565b6108d181610894565b840191505092915050565b5f6020820190508181035f8301526108f481846108a4565b905092915050565b5f604051905090565b5f5ffd5b5f5ffd5b5f5ffd5b5f5ffd5b7f4e487b71000000000000000000000000000000000000000000000000000000005f52604160045260245ffd5b61094b82610894565b810181811067ffffffffffffffff8211171561096a57610969610915565b5b80604052505050565b5f61097c6108fc565b90506109888282610942565b919050565b5f67ffffffffffffffff8211156109a7576109a6610915565b5b6109b082610894565b9050602081019050919050565b828183375f83830152505050565b5f6109dd6109d88461098d565b610973565b9050828152602081018484840111156109f9576109f8610911565b5b610a048482856109bd565b509392505050565b5f82601f830112610a2057610a1f61090d565b5b8135610a308482602086016109cb565b91505092915050565b5f60208284031215610a4e57610a4d610905565b5b5f82013567ffffffffffffffff811115610a6b57610a6a610909565b5b610a7784828501610a0c565b91505092915050565b610a8981610833565b8114610a93575f5ffd5b50565b5f81359050610aa481610a80565b92915050565b5f60208284031215610abf57610abe610905565b5b5f610acc84828501610a96565b91505092915050565b7f596f7520686176656e277420646f6e61746564207965740000000000000000005f82015250565b5f610b09601783610876565b9150610b1482610ad5565b602082019050919050565b5f6020820190508181035f830152610b3681610afd565b9050919050565b7f4f6e6c7920746865206d616e616765722063616e2063616c6c207468697320665f8201527f756e6374696f6e00000000000000000000000000000000000000000000000000602082015250565b5f610b97602783610876565b9150610ba282610b3d565b604082019050919050565b5f6020820190508181035f830152610bc481610b8b565b9050919050565b7f54686520646f6e6174696f6e20706572696f64206973207374696c6c206f6e675f8201527f6f696e6700000000000000000000000000000000000000000000000000000000602082015250565b5f610c25602483610876565b9150610c3082610bcb565b604082019050919050565b5f6020820190508181035f830152610c5281610c19565b9050919050565b7f4e487b71000000000000000000000000000000000000000000000000000000005f52602260045260245ffd5b5f6002820490506001821680610c9d57607f821691505b602082108103610cb057610caf610c59565b5b50919050565b5f819050815f5260205f209050919050565b5f6020601f8301049050919050565b5f82821b905092915050565b5f60088302610d127fffffffffffffffffffffffffffffffffffffffffffffffffffffffffffffffff82610cd7565b610d1c8683610cd7565b95508019841693508086168417925050509392505050565b5f819050919050565b5f610d57610d52610d4d846107e3565b610d34565b6107e3565b9050919050565b5f819050919050565b610d7083610d3d565b610d84610d7c82610d5e565b848454610ce3565b825550505050565b5f5f905090565b610d9b610d8c565b610da6818484610d67565b505050565b5b81811015610dc957610dbe5f82610d93565b600181019050610dac565b5050565b601f821115610e0e57610ddf81610cb6565b610de884610cc8565b81016020851015610df7578190505b610e0b610e0385610cc8565b830182610dab565b50505b505050565b5f82821c905092915050565b5f610e2e5f1984600802610e13565b1980831691505092915050565b5f610e468383610e1f565b9150826002028217905092915050565b610e5f8261086c565b67ffffffffffffffff811115610e7857610e77610915565b5b610e828254610c86565b610e8d828285610dcd565b5f60209050601f831160018114610ebe575f8415610eac578287015190505b610eb68582610e3b565b865550610f1d565b601f198416610ecc86610cb6565b5f5b82811015610ef357848901518255600182019150602085019450602081019050610ece565b86831015610f105784890151610f0c601f891682610e1f565b8355505b6001600288020188555050505b505050505050565b7f54686520646f6e6174696f6e20706572696f642068617320656e6465640000005f82015250565b5f610f59601d83610876565b9150610f6482610f25565b602082019050919050565b5f6020820190508181035f830152610f8681610f4d565b9050919050565b7f6174206c656173742070617920313020657468657200000000000000000000005f82015250565b5f610fc1601583610876565b9150610fcc82610f8d565b602082019050919050565b5f6020820190508181035f830152610fee81610fb5565b9050919050565b7f4e487b71000000000000000000000000000000000000000000000000000000005f52601160045260245ffd5b5f61102c826107e3565b91507fffffffffffffffffffffffffffffffffffffffffffffffffffffffffffffffff820361105e5761105d610ff5565b5b600182019050919050565b5f611073826107e3565b915061107e836107e3565b925082820190508082111561109657611095610ff5565b5b9291505056fea26469706673582212200220f520443d8bf4727f102ae17fa28ac936a4db59697a3be95b80e15e07c3cc64736f6c634300081c0033",
					"opcodes": "PUSH1 0x80 PUSH1 0x40 MSTORE CALLVALUE DUP1 ISZERO PUSH2 0xF JUMPI PUSH0 PUSH0 REVERT JUMPDEST POP PUSH1 0x40 MLOAD PUSH2 0x1690 CODESIZE SUB DUP1 PUSH2 0x1690 DUP4 CODECOPY DUP2 DUP2 ADD PUSH1 0x40 MSTORE DUP2 ADD SWAP1 PUSH2 0x31 SWAP2 SWAP1 PUSH2 0x221 JUMP JUMPDEST PUSH1 0x1 PUSH0 DUP2 SWAP1 SSTORE POP CALLER PUSH1 0x1 PUSH0 PUSH2 0x100 EXP DUP2 SLOAD DUP2 PUSH20 0xFFFFFFFFFFFFFFFFFFFFFFFFFFFFFFFFFFFFFFFF MUL NOT AND SWAP1 DUP4 PUSH20 0xFFFFFFFFFFFFFFFFFFFFFFFFFFFFFFFFFFFFFFFF AND MUL OR SWAP1 SSTORE POP DUP2 PUSH1 0x2 SWAP1 DUP2 PUSH2 0x87 SWAP2 SWAP1 PUSH2 0x482 JUMP JUMPDEST POP DUP1 TIMESTAMP PUSH2 0x94 SWAP2 SWAP1 PUSH2 0x57E JUMP JUMPDEST PUSH1 0x3 DUP2 SWAP1 SSTORE POP POP POP PUSH2 0x5B1 JUMP JUMPDEST PUSH0 PUSH1 0x40 MLOAD SWAP1 POP SWAP1 JUMP JUMPDEST PUSH0 PUSH0 REVERT JUMPDEST PUSH0 PUSH0 REVERT JUMPDEST PUSH0 PUSH0 REVERT JUMPDEST PUSH0 PUSH0 REVERT JUMPDEST PUSH0 PUSH1 0x1F NOT PUSH1 0x1F DUP4 ADD AND SWAP1 POP SWAP2 SWAP1 POP JUMP JUMPDEST PUSH32 0x4E487B7100000000000000000000000000000000000000000000000000000000 PUSH0 MSTORE PUSH1 0x41 PUSH1 0x4 MSTORE PUSH1 0x24 PUSH0 REVERT JUMPDEST PUSH2 0x100 DUP3 PUSH2 0xBA JUMP JUMPDEST DUP2 ADD DUP2 DUP2 LT PUSH8 0xFFFFFFFFFFFFFFFF DUP3 GT OR ISZERO PUSH2 0x11F JUMPI PUSH2 0x11E PUSH2 0xCA JUMP JUMPDEST JUMPDEST DUP1 PUSH1 0x40 MSTORE POP POP POP JUMP JUMPDEST PUSH0 PUSH2 0x131 PUSH2 0xA1 JUMP JUMPDEST SWAP1 POP PUSH2 0x13D DUP3 DUP3 PUSH2 0xF7 JUMP JUMPDEST SWAP2 SWAP1 POP JUMP JUMPDEST PUSH0 PUSH8 0xFFFFFFFFFFFFFFFF DUP3 GT ISZERO PUSH2 0x15C JUMPI PUSH2 0x15B PUSH2 0xCA JUMP JUMPDEST JUMPDEST PUSH2 0x165 DUP3 PUSH2 0xBA JUMP JUMPDEST SWAP1 POP PUSH1 0x20 DUP2 ADD SWAP1 POP SWAP2 SWAP1 POP JUMP JUMPDEST DUP3 DUP2 DUP4 MCOPY PUSH0 DUP4 DUP4 ADD MSTORE POP POP POP JUMP JUMPDEST PUSH0 PUSH2 0x192 PUSH2 0x18D DUP5 PUSH2 0x142 JUMP JUMPDEST PUSH2 0x128 JUMP JUMPDEST SWAP1 POP DUP3 DUP2 MSTORE PUSH1 0x20 DUP2 ADD DUP5 DUP5 DUP5 ADD GT ISZERO PUSH2 0x1AE JUMPI PUSH2 0x1AD PUSH2 0xB6 JUMP JUMPDEST JUMPDEST PUSH2 0x1B9 DUP5 DUP3 DUP6 PUSH2 0x172 JUMP JUMPDEST POP SWAP4 SWAP3 POP POP POP JUMP JUMPDEST PUSH0 DUP3 PUSH1 0x1F DUP4 ADD SLT PUSH2 0x1D5 JUMPI PUSH2 0x1D4 PUSH2 0xB2 JUMP JUMPDEST JUMPDEST DUP2 MLOAD PUSH2 0x1E5 DUP5 DUP3 PUSH1 0x20 DUP7 ADD PUSH2 0x180 JUMP JUMPDEST SWAP2 POP POP SWAP3 SWAP2 POP POP JUMP JUMPDEST PUSH0 DUP2 SWAP1 POP SWAP2 SWAP1 POP JUMP JUMPDEST PUSH2 0x200 DUP2 PUSH2 0x1EE JUMP JUMPDEST DUP2 EQ PUSH2 0x20A JUMPI PUSH0 PUSH0 REVERT JUMPDEST POP JUMP JUMPDEST PUSH0 DUP2 MLOAD SWAP1 POP PUSH2 0x21B DUP2 PUSH2 0x1F7 JUMP JUMPDEST SWAP3 SWAP2 POP POP JUMP JUMPDEST PUSH0 PUSH0 PUSH1 0x40 DUP4 DUP6 SUB SLT ISZERO PUSH2 0x237 JUMPI PUSH2 0x236 PUSH2 0xAA JUMP JUMPDEST JUMPDEST PUSH0 DUP4 ADD MLOAD PUSH8 0xFFFFFFFFFFFFFFFF DUP2 GT ISZERO PUSH2 0x254 JUMPI PUSH2 0x253 PUSH2 0xAE JUMP JUMPDEST JUMPDEST PUSH2 0x260 DUP6 DUP3 DUP7 ADD PUSH2 0x1C1 JUMP JUMPDEST SWAP3 POP POP PUSH1 0x20 PUSH2 0x271 DUP6 DUP3 DUP7 ADD PUSH2 0x20D JUMP JUMPDEST SWAP2 POP POP SWAP3 POP SWAP3 SWAP1 POP JUMP JUMPDEST PUSH0 DUP2 MLOAD SWAP1 POP SWAP2 SWAP1 POP JUMP JUMPDEST PUSH32 0x4E487B7100000000000000000000000000000000000000000000000000000000 PUSH0 MSTORE PUSH1 0x22 PUSH1 0x4 MSTORE PUSH1 0x24 PUSH0 REVERT JUMPDEST PUSH0 PUSH1 0x2 DUP3 DIV SWAP1 POP PUSH1 0x1 DUP3 AND DUP1 PUSH2 0x2C9 JUMPI PUSH1 0x7F DUP3 AND SWAP2 POP JUMPDEST PUSH1 0x20 DUP3 LT DUP2 SUB PUSH2 0x2DC JUMPI PUSH2 0x2DB PUSH2 0x285 JUMP JUMPDEST JUMPDEST POP SWAP2 SWAP1 POP JUMP JUMPDEST PUSH0 DUP2 SWAP1 POP DUP2 PUSH0 MSTORE PUSH1 0x20 PUSH0 KECCAK256 SWAP1 POP SWAP2 SWAP1 POP JUMP JUMPDEST PUSH0 PUSH1 0x20 PUSH1 0x1F DUP4 ADD DIV SWAP1 POP SWAP2 SWAP1 POP JUMP JUMPDEST PUSH0 DUP3 DUP3 SHL SWAP1 POP SWAP3 SWAP2 POP POP JUMP JUMPDEST PUSH0 PUSH1 0x8 DUP4 MUL PUSH2 0x33E PUSH32 0xFFFFFFFFFFFFFFFFFFFFFFFFFFFFFFFFFFFFFFFFFFFFFFFFFFFFFFFFFFFFFFFF DUP3 PUSH2 0x303 JUMP JUMPDEST PUSH2 0x348 DUP7 DUP4 PUSH2 0x303 JUMP JUMPDEST SWAP6 POP DUP1 NOT DUP5 AND SWAP4 POP DUP1 DUP7 AND DUP5 OR SWAP3 POP POP POP SWAP4 SWAP3 POP POP POP JUMP JUMPDEST PUSH0 DUP2 SWAP1 POP SWAP2 SWAP1 POP JUMP JUMPDEST PUSH0 PUSH2 0x383 PUSH2 0x37E PUSH2 0x379 DUP5 PUSH2 0x1EE JUMP JUMPDEST PUSH2 0x360 JUMP JUMPDEST PUSH2 0x1EE JUMP JUMPDEST SWAP1 POP SWAP2 SWAP1 POP JUMP JUMPDEST PUSH0 DUP2 SWAP1 POP SWAP2 SWAP1 POP JUMP JUMPDEST PUSH2 0x39C DUP4 PUSH2 0x369 JUMP JUMPDEST PUSH2 0x3B0 PUSH2 0x3A8 DUP3 PUSH2 0x38A JUMP JUMPDEST DUP5 DUP5 SLOAD PUSH2 0x30F JUMP JUMPDEST DUP3 SSTORE POP POP POP POP JUMP JUMPDEST PUSH0 PUSH0 SWAP1 POP SWAP1 JUMP JUMPDEST PUSH2 0x3C7 PUSH2 0x3B8 JUMP JUMPDEST PUSH2 0x3D2 DUP2 DUP5 DUP5 PUSH2 0x393 JUMP JUMPDEST POP POP POP JUMP JUMPDEST JUMPDEST DUP2 DUP2 LT ISZERO PUSH2 0x3F5 JUMPI PUSH2 0x3EA PUSH0 DUP3 PUSH2 0x3BF JUMP JUMPDEST PUSH1 0x1 DUP2 ADD SWAP1 POP PUSH2 0x3D8 JUMP JUMPDEST POP POP JUMP JUMPDEST PUSH1 0x1F DUP3 GT ISZERO PUSH2 0x43A JUMPI PUSH2 0x40B DUP2 PUSH2 0x2E2 JUMP JUMPDEST PUSH2 0x414 DUP5 PUSH2 0x2F4 JUMP JUMPDEST DUP2 ADD PUSH1 0x20 DUP6 LT ISZERO PUSH2 0x423 JUMPI DUP2 SWAP1 POP JUMPDEST PUSH2 0x437 PUSH2 0x42F DUP6 PUSH2 0x2F4 JUMP JUMPDEST DUP4 ADD DUP3 PUSH2 0x3D7 JUMP JUMPDEST POP POP JUMPDEST POP POP POP JUMP JUMPDEST PUSH0 DUP3 DUP3 SHR SWAP1 POP SWAP3 SWAP2 POP POP JUMP JUMPDEST PUSH0 PUSH2 0x45A PUSH0 NOT DUP5 PUSH1 0x8 MUL PUSH2 0x43F JUMP JUMPDEST NOT DUP1 DUP4 AND SWAP2 POP POP SWAP3 SWAP2 POP POP JUMP JUMPDEST PUSH0 PUSH2 0x472 DUP4 DUP4 PUSH2 0x44B JUMP JUMPDEST SWAP2 POP DUP3 PUSH1 0x2 MUL DUP3 OR SWAP1 POP SWAP3 SWAP2 POP POP JUMP JUMPDEST PUSH2 0x48B DUP3 PUSH2 0x27B JUMP JUMPDEST PUSH8 0xFFFFFFFFFFFFFFFF DUP2 GT ISZERO PUSH2 0x4A4 JUMPI PUSH2 0x4A3 PUSH2 0xCA JUMP JUMPDEST JUMPDEST PUSH2 0x4AE DUP3 SLOAD PUSH2 0x2B2 JUMP JUMPDEST PUSH2 0x4B9 DUP3 DUP3 DUP6 PUSH2 0x3F9 JUMP JUMPDEST PUSH0 PUSH1 0x20 SWAP1 POP PUSH1 0x1F DUP4 GT PUSH1 0x1 DUP2 EQ PUSH2 0x4EA JUMPI PUSH0 DUP5 ISZERO PUSH2 0x4D8 JUMPI DUP3 DUP8 ADD MLOAD SWAP1 POP JUMPDEST PUSH2 0x4E2 DUP6 DUP3 PUSH2 0x467 JUMP JUMPDEST DUP7 SSTORE POP PUSH2 0x549 JUMP JUMPDEST PUSH1 0x1F NOT DUP5 AND PUSH2 0x4F8 DUP7 PUSH2 0x2E2 JUMP JUMPDEST PUSH0 JUMPDEST DUP3 DUP2 LT ISZERO PUSH2 0x51F JUMPI DUP5 DUP10 ADD MLOAD DUP3 SSTORE PUSH1 0x1 DUP3 ADD SWAP2 POP PUSH1 0x20 DUP6 ADD SWAP5 POP PUSH1 0x20 DUP2 ADD SWAP1 POP PUSH2 0x4FA JUMP JUMPDEST DUP7 DUP4 LT ISZERO PUSH2 0x53C JUMPI DUP5 DUP10 ADD MLOAD PUSH2 0x538 PUSH1 0x1F DUP10 AND DUP3 PUSH2 0x44B JUMP JUMPDEST DUP4 SSTORE POP JUMPDEST PUSH1 0x1 PUSH1 0x2 DUP9 MUL ADD DUP9 SSTORE POP POP POP JUMPDEST POP POP POP POP POP POP JUMP JUMPDEST PUSH32 0x4E487B7100000000000000000000000000000000000000000000000000000000 PUSH0 MSTORE PUSH1 0x11 PUSH1 0x4 MSTORE PUSH1 0x24 PUSH0 REVERT JUMPDEST PUSH0 PUSH2 0x588 DUP3 PUSH2 0x1EE JUMP JUMPDEST SWAP2 POP PUSH2 0x593 DUP4 PUSH2 0x1EE JUMP JUMPDEST SWAP3 POP DUP3 DUP3 ADD SWAP1 POP DUP1 DUP3 GT ISZERO PUSH2 0x5AB JUMPI PUSH2 0x5AA PUSH2 0x551 JUMP JUMPDEST JUMPDEST SWAP3 SWAP2 POP POP JUMP JUMPDEST PUSH2 0x10D2 DUP1 PUSH2 0x5BE PUSH0 CODECOPY PUSH0 RETURN INVALID PUSH1 0x80 PUSH1 0x40 MSTORE PUSH1 0x4 CALLDATASIZE LT PUSH2 0x9B JUMPI PUSH0 CALLDATALOAD PUSH1 0xE0 SHR DUP1 PUSH4 0x70740AAB GT PUSH2 0x63 JUMPI DUP1 PUSH4 0x70740AAB EQ PUSH2 0x15D JUMPI DUP1 PUSH4 0x96B1CF28 EQ PUSH2 0x187 JUMPI DUP1 PUSH4 0xA6A46A31 EQ PUSH2 0x1AF JUMPI DUP1 PUSH4 0xCA973FBA EQ PUSH2 0x1D9 JUMPI DUP1 PUSH4 0xD24F8CDD EQ PUSH2 0x203 JUMPI DUP1 PUSH4 0xED88C68E EQ PUSH2 0x23F JUMPI PUSH2 0x9B JUMP JUMPDEST DUP1 PUSH4 0x1FE6AA5E EQ PUSH2 0x9F JUMPI DUP1 PUSH4 0x25CAA262 EQ PUSH2 0xC9 JUMPI DUP1 PUSH4 0x29DCB0CF EQ PUSH2 0xF3 JUMPI DUP1 PUSH4 0x3CCFD60B EQ PUSH2 0x11D JUMPI DUP1 PUSH4 0x481C6A75 EQ PUSH2 0x133 JUMPI JUMPDEST PUSH0 PUSH0 REVERT JUMPDEST CALLVALUE DUP1 ISZERO PUSH2 0xAA JUMPI PUSH0 PUSH0 REVERT JUMPDEST POP PUSH2 0xB3 PUSH2 0x249 JUMP JUMPDEST PUSH1 0x40 MLOAD PUSH2 0xC0 SWAP2 SWAP1 PUSH2 0x7FB JUMP JUMPDEST PUSH1 0x40 MLOAD DUP1 SWAP2 SUB SWAP1 RETURN JUMPDEST CALLVALUE DUP1 ISZERO PUSH2 0xD4 JUMPI PUSH0 PUSH0 REVERT JUMPDEST POP PUSH2 0xDD PUSH2 0x30C JUMP JUMPDEST PUSH1 0x40 MLOAD PUSH2 0xEA SWAP2 SWAP1 PUSH2 0x7FB JUMP JUMPDEST PUSH1 0x40 MLOAD DUP1 SWAP2 SUB SWAP1 RETURN JUMPDEST CALLVALUE DUP1 ISZERO PUSH2 0xFE JUMPI PUSH0 PUSH0 REVERT JUMPDEST POP PUSH2 0x107 PUSH2 0x313 JUMP JUMPDEST PUSH1 0x40 MLOAD PUSH2 0x114 SWAP2 SWAP1 PUSH2 0x7FB JUMP JUMPDEST PUSH1 0x40 MLOAD DUP1 SWAP2 SUB SWAP1 RETURN JUMPDEST CALLVALUE DUP1 ISZERO PUSH2 0x128 JUMPI PUSH0 PUSH0 REVERT JUMPDEST POP PUSH2 0x131 PUSH2 0x319 JUMP JUMPDEST STOP JUMPDEST CALLVALUE DUP1 ISZERO PUSH2 0x13E JUMPI PUSH0 PUSH0 REVERT JUMPDEST POP PUSH2 0x147 PUSH2 0x4A7 JUMP JUMPDEST PUSH1 0x40 MLOAD PUSH2 0x154 SWAP2 SWAP1 PUSH2 0x853 JUMP JUMPDEST PUSH1 0x40 MLOAD DUP1 SWAP2 SUB SWAP1 RETURN JUMPDEST CALLVALUE DUP1 ISZERO PUSH2 0x168 JUMPI PUSH0 PUSH0 REVERT JUMPDEST POP PUSH2 0x171 PUSH2 0x4CC JUMP JUMPDEST PUSH1 0x40 MLOAD PUSH2 0x17E SWAP2 SWAP1 PUSH2 0x8DC JUMP JUMPDEST PUSH1 0x40 MLOAD DUP1 SWAP2 SUB SWAP1 RETURN JUMPDEST CALLVALUE DUP1 ISZERO PUSH2 0x192 JUMPI PUSH0 PUSH0 REVERT JUMPDEST POP PUSH2 0x1AD PUSH1 0x4 DUP1 CALLDATASIZE SUB DUP2 ADD SWAP1 PUSH2 0x1A8 SWAP2 SWAP1 PUSH2 0xA39 JUMP JUMPDEST PUSH2 0x558 JUMP JUMPDEST STOP JUMPDEST CALLVALUE DUP1 ISZERO PUSH2 0x1BA JUMPI PUSH0 PUSH0 REVERT JUMPDEST POP PUSH2 0x1C3 PUSH2 0x631 JUMP JUMPDEST PUSH1 0x40 MLOAD PUSH2 0x1D0 SWAP2 SWAP1 PUSH2 0x7FB JUMP JUMPDEST PUSH1 0x40 MLOAD DUP1 SWAP2 SUB SWAP1 RETURN JUMPDEST CALLVALUE DUP1 ISZERO PUSH2 0x1E4 JUMPI PUSH0 PUSH0 REVERT JUMPDEST POP PUSH2 0x1ED PUSH2 0x63A JUMP JUMPDEST PUSH1 0x40 MLOAD PUSH2 0x1FA SWAP2 SWAP1 PUSH2 0x7FB JUMP JUMPDEST PUSH1 0x40 MLOAD DUP1 SWAP2 SUB SWAP1 RETURN JUMPDEST CALLVALUE DUP1 ISZERO PUSH2 0x20E JUMPI PUSH0 PUSH0 REVERT JUMPDEST POP PUSH2 0x229 PUSH1 0x4 DUP1 CALLDATASIZE SUB DUP2 ADD SWAP1 PUSH2 0x224 SWAP2 SWAP1 PUSH2 0xAAA JUMP JUMPDEST PUSH2 0x640 JUMP JUMPDEST PUSH1 0x40 MLOAD PUSH2 0x236 SWAP2 SWAP1 PUSH2 0x7FB JUMP JUMPDEST PUSH1 0x40 MLOAD DUP1 SWAP2 SUB SWAP1 RETURN JUMPDEST PUSH2 0x247 PUSH2 0x655 JUMP JUMPDEST STOP JUMPDEST PUSH0 PUSH0 PUSH1 0x4 PUSH0 CALLER PUSH20 0xFFFFFFFFFFFFFFFFFFFFFFFFFFFFFFFFFFFFFFFF AND PUSH20 0xFFFFFFFFFFFFFFFFFFFFFFFFFFFFFFFFFFFFFFFF AND DUP2 MSTORE PUSH1 0x20 ADD SWAP1 DUP2 MSTORE PUSH1 0x20 ADD PUSH0 KECCAK256 SLOAD GT PUSH2 0x2C9 JUMPI PUSH1 0x40 MLOAD PUSH32 0x8C379A000000000000000000000000000000000000000000000000000000000 DUP2 MSTORE PUSH1 0x4 ADD PUSH2 0x2C0 SWAP1 PUSH2 0xB1F JUMP JUMPDEST PUSH1 0x40 MLOAD DUP1 SWAP2 SUB SWAP1 REVERT JUMPDEST PUSH1 0x4 PUSH0 CALLER PUSH20 0xFFFFFFFFFFFFFFFFFFFFFFFFFFFFFFFFFFFFFFFF AND PUSH20 0xFFFFFFFFFFFFFFFFFFFFFFFFFFFFFFFFFFFFFFFF AND DUP2 MSTORE PUSH1 0x20 ADD SWAP1 DUP2 MSTORE PUSH1 0x20 ADD PUSH0 KECCAK256 SLOAD SWAP1 POP SWAP1 JUMP JUMPDEST PUSH0 SELFBALANCE SWAP1 POP SWAP1 JUMP JUMPDEST PUSH1 0x3 SLOAD DUP2 JUMP JUMPDEST PUSH1 0x1 PUSH0 SWAP1 SLOAD SWAP1 PUSH2 0x100 EXP SWAP1 DIV PUSH20 0xFFFFFFFFFFFFFFFFFFFFFFFFFFFFFFFFFFFFFFFF AND PUSH20 0xFFFFFFFFFFFFFFFFFFFFFFFFFFFFFFFFFFFFFFFF AND CALLER PUSH20 0xFFFFFFFFFFFFFFFFFFFFFFFFFFFFFFFFFFFFFFFF AND EQ PUSH2 0x3A8 JUMPI PUSH1 0x40 MLOAD PUSH32 0x8C379A000000000000000000000000000000000000000000000000000000000 DUP2 MSTORE PUSH1 0x4 ADD PUSH2 0x39F SWAP1 PUSH2 0xBAD JUMP JUMPDEST PUSH1 0x40 MLOAD DUP1 SWAP2 SUB SWAP1 REVERT JUMPDEST PUSH1 0x3 SLOAD TIMESTAMP LT ISZERO PUSH2 0x3ED JUMPI PUSH1 0x40 MLOAD PUSH32 0x8C379A000000000000000000000000000000000000000000000000000000000 DUP2 MSTORE PUSH1 0x4 ADD PUSH2 0x3E4 SWAP1 PUSH2 0xC3B JUMP JUMPDEST PUSH1 0x40 MLOAD DUP1 SWAP2 SUB SWAP1 REVERT JUMPDEST PUSH0 SELFBALANCE SWAP1 POP PUSH1 0x1 PUSH0 SWAP1 SLOAD SWAP1 PUSH2 0x100 EXP SWAP1 DIV PUSH20 0xFFFFFFFFFFFFFFFFFFFFFFFFFFFFFFFFFFFFFFFF AND PUSH20 0xFFFFFFFFFFFFFFFFFFFFFFFFFFFFFFFFFFFFFFFF AND PUSH2 0x8FC DUP3 SWAP1 DUP2 ISZERO MUL SWAP1 PUSH1 0x40 MLOAD PUSH0 PUSH1 0x40 MLOAD DUP1 DUP4 SUB DUP2 DUP6 DUP9 DUP9 CALL SWAP4 POP POP POP POP ISZERO DUP1 ISZERO PUSH2 0x455 JUMPI RETURNDATASIZE PUSH0 PUSH0 RETURNDATACOPY RETURNDATASIZE PUSH0 REVERT JUMPDEST POP CALLER PUSH20 0xFFFFFFFFFFFFFFFFFFFFFFFFFFFFFFFFFFFFFFFF AND PUSH32 0xEAFF4B37086828766AD3268786972C0CD24259D4C87A80F9D3963A3C3D999B0D DUP3 PUSH1 0x40 MLOAD PUSH2 0x49C SWAP2 SWAP1 PUSH2 0x7FB JUMP JUMPDEST PUSH1 0x40 MLOAD DUP1 SWAP2 SUB SWAP1 LOG2 POP JUMP JUMPDEST PUSH1 0x1 PUSH0 SWAP1 SLOAD SWAP1 PUSH2 0x100 EXP SWAP1 DIV PUSH20 0xFFFFFFFFFFFFFFFFFFFFFFFFFFFFFFFFFFFFFFFF AND DUP2 JUMP JUMPDEST PUSH1 0x2 DUP1 SLOAD PUSH2 0x4D9 SWAP1 PUSH2 0xC86 JUMP JUMPDEST DUP1 PUSH1 0x1F ADD PUSH1 0x20 DUP1 SWAP2 DIV MUL PUSH1 0x20 ADD PUSH1 0x40 MLOAD SWAP1 DUP2 ADD PUSH1 0x40 MSTORE DUP1 SWAP3 SWAP2 SWAP1 DUP2 DUP2 MSTORE PUSH1 0x20 ADD DUP3 DUP1 SLOAD PUSH2 0x505 SWAP1 PUSH2 0xC86 JUMP JUMPDEST DUP1 ISZERO PUSH2 0x550 JUMPI DUP1 PUSH1 0x1F LT PUSH2 0x527 JUMPI PUSH2 0x100 DUP1 DUP4 SLOAD DIV MUL DUP4 MSTORE SWAP2 PUSH1 0x20 ADD SWAP2 PUSH2 0x550 JUMP JUMPDEST DUP3 ADD SWAP2 SWAP1 PUSH0 MSTORE PUSH1 0x20 PUSH0 KECCAK256 SWAP1 JUMPDEST DUP2 SLOAD DUP2 MSTORE SWAP1 PUSH1 0x1 ADD SWAP1 PUSH1 0x20 ADD DUP1 DUP4 GT PUSH2 0x533 JUMPI DUP3 SWAP1 SUB PUSH1 0x1F AND DUP3 ADD SWAP2 JUMPDEST POP POP POP POP POP DUP2 JUMP JUMPDEST PUSH1 0x1 PUSH0 SWAP1 SLOAD SWAP1 PUSH2 0x100 EXP SWAP1 DIV PUSH20 0xFFFFFFFFFFFFFFFFFFFFFFFFFFFFFFFFFFFFFFFF AND PUSH20 0xFFFFFFFFFFFFFFFFFFFFFFFFFFFFFFFFFFFFFFFF AND CALLER PUSH20 0xFFFFFFFFFFFFFFFFFFFFFFFFFFFFFFFFFFFFFFFF AND EQ PUSH2 0x5E7 JUMPI PUSH1 0x40 MLOAD PUSH32 0x8C379A000000000000000000000000000000000000000000000000000000000 DUP2 MSTORE PUSH1 0x4 ADD PUSH2 0x5DE SWAP1 PUSH2 0xBAD JUMP JUMPDEST PUSH1 0x40 MLOAD DUP1 SWAP2 SUB SWAP1 REVERT JUMPDEST DUP1 PUSH1 0x2 SWAP1 DUP2 PUSH2 0x5F6 SWAP2 SWAP1 PUSH2 0xE56 JUMP JUMPDEST POP PUSH32 0x780A50935E552BBB4121484821A2D661AD401D0428934B0B3B388ACF07D58034 DUP2 PUSH1 0x40 MLOAD PUSH2 0x626 SWAP2 SWAP1 PUSH2 0x8DC JUMP JUMPDEST PUSH1 0x40 MLOAD DUP1 SWAP2 SUB SWAP1 LOG1 POP JUMP JUMPDEST PUSH0 PUSH1 0x5 SLOAD SWAP1 POP SWAP1 JUMP JUMPDEST PUSH1 0x5 SLOAD DUP2 JUMP JUMPDEST PUSH1 0x4 PUSH1 0x20 MSTORE DUP1 PUSH0 MSTORE PUSH1 0x40 PUSH0 KECCAK256 PUSH0 SWAP2 POP SWAP1 POP SLOAD DUP2 JUMP JUMPDEST PUSH1 0x3 SLOAD TIMESTAMP LT PUSH2 0x699 JUMPI PUSH1 0x40 MLOAD PUSH32 0x8C379A000000000000000000000000000000000000000000000000000000000 DUP2 MSTORE PUSH1 0x4 ADD PUSH2 0x690 SWAP1 PUSH2 0xF6F JUMP JUMPDEST PUSH1 0x40 MLOAD DUP1 SWAP2 SUB SWAP1 REVERT JUMPDEST PUSH8 0x8AC7230489E80000 CALLVALUE LT ISZERO PUSH2 0x6E4 JUMPI PUSH1 0x40 MLOAD PUSH32 0x8C379A000000000000000000000000000000000000000000000000000000000 DUP2 MSTORE PUSH1 0x4 ADD PUSH2 0x6DB SWAP1 PUSH2 0xFD7 JUMP JUMPDEST PUSH1 0x40 MLOAD DUP1 SWAP2 SUB SWAP1 REVERT JUMPDEST PUSH0 PUSH1 0x4 PUSH0 CALLER PUSH20 0xFFFFFFFFFFFFFFFFFFFFFFFFFFFFFFFFFFFFFFFF AND PUSH20 0xFFFFFFFFFFFFFFFFFFFFFFFFFFFFFFFFFFFFFFFF AND DUP2 MSTORE PUSH1 0x20 ADD SWAP1 DUP2 MSTORE PUSH1 0x20 ADD PUSH0 KECCAK256 SLOAD SUB PUSH2 0x740 JUMPI PUSH1 0x5 PUSH0 DUP2 SLOAD DUP1 SWAP3 SWAP2 SWAP1 PUSH2 0x73A SWAP1 PUSH2 0x1022 JUMP JUMPDEST SWAP2 SWAP1 POP SSTORE POP JUMPDEST CALLVALUE PUSH1 0x4 PUSH0 CALLER PUSH20 0xFFFFFFFFFFFFFFFFFFFFFFFFFFFFFFFFFFFFFFFF AND PUSH20 0xFFFFFFFFFFFFFFFFFFFFFFFFFFFFFFFFFFFFFFFF AND DUP2 MSTORE PUSH1 0x20 ADD SWAP1 DUP2 MSTORE PUSH1 0x20 ADD PUSH0 KECCAK256 PUSH0 DUP3 DUP3 SLOAD PUSH2 0x78C SWAP2 SWAP1 PUSH2 0x1069 JUMP JUMPDEST SWAP3 POP POP DUP2 SWAP1 SSTORE POP CALLER PUSH20 0xFFFFFFFFFFFFFFFFFFFFFFFFFFFFFFFFFFFFFFFF AND PUSH32 0xAA13962BC79C7A0BC42CB8169B1705F0A6B55CC404FFB8A589D771CA78675978 CALLVALUE PUSH1 0x40 MLOAD PUSH2 0x7D9 SWAP2 SWAP1 PUSH2 0x7FB JUMP JUMPDEST PUSH1 0x40 MLOAD DUP1 SWAP2 SUB SWAP1 LOG2 JUMP JUMPDEST PUSH0 DUP2 SWAP1 POP SWAP2 SWAP1 POP JUMP JUMPDEST PUSH2 0x7F5 DUP2 PUSH2 0x7E3 JUMP JUMPDEST DUP3 MSTORE POP POP JUMP JUMPDEST PUSH0 PUSH1 0x20 DUP3 ADD SWAP1 POP PUSH2 0x80E PUSH0 DUP4 ADD DUP5 PUSH2 0x7EC JUMP JUMPDEST SWAP3 SWAP2 POP POP JUMP JUMPDEST PUSH0 PUSH20 0xFFFFFFFFFFFFFFFFFFFFFFFFFFFFFFFFFFFFFFFF DUP3 AND SWAP1 POP SWAP2 SWAP1 POP JUMP JUMPDEST PUSH0 PUSH2 0x83D DUP3 PUSH2 0x814 JUMP JUMPDEST SWAP1 POP SWAP2 SWAP1 POP JUMP JUMPDEST PUSH2 0x84D DUP2 PUSH2 0x833 JUMP JUMPDEST DUP3 MSTORE POP POP JUMP JUMPDEST PUSH0 PUSH1 0x20 DUP3 ADD SWAP1 POP PUSH2 0x866 PUSH0 DUP4 ADD DUP5 PUSH2 0x844 JUMP JUMPDEST SWAP3 SWAP2 POP POP JUMP JUMPDEST PUSH0 DUP2 MLOAD SWAP1 POP SWAP2 SWAP1 POP JUMP JUMPDEST PUSH0 DUP3 DUP3 MSTORE PUSH1 0x20 DUP3 ADD SWAP1 POP SWAP3 SWAP2 POP POP JUMP JUMPDEST DUP3 DUP2 DUP4 MCOPY PUSH0 DUP4 DUP4 ADD MSTORE POP POP POP JUMP JUMPDEST PUSH0 PUSH1 0x1F NOT PUSH1 0x1F DUP4 ADD AND SWAP1 POP SWAP2 SWAP1 POP JUMP JUMPDEST PUSH0 PUSH2 0x8AE DUP3 PUSH2 0x86C JUMP JUMPDEST PUSH2 0x8B8 DUP2 DUP6 PUSH2 0x876 JUMP JUMPDEST SWAP4 POP PUSH2 0x8C8 DUP2 DUP6 PUSH1 0x20 DUP7 ADD PUSH2 0x886 JUMP JUMPDEST PUSH2 0x8D1 DUP2 PUSH2 0x894 JUMP JUMPDEST DUP5 ADD SWAP2 POP POP SWAP3 SWAP2 POP POP JUMP JUMPDEST PUSH0 PUSH1 0x20 DUP3 ADD SWAP1 POP DUP2 DUP2 SUB PUSH0 DUP4 ADD MSTORE PUSH2 0x8F4 DUP2 DUP5 PUSH2 0x8A4 JUMP JUMPDEST SWAP1 POP SWAP3 SWAP2 POP POP JUMP JUMPDEST PUSH0 PUSH1 0x40 MLOAD SWAP1 POP SWAP1 JUMP JUMPDEST PUSH0 PUSH0 REVERT JUMPDEST PUSH0 PUSH0 REVERT JUMPDEST PUSH0 PUSH0 REVERT JUMPDEST PUSH0 PUSH0 REVERT JUMPDEST PUSH32 0x4E487B7100000000000000000000000000000000000000000000000000000000 PUSH0 MSTORE PUSH1 0x41 PUSH1 0x4 MSTORE PUSH1 0x24 PUSH0 REVERT JUMPDEST PUSH2 0x94B DUP3 PUSH2 0x894 JUMP JUMPDEST DUP2 ADD DUP2 DUP2 LT PUSH8 0xFFFFFFFFFFFFFFFF DUP3 GT OR ISZERO PUSH2 0x96A JUMPI PUSH2 0x969 PUSH2 0x915 JUMP JUMPDEST JUMPDEST DUP1 PUSH1 0x40 MSTORE POP POP POP JUMP JUMPDEST PUSH0 PUSH2 0x97C PUSH2 0x8FC JUMP JUMPDEST SWAP1 POP PUSH2 0x988 DUP3 DUP3 PUSH2 0x942 JUMP JUMPDEST SWAP2 SWAP1 POP JUMP JUMPDEST PUSH0 PUSH8 0xFFFFFFFFFFFFFFFF DUP3 GT ISZERO PUSH2 0x9A7 JUMPI PUSH2 0x9A6 PUSH2 0x915 JUMP JUMPDEST JUMPDEST PUSH2 0x9B0 DUP3 PUSH2 0x894 JUMP JUMPDEST SWAP1 POP PUSH1 0x20 DUP2 ADD SWAP1 POP SWAP2 SWAP1 POP JUMP JUMPDEST DUP3 DUP2 DUP4 CALLDATACOPY PUSH0 DUP4 DUP4 ADD MSTORE POP POP POP JUMP JUMPDEST PUSH0 PUSH2 0x9DD PUSH2 0x9D8 DUP5 PUSH2 0x98D JUMP JUMPDEST PUSH2 0x973 JUMP JUMPDEST SWAP1 POP DUP3 DUP2 MSTORE PUSH1 0x20 DUP2 ADD DUP5 DUP5 DUP5 ADD GT ISZERO PUSH2 0x9F9 JUMPI PUSH2 0x9F8 PUSH2 0x911 JUMP JUMPDEST JUMPDEST PUSH2 0xA04 DUP5 DUP3 DUP6 PUSH2 0x9BD JUMP JUMPDEST POP SWAP4 SWAP3 POP POP POP JUMP JUMPDEST PUSH0 DUP3 PUSH1 0x1F DUP4 ADD SLT PUSH2 0xA20 JUMPI PUSH2 0xA1F PUSH2 0x90D JUMP JUMPDEST JUMPDEST DUP2 CALLDATALOAD PUSH2 0xA30 DUP5 DUP3 PUSH1 0x20 DUP7 ADD PUSH2 0x9CB JUMP JUMPDEST SWAP2 POP POP SWAP3 SWAP2 POP POP JUMP JUMPDEST PUSH0 PUSH1 0x20 DUP3 DUP5 SUB SLT ISZERO PUSH2 0xA4E JUMPI PUSH2 0xA4D PUSH2 0x905 JUMP JUMPDEST JUMPDEST PUSH0 DUP3 ADD CALLDATALOAD PUSH8 0xFFFFFFFFFFFFFFFF DUP2 GT ISZERO PUSH2 0xA6B JUMPI PUSH2 0xA6A PUSH2 0x909 JUMP JUMPDEST JUMPDEST PUSH2 0xA77 DUP5 DUP3 DUP6 ADD PUSH2 0xA0C JUMP JUMPDEST SWAP2 POP POP SWAP3 SWAP2 POP POP JUMP JUMPDEST PUSH2 0xA89 DUP2 PUSH2 0x833 JUMP JUMPDEST DUP2 EQ PUSH2 0xA93 JUMPI PUSH0 PUSH0 REVERT JUMPDEST POP JUMP JUMPDEST PUSH0 DUP2 CALLDATALOAD SWAP1 POP PUSH2 0xAA4 DUP2 PUSH2 0xA80 JUMP JUMPDEST SWAP3 SWAP2 POP POP JUMP JUMPDEST PUSH0 PUSH1 0x20 DUP3 DUP5 SUB SLT ISZERO PUSH2 0xABF JUMPI PUSH2 0xABE PUSH2 0x905 JUMP JUMPDEST JUMPDEST PUSH0 PUSH2 0xACC DUP5 DUP3 DUP6 ADD PUSH2 0xA96 JUMP JUMPDEST SWAP2 POP POP SWAP3 SWAP2 POP POP JUMP JUMPDEST PUSH32 0x596F7520686176656E277420646F6E6174656420796574000000000000000000 PUSH0 DUP3 ADD MSTORE POP JUMP JUMPDEST PUSH0 PUSH2 0xB09 PUSH1 0x17 DUP4 PUSH2 0x876 JUMP JUMPDEST SWAP2 POP PUSH2 0xB14 DUP3 PUSH2 0xAD5 JUMP JUMPDEST PUSH1 0x20 DUP3 ADD SWAP1 POP SWAP2 SWAP1 POP JUMP JUMPDEST PUSH0 PUSH1 0x20 DUP3 ADD SWAP1 POP DUP2 DUP2 SUB PUSH0 DUP4 ADD MSTORE PUSH2 0xB36 DUP2 PUSH2 0xAFD JUMP JUMPDEST SWAP1 POP SWAP2 SWAP1 POP JUMP JUMPDEST PUSH32 0x4F6E6C7920746865206D616E616765722063616E2063616C6C20746869732066 PUSH0 DUP3 ADD MSTORE PUSH32 0x756E6374696F6E00000000000000000000000000000000000000000000000000 PUSH1 0x20 DUP3 ADD MSTORE POP JUMP JUMPDEST PUSH0 PUSH2 0xB97 PUSH1 0x27 DUP4 PUSH2 0x876 JUMP JUMPDEST SWAP2 POP PUSH2 0xBA2 DUP3 PUSH2 0xB3D JUMP JUMPDEST PUSH1 0x40 DUP3 ADD SWAP1 POP SWAP2 SWAP1 POP JUMP JUMPDEST PUSH0 PUSH1 0x20 DUP3 ADD SWAP1 POP DUP2 DUP2 SUB PUSH0 DUP4 ADD MSTORE PUSH2 0xBC4 DUP2 PUSH2 0xB8B JUMP JUMPDEST SWAP1 POP SWAP2 SWAP1 POP JUMP JUMPDEST PUSH32 0x54686520646F6E6174696F6E20706572696F64206973207374696C6C206F6E67 PUSH0 DUP3 ADD MSTORE PUSH32 0x6F696E6700000000000000000000000000000000000000000000000000000000 PUSH1 0x20 DUP3 ADD MSTORE POP JUMP JUMPDEST PUSH0 PUSH2 0xC25 PUSH1 0x24 DUP4 PUSH2 0x876 JUMP JUMPDEST SWAP2 POP PUSH2 0xC30 DUP3 PUSH2 0xBCB JUMP JUMPDEST PUSH1 0x40 DUP3 ADD SWAP1 POP SWAP2 SWAP1 POP JUMP JUMPDEST PUSH0 PUSH1 0x20 DUP3 ADD SWAP1 POP DUP2 DUP2 SUB PUSH0 DUP4 ADD MSTORE PUSH2 0xC52 DUP2 PUSH2 0xC19 JUMP JUMPDEST SWAP1 POP SWAP2 SWAP1 POP JUMP JUMPDEST PUSH32 0x4E487B7100000000000000000000000000000000000000000000000000000000 PUSH0 MSTORE PUSH1 0x22 PUSH1 0x4 MSTORE PUSH1 0x24 PUSH0 REVERT JUMPDEST PUSH0 PUSH1 0x2 DUP3 DIV SWAP1 POP PUSH1 0x1 DUP3 AND DUP1 PUSH2 0xC9D JUMPI PUSH1 0x7F DUP3 AND SWAP2 POP JUMPDEST PUSH1 0x20 DUP3 LT DUP2 SUB PUSH2 0xCB0 JUMPI PUSH2 0xCAF PUSH2 0xC59 JUMP JUMPDEST JUMPDEST POP SWAP2 SWAP1 POP JUMP JUMPDEST PUSH0 DUP2 SWAP1 POP DUP2 PUSH0 MSTORE PUSH1 0x20 PUSH0 KECCAK256 SWAP1 POP SWAP2 SWAP1 POP JUMP JUMPDEST PUSH0 PUSH1 0x20 PUSH1 0x1F DUP4 ADD DIV SWAP1 POP SWAP2 SWAP1 POP JUMP JUMPDEST PUSH0 DUP3 DUP3 SHL SWAP1 POP SWAP3 SWAP2 POP POP JUMP JUMPDEST PUSH0 PUSH1 0x8 DUP4 MUL PUSH2 0xD12 PUSH32 0xFFFFFFFFFFFFFFFFFFFFFFFFFFFFFFFFFFFFFFFFFFFFFFFFFFFFFFFFFFFFFFFF DUP3 PUSH2 0xCD7 JUMP JUMPDEST PUSH2 0xD1C DUP7 DUP4 PUSH2 0xCD7 JUMP JUMPDEST SWAP6 POP DUP1 NOT DUP5 AND SWAP4 POP DUP1 DUP7 AND DUP5 OR SWAP3 POP POP POP SWAP4 SWAP3 POP POP POP JUMP JUMPDEST PUSH0 DUP2 SWAP1 POP SWAP2 SWAP1 POP JUMP JUMPDEST PUSH0 PUSH2 0xD57 PUSH2 0xD52 PUSH2 0xD4D DUP5 PUSH2 0x7E3 JUMP JUMPDEST PUSH2 0xD34 JUMP JUMPDEST PUSH2 0x7E3 JUMP JUMPDEST SWAP1 POP SWAP2 SWAP1 POP JUMP JUMPDEST PUSH0 DUP2 SWAP1 POP SWAP2 SWAP1 POP JUMP JUMPDEST PUSH2 0xD70 DUP4 PUSH2 0xD3D JUMP JUMPDEST PUSH2 0xD84 PUSH2 0xD7C DUP3 PUSH2 0xD5E JUMP JUMPDEST DUP5 DUP5 SLOAD PUSH2 0xCE3 JUMP JUMPDEST DUP3 SSTORE POP POP POP POP JUMP JUMPDEST PUSH0 PUSH0 SWAP1 POP SWAP1 JUMP JUMPDEST PUSH2 0xD9B PUSH2 0xD8C JUMP JUMPDEST PUSH2 0xDA6 DUP2 DUP5 DUP5 PUSH2 0xD67 JUMP JUMPDEST POP POP POP JUMP JUMPDEST JUMPDEST DUP2 DUP2 LT ISZERO PUSH2 0xDC9 JUMPI PUSH2 0xDBE PUSH0 DUP3 PUSH2 0xD93 JUMP JUMPDEST PUSH1 0x1 DUP2 ADD SWAP1 POP PUSH2 0xDAC JUMP JUMPDEST POP POP JUMP JUMPDEST PUSH1 0x1F DUP3 GT ISZERO PUSH2 0xE0E JUMPI PUSH2 0xDDF DUP2 PUSH2 0xCB6 JUMP JUMPDEST PUSH2 0xDE8 DUP5 PUSH2 0xCC8 JUMP JUMPDEST DUP2 ADD PUSH1 0x20 DUP6 LT ISZERO PUSH2 0xDF7 JUMPI DUP2 SWAP1 POP JUMPDEST PUSH2 0xE0B PUSH2 0xE03 DUP6 PUSH2 0xCC8 JUMP JUMPDEST DUP4 ADD DUP3 PUSH2 0xDAB JUMP JUMPDEST POP POP JUMPDEST POP POP POP JUMP JUMPDEST PUSH0 DUP3 DUP3 SHR SWAP1 POP SWAP3 SWAP2 POP POP JUMP JUMPDEST PUSH0 PUSH2 0xE2E PUSH0 NOT DUP5 PUSH1 0x8 MUL PUSH2 0xE13 JUMP JUMPDEST NOT DUP1 DUP4 AND SWAP2 POP POP SWAP3 SWAP2 POP POP JUMP JUMPDEST PUSH0 PUSH2 0xE46 DUP4 DUP4 PUSH2 0xE1F JUMP JUMPDEST SWAP2 POP DUP3 PUSH1 0x2 MUL DUP3 OR SWAP1 POP SWAP3 SWAP2 POP POP JUMP JUMPDEST PUSH2 0xE5F DUP3 PUSH2 0x86C JUMP JUMPDEST PUSH8 0xFFFFFFFFFFFFFFFF DUP2 GT ISZERO PUSH2 0xE78 JUMPI PUSH2 0xE77 PUSH2 0x915 JUMP JUMPDEST JUMPDEST PUSH2 0xE82 DUP3 SLOAD PUSH2 0xC86 JUMP JUMPDEST PUSH2 0xE8D DUP3 DUP3 DUP6 PUSH2 0xDCD JUMP JUMPDEST PUSH0 PUSH1 0x20 SWAP1 POP PUSH1 0x1F DUP4 GT PUSH1 0x1 DUP2 EQ PUSH2 0xEBE JUMPI PUSH0 DUP5 ISZERO PUSH2 0xEAC JUMPI DUP3 DUP8 ADD MLOAD SWAP1 POP JUMPDEST PUSH2 0xEB6 DUP6 DUP3 PUSH2 0xE3B JUMP JUMPDEST DUP7 SSTORE POP PUSH2 0xF1D JUMP JUMPDEST PUSH1 0x1F NOT DUP5 AND PUSH2 0xECC DUP7 PUSH2 0xCB6 JUMP JUMPDEST PUSH0 JUMPDEST DUP3 DUP2 LT ISZERO PUSH2 0xEF3 JUMPI DUP5 DUP10 ADD MLOAD DUP3 SSTORE PUSH1 0x1 DUP3 ADD SWAP2 POP PUSH1 0x20 DUP6 ADD SWAP5 POP PUSH1 0x20 DUP2 ADD SWAP1 POP PUSH2 0xECE JUMP JUMPDEST DUP7 DUP4 LT ISZERO PUSH2 0xF10 JUMPI DUP5 DUP10 ADD MLOAD PUSH2 0xF0C PUSH1 0x1F DUP10 AND DUP3 PUSH2 0xE1F JUMP JUMPDEST DUP4 SSTORE POP JUMPDEST PUSH1 0x1 PUSH1 0x2 DUP9 MUL ADD DUP9 SSTORE POP POP POP JUMPDEST POP POP POP POP POP POP JUMP JUMPDEST PUSH32 0x54686520646F6E6174696F6E20706572696F642068617320656E646564000000 PUSH0 DUP3 ADD MSTORE POP JUMP JUMPDEST PUSH0 PUSH2 0xF59 PUSH1 0x1D DUP4 PUSH2 0x876 JUMP JUMPDEST SWAP2 POP PUSH2 0xF64 DUP3 PUSH2 0xF25 JUMP JUMPDEST PUSH1 0x20 DUP3 ADD SWAP1 POP SWAP2 SWAP1 POP JUMP JUMPDEST PUSH0 PUSH1 0x20 DUP3 ADD SWAP1 POP DUP2 DUP2 SUB PUSH0 DUP4 ADD MSTORE PUSH2 0xF86 DUP2 PUSH2 0xF4D JUMP JUMPDEST SWAP1 POP SWAP2 SWAP1 POP JUMP JUMPDEST PUSH32 0x6174206C65617374207061792031302065746865720000000000000000000000 PUSH0 DUP3 ADD MSTORE POP JUMP JUMPDEST PUSH0 PUSH2 0xFC1 PUSH1 0x15 DUP4 PUSH2 0x876 JUMP JUMPDEST SWAP2 POP PUSH2 0xFCC DUP3 PUSH2 0xF8D JUMP JUMPDEST PUSH1 0x20 DUP3 ADD SWAP1 POP SWAP2 SWAP1 POP JUMP JUMPDEST PUSH0 PUSH1 0x20 DUP3 ADD SWAP1 POP DUP2 DUP2 SUB PUSH0 DUP4 ADD MSTORE PUSH2 0xFEE DUP2 PUSH2 0xFB5 JUMP JUMPDEST SWAP1 POP SWAP2 SWAP1 POP JUMP JUMPDEST PUSH32 0x4E487B7100000000000000000000000000000000000000000000000000000000 PUSH0 MSTORE PUSH1 0x11 PUSH1 0x4 MSTORE PUSH1 0x24 PUSH0 REVERT JUMPDEST PUSH0 PUSH2 0x102C DUP3 PUSH2 0x7E3 JUMP JUMPDEST SWAP2 POP PUSH32 0xFFFFFFFFFFFFFFFFFFFFFFFFFFFFFFFFFFFFFFFFFFFFFFFFFFFFFFFFFFFFFFFF DUP3 SUB PUSH2 0x105E JUMPI PUSH2 0x105D PUSH2 0xFF5 JUMP JUMPDEST JUMPDEST PUSH1 0x1 DUP3 ADD SWAP1 POP SWAP2 SWAP1 POP JUMP JUMPDEST PUSH0 PUSH2 0x1073 DUP3 PUSH2 0x7E3 JUMP JUMPDEST SWAP2 POP PUSH2 0x107E DUP4 PUSH2 0x7E3 JUMP JUMPDEST SWAP3 POP DUP3 DUP3 ADD SWAP1 POP DUP1 DUP3 GT ISZERO PUSH2 0x1096 JUMPI PUSH2 0x1095 PUSH2 0xFF5 JUMP JUMPDEST JUMPDEST SWAP3 SWAP2 POP POP JUMP INVALID LOG2 PUSH5 0x6970667358 0x22 SLT KECCAK256 MUL KECCAK256 CREATE2 KECCAK256 PREVRANDAO RETURNDATASIZE DUP12 DELEGATECALL PUSH19 0x7F102AE17FA28AC936A4DB59697A3BE95B80E1 MCOPY SMOD 0xC3 0xCC PUSH5 0x736F6C6343 STOP ADDMOD SHR STOP CALLER "
				},
				"gasEstimates": {
					"creation": {
						"codeDepositCost": "861200",
						"executionCost": "infinite",
						"totalCost": "infinite"
					},
					"external": {
						"deadline()": "2470",
						"donate()": "infinite",
						"donators(address)": "2890",
						"donatorshistory()": "4729",
						"getBal()": "357",
						"manager()": "2597",
						"noofdonators()": "2491",
						"purpose()": "infinite",
						"returndonators()": "2476",
						"updatePurpose(string)": "infinite",
						"withdraw()": "infinite"
					}
				},
				"methodIdentifiers": {
					"deadline()": "29dcb0cf",
					"donate()": "ed88c68e",
					"donators(address)": "d24f8cdd",
					"donatorshistory()": "1fe6aa5e",
					"getBal()": "25caa262",
					"manager()": "481c6a75",
					"noofdonators()": "ca973fba",
					"purpose()": "70740aab",
					"returndonators()": "a6a46a31",
					"updatePurpose(string)": "96b1cf28",
					"withdraw()": "3ccfd60b"
				}
			},
			"storageLayout": {
				"storage": [
					{
						"astId": 10,
						"contract": "contracts/PRACTICE/1(Basic)/Crowdfunding.sol:Crowdfunding",
						"label": "_status",
						"offset": 0,
						"slot": "0",
						"type": "t_uint256"
					},
					{
						"astId": 71,
						"contract": "contracts/PRACTICE/1(Basic)/Crowdfunding.sol:Crowdfunding",
						"label": "manager",
						"offset": 0,
						"slot": "1",
						"type": "t_address"
					},
					{
						"astId": 73,
						"contract": "contracts/PRACTICE/1(Basic)/Crowdfunding.sol:Crowdfunding",
						"label": "purpose",
						"offset": 0,
						"slot": "2",
						"type": "t_string_storage"
					},
					{
						"astId": 75,
						"contract": "contracts/PRACTICE/1(Basic)/Crowdfunding.sol:Crowdfunding",
						"label": "deadline",
						"offset": 0,
						"slot": "3",
						"type": "t_uint256"
					},
					{
						"astId": 79,
						"contract": "contracts/PRACTICE/1(Basic)/Crowdfunding.sol:Crowdfunding",
						"label": "donators",
						"offset": 0,
						"slot": "4",
						"type": "t_mapping(t_address,t_uint256)"
					},
					{
						"astId": 81,
						"contract": "contracts/PRACTICE/1(Basic)/Crowdfunding.sol:Crowdfunding",
						"label": "noofdonators",
						"offset": 0,
						"slot": "5",
						"type": "t_uint256"
					}
				],
				"types": {
					"t_address": {
						"encoding": "inplace",
						"label": "address",
						"numberOfBytes": "20"
					},
					"t_mapping(t_address,t_uint256)": {
						"encoding": "mapping",
						"key": "t_address",
						"label": "mapping(address => uint256)",
						"numberOfBytes": "32",
						"value": "t_uint256"
					},
					"t_string_storage": {
						"encoding": "bytes",
						"label": "string",
						"numberOfBytes": "32"
					},
					"t_uint256": {
						"encoding": "inplace",
						"label": "uint256",
						"numberOfBytes": "32"
					}
				}
			},
			"userdoc": {
				"kind": "user",
				"methods": {},
				"version": 1
			}
		}
	}
}