{
	"contracts/PRACTICE/1(Basic)/Updated_auction.sol": {
		"Auction": {
			"abi": [
				{
					"inputs": [
						{
							"internalType": "uint256",
							"name": "_timeend",
							"type": "uint256"
						},
						{
							"internalType": "string",
							"name": "_item",
							"type": "string"
						}
					],
					"stateMutability": "nonpayable",
					"type": "constructor"
				},
				{
					"anonymous": false,
					"inputs": [
						{
							"indexed": true,
							"internalType": "address",
							"name": "winner",
							"type": "address"
						},
						{
							"indexed": false,
							"internalType": "uint256",
							"name": "amount",
							"type": "uint256"
						}
					],
					"name": "AuctionEnded",
					"type": "event"
				},
				{
					"anonymous": false,
					"inputs": [
						{
							"indexed": false,
							"internalType": "uint256",
							"name": "newEndTime",
							"type": "uint256"
						}
					],
					"name": "AuctionExtended",
					"type": "event"
				},
				{
					"anonymous": false,
					"inputs": [
						{
							"indexed": true,
							"internalType": "address",
							"name": "bidder",
							"type": "address"
						},
						{
							"indexed": false,
							"internalType": "uint256",
							"name": "amount",
							"type": "uint256"
						}
					],
					"name": "BidPlaced",
					"type": "event"
				},
				{
					"anonymous": false,
					"inputs": [
						{
							"indexed": true,
							"internalType": "address",
							"name": "bidder",
							"type": "address"
						},
						{
							"indexed": false,
							"internalType": "string",
							"name": "name",
							"type": "string"
						},
						{
							"indexed": false,
							"internalType": "uint256",
							"name": "id",
							"type": "uint256"
						}
					],
					"name": "NewBidderAdded",
					"type": "event"
				},
				{
					"inputs": [
						{
							"internalType": "string",
							"name": "_name",
							"type": "string"
						},
						{
							"internalType": "uint256",
							"name": "_id",
							"type": "uint256"
						}
					],
					"name": "addbidder",
					"outputs": [],
					"stateMutability": "nonpayable",
					"type": "function"
				},
				{
					"inputs": [],
					"name": "auctionEnded",
					"outputs": [
						{
							"internalType": "bool",
							"name": "",
							"type": "bool"
						}
					],
					"stateMutability": "view",
					"type": "function"
				},
				{
					"inputs": [],
					"name": "bid",
					"outputs": [],
					"stateMutability": "payable",
					"type": "function"
				},
				{
					"inputs": [
						{
							"internalType": "address",
							"name": "",
							"type": "address"
						}
					],
					"name": "bidderInfo",
					"outputs": [
						{
							"internalType": "string",
							"name": "name",
							"type": "string"
						},
						{
							"internalType": "uint256",
							"name": "id",
							"type": "uint256"
						}
					],
					"stateMutability": "view",
					"type": "function"
				},
				{
					"inputs": [],
					"name": "endAuction",
					"outputs": [],
					"stateMutability": "nonpayable",
					"type": "function"
				},
				{
					"inputs": [
						{
							"internalType": "uint256",
							"name": "additionalTime",
							"type": "uint256"
						}
					],
					"name": "extendAuction",
					"outputs": [],
					"stateMutability": "nonpayable",
					"type": "function"
				},
				{
					"inputs": [
						{
							"internalType": "address",
							"name": "_bidder",
							"type": "address"
						}
					],
					"name": "getBidderData",
					"outputs": [
						{
							"internalType": "string",
							"name": "name",
							"type": "string"
						},
						{
							"internalType": "uint256",
							"name": "id",
							"type": "uint256"
						}
					],
					"stateMutability": "view",
					"type": "function"
				},
				{
					"inputs": [],
					"name": "highestbid",
					"outputs": [
						{
							"internalType": "uint256",
							"name": "",
							"type": "uint256"
						}
					],
					"stateMutability": "view",
					"type": "function"
				},
				{
					"inputs": [],
					"name": "highestbidder",
					"outputs": [
						{
							"internalType": "address",
							"name": "",
							"type": "address"
						}
					],
					"stateMutability": "view",
					"type": "function"
				},
				{
					"inputs": [],
					"name": "item",
					"outputs": [
						{
							"internalType": "string",
							"name": "",
							"type": "string"
						}
					],
					"stateMutability": "view",
					"type": "function"
				},
				{
					"inputs": [],
					"name": "owner",
					"outputs": [
						{
							"internalType": "address",
							"name": "",
							"type": "address"
						}
					],
					"stateMutability": "view",
					"type": "function"
				},
				{
					"inputs": [],
					"name": "timeend",
					"outputs": [
						{
							"internalType": "uint256",
							"name": "",
							"type": "uint256"
						}
					],
					"stateMutability": "view",
					"type": "function"
				}
			],
			"devdoc": {
				"kind": "dev",
				"methods": {},
				"version": 1
			},
			"evm": {
				"assembly": "    /* \"contracts/PRACTICE/1(Basic)/Updated_auction.sol\":125:3330  contract Auction is ReentrancyGuard {... */\n  mstore(0x40, 0x80)\n    /* \"contracts/PRACTICE/1(Basic)/Updated_auction.sol\":890:1177  constructor(uint _timeend, string memory _item) {... */\n  callvalue\n  dup1\n  iszero\n  tag_1\n  jumpi\n  revert(0x00, 0x00)\ntag_1:\n  pop\n  mload(0x40)\n  sub(codesize, bytecodeSize)\n  dup1\n  bytecodeSize\n  dup4\n  codecopy\n  dup2\n  dup2\n  add\n  0x40\n  mstore\n  dup2\n  add\n  swap1\n  tag_2\n  swap2\n  swap1\n  tag_3\n  jump\t// in\ntag_2:\n    /* \"@openzeppelin/contracts/security/ReentrancyGuard.sol\":1716:1717  1 */\n  0x01\n    /* \"@openzeppelin/contracts/security/ReentrancyGuard.sol\":1821:1828  _status */\n  0x00\n    /* \"@openzeppelin/contracts/security/ReentrancyGuard.sol\":1821:1843  _status = _NOT_ENTERED */\n  dup2\n  swap1\n  sstore\n  pop\n    /* \"contracts/PRACTICE/1(Basic)/Updated_auction.sol\":957:967  msg.sender */\n  caller\n    /* \"contracts/PRACTICE/1(Basic)/Updated_auction.sol\":949:954  owner */\n  0x01\n  0x00\n    /* \"contracts/PRACTICE/1(Basic)/Updated_auction.sol\":949:967  owner = msg.sender */\n  0x0100\n  exp\n  dup2\n  sload\n  dup2\n  0xffffffffffffffffffffffffffffffffffffffff\n  mul\n  not\n  and\n  swap1\n  dup4\n  0xffffffffffffffffffffffffffffffffffffffff\n  and\n  mul\n  or\n  swap1\n  sstore\n  pop\n    /* \"contracts/PRACTICE/1(Basic)/Updated_auction.sol\":1006:1014  _timeend */\n  dup2\n    /* \"contracts/PRACTICE/1(Basic)/Updated_auction.sol\":988:1003  block.timestamp */\n  timestamp\n    /* \"contracts/PRACTICE/1(Basic)/Updated_auction.sol\":988:1014  block.timestamp + _timeend */\n  tag_8\n  swap2\n  swap1\n  tag_9\n  jump\t// in\ntag_8:\n    /* \"contracts/PRACTICE/1(Basic)/Updated_auction.sol\":978:985  timeend */\n  0x03\n    /* \"contracts/PRACTICE/1(Basic)/Updated_auction.sol\":978:1014  timeend = block.timestamp + _timeend */\n  dup2\n  swap1\n  sstore\n  pop\n    /* \"contracts/PRACTICE/1(Basic)/Updated_auction.sol\":1032:1037  _item */\n  dup1\n    /* \"contracts/PRACTICE/1(Basic)/Updated_auction.sol\":1025:1029  item */\n  0x04\n    /* \"contracts/PRACTICE/1(Basic)/Updated_auction.sol\":1025:1037  item = _item */\n  swap1\n  dup2\n  tag_10\n  swap2\n  swap1\n  tag_11\n  jump\t// in\ntag_10:\n  pop\n    /* \"contracts/PRACTICE/1(Basic)/Updated_auction.sol\":1148:1153  false */\n  0x00\n    /* \"contracts/PRACTICE/1(Basic)/Updated_auction.sol\":1133:1145  auctionEnded */\n  0x01\n  0x14\n    /* \"contracts/PRACTICE/1(Basic)/Updated_auction.sol\":1133:1153  auctionEnded = false */\n  0x0100\n  exp\n  dup2\n  sload\n  dup2\n  0xff\n  mul\n  not\n  and\n  swap1\n  dup4\n  iszero\n  iszero\n  mul\n  or\n  swap1\n  sstore\n  pop\n    /* \"contracts/PRACTICE/1(Basic)/Updated_auction.sol\":890:1177  constructor(uint _timeend, string memory _item) {... */\n  pop\n  pop\n    /* \"contracts/PRACTICE/1(Basic)/Updated_auction.sol\":125:3330  contract Auction is ReentrancyGuard {... */\n  jump(tag_12)\n    /* \"#utility.yul\":7:82   */\ntag_13:\n    /* \"#utility.yul\":40:46   */\n  0x00\n    /* \"#utility.yul\":73:75   */\n  0x40\n    /* \"#utility.yul\":67:76   */\n  mload\n    /* \"#utility.yul\":57:76   */\n  swap1\n  pop\n    /* \"#utility.yul\":7:82   */\n  swap1\n  jump\t// out\n    /* \"#utility.yul\":88:205   */\ntag_14:\n    /* \"#utility.yul\":197:198   */\n  0x00\n    /* \"#utility.yul\":194:195   */\n  0x00\n    /* \"#utility.yul\":187:199   */\n  revert\n    /* \"#utility.yul\":211:328   */\ntag_15:\n    /* \"#utility.yul\":320:321   */\n  0x00\n    /* \"#utility.yul\":317:318   */\n  0x00\n    /* \"#utility.yul\":310:322   */\n  revert\n    /* \"#utility.yul\":334:411   */\ntag_16:\n    /* \"#utility.yul\":371:378   */\n  0x00\n    /* \"#utility.yul\":400:405   */\n  dup2\n    /* \"#utility.yul\":389:405   */\n  swap1\n  pop\n    /* \"#utility.yul\":334:411   */\n  swap2\n  swap1\n  pop\n  jump\t// out\n    /* \"#utility.yul\":417:539   */\ntag_17:\n    /* \"#utility.yul\":490:514   */\n  tag_54\n    /* \"#utility.yul\":508:513   */\n  dup2\n    /* \"#utility.yul\":490:514   */\n  tag_16\n  jump\t// in\ntag_54:\n    /* \"#utility.yul\":483:488   */\n  dup2\n    /* \"#utility.yul\":480:515   */\n  eq\n    /* \"#utility.yul\":470:533   */\n  tag_55\n  jumpi\n    /* \"#utility.yul\":529:530   */\n  0x00\n    /* \"#utility.yul\":526:527   */\n  0x00\n    /* \"#utility.yul\":519:531   */\n  revert\n    /* \"#utility.yul\":470:533   */\ntag_55:\n    /* \"#utility.yul\":417:539   */\n  pop\n  jump\t// out\n    /* \"#utility.yul\":545:688   */\ntag_18:\n    /* \"#utility.yul\":602:607   */\n  0x00\n    /* \"#utility.yul\":633:639   */\n  dup2\n    /* \"#utility.yul\":627:640   */\n  mload\n    /* \"#utility.yul\":618:640   */\n  swap1\n  pop\n    /* \"#utility.yul\":649:682   */\n  tag_57\n    /* \"#utility.yul\":676:681   */\n  dup2\n    /* \"#utility.yul\":649:682   */\n  tag_17\n  jump\t// in\ntag_57:\n    /* \"#utility.yul\":545:688   */\n  swap3\n  swap2\n  pop\n  pop\n  jump\t// out\n    /* \"#utility.yul\":694:811   */\ntag_19:\n    /* \"#utility.yul\":803:804   */\n  0x00\n    /* \"#utility.yul\":800:801   */\n  0x00\n    /* \"#utility.yul\":793:805   */\n  revert\n    /* \"#utility.yul\":817:934   */\ntag_20:\n    /* \"#utility.yul\":926:927   */\n  0x00\n    /* \"#utility.yul\":923:924   */\n  0x00\n    /* \"#utility.yul\":916:928   */\n  revert\n    /* \"#utility.yul\":940:1042   */\ntag_21:\n    /* \"#utility.yul\":981:987   */\n  0x00\n    /* \"#utility.yul\":1032:1034   */\n  0x1f\n    /* \"#utility.yul\":1028:1035   */\n  not\n    /* \"#utility.yul\":1023:1025   */\n  0x1f\n    /* \"#utility.yul\":1016:1021   */\n  dup4\n    /* \"#utility.yul\":1012:1026   */\n  add\n    /* \"#utility.yul\":1008:1036   */\n  and\n    /* \"#utility.yul\":998:1036   */\n  swap1\n  pop\n    /* \"#utility.yul\":940:1042   */\n  swap2\n  swap1\n  pop\n  jump\t// out\n    /* \"#utility.yul\":1048:1228   */\ntag_22:\n    /* \"#utility.yul\":1096:1173   */\n  0x4e487b7100000000000000000000000000000000000000000000000000000000\n    /* \"#utility.yul\":1093:1094   */\n  0x00\n    /* \"#utility.yul\":1086:1174   */\n  mstore\n    /* \"#utility.yul\":1193:1197   */\n  0x41\n    /* \"#utility.yul\":1190:1191   */\n  0x04\n    /* \"#utility.yul\":1183:1198   */\n  mstore\n    /* \"#utility.yul\":1217:1221   */\n  0x24\n    /* \"#utility.yul\":1214:1215   */\n  0x00\n    /* \"#utility.yul\":1207:1222   */\n  revert\n    /* \"#utility.yul\":1234:1515   */\ntag_23:\n    /* \"#utility.yul\":1317:1344   */\n  tag_63\n    /* \"#utility.yul\":1339:1343   */\n  dup3\n    /* \"#utility.yul\":1317:1344   */\n  tag_21\n  jump\t// in\ntag_63:\n    /* \"#utility.yul\":1309:1315   */\n  dup2\n    /* \"#utility.yul\":1305:1345   */\n  add\n    /* \"#utility.yul\":1447:1453   */\n  dup2\n    /* \"#utility.yul\":1435:1445   */\n  dup2\n    /* \"#utility.yul\":1432:1454   */\n  lt\n    /* \"#utility.yul\":1411:1429   */\n  0xffffffffffffffff\n    /* \"#utility.yul\":1399:1409   */\n  dup3\n    /* \"#utility.yul\":1396:1430   */\n  gt\n    /* \"#utility.yul\":1393:1455   */\n  or\n    /* \"#utility.yul\":1390:1478   */\n  iszero\n  tag_64\n  jumpi\n    /* \"#utility.yul\":1458:1476   */\n  tag_65\n  tag_22\n  jump\t// in\ntag_65:\n    /* \"#utility.yul\":1390:1478   */\ntag_64:\n    /* \"#utility.yul\":1498:1508   */\n  dup1\n    /* \"#utility.yul\":1494:1496   */\n  0x40\n    /* \"#utility.yul\":1487:1509   */\n  mstore\n    /* \"#utility.yul\":1277:1515   */\n  pop\n    /* \"#utility.yul\":1234:1515   */\n  pop\n  pop\n  jump\t// out\n    /* \"#utility.yul\":1521:1650   */\ntag_24:\n    /* \"#utility.yul\":1555:1561   */\n  0x00\n    /* \"#utility.yul\":1582:1602   */\n  tag_67\n  tag_13\n  jump\t// in\ntag_67:\n    /* \"#utility.yul\":1572:1602   */\n  swap1\n  pop\n    /* \"#utility.yul\":1611:1644   */\n  tag_68\n    /* \"#utility.yul\":1639:1643   */\n  dup3\n    /* \"#utility.yul\":1631:1637   */\n  dup3\n    /* \"#utility.yul\":1611:1644   */\n  tag_23\n  jump\t// in\ntag_68:\n    /* \"#utility.yul\":1521:1650   */\n  swap2\n  swap1\n  pop\n  jump\t// out\n    /* \"#utility.yul\":1656:1964   */\ntag_25:\n    /* \"#utility.yul\":1718:1722   */\n  0x00\n    /* \"#utility.yul\":1808:1826   */\n  0xffffffffffffffff\n    /* \"#utility.yul\":1800:1806   */\n  dup3\n    /* \"#utility.yul\":1797:1827   */\n  gt\n    /* \"#utility.yul\":1794:1850   */\n  iszero\n  tag_70\n  jumpi\n    /* \"#utility.yul\":1830:1848   */\n  tag_71\n  tag_22\n  jump\t// in\ntag_71:\n    /* \"#utility.yul\":1794:1850   */\ntag_70:\n    /* \"#utility.yul\":1868:1897   */\n  tag_72\n    /* \"#utility.yul\":1890:1896   */\n  dup3\n    /* \"#utility.yul\":1868:1897   */\n  tag_21\n  jump\t// in\ntag_72:\n    /* \"#utility.yul\":1860:1897   */\n  swap1\n  pop\n    /* \"#utility.yul\":1952:1956   */\n  0x20\n    /* \"#utility.yul\":1946:1950   */\n  dup2\n    /* \"#utility.yul\":1942:1957   */\n  add\n    /* \"#utility.yul\":1934:1957   */\n  swap1\n  pop\n    /* \"#utility.yul\":1656:1964   */\n  swap2\n  swap1\n  pop\n  jump\t// out\n    /* \"#utility.yul\":1970:2109   */\ntag_26:\n    /* \"#utility.yul\":2059:2065   */\n  dup3\n    /* \"#utility.yul\":2054:2057   */\n  dup2\n    /* \"#utility.yul\":2049:2052   */\n  dup4\n    /* \"#utility.yul\":2043:2066   */\n  mcopy\n    /* \"#utility.yul\":2100:2101   */\n  0x00\n    /* \"#utility.yul\":2091:2097   */\n  dup4\n    /* \"#utility.yul\":2086:2089   */\n  dup4\n    /* \"#utility.yul\":2082:2098   */\n  add\n    /* \"#utility.yul\":2075:2102   */\n  mstore\n    /* \"#utility.yul\":1970:2109   */\n  pop\n  pop\n  pop\n  jump\t// out\n    /* \"#utility.yul\":2115:2549   */\ntag_27:\n    /* \"#utility.yul\":2204:2209   */\n  0x00\n    /* \"#utility.yul\":2229:2295   */\n  tag_75\n    /* \"#utility.yul\":2245:2294   */\n  tag_76\n    /* \"#utility.yul\":2287:2293   */\n  dup5\n    /* \"#utility.yul\":2245:2294   */\n  tag_25\n  jump\t// in\ntag_76:\n    /* \"#utility.yul\":2229:2295   */\n  tag_24\n  jump\t// in\ntag_75:\n    /* \"#utility.yul\":2220:2295   */\n  swap1\n  pop\n    /* \"#utility.yul\":2318:2324   */\n  dup3\n    /* \"#utility.yul\":2311:2316   */\n  dup2\n    /* \"#utility.yul\":2304:2325   */\n  mstore\n    /* \"#utility.yul\":2356:2360   */\n  0x20\n    /* \"#utility.yul\":2349:2354   */\n  dup2\n    /* \"#utility.yul\":2345:2361   */\n  add\n    /* \"#utility.yul\":2394:2397   */\n  dup5\n    /* \"#utility.yul\":2385:2391   */\n  dup5\n    /* \"#utility.yul\":2380:2383   */\n  dup5\n    /* \"#utility.yul\":2376:2392   */\n  add\n    /* \"#utility.yul\":2373:2398   */\n  gt\n    /* \"#utility.yul\":2370:2482   */\n  iszero\n  tag_77\n  jumpi\n    /* \"#utility.yul\":2401:2480   */\n  tag_78\n  tag_20\n  jump\t// in\ntag_78:\n    /* \"#utility.yul\":2370:2482   */\ntag_77:\n    /* \"#utility.yul\":2491:2543   */\n  tag_79\n    /* \"#utility.yul\":2536:2542   */\n  dup5\n    /* \"#utility.yul\":2531:2534   */\n  dup3\n    /* \"#utility.yul\":2526:2529   */\n  dup6\n    /* \"#utility.yul\":2491:2543   */\n  tag_26\n  jump\t// in\ntag_79:\n    /* \"#utility.yul\":2210:2549   */\n  pop\n    /* \"#utility.yul\":2115:2549   */\n  swap4\n  swap3\n  pop\n  pop\n  pop\n  jump\t// out\n    /* \"#utility.yul\":2569:2924   */\ntag_28:\n    /* \"#utility.yul\":2636:2641   */\n  0x00\n    /* \"#utility.yul\":2685:2688   */\n  dup3\n    /* \"#utility.yul\":2678:2682   */\n  0x1f\n    /* \"#utility.yul\":2670:2676   */\n  dup4\n    /* \"#utility.yul\":2666:2683   */\n  add\n    /* \"#utility.yul\":2662:2689   */\n  slt\n    /* \"#utility.yul\":2652:2774   */\n  tag_81\n  jumpi\n    /* \"#utility.yul\":2693:2772   */\n  tag_82\n  tag_19\n  jump\t// in\ntag_82:\n    /* \"#utility.yul\":2652:2774   */\ntag_81:\n    /* \"#utility.yul\":2803:2809   */\n  dup2\n    /* \"#utility.yul\":2797:2810   */\n  mload\n    /* \"#utility.yul\":2828:2918   */\n  tag_83\n    /* \"#utility.yul\":2914:2917   */\n  dup5\n    /* \"#utility.yul\":2906:2912   */\n  dup3\n    /* \"#utility.yul\":2899:2903   */\n  0x20\n    /* \"#utility.yul\":2891:2897   */\n  dup7\n    /* \"#utility.yul\":2887:2904   */\n  add\n    /* \"#utility.yul\":2828:2918   */\n  tag_27\n  jump\t// in\ntag_83:\n    /* \"#utility.yul\":2819:2918   */\n  swap2\n  pop\n    /* \"#utility.yul\":2642:2924   */\n  pop\n    /* \"#utility.yul\":2569:2924   */\n  swap3\n  swap2\n  pop\n  pop\n  jump\t// out\n    /* \"#utility.yul\":2930:3610   */\ntag_3:\n    /* \"#utility.yul\":3019:3025   */\n  0x00\n    /* \"#utility.yul\":3027:3033   */\n  0x00\n    /* \"#utility.yul\":3076:3078   */\n  0x40\n    /* \"#utility.yul\":3064:3073   */\n  dup4\n    /* \"#utility.yul\":3055:3062   */\n  dup6\n    /* \"#utility.yul\":3051:3074   */\n  sub\n    /* \"#utility.yul\":3047:3079   */\n  slt\n    /* \"#utility.yul\":3044:3163   */\n  iszero\n  tag_85\n  jumpi\n    /* \"#utility.yul\":3082:3161   */\n  tag_86\n  tag_14\n  jump\t// in\ntag_86:\n    /* \"#utility.yul\":3044:3163   */\ntag_85:\n    /* \"#utility.yul\":3202:3203   */\n  0x00\n    /* \"#utility.yul\":3227:3291   */\n  tag_87\n    /* \"#utility.yul\":3283:3290   */\n  dup6\n    /* \"#utility.yul\":3274:3280   */\n  dup3\n    /* \"#utility.yul\":3263:3272   */\n  dup7\n    /* \"#utility.yul\":3259:3281   */\n  add\n    /* \"#utility.yul\":3227:3291   */\n  tag_18\n  jump\t// in\ntag_87:\n    /* \"#utility.yul\":3217:3291   */\n  swap3\n  pop\n    /* \"#utility.yul\":3173:3301   */\n  pop\n    /* \"#utility.yul\":3361:3363   */\n  0x20\n    /* \"#utility.yul\":3350:3359   */\n  dup4\n    /* \"#utility.yul\":3346:3364   */\n  add\n    /* \"#utility.yul\":3340:3365   */\n  mload\n    /* \"#utility.yul\":3392:3410   */\n  0xffffffffffffffff\n    /* \"#utility.yul\":3384:3390   */\n  dup2\n    /* \"#utility.yul\":3381:3411   */\n  gt\n    /* \"#utility.yul\":3378:3495   */\n  iszero\n  tag_88\n  jumpi\n    /* \"#utility.yul\":3414:3493   */\n  tag_89\n  tag_15\n  jump\t// in\ntag_89:\n    /* \"#utility.yul\":3378:3495   */\ntag_88:\n    /* \"#utility.yul\":3519:3593   */\n  tag_90\n    /* \"#utility.yul\":3585:3592   */\n  dup6\n    /* \"#utility.yul\":3576:3582   */\n  dup3\n    /* \"#utility.yul\":3565:3574   */\n  dup7\n    /* \"#utility.yul\":3561:3583   */\n  add\n    /* \"#utility.yul\":3519:3593   */\n  tag_28\n  jump\t// in\ntag_90:\n    /* \"#utility.yul\":3509:3593   */\n  swap2\n  pop\n    /* \"#utility.yul\":3311:3603   */\n  pop\n    /* \"#utility.yul\":2930:3610   */\n  swap3\n  pop\n  swap3\n  swap1\n  pop\n  jump\t// out\n    /* \"#utility.yul\":3616:3796   */\ntag_29:\n    /* \"#utility.yul\":3664:3741   */\n  0x4e487b7100000000000000000000000000000000000000000000000000000000\n    /* \"#utility.yul\":3661:3662   */\n  0x00\n    /* \"#utility.yul\":3654:3742   */\n  mstore\n    /* \"#utility.yul\":3761:3765   */\n  0x11\n    /* \"#utility.yul\":3758:3759   */\n  0x04\n    /* \"#utility.yul\":3751:3766   */\n  mstore\n    /* \"#utility.yul\":3785:3789   */\n  0x24\n    /* \"#utility.yul\":3782:3783   */\n  0x00\n    /* \"#utility.yul\":3775:3790   */\n  revert\n    /* \"#utility.yul\":3802:3993   */\ntag_9:\n    /* \"#utility.yul\":3842:3845   */\n  0x00\n    /* \"#utility.yul\":3861:3881   */\n  tag_93\n    /* \"#utility.yul\":3879:3880   */\n  dup3\n    /* \"#utility.yul\":3861:3881   */\n  tag_16\n  jump\t// in\ntag_93:\n    /* \"#utility.yul\":3856:3881   */\n  swap2\n  pop\n    /* \"#utility.yul\":3895:3915   */\n  tag_94\n    /* \"#utility.yul\":3913:3914   */\n  dup4\n    /* \"#utility.yul\":3895:3915   */\n  tag_16\n  jump\t// in\ntag_94:\n    /* \"#utility.yul\":3890:3915   */\n  swap3\n  pop\n    /* \"#utility.yul\":3938:3939   */\n  dup3\n    /* \"#utility.yul\":3935:3936   */\n  dup3\n    /* \"#utility.yul\":3931:3940   */\n  add\n    /* \"#utility.yul\":3924:3940   */\n  swap1\n  pop\n    /* \"#utility.yul\":3959:3962   */\n  dup1\n    /* \"#utility.yul\":3956:3957   */\n  dup3\n    /* \"#utility.yul\":3953:3963   */\n  gt\n    /* \"#utility.yul\":3950:3986   */\n  iszero\n  tag_95\n  jumpi\n    /* \"#utility.yul\":3966:3984   */\n  tag_96\n  tag_29\n  jump\t// in\ntag_96:\n    /* \"#utility.yul\":3950:3986   */\ntag_95:\n    /* \"#utility.yul\":3802:3993   */\n  swap3\n  swap2\n  pop\n  pop\n  jump\t// out\n    /* \"#utility.yul\":3999:4098   */\ntag_30:\n    /* \"#utility.yul\":4051:4057   */\n  0x00\n    /* \"#utility.yul\":4085:4090   */\n  dup2\n    /* \"#utility.yul\":4079:4091   */\n  mload\n    /* \"#utility.yul\":4069:4091   */\n  swap1\n  pop\n    /* \"#utility.yul\":3999:4098   */\n  swap2\n  swap1\n  pop\n  jump\t// out\n    /* \"#utility.yul\":4104:4284   */\ntag_31:\n    /* \"#utility.yul\":4152:4229   */\n  0x4e487b7100000000000000000000000000000000000000000000000000000000\n    /* \"#utility.yul\":4149:4150   */\n  0x00\n    /* \"#utility.yul\":4142:4230   */\n  mstore\n    /* \"#utility.yul\":4249:4253   */\n  0x22\n    /* \"#utility.yul\":4246:4247   */\n  0x04\n    /* \"#utility.yul\":4239:4254   */\n  mstore\n    /* \"#utility.yul\":4273:4277   */\n  0x24\n    /* \"#utility.yul\":4270:4271   */\n  0x00\n    /* \"#utility.yul\":4263:4278   */\n  revert\n    /* \"#utility.yul\":4290:4610   */\ntag_32:\n    /* \"#utility.yul\":4334:4340   */\n  0x00\n    /* \"#utility.yul\":4371:4372   */\n  0x02\n    /* \"#utility.yul\":4365:4369   */\n  dup3\n    /* \"#utility.yul\":4361:4373   */\n  div\n    /* \"#utility.yul\":4351:4373   */\n  swap1\n  pop\n    /* \"#utility.yul\":4418:4419   */\n  0x01\n    /* \"#utility.yul\":4412:4416   */\n  dup3\n    /* \"#utility.yul\":4408:4420   */\n  and\n    /* \"#utility.yul\":4439:4457   */\n  dup1\n    /* \"#utility.yul\":4429:4510   */\n  tag_100\n  jumpi\n    /* \"#utility.yul\":4495:4499   */\n  0x7f\n    /* \"#utility.yul\":4487:4493   */\n  dup3\n    /* \"#utility.yul\":4483:4500   */\n  and\n    /* \"#utility.yul\":4473:4500   */\n  swap2\n  pop\n    /* \"#utility.yul\":4429:4510   */\ntag_100:\n    /* \"#utility.yul\":4557:4559   */\n  0x20\n    /* \"#utility.yul\":4549:4555   */\n  dup3\n    /* \"#utility.yul\":4546:4560   */\n  lt\n    /* \"#utility.yul\":4526:4544   */\n  dup2\n    /* \"#utility.yul\":4523:4561   */\n  sub\n    /* \"#utility.yul\":4520:4604   */\n  tag_101\n  jumpi\n    /* \"#utility.yul\":4576:4594   */\n  tag_102\n  tag_31\n  jump\t// in\ntag_102:\n    /* \"#utility.yul\":4520:4604   */\ntag_101:\n    /* \"#utility.yul\":4341:4610   */\n  pop\n    /* \"#utility.yul\":4290:4610   */\n  swap2\n  swap1\n  pop\n  jump\t// out\n    /* \"#utility.yul\":4616:4757   */\ntag_33:\n    /* \"#utility.yul\":4665:4669   */\n  0x00\n    /* \"#utility.yul\":4688:4691   */\n  dup2\n    /* \"#utility.yul\":4680:4691   */\n  swap1\n  pop\n    /* \"#utility.yul\":4711:4714   */\n  dup2\n    /* \"#utility.yul\":4708:4709   */\n  0x00\n    /* \"#utility.yul\":4701:4715   */\n  mstore\n    /* \"#utility.yul\":4745:4749   */\n  0x20\n    /* \"#utility.yul\":4742:4743   */\n  0x00\n    /* \"#utility.yul\":4732:4750   */\n  keccak256\n    /* \"#utility.yul\":4724:4750   */\n  swap1\n  pop\n    /* \"#utility.yul\":4616:4757   */\n  swap2\n  swap1\n  pop\n  jump\t// out\n    /* \"#utility.yul\":4763:4856   */\ntag_34:\n    /* \"#utility.yul\":4800:4806   */\n  0x00\n    /* \"#utility.yul\":4847:4849   */\n  0x20\n    /* \"#utility.yul\":4842:4844   */\n  0x1f\n    /* \"#utility.yul\":4835:4840   */\n  dup4\n    /* \"#utility.yul\":4831:4845   */\n  add\n    /* \"#utility.yul\":4827:4850   */\n  div\n    /* \"#utility.yul\":4817:4850   */\n  swap1\n  pop\n    /* \"#utility.yul\":4763:4856   */\n  swap2\n  swap1\n  pop\n  jump\t// out\n    /* \"#utility.yul\":4862:4969   */\ntag_35:\n    /* \"#utility.yul\":4906:4914   */\n  0x00\n    /* \"#utility.yul\":4956:4961   */\n  dup3\n    /* \"#utility.yul\":4950:4954   */\n  dup3\n    /* \"#utility.yul\":4946:4962   */\n  shl\n    /* \"#utility.yul\":4925:4962   */\n  swap1\n  pop\n    /* \"#utility.yul\":4862:4969   */\n  swap3\n  swap2\n  pop\n  pop\n  jump\t// out\n    /* \"#utility.yul\":4975:5368   */\ntag_36:\n    /* \"#utility.yul\":5044:5050   */\n  0x00\n    /* \"#utility.yul\":5094:5095   */\n  0x08\n    /* \"#utility.yul\":5082:5092   */\n  dup4\n    /* \"#utility.yul\":5078:5096   */\n  mul\n    /* \"#utility.yul\":5117:5214   */\n  tag_107\n    /* \"#utility.yul\":5147:5213   */\n  0xffffffffffffffffffffffffffffffffffffffffffffffffffffffffffffffff\n    /* \"#utility.yul\":5136:5145   */\n  dup3\n    /* \"#utility.yul\":5117:5214   */\n  tag_35\n  jump\t// in\ntag_107:\n    /* \"#utility.yul\":5235:5274   */\n  tag_108\n    /* \"#utility.yul\":5265:5273   */\n  dup7\n    /* \"#utility.yul\":5254:5263   */\n  dup4\n    /* \"#utility.yul\":5235:5274   */\n  tag_35\n  jump\t// in\ntag_108:\n    /* \"#utility.yul\":5223:5274   */\n  swap6\n  pop\n    /* \"#utility.yul\":5307:5311   */\n  dup1\n    /* \"#utility.yul\":5303:5312   */\n  not\n    /* \"#utility.yul\":5296:5301   */\n  dup5\n    /* \"#utility.yul\":5292:5313   */\n  and\n    /* \"#utility.yul\":5283:5313   */\n  swap4\n  pop\n    /* \"#utility.yul\":5356:5360   */\n  dup1\n    /* \"#utility.yul\":5346:5354   */\n  dup7\n    /* \"#utility.yul\":5342:5361   */\n  and\n    /* \"#utility.yul\":5335:5340   */\n  dup5\n    /* \"#utility.yul\":5332:5362   */\n  or\n    /* \"#utility.yul\":5322:5362   */\n  swap3\n  pop\n    /* \"#utility.yul\":5051:5368   */\n  pop\n  pop\n    /* \"#utility.yul\":4975:5368   */\n  swap4\n  swap3\n  pop\n  pop\n  pop\n  jump\t// out\n    /* \"#utility.yul\":5374:5434   */\ntag_37:\n    /* \"#utility.yul\":5402:5405   */\n  0x00\n    /* \"#utility.yul\":5423:5428   */\n  dup2\n    /* \"#utility.yul\":5416:5428   */\n  swap1\n  pop\n    /* \"#utility.yul\":5374:5434   */\n  swap2\n  swap1\n  pop\n  jump\t// out\n    /* \"#utility.yul\":5440:5582   */\ntag_38:\n    /* \"#utility.yul\":5490:5499   */\n  0x00\n    /* \"#utility.yul\":5523:5576   */\n  tag_111\n    /* \"#utility.yul\":5541:5575   */\n  tag_112\n    /* \"#utility.yul\":5550:5574   */\n  tag_113\n    /* \"#utility.yul\":5568:5573   */\n  dup5\n    /* \"#utility.yul\":5550:5574   */\n  tag_16\n  jump\t// in\ntag_113:\n    /* \"#utility.yul\":5541:5575   */\n  tag_37\n  jump\t// in\ntag_112:\n    /* \"#utility.yul\":5523:5576   */\n  tag_16\n  jump\t// in\ntag_111:\n    /* \"#utility.yul\":5510:5576   */\n  swap1\n  pop\n    /* \"#utility.yul\":5440:5582   */\n  swap2\n  swap1\n  pop\n  jump\t// out\n    /* \"#utility.yul\":5588:5663   */\ntag_39:\n    /* \"#utility.yul\":5631:5634   */\n  0x00\n    /* \"#utility.yul\":5652:5657   */\n  dup2\n    /* \"#utility.yul\":5645:5657   */\n  swap1\n  pop\n    /* \"#utility.yul\":5588:5663   */\n  swap2\n  swap1\n  pop\n  jump\t// out\n    /* \"#utility.yul\":5669:5938   */\ntag_40:\n    /* \"#utility.yul\":5779:5818   */\n  tag_116\n    /* \"#utility.yul\":5810:5817   */\n  dup4\n    /* \"#utility.yul\":5779:5818   */\n  tag_38\n  jump\t// in\ntag_116:\n    /* \"#utility.yul\":5840:5931   */\n  tag_117\n    /* \"#utility.yul\":5889:5930   */\n  tag_118\n    /* \"#utility.yul\":5913:5929   */\n  dup3\n    /* \"#utility.yul\":5889:5930   */\n  tag_39\n  jump\t// in\ntag_118:\n    /* \"#utility.yul\":5881:5887   */\n  dup5\n    /* \"#utility.yul\":5874:5878   */\n  dup5\n    /* \"#utility.yul\":5868:5879   */\n  sload\n    /* \"#utility.yul\":5840:5931   */\n  tag_36\n  jump\t// in\ntag_117:\n    /* \"#utility.yul\":5834:5838   */\n  dup3\n    /* \"#utility.yul\":5827:5932   */\n  sstore\n    /* \"#utility.yul\":5745:5938   */\n  pop\n    /* \"#utility.yul\":5669:5938   */\n  pop\n  pop\n  pop\n  jump\t// out\n    /* \"#utility.yul\":5944:6017   */\ntag_41:\n    /* \"#utility.yul\":5989:5992   */\n  0x00\n    /* \"#utility.yul\":6010:6011   */\n  0x00\n    /* \"#utility.yul\":6003:6011   */\n  swap1\n  pop\n    /* \"#utility.yul\":5944:6017   */\n  swap1\n  jump\t// out\n    /* \"#utility.yul\":6023:6212   */\ntag_42:\n    /* \"#utility.yul\":6100:6132   */\n  tag_121\n  tag_41\n  jump\t// in\ntag_121:\n    /* \"#utility.yul\":6141:6206   */\n  tag_122\n    /* \"#utility.yul\":6199:6205   */\n  dup2\n    /* \"#utility.yul\":6191:6197   */\n  dup5\n    /* \"#utility.yul\":6185:6189   */\n  dup5\n    /* \"#utility.yul\":6141:6206   */\n  tag_40\n  jump\t// in\ntag_122:\n    /* \"#utility.yul\":6076:6212   */\n  pop\n    /* \"#utility.yul\":6023:6212   */\n  pop\n  pop\n  jump\t// out\n    /* \"#utility.yul\":6218:6404   */\ntag_43:\n    /* \"#utility.yul\":6278:6398   */\ntag_124:\n    /* \"#utility.yul\":6295:6298   */\n  dup2\n    /* \"#utility.yul\":6288:6293   */\n  dup2\n    /* \"#utility.yul\":6285:6299   */\n  lt\n    /* \"#utility.yul\":6278:6398   */\n  iszero\n  tag_126\n  jumpi\n    /* \"#utility.yul\":6349:6388   */\n  tag_127\n    /* \"#utility.yul\":6386:6387   */\n  0x00\n    /* \"#utility.yul\":6379:6384   */\n  dup3\n    /* \"#utility.yul\":6349:6388   */\n  tag_42\n  jump\t// in\ntag_127:\n    /* \"#utility.yul\":6322:6323   */\n  0x01\n    /* \"#utility.yul\":6315:6320   */\n  dup2\n    /* \"#utility.yul\":6311:6324   */\n  add\n    /* \"#utility.yul\":6302:6324   */\n  swap1\n  pop\n    /* \"#utility.yul\":6278:6398   */\n  jump(tag_124)\ntag_126:\n    /* \"#utility.yul\":6218:6404   */\n  pop\n  pop\n  jump\t// out\n    /* \"#utility.yul\":6410:6953   */\ntag_44:\n    /* \"#utility.yul\":6511:6513   */\n  0x1f\n    /* \"#utility.yul\":6506:6509   */\n  dup3\n    /* \"#utility.yul\":6503:6514   */\n  gt\n    /* \"#utility.yul\":6500:6946   */\n  iszero\n  tag_129\n  jumpi\n    /* \"#utility.yul\":6545:6583   */\n  tag_130\n    /* \"#utility.yul\":6577:6582   */\n  dup2\n    /* \"#utility.yul\":6545:6583   */\n  tag_33\n  jump\t// in\ntag_130:\n    /* \"#utility.yul\":6629:6658   */\n  tag_131\n    /* \"#utility.yul\":6647:6657   */\n  dup5\n    /* \"#utility.yul\":6629:6658   */\n  tag_34\n  jump\t// in\ntag_131:\n    /* \"#utility.yul\":6619:6627   */\n  dup2\n    /* \"#utility.yul\":6615:6659   */\n  add\n    /* \"#utility.yul\":6812:6814   */\n  0x20\n    /* \"#utility.yul\":6800:6810   */\n  dup6\n    /* \"#utility.yul\":6797:6815   */\n  lt\n    /* \"#utility.yul\":6794:6843   */\n  iszero\n  tag_132\n  jumpi\n    /* \"#utility.yul\":6833:6841   */\n  dup2\n    /* \"#utility.yul\":6818:6841   */\n  swap1\n  pop\n    /* \"#utility.yul\":6794:6843   */\ntag_132:\n    /* \"#utility.yul\":6856:6936   */\n  tag_133\n    /* \"#utility.yul\":6912:6934   */\n  tag_134\n    /* \"#utility.yul\":6930:6933   */\n  dup6\n    /* \"#utility.yul\":6912:6934   */\n  tag_34\n  jump\t// in\ntag_134:\n    /* \"#utility.yul\":6902:6910   */\n  dup4\n    /* \"#utility.yul\":6898:6935   */\n  add\n    /* \"#utility.yul\":6885:6896   */\n  dup3\n    /* \"#utility.yul\":6856:6936   */\n  tag_43\n  jump\t// in\ntag_133:\n    /* \"#utility.yul\":6515:6946   */\n  pop\n  pop\n    /* \"#utility.yul\":6500:6946   */\ntag_129:\n    /* \"#utility.yul\":6410:6953   */\n  pop\n  pop\n  pop\n  jump\t// out\n    /* \"#utility.yul\":6959:7076   */\ntag_45:\n    /* \"#utility.yul\":7013:7021   */\n  0x00\n    /* \"#utility.yul\":7063:7068   */\n  dup3\n    /* \"#utility.yul\":7057:7061   */\n  dup3\n    /* \"#utility.yul\":7053:7069   */\n  shr\n    /* \"#utility.yul\":7032:7069   */\n  swap1\n  pop\n    /* \"#utility.yul\":6959:7076   */\n  swap3\n  swap2\n  pop\n  pop\n  jump\t// out\n    /* \"#utility.yul\":7082:7251   */\ntag_46:\n    /* \"#utility.yul\":7126:7132   */\n  0x00\n    /* \"#utility.yul\":7159:7210   */\n  tag_137\n    /* \"#utility.yul\":7207:7208   */\n  0x00\n    /* \"#utility.yul\":7203:7209   */\n  not\n    /* \"#utility.yul\":7195:7200   */\n  dup5\n    /* \"#utility.yul\":7192:7193   */\n  0x08\n    /* \"#utility.yul\":7188:7201   */\n  mul\n    /* \"#utility.yul\":7159:7210   */\n  tag_45\n  jump\t// in\ntag_137:\n    /* \"#utility.yul\":7155:7211   */\n  not\n    /* \"#utility.yul\":7240:7244   */\n  dup1\n    /* \"#utility.yul\":7234:7238   */\n  dup4\n    /* \"#utility.yul\":7230:7245   */\n  and\n    /* \"#utility.yul\":7220:7245   */\n  swap2\n  pop\n    /* \"#utility.yul\":7133:7251   */\n  pop\n    /* \"#utility.yul\":7082:7251   */\n  swap3\n  swap2\n  pop\n  pop\n  jump\t// out\n    /* \"#utility.yul\":7256:7551   */\ntag_47:\n    /* \"#utility.yul\":7332:7336   */\n  0x00\n    /* \"#utility.yul\":7478:7507   */\n  tag_139\n    /* \"#utility.yul\":7503:7506   */\n  dup4\n    /* \"#utility.yul\":7497:7501   */\n  dup4\n    /* \"#utility.yul\":7478:7507   */\n  tag_46\n  jump\t// in\ntag_139:\n    /* \"#utility.yul\":7470:7507   */\n  swap2\n  pop\n    /* \"#utility.yul\":7540:7543   */\n  dup3\n    /* \"#utility.yul\":7537:7538   */\n  0x02\n    /* \"#utility.yul\":7533:7544   */\n  mul\n    /* \"#utility.yul\":7527:7531   */\n  dup3\n    /* \"#utility.yul\":7524:7545   */\n  or\n    /* \"#utility.yul\":7516:7545   */\n  swap1\n  pop\n    /* \"#utility.yul\":7256:7551   */\n  swap3\n  swap2\n  pop\n  pop\n  jump\t// out\n    /* \"#utility.yul\":7556:8951   */\ntag_11:\n    /* \"#utility.yul\":7673:7710   */\n  tag_141\n    /* \"#utility.yul\":7706:7709   */\n  dup3\n    /* \"#utility.yul\":7673:7710   */\n  tag_30\n  jump\t// in\ntag_141:\n    /* \"#utility.yul\":7775:7793   */\n  0xffffffffffffffff\n    /* \"#utility.yul\":7767:7773   */\n  dup2\n    /* \"#utility.yul\":7764:7794   */\n  gt\n    /* \"#utility.yul\":7761:7817   */\n  iszero\n  tag_142\n  jumpi\n    /* \"#utility.yul\":7797:7815   */\n  tag_143\n  tag_22\n  jump\t// in\ntag_143:\n    /* \"#utility.yul\":7761:7817   */\ntag_142:\n    /* \"#utility.yul\":7841:7879   */\n  tag_144\n    /* \"#utility.yul\":7873:7877   */\n  dup3\n    /* \"#utility.yul\":7867:7878   */\n  sload\n    /* \"#utility.yul\":7841:7879   */\n  tag_32\n  jump\t// in\ntag_144:\n    /* \"#utility.yul\":7926:7993   */\n  tag_145\n    /* \"#utility.yul\":7986:7992   */\n  dup3\n    /* \"#utility.yul\":7978:7984   */\n  dup3\n    /* \"#utility.yul\":7972:7976   */\n  dup6\n    /* \"#utility.yul\":7926:7993   */\n  tag_44\n  jump\t// in\ntag_145:\n    /* \"#utility.yul\":8020:8021   */\n  0x00\n    /* \"#utility.yul\":8044:8048   */\n  0x20\n    /* \"#utility.yul\":8031:8048   */\n  swap1\n  pop\n    /* \"#utility.yul\":8076:8078   */\n  0x1f\n    /* \"#utility.yul\":8068:8074   */\n  dup4\n    /* \"#utility.yul\":8065:8079   */\n  gt\n    /* \"#utility.yul\":8093:8094   */\n  0x01\n    /* \"#utility.yul\":8088:8706   */\n  dup2\n  eq\n  tag_147\n  jumpi\n    /* \"#utility.yul\":8750:8751   */\n  0x00\n    /* \"#utility.yul\":8767:8773   */\n  dup5\n    /* \"#utility.yul\":8764:8841   */\n  iszero\n  tag_148\n  jumpi\n    /* \"#utility.yul\":8816:8825   */\n  dup3\n    /* \"#utility.yul\":8811:8814   */\n  dup8\n    /* \"#utility.yul\":8807:8826   */\n  add\n    /* \"#utility.yul\":8801:8827   */\n  mload\n    /* \"#utility.yul\":8792:8827   */\n  swap1\n  pop\n    /* \"#utility.yul\":8764:8841   */\ntag_148:\n    /* \"#utility.yul\":8867:8934   */\n  tag_149\n    /* \"#utility.yul\":8927:8933   */\n  dup6\n    /* \"#utility.yul\":8920:8925   */\n  dup3\n    /* \"#utility.yul\":8867:8934   */\n  tag_47\n  jump\t// in\ntag_149:\n    /* \"#utility.yul\":8861:8865   */\n  dup7\n    /* \"#utility.yul\":8854:8935   */\n  sstore\n    /* \"#utility.yul\":8723:8945   */\n  pop\n    /* \"#utility.yul\":8058:8945   */\n  jump(tag_146)\n    /* \"#utility.yul\":8088:8706   */\ntag_147:\n    /* \"#utility.yul\":8140:8144   */\n  0x1f\n    /* \"#utility.yul\":8136:8145   */\n  not\n    /* \"#utility.yul\":8128:8134   */\n  dup5\n    /* \"#utility.yul\":8124:8146   */\n  and\n    /* \"#utility.yul\":8174:8211   */\n  tag_150\n    /* \"#utility.yul\":8206:8210   */\n  dup7\n    /* \"#utility.yul\":8174:8211   */\n  tag_33\n  jump\t// in\ntag_150:\n    /* \"#utility.yul\":8233:8234   */\n  0x00\n    /* \"#utility.yul\":8247:8455   */\ntag_151:\n    /* \"#utility.yul\":8261:8268   */\n  dup3\n    /* \"#utility.yul\":8258:8259   */\n  dup2\n    /* \"#utility.yul\":8255:8269   */\n  lt\n    /* \"#utility.yul\":8247:8455   */\n  iszero\n  tag_153\n  jumpi\n    /* \"#utility.yul\":8340:8349   */\n  dup5\n    /* \"#utility.yul\":8335:8338   */\n  dup10\n    /* \"#utility.yul\":8331:8350   */\n  add\n    /* \"#utility.yul\":8325:8351   */\n  mload\n    /* \"#utility.yul\":8317:8323   */\n  dup3\n    /* \"#utility.yul\":8310:8352   */\n  sstore\n    /* \"#utility.yul\":8391:8392   */\n  0x01\n    /* \"#utility.yul\":8383:8389   */\n  dup3\n    /* \"#utility.yul\":8379:8393   */\n  add\n    /* \"#utility.yul\":8369:8393   */\n  swap2\n  pop\n    /* \"#utility.yul\":8438:8440   */\n  0x20\n    /* \"#utility.yul\":8427:8436   */\n  dup6\n    /* \"#utility.yul\":8423:8441   */\n  add\n    /* \"#utility.yul\":8410:8441   */\n  swap5\n  pop\n    /* \"#utility.yul\":8284:8288   */\n  0x20\n    /* \"#utility.yul\":8281:8282   */\n  dup2\n    /* \"#utility.yul\":8277:8289   */\n  add\n    /* \"#utility.yul\":8272:8289   */\n  swap1\n  pop\n    /* \"#utility.yul\":8247:8455   */\n  jump(tag_151)\ntag_153:\n    /* \"#utility.yul\":8483:8489   */\n  dup7\n    /* \"#utility.yul\":8474:8481   */\n  dup4\n    /* \"#utility.yul\":8471:8490   */\n  lt\n    /* \"#utility.yul\":8468:8647   */\n  iszero\n  tag_154\n  jumpi\n    /* \"#utility.yul\":8541:8550   */\n  dup5\n    /* \"#utility.yul\":8536:8539   */\n  dup10\n    /* \"#utility.yul\":8532:8551   */\n  add\n    /* \"#utility.yul\":8526:8552   */\n  mload\n    /* \"#utility.yul\":8584:8632   */\n  tag_155\n    /* \"#utility.yul\":8626:8630   */\n  0x1f\n    /* \"#utility.yul\":8618:8624   */\n  dup10\n    /* \"#utility.yul\":8614:8631   */\n  and\n    /* \"#utility.yul\":8603:8612   */\n  dup3\n    /* \"#utility.yul\":8584:8632   */\n  tag_46\n  jump\t// in\ntag_155:\n    /* \"#utility.yul\":8576:8582   */\n  dup4\n    /* \"#utility.yul\":8569:8633   */\n  sstore\n    /* \"#utility.yul\":8491:8647   */\n  pop\n    /* \"#utility.yul\":8468:8647   */\ntag_154:\n    /* \"#utility.yul\":8693:8694   */\n  0x01\n    /* \"#utility.yul\":8689:8690   */\n  0x02\n    /* \"#utility.yul\":8681:8687   */\n  dup9\n    /* \"#utility.yul\":8677:8691   */\n  mul\n    /* \"#utility.yul\":8673:8695   */\n  add\n    /* \"#utility.yul\":8667:8671   */\n  dup9\n    /* \"#utility.yul\":8660:8696   */\n  sstore\n    /* \"#utility.yul\":8095:8706   */\n  pop\n  pop\n  pop\n    /* \"#utility.yul\":8058:8945   */\ntag_146:\n  pop\n    /* \"#utility.yul\":7648:8951   */\n  pop\n  pop\n  pop\n    /* \"#utility.yul\":7556:8951   */\n  pop\n  pop\n  jump\t// out\n    /* \"contracts/PRACTICE/1(Basic)/Updated_auction.sol\":125:3330  contract Auction is ReentrancyGuard {... */\ntag_12:\n  dataSize(sub_0)\n  dup1\n  dataOffset(sub_0)\n  0x00\n  codecopy\n  0x00\n  return\nstop\n\nsub_0: assembly {\n        /* \"contracts/PRACTICE/1(Basic)/Updated_auction.sol\":125:3330  contract Auction is ReentrancyGuard {... */\n      mstore(0x40, 0x80)\n      jumpi(tag_1, lt(calldatasize, 0x04))\n      shr(0xe0, calldataload(0x00))\n      dup1\n      0x8da5cb5b\n      gt\n      tag_14\n      jumpi\n      dup1\n      0x8da5cb5b\n      eq\n      tag_8\n      jumpi\n      dup1\n      0xb3beaee2\n      eq\n      tag_9\n      jumpi\n      dup1\n      0xce5f9fb3\n      eq\n      tag_10\n      jumpi\n      dup1\n      0xdcbfb0ff\n      eq\n      tag_11\n      jumpi\n      dup1\n      0xf2a4a82e\n      eq\n      tag_12\n      jumpi\n      dup1\n      0xfe67a54b\n      eq\n      tag_13\n      jumpi\n      jump(tag_1)\n    tag_14:\n      dup1\n      0x1998aeef\n      eq\n      tag_2\n      jumpi\n      dup1\n      0x3ad08463\n      eq\n      tag_3\n      jumpi\n      dup1\n      0x438f7352\n      eq\n      tag_4\n      jumpi\n      dup1\n      0x6ec5177a\n      eq\n      tag_5\n      jumpi\n      dup1\n      0x75bd1a33\n      eq\n      tag_6\n      jumpi\n      dup1\n      0x86433374\n      eq\n      tag_7\n      jumpi\n    tag_1:\n      revert(0x00, 0x00)\n        /* \"contracts/PRACTICE/1(Basic)/Updated_auction.sol\":1744:2487  function bid() public payable AuctionTime {... */\n    tag_2:\n      tag_15\n      tag_16\n      jump\t// in\n    tag_15:\n      stop\n        /* \"contracts/PRACTICE/1(Basic)/Updated_auction.sol\":531:553  uint public highestbid */\n    tag_3:\n      callvalue\n      dup1\n      iszero\n      tag_17\n      jumpi\n      revert(0x00, 0x00)\n    tag_17:\n      pop\n      tag_18\n      tag_19\n      jump\t// in\n    tag_18:\n      mload(0x40)\n      tag_20\n      swap2\n      swap1\n      tag_21\n      jump\t// in\n    tag_20:\n      mload(0x40)\n      dup1\n      swap2\n      sub\n      swap1\n      return\n        /* \"contracts/PRACTICE/1(Basic)/Updated_auction.sol\":394:438  mapping(address => bidder) public bidderInfo */\n    tag_4:\n      callvalue\n      dup1\n      iszero\n      tag_22\n      jumpi\n      revert(0x00, 0x00)\n    tag_22:\n      pop\n      tag_23\n      0x04\n      dup1\n      calldatasize\n      sub\n      dup2\n      add\n      swap1\n      tag_24\n      swap2\n      swap1\n      tag_25\n      jump\t// in\n    tag_24:\n      tag_26\n      jump\t// in\n    tag_23:\n      mload(0x40)\n      tag_27\n      swap3\n      swap2\n      swap1\n      tag_28\n      jump\t// in\n    tag_27:\n      mload(0x40)\n      dup1\n      swap2\n      sub\n      swap1\n      return\n        /* \"contracts/PRACTICE/1(Basic)/Updated_auction.sol\":1553:1736  function addbidder(string memory _name, uint _id) public onlyOwner {... */\n    tag_5:\n      callvalue\n      dup1\n      iszero\n      tag_29\n      jumpi\n      revert(0x00, 0x00)\n    tag_29:\n      pop\n      tag_30\n      0x04\n      dup1\n      calldatasize\n      sub\n      dup2\n      add\n      swap1\n      tag_31\n      swap2\n      swap1\n      tag_32\n      jump\t// in\n    tag_31:\n      tag_33\n      jump\t// in\n    tag_30:\n      stop\n        /* \"contracts/PRACTICE/1(Basic)/Updated_auction.sol\":445:464  uint public timeend */\n    tag_6:\n      callvalue\n      dup1\n      iszero\n      tag_34\n      jumpi\n      revert(0x00, 0x00)\n    tag_34:\n      pop\n      tag_35\n      tag_36\n      jump\t// in\n    tag_35:\n      mload(0x40)\n      tag_37\n      swap2\n      swap1\n      tag_21\n      jump\t// in\n    tag_37:\n      mload(0x40)\n      dup1\n      swap2\n      sub\n      swap1\n      return\n        /* \"contracts/PRACTICE/1(Basic)/Updated_auction.sol\":275:299  bool public auctionEnded */\n    tag_7:\n      callvalue\n      dup1\n      iszero\n      tag_38\n      jumpi\n      revert(0x00, 0x00)\n    tag_38:\n      pop\n      tag_39\n      tag_40\n      jump\t// in\n    tag_39:\n      mload(0x40)\n      tag_41\n      swap2\n      swap1\n      tag_42\n      jump\t// in\n    tag_41:\n      mload(0x40)\n      dup1\n      swap2\n      sub\n      swap1\n      return\n        /* \"contracts/PRACTICE/1(Basic)/Updated_auction.sol\":168:188  address public owner */\n    tag_8:\n      callvalue\n      dup1\n      iszero\n      tag_43\n      jumpi\n      revert(0x00, 0x00)\n    tag_43:\n      pop\n      tag_44\n      tag_45\n      jump\t// in\n    tag_44:\n      mload(0x40)\n      tag_46\n      swap2\n      swap1\n      tag_47\n      jump\t// in\n    tag_46:\n      mload(0x40)\n      dup1\n      swap2\n      sub\n      swap1\n      return\n        /* \"contracts/PRACTICE/1(Basic)/Updated_auction.sol\":3134:3327  function getBidderData(address _bidder) public view returns (string memory name, uint id) {... */\n    tag_9:\n      callvalue\n      dup1\n      iszero\n      tag_48\n      jumpi\n      revert(0x00, 0x00)\n    tag_48:\n      pop\n      tag_49\n      0x04\n      dup1\n      calldatasize\n      sub\n      dup2\n      add\n      swap1\n      tag_50\n      swap2\n      swap1\n      tag_25\n      jump\t// in\n    tag_50:\n      tag_51\n      jump\t// in\n    tag_49:\n      mload(0x40)\n      tag_52\n      swap3\n      swap2\n      swap1\n      tag_28\n      jump\t// in\n    tag_52:\n      mload(0x40)\n      dup1\n      swap2\n      sub\n      swap1\n      return\n        /* \"contracts/PRACTICE/1(Basic)/Updated_auction.sol\":2891:3124  function extendAuction(uint additionalTime) public onlyOwner {... */\n    tag_10:\n      callvalue\n      dup1\n      iszero\n      tag_53\n      jumpi\n      revert(0x00, 0x00)\n    tag_53:\n      pop\n      tag_54\n      0x04\n      dup1\n      calldatasize\n      sub\n      dup2\n      add\n      swap1\n      tag_55\n      swap2\n      swap1\n      tag_56\n      jump\t// in\n    tag_55:\n      tag_57\n      jump\t// in\n    tag_54:\n      stop\n        /* \"contracts/PRACTICE/1(Basic)/Updated_auction.sol\":496:524  address public highestbidder */\n    tag_11:\n      callvalue\n      dup1\n      iszero\n      tag_58\n      jumpi\n      revert(0x00, 0x00)\n    tag_58:\n      pop\n      tag_59\n      tag_60\n      jump\t// in\n    tag_59:\n      mload(0x40)\n      tag_61\n      swap2\n      swap1\n      tag_47\n      jump\t// in\n    tag_61:\n      mload(0x40)\n      dup1\n      swap2\n      sub\n      swap1\n      return\n        /* \"contracts/PRACTICE/1(Basic)/Updated_auction.sol\":471:489  string public item */\n    tag_12:\n      callvalue\n      dup1\n      iszero\n      tag_62\n      jumpi\n      revert(0x00, 0x00)\n    tag_62:\n      pop\n      tag_63\n      tag_64\n      jump\t// in\n    tag_63:\n      mload(0x40)\n      tag_65\n      swap2\n      swap1\n      tag_66\n      jump\t// in\n    tag_65:\n      mload(0x40)\n      dup1\n      swap2\n      sub\n      swap1\n      return\n        /* \"contracts/PRACTICE/1(Basic)/Updated_auction.sol\":2495:2830  function endAuction() public onlyOwner Endtime {... */\n    tag_13:\n      callvalue\n      dup1\n      iszero\n      tag_67\n      jumpi\n      revert(0x00, 0x00)\n    tag_67:\n      pop\n      tag_68\n      tag_69\n      jump\t// in\n    tag_68:\n      stop\n        /* \"contracts/PRACTICE/1(Basic)/Updated_auction.sol\":1744:2487  function bid() public payable AuctionTime {... */\n    tag_16:\n        /* \"contracts/PRACTICE/1(Basic)/Updated_auction.sol\":1358:1365  timeend */\n      sload(0x03)\n        /* \"contracts/PRACTICE/1(Basic)/Updated_auction.sol\":1340:1355  block.timestamp */\n      timestamp\n        /* \"contracts/PRACTICE/1(Basic)/Updated_auction.sol\":1340:1365  block.timestamp < timeend */\n      lt\n        /* \"contracts/PRACTICE/1(Basic)/Updated_auction.sol\":1340:1382  block.timestamp < timeend && !auctionEnded */\n      dup1\n      iszero\n      tag_71\n      jumpi\n      pop\n        /* \"contracts/PRACTICE/1(Basic)/Updated_auction.sol\":1370:1382  auctionEnded */\n      0x01\n      0x14\n      swap1\n      sload\n      swap1\n      0x0100\n      exp\n      swap1\n      div\n      0xff\n      and\n        /* \"contracts/PRACTICE/1(Basic)/Updated_auction.sol\":1369:1382  !auctionEnded */\n      iszero\n        /* \"contracts/PRACTICE/1(Basic)/Updated_auction.sol\":1340:1382  block.timestamp < timeend && !auctionEnded */\n    tag_71:\n        /* \"contracts/PRACTICE/1(Basic)/Updated_auction.sol\":1332:1404  require(block.timestamp < timeend && !auctionEnded, \"Auction has ended\") */\n      tag_72\n      jumpi\n      mload(0x40)\n      0x08c379a000000000000000000000000000000000000000000000000000000000\n      dup2\n      mstore\n      0x04\n      add\n      tag_73\n      swap1\n      tag_74\n      jump\t// in\n    tag_73:\n      mload(0x40)\n      dup1\n      swap2\n      sub\n      swap1\n      revert\n    tag_72:\n        /* \"contracts/PRACTICE/1(Basic)/Updated_auction.sol\":1817:1827  highestbid */\n      sload(0x06)\n        /* \"contracts/PRACTICE/1(Basic)/Updated_auction.sol\":1805:1814  msg.value */\n      callvalue\n        /* \"contracts/PRACTICE/1(Basic)/Updated_auction.sol\":1805:1827  msg.value > highestbid */\n      gt\n        /* \"contracts/PRACTICE/1(Basic)/Updated_auction.sol\":1797:1884  require(msg.value > highestbid, \"Your bid must be higher than the current highest bid\") */\n      tag_76\n      jumpi\n      mload(0x40)\n      0x08c379a000000000000000000000000000000000000000000000000000000000\n      dup2\n      mstore\n      0x04\n      add\n      tag_77\n      swap1\n      tag_78\n      jump\t// in\n    tag_77:\n      mload(0x40)\n      dup1\n      swap2\n      sub\n      swap1\n      revert\n    tag_76:\n        /* \"contracts/PRACTICE/1(Basic)/Updated_auction.sol\":1915:1916  0 */\n      0x00\n        /* \"contracts/PRACTICE/1(Basic)/Updated_auction.sol\":1901:1911  highestbid */\n      sload(0x06)\n        /* \"contracts/PRACTICE/1(Basic)/Updated_auction.sol\":1901:1916  highestbid != 0 */\n      eq\n        /* \"contracts/PRACTICE/1(Basic)/Updated_auction.sol\":1897:2430  if (highestbid != 0) {... */\n      tag_79\n      jumpi\n        /* \"contracts/PRACTICE/1(Basic)/Updated_auction.sol\":1933:1962  address previousHighestBidder */\n      0x00\n        /* \"contracts/PRACTICE/1(Basic)/Updated_auction.sol\":1965:1978  highestbidder */\n      0x05\n      0x00\n      swap1\n      sload\n      swap1\n      0x0100\n      exp\n      swap1\n      div\n      0xffffffffffffffffffffffffffffffffffffffff\n      and\n        /* \"contracts/PRACTICE/1(Basic)/Updated_auction.sol\":1933:1978  address previousHighestBidder = highestbidder */\n      swap1\n      pop\n        /* \"contracts/PRACTICE/1(Basic)/Updated_auction.sol\":1993:2016  uint previousHighestBid */\n      0x00\n        /* \"contracts/PRACTICE/1(Basic)/Updated_auction.sol\":2019:2029  highestbid */\n      sload(0x06)\n        /* \"contracts/PRACTICE/1(Basic)/Updated_auction.sol\":1993:2029  uint previousHighestBid = highestbid */\n      swap1\n      pop\n        /* \"contracts/PRACTICE/1(Basic)/Updated_auction.sol\":2062:2072  msg.sender */\n      caller\n        /* \"contracts/PRACTICE/1(Basic)/Updated_auction.sol\":2046:2059  highestbidder */\n      0x05\n      0x00\n        /* \"contracts/PRACTICE/1(Basic)/Updated_auction.sol\":2046:2072  highestbidder = msg.sender */\n      0x0100\n      exp\n      dup2\n      sload\n      dup2\n      0xffffffffffffffffffffffffffffffffffffffff\n      mul\n      not\n      and\n      swap1\n      dup4\n      0xffffffffffffffffffffffffffffffffffffffff\n      and\n      mul\n      or\n      swap1\n      sstore\n      pop\n        /* \"contracts/PRACTICE/1(Basic)/Updated_auction.sol\":2100:2109  msg.value */\n      callvalue\n        /* \"contracts/PRACTICE/1(Basic)/Updated_auction.sol\":2087:2097  highestbid */\n      0x06\n        /* \"contracts/PRACTICE/1(Basic)/Updated_auction.sol\":2087:2109  highestbid = msg.value */\n      dup2\n      swap1\n      sstore\n      pop\n        /* \"contracts/PRACTICE/1(Basic)/Updated_auction.sol\":2186:2198  bool success */\n      0x00\n        /* \"contracts/PRACTICE/1(Basic)/Updated_auction.sol\":2204:2225  previousHighestBidder */\n      dup3\n        /* \"contracts/PRACTICE/1(Basic)/Updated_auction.sol\":2204:2230  previousHighestBidder.call */\n      0xffffffffffffffffffffffffffffffffffffffff\n      and\n        /* \"contracts/PRACTICE/1(Basic)/Updated_auction.sol\":2238:2256  previousHighestBid */\n      dup3\n        /* \"contracts/PRACTICE/1(Basic)/Updated_auction.sol\":2204:2261  previousHighestBidder.call{value: previousHighestBid}(\"\") */\n      mload(0x40)\n      tag_80\n      swap1\n      tag_81\n      jump\t// in\n    tag_80:\n      0x00\n      mload(0x40)\n      dup1\n      dup4\n      sub\n      dup2\n      dup6\n      dup8\n      gas\n      call\n      swap3\n      pop\n      pop\n      pop\n      returndatasize\n      dup1\n      0x00\n      dup2\n      eq\n      tag_84\n      jumpi\n      mload(0x40)\n      swap2\n      pop\n      and(add(returndatasize, 0x3f), not(0x1f))\n      dup3\n      add\n      0x40\n      mstore\n      returndatasize\n      dup3\n      mstore\n      returndatasize\n      0x00\n      0x20\n      dup5\n      add\n      returndatacopy\n      jump(tag_83)\n    tag_84:\n      0x60\n      swap2\n      pop\n    tag_83:\n      pop\n        /* \"contracts/PRACTICE/1(Basic)/Updated_auction.sol\":2185:2261  (bool success, ) = previousHighestBidder.call{value: previousHighestBid}(\"\") */\n      pop\n      swap1\n      pop\n        /* \"contracts/PRACTICE/1(Basic)/Updated_auction.sol\":2284:2291  success */\n      dup1\n        /* \"contracts/PRACTICE/1(Basic)/Updated_auction.sol\":2276:2322  require(success, \"Previous bid refund failed\") */\n      tag_85\n      jumpi\n      mload(0x40)\n      0x08c379a000000000000000000000000000000000000000000000000000000000\n      dup2\n      mstore\n      0x04\n      add\n      tag_86\n      swap1\n      tag_87\n      jump\t// in\n    tag_86:\n      mload(0x40)\n      dup1\n      swap2\n      sub\n      swap1\n      revert\n    tag_85:\n        /* \"contracts/PRACTICE/1(Basic)/Updated_auction.sol\":1918:2334  {... */\n      pop\n      pop\n      pop\n        /* \"contracts/PRACTICE/1(Basic)/Updated_auction.sol\":1897:2430  if (highestbid != 0) {... */\n      jump(tag_88)\n    tag_79:\n        /* \"contracts/PRACTICE/1(Basic)/Updated_auction.sol\":2371:2381  msg.sender */\n      caller\n        /* \"contracts/PRACTICE/1(Basic)/Updated_auction.sol\":2355:2368  highestbidder */\n      0x05\n      0x00\n        /* \"contracts/PRACTICE/1(Basic)/Updated_auction.sol\":2355:2381  highestbidder = msg.sender */\n      0x0100\n      exp\n      dup2\n      sload\n      dup2\n      0xffffffffffffffffffffffffffffffffffffffff\n      mul\n      not\n      and\n      swap1\n      dup4\n      0xffffffffffffffffffffffffffffffffffffffff\n      and\n      mul\n      or\n      swap1\n      sstore\n      pop\n        /* \"contracts/PRACTICE/1(Basic)/Updated_auction.sol\":2409:2418  msg.value */\n      callvalue\n        /* \"contracts/PRACTICE/1(Basic)/Updated_auction.sol\":2396:2406  highestbid */\n      0x06\n        /* \"contracts/PRACTICE/1(Basic)/Updated_auction.sol\":2396:2418  highestbid = msg.value */\n      dup2\n      swap1\n      sstore\n      pop\n        /* \"contracts/PRACTICE/1(Basic)/Updated_auction.sol\":1897:2430  if (highestbid != 0) {... */\n    tag_88:\n        /* \"contracts/PRACTICE/1(Basic)/Updated_auction.sol\":2457:2467  msg.sender */\n      caller\n        /* \"contracts/PRACTICE/1(Basic)/Updated_auction.sol\":2447:2479  BidPlaced(msg.sender, msg.value) */\n      0xffffffffffffffffffffffffffffffffffffffff\n      and\n      0x3fabff0a9c3ecd6814702e247fa9733e5d0aa69e3a38590f92cb18f623a2254d\n        /* \"contracts/PRACTICE/1(Basic)/Updated_auction.sol\":2469:2478  msg.value */\n      callvalue\n        /* \"contracts/PRACTICE/1(Basic)/Updated_auction.sol\":2447:2479  BidPlaced(msg.sender, msg.value) */\n      mload(0x40)\n      tag_89\n      swap2\n      swap1\n      tag_21\n      jump\t// in\n    tag_89:\n      mload(0x40)\n      dup1\n      swap2\n      sub\n      swap1\n      log2\n        /* \"contracts/PRACTICE/1(Basic)/Updated_auction.sol\":1744:2487  function bid() public payable AuctionTime {... */\n      jump\t// out\n        /* \"contracts/PRACTICE/1(Basic)/Updated_auction.sol\":531:553  uint public highestbid */\n    tag_19:\n      sload(0x06)\n      dup2\n      jump\t// out\n        /* \"contracts/PRACTICE/1(Basic)/Updated_auction.sol\":394:438  mapping(address => bidder) public bidderInfo */\n    tag_26:\n      mstore(0x20, 0x02)\n      dup1\n      0x00\n      mstore\n      keccak256(0x00, 0x40)\n      0x00\n      swap2\n      pop\n      swap1\n      pop\n      dup1\n      0x00\n      add\n      dup1\n      sload\n      tag_90\n      swap1\n      tag_91\n      jump\t// in\n    tag_90:\n      dup1\n      0x1f\n      add\n      0x20\n      dup1\n      swap2\n      div\n      mul\n      0x20\n      add\n      mload(0x40)\n      swap1\n      dup2\n      add\n      0x40\n      mstore\n      dup1\n      swap3\n      swap2\n      swap1\n      dup2\n      dup2\n      mstore\n      0x20\n      add\n      dup3\n      dup1\n      sload\n      tag_92\n      swap1\n      tag_91\n      jump\t// in\n    tag_92:\n      dup1\n      iszero\n      tag_93\n      jumpi\n      dup1\n      0x1f\n      lt\n      tag_94\n      jumpi\n      0x0100\n      dup1\n      dup4\n      sload\n      div\n      mul\n      dup4\n      mstore\n      swap2\n      0x20\n      add\n      swap2\n      jump(tag_93)\n    tag_94:\n      dup3\n      add\n      swap2\n      swap1\n      0x00\n      mstore\n      keccak256(0x00, 0x20)\n      swap1\n    tag_95:\n      dup2\n      sload\n      dup2\n      mstore\n      swap1\n      0x01\n      add\n      swap1\n      0x20\n      add\n      dup1\n      dup4\n      gt\n      tag_95\n      jumpi\n      dup3\n      swap1\n      sub\n      0x1f\n      and\n      dup3\n      add\n      swap2\n    tag_93:\n      pop\n      pop\n      pop\n      pop\n      pop\n      swap1\n      dup1\n      0x01\n      add\n      sload\n      swap1\n      pop\n      dup3\n      jump\t// out\n        /* \"contracts/PRACTICE/1(Basic)/Updated_auction.sol\":1553:1736  function addbidder(string memory _name, uint _id) public onlyOwner {... */\n    tag_33:\n        /* \"contracts/PRACTICE/1(Basic)/Updated_auction.sol\":1234:1244  msg.sender */\n      caller\n        /* \"contracts/PRACTICE/1(Basic)/Updated_auction.sol\":1225:1244  owner == msg.sender */\n      0xffffffffffffffffffffffffffffffffffffffff\n      and\n        /* \"contracts/PRACTICE/1(Basic)/Updated_auction.sol\":1225:1230  owner */\n      0x01\n      0x00\n      swap1\n      sload\n      swap1\n      0x0100\n      exp\n      swap1\n      div\n      0xffffffffffffffffffffffffffffffffffffffff\n      and\n        /* \"contracts/PRACTICE/1(Basic)/Updated_auction.sol\":1225:1244  owner == msg.sender */\n      0xffffffffffffffffffffffffffffffffffffffff\n      and\n      eq\n        /* \"contracts/PRACTICE/1(Basic)/Updated_auction.sol\":1217:1270  require(owner == msg.sender, \"You are not the owner\") */\n      tag_97\n      jumpi\n      mload(0x40)\n      0x08c379a000000000000000000000000000000000000000000000000000000000\n      dup2\n      mstore\n      0x04\n      add\n      tag_98\n      swap1\n      tag_99\n      jump\t// in\n    tag_98:\n      mload(0x40)\n      dup1\n      swap2\n      sub\n      swap1\n      revert\n    tag_97:\n        /* \"contracts/PRACTICE/1(Basic)/Updated_auction.sol\":1656:1674  bidder(_name, _id) */\n      mload(0x40)\n      dup1\n      0x40\n      add\n      0x40\n      mstore\n      dup1\n        /* \"contracts/PRACTICE/1(Basic)/Updated_auction.sol\":1663:1668  _name */\n      dup4\n        /* \"contracts/PRACTICE/1(Basic)/Updated_auction.sol\":1656:1674  bidder(_name, _id) */\n      dup2\n      mstore\n      0x20\n      add\n        /* \"contracts/PRACTICE/1(Basic)/Updated_auction.sol\":1670:1673  _id */\n      dup3\n        /* \"contracts/PRACTICE/1(Basic)/Updated_auction.sol\":1656:1674  bidder(_name, _id) */\n      dup2\n      mstore\n      pop\n        /* \"contracts/PRACTICE/1(Basic)/Updated_auction.sol\":1631:1641  bidderInfo */\n      0x02\n        /* \"contracts/PRACTICE/1(Basic)/Updated_auction.sol\":1631:1653  bidderInfo[msg.sender] */\n      0x00\n        /* \"contracts/PRACTICE/1(Basic)/Updated_auction.sol\":1642:1652  msg.sender */\n      caller\n        /* \"contracts/PRACTICE/1(Basic)/Updated_auction.sol\":1631:1653  bidderInfo[msg.sender] */\n      0xffffffffffffffffffffffffffffffffffffffff\n      and\n      0xffffffffffffffffffffffffffffffffffffffff\n      and\n      dup2\n      mstore\n      0x20\n      add\n      swap1\n      dup2\n      mstore\n      0x20\n      add\n      0x00\n      keccak256\n        /* \"contracts/PRACTICE/1(Basic)/Updated_auction.sol\":1631:1674  bidderInfo[msg.sender] = bidder(_name, _id) */\n      0x00\n      dup3\n      add\n      mload\n      dup2\n      0x00\n      add\n      swap1\n      dup2\n      tag_101\n      swap2\n      swap1\n      tag_102\n      jump\t// in\n    tag_101:\n      pop\n      0x20\n      dup3\n      add\n      mload\n      dup2\n      0x01\n      add\n      sstore\n      swap1\n      pop\n      pop\n        /* \"contracts/PRACTICE/1(Basic)/Updated_auction.sol\":1705:1715  msg.sender */\n      caller\n        /* \"contracts/PRACTICE/1(Basic)/Updated_auction.sol\":1690:1728  NewBidderAdded(msg.sender, _name, _id) */\n      0xffffffffffffffffffffffffffffffffffffffff\n      and\n      0xe536509d3c6d9fa6301b2521c8bed681e02fe27aa4858bf3beeef0e94458b6ee\n        /* \"contracts/PRACTICE/1(Basic)/Updated_auction.sol\":1717:1722  _name */\n      dup4\n        /* \"contracts/PRACTICE/1(Basic)/Updated_auction.sol\":1724:1727  _id */\n      dup4\n        /* \"contracts/PRACTICE/1(Basic)/Updated_auction.sol\":1690:1728  NewBidderAdded(msg.sender, _name, _id) */\n      mload(0x40)\n      tag_103\n      swap3\n      swap2\n      swap1\n      tag_28\n      jump\t// in\n    tag_103:\n      mload(0x40)\n      dup1\n      swap2\n      sub\n      swap1\n      log2\n        /* \"contracts/PRACTICE/1(Basic)/Updated_auction.sol\":1553:1736  function addbidder(string memory _name, uint _id) public onlyOwner {... */\n      pop\n      pop\n      jump\t// out\n        /* \"contracts/PRACTICE/1(Basic)/Updated_auction.sol\":445:464  uint public timeend */\n    tag_36:\n      sload(0x03)\n      dup2\n      jump\t// out\n        /* \"contracts/PRACTICE/1(Basic)/Updated_auction.sol\":275:299  bool public auctionEnded */\n    tag_40:\n      0x01\n      0x14\n      swap1\n      sload\n      swap1\n      0x0100\n      exp\n      swap1\n      div\n      0xff\n      and\n      dup2\n      jump\t// out\n        /* \"contracts/PRACTICE/1(Basic)/Updated_auction.sol\":168:188  address public owner */\n    tag_45:\n      0x01\n      0x00\n      swap1\n      sload\n      swap1\n      0x0100\n      exp\n      swap1\n      div\n      0xffffffffffffffffffffffffffffffffffffffff\n      and\n      dup2\n      jump\t// out\n        /* \"contracts/PRACTICE/1(Basic)/Updated_auction.sol\":3134:3327  function getBidderData(address _bidder) public view returns (string memory name, uint id) {... */\n    tag_51:\n        /* \"contracts/PRACTICE/1(Basic)/Updated_auction.sol\":3195:3213  string memory name */\n      0x60\n        /* \"contracts/PRACTICE/1(Basic)/Updated_auction.sol\":3215:3222  uint id */\n      0x00\n        /* \"contracts/PRACTICE/1(Basic)/Updated_auction.sol\":3235:3255  bidder memory Bidder */\n      0x00\n        /* \"contracts/PRACTICE/1(Basic)/Updated_auction.sol\":3258:3268  bidderInfo */\n      0x02\n        /* \"contracts/PRACTICE/1(Basic)/Updated_auction.sol\":3258:3277  bidderInfo[_bidder] */\n      0x00\n        /* \"contracts/PRACTICE/1(Basic)/Updated_auction.sol\":3269:3276  _bidder */\n      dup6\n        /* \"contracts/PRACTICE/1(Basic)/Updated_auction.sol\":3258:3277  bidderInfo[_bidder] */\n      0xffffffffffffffffffffffffffffffffffffffff\n      and\n      0xffffffffffffffffffffffffffffffffffffffff\n      and\n      dup2\n      mstore\n      0x20\n      add\n      swap1\n      dup2\n      mstore\n      0x20\n      add\n      0x00\n      keccak256\n        /* \"contracts/PRACTICE/1(Basic)/Updated_auction.sol\":3235:3277  bidder memory Bidder = bidderInfo[_bidder] */\n      mload(0x40)\n      dup1\n      0x40\n      add\n      0x40\n      mstore\n      swap1\n      dup2\n      0x00\n      dup3\n      add\n      dup1\n      sload\n      tag_105\n      swap1\n      tag_91\n      jump\t// in\n    tag_105:\n      dup1\n      0x1f\n      add\n      0x20\n      dup1\n      swap2\n      div\n      mul\n      0x20\n      add\n      mload(0x40)\n      swap1\n      dup2\n      add\n      0x40\n      mstore\n      dup1\n      swap3\n      swap2\n      swap1\n      dup2\n      dup2\n      mstore\n      0x20\n      add\n      dup3\n      dup1\n      sload\n      tag_106\n      swap1\n      tag_91\n      jump\t// in\n    tag_106:\n      dup1\n      iszero\n      tag_107\n      jumpi\n      dup1\n      0x1f\n      lt\n      tag_108\n      jumpi\n      0x0100\n      dup1\n      dup4\n      sload\n      div\n      mul\n      dup4\n      mstore\n      swap2\n      0x20\n      add\n      swap2\n      jump(tag_107)\n    tag_108:\n      dup3\n      add\n      swap2\n      swap1\n      0x00\n      mstore\n      keccak256(0x00, 0x20)\n      swap1\n    tag_109:\n      dup2\n      sload\n      dup2\n      mstore\n      swap1\n      0x01\n      add\n      swap1\n      0x20\n      add\n      dup1\n      dup4\n      gt\n      tag_109\n      jumpi\n      dup3\n      swap1\n      sub\n      0x1f\n      and\n      dup3\n      add\n      swap2\n    tag_107:\n      pop\n      pop\n      pop\n      pop\n      pop\n      dup2\n      mstore\n      0x20\n      add\n      0x01\n      dup3\n      add\n      sload\n      dup2\n      mstore\n      pop\n      pop\n      swap1\n      pop\n        /* \"contracts/PRACTICE/1(Basic)/Updated_auction.sol\":3296:3302  Bidder */\n      dup1\n        /* \"contracts/PRACTICE/1(Basic)/Updated_auction.sol\":3296:3307  Bidder.name */\n      0x00\n      add\n      mload\n        /* \"contracts/PRACTICE/1(Basic)/Updated_auction.sol\":3309:3315  Bidder */\n      dup2\n        /* \"contracts/PRACTICE/1(Basic)/Updated_auction.sol\":3309:3318  Bidder.id */\n      0x20\n      add\n      mload\n        /* \"contracts/PRACTICE/1(Basic)/Updated_auction.sol\":3288:3319  return (Bidder.name, Bidder.id) */\n      swap3\n      pop\n      swap3\n      pop\n      pop\n        /* \"contracts/PRACTICE/1(Basic)/Updated_auction.sol\":3134:3327  function getBidderData(address _bidder) public view returns (string memory name, uint id) {... */\n      swap2\n      pop\n      swap2\n      jump\t// out\n        /* \"contracts/PRACTICE/1(Basic)/Updated_auction.sol\":2891:3124  function extendAuction(uint additionalTime) public onlyOwner {... */\n    tag_57:\n        /* \"contracts/PRACTICE/1(Basic)/Updated_auction.sol\":1234:1244  msg.sender */\n      caller\n        /* \"contracts/PRACTICE/1(Basic)/Updated_auction.sol\":1225:1244  owner == msg.sender */\n      0xffffffffffffffffffffffffffffffffffffffff\n      and\n        /* \"contracts/PRACTICE/1(Basic)/Updated_auction.sol\":1225:1230  owner */\n      0x01\n      0x00\n      swap1\n      sload\n      swap1\n      0x0100\n      exp\n      swap1\n      div\n      0xffffffffffffffffffffffffffffffffffffffff\n      and\n        /* \"contracts/PRACTICE/1(Basic)/Updated_auction.sol\":1225:1244  owner == msg.sender */\n      0xffffffffffffffffffffffffffffffffffffffff\n      and\n      eq\n        /* \"contracts/PRACTICE/1(Basic)/Updated_auction.sol\":1217:1270  require(owner == msg.sender, \"You are not the owner\") */\n      tag_111\n      jumpi\n      mload(0x40)\n      0x08c379a000000000000000000000000000000000000000000000000000000000\n      dup2\n      mstore\n      0x04\n      add\n      tag_112\n      swap1\n      tag_99\n      jump\t// in\n    tag_112:\n      mload(0x40)\n      dup1\n      swap2\n      sub\n      swap1\n      revert\n    tag_111:\n        /* \"contracts/PRACTICE/1(Basic)/Updated_auction.sol\":2972:2984  auctionEnded */\n      0x01\n      0x14\n      swap1\n      sload\n      swap1\n      0x0100\n      exp\n      swap1\n      div\n      0xff\n      and\n        /* \"contracts/PRACTICE/1(Basic)/Updated_auction.sol\":2971:2984  !auctionEnded */\n      iszero\n        /* \"contracts/PRACTICE/1(Basic)/Updated_auction.sol\":2963:3014  require(!auctionEnded, \"Auction has already ended\") */\n      tag_114\n      jumpi\n      mload(0x40)\n      0x08c379a000000000000000000000000000000000000000000000000000000000\n      dup2\n      mstore\n      0x04\n      add\n      tag_115\n      swap1\n      tag_116\n      jump\t// in\n    tag_115:\n      mload(0x40)\n      dup1\n      swap2\n      sub\n      swap1\n      revert\n    tag_114:\n        /* \"contracts/PRACTICE/1(Basic)/Updated_auction.sol\":3046:3060  additionalTime */\n      dup1\n        /* \"contracts/PRACTICE/1(Basic)/Updated_auction.sol\":3035:3042  timeend */\n      0x03\n      0x00\n        /* \"contracts/PRACTICE/1(Basic)/Updated_auction.sol\":3035:3060  timeend += additionalTime */\n      dup3\n      dup3\n      sload\n      tag_117\n      swap2\n      swap1\n      tag_118\n      jump\t// in\n    tag_117:\n      swap3\n      pop\n      pop\n      dup2\n      swap1\n      sstore\n      pop\n        /* \"contracts/PRACTICE/1(Basic)/Updated_auction.sol\":3076:3100  AuctionExtended(timeend) */\n      0xc2b459809119087ca9d2bc10dea53a51b7d848b1a11075db037bdca58292c3e8\n        /* \"contracts/PRACTICE/1(Basic)/Updated_auction.sol\":3092:3099  timeend */\n      sload(0x03)\n        /* \"contracts/PRACTICE/1(Basic)/Updated_auction.sol\":3076:3100  AuctionExtended(timeend) */\n      mload(0x40)\n      tag_119\n      swap2\n      swap1\n      tag_21\n      jump\t// in\n    tag_119:\n      mload(0x40)\n      dup1\n      swap2\n      sub\n      swap1\n      log1\n        /* \"contracts/PRACTICE/1(Basic)/Updated_auction.sol\":2891:3124  function extendAuction(uint additionalTime) public onlyOwner {... */\n      pop\n      jump\t// out\n        /* \"contracts/PRACTICE/1(Basic)/Updated_auction.sol\":496:524  address public highestbidder */\n    tag_60:\n      0x05\n      0x00\n      swap1\n      sload\n      swap1\n      0x0100\n      exp\n      swap1\n      div\n      0xffffffffffffffffffffffffffffffffffffffff\n      and\n      dup2\n      jump\t// out\n        /* \"contracts/PRACTICE/1(Basic)/Updated_auction.sol\":471:489  string public item */\n    tag_64:\n      0x04\n      dup1\n      sload\n      tag_120\n      swap1\n      tag_91\n      jump\t// in\n    tag_120:\n      dup1\n      0x1f\n      add\n      0x20\n      dup1\n      swap2\n      div\n      mul\n      0x20\n      add\n      mload(0x40)\n      swap1\n      dup2\n      add\n      0x40\n      mstore\n      dup1\n      swap3\n      swap2\n      swap1\n      dup2\n      dup2\n      mstore\n      0x20\n      add\n      dup3\n      dup1\n      sload\n      tag_121\n      swap1\n      tag_91\n      jump\t// in\n    tag_121:\n      dup1\n      iszero\n      tag_122\n      jumpi\n      dup1\n      0x1f\n      lt\n      tag_123\n      jumpi\n      0x0100\n      dup1\n      dup4\n      sload\n      div\n      mul\n      dup4\n      mstore\n      swap2\n      0x20\n      add\n      swap2\n      jump(tag_122)\n    tag_123:\n      dup3\n      add\n      swap2\n      swap1\n      0x00\n      mstore\n      keccak256(0x00, 0x20)\n      swap1\n    tag_124:\n      dup2\n      sload\n      dup2\n      mstore\n      swap1\n      0x01\n      add\n      swap1\n      0x20\n      add\n      dup1\n      dup4\n      gt\n      tag_124\n      jumpi\n      dup3\n      swap1\n      sub\n      0x1f\n      and\n      dup3\n      add\n      swap2\n    tag_122:\n      pop\n      pop\n      pop\n      pop\n      pop\n      dup2\n      jump\t// out\n        /* \"contracts/PRACTICE/1(Basic)/Updated_auction.sol\":2495:2830  function endAuction() public onlyOwner Endtime {... */\n    tag_69:\n        /* \"contracts/PRACTICE/1(Basic)/Updated_auction.sol\":1234:1244  msg.sender */\n      caller\n        /* \"contracts/PRACTICE/1(Basic)/Updated_auction.sol\":1225:1244  owner == msg.sender */\n      0xffffffffffffffffffffffffffffffffffffffff\n      and\n        /* \"contracts/PRACTICE/1(Basic)/Updated_auction.sol\":1225:1230  owner */\n      0x01\n      0x00\n      swap1\n      sload\n      swap1\n      0x0100\n      exp\n      swap1\n      div\n      0xffffffffffffffffffffffffffffffffffffffff\n      and\n        /* \"contracts/PRACTICE/1(Basic)/Updated_auction.sol\":1225:1244  owner == msg.sender */\n      0xffffffffffffffffffffffffffffffffffffffff\n      and\n      eq\n        /* \"contracts/PRACTICE/1(Basic)/Updated_auction.sol\":1217:1270  require(owner == msg.sender, \"You are not the owner\") */\n      tag_126\n      jumpi\n      mload(0x40)\n      0x08c379a000000000000000000000000000000000000000000000000000000000\n      dup2\n      mstore\n      0x04\n      add\n      tag_127\n      swap1\n      tag_99\n      jump\t// in\n    tag_127:\n      mload(0x40)\n      dup1\n      swap2\n      sub\n      swap1\n      revert\n    tag_126:\n        /* \"contracts/PRACTICE/1(Basic)/Updated_auction.sol\":1489:1496  timeend */\n      sload(0x03)\n        /* \"contracts/PRACTICE/1(Basic)/Updated_auction.sol\":1470:1485  block.timestamp */\n      timestamp\n        /* \"contracts/PRACTICE/1(Basic)/Updated_auction.sol\":1470:1496  block.timestamp >= timeend */\n      lt\n      iszero\n        /* \"contracts/PRACTICE/1(Basic)/Updated_auction.sol\":1462:1525  require(block.timestamp >= timeend, \"Auction is still ongoing\") */\n      tag_129\n      jumpi\n      mload(0x40)\n      0x08c379a000000000000000000000000000000000000000000000000000000000\n      dup2\n      mstore\n      0x04\n      add\n      tag_130\n      swap1\n      tag_131\n      jump\t// in\n    tag_130:\n      mload(0x40)\n      dup1\n      swap2\n      sub\n      swap1\n      revert\n    tag_129:\n        /* \"contracts/PRACTICE/1(Basic)/Updated_auction.sol\":2562:2574  auctionEnded */\n      0x01\n      0x14\n      swap1\n      sload\n      swap1\n      0x0100\n      exp\n      swap1\n      div\n      0xff\n      and\n        /* \"contracts/PRACTICE/1(Basic)/Updated_auction.sol\":2561:2574  !auctionEnded */\n      iszero\n        /* \"contracts/PRACTICE/1(Basic)/Updated_auction.sol\":2553:2604  require(!auctionEnded, \"Auction has already ended\") */\n      tag_133\n      jumpi\n      mload(0x40)\n      0x08c379a000000000000000000000000000000000000000000000000000000000\n      dup2\n      mstore\n      0x04\n      add\n      tag_134\n      swap1\n      tag_116\n      jump\t// in\n    tag_134:\n      mload(0x40)\n      dup1\n      swap2\n      sub\n      swap1\n      revert\n    tag_133:\n        /* \"contracts/PRACTICE/1(Basic)/Updated_auction.sol\":2691:2695  true */\n      0x01\n        /* \"contracts/PRACTICE/1(Basic)/Updated_auction.sol\":2676:2688  auctionEnded */\n      dup1\n      0x14\n        /* \"contracts/PRACTICE/1(Basic)/Updated_auction.sol\":2676:2695  auctionEnded = true */\n      0x0100\n      exp\n      dup2\n      sload\n      dup2\n      0xff\n      mul\n      not\n      and\n      swap1\n      dup4\n      iszero\n      iszero\n      mul\n      or\n      swap1\n      sstore\n      pop\n        /* \"contracts/PRACTICE/1(Basic)/Updated_auction.sol\":2740:2745  owner */\n      0x01\n      0x00\n      swap1\n      sload\n      swap1\n      0x0100\n      exp\n      swap1\n      div\n      0xffffffffffffffffffffffffffffffffffffffff\n      and\n        /* \"contracts/PRACTICE/1(Basic)/Updated_auction.sol\":2732:2755  payable(owner).transfer */\n      0xffffffffffffffffffffffffffffffffffffffff\n      and\n        /* \"contracts/PRACTICE/1(Basic)/Updated_auction.sol\":2732:2767  payable(owner).transfer(highestbid) */\n      0x08fc\n        /* \"contracts/PRACTICE/1(Basic)/Updated_auction.sol\":2756:2766  highestbid */\n      sload(0x06)\n        /* \"contracts/PRACTICE/1(Basic)/Updated_auction.sol\":2732:2767  payable(owner).transfer(highestbid) */\n      swap1\n      dup2\n      iszero\n      mul\n      swap1\n      mload(0x40)\n      0x00\n      mload(0x40)\n      dup1\n      dup4\n      sub\n      dup2\n      dup6\n      dup9\n      dup9\n      call\n      swap4\n      pop\n      pop\n      pop\n      pop\n      iszero\n      dup1\n      iszero\n      tag_136\n      jumpi\n      returndatacopy(0x00, 0x00, returndatasize)\n      revert(0x00, returndatasize)\n    tag_136:\n      pop\n        /* \"contracts/PRACTICE/1(Basic)/Updated_auction.sol\":2796:2809  highestbidder */\n      0x05\n      0x00\n      swap1\n      sload\n      swap1\n      0x0100\n      exp\n      swap1\n      div\n      0xffffffffffffffffffffffffffffffffffffffff\n      and\n        /* \"contracts/PRACTICE/1(Basic)/Updated_auction.sol\":2783:2822  AuctionEnded(highestbidder, highestbid) */\n      0xffffffffffffffffffffffffffffffffffffffff\n      and\n      0xdaec4582d5d9595688c8c98545fdd1c696d41c6aeaeb636737e84ed2f5c00eda\n        /* \"contracts/PRACTICE/1(Basic)/Updated_auction.sol\":2811:2821  highestbid */\n      sload(0x06)\n        /* \"contracts/PRACTICE/1(Basic)/Updated_auction.sol\":2783:2822  AuctionEnded(highestbidder, highestbid) */\n      mload(0x40)\n      tag_137\n      swap2\n      swap1\n      tag_21\n      jump\t// in\n    tag_137:\n      mload(0x40)\n      dup1\n      swap2\n      sub\n      swap1\n      log2\n        /* \"contracts/PRACTICE/1(Basic)/Updated_auction.sol\":2495:2830  function endAuction() public onlyOwner Endtime {... */\n      jump\t// out\n        /* \"#utility.yul\":7:84   */\n    tag_138:\n        /* \"#utility.yul\":44:51   */\n      0x00\n        /* \"#utility.yul\":73:78   */\n      dup2\n        /* \"#utility.yul\":62:78   */\n      swap1\n      pop\n        /* \"#utility.yul\":7:84   */\n      swap2\n      swap1\n      pop\n      jump\t// out\n        /* \"#utility.yul\":90:208   */\n    tag_139:\n        /* \"#utility.yul\":177:201   */\n      tag_201\n        /* \"#utility.yul\":195:200   */\n      dup2\n        /* \"#utility.yul\":177:201   */\n      tag_138\n      jump\t// in\n    tag_201:\n        /* \"#utility.yul\":172:175   */\n      dup3\n        /* \"#utility.yul\":165:202   */\n      mstore\n        /* \"#utility.yul\":90:208   */\n      pop\n      pop\n      jump\t// out\n        /* \"#utility.yul\":214:436   */\n    tag_21:\n        /* \"#utility.yul\":307:311   */\n      0x00\n        /* \"#utility.yul\":345:347   */\n      0x20\n        /* \"#utility.yul\":334:343   */\n      dup3\n        /* \"#utility.yul\":330:348   */\n      add\n        /* \"#utility.yul\":322:348   */\n      swap1\n      pop\n        /* \"#utility.yul\":358:429   */\n      tag_203\n        /* \"#utility.yul\":426:427   */\n      0x00\n        /* \"#utility.yul\":415:424   */\n      dup4\n        /* \"#utility.yul\":411:428   */\n      add\n        /* \"#utility.yul\":402:408   */\n      dup5\n        /* \"#utility.yul\":358:429   */\n      tag_139\n      jump\t// in\n    tag_203:\n        /* \"#utility.yul\":214:436   */\n      swap3\n      swap2\n      pop\n      pop\n      jump\t// out\n        /* \"#utility.yul\":442:517   */\n    tag_140:\n        /* \"#utility.yul\":475:481   */\n      0x00\n        /* \"#utility.yul\":508:510   */\n      0x40\n        /* \"#utility.yul\":502:511   */\n      mload\n        /* \"#utility.yul\":492:511   */\n      swap1\n      pop\n        /* \"#utility.yul\":442:517   */\n      swap1\n      jump\t// out\n        /* \"#utility.yul\":523:640   */\n    tag_141:\n        /* \"#utility.yul\":632:633   */\n      0x00\n        /* \"#utility.yul\":629:630   */\n      0x00\n        /* \"#utility.yul\":622:634   */\n      revert\n        /* \"#utility.yul\":646:763   */\n    tag_142:\n        /* \"#utility.yul\":755:756   */\n      0x00\n        /* \"#utility.yul\":752:753   */\n      0x00\n        /* \"#utility.yul\":745:757   */\n      revert\n        /* \"#utility.yul\":769:895   */\n    tag_143:\n        /* \"#utility.yul\":806:813   */\n      0x00\n        /* \"#utility.yul\":846:888   */\n      0xffffffffffffffffffffffffffffffffffffffff\n        /* \"#utility.yul\":839:844   */\n      dup3\n        /* \"#utility.yul\":835:889   */\n      and\n        /* \"#utility.yul\":824:889   */\n      swap1\n      pop\n        /* \"#utility.yul\":769:895   */\n      swap2\n      swap1\n      pop\n      jump\t// out\n        /* \"#utility.yul\":901:997   */\n    tag_144:\n        /* \"#utility.yul\":938:945   */\n      0x00\n        /* \"#utility.yul\":967:991   */\n      tag_209\n        /* \"#utility.yul\":985:990   */\n      dup3\n        /* \"#utility.yul\":967:991   */\n      tag_143\n      jump\t// in\n    tag_209:\n        /* \"#utility.yul\":956:991   */\n      swap1\n      pop\n        /* \"#utility.yul\":901:997   */\n      swap2\n      swap1\n      pop\n      jump\t// out\n        /* \"#utility.yul\":1003:1125   */\n    tag_145:\n        /* \"#utility.yul\":1076:1100   */\n      tag_211\n        /* \"#utility.yul\":1094:1099   */\n      dup2\n        /* \"#utility.yul\":1076:1100   */\n      tag_144\n      jump\t// in\n    tag_211:\n        /* \"#utility.yul\":1069:1074   */\n      dup2\n        /* \"#utility.yul\":1066:1101   */\n      eq\n        /* \"#utility.yul\":1056:1119   */\n      tag_212\n      jumpi\n        /* \"#utility.yul\":1115:1116   */\n      0x00\n        /* \"#utility.yul\":1112:1113   */\n      0x00\n        /* \"#utility.yul\":1105:1117   */\n      revert\n        /* \"#utility.yul\":1056:1119   */\n    tag_212:\n        /* \"#utility.yul\":1003:1125   */\n      pop\n      jump\t// out\n        /* \"#utility.yul\":1131:1270   */\n    tag_146:\n        /* \"#utility.yul\":1177:1182   */\n      0x00\n        /* \"#utility.yul\":1215:1221   */\n      dup2\n        /* \"#utility.yul\":1202:1222   */\n      calldataload\n        /* \"#utility.yul\":1193:1222   */\n      swap1\n      pop\n        /* \"#utility.yul\":1231:1264   */\n      tag_214\n        /* \"#utility.yul\":1258:1263   */\n      dup2\n        /* \"#utility.yul\":1231:1264   */\n      tag_145\n      jump\t// in\n    tag_214:\n        /* \"#utility.yul\":1131:1270   */\n      swap3\n      swap2\n      pop\n      pop\n      jump\t// out\n        /* \"#utility.yul\":1276:1605   */\n    tag_25:\n        /* \"#utility.yul\":1335:1341   */\n      0x00\n        /* \"#utility.yul\":1384:1386   */\n      0x20\n        /* \"#utility.yul\":1372:1381   */\n      dup3\n        /* \"#utility.yul\":1363:1370   */\n      dup5\n        /* \"#utility.yul\":1359:1382   */\n      sub\n        /* \"#utility.yul\":1355:1387   */\n      slt\n        /* \"#utility.yul\":1352:1471   */\n      iszero\n      tag_216\n      jumpi\n        /* \"#utility.yul\":1390:1469   */\n      tag_217\n      tag_141\n      jump\t// in\n    tag_217:\n        /* \"#utility.yul\":1352:1471   */\n    tag_216:\n        /* \"#utility.yul\":1510:1511   */\n      0x00\n        /* \"#utility.yul\":1535:1588   */\n      tag_218\n        /* \"#utility.yul\":1580:1587   */\n      dup5\n        /* \"#utility.yul\":1571:1577   */\n      dup3\n        /* \"#utility.yul\":1560:1569   */\n      dup6\n        /* \"#utility.yul\":1556:1578   */\n      add\n        /* \"#utility.yul\":1535:1588   */\n      tag_146\n      jump\t// in\n    tag_218:\n        /* \"#utility.yul\":1525:1588   */\n      swap2\n      pop\n        /* \"#utility.yul\":1481:1598   */\n      pop\n        /* \"#utility.yul\":1276:1605   */\n      swap3\n      swap2\n      pop\n      pop\n      jump\t// out\n        /* \"#utility.yul\":1611:1710   */\n    tag_147:\n        /* \"#utility.yul\":1663:1669   */\n      0x00\n        /* \"#utility.yul\":1697:1702   */\n      dup2\n        /* \"#utility.yul\":1691:1703   */\n      mload\n        /* \"#utility.yul\":1681:1703   */\n      swap1\n      pop\n        /* \"#utility.yul\":1611:1710   */\n      swap2\n      swap1\n      pop\n      jump\t// out\n        /* \"#utility.yul\":1716:1885   */\n    tag_148:\n        /* \"#utility.yul\":1800:1811   */\n      0x00\n        /* \"#utility.yul\":1834:1840   */\n      dup3\n        /* \"#utility.yul\":1829:1832   */\n      dup3\n        /* \"#utility.yul\":1822:1841   */\n      mstore\n        /* \"#utility.yul\":1874:1878   */\n      0x20\n        /* \"#utility.yul\":1869:1872   */\n      dup3\n        /* \"#utility.yul\":1865:1879   */\n      add\n        /* \"#utility.yul\":1850:1879   */\n      swap1\n      pop\n        /* \"#utility.yul\":1716:1885   */\n      swap3\n      swap2\n      pop\n      pop\n      jump\t// out\n        /* \"#utility.yul\":1891:2030   */\n    tag_149:\n        /* \"#utility.yul\":1980:1986   */\n      dup3\n        /* \"#utility.yul\":1975:1978   */\n      dup2\n        /* \"#utility.yul\":1970:1973   */\n      dup4\n        /* \"#utility.yul\":1964:1987   */\n      mcopy\n        /* \"#utility.yul\":2021:2022   */\n      0x00\n        /* \"#utility.yul\":2012:2018   */\n      dup4\n        /* \"#utility.yul\":2007:2010   */\n      dup4\n        /* \"#utility.yul\":2003:2019   */\n      add\n        /* \"#utility.yul\":1996:2023   */\n      mstore\n        /* \"#utility.yul\":1891:2030   */\n      pop\n      pop\n      pop\n      jump\t// out\n        /* \"#utility.yul\":2036:2138   */\n    tag_150:\n        /* \"#utility.yul\":2077:2083   */\n      0x00\n        /* \"#utility.yul\":2128:2130   */\n      0x1f\n        /* \"#utility.yul\":2124:2131   */\n      not\n        /* \"#utility.yul\":2119:2121   */\n      0x1f\n        /* \"#utility.yul\":2112:2117   */\n      dup4\n        /* \"#utility.yul\":2108:2122   */\n      add\n        /* \"#utility.yul\":2104:2132   */\n      and\n        /* \"#utility.yul\":2094:2132   */\n      swap1\n      pop\n        /* \"#utility.yul\":2036:2138   */\n      swap2\n      swap1\n      pop\n      jump\t// out\n        /* \"#utility.yul\":2144:2521   */\n    tag_151:\n        /* \"#utility.yul\":2232:2235   */\n      0x00\n        /* \"#utility.yul\":2260:2299   */\n      tag_224\n        /* \"#utility.yul\":2293:2298   */\n      dup3\n        /* \"#utility.yul\":2260:2299   */\n      tag_147\n      jump\t// in\n    tag_224:\n        /* \"#utility.yul\":2315:2386   */\n      tag_225\n        /* \"#utility.yul\":2379:2385   */\n      dup2\n        /* \"#utility.yul\":2374:2377   */\n      dup6\n        /* \"#utility.yul\":2315:2386   */\n      tag_148\n      jump\t// in\n    tag_225:\n        /* \"#utility.yul\":2308:2386   */\n      swap4\n      pop\n        /* \"#utility.yul\":2395:2460   */\n      tag_226\n        /* \"#utility.yul\":2453:2459   */\n      dup2\n        /* \"#utility.yul\":2448:2451   */\n      dup6\n        /* \"#utility.yul\":2441:2445   */\n      0x20\n        /* \"#utility.yul\":2434:2439   */\n      dup7\n        /* \"#utility.yul\":2430:2446   */\n      add\n        /* \"#utility.yul\":2395:2460   */\n      tag_149\n      jump\t// in\n    tag_226:\n        /* \"#utility.yul\":2485:2514   */\n      tag_227\n        /* \"#utility.yul\":2507:2513   */\n      dup2\n        /* \"#utility.yul\":2485:2514   */\n      tag_150\n      jump\t// in\n    tag_227:\n        /* \"#utility.yul\":2480:2483   */\n      dup5\n        /* \"#utility.yul\":2476:2515   */\n      add\n        /* \"#utility.yul\":2469:2515   */\n      swap2\n      pop\n        /* \"#utility.yul\":2236:2521   */\n      pop\n        /* \"#utility.yul\":2144:2521   */\n      swap3\n      swap2\n      pop\n      pop\n      jump\t// out\n        /* \"#utility.yul\":2527:2950   */\n    tag_28:\n        /* \"#utility.yul\":2668:2672   */\n      0x00\n        /* \"#utility.yul\":2706:2708   */\n      0x40\n        /* \"#utility.yul\":2695:2704   */\n      dup3\n        /* \"#utility.yul\":2691:2709   */\n      add\n        /* \"#utility.yul\":2683:2709   */\n      swap1\n      pop\n        /* \"#utility.yul\":2755:2764   */\n      dup2\n        /* \"#utility.yul\":2749:2753   */\n      dup2\n        /* \"#utility.yul\":2745:2765   */\n      sub\n        /* \"#utility.yul\":2741:2742   */\n      0x00\n        /* \"#utility.yul\":2730:2739   */\n      dup4\n        /* \"#utility.yul\":2726:2743   */\n      add\n        /* \"#utility.yul\":2719:2766   */\n      mstore\n        /* \"#utility.yul\":2783:2861   */\n      tag_229\n        /* \"#utility.yul\":2856:2860   */\n      dup2\n        /* \"#utility.yul\":2847:2853   */\n      dup6\n        /* \"#utility.yul\":2783:2861   */\n      tag_151\n      jump\t// in\n    tag_229:\n        /* \"#utility.yul\":2775:2861   */\n      swap1\n      pop\n        /* \"#utility.yul\":2871:2943   */\n      tag_230\n        /* \"#utility.yul\":2939:2941   */\n      0x20\n        /* \"#utility.yul\":2928:2937   */\n      dup4\n        /* \"#utility.yul\":2924:2942   */\n      add\n        /* \"#utility.yul\":2915:2921   */\n      dup5\n        /* \"#utility.yul\":2871:2943   */\n      tag_139\n      jump\t// in\n    tag_230:\n        /* \"#utility.yul\":2527:2950   */\n      swap4\n      swap3\n      pop\n      pop\n      pop\n      jump\t// out\n        /* \"#utility.yul\":2956:3073   */\n    tag_152:\n        /* \"#utility.yul\":3065:3066   */\n      0x00\n        /* \"#utility.yul\":3062:3063   */\n      0x00\n        /* \"#utility.yul\":3055:3067   */\n      revert\n        /* \"#utility.yul\":3079:3196   */\n    tag_153:\n        /* \"#utility.yul\":3188:3189   */\n      0x00\n        /* \"#utility.yul\":3185:3186   */\n      0x00\n        /* \"#utility.yul\":3178:3190   */\n      revert\n        /* \"#utility.yul\":3202:3382   */\n    tag_154:\n        /* \"#utility.yul\":3250:3327   */\n      0x4e487b7100000000000000000000000000000000000000000000000000000000\n        /* \"#utility.yul\":3247:3248   */\n      0x00\n        /* \"#utility.yul\":3240:3328   */\n      mstore\n        /* \"#utility.yul\":3347:3351   */\n      0x41\n        /* \"#utility.yul\":3344:3345   */\n      0x04\n        /* \"#utility.yul\":3337:3352   */\n      mstore\n        /* \"#utility.yul\":3371:3375   */\n      0x24\n        /* \"#utility.yul\":3368:3369   */\n      0x00\n        /* \"#utility.yul\":3361:3376   */\n      revert\n        /* \"#utility.yul\":3388:3669   */\n    tag_155:\n        /* \"#utility.yul\":3471:3498   */\n      tag_235\n        /* \"#utility.yul\":3493:3497   */\n      dup3\n        /* \"#utility.yul\":3471:3498   */\n      tag_150\n      jump\t// in\n    tag_235:\n        /* \"#utility.yul\":3463:3469   */\n      dup2\n        /* \"#utility.yul\":3459:3499   */\n      add\n        /* \"#utility.yul\":3601:3607   */\n      dup2\n        /* \"#utility.yul\":3589:3599   */\n      dup2\n        /* \"#utility.yul\":3586:3608   */\n      lt\n        /* \"#utility.yul\":3565:3583   */\n      0xffffffffffffffff\n        /* \"#utility.yul\":3553:3563   */\n      dup3\n        /* \"#utility.yul\":3550:3584   */\n      gt\n        /* \"#utility.yul\":3547:3609   */\n      or\n        /* \"#utility.yul\":3544:3632   */\n      iszero\n      tag_236\n      jumpi\n        /* \"#utility.yul\":3612:3630   */\n      tag_237\n      tag_154\n      jump\t// in\n    tag_237:\n        /* \"#utility.yul\":3544:3632   */\n    tag_236:\n        /* \"#utility.yul\":3652:3662   */\n      dup1\n        /* \"#utility.yul\":3648:3650   */\n      0x40\n        /* \"#utility.yul\":3641:3663   */\n      mstore\n        /* \"#utility.yul\":3431:3669   */\n      pop\n        /* \"#utility.yul\":3388:3669   */\n      pop\n      pop\n      jump\t// out\n        /* \"#utility.yul\":3675:3804   */\n    tag_156:\n        /* \"#utility.yul\":3709:3715   */\n      0x00\n        /* \"#utility.yul\":3736:3756   */\n      tag_239\n      tag_140\n      jump\t// in\n    tag_239:\n        /* \"#utility.yul\":3726:3756   */\n      swap1\n      pop\n        /* \"#utility.yul\":3765:3798   */\n      tag_240\n        /* \"#utility.yul\":3793:3797   */\n      dup3\n        /* \"#utility.yul\":3785:3791   */\n      dup3\n        /* \"#utility.yul\":3765:3798   */\n      tag_155\n      jump\t// in\n    tag_240:\n        /* \"#utility.yul\":3675:3804   */\n      swap2\n      swap1\n      pop\n      jump\t// out\n        /* \"#utility.yul\":3810:4118   */\n    tag_157:\n        /* \"#utility.yul\":3872:3876   */\n      0x00\n        /* \"#utility.yul\":3962:3980   */\n      0xffffffffffffffff\n        /* \"#utility.yul\":3954:3960   */\n      dup3\n        /* \"#utility.yul\":3951:3981   */\n      gt\n        /* \"#utility.yul\":3948:4004   */\n      iszero\n      tag_242\n      jumpi\n        /* \"#utility.yul\":3984:4002   */\n      tag_243\n      tag_154\n      jump\t// in\n    tag_243:\n        /* \"#utility.yul\":3948:4004   */\n    tag_242:\n        /* \"#utility.yul\":4022:4051   */\n      tag_244\n        /* \"#utility.yul\":4044:4050   */\n      dup3\n        /* \"#utility.yul\":4022:4051   */\n      tag_150\n      jump\t// in\n    tag_244:\n        /* \"#utility.yul\":4014:4051   */\n      swap1\n      pop\n        /* \"#utility.yul\":4106:4110   */\n      0x20\n        /* \"#utility.yul\":4100:4104   */\n      dup2\n        /* \"#utility.yul\":4096:4111   */\n      add\n        /* \"#utility.yul\":4088:4111   */\n      swap1\n      pop\n        /* \"#utility.yul\":3810:4118   */\n      swap2\n      swap1\n      pop\n      jump\t// out\n        /* \"#utility.yul\":4124:4272   */\n    tag_158:\n        /* \"#utility.yul\":4222:4228   */\n      dup3\n        /* \"#utility.yul\":4217:4220   */\n      dup2\n        /* \"#utility.yul\":4212:4215   */\n      dup4\n        /* \"#utility.yul\":4199:4229   */\n      calldatacopy\n        /* \"#utility.yul\":4263:4264   */\n      0x00\n        /* \"#utility.yul\":4254:4260   */\n      dup4\n        /* \"#utility.yul\":4249:4252   */\n      dup4\n        /* \"#utility.yul\":4245:4261   */\n      add\n        /* \"#utility.yul\":4238:4265   */\n      mstore\n        /* \"#utility.yul\":4124:4272   */\n      pop\n      pop\n      pop\n      jump\t// out\n        /* \"#utility.yul\":4278:4703   */\n    tag_159:\n        /* \"#utility.yul\":4356:4361   */\n      0x00\n        /* \"#utility.yul\":4381:4447   */\n      tag_247\n        /* \"#utility.yul\":4397:4446   */\n      tag_248\n        /* \"#utility.yul\":4439:4445   */\n      dup5\n        /* \"#utility.yul\":4397:4446   */\n      tag_157\n      jump\t// in\n    tag_248:\n        /* \"#utility.yul\":4381:4447   */\n      tag_156\n      jump\t// in\n    tag_247:\n        /* \"#utility.yul\":4372:4447   */\n      swap1\n      pop\n        /* \"#utility.yul\":4470:4476   */\n      dup3\n        /* \"#utility.yul\":4463:4468   */\n      dup2\n        /* \"#utility.yul\":4456:4477   */\n      mstore\n        /* \"#utility.yul\":4508:4512   */\n      0x20\n        /* \"#utility.yul\":4501:4506   */\n      dup2\n        /* \"#utility.yul\":4497:4513   */\n      add\n        /* \"#utility.yul\":4546:4549   */\n      dup5\n        /* \"#utility.yul\":4537:4543   */\n      dup5\n        /* \"#utility.yul\":4532:4535   */\n      dup5\n        /* \"#utility.yul\":4528:4544   */\n      add\n        /* \"#utility.yul\":4525:4550   */\n      gt\n        /* \"#utility.yul\":4522:4634   */\n      iszero\n      tag_249\n      jumpi\n        /* \"#utility.yul\":4553:4632   */\n      tag_250\n      tag_153\n      jump\t// in\n    tag_250:\n        /* \"#utility.yul\":4522:4634   */\n    tag_249:\n        /* \"#utility.yul\":4643:4697   */\n      tag_251\n        /* \"#utility.yul\":4690:4696   */\n      dup5\n        /* \"#utility.yul\":4685:4688   */\n      dup3\n        /* \"#utility.yul\":4680:4683   */\n      dup6\n        /* \"#utility.yul\":4643:4697   */\n      tag_158\n      jump\t// in\n    tag_251:\n        /* \"#utility.yul\":4362:4703   */\n      pop\n        /* \"#utility.yul\":4278:4703   */\n      swap4\n      swap3\n      pop\n      pop\n      pop\n      jump\t// out\n        /* \"#utility.yul\":4723:5063   */\n    tag_160:\n        /* \"#utility.yul\":4779:4784   */\n      0x00\n        /* \"#utility.yul\":4828:4831   */\n      dup3\n        /* \"#utility.yul\":4821:4825   */\n      0x1f\n        /* \"#utility.yul\":4813:4819   */\n      dup4\n        /* \"#utility.yul\":4809:4826   */\n      add\n        /* \"#utility.yul\":4805:4832   */\n      slt\n        /* \"#utility.yul\":4795:4917   */\n      tag_253\n      jumpi\n        /* \"#utility.yul\":4836:4915   */\n      tag_254\n      tag_152\n      jump\t// in\n    tag_254:\n        /* \"#utility.yul\":4795:4917   */\n    tag_253:\n        /* \"#utility.yul\":4953:4959   */\n      dup2\n        /* \"#utility.yul\":4940:4960   */\n      calldataload\n        /* \"#utility.yul\":4978:5057   */\n      tag_255\n        /* \"#utility.yul\":5053:5056   */\n      dup5\n        /* \"#utility.yul\":5045:5051   */\n      dup3\n        /* \"#utility.yul\":5038:5042   */\n      0x20\n        /* \"#utility.yul\":5030:5036   */\n      dup7\n        /* \"#utility.yul\":5026:5043   */\n      add\n        /* \"#utility.yul\":4978:5057   */\n      tag_159\n      jump\t// in\n    tag_255:\n        /* \"#utility.yul\":4969:5057   */\n      swap2\n      pop\n        /* \"#utility.yul\":4785:5063   */\n      pop\n        /* \"#utility.yul\":4723:5063   */\n      swap3\n      swap2\n      pop\n      pop\n      jump\t// out\n        /* \"#utility.yul\":5069:5191   */\n    tag_161:\n        /* \"#utility.yul\":5142:5166   */\n      tag_257\n        /* \"#utility.yul\":5160:5165   */\n      dup2\n        /* \"#utility.yul\":5142:5166   */\n      tag_138\n      jump\t// in\n    tag_257:\n        /* \"#utility.yul\":5135:5140   */\n      dup2\n        /* \"#utility.yul\":5132:5167   */\n      eq\n        /* \"#utility.yul\":5122:5185   */\n      tag_258\n      jumpi\n        /* \"#utility.yul\":5181:5182   */\n      0x00\n        /* \"#utility.yul\":5178:5179   */\n      0x00\n        /* \"#utility.yul\":5171:5183   */\n      revert\n        /* \"#utility.yul\":5122:5185   */\n    tag_258:\n        /* \"#utility.yul\":5069:5191   */\n      pop\n      jump\t// out\n        /* \"#utility.yul\":5197:5336   */\n    tag_162:\n        /* \"#utility.yul\":5243:5248   */\n      0x00\n        /* \"#utility.yul\":5281:5287   */\n      dup2\n        /* \"#utility.yul\":5268:5288   */\n      calldataload\n        /* \"#utility.yul\":5259:5288   */\n      swap1\n      pop\n        /* \"#utility.yul\":5297:5330   */\n      tag_260\n        /* \"#utility.yul\":5324:5329   */\n      dup2\n        /* \"#utility.yul\":5297:5330   */\n      tag_161\n      jump\t// in\n    tag_260:\n        /* \"#utility.yul\":5197:5336   */\n      swap3\n      swap2\n      pop\n      pop\n      jump\t// out\n        /* \"#utility.yul\":5342:5996   */\n    tag_32:\n        /* \"#utility.yul\":5420:5426   */\n      0x00\n        /* \"#utility.yul\":5428:5434   */\n      0x00\n        /* \"#utility.yul\":5477:5479   */\n      0x40\n        /* \"#utility.yul\":5465:5474   */\n      dup4\n        /* \"#utility.yul\":5456:5463   */\n      dup6\n        /* \"#utility.yul\":5452:5475   */\n      sub\n        /* \"#utility.yul\":5448:5480   */\n      slt\n        /* \"#utility.yul\":5445:5564   */\n      iszero\n      tag_262\n      jumpi\n        /* \"#utility.yul\":5483:5562   */\n      tag_263\n      tag_141\n      jump\t// in\n    tag_263:\n        /* \"#utility.yul\":5445:5564   */\n    tag_262:\n        /* \"#utility.yul\":5631:5632   */\n      0x00\n        /* \"#utility.yul\":5620:5629   */\n      dup4\n        /* \"#utility.yul\":5616:5633   */\n      add\n        /* \"#utility.yul\":5603:5634   */\n      calldataload\n        /* \"#utility.yul\":5661:5679   */\n      0xffffffffffffffff\n        /* \"#utility.yul\":5653:5659   */\n      dup2\n        /* \"#utility.yul\":5650:5680   */\n      gt\n        /* \"#utility.yul\":5647:5764   */\n      iszero\n      tag_264\n      jumpi\n        /* \"#utility.yul\":5683:5762   */\n      tag_265\n      tag_142\n      jump\t// in\n    tag_265:\n        /* \"#utility.yul\":5647:5764   */\n    tag_264:\n        /* \"#utility.yul\":5788:5851   */\n      tag_266\n        /* \"#utility.yul\":5843:5850   */\n      dup6\n        /* \"#utility.yul\":5834:5840   */\n      dup3\n        /* \"#utility.yul\":5823:5832   */\n      dup7\n        /* \"#utility.yul\":5819:5841   */\n      add\n        /* \"#utility.yul\":5788:5851   */\n      tag_160\n      jump\t// in\n    tag_266:\n        /* \"#utility.yul\":5778:5851   */\n      swap3\n      pop\n        /* \"#utility.yul\":5574:5861   */\n      pop\n        /* \"#utility.yul\":5900:5902   */\n      0x20\n        /* \"#utility.yul\":5926:5979   */\n      tag_267\n        /* \"#utility.yul\":5971:5978   */\n      dup6\n        /* \"#utility.yul\":5962:5968   */\n      dup3\n        /* \"#utility.yul\":5951:5960   */\n      dup7\n        /* \"#utility.yul\":5947:5969   */\n      add\n        /* \"#utility.yul\":5926:5979   */\n      tag_162\n      jump\t// in\n    tag_267:\n        /* \"#utility.yul\":5916:5979   */\n      swap2\n      pop\n        /* \"#utility.yul\":5871:5989   */\n      pop\n        /* \"#utility.yul\":5342:5996   */\n      swap3\n      pop\n      swap3\n      swap1\n      pop\n      jump\t// out\n        /* \"#utility.yul\":6002:6092   */\n    tag_163:\n        /* \"#utility.yul\":6036:6043   */\n      0x00\n        /* \"#utility.yul\":6079:6084   */\n      dup2\n        /* \"#utility.yul\":6072:6085   */\n      iszero\n        /* \"#utility.yul\":6065:6086   */\n      iszero\n        /* \"#utility.yul\":6054:6086   */\n      swap1\n      pop\n        /* \"#utility.yul\":6002:6092   */\n      swap2\n      swap1\n      pop\n      jump\t// out\n        /* \"#utility.yul\":6098:6207   */\n    tag_164:\n        /* \"#utility.yul\":6179:6200   */\n      tag_270\n        /* \"#utility.yul\":6194:6199   */\n      dup2\n        /* \"#utility.yul\":6179:6200   */\n      tag_163\n      jump\t// in\n    tag_270:\n        /* \"#utility.yul\":6174:6177   */\n      dup3\n        /* \"#utility.yul\":6167:6201   */\n      mstore\n        /* \"#utility.yul\":6098:6207   */\n      pop\n      pop\n      jump\t// out\n        /* \"#utility.yul\":6213:6423   */\n    tag_42:\n        /* \"#utility.yul\":6300:6304   */\n      0x00\n        /* \"#utility.yul\":6338:6340   */\n      0x20\n        /* \"#utility.yul\":6327:6336   */\n      dup3\n        /* \"#utility.yul\":6323:6341   */\n      add\n        /* \"#utility.yul\":6315:6341   */\n      swap1\n      pop\n        /* \"#utility.yul\":6351:6416   */\n      tag_272\n        /* \"#utility.yul\":6413:6414   */\n      0x00\n        /* \"#utility.yul\":6402:6411   */\n      dup4\n        /* \"#utility.yul\":6398:6415   */\n      add\n        /* \"#utility.yul\":6389:6395   */\n      dup5\n        /* \"#utility.yul\":6351:6416   */\n      tag_164\n      jump\t// in\n    tag_272:\n        /* \"#utility.yul\":6213:6423   */\n      swap3\n      swap2\n      pop\n      pop\n      jump\t// out\n        /* \"#utility.yul\":6429:6547   */\n    tag_165:\n        /* \"#utility.yul\":6516:6540   */\n      tag_274\n        /* \"#utility.yul\":6534:6539   */\n      dup2\n        /* \"#utility.yul\":6516:6540   */\n      tag_144\n      jump\t// in\n    tag_274:\n        /* \"#utility.yul\":6511:6514   */\n      dup3\n        /* \"#utility.yul\":6504:6541   */\n      mstore\n        /* \"#utility.yul\":6429:6547   */\n      pop\n      pop\n      jump\t// out\n        /* \"#utility.yul\":6553:6775   */\n    tag_47:\n        /* \"#utility.yul\":6646:6650   */\n      0x00\n        /* \"#utility.yul\":6684:6686   */\n      0x20\n        /* \"#utility.yul\":6673:6682   */\n      dup3\n        /* \"#utility.yul\":6669:6687   */\n      add\n        /* \"#utility.yul\":6661:6687   */\n      swap1\n      pop\n        /* \"#utility.yul\":6697:6768   */\n      tag_276\n        /* \"#utility.yul\":6765:6766   */\n      0x00\n        /* \"#utility.yul\":6754:6763   */\n      dup4\n        /* \"#utility.yul\":6750:6767   */\n      add\n        /* \"#utility.yul\":6741:6747   */\n      dup5\n        /* \"#utility.yul\":6697:6768   */\n      tag_165\n      jump\t// in\n    tag_276:\n        /* \"#utility.yul\":6553:6775   */\n      swap3\n      swap2\n      pop\n      pop\n      jump\t// out\n        /* \"#utility.yul\":6781:7110   */\n    tag_56:\n        /* \"#utility.yul\":6840:6846   */\n      0x00\n        /* \"#utility.yul\":6889:6891   */\n      0x20\n        /* \"#utility.yul\":6877:6886   */\n      dup3\n        /* \"#utility.yul\":6868:6875   */\n      dup5\n        /* \"#utility.yul\":6864:6887   */\n      sub\n        /* \"#utility.yul\":6860:6892   */\n      slt\n        /* \"#utility.yul\":6857:6976   */\n      iszero\n      tag_278\n      jumpi\n        /* \"#utility.yul\":6895:6974   */\n      tag_279\n      tag_141\n      jump\t// in\n    tag_279:\n        /* \"#utility.yul\":6857:6976   */\n    tag_278:\n        /* \"#utility.yul\":7015:7016   */\n      0x00\n        /* \"#utility.yul\":7040:7093   */\n      tag_280\n        /* \"#utility.yul\":7085:7092   */\n      dup5\n        /* \"#utility.yul\":7076:7082   */\n      dup3\n        /* \"#utility.yul\":7065:7074   */\n      dup6\n        /* \"#utility.yul\":7061:7083   */\n      add\n        /* \"#utility.yul\":7040:7093   */\n      tag_162\n      jump\t// in\n    tag_280:\n        /* \"#utility.yul\":7030:7093   */\n      swap2\n      pop\n        /* \"#utility.yul\":6986:7103   */\n      pop\n        /* \"#utility.yul\":6781:7110   */\n      swap3\n      swap2\n      pop\n      pop\n      jump\t// out\n        /* \"#utility.yul\":7116:7429   */\n    tag_66:\n        /* \"#utility.yul\":7229:7233   */\n      0x00\n        /* \"#utility.yul\":7267:7269   */\n      0x20\n        /* \"#utility.yul\":7256:7265   */\n      dup3\n        /* \"#utility.yul\":7252:7270   */\n      add\n        /* \"#utility.yul\":7244:7270   */\n      swap1\n      pop\n        /* \"#utility.yul\":7316:7325   */\n      dup2\n        /* \"#utility.yul\":7310:7314   */\n      dup2\n        /* \"#utility.yul\":7306:7326   */\n      sub\n        /* \"#utility.yul\":7302:7303   */\n      0x00\n        /* \"#utility.yul\":7291:7300   */\n      dup4\n        /* \"#utility.yul\":7287:7304   */\n      add\n        /* \"#utility.yul\":7280:7327   */\n      mstore\n        /* \"#utility.yul\":7344:7422   */\n      tag_282\n        /* \"#utility.yul\":7417:7421   */\n      dup2\n        /* \"#utility.yul\":7408:7414   */\n      dup5\n        /* \"#utility.yul\":7344:7422   */\n      tag_151\n      jump\t// in\n    tag_282:\n        /* \"#utility.yul\":7336:7422   */\n      swap1\n      pop\n        /* \"#utility.yul\":7116:7429   */\n      swap3\n      swap2\n      pop\n      pop\n      jump\t// out\n        /* \"#utility.yul\":7435:7602   */\n    tag_166:\n        /* \"#utility.yul\":7575:7594   */\n      0x41756374696f6e2068617320656e646564000000000000000000000000000000\n        /* \"#utility.yul\":7571:7572   */\n      0x00\n        /* \"#utility.yul\":7563:7569   */\n      dup3\n        /* \"#utility.yul\":7559:7573   */\n      add\n        /* \"#utility.yul\":7552:7595   */\n      mstore\n        /* \"#utility.yul\":7435:7602   */\n      pop\n      jump\t// out\n        /* \"#utility.yul\":7608:7974   */\n    tag_167:\n        /* \"#utility.yul\":7750:7753   */\n      0x00\n        /* \"#utility.yul\":7771:7838   */\n      tag_285\n        /* \"#utility.yul\":7835:7837   */\n      0x11\n        /* \"#utility.yul\":7830:7833   */\n      dup4\n        /* \"#utility.yul\":7771:7838   */\n      tag_148\n      jump\t// in\n    tag_285:\n        /* \"#utility.yul\":7764:7838   */\n      swap2\n      pop\n        /* \"#utility.yul\":7847:7940   */\n      tag_286\n        /* \"#utility.yul\":7936:7939   */\n      dup3\n        /* \"#utility.yul\":7847:7940   */\n      tag_166\n      jump\t// in\n    tag_286:\n        /* \"#utility.yul\":7965:7967   */\n      0x20\n        /* \"#utility.yul\":7960:7963   */\n      dup3\n        /* \"#utility.yul\":7956:7968   */\n      add\n        /* \"#utility.yul\":7949:7968   */\n      swap1\n      pop\n        /* \"#utility.yul\":7608:7974   */\n      swap2\n      swap1\n      pop\n      jump\t// out\n        /* \"#utility.yul\":7980:8399   */\n    tag_74:\n        /* \"#utility.yul\":8146:8150   */\n      0x00\n        /* \"#utility.yul\":8184:8186   */\n      0x20\n        /* \"#utility.yul\":8173:8182   */\n      dup3\n        /* \"#utility.yul\":8169:8187   */\n      add\n        /* \"#utility.yul\":8161:8187   */\n      swap1\n      pop\n        /* \"#utility.yul\":8233:8242   */\n      dup2\n        /* \"#utility.yul\":8227:8231   */\n      dup2\n        /* \"#utility.yul\":8223:8243   */\n      sub\n        /* \"#utility.yul\":8219:8220   */\n      0x00\n        /* \"#utility.yul\":8208:8217   */\n      dup4\n        /* \"#utility.yul\":8204:8221   */\n      add\n        /* \"#utility.yul\":8197:8244   */\n      mstore\n        /* \"#utility.yul\":8261:8392   */\n      tag_288\n        /* \"#utility.yul\":8387:8391   */\n      dup2\n        /* \"#utility.yul\":8261:8392   */\n      tag_167\n      jump\t// in\n    tag_288:\n        /* \"#utility.yul\":8253:8392   */\n      swap1\n      pop\n        /* \"#utility.yul\":7980:8399   */\n      swap2\n      swap1\n      pop\n      jump\t// out\n        /* \"#utility.yul\":8405:8644   */\n    tag_168:\n        /* \"#utility.yul\":8545:8579   */\n      0x596f757220626964206d75737420626520686967686572207468616e20746865\n        /* \"#utility.yul\":8541:8542   */\n      0x00\n        /* \"#utility.yul\":8533:8539   */\n      dup3\n        /* \"#utility.yul\":8529:8543   */\n      add\n        /* \"#utility.yul\":8522:8580   */\n      mstore\n        /* \"#utility.yul\":8614:8636   */\n      0x2063757272656e74206869676865737420626964000000000000000000000000\n        /* \"#utility.yul\":8609:8611   */\n      0x20\n        /* \"#utility.yul\":8601:8607   */\n      dup3\n        /* \"#utility.yul\":8597:8612   */\n      add\n        /* \"#utility.yul\":8590:8637   */\n      mstore\n        /* \"#utility.yul\":8405:8644   */\n      pop\n      jump\t// out\n        /* \"#utility.yul\":8650:9016   */\n    tag_169:\n        /* \"#utility.yul\":8792:8795   */\n      0x00\n        /* \"#utility.yul\":8813:8880   */\n      tag_291\n        /* \"#utility.yul\":8877:8879   */\n      0x34\n        /* \"#utility.yul\":8872:8875   */\n      dup4\n        /* \"#utility.yul\":8813:8880   */\n      tag_148\n      jump\t// in\n    tag_291:\n        /* \"#utility.yul\":8806:8880   */\n      swap2\n      pop\n        /* \"#utility.yul\":8889:8982   */\n      tag_292\n        /* \"#utility.yul\":8978:8981   */\n      dup3\n        /* \"#utility.yul\":8889:8982   */\n      tag_168\n      jump\t// in\n    tag_292:\n        /* \"#utility.yul\":9007:9009   */\n      0x40\n        /* \"#utility.yul\":9002:9005   */\n      dup3\n        /* \"#utility.yul\":8998:9010   */\n      add\n        /* \"#utility.yul\":8991:9010   */\n      swap1\n      pop\n        /* \"#utility.yul\":8650:9016   */\n      swap2\n      swap1\n      pop\n      jump\t// out\n        /* \"#utility.yul\":9022:9441   */\n    tag_78:\n        /* \"#utility.yul\":9188:9192   */\n      0x00\n        /* \"#utility.yul\":9226:9228   */\n      0x20\n        /* \"#utility.yul\":9215:9224   */\n      dup3\n        /* \"#utility.yul\":9211:9229   */\n      add\n        /* \"#utility.yul\":9203:9229   */\n      swap1\n      pop\n        /* \"#utility.yul\":9275:9284   */\n      dup2\n        /* \"#utility.yul\":9269:9273   */\n      dup2\n        /* \"#utility.yul\":9265:9285   */\n      sub\n        /* \"#utility.yul\":9261:9262   */\n      0x00\n        /* \"#utility.yul\":9250:9259   */\n      dup4\n        /* \"#utility.yul\":9246:9263   */\n      add\n        /* \"#utility.yul\":9239:9286   */\n      mstore\n        /* \"#utility.yul\":9303:9434   */\n      tag_294\n        /* \"#utility.yul\":9429:9433   */\n      dup2\n        /* \"#utility.yul\":9303:9434   */\n      tag_169\n      jump\t// in\n    tag_294:\n        /* \"#utility.yul\":9295:9434   */\n      swap1\n      pop\n        /* \"#utility.yul\":9022:9441   */\n      swap2\n      swap1\n      pop\n      jump\t// out\n        /* \"#utility.yul\":9447:9594   */\n    tag_170:\n        /* \"#utility.yul\":9548:9559   */\n      0x00\n        /* \"#utility.yul\":9585:9588   */\n      dup2\n        /* \"#utility.yul\":9570:9588   */\n      swap1\n      pop\n        /* \"#utility.yul\":9447:9594   */\n      swap3\n      swap2\n      pop\n      pop\n      jump\t// out\n        /* \"#utility.yul\":9600:9714   */\n    tag_171:\n      pop\n      jump\t// out\n        /* \"#utility.yul\":9720:10118   */\n    tag_172:\n        /* \"#utility.yul\":9879:9882   */\n      0x00\n        /* \"#utility.yul\":9900:9983   */\n      tag_298\n        /* \"#utility.yul\":9981:9982   */\n      0x00\n        /* \"#utility.yul\":9976:9979   */\n      dup4\n        /* \"#utility.yul\":9900:9983   */\n      tag_170\n      jump\t// in\n    tag_298:\n        /* \"#utility.yul\":9893:9983   */\n      swap2\n      pop\n        /* \"#utility.yul\":9992:10085   */\n      tag_299\n        /* \"#utility.yul\":10081:10084   */\n      dup3\n        /* \"#utility.yul\":9992:10085   */\n      tag_171\n      jump\t// in\n    tag_299:\n        /* \"#utility.yul\":10110:10111   */\n      0x00\n        /* \"#utility.yul\":10105:10108   */\n      dup3\n        /* \"#utility.yul\":10101:10112   */\n      add\n        /* \"#utility.yul\":10094:10112   */\n      swap1\n      pop\n        /* \"#utility.yul\":9720:10118   */\n      swap2\n      swap1\n      pop\n      jump\t// out\n        /* \"#utility.yul\":10124:10503   */\n    tag_81:\n        /* \"#utility.yul\":10308:10311   */\n      0x00\n        /* \"#utility.yul\":10330:10477   */\n      tag_301\n        /* \"#utility.yul\":10473:10476   */\n      dup3\n        /* \"#utility.yul\":10330:10477   */\n      tag_172\n      jump\t// in\n    tag_301:\n        /* \"#utility.yul\":10323:10477   */\n      swap2\n      pop\n        /* \"#utility.yul\":10494:10497   */\n      dup2\n        /* \"#utility.yul\":10487:10497   */\n      swap1\n      pop\n        /* \"#utility.yul\":10124:10503   */\n      swap2\n      swap1\n      pop\n      jump\t// out\n        /* \"#utility.yul\":10509:10685   */\n    tag_173:\n        /* \"#utility.yul\":10649:10677   */\n      0x50726576696f75732062696420726566756e64206661696c6564000000000000\n        /* \"#utility.yul\":10645:10646   */\n      0x00\n        /* \"#utility.yul\":10637:10643   */\n      dup3\n        /* \"#utility.yul\":10633:10647   */\n      add\n        /* \"#utility.yul\":10626:10678   */\n      mstore\n        /* \"#utility.yul\":10509:10685   */\n      pop\n      jump\t// out\n        /* \"#utility.yul\":10691:11057   */\n    tag_174:\n        /* \"#utility.yul\":10833:10836   */\n      0x00\n        /* \"#utility.yul\":10854:10921   */\n      tag_304\n        /* \"#utility.yul\":10918:10920   */\n      0x1a\n        /* \"#utility.yul\":10913:10916   */\n      dup4\n        /* \"#utility.yul\":10854:10921   */\n      tag_148\n      jump\t// in\n    tag_304:\n        /* \"#utility.yul\":10847:10921   */\n      swap2\n      pop\n        /* \"#utility.yul\":10930:11023   */\n      tag_305\n        /* \"#utility.yul\":11019:11022   */\n      dup3\n        /* \"#utility.yul\":10930:11023   */\n      tag_173\n      jump\t// in\n    tag_305:\n        /* \"#utility.yul\":11048:11050   */\n      0x20\n        /* \"#utility.yul\":11043:11046   */\n      dup3\n        /* \"#utility.yul\":11039:11051   */\n      add\n        /* \"#utility.yul\":11032:11051   */\n      swap1\n      pop\n        /* \"#utility.yul\":10691:11057   */\n      swap2\n      swap1\n      pop\n      jump\t// out\n        /* \"#utility.yul\":11063:11482   */\n    tag_87:\n        /* \"#utility.yul\":11229:11233   */\n      0x00\n        /* \"#utility.yul\":11267:11269   */\n      0x20\n        /* \"#utility.yul\":11256:11265   */\n      dup3\n        /* \"#utility.yul\":11252:11270   */\n      add\n        /* \"#utility.yul\":11244:11270   */\n      swap1\n      pop\n        /* \"#utility.yul\":11316:11325   */\n      dup2\n        /* \"#utility.yul\":11310:11314   */\n      dup2\n        /* \"#utility.yul\":11306:11326   */\n      sub\n        /* \"#utility.yul\":11302:11303   */\n      0x00\n        /* \"#utility.yul\":11291:11300   */\n      dup4\n        /* \"#utility.yul\":11287:11304   */\n      add\n        /* \"#utility.yul\":11280:11327   */\n      mstore\n        /* \"#utility.yul\":11344:11475   */\n      tag_307\n        /* \"#utility.yul\":11470:11474   */\n      dup2\n        /* \"#utility.yul\":11344:11475   */\n      tag_174\n      jump\t// in\n    tag_307:\n        /* \"#utility.yul\":11336:11475   */\n      swap1\n      pop\n        /* \"#utility.yul\":11063:11482   */\n      swap2\n      swap1\n      pop\n      jump\t// out\n        /* \"#utility.yul\":11488:11668   */\n    tag_175:\n        /* \"#utility.yul\":11536:11613   */\n      0x4e487b7100000000000000000000000000000000000000000000000000000000\n        /* \"#utility.yul\":11533:11534   */\n      0x00\n        /* \"#utility.yul\":11526:11614   */\n      mstore\n        /* \"#utility.yul\":11633:11637   */\n      0x22\n        /* \"#utility.yul\":11630:11631   */\n      0x04\n        /* \"#utility.yul\":11623:11638   */\n      mstore\n        /* \"#utility.yul\":11657:11661   */\n      0x24\n        /* \"#utility.yul\":11654:11655   */\n      0x00\n        /* \"#utility.yul\":11647:11662   */\n      revert\n        /* \"#utility.yul\":11674:11994   */\n    tag_91:\n        /* \"#utility.yul\":11718:11724   */\n      0x00\n        /* \"#utility.yul\":11755:11756   */\n      0x02\n        /* \"#utility.yul\":11749:11753   */\n      dup3\n        /* \"#utility.yul\":11745:11757   */\n      div\n        /* \"#utility.yul\":11735:11757   */\n      swap1\n      pop\n        /* \"#utility.yul\":11802:11803   */\n      0x01\n        /* \"#utility.yul\":11796:11800   */\n      dup3\n        /* \"#utility.yul\":11792:11804   */\n      and\n        /* \"#utility.yul\":11823:11841   */\n      dup1\n        /* \"#utility.yul\":11813:11894   */\n      tag_310\n      jumpi\n        /* \"#utility.yul\":11879:11883   */\n      0x7f\n        /* \"#utility.yul\":11871:11877   */\n      dup3\n        /* \"#utility.yul\":11867:11884   */\n      and\n        /* \"#utility.yul\":11857:11884   */\n      swap2\n      pop\n        /* \"#utility.yul\":11813:11894   */\n    tag_310:\n        /* \"#utility.yul\":11941:11943   */\n      0x20\n        /* \"#utility.yul\":11933:11939   */\n      dup3\n        /* \"#utility.yul\":11930:11944   */\n      lt\n        /* \"#utility.yul\":11910:11928   */\n      dup2\n        /* \"#utility.yul\":11907:11945   */\n      sub\n        /* \"#utility.yul\":11904:11988   */\n      tag_311\n      jumpi\n        /* \"#utility.yul\":11960:11978   */\n      tag_312\n      tag_175\n      jump\t// in\n    tag_312:\n        /* \"#utility.yul\":11904:11988   */\n    tag_311:\n        /* \"#utility.yul\":11725:11994   */\n      pop\n        /* \"#utility.yul\":11674:11994   */\n      swap2\n      swap1\n      pop\n      jump\t// out\n        /* \"#utility.yul\":12000:12171   */\n    tag_176:\n        /* \"#utility.yul\":12140:12163   */\n      0x596f7520617265206e6f7420746865206f776e65720000000000000000000000\n        /* \"#utility.yul\":12136:12137   */\n      0x00\n        /* \"#utility.yul\":12128:12134   */\n      dup3\n        /* \"#utility.yul\":12124:12138   */\n      add\n        /* \"#utility.yul\":12117:12164   */\n      mstore\n        /* \"#utility.yul\":12000:12171   */\n      pop\n      jump\t// out\n        /* \"#utility.yul\":12177:12543   */\n    tag_177:\n        /* \"#utility.yul\":12319:12322   */\n      0x00\n        /* \"#utility.yul\":12340:12407   */\n      tag_315\n        /* \"#utility.yul\":12404:12406   */\n      0x15\n        /* \"#utility.yul\":12399:12402   */\n      dup4\n        /* \"#utility.yul\":12340:12407   */\n      tag_148\n      jump\t// in\n    tag_315:\n        /* \"#utility.yul\":12333:12407   */\n      swap2\n      pop\n        /* \"#utility.yul\":12416:12509   */\n      tag_316\n        /* \"#utility.yul\":12505:12508   */\n      dup3\n        /* \"#utility.yul\":12416:12509   */\n      tag_176\n      jump\t// in\n    tag_316:\n        /* \"#utility.yul\":12534:12536   */\n      0x20\n        /* \"#utility.yul\":12529:12532   */\n      dup3\n        /* \"#utility.yul\":12525:12537   */\n      add\n        /* \"#utility.yul\":12518:12537   */\n      swap1\n      pop\n        /* \"#utility.yul\":12177:12543   */\n      swap2\n      swap1\n      pop\n      jump\t// out\n        /* \"#utility.yul\":12549:12968   */\n    tag_99:\n        /* \"#utility.yul\":12715:12719   */\n      0x00\n        /* \"#utility.yul\":12753:12755   */\n      0x20\n        /* \"#utility.yul\":12742:12751   */\n      dup3\n        /* \"#utility.yul\":12738:12756   */\n      add\n        /* \"#utility.yul\":12730:12756   */\n      swap1\n      pop\n        /* \"#utility.yul\":12802:12811   */\n      dup2\n        /* \"#utility.yul\":12796:12800   */\n      dup2\n        /* \"#utility.yul\":12792:12812   */\n      sub\n        /* \"#utility.yul\":12788:12789   */\n      0x00\n        /* \"#utility.yul\":12777:12786   */\n      dup4\n        /* \"#utility.yul\":12773:12790   */\n      add\n        /* \"#utility.yul\":12766:12813   */\n      mstore\n        /* \"#utility.yul\":12830:12961   */\n      tag_318\n        /* \"#utility.yul\":12956:12960   */\n      dup2\n        /* \"#utility.yul\":12830:12961   */\n      tag_177\n      jump\t// in\n    tag_318:\n        /* \"#utility.yul\":12822:12961   */\n      swap1\n      pop\n        /* \"#utility.yul\":12549:12968   */\n      swap2\n      swap1\n      pop\n      jump\t// out\n        /* \"#utility.yul\":12974:13115   */\n    tag_178:\n        /* \"#utility.yul\":13023:13027   */\n      0x00\n        /* \"#utility.yul\":13046:13049   */\n      dup2\n        /* \"#utility.yul\":13038:13049   */\n      swap1\n      pop\n        /* \"#utility.yul\":13069:13072   */\n      dup2\n        /* \"#utility.yul\":13066:13067   */\n      0x00\n        /* \"#utility.yul\":13059:13073   */\n      mstore\n        /* \"#utility.yul\":13103:13107   */\n      0x20\n        /* \"#utility.yul\":13100:13101   */\n      0x00\n        /* \"#utility.yul\":13090:13108   */\n      keccak256\n        /* \"#utility.yul\":13082:13108   */\n      swap1\n      pop\n        /* \"#utility.yul\":12974:13115   */\n      swap2\n      swap1\n      pop\n      jump\t// out\n        /* \"#utility.yul\":13121:13214   */\n    tag_179:\n        /* \"#utility.yul\":13158:13164   */\n      0x00\n        /* \"#utility.yul\":13205:13207   */\n      0x20\n        /* \"#utility.yul\":13200:13202   */\n      0x1f\n        /* \"#utility.yul\":13193:13198   */\n      dup4\n        /* \"#utility.yul\":13189:13203   */\n      add\n        /* \"#utility.yul\":13185:13208   */\n      div\n        /* \"#utility.yul\":13175:13208   */\n      swap1\n      pop\n        /* \"#utility.yul\":13121:13214   */\n      swap2\n      swap1\n      pop\n      jump\t// out\n        /* \"#utility.yul\":13220:13327   */\n    tag_180:\n        /* \"#utility.yul\":13264:13272   */\n      0x00\n        /* \"#utility.yul\":13314:13319   */\n      dup3\n        /* \"#utility.yul\":13308:13312   */\n      dup3\n        /* \"#utility.yul\":13304:13320   */\n      shl\n        /* \"#utility.yul\":13283:13320   */\n      swap1\n      pop\n        /* \"#utility.yul\":13220:13327   */\n      swap3\n      swap2\n      pop\n      pop\n      jump\t// out\n        /* \"#utility.yul\":13333:13726   */\n    tag_181:\n        /* \"#utility.yul\":13402:13408   */\n      0x00\n        /* \"#utility.yul\":13452:13453   */\n      0x08\n        /* \"#utility.yul\":13440:13450   */\n      dup4\n        /* \"#utility.yul\":13436:13454   */\n      mul\n        /* \"#utility.yul\":13475:13572   */\n      tag_323\n        /* \"#utility.yul\":13505:13571   */\n      0xffffffffffffffffffffffffffffffffffffffffffffffffffffffffffffffff\n        /* \"#utility.yul\":13494:13503   */\n      dup3\n        /* \"#utility.yul\":13475:13572   */\n      tag_180\n      jump\t// in\n    tag_323:\n        /* \"#utility.yul\":13593:13632   */\n      tag_324\n        /* \"#utility.yul\":13623:13631   */\n      dup7\n        /* \"#utility.yul\":13612:13621   */\n      dup4\n        /* \"#utility.yul\":13593:13632   */\n      tag_180\n      jump\t// in\n    tag_324:\n        /* \"#utility.yul\":13581:13632   */\n      swap6\n      pop\n        /* \"#utility.yul\":13665:13669   */\n      dup1\n        /* \"#utility.yul\":13661:13670   */\n      not\n        /* \"#utility.yul\":13654:13659   */\n      dup5\n        /* \"#utility.yul\":13650:13671   */\n      and\n        /* \"#utility.yul\":13641:13671   */\n      swap4\n      pop\n        /* \"#utility.yul\":13714:13718   */\n      dup1\n        /* \"#utility.yul\":13704:13712   */\n      dup7\n        /* \"#utility.yul\":13700:13719   */\n      and\n        /* \"#utility.yul\":13693:13698   */\n      dup5\n        /* \"#utility.yul\":13690:13720   */\n      or\n        /* \"#utility.yul\":13680:13720   */\n      swap3\n      pop\n        /* \"#utility.yul\":13409:13726   */\n      pop\n      pop\n        /* \"#utility.yul\":13333:13726   */\n      swap4\n      swap3\n      pop\n      pop\n      pop\n      jump\t// out\n        /* \"#utility.yul\":13732:13792   */\n    tag_182:\n        /* \"#utility.yul\":13760:13763   */\n      0x00\n        /* \"#utility.yul\":13781:13786   */\n      dup2\n        /* \"#utility.yul\":13774:13786   */\n      swap1\n      pop\n        /* \"#utility.yul\":13732:13792   */\n      swap2\n      swap1\n      pop\n      jump\t// out\n        /* \"#utility.yul\":13798:13940   */\n    tag_183:\n        /* \"#utility.yul\":13848:13857   */\n      0x00\n        /* \"#utility.yul\":13881:13934   */\n      tag_327\n        /* \"#utility.yul\":13899:13933   */\n      tag_328\n        /* \"#utility.yul\":13908:13932   */\n      tag_329\n        /* \"#utility.yul\":13926:13931   */\n      dup5\n        /* \"#utility.yul\":13908:13932   */\n      tag_138\n      jump\t// in\n    tag_329:\n        /* \"#utility.yul\":13899:13933   */\n      tag_182\n      jump\t// in\n    tag_328:\n        /* \"#utility.yul\":13881:13934   */\n      tag_138\n      jump\t// in\n    tag_327:\n        /* \"#utility.yul\":13868:13934   */\n      swap1\n      pop\n        /* \"#utility.yul\":13798:13940   */\n      swap2\n      swap1\n      pop\n      jump\t// out\n        /* \"#utility.yul\":13946:14021   */\n    tag_184:\n        /* \"#utility.yul\":13989:13992   */\n      0x00\n        /* \"#utility.yul\":14010:14015   */\n      dup2\n        /* \"#utility.yul\":14003:14015   */\n      swap1\n      pop\n        /* \"#utility.yul\":13946:14021   */\n      swap2\n      swap1\n      pop\n      jump\t// out\n        /* \"#utility.yul\":14027:14296   */\n    tag_185:\n        /* \"#utility.yul\":14137:14176   */\n      tag_332\n        /* \"#utility.yul\":14168:14175   */\n      dup4\n        /* \"#utility.yul\":14137:14176   */\n      tag_183\n      jump\t// in\n    tag_332:\n        /* \"#utility.yul\":14198:14289   */\n      tag_333\n        /* \"#utility.yul\":14247:14288   */\n      tag_334\n        /* \"#utility.yul\":14271:14287   */\n      dup3\n        /* \"#utility.yul\":14247:14288   */\n      tag_184\n      jump\t// in\n    tag_334:\n        /* \"#utility.yul\":14239:14245   */\n      dup5\n        /* \"#utility.yul\":14232:14236   */\n      dup5\n        /* \"#utility.yul\":14226:14237   */\n      sload\n        /* \"#utility.yul\":14198:14289   */\n      tag_181\n      jump\t// in\n    tag_333:\n        /* \"#utility.yul\":14192:14196   */\n      dup3\n        /* \"#utility.yul\":14185:14290   */\n      sstore\n        /* \"#utility.yul\":14103:14296   */\n      pop\n        /* \"#utility.yul\":14027:14296   */\n      pop\n      pop\n      pop\n      jump\t// out\n        /* \"#utility.yul\":14302:14375   */\n    tag_186:\n        /* \"#utility.yul\":14347:14350   */\n      0x00\n        /* \"#utility.yul\":14368:14369   */\n      0x00\n        /* \"#utility.yul\":14361:14369   */\n      swap1\n      pop\n        /* \"#utility.yul\":14302:14375   */\n      swap1\n      jump\t// out\n        /* \"#utility.yul\":14381:14570   */\n    tag_187:\n        /* \"#utility.yul\":14458:14490   */\n      tag_337\n      tag_186\n      jump\t// in\n    tag_337:\n        /* \"#utility.yul\":14499:14564   */\n      tag_338\n        /* \"#utility.yul\":14557:14563   */\n      dup2\n        /* \"#utility.yul\":14549:14555   */\n      dup5\n        /* \"#utility.yul\":14543:14547   */\n      dup5\n        /* \"#utility.yul\":14499:14564   */\n      tag_185\n      jump\t// in\n    tag_338:\n        /* \"#utility.yul\":14434:14570   */\n      pop\n        /* \"#utility.yul\":14381:14570   */\n      pop\n      pop\n      jump\t// out\n        /* \"#utility.yul\":14576:14762   */\n    tag_188:\n        /* \"#utility.yul\":14636:14756   */\n    tag_340:\n        /* \"#utility.yul\":14653:14656   */\n      dup2\n        /* \"#utility.yul\":14646:14651   */\n      dup2\n        /* \"#utility.yul\":14643:14657   */\n      lt\n        /* \"#utility.yul\":14636:14756   */\n      iszero\n      tag_342\n      jumpi\n        /* \"#utility.yul\":14707:14746   */\n      tag_343\n        /* \"#utility.yul\":14744:14745   */\n      0x00\n        /* \"#utility.yul\":14737:14742   */\n      dup3\n        /* \"#utility.yul\":14707:14746   */\n      tag_187\n      jump\t// in\n    tag_343:\n        /* \"#utility.yul\":14680:14681   */\n      0x01\n        /* \"#utility.yul\":14673:14678   */\n      dup2\n        /* \"#utility.yul\":14669:14682   */\n      add\n        /* \"#utility.yul\":14660:14682   */\n      swap1\n      pop\n        /* \"#utility.yul\":14636:14756   */\n      jump(tag_340)\n    tag_342:\n        /* \"#utility.yul\":14576:14762   */\n      pop\n      pop\n      jump\t// out\n        /* \"#utility.yul\":14768:15311   */\n    tag_189:\n        /* \"#utility.yul\":14869:14871   */\n      0x1f\n        /* \"#utility.yul\":14864:14867   */\n      dup3\n        /* \"#utility.yul\":14861:14872   */\n      gt\n        /* \"#utility.yul\":14858:15304   */\n      iszero\n      tag_345\n      jumpi\n        /* \"#utility.yul\":14903:14941   */\n      tag_346\n        /* \"#utility.yul\":14935:14940   */\n      dup2\n        /* \"#utility.yul\":14903:14941   */\n      tag_178\n      jump\t// in\n    tag_346:\n        /* \"#utility.yul\":14987:15016   */\n      tag_347\n        /* \"#utility.yul\":15005:15015   */\n      dup5\n        /* \"#utility.yul\":14987:15016   */\n      tag_179\n      jump\t// in\n    tag_347:\n        /* \"#utility.yul\":14977:14985   */\n      dup2\n        /* \"#utility.yul\":14973:15017   */\n      add\n        /* \"#utility.yul\":15170:15172   */\n      0x20\n        /* \"#utility.yul\":15158:15168   */\n      dup6\n        /* \"#utility.yul\":15155:15173   */\n      lt\n        /* \"#utility.yul\":15152:15201   */\n      iszero\n      tag_348\n      jumpi\n        /* \"#utility.yul\":15191:15199   */\n      dup2\n        /* \"#utility.yul\":15176:15199   */\n      swap1\n      pop\n        /* \"#utility.yul\":15152:15201   */\n    tag_348:\n        /* \"#utility.yul\":15214:15294   */\n      tag_349\n        /* \"#utility.yul\":15270:15292   */\n      tag_350\n        /* \"#utility.yul\":15288:15291   */\n      dup6\n        /* \"#utility.yul\":15270:15292   */\n      tag_179\n      jump\t// in\n    tag_350:\n        /* \"#utility.yul\":15260:15268   */\n      dup4\n        /* \"#utility.yul\":15256:15293   */\n      add\n        /* \"#utility.yul\":15243:15254   */\n      dup3\n        /* \"#utility.yul\":15214:15294   */\n      tag_188\n      jump\t// in\n    tag_349:\n        /* \"#utility.yul\":14873:15304   */\n      pop\n      pop\n        /* \"#utility.yul\":14858:15304   */\n    tag_345:\n        /* \"#utility.yul\":14768:15311   */\n      pop\n      pop\n      pop\n      jump\t// out\n        /* \"#utility.yul\":15317:15434   */\n    tag_190:\n        /* \"#utility.yul\":15371:15379   */\n      0x00\n        /* \"#utility.yul\":15421:15426   */\n      dup3\n        /* \"#utility.yul\":15415:15419   */\n      dup3\n        /* \"#utility.yul\":15411:15427   */\n      shr\n        /* \"#utility.yul\":15390:15427   */\n      swap1\n      pop\n        /* \"#utility.yul\":15317:15434   */\n      swap3\n      swap2\n      pop\n      pop\n      jump\t// out\n        /* \"#utility.yul\":15440:15609   */\n    tag_191:\n        /* \"#utility.yul\":15484:15490   */\n      0x00\n        /* \"#utility.yul\":15517:15568   */\n      tag_353\n        /* \"#utility.yul\":15565:15566   */\n      0x00\n        /* \"#utility.yul\":15561:15567   */\n      not\n        /* \"#utility.yul\":15553:15558   */\n      dup5\n        /* \"#utility.yul\":15550:15551   */\n      0x08\n        /* \"#utility.yul\":15546:15559   */\n      mul\n        /* \"#utility.yul\":15517:15568   */\n      tag_190\n      jump\t// in\n    tag_353:\n        /* \"#utility.yul\":15513:15569   */\n      not\n        /* \"#utility.yul\":15598:15602   */\n      dup1\n        /* \"#utility.yul\":15592:15596   */\n      dup4\n        /* \"#utility.yul\":15588:15603   */\n      and\n        /* \"#utility.yul\":15578:15603   */\n      swap2\n      pop\n        /* \"#utility.yul\":15491:15609   */\n      pop\n        /* \"#utility.yul\":15440:15609   */\n      swap3\n      swap2\n      pop\n      pop\n      jump\t// out\n        /* \"#utility.yul\":15614:15909   */\n    tag_192:\n        /* \"#utility.yul\":15690:15694   */\n      0x00\n        /* \"#utility.yul\":15836:15865   */\n      tag_355\n        /* \"#utility.yul\":15861:15864   */\n      dup4\n        /* \"#utility.yul\":15855:15859   */\n      dup4\n        /* \"#utility.yul\":15836:15865   */\n      tag_191\n      jump\t// in\n    tag_355:\n        /* \"#utility.yul\":15828:15865   */\n      swap2\n      pop\n        /* \"#utility.yul\":15898:15901   */\n      dup3\n        /* \"#utility.yul\":15895:15896   */\n      0x02\n        /* \"#utility.yul\":15891:15902   */\n      mul\n        /* \"#utility.yul\":15885:15889   */\n      dup3\n        /* \"#utility.yul\":15882:15903   */\n      or\n        /* \"#utility.yul\":15874:15903   */\n      swap1\n      pop\n        /* \"#utility.yul\":15614:15909   */\n      swap3\n      swap2\n      pop\n      pop\n      jump\t// out\n        /* \"#utility.yul\":15914:17309   */\n    tag_102:\n        /* \"#utility.yul\":16031:16068   */\n      tag_357\n        /* \"#utility.yul\":16064:16067   */\n      dup3\n        /* \"#utility.yul\":16031:16068   */\n      tag_147\n      jump\t// in\n    tag_357:\n        /* \"#utility.yul\":16133:16151   */\n      0xffffffffffffffff\n        /* \"#utility.yul\":16125:16131   */\n      dup2\n        /* \"#utility.yul\":16122:16152   */\n      gt\n        /* \"#utility.yul\":16119:16175   */\n      iszero\n      tag_358\n      jumpi\n        /* \"#utility.yul\":16155:16173   */\n      tag_359\n      tag_154\n      jump\t// in\n    tag_359:\n        /* \"#utility.yul\":16119:16175   */\n    tag_358:\n        /* \"#utility.yul\":16199:16237   */\n      tag_360\n        /* \"#utility.yul\":16231:16235   */\n      dup3\n        /* \"#utility.yul\":16225:16236   */\n      sload\n        /* \"#utility.yul\":16199:16237   */\n      tag_91\n      jump\t// in\n    tag_360:\n        /* \"#utility.yul\":16284:16351   */\n      tag_361\n        /* \"#utility.yul\":16344:16350   */\n      dup3\n        /* \"#utility.yul\":16336:16342   */\n      dup3\n        /* \"#utility.yul\":16330:16334   */\n      dup6\n        /* \"#utility.yul\":16284:16351   */\n      tag_189\n      jump\t// in\n    tag_361:\n        /* \"#utility.yul\":16378:16379   */\n      0x00\n        /* \"#utility.yul\":16402:16406   */\n      0x20\n        /* \"#utility.yul\":16389:16406   */\n      swap1\n      pop\n        /* \"#utility.yul\":16434:16436   */\n      0x1f\n        /* \"#utility.yul\":16426:16432   */\n      dup4\n        /* \"#utility.yul\":16423:16437   */\n      gt\n        /* \"#utility.yul\":16451:16452   */\n      0x01\n        /* \"#utility.yul\":16446:17064   */\n      dup2\n      eq\n      tag_363\n      jumpi\n        /* \"#utility.yul\":17108:17109   */\n      0x00\n        /* \"#utility.yul\":17125:17131   */\n      dup5\n        /* \"#utility.yul\":17122:17199   */\n      iszero\n      tag_364\n      jumpi\n        /* \"#utility.yul\":17174:17183   */\n      dup3\n        /* \"#utility.yul\":17169:17172   */\n      dup8\n        /* \"#utility.yul\":17165:17184   */\n      add\n        /* \"#utility.yul\":17159:17185   */\n      mload\n        /* \"#utility.yul\":17150:17185   */\n      swap1\n      pop\n        /* \"#utility.yul\":17122:17199   */\n    tag_364:\n        /* \"#utility.yul\":17225:17292   */\n      tag_365\n        /* \"#utility.yul\":17285:17291   */\n      dup6\n        /* \"#utility.yul\":17278:17283   */\n      dup3\n        /* \"#utility.yul\":17225:17292   */\n      tag_192\n      jump\t// in\n    tag_365:\n        /* \"#utility.yul\":17219:17223   */\n      dup7\n        /* \"#utility.yul\":17212:17293   */\n      sstore\n        /* \"#utility.yul\":17081:17303   */\n      pop\n        /* \"#utility.yul\":16416:17303   */\n      jump(tag_362)\n        /* \"#utility.yul\":16446:17064   */\n    tag_363:\n        /* \"#utility.yul\":16498:16502   */\n      0x1f\n        /* \"#utility.yul\":16494:16503   */\n      not\n        /* \"#utility.yul\":16486:16492   */\n      dup5\n        /* \"#utility.yul\":16482:16504   */\n      and\n        /* \"#utility.yul\":16532:16569   */\n      tag_366\n        /* \"#utility.yul\":16564:16568   */\n      dup7\n        /* \"#utility.yul\":16532:16569   */\n      tag_178\n      jump\t// in\n    tag_366:\n        /* \"#utility.yul\":16591:16592   */\n      0x00\n        /* \"#utility.yul\":16605:16813   */\n    tag_367:\n        /* \"#utility.yul\":16619:16626   */\n      dup3\n        /* \"#utility.yul\":16616:16617   */\n      dup2\n        /* \"#utility.yul\":16613:16627   */\n      lt\n        /* \"#utility.yul\":16605:16813   */\n      iszero\n      tag_369\n      jumpi\n        /* \"#utility.yul\":16698:16707   */\n      dup5\n        /* \"#utility.yul\":16693:16696   */\n      dup10\n        /* \"#utility.yul\":16689:16708   */\n      add\n        /* \"#utility.yul\":16683:16709   */\n      mload\n        /* \"#utility.yul\":16675:16681   */\n      dup3\n        /* \"#utility.yul\":16668:16710   */\n      sstore\n        /* \"#utility.yul\":16749:16750   */\n      0x01\n        /* \"#utility.yul\":16741:16747   */\n      dup3\n        /* \"#utility.yul\":16737:16751   */\n      add\n        /* \"#utility.yul\":16727:16751   */\n      swap2\n      pop\n        /* \"#utility.yul\":16796:16798   */\n      0x20\n        /* \"#utility.yul\":16785:16794   */\n      dup6\n        /* \"#utility.yul\":16781:16799   */\n      add\n        /* \"#utility.yul\":16768:16799   */\n      swap5\n      pop\n        /* \"#utility.yul\":16642:16646   */\n      0x20\n        /* \"#utility.yul\":16639:16640   */\n      dup2\n        /* \"#utility.yul\":16635:16647   */\n      add\n        /* \"#utility.yul\":16630:16647   */\n      swap1\n      pop\n        /* \"#utility.yul\":16605:16813   */\n      jump(tag_367)\n    tag_369:\n        /* \"#utility.yul\":16841:16847   */\n      dup7\n        /* \"#utility.yul\":16832:16839   */\n      dup4\n        /* \"#utility.yul\":16829:16848   */\n      lt\n        /* \"#utility.yul\":16826:17005   */\n      iszero\n      tag_370\n      jumpi\n        /* \"#utility.yul\":16899:16908   */\n      dup5\n        /* \"#utility.yul\":16894:16897   */\n      dup10\n        /* \"#utility.yul\":16890:16909   */\n      add\n        /* \"#utility.yul\":16884:16910   */\n      mload\n        /* \"#utility.yul\":16942:16990   */\n      tag_371\n        /* \"#utility.yul\":16984:16988   */\n      0x1f\n        /* \"#utility.yul\":16976:16982   */\n      dup10\n        /* \"#utility.yul\":16972:16989   */\n      and\n        /* \"#utility.yul\":16961:16970   */\n      dup3\n        /* \"#utility.yul\":16942:16990   */\n      tag_191\n      jump\t// in\n    tag_371:\n        /* \"#utility.yul\":16934:16940   */\n      dup4\n        /* \"#utility.yul\":16927:16991   */\n      sstore\n        /* \"#utility.yul\":16849:17005   */\n      pop\n        /* \"#utility.yul\":16826:17005   */\n    tag_370:\n        /* \"#utility.yul\":17051:17052   */\n      0x01\n        /* \"#utility.yul\":17047:17048   */\n      0x02\n        /* \"#utility.yul\":17039:17045   */\n      dup9\n        /* \"#utility.yul\":17035:17049   */\n      mul\n        /* \"#utility.yul\":17031:17053   */\n      add\n        /* \"#utility.yul\":17025:17029   */\n      dup9\n        /* \"#utility.yul\":17018:17054   */\n      sstore\n        /* \"#utility.yul\":16453:17064   */\n      pop\n      pop\n      pop\n        /* \"#utility.yul\":16416:17303   */\n    tag_362:\n      pop\n        /* \"#utility.yul\":16006:17309   */\n      pop\n      pop\n      pop\n        /* \"#utility.yul\":15914:17309   */\n      pop\n      pop\n      jump\t// out\n        /* \"#utility.yul\":17315:17490   */\n    tag_193:\n        /* \"#utility.yul\":17455:17482   */\n      0x41756374696f6e2068617320616c726561647920656e64656400000000000000\n        /* \"#utility.yul\":17451:17452   */\n      0x00\n        /* \"#utility.yul\":17443:17449   */\n      dup3\n        /* \"#utility.yul\":17439:17453   */\n      add\n        /* \"#utility.yul\":17432:17483   */\n      mstore\n        /* \"#utility.yul\":17315:17490   */\n      pop\n      jump\t// out\n        /* \"#utility.yul\":17496:17862   */\n    tag_194:\n        /* \"#utility.yul\":17638:17641   */\n      0x00\n        /* \"#utility.yul\":17659:17726   */\n      tag_374\n        /* \"#utility.yul\":17723:17725   */\n      0x19\n        /* \"#utility.yul\":17718:17721   */\n      dup4\n        /* \"#utility.yul\":17659:17726   */\n      tag_148\n      jump\t// in\n    tag_374:\n        /* \"#utility.yul\":17652:17726   */\n      swap2\n      pop\n        /* \"#utility.yul\":17735:17828   */\n      tag_375\n        /* \"#utility.yul\":17824:17827   */\n      dup3\n        /* \"#utility.yul\":17735:17828   */\n      tag_193\n      jump\t// in\n    tag_375:\n        /* \"#utility.yul\":17853:17855   */\n      0x20\n        /* \"#utility.yul\":17848:17851   */\n      dup3\n        /* \"#utility.yul\":17844:17856   */\n      add\n        /* \"#utility.yul\":17837:17856   */\n      swap1\n      pop\n        /* \"#utility.yul\":17496:17862   */\n      swap2\n      swap1\n      pop\n      jump\t// out\n        /* \"#utility.yul\":17868:18287   */\n    tag_116:\n        /* \"#utility.yul\":18034:18038   */\n      0x00\n        /* \"#utility.yul\":18072:18074   */\n      0x20\n        /* \"#utility.yul\":18061:18070   */\n      dup3\n        /* \"#utility.yul\":18057:18075   */\n      add\n        /* \"#utility.yul\":18049:18075   */\n      swap1\n      pop\n        /* \"#utility.yul\":18121:18130   */\n      dup2\n        /* \"#utility.yul\":18115:18119   */\n      dup2\n        /* \"#utility.yul\":18111:18131   */\n      sub\n        /* \"#utility.yul\":18107:18108   */\n      0x00\n        /* \"#utility.yul\":18096:18105   */\n      dup4\n        /* \"#utility.yul\":18092:18109   */\n      add\n        /* \"#utility.yul\":18085:18132   */\n      mstore\n        /* \"#utility.yul\":18149:18280   */\n      tag_377\n        /* \"#utility.yul\":18275:18279   */\n      dup2\n        /* \"#utility.yul\":18149:18280   */\n      tag_194\n      jump\t// in\n    tag_377:\n        /* \"#utility.yul\":18141:18280   */\n      swap1\n      pop\n        /* \"#utility.yul\":17868:18287   */\n      swap2\n      swap1\n      pop\n      jump\t// out\n        /* \"#utility.yul\":18293:18473   */\n    tag_195:\n        /* \"#utility.yul\":18341:18418   */\n      0x4e487b7100000000000000000000000000000000000000000000000000000000\n        /* \"#utility.yul\":18338:18339   */\n      0x00\n        /* \"#utility.yul\":18331:18419   */\n      mstore\n        /* \"#utility.yul\":18438:18442   */\n      0x11\n        /* \"#utility.yul\":18435:18436   */\n      0x04\n        /* \"#utility.yul\":18428:18443   */\n      mstore\n        /* \"#utility.yul\":18462:18466   */\n      0x24\n        /* \"#utility.yul\":18459:18460   */\n      0x00\n        /* \"#utility.yul\":18452:18467   */\n      revert\n        /* \"#utility.yul\":18479:18670   */\n    tag_118:\n        /* \"#utility.yul\":18519:18522   */\n      0x00\n        /* \"#utility.yul\":18538:18558   */\n      tag_380\n        /* \"#utility.yul\":18556:18557   */\n      dup3\n        /* \"#utility.yul\":18538:18558   */\n      tag_138\n      jump\t// in\n    tag_380:\n        /* \"#utility.yul\":18533:18558   */\n      swap2\n      pop\n        /* \"#utility.yul\":18572:18592   */\n      tag_381\n        /* \"#utility.yul\":18590:18591   */\n      dup4\n        /* \"#utility.yul\":18572:18592   */\n      tag_138\n      jump\t// in\n    tag_381:\n        /* \"#utility.yul\":18567:18592   */\n      swap3\n      pop\n        /* \"#utility.yul\":18615:18616   */\n      dup3\n        /* \"#utility.yul\":18612:18613   */\n      dup3\n        /* \"#utility.yul\":18608:18617   */\n      add\n        /* \"#utility.yul\":18601:18617   */\n      swap1\n      pop\n        /* \"#utility.yul\":18636:18639   */\n      dup1\n        /* \"#utility.yul\":18633:18634   */\n      dup3\n        /* \"#utility.yul\":18630:18640   */\n      gt\n        /* \"#utility.yul\":18627:18663   */\n      iszero\n      tag_382\n      jumpi\n        /* \"#utility.yul\":18643:18661   */\n      tag_383\n      tag_195\n      jump\t// in\n    tag_383:\n        /* \"#utility.yul\":18627:18663   */\n    tag_382:\n        /* \"#utility.yul\":18479:18670   */\n      swap3\n      swap2\n      pop\n      pop\n      jump\t// out\n        /* \"#utility.yul\":18676:18850   */\n    tag_196:\n        /* \"#utility.yul\":18816:18842   */\n      0x41756374696f6e206973207374696c6c206f6e676f696e670000000000000000\n        /* \"#utility.yul\":18812:18813   */\n      0x00\n        /* \"#utility.yul\":18804:18810   */\n      dup3\n        /* \"#utility.yul\":18800:18814   */\n      add\n        /* \"#utility.yul\":18793:18843   */\n      mstore\n        /* \"#utility.yul\":18676:18850   */\n      pop\n      jump\t// out\n        /* \"#utility.yul\":18856:19222   */\n    tag_197:\n        /* \"#utility.yul\":18998:19001   */\n      0x00\n        /* \"#utility.yul\":19019:19086   */\n      tag_386\n        /* \"#utility.yul\":19083:19085   */\n      0x18\n        /* \"#utility.yul\":19078:19081   */\n      dup4\n        /* \"#utility.yul\":19019:19086   */\n      tag_148\n      jump\t// in\n    tag_386:\n        /* \"#utility.yul\":19012:19086   */\n      swap2\n      pop\n        /* \"#utility.yul\":19095:19188   */\n      tag_387\n        /* \"#utility.yul\":19184:19187   */\n      dup3\n        /* \"#utility.yul\":19095:19188   */\n      tag_196\n      jump\t// in\n    tag_387:\n        /* \"#utility.yul\":19213:19215   */\n      0x20\n        /* \"#utility.yul\":19208:19211   */\n      dup3\n        /* \"#utility.yul\":19204:19216   */\n      add\n        /* \"#utility.yul\":19197:19216   */\n      swap1\n      pop\n        /* \"#utility.yul\":18856:19222   */\n      swap2\n      swap1\n      pop\n      jump\t// out\n        /* \"#utility.yul\":19228:19647   */\n    tag_131:\n        /* \"#utility.yul\":19394:19398   */\n      0x00\n        /* \"#utility.yul\":19432:19434   */\n      0x20\n        /* \"#utility.yul\":19421:19430   */\n      dup3\n        /* \"#utility.yul\":19417:19435   */\n      add\n        /* \"#utility.yul\":19409:19435   */\n      swap1\n      pop\n        /* \"#utility.yul\":19481:19490   */\n      dup2\n        /* \"#utility.yul\":19475:19479   */\n      dup2\n        /* \"#utility.yul\":19471:19491   */\n      sub\n        /* \"#utility.yul\":19467:19468   */\n      0x00\n        /* \"#utility.yul\":19456:19465   */\n      dup4\n        /* \"#utility.yul\":19452:19469   */\n      add\n        /* \"#utility.yul\":19445:19492   */\n      mstore\n        /* \"#utility.yul\":19509:19640   */\n      tag_389\n        /* \"#utility.yul\":19635:19639   */\n      dup2\n        /* \"#utility.yul\":19509:19640   */\n      tag_197\n      jump\t// in\n    tag_389:\n        /* \"#utility.yul\":19501:19640   */\n      swap1\n      pop\n        /* \"#utility.yul\":19228:19647   */\n      swap2\n      swap1\n      pop\n      jump\t// out\n\n    auxdata: 0xa26469706673582212204397684453066e8d44fede6dd26a6fea470a7ce1bfa41ae9cc644ac067ca82e464736f6c634300081c0033\n}\n",
				"bytecode": {
					"linkReferences": {},
					"object": "608060405234801561000f575f5ffd5b50604051611bf6380380611bf68339818101604052810190610031919061023b565b60015f819055503360015f6101000a81548173ffffffffffffffffffffffffffffffffffffffff021916908373ffffffffffffffffffffffffffffffffffffffff160217905550814261008491906102c2565b600381905550806004908161009991906104fc565b505f600160146101000a81548160ff02191690831515021790555050506105cb565b5f604051905090565b5f5ffd5b5f5ffd5b5f819050919050565b6100de816100cc565b81146100e8575f5ffd5b50565b5f815190506100f9816100d5565b92915050565b5f5ffd5b5f5ffd5b5f601f19601f8301169050919050565b7f4e487b71000000000000000000000000000000000000000000000000000000005f52604160045260245ffd5b61014d82610107565b810181811067ffffffffffffffff8211171561016c5761016b610117565b5b80604052505050565b5f61017e6100bb565b905061018a8282610144565b919050565b5f67ffffffffffffffff8211156101a9576101a8610117565b5b6101b282610107565b9050602081019050919050565b8281835e5f83830152505050565b5f6101df6101da8461018f565b610175565b9050828152602081018484840111156101fb576101fa610103565b5b6102068482856101bf565b509392505050565b5f82601f830112610222576102216100ff565b5b81516102328482602086016101cd565b91505092915050565b5f5f60408385031215610251576102506100c4565b5b5f61025e858286016100eb565b925050602083015167ffffffffffffffff81111561027f5761027e6100c8565b5b61028b8582860161020e565b9150509250929050565b7f4e487b71000000000000000000000000000000000000000000000000000000005f52601160045260245ffd5b5f6102cc826100cc565b91506102d7836100cc565b92508282019050808211156102ef576102ee610295565b5b92915050565b5f81519050919050565b7f4e487b71000000000000000000000000000000000000000000000000000000005f52602260045260245ffd5b5f600282049050600182168061034357607f821691505b602082108103610356576103556102ff565b5b50919050565b5f819050815f5260205f209050919050565b5f6020601f8301049050919050565b5f82821b905092915050565b5f600883026103b87fffffffffffffffffffffffffffffffffffffffffffffffffffffffffffffffff8261037d565b6103c2868361037d565b95508019841693508086168417925050509392505050565b5f819050919050565b5f6103fd6103f86103f3846100cc565b6103da565b6100cc565b9050919050565b5f819050919050565b610416836103e3565b61042a61042282610404565b848454610389565b825550505050565b5f5f905090565b610441610432565b61044c81848461040d565b505050565b5b8181101561046f576104645f82610439565b600181019050610452565b5050565b601f8211156104b4576104858161035c565b61048e8461036e565b8101602085101561049d578190505b6104b16104a98561036e565b830182610451565b50505b505050565b5f82821c905092915050565b5f6104d45f19846008026104b9565b1980831691505092915050565b5f6104ec83836104c5565b9150826002028217905092915050565b610505826102f5565b67ffffffffffffffff81111561051e5761051d610117565b5b610528825461032c565b610533828285610473565b5f60209050601f831160018114610564575f8415610552578287015190505b61055c85826104e1565b8655506105c3565b601f1984166105728661035c565b5f5b8281101561059957848901518255600182019150602085019450602081019050610574565b868310156105b657848901516105b2601f8916826104c5565b8355505b6001600288020188555050505b505050505050565b61161e806105d85f395ff3fe6080604052600436106100a6575f3560e01c80638da5cb5b116100635780638da5cb5b14610197578063b3beaee2146101c1578063ce5f9fb3146101fe578063dcbfb0ff14610226578063f2a4a82e14610250578063fe67a54b1461027a576100a6565b80631998aeef146100aa5780633ad08463146100b4578063438f7352146100de5780636ec5177a1461011b57806375bd1a3314610143578063864333741461016d575b5f5ffd5b6100b2610290565b005b3480156100bf575f5ffd5b506100c86104f4565b6040516100d59190610c42565b60405180910390f35b3480156100e9575f5ffd5b5061010460048036038101906100ff9190610cc6565b6104fa565b604051610112929190610d61565b60405180910390f35b348015610126575f5ffd5b50610141600480360381019061013c9190610ee5565b6105a0565b005b34801561014e575f5ffd5b506101576106f6565b6040516101649190610c42565b60405180910390f35b348015610178575f5ffd5b506101816106fc565b60405161018e9190610f59565b60405180910390f35b3480156101a2575f5ffd5b506101ab61070f565b6040516101b89190610f81565b60405180910390f35b3480156101cc575f5ffd5b506101e760048036038101906101e29190610cc6565b610734565b6040516101f5929190610d61565b60405180910390f35b348015610209575f5ffd5b50610224600480360381019061021f9190610f9a565b61082e565b005b348015610231575f5ffd5b5061023a610961565b6040516102479190610f81565b60405180910390f35b34801561025b575f5ffd5b50610264610986565b6040516102719190610fc5565b60405180910390f35b348015610285575f5ffd5b5061028e610a12565b005b600354421080156102ae5750600160149054906101000a900460ff16155b6102ed576040517f08c379a00000000000000000000000000000000000000000000000000000000081526004016102e49061102f565b60405180910390fd5b6006543411610331576040517f08c379a0000000000000000000000000000000000000000000000000000000008152600401610328906110bd565b60405180910390fd5b5f6006541461045c575f60055f9054906101000a900473ffffffffffffffffffffffffffffffffffffffff1690505f60065490503360055f6101000a81548173ffffffffffffffffffffffffffffffffffffffff021916908373ffffffffffffffffffffffffffffffffffffffff160217905550346006819055505f8273ffffffffffffffffffffffffffffffffffffffff16826040516103d190611108565b5f6040518083038185875af1925050503d805f811461040b576040519150601f19603f3d011682016040523d82523d5f602084013e610410565b606091505b5050905080610454576040517f08c379a000000000000000000000000000000000000000000000000000000000815260040161044b90611166565b60405180910390fd5b5050506104a4565b3360055f6101000a81548173ffffffffffffffffffffffffffffffffffffffff021916908373ffffffffffffffffffffffffffffffffffffffff160217905550346006819055505b3373ffffffffffffffffffffffffffffffffffffffff167f3fabff0a9c3ecd6814702e247fa9733e5d0aa69e3a38590f92cb18f623a2254d346040516104ea9190610c42565b60405180910390a2565b60065481565b6002602052805f5260405f205f91509050805f018054610519906111b1565b80601f0160208091040260200160405190810160405280929190818152602001828054610545906111b1565b80156105905780601f1061056757610100808354040283529160200191610590565b820191905f5260205f20905b81548152906001019060200180831161057357829003601f168201915b5050505050908060010154905082565b3373ffffffffffffffffffffffffffffffffffffffff1660015f9054906101000a900473ffffffffffffffffffffffffffffffffffffffff1673ffffffffffffffffffffffffffffffffffffffff161461062f576040517f08c379a00000000000000000000000000000000000000000000000000000000081526004016106269061122b565b60405180910390fd5b60405180604001604052808381526020018281525060025f3373ffffffffffffffffffffffffffffffffffffffff1673ffffffffffffffffffffffffffffffffffffffff1681526020019081526020015f205f820151815f01908161069491906113e9565b50602082015181600101559050503373ffffffffffffffffffffffffffffffffffffffff167fe536509d3c6d9fa6301b2521c8bed681e02fe27aa4858bf3beeef0e94458b6ee83836040516106ea929190610d61565b60405180910390a25050565b60035481565b600160149054906101000a900460ff1681565b60015f9054906101000a900473ffffffffffffffffffffffffffffffffffffffff1681565b60605f5f60025f8573ffffffffffffffffffffffffffffffffffffffff1673ffffffffffffffffffffffffffffffffffffffff1681526020019081526020015f206040518060400160405290815f8201805461078f906111b1565b80601f01602080910402602001604051908101604052809291908181526020018280546107bb906111b1565b80156108065780601f106107dd57610100808354040283529160200191610806565b820191905f5260205f20905b8154815290600101906020018083116107e957829003601f168201915b505050505081526020016001820154815250509050805f015181602001519250925050915091565b3373ffffffffffffffffffffffffffffffffffffffff1660015f9054906101000a900473ffffffffffffffffffffffffffffffffffffffff1673ffffffffffffffffffffffffffffffffffffffff16146108bd576040517f08c379a00000000000000000000000000000000000000000000000000000000081526004016108b49061122b565b60405180910390fd5b600160149054906101000a900460ff161561090d576040517f08c379a000000000000000000000000000000000000000000000000000000000815260040161090490611502565b60405180910390fd5b8060035f82825461091e919061154d565b925050819055507fc2b459809119087ca9d2bc10dea53a51b7d848b1a11075db037bdca58292c3e86003546040516109569190610c42565b60405180910390a150565b60055f9054906101000a900473ffffffffffffffffffffffffffffffffffffffff1681565b60048054610993906111b1565b80601f01602080910402602001604051908101604052809291908181526020018280546109bf906111b1565b8015610a0a5780601f106109e157610100808354040283529160200191610a0a565b820191905f5260205f20905b8154815290600101906020018083116109ed57829003601f168201915b505050505081565b3373ffffffffffffffffffffffffffffffffffffffff1660015f9054906101000a900473ffffffffffffffffffffffffffffffffffffffff1673ffffffffffffffffffffffffffffffffffffffff1614610aa1576040517f08c379a0000000000000000000000000000000000000000000000000000000008152600401610a989061122b565b60405180910390fd5b600354421015610ae6576040517f08c379a0000000000000000000000000000000000000000000000000000000008152600401610add906115ca565b60405180910390fd5b600160149054906101000a900460ff1615610b36576040517f08c379a0000000000000000000000000000000000000000000000000000000008152600401610b2d90611502565b60405180910390fd5b60018060146101000a81548160ff02191690831515021790555060015f9054906101000a900473ffffffffffffffffffffffffffffffffffffffff1673ffffffffffffffffffffffffffffffffffffffff166108fc60065490811502906040515f60405180830381858888f19350505050158015610bb6573d5f5f3e3d5ffd5b5060055f9054906101000a900473ffffffffffffffffffffffffffffffffffffffff1673ffffffffffffffffffffffffffffffffffffffff167fdaec4582d5d9595688c8c98545fdd1c696d41c6aeaeb636737e84ed2f5c00eda600654604051610c209190610c42565b60405180910390a2565b5f819050919050565b610c3c81610c2a565b82525050565b5f602082019050610c555f830184610c33565b92915050565b5f604051905090565b5f5ffd5b5f5ffd5b5f73ffffffffffffffffffffffffffffffffffffffff82169050919050565b5f610c9582610c6c565b9050919050565b610ca581610c8b565b8114610caf575f5ffd5b50565b5f81359050610cc081610c9c565b92915050565b5f60208284031215610cdb57610cda610c64565b5b5f610ce884828501610cb2565b91505092915050565b5f81519050919050565b5f82825260208201905092915050565b8281835e5f83830152505050565b5f601f19601f8301169050919050565b5f610d3382610cf1565b610d3d8185610cfb565b9350610d4d818560208601610d0b565b610d5681610d19565b840191505092915050565b5f6040820190508181035f830152610d798185610d29565b9050610d886020830184610c33565b9392505050565b5f5ffd5b5f5ffd5b7f4e487b71000000000000000000000000000000000000000000000000000000005f52604160045260245ffd5b610dcd82610d19565b810181811067ffffffffffffffff82111715610dec57610deb610d97565b5b80604052505050565b5f610dfe610c5b565b9050610e0a8282610dc4565b919050565b5f67ffffffffffffffff821115610e2957610e28610d97565b5b610e3282610d19565b9050602081019050919050565b828183375f83830152505050565b5f610e5f610e5a84610e0f565b610df5565b905082815260208101848484011115610e7b57610e7a610d93565b5b610e86848285610e3f565b509392505050565b5f82601f830112610ea257610ea1610d8f565b5b8135610eb2848260208601610e4d565b91505092915050565b610ec481610c2a565b8114610ece575f5ffd5b50565b5f81359050610edf81610ebb565b92915050565b5f5f60408385031215610efb57610efa610c64565b5b5f83013567ffffffffffffffff811115610f1857610f17610c68565b5b610f2485828601610e8e565b9250506020610f3585828601610ed1565b9150509250929050565b5f8115159050919050565b610f5381610f3f565b82525050565b5f602082019050610f6c5f830184610f4a565b92915050565b610f7b81610c8b565b82525050565b5f602082019050610f945f830184610f72565b92915050565b5f60208284031215610faf57610fae610c64565b5b5f610fbc84828501610ed1565b91505092915050565b5f6020820190508181035f830152610fdd8184610d29565b905092915050565b7f41756374696f6e2068617320656e6465640000000000000000000000000000005f82015250565b5f611019601183610cfb565b915061102482610fe5565b602082019050919050565b5f6020820190508181035f8301526110468161100d565b9050919050565b7f596f757220626964206d75737420626520686967686572207468616e207468655f8201527f2063757272656e74206869676865737420626964000000000000000000000000602082015250565b5f6110a7603483610cfb565b91506110b28261104d565b604082019050919050565b5f6020820190508181035f8301526110d48161109b565b9050919050565b5f81905092915050565b50565b5f6110f35f836110db565b91506110fe826110e5565b5f82019050919050565b5f611112826110e8565b9150819050919050565b7f50726576696f75732062696420726566756e64206661696c65640000000000005f82015250565b5f611150601a83610cfb565b915061115b8261111c565b602082019050919050565b5f6020820190508181035f83015261117d81611144565b9050919050565b7f4e487b71000000000000000000000000000000000000000000000000000000005f52602260045260245ffd5b5f60028204905060018216806111c857607f821691505b6020821081036111db576111da611184565b5b50919050565b7f596f7520617265206e6f7420746865206f776e657200000000000000000000005f82015250565b5f611215601583610cfb565b9150611220826111e1565b602082019050919050565b5f6020820190508181035f83015261124281611209565b9050919050565b5f819050815f5260205f209050919050565b5f6020601f8301049050919050565b5f82821b905092915050565b5f600883026112a57fffffffffffffffffffffffffffffffffffffffffffffffffffffffffffffffff8261126a565b6112af868361126a565b95508019841693508086168417925050509392505050565b5f819050919050565b5f6112ea6112e56112e084610c2a565b6112c7565b610c2a565b9050919050565b5f819050919050565b611303836112d0565b61131761130f826112f1565b848454611276565b825550505050565b5f5f905090565b61132e61131f565b6113398184846112fa565b505050565b5b8181101561135c576113515f82611326565b60018101905061133f565b5050565b601f8211156113a15761137281611249565b61137b8461125b565b8101602085101561138a578190505b61139e6113968561125b565b83018261133e565b50505b505050565b5f82821c905092915050565b5f6113c15f19846008026113a6565b1980831691505092915050565b5f6113d983836113b2565b9150826002028217905092915050565b6113f282610cf1565b67ffffffffffffffff81111561140b5761140a610d97565b5b61141582546111b1565b611420828285611360565b5f60209050601f831160018114611451575f841561143f578287015190505b61144985826113ce565b8655506114b0565b601f19841661145f86611249565b5f5b8281101561148657848901518255600182019150602085019450602081019050611461565b868310156114a3578489015161149f601f8916826113b2565b8355505b6001600288020188555050505b505050505050565b7f41756374696f6e2068617320616c726561647920656e646564000000000000005f82015250565b5f6114ec601983610cfb565b91506114f7826114b8565b602082019050919050565b5f6020820190508181035f830152611519816114e0565b9050919050565b7f4e487b71000000000000000000000000000000000000000000000000000000005f52601160045260245ffd5b5f61155782610c2a565b915061156283610c2a565b925082820190508082111561157a57611579611520565b5b92915050565b7f41756374696f6e206973207374696c6c206f6e676f696e6700000000000000005f82015250565b5f6115b4601883610cfb565b91506115bf82611580565b602082019050919050565b5f6020820190508181035f8301526115e1816115a8565b905091905056fea26469706673582212204397684453066e8d44fede6dd26a6fea470a7ce1bfa41ae9cc644ac067ca82e464736f6c634300081c0033",
					"opcodes": "PUSH1 0x80 PUSH1 0x40 MSTORE CALLVALUE DUP1 ISZERO PUSH2 0xF JUMPI PUSH0 PUSH0 REVERT JUMPDEST POP PUSH1 0x40 MLOAD PUSH2 0x1BF6 CODESIZE SUB DUP1 PUSH2 0x1BF6 DUP4 CODECOPY DUP2 DUP2 ADD PUSH1 0x40 MSTORE DUP2 ADD SWAP1 PUSH2 0x31 SWAP2 SWAP1 PUSH2 0x23B JUMP JUMPDEST PUSH1 0x1 PUSH0 DUP2 SWAP1 SSTORE POP CALLER PUSH1 0x1 PUSH0 PUSH2 0x100 EXP DUP2 SLOAD DUP2 PUSH20 0xFFFFFFFFFFFFFFFFFFFFFFFFFFFFFFFFFFFFFFFF MUL NOT AND SWAP1 DUP4 PUSH20 0xFFFFFFFFFFFFFFFFFFFFFFFFFFFFFFFFFFFFFFFF AND MUL OR SWAP1 SSTORE POP DUP2 TIMESTAMP PUSH2 0x84 SWAP2 SWAP1 PUSH2 0x2C2 JUMP JUMPDEST PUSH1 0x3 DUP2 SWAP1 SSTORE POP DUP1 PUSH1 0x4 SWAP1 DUP2 PUSH2 0x99 SWAP2 SWAP1 PUSH2 0x4FC JUMP JUMPDEST POP PUSH0 PUSH1 0x1 PUSH1 0x14 PUSH2 0x100 EXP DUP2 SLOAD DUP2 PUSH1 0xFF MUL NOT AND SWAP1 DUP4 ISZERO ISZERO MUL OR SWAP1 SSTORE POP POP POP PUSH2 0x5CB JUMP JUMPDEST PUSH0 PUSH1 0x40 MLOAD SWAP1 POP SWAP1 JUMP JUMPDEST PUSH0 PUSH0 REVERT JUMPDEST PUSH0 PUSH0 REVERT JUMPDEST PUSH0 DUP2 SWAP1 POP SWAP2 SWAP1 POP JUMP JUMPDEST PUSH2 0xDE DUP2 PUSH2 0xCC JUMP JUMPDEST DUP2 EQ PUSH2 0xE8 JUMPI PUSH0 PUSH0 REVERT JUMPDEST POP JUMP JUMPDEST PUSH0 DUP2 MLOAD SWAP1 POP PUSH2 0xF9 DUP2 PUSH2 0xD5 JUMP JUMPDEST SWAP3 SWAP2 POP POP JUMP JUMPDEST PUSH0 PUSH0 REVERT JUMPDEST PUSH0 PUSH0 REVERT JUMPDEST PUSH0 PUSH1 0x1F NOT PUSH1 0x1F DUP4 ADD AND SWAP1 POP SWAP2 SWAP1 POP JUMP JUMPDEST PUSH32 0x4E487B7100000000000000000000000000000000000000000000000000000000 PUSH0 MSTORE PUSH1 0x41 PUSH1 0x4 MSTORE PUSH1 0x24 PUSH0 REVERT JUMPDEST PUSH2 0x14D DUP3 PUSH2 0x107 JUMP JUMPDEST DUP2 ADD DUP2 DUP2 LT PUSH8 0xFFFFFFFFFFFFFFFF DUP3 GT OR ISZERO PUSH2 0x16C JUMPI PUSH2 0x16B PUSH2 0x117 JUMP JUMPDEST JUMPDEST DUP1 PUSH1 0x40 MSTORE POP POP POP JUMP JUMPDEST PUSH0 PUSH2 0x17E PUSH2 0xBB JUMP JUMPDEST SWAP1 POP PUSH2 0x18A DUP3 DUP3 PUSH2 0x144 JUMP JUMPDEST SWAP2 SWAP1 POP JUMP JUMPDEST PUSH0 PUSH8 0xFFFFFFFFFFFFFFFF DUP3 GT ISZERO PUSH2 0x1A9 JUMPI PUSH2 0x1A8 PUSH2 0x117 JUMP JUMPDEST JUMPDEST PUSH2 0x1B2 DUP3 PUSH2 0x107 JUMP JUMPDEST SWAP1 POP PUSH1 0x20 DUP2 ADD SWAP1 POP SWAP2 SWAP1 POP JUMP JUMPDEST DUP3 DUP2 DUP4 MCOPY PUSH0 DUP4 DUP4 ADD MSTORE POP POP POP JUMP JUMPDEST PUSH0 PUSH2 0x1DF PUSH2 0x1DA DUP5 PUSH2 0x18F JUMP JUMPDEST PUSH2 0x175 JUMP JUMPDEST SWAP1 POP DUP3 DUP2 MSTORE PUSH1 0x20 DUP2 ADD DUP5 DUP5 DUP5 ADD GT ISZERO PUSH2 0x1FB JUMPI PUSH2 0x1FA PUSH2 0x103 JUMP JUMPDEST JUMPDEST PUSH2 0x206 DUP5 DUP3 DUP6 PUSH2 0x1BF JUMP JUMPDEST POP SWAP4 SWAP3 POP POP POP JUMP JUMPDEST PUSH0 DUP3 PUSH1 0x1F DUP4 ADD SLT PUSH2 0x222 JUMPI PUSH2 0x221 PUSH2 0xFF JUMP JUMPDEST JUMPDEST DUP2 MLOAD PUSH2 0x232 DUP5 DUP3 PUSH1 0x20 DUP7 ADD PUSH2 0x1CD JUMP JUMPDEST SWAP2 POP POP SWAP3 SWAP2 POP POP JUMP JUMPDEST PUSH0 PUSH0 PUSH1 0x40 DUP4 DUP6 SUB SLT ISZERO PUSH2 0x251 JUMPI PUSH2 0x250 PUSH2 0xC4 JUMP JUMPDEST JUMPDEST PUSH0 PUSH2 0x25E DUP6 DUP3 DUP7 ADD PUSH2 0xEB JUMP JUMPDEST SWAP3 POP POP PUSH1 0x20 DUP4 ADD MLOAD PUSH8 0xFFFFFFFFFFFFFFFF DUP2 GT ISZERO PUSH2 0x27F JUMPI PUSH2 0x27E PUSH2 0xC8 JUMP JUMPDEST JUMPDEST PUSH2 0x28B DUP6 DUP3 DUP7 ADD PUSH2 0x20E JUMP JUMPDEST SWAP2 POP POP SWAP3 POP SWAP3 SWAP1 POP JUMP JUMPDEST PUSH32 0x4E487B7100000000000000000000000000000000000000000000000000000000 PUSH0 MSTORE PUSH1 0x11 PUSH1 0x4 MSTORE PUSH1 0x24 PUSH0 REVERT JUMPDEST PUSH0 PUSH2 0x2CC DUP3 PUSH2 0xCC JUMP JUMPDEST SWAP2 POP PUSH2 0x2D7 DUP4 PUSH2 0xCC JUMP JUMPDEST SWAP3 POP DUP3 DUP3 ADD SWAP1 POP DUP1 DUP3 GT ISZERO PUSH2 0x2EF JUMPI PUSH2 0x2EE PUSH2 0x295 JUMP JUMPDEST JUMPDEST SWAP3 SWAP2 POP POP JUMP JUMPDEST PUSH0 DUP2 MLOAD SWAP1 POP SWAP2 SWAP1 POP JUMP JUMPDEST PUSH32 0x4E487B7100000000000000000000000000000000000000000000000000000000 PUSH0 MSTORE PUSH1 0x22 PUSH1 0x4 MSTORE PUSH1 0x24 PUSH0 REVERT JUMPDEST PUSH0 PUSH1 0x2 DUP3 DIV SWAP1 POP PUSH1 0x1 DUP3 AND DUP1 PUSH2 0x343 JUMPI PUSH1 0x7F DUP3 AND SWAP2 POP JUMPDEST PUSH1 0x20 DUP3 LT DUP2 SUB PUSH2 0x356 JUMPI PUSH2 0x355 PUSH2 0x2FF JUMP JUMPDEST JUMPDEST POP SWAP2 SWAP1 POP JUMP JUMPDEST PUSH0 DUP2 SWAP1 POP DUP2 PUSH0 MSTORE PUSH1 0x20 PUSH0 KECCAK256 SWAP1 POP SWAP2 SWAP1 POP JUMP JUMPDEST PUSH0 PUSH1 0x20 PUSH1 0x1F DUP4 ADD DIV SWAP1 POP SWAP2 SWAP1 POP JUMP JUMPDEST PUSH0 DUP3 DUP3 SHL SWAP1 POP SWAP3 SWAP2 POP POP JUMP JUMPDEST PUSH0 PUSH1 0x8 DUP4 MUL PUSH2 0x3B8 PUSH32 0xFFFFFFFFFFFFFFFFFFFFFFFFFFFFFFFFFFFFFFFFFFFFFFFFFFFFFFFFFFFFFFFF DUP3 PUSH2 0x37D JUMP JUMPDEST PUSH2 0x3C2 DUP7 DUP4 PUSH2 0x37D JUMP JUMPDEST SWAP6 POP DUP1 NOT DUP5 AND SWAP4 POP DUP1 DUP7 AND DUP5 OR SWAP3 POP POP POP SWAP4 SWAP3 POP POP POP JUMP JUMPDEST PUSH0 DUP2 SWAP1 POP SWAP2 SWAP1 POP JUMP JUMPDEST PUSH0 PUSH2 0x3FD PUSH2 0x3F8 PUSH2 0x3F3 DUP5 PUSH2 0xCC JUMP JUMPDEST PUSH2 0x3DA JUMP JUMPDEST PUSH2 0xCC JUMP JUMPDEST SWAP1 POP SWAP2 SWAP1 POP JUMP JUMPDEST PUSH0 DUP2 SWAP1 POP SWAP2 SWAP1 POP JUMP JUMPDEST PUSH2 0x416 DUP4 PUSH2 0x3E3 JUMP JUMPDEST PUSH2 0x42A PUSH2 0x422 DUP3 PUSH2 0x404 JUMP JUMPDEST DUP5 DUP5 SLOAD PUSH2 0x389 JUMP JUMPDEST DUP3 SSTORE POP POP POP POP JUMP JUMPDEST PUSH0 PUSH0 SWAP1 POP SWAP1 JUMP JUMPDEST PUSH2 0x441 PUSH2 0x432 JUMP JUMPDEST PUSH2 0x44C DUP2 DUP5 DUP5 PUSH2 0x40D JUMP JUMPDEST POP POP POP JUMP JUMPDEST JUMPDEST DUP2 DUP2 LT ISZERO PUSH2 0x46F JUMPI PUSH2 0x464 PUSH0 DUP3 PUSH2 0x439 JUMP JUMPDEST PUSH1 0x1 DUP2 ADD SWAP1 POP PUSH2 0x452 JUMP JUMPDEST POP POP JUMP JUMPDEST PUSH1 0x1F DUP3 GT ISZERO PUSH2 0x4B4 JUMPI PUSH2 0x485 DUP2 PUSH2 0x35C JUMP JUMPDEST PUSH2 0x48E DUP5 PUSH2 0x36E JUMP JUMPDEST DUP2 ADD PUSH1 0x20 DUP6 LT ISZERO PUSH2 0x49D JUMPI DUP2 SWAP1 POP JUMPDEST PUSH2 0x4B1 PUSH2 0x4A9 DUP6 PUSH2 0x36E JUMP JUMPDEST DUP4 ADD DUP3 PUSH2 0x451 JUMP JUMPDEST POP POP JUMPDEST POP POP POP JUMP JUMPDEST PUSH0 DUP3 DUP3 SHR SWAP1 POP SWAP3 SWAP2 POP POP JUMP JUMPDEST PUSH0 PUSH2 0x4D4 PUSH0 NOT DUP5 PUSH1 0x8 MUL PUSH2 0x4B9 JUMP JUMPDEST NOT DUP1 DUP4 AND SWAP2 POP POP SWAP3 SWAP2 POP POP JUMP JUMPDEST PUSH0 PUSH2 0x4EC DUP4 DUP4 PUSH2 0x4C5 JUMP JUMPDEST SWAP2 POP DUP3 PUSH1 0x2 MUL DUP3 OR SWAP1 POP SWAP3 SWAP2 POP POP JUMP JUMPDEST PUSH2 0x505 DUP3 PUSH2 0x2F5 JUMP JUMPDEST PUSH8 0xFFFFFFFFFFFFFFFF DUP2 GT ISZERO PUSH2 0x51E JUMPI PUSH2 0x51D PUSH2 0x117 JUMP JUMPDEST JUMPDEST PUSH2 0x528 DUP3 SLOAD PUSH2 0x32C JUMP JUMPDEST PUSH2 0x533 DUP3 DUP3 DUP6 PUSH2 0x473 JUMP JUMPDEST PUSH0 PUSH1 0x20 SWAP1 POP PUSH1 0x1F DUP4 GT PUSH1 0x1 DUP2 EQ PUSH2 0x564 JUMPI PUSH0 DUP5 ISZERO PUSH2 0x552 JUMPI DUP3 DUP8 ADD MLOAD SWAP1 POP JUMPDEST PUSH2 0x55C DUP6 DUP3 PUSH2 0x4E1 JUMP JUMPDEST DUP7 SSTORE POP PUSH2 0x5C3 JUMP JUMPDEST PUSH1 0x1F NOT DUP5 AND PUSH2 0x572 DUP7 PUSH2 0x35C JUMP JUMPDEST PUSH0 JUMPDEST DUP3 DUP2 LT ISZERO PUSH2 0x599 JUMPI DUP5 DUP10 ADD MLOAD DUP3 SSTORE PUSH1 0x1 DUP3 ADD SWAP2 POP PUSH1 0x20 DUP6 ADD SWAP5 POP PUSH1 0x20 DUP2 ADD SWAP1 POP PUSH2 0x574 JUMP JUMPDEST DUP7 DUP4 LT ISZERO PUSH2 0x5B6 JUMPI DUP5 DUP10 ADD MLOAD PUSH2 0x5B2 PUSH1 0x1F DUP10 AND DUP3 PUSH2 0x4C5 JUMP JUMPDEST DUP4 SSTORE POP JUMPDEST PUSH1 0x1 PUSH1 0x2 DUP9 MUL ADD DUP9 SSTORE POP POP POP JUMPDEST POP POP POP POP POP POP JUMP JUMPDEST PUSH2 0x161E DUP1 PUSH2 0x5D8 PUSH0 CODECOPY PUSH0 RETURN INVALID PUSH1 0x80 PUSH1 0x40 MSTORE PUSH1 0x4 CALLDATASIZE LT PUSH2 0xA6 JUMPI PUSH0 CALLDATALOAD PUSH1 0xE0 SHR DUP1 PUSH4 0x8DA5CB5B GT PUSH2 0x63 JUMPI DUP1 PUSH4 0x8DA5CB5B EQ PUSH2 0x197 JUMPI DUP1 PUSH4 0xB3BEAEE2 EQ PUSH2 0x1C1 JUMPI DUP1 PUSH4 0xCE5F9FB3 EQ PUSH2 0x1FE JUMPI DUP1 PUSH4 0xDCBFB0FF EQ PUSH2 0x226 JUMPI DUP1 PUSH4 0xF2A4A82E EQ PUSH2 0x250 JUMPI DUP1 PUSH4 0xFE67A54B EQ PUSH2 0x27A JUMPI PUSH2 0xA6 JUMP JUMPDEST DUP1 PUSH4 0x1998AEEF EQ PUSH2 0xAA JUMPI DUP1 PUSH4 0x3AD08463 EQ PUSH2 0xB4 JUMPI DUP1 PUSH4 0x438F7352 EQ PUSH2 0xDE JUMPI DUP1 PUSH4 0x6EC5177A EQ PUSH2 0x11B JUMPI DUP1 PUSH4 0x75BD1A33 EQ PUSH2 0x143 JUMPI DUP1 PUSH4 0x86433374 EQ PUSH2 0x16D JUMPI JUMPDEST PUSH0 PUSH0 REVERT JUMPDEST PUSH2 0xB2 PUSH2 0x290 JUMP JUMPDEST STOP JUMPDEST CALLVALUE DUP1 ISZERO PUSH2 0xBF JUMPI PUSH0 PUSH0 REVERT JUMPDEST POP PUSH2 0xC8 PUSH2 0x4F4 JUMP JUMPDEST PUSH1 0x40 MLOAD PUSH2 0xD5 SWAP2 SWAP1 PUSH2 0xC42 JUMP JUMPDEST PUSH1 0x40 MLOAD DUP1 SWAP2 SUB SWAP1 RETURN JUMPDEST CALLVALUE DUP1 ISZERO PUSH2 0xE9 JUMPI PUSH0 PUSH0 REVERT JUMPDEST POP PUSH2 0x104 PUSH1 0x4 DUP1 CALLDATASIZE SUB DUP2 ADD SWAP1 PUSH2 0xFF SWAP2 SWAP1 PUSH2 0xCC6 JUMP JUMPDEST PUSH2 0x4FA JUMP JUMPDEST PUSH1 0x40 MLOAD PUSH2 0x112 SWAP3 SWAP2 SWAP1 PUSH2 0xD61 JUMP JUMPDEST PUSH1 0x40 MLOAD DUP1 SWAP2 SUB SWAP1 RETURN JUMPDEST CALLVALUE DUP1 ISZERO PUSH2 0x126 JUMPI PUSH0 PUSH0 REVERT JUMPDEST POP PUSH2 0x141 PUSH1 0x4 DUP1 CALLDATASIZE SUB DUP2 ADD SWAP1 PUSH2 0x13C SWAP2 SWAP1 PUSH2 0xEE5 JUMP JUMPDEST PUSH2 0x5A0 JUMP JUMPDEST STOP JUMPDEST CALLVALUE DUP1 ISZERO PUSH2 0x14E JUMPI PUSH0 PUSH0 REVERT JUMPDEST POP PUSH2 0x157 PUSH2 0x6F6 JUMP JUMPDEST PUSH1 0x40 MLOAD PUSH2 0x164 SWAP2 SWAP1 PUSH2 0xC42 JUMP JUMPDEST PUSH1 0x40 MLOAD DUP1 SWAP2 SUB SWAP1 RETURN JUMPDEST CALLVALUE DUP1 ISZERO PUSH2 0x178 JUMPI PUSH0 PUSH0 REVERT JUMPDEST POP PUSH2 0x181 PUSH2 0x6FC JUMP JUMPDEST PUSH1 0x40 MLOAD PUSH2 0x18E SWAP2 SWAP1 PUSH2 0xF59 JUMP JUMPDEST PUSH1 0x40 MLOAD DUP1 SWAP2 SUB SWAP1 RETURN JUMPDEST CALLVALUE DUP1 ISZERO PUSH2 0x1A2 JUMPI PUSH0 PUSH0 REVERT JUMPDEST POP PUSH2 0x1AB PUSH2 0x70F JUMP JUMPDEST PUSH1 0x40 MLOAD PUSH2 0x1B8 SWAP2 SWAP1 PUSH2 0xF81 JUMP JUMPDEST PUSH1 0x40 MLOAD DUP1 SWAP2 SUB SWAP1 RETURN JUMPDEST CALLVALUE DUP1 ISZERO PUSH2 0x1CC JUMPI PUSH0 PUSH0 REVERT JUMPDEST POP PUSH2 0x1E7 PUSH1 0x4 DUP1 CALLDATASIZE SUB DUP2 ADD SWAP1 PUSH2 0x1E2 SWAP2 SWAP1 PUSH2 0xCC6 JUMP JUMPDEST PUSH2 0x734 JUMP JUMPDEST PUSH1 0x40 MLOAD PUSH2 0x1F5 SWAP3 SWAP2 SWAP1 PUSH2 0xD61 JUMP JUMPDEST PUSH1 0x40 MLOAD DUP1 SWAP2 SUB SWAP1 RETURN JUMPDEST CALLVALUE DUP1 ISZERO PUSH2 0x209 JUMPI PUSH0 PUSH0 REVERT JUMPDEST POP PUSH2 0x224 PUSH1 0x4 DUP1 CALLDATASIZE SUB DUP2 ADD SWAP1 PUSH2 0x21F SWAP2 SWAP1 PUSH2 0xF9A JUMP JUMPDEST PUSH2 0x82E JUMP JUMPDEST STOP JUMPDEST CALLVALUE DUP1 ISZERO PUSH2 0x231 JUMPI PUSH0 PUSH0 REVERT JUMPDEST POP PUSH2 0x23A PUSH2 0x961 JUMP JUMPDEST PUSH1 0x40 MLOAD PUSH2 0x247 SWAP2 SWAP1 PUSH2 0xF81 JUMP JUMPDEST PUSH1 0x40 MLOAD DUP1 SWAP2 SUB SWAP1 RETURN JUMPDEST CALLVALUE DUP1 ISZERO PUSH2 0x25B JUMPI PUSH0 PUSH0 REVERT JUMPDEST POP PUSH2 0x264 PUSH2 0x986 JUMP JUMPDEST PUSH1 0x40 MLOAD PUSH2 0x271 SWAP2 SWAP1 PUSH2 0xFC5 JUMP JUMPDEST PUSH1 0x40 MLOAD DUP1 SWAP2 SUB SWAP1 RETURN JUMPDEST CALLVALUE DUP1 ISZERO PUSH2 0x285 JUMPI PUSH0 PUSH0 REVERT JUMPDEST POP PUSH2 0x28E PUSH2 0xA12 JUMP JUMPDEST STOP JUMPDEST PUSH1 0x3 SLOAD TIMESTAMP LT DUP1 ISZERO PUSH2 0x2AE JUMPI POP PUSH1 0x1 PUSH1 0x14 SWAP1 SLOAD SWAP1 PUSH2 0x100 EXP SWAP1 DIV PUSH1 0xFF AND ISZERO JUMPDEST PUSH2 0x2ED JUMPI PUSH1 0x40 MLOAD PUSH32 0x8C379A000000000000000000000000000000000000000000000000000000000 DUP2 MSTORE PUSH1 0x4 ADD PUSH2 0x2E4 SWAP1 PUSH2 0x102F JUMP JUMPDEST PUSH1 0x40 MLOAD DUP1 SWAP2 SUB SWAP1 REVERT JUMPDEST PUSH1 0x6 SLOAD CALLVALUE GT PUSH2 0x331 JUMPI PUSH1 0x40 MLOAD PUSH32 0x8C379A000000000000000000000000000000000000000000000000000000000 DUP2 MSTORE PUSH1 0x4 ADD PUSH2 0x328 SWAP1 PUSH2 0x10BD JUMP JUMPDEST PUSH1 0x40 MLOAD DUP1 SWAP2 SUB SWAP1 REVERT JUMPDEST PUSH0 PUSH1 0x6 SLOAD EQ PUSH2 0x45C JUMPI PUSH0 PUSH1 0x5 PUSH0 SWAP1 SLOAD SWAP1 PUSH2 0x100 EXP SWAP1 DIV PUSH20 0xFFFFFFFFFFFFFFFFFFFFFFFFFFFFFFFFFFFFFFFF AND SWAP1 POP PUSH0 PUSH1 0x6 SLOAD SWAP1 POP CALLER PUSH1 0x5 PUSH0 PUSH2 0x100 EXP DUP2 SLOAD DUP2 PUSH20 0xFFFFFFFFFFFFFFFFFFFFFFFFFFFFFFFFFFFFFFFF MUL NOT AND SWAP1 DUP4 PUSH20 0xFFFFFFFFFFFFFFFFFFFFFFFFFFFFFFFFFFFFFFFF AND MUL OR SWAP1 SSTORE POP CALLVALUE PUSH1 0x6 DUP2 SWAP1 SSTORE POP PUSH0 DUP3 PUSH20 0xFFFFFFFFFFFFFFFFFFFFFFFFFFFFFFFFFFFFFFFF AND DUP3 PUSH1 0x40 MLOAD PUSH2 0x3D1 SWAP1 PUSH2 0x1108 JUMP JUMPDEST PUSH0 PUSH1 0x40 MLOAD DUP1 DUP4 SUB DUP2 DUP6 DUP8 GAS CALL SWAP3 POP POP POP RETURNDATASIZE DUP1 PUSH0 DUP2 EQ PUSH2 0x40B JUMPI PUSH1 0x40 MLOAD SWAP2 POP PUSH1 0x1F NOT PUSH1 0x3F RETURNDATASIZE ADD AND DUP3 ADD PUSH1 0x40 MSTORE RETURNDATASIZE DUP3 MSTORE RETURNDATASIZE PUSH0 PUSH1 0x20 DUP5 ADD RETURNDATACOPY PUSH2 0x410 JUMP JUMPDEST PUSH1 0x60 SWAP2 POP JUMPDEST POP POP SWAP1 POP DUP1 PUSH2 0x454 JUMPI PUSH1 0x40 MLOAD PUSH32 0x8C379A000000000000000000000000000000000000000000000000000000000 DUP2 MSTORE PUSH1 0x4 ADD PUSH2 0x44B SWAP1 PUSH2 0x1166 JUMP JUMPDEST PUSH1 0x40 MLOAD DUP1 SWAP2 SUB SWAP1 REVERT JUMPDEST POP POP POP PUSH2 0x4A4 JUMP JUMPDEST CALLER PUSH1 0x5 PUSH0 PUSH2 0x100 EXP DUP2 SLOAD DUP2 PUSH20 0xFFFFFFFFFFFFFFFFFFFFFFFFFFFFFFFFFFFFFFFF MUL NOT AND SWAP1 DUP4 PUSH20 0xFFFFFFFFFFFFFFFFFFFFFFFFFFFFFFFFFFFFFFFF AND MUL OR SWAP1 SSTORE POP CALLVALUE PUSH1 0x6 DUP2 SWAP1 SSTORE POP JUMPDEST CALLER PUSH20 0xFFFFFFFFFFFFFFFFFFFFFFFFFFFFFFFFFFFFFFFF AND PUSH32 0x3FABFF0A9C3ECD6814702E247FA9733E5D0AA69E3A38590F92CB18F623A2254D CALLVALUE PUSH1 0x40 MLOAD PUSH2 0x4EA SWAP2 SWAP1 PUSH2 0xC42 JUMP JUMPDEST PUSH1 0x40 MLOAD DUP1 SWAP2 SUB SWAP1 LOG2 JUMP JUMPDEST PUSH1 0x6 SLOAD DUP2 JUMP JUMPDEST PUSH1 0x2 PUSH1 0x20 MSTORE DUP1 PUSH0 MSTORE PUSH1 0x40 PUSH0 KECCAK256 PUSH0 SWAP2 POP SWAP1 POP DUP1 PUSH0 ADD DUP1 SLOAD PUSH2 0x519 SWAP1 PUSH2 0x11B1 JUMP JUMPDEST DUP1 PUSH1 0x1F ADD PUSH1 0x20 DUP1 SWAP2 DIV MUL PUSH1 0x20 ADD PUSH1 0x40 MLOAD SWAP1 DUP2 ADD PUSH1 0x40 MSTORE DUP1 SWAP3 SWAP2 SWAP1 DUP2 DUP2 MSTORE PUSH1 0x20 ADD DUP3 DUP1 SLOAD PUSH2 0x545 SWAP1 PUSH2 0x11B1 JUMP JUMPDEST DUP1 ISZERO PUSH2 0x590 JUMPI DUP1 PUSH1 0x1F LT PUSH2 0x567 JUMPI PUSH2 0x100 DUP1 DUP4 SLOAD DIV MUL DUP4 MSTORE SWAP2 PUSH1 0x20 ADD SWAP2 PUSH2 0x590 JUMP JUMPDEST DUP3 ADD SWAP2 SWAP1 PUSH0 MSTORE PUSH1 0x20 PUSH0 KECCAK256 SWAP1 JUMPDEST DUP2 SLOAD DUP2 MSTORE SWAP1 PUSH1 0x1 ADD SWAP1 PUSH1 0x20 ADD DUP1 DUP4 GT PUSH2 0x573 JUMPI DUP3 SWAP1 SUB PUSH1 0x1F AND DUP3 ADD SWAP2 JUMPDEST POP POP POP POP POP SWAP1 DUP1 PUSH1 0x1 ADD SLOAD SWAP1 POP DUP3 JUMP JUMPDEST CALLER PUSH20 0xFFFFFFFFFFFFFFFFFFFFFFFFFFFFFFFFFFFFFFFF AND PUSH1 0x1 PUSH0 SWAP1 SLOAD SWAP1 PUSH2 0x100 EXP SWAP1 DIV PUSH20 0xFFFFFFFFFFFFFFFFFFFFFFFFFFFFFFFFFFFFFFFF AND PUSH20 0xFFFFFFFFFFFFFFFFFFFFFFFFFFFFFFFFFFFFFFFF AND EQ PUSH2 0x62F JUMPI PUSH1 0x40 MLOAD PUSH32 0x8C379A000000000000000000000000000000000000000000000000000000000 DUP2 MSTORE PUSH1 0x4 ADD PUSH2 0x626 SWAP1 PUSH2 0x122B JUMP JUMPDEST PUSH1 0x40 MLOAD DUP1 SWAP2 SUB SWAP1 REVERT JUMPDEST PUSH1 0x40 MLOAD DUP1 PUSH1 0x40 ADD PUSH1 0x40 MSTORE DUP1 DUP4 DUP2 MSTORE PUSH1 0x20 ADD DUP3 DUP2 MSTORE POP PUSH1 0x2 PUSH0 CALLER PUSH20 0xFFFFFFFFFFFFFFFFFFFFFFFFFFFFFFFFFFFFFFFF AND PUSH20 0xFFFFFFFFFFFFFFFFFFFFFFFFFFFFFFFFFFFFFFFF AND DUP2 MSTORE PUSH1 0x20 ADD SWAP1 DUP2 MSTORE PUSH1 0x20 ADD PUSH0 KECCAK256 PUSH0 DUP3 ADD MLOAD DUP2 PUSH0 ADD SWAP1 DUP2 PUSH2 0x694 SWAP2 SWAP1 PUSH2 0x13E9 JUMP JUMPDEST POP PUSH1 0x20 DUP3 ADD MLOAD DUP2 PUSH1 0x1 ADD SSTORE SWAP1 POP POP CALLER PUSH20 0xFFFFFFFFFFFFFFFFFFFFFFFFFFFFFFFFFFFFFFFF AND PUSH32 0xE536509D3C6D9FA6301B2521C8BED681E02FE27AA4858BF3BEEEF0E94458B6EE DUP4 DUP4 PUSH1 0x40 MLOAD PUSH2 0x6EA SWAP3 SWAP2 SWAP1 PUSH2 0xD61 JUMP JUMPDEST PUSH1 0x40 MLOAD DUP1 SWAP2 SUB SWAP1 LOG2 POP POP JUMP JUMPDEST PUSH1 0x3 SLOAD DUP2 JUMP JUMPDEST PUSH1 0x1 PUSH1 0x14 SWAP1 SLOAD SWAP1 PUSH2 0x100 EXP SWAP1 DIV PUSH1 0xFF AND DUP2 JUMP JUMPDEST PUSH1 0x1 PUSH0 SWAP1 SLOAD SWAP1 PUSH2 0x100 EXP SWAP1 DIV PUSH20 0xFFFFFFFFFFFFFFFFFFFFFFFFFFFFFFFFFFFFFFFF AND DUP2 JUMP JUMPDEST PUSH1 0x60 PUSH0 PUSH0 PUSH1 0x2 PUSH0 DUP6 PUSH20 0xFFFFFFFFFFFFFFFFFFFFFFFFFFFFFFFFFFFFFFFF AND PUSH20 0xFFFFFFFFFFFFFFFFFFFFFFFFFFFFFFFFFFFFFFFF AND DUP2 MSTORE PUSH1 0x20 ADD SWAP1 DUP2 MSTORE PUSH1 0x20 ADD PUSH0 KECCAK256 PUSH1 0x40 MLOAD DUP1 PUSH1 0x40 ADD PUSH1 0x40 MSTORE SWAP1 DUP2 PUSH0 DUP3 ADD DUP1 SLOAD PUSH2 0x78F SWAP1 PUSH2 0x11B1 JUMP JUMPDEST DUP1 PUSH1 0x1F ADD PUSH1 0x20 DUP1 SWAP2 DIV MUL PUSH1 0x20 ADD PUSH1 0x40 MLOAD SWAP1 DUP2 ADD PUSH1 0x40 MSTORE DUP1 SWAP3 SWAP2 SWAP1 DUP2 DUP2 MSTORE PUSH1 0x20 ADD DUP3 DUP1 SLOAD PUSH2 0x7BB SWAP1 PUSH2 0x11B1 JUMP JUMPDEST DUP1 ISZERO PUSH2 0x806 JUMPI DUP1 PUSH1 0x1F LT PUSH2 0x7DD JUMPI PUSH2 0x100 DUP1 DUP4 SLOAD DIV MUL DUP4 MSTORE SWAP2 PUSH1 0x20 ADD SWAP2 PUSH2 0x806 JUMP JUMPDEST DUP3 ADD SWAP2 SWAP1 PUSH0 MSTORE PUSH1 0x20 PUSH0 KECCAK256 SWAP1 JUMPDEST DUP2 SLOAD DUP2 MSTORE SWAP1 PUSH1 0x1 ADD SWAP1 PUSH1 0x20 ADD DUP1 DUP4 GT PUSH2 0x7E9 JUMPI DUP3 SWAP1 SUB PUSH1 0x1F AND DUP3 ADD SWAP2 JUMPDEST POP POP POP POP POP DUP2 MSTORE PUSH1 0x20 ADD PUSH1 0x1 DUP3 ADD SLOAD DUP2 MSTORE POP POP SWAP1 POP DUP1 PUSH0 ADD MLOAD DUP2 PUSH1 0x20 ADD MLOAD SWAP3 POP SWAP3 POP POP SWAP2 POP SWAP2 JUMP JUMPDEST CALLER PUSH20 0xFFFFFFFFFFFFFFFFFFFFFFFFFFFFFFFFFFFFFFFF AND PUSH1 0x1 PUSH0 SWAP1 SLOAD SWAP1 PUSH2 0x100 EXP SWAP1 DIV PUSH20 0xFFFFFFFFFFFFFFFFFFFFFFFFFFFFFFFFFFFFFFFF AND PUSH20 0xFFFFFFFFFFFFFFFFFFFFFFFFFFFFFFFFFFFFFFFF AND EQ PUSH2 0x8BD JUMPI PUSH1 0x40 MLOAD PUSH32 0x8C379A000000000000000000000000000000000000000000000000000000000 DUP2 MSTORE PUSH1 0x4 ADD PUSH2 0x8B4 SWAP1 PUSH2 0x122B JUMP JUMPDEST PUSH1 0x40 MLOAD DUP1 SWAP2 SUB SWAP1 REVERT JUMPDEST PUSH1 0x1 PUSH1 0x14 SWAP1 SLOAD SWAP1 PUSH2 0x100 EXP SWAP1 DIV PUSH1 0xFF AND ISZERO PUSH2 0x90D JUMPI PUSH1 0x40 MLOAD PUSH32 0x8C379A000000000000000000000000000000000000000000000000000000000 DUP2 MSTORE PUSH1 0x4 ADD PUSH2 0x904 SWAP1 PUSH2 0x1502 JUMP JUMPDEST PUSH1 0x40 MLOAD DUP1 SWAP2 SUB SWAP1 REVERT JUMPDEST DUP1 PUSH1 0x3 PUSH0 DUP3 DUP3 SLOAD PUSH2 0x91E SWAP2 SWAP1 PUSH2 0x154D JUMP JUMPDEST SWAP3 POP POP DUP2 SWAP1 SSTORE POP PUSH32 0xC2B459809119087CA9D2BC10DEA53A51B7D848B1A11075DB037BDCA58292C3E8 PUSH1 0x3 SLOAD PUSH1 0x40 MLOAD PUSH2 0x956 SWAP2 SWAP1 PUSH2 0xC42 JUMP JUMPDEST PUSH1 0x40 MLOAD DUP1 SWAP2 SUB SWAP1 LOG1 POP JUMP JUMPDEST PUSH1 0x5 PUSH0 SWAP1 SLOAD SWAP1 PUSH2 0x100 EXP SWAP1 DIV PUSH20 0xFFFFFFFFFFFFFFFFFFFFFFFFFFFFFFFFFFFFFFFF AND DUP2 JUMP JUMPDEST PUSH1 0x4 DUP1 SLOAD PUSH2 0x993 SWAP1 PUSH2 0x11B1 JUMP JUMPDEST DUP1 PUSH1 0x1F ADD PUSH1 0x20 DUP1 SWAP2 DIV MUL PUSH1 0x20 ADD PUSH1 0x40 MLOAD SWAP1 DUP2 ADD PUSH1 0x40 MSTORE DUP1 SWAP3 SWAP2 SWAP1 DUP2 DUP2 MSTORE PUSH1 0x20 ADD DUP3 DUP1 SLOAD PUSH2 0x9BF SWAP1 PUSH2 0x11B1 JUMP JUMPDEST DUP1 ISZERO PUSH2 0xA0A JUMPI DUP1 PUSH1 0x1F LT PUSH2 0x9E1 JUMPI PUSH2 0x100 DUP1 DUP4 SLOAD DIV MUL DUP4 MSTORE SWAP2 PUSH1 0x20 ADD SWAP2 PUSH2 0xA0A JUMP JUMPDEST DUP3 ADD SWAP2 SWAP1 PUSH0 MSTORE PUSH1 0x20 PUSH0 KECCAK256 SWAP1 JUMPDEST DUP2 SLOAD DUP2 MSTORE SWAP1 PUSH1 0x1 ADD SWAP1 PUSH1 0x20 ADD DUP1 DUP4 GT PUSH2 0x9ED JUMPI DUP3 SWAP1 SUB PUSH1 0x1F AND DUP3 ADD SWAP2 JUMPDEST POP POP POP POP POP DUP2 JUMP JUMPDEST CALLER PUSH20 0xFFFFFFFFFFFFFFFFFFFFFFFFFFFFFFFFFFFFFFFF AND PUSH1 0x1 PUSH0 SWAP1 SLOAD SWAP1 PUSH2 0x100 EXP SWAP1 DIV PUSH20 0xFFFFFFFFFFFFFFFFFFFFFFFFFFFFFFFFFFFFFFFF AND PUSH20 0xFFFFFFFFFFFFFFFFFFFFFFFFFFFFFFFFFFFFFFFF AND EQ PUSH2 0xAA1 JUMPI PUSH1 0x40 MLOAD PUSH32 0x8C379A000000000000000000000000000000000000000000000000000000000 DUP2 MSTORE PUSH1 0x4 ADD PUSH2 0xA98 SWAP1 PUSH2 0x122B JUMP JUMPDEST PUSH1 0x40 MLOAD DUP1 SWAP2 SUB SWAP1 REVERT JUMPDEST PUSH1 0x3 SLOAD TIMESTAMP LT ISZERO PUSH2 0xAE6 JUMPI PUSH1 0x40 MLOAD PUSH32 0x8C379A000000000000000000000000000000000000000000000000000000000 DUP2 MSTORE PUSH1 0x4 ADD PUSH2 0xADD SWAP1 PUSH2 0x15CA JUMP JUMPDEST PUSH1 0x40 MLOAD DUP1 SWAP2 SUB SWAP1 REVERT JUMPDEST PUSH1 0x1 PUSH1 0x14 SWAP1 SLOAD SWAP1 PUSH2 0x100 EXP SWAP1 DIV PUSH1 0xFF AND ISZERO PUSH2 0xB36 JUMPI PUSH1 0x40 MLOAD PUSH32 0x8C379A000000000000000000000000000000000000000000000000000000000 DUP2 MSTORE PUSH1 0x4 ADD PUSH2 0xB2D SWAP1 PUSH2 0x1502 JUMP JUMPDEST PUSH1 0x40 MLOAD DUP1 SWAP2 SUB SWAP1 REVERT JUMPDEST PUSH1 0x1 DUP1 PUSH1 0x14 PUSH2 0x100 EXP DUP2 SLOAD DUP2 PUSH1 0xFF MUL NOT AND SWAP1 DUP4 ISZERO ISZERO MUL OR SWAP1 SSTORE POP PUSH1 0x1 PUSH0 SWAP1 SLOAD SWAP1 PUSH2 0x100 EXP SWAP1 DIV PUSH20 0xFFFFFFFFFFFFFFFFFFFFFFFFFFFFFFFFFFFFFFFF AND PUSH20 0xFFFFFFFFFFFFFFFFFFFFFFFFFFFFFFFFFFFFFFFF AND PUSH2 0x8FC PUSH1 0x6 SLOAD SWAP1 DUP2 ISZERO MUL SWAP1 PUSH1 0x40 MLOAD PUSH0 PUSH1 0x40 MLOAD DUP1 DUP4 SUB DUP2 DUP6 DUP9 DUP9 CALL SWAP4 POP POP POP POP ISZERO DUP1 ISZERO PUSH2 0xBB6 JUMPI RETURNDATASIZE PUSH0 PUSH0 RETURNDATACOPY RETURNDATASIZE PUSH0 REVERT JUMPDEST POP PUSH1 0x5 PUSH0 SWAP1 SLOAD SWAP1 PUSH2 0x100 EXP SWAP1 DIV PUSH20 0xFFFFFFFFFFFFFFFFFFFFFFFFFFFFFFFFFFFFFFFF AND PUSH20 0xFFFFFFFFFFFFFFFFFFFFFFFFFFFFFFFFFFFFFFFF AND PUSH32 0xDAEC4582D5D9595688C8C98545FDD1C696D41C6AEAEB636737E84ED2F5C00EDA PUSH1 0x6 SLOAD PUSH1 0x40 MLOAD PUSH2 0xC20 SWAP2 SWAP1 PUSH2 0xC42 JUMP JUMPDEST PUSH1 0x40 MLOAD DUP1 SWAP2 SUB SWAP1 LOG2 JUMP JUMPDEST PUSH0 DUP2 SWAP1 POP SWAP2 SWAP1 POP JUMP JUMPDEST PUSH2 0xC3C DUP2 PUSH2 0xC2A JUMP JUMPDEST DUP3 MSTORE POP POP JUMP JUMPDEST PUSH0 PUSH1 0x20 DUP3 ADD SWAP1 POP PUSH2 0xC55 PUSH0 DUP4 ADD DUP5 PUSH2 0xC33 JUMP JUMPDEST SWAP3 SWAP2 POP POP JUMP JUMPDEST PUSH0 PUSH1 0x40 MLOAD SWAP1 POP SWAP1 JUMP JUMPDEST PUSH0 PUSH0 REVERT JUMPDEST PUSH0 PUSH0 REVERT JUMPDEST PUSH0 PUSH20 0xFFFFFFFFFFFFFFFFFFFFFFFFFFFFFFFFFFFFFFFF DUP3 AND SWAP1 POP SWAP2 SWAP1 POP JUMP JUMPDEST PUSH0 PUSH2 0xC95 DUP3 PUSH2 0xC6C JUMP JUMPDEST SWAP1 POP SWAP2 SWAP1 POP JUMP JUMPDEST PUSH2 0xCA5 DUP2 PUSH2 0xC8B JUMP JUMPDEST DUP2 EQ PUSH2 0xCAF JUMPI PUSH0 PUSH0 REVERT JUMPDEST POP JUMP JUMPDEST PUSH0 DUP2 CALLDATALOAD SWAP1 POP PUSH2 0xCC0 DUP2 PUSH2 0xC9C JUMP JUMPDEST SWAP3 SWAP2 POP POP JUMP JUMPDEST PUSH0 PUSH1 0x20 DUP3 DUP5 SUB SLT ISZERO PUSH2 0xCDB JUMPI PUSH2 0xCDA PUSH2 0xC64 JUMP JUMPDEST JUMPDEST PUSH0 PUSH2 0xCE8 DUP5 DUP3 DUP6 ADD PUSH2 0xCB2 JUMP JUMPDEST SWAP2 POP POP SWAP3 SWAP2 POP POP JUMP JUMPDEST PUSH0 DUP2 MLOAD SWAP1 POP SWAP2 SWAP1 POP JUMP JUMPDEST PUSH0 DUP3 DUP3 MSTORE PUSH1 0x20 DUP3 ADD SWAP1 POP SWAP3 SWAP2 POP POP JUMP JUMPDEST DUP3 DUP2 DUP4 MCOPY PUSH0 DUP4 DUP4 ADD MSTORE POP POP POP JUMP JUMPDEST PUSH0 PUSH1 0x1F NOT PUSH1 0x1F DUP4 ADD AND SWAP1 POP SWAP2 SWAP1 POP JUMP JUMPDEST PUSH0 PUSH2 0xD33 DUP3 PUSH2 0xCF1 JUMP JUMPDEST PUSH2 0xD3D DUP2 DUP6 PUSH2 0xCFB JUMP JUMPDEST SWAP4 POP PUSH2 0xD4D DUP2 DUP6 PUSH1 0x20 DUP7 ADD PUSH2 0xD0B JUMP JUMPDEST PUSH2 0xD56 DUP2 PUSH2 0xD19 JUMP JUMPDEST DUP5 ADD SWAP2 POP POP SWAP3 SWAP2 POP POP JUMP JUMPDEST PUSH0 PUSH1 0x40 DUP3 ADD SWAP1 POP DUP2 DUP2 SUB PUSH0 DUP4 ADD MSTORE PUSH2 0xD79 DUP2 DUP6 PUSH2 0xD29 JUMP JUMPDEST SWAP1 POP PUSH2 0xD88 PUSH1 0x20 DUP4 ADD DUP5 PUSH2 0xC33 JUMP JUMPDEST SWAP4 SWAP3 POP POP POP JUMP JUMPDEST PUSH0 PUSH0 REVERT JUMPDEST PUSH0 PUSH0 REVERT JUMPDEST PUSH32 0x4E487B7100000000000000000000000000000000000000000000000000000000 PUSH0 MSTORE PUSH1 0x41 PUSH1 0x4 MSTORE PUSH1 0x24 PUSH0 REVERT JUMPDEST PUSH2 0xDCD DUP3 PUSH2 0xD19 JUMP JUMPDEST DUP2 ADD DUP2 DUP2 LT PUSH8 0xFFFFFFFFFFFFFFFF DUP3 GT OR ISZERO PUSH2 0xDEC JUMPI PUSH2 0xDEB PUSH2 0xD97 JUMP JUMPDEST JUMPDEST DUP1 PUSH1 0x40 MSTORE POP POP POP JUMP JUMPDEST PUSH0 PUSH2 0xDFE PUSH2 0xC5B JUMP JUMPDEST SWAP1 POP PUSH2 0xE0A DUP3 DUP3 PUSH2 0xDC4 JUMP JUMPDEST SWAP2 SWAP1 POP JUMP JUMPDEST PUSH0 PUSH8 0xFFFFFFFFFFFFFFFF DUP3 GT ISZERO PUSH2 0xE29 JUMPI PUSH2 0xE28 PUSH2 0xD97 JUMP JUMPDEST JUMPDEST PUSH2 0xE32 DUP3 PUSH2 0xD19 JUMP JUMPDEST SWAP1 POP PUSH1 0x20 DUP2 ADD SWAP1 POP SWAP2 SWAP1 POP JUMP JUMPDEST DUP3 DUP2 DUP4 CALLDATACOPY PUSH0 DUP4 DUP4 ADD MSTORE POP POP POP JUMP JUMPDEST PUSH0 PUSH2 0xE5F PUSH2 0xE5A DUP5 PUSH2 0xE0F JUMP JUMPDEST PUSH2 0xDF5 JUMP JUMPDEST SWAP1 POP DUP3 DUP2 MSTORE PUSH1 0x20 DUP2 ADD DUP5 DUP5 DUP5 ADD GT ISZERO PUSH2 0xE7B JUMPI PUSH2 0xE7A PUSH2 0xD93 JUMP JUMPDEST JUMPDEST PUSH2 0xE86 DUP5 DUP3 DUP6 PUSH2 0xE3F JUMP JUMPDEST POP SWAP4 SWAP3 POP POP POP JUMP JUMPDEST PUSH0 DUP3 PUSH1 0x1F DUP4 ADD SLT PUSH2 0xEA2 JUMPI PUSH2 0xEA1 PUSH2 0xD8F JUMP JUMPDEST JUMPDEST DUP2 CALLDATALOAD PUSH2 0xEB2 DUP5 DUP3 PUSH1 0x20 DUP7 ADD PUSH2 0xE4D JUMP JUMPDEST SWAP2 POP POP SWAP3 SWAP2 POP POP JUMP JUMPDEST PUSH2 0xEC4 DUP2 PUSH2 0xC2A JUMP JUMPDEST DUP2 EQ PUSH2 0xECE JUMPI PUSH0 PUSH0 REVERT JUMPDEST POP JUMP JUMPDEST PUSH0 DUP2 CALLDATALOAD SWAP1 POP PUSH2 0xEDF DUP2 PUSH2 0xEBB JUMP JUMPDEST SWAP3 SWAP2 POP POP JUMP JUMPDEST PUSH0 PUSH0 PUSH1 0x40 DUP4 DUP6 SUB SLT ISZERO PUSH2 0xEFB JUMPI PUSH2 0xEFA PUSH2 0xC64 JUMP JUMPDEST JUMPDEST PUSH0 DUP4 ADD CALLDATALOAD PUSH8 0xFFFFFFFFFFFFFFFF DUP2 GT ISZERO PUSH2 0xF18 JUMPI PUSH2 0xF17 PUSH2 0xC68 JUMP JUMPDEST JUMPDEST PUSH2 0xF24 DUP6 DUP3 DUP7 ADD PUSH2 0xE8E JUMP JUMPDEST SWAP3 POP POP PUSH1 0x20 PUSH2 0xF35 DUP6 DUP3 DUP7 ADD PUSH2 0xED1 JUMP JUMPDEST SWAP2 POP POP SWAP3 POP SWAP3 SWAP1 POP JUMP JUMPDEST PUSH0 DUP2 ISZERO ISZERO SWAP1 POP SWAP2 SWAP1 POP JUMP JUMPDEST PUSH2 0xF53 DUP2 PUSH2 0xF3F JUMP JUMPDEST DUP3 MSTORE POP POP JUMP JUMPDEST PUSH0 PUSH1 0x20 DUP3 ADD SWAP1 POP PUSH2 0xF6C PUSH0 DUP4 ADD DUP5 PUSH2 0xF4A JUMP JUMPDEST SWAP3 SWAP2 POP POP JUMP JUMPDEST PUSH2 0xF7B DUP2 PUSH2 0xC8B JUMP JUMPDEST DUP3 MSTORE POP POP JUMP JUMPDEST PUSH0 PUSH1 0x20 DUP3 ADD SWAP1 POP PUSH2 0xF94 PUSH0 DUP4 ADD DUP5 PUSH2 0xF72 JUMP JUMPDEST SWAP3 SWAP2 POP POP JUMP JUMPDEST PUSH0 PUSH1 0x20 DUP3 DUP5 SUB SLT ISZERO PUSH2 0xFAF JUMPI PUSH2 0xFAE PUSH2 0xC64 JUMP JUMPDEST JUMPDEST PUSH0 PUSH2 0xFBC DUP5 DUP3 DUP6 ADD PUSH2 0xED1 JUMP JUMPDEST SWAP2 POP POP SWAP3 SWAP2 POP POP JUMP JUMPDEST PUSH0 PUSH1 0x20 DUP3 ADD SWAP1 POP DUP2 DUP2 SUB PUSH0 DUP4 ADD MSTORE PUSH2 0xFDD DUP2 DUP5 PUSH2 0xD29 JUMP JUMPDEST SWAP1 POP SWAP3 SWAP2 POP POP JUMP JUMPDEST PUSH32 0x41756374696F6E2068617320656E646564000000000000000000000000000000 PUSH0 DUP3 ADD MSTORE POP JUMP JUMPDEST PUSH0 PUSH2 0x1019 PUSH1 0x11 DUP4 PUSH2 0xCFB JUMP JUMPDEST SWAP2 POP PUSH2 0x1024 DUP3 PUSH2 0xFE5 JUMP JUMPDEST PUSH1 0x20 DUP3 ADD SWAP1 POP SWAP2 SWAP1 POP JUMP JUMPDEST PUSH0 PUSH1 0x20 DUP3 ADD SWAP1 POP DUP2 DUP2 SUB PUSH0 DUP4 ADD MSTORE PUSH2 0x1046 DUP2 PUSH2 0x100D JUMP JUMPDEST SWAP1 POP SWAP2 SWAP1 POP JUMP JUMPDEST PUSH32 0x596F757220626964206D75737420626520686967686572207468616E20746865 PUSH0 DUP3 ADD MSTORE PUSH32 0x2063757272656E74206869676865737420626964000000000000000000000000 PUSH1 0x20 DUP3 ADD MSTORE POP JUMP JUMPDEST PUSH0 PUSH2 0x10A7 PUSH1 0x34 DUP4 PUSH2 0xCFB JUMP JUMPDEST SWAP2 POP PUSH2 0x10B2 DUP3 PUSH2 0x104D JUMP JUMPDEST PUSH1 0x40 DUP3 ADD SWAP1 POP SWAP2 SWAP1 POP JUMP JUMPDEST PUSH0 PUSH1 0x20 DUP3 ADD SWAP1 POP DUP2 DUP2 SUB PUSH0 DUP4 ADD MSTORE PUSH2 0x10D4 DUP2 PUSH2 0x109B JUMP JUMPDEST SWAP1 POP SWAP2 SWAP1 POP JUMP JUMPDEST PUSH0 DUP2 SWAP1 POP SWAP3 SWAP2 POP POP JUMP JUMPDEST POP JUMP JUMPDEST PUSH0 PUSH2 0x10F3 PUSH0 DUP4 PUSH2 0x10DB JUMP JUMPDEST SWAP2 POP PUSH2 0x10FE DUP3 PUSH2 0x10E5 JUMP JUMPDEST PUSH0 DUP3 ADD SWAP1 POP SWAP2 SWAP1 POP JUMP JUMPDEST PUSH0 PUSH2 0x1112 DUP3 PUSH2 0x10E8 JUMP JUMPDEST SWAP2 POP DUP2 SWAP1 POP SWAP2 SWAP1 POP JUMP JUMPDEST PUSH32 0x50726576696F75732062696420726566756E64206661696C6564000000000000 PUSH0 DUP3 ADD MSTORE POP JUMP JUMPDEST PUSH0 PUSH2 0x1150 PUSH1 0x1A DUP4 PUSH2 0xCFB JUMP JUMPDEST SWAP2 POP PUSH2 0x115B DUP3 PUSH2 0x111C JUMP JUMPDEST PUSH1 0x20 DUP3 ADD SWAP1 POP SWAP2 SWAP1 POP JUMP JUMPDEST PUSH0 PUSH1 0x20 DUP3 ADD SWAP1 POP DUP2 DUP2 SUB PUSH0 DUP4 ADD MSTORE PUSH2 0x117D DUP2 PUSH2 0x1144 JUMP JUMPDEST SWAP1 POP SWAP2 SWAP1 POP JUMP JUMPDEST PUSH32 0x4E487B7100000000000000000000000000000000000000000000000000000000 PUSH0 MSTORE PUSH1 0x22 PUSH1 0x4 MSTORE PUSH1 0x24 PUSH0 REVERT JUMPDEST PUSH0 PUSH1 0x2 DUP3 DIV SWAP1 POP PUSH1 0x1 DUP3 AND DUP1 PUSH2 0x11C8 JUMPI PUSH1 0x7F DUP3 AND SWAP2 POP JUMPDEST PUSH1 0x20 DUP3 LT DUP2 SUB PUSH2 0x11DB JUMPI PUSH2 0x11DA PUSH2 0x1184 JUMP JUMPDEST JUMPDEST POP SWAP2 SWAP1 POP JUMP JUMPDEST PUSH32 0x596F7520617265206E6F7420746865206F776E65720000000000000000000000 PUSH0 DUP3 ADD MSTORE POP JUMP JUMPDEST PUSH0 PUSH2 0x1215 PUSH1 0x15 DUP4 PUSH2 0xCFB JUMP JUMPDEST SWAP2 POP PUSH2 0x1220 DUP3 PUSH2 0x11E1 JUMP JUMPDEST PUSH1 0x20 DUP3 ADD SWAP1 POP SWAP2 SWAP1 POP JUMP JUMPDEST PUSH0 PUSH1 0x20 DUP3 ADD SWAP1 POP DUP2 DUP2 SUB PUSH0 DUP4 ADD MSTORE PUSH2 0x1242 DUP2 PUSH2 0x1209 JUMP JUMPDEST SWAP1 POP SWAP2 SWAP1 POP JUMP JUMPDEST PUSH0 DUP2 SWAP1 POP DUP2 PUSH0 MSTORE PUSH1 0x20 PUSH0 KECCAK256 SWAP1 POP SWAP2 SWAP1 POP JUMP JUMPDEST PUSH0 PUSH1 0x20 PUSH1 0x1F DUP4 ADD DIV SWAP1 POP SWAP2 SWAP1 POP JUMP JUMPDEST PUSH0 DUP3 DUP3 SHL SWAP1 POP SWAP3 SWAP2 POP POP JUMP JUMPDEST PUSH0 PUSH1 0x8 DUP4 MUL PUSH2 0x12A5 PUSH32 0xFFFFFFFFFFFFFFFFFFFFFFFFFFFFFFFFFFFFFFFFFFFFFFFFFFFFFFFFFFFFFFFF DUP3 PUSH2 0x126A JUMP JUMPDEST PUSH2 0x12AF DUP7 DUP4 PUSH2 0x126A JUMP JUMPDEST SWAP6 POP DUP1 NOT DUP5 AND SWAP4 POP DUP1 DUP7 AND DUP5 OR SWAP3 POP POP POP SWAP4 SWAP3 POP POP POP JUMP JUMPDEST PUSH0 DUP2 SWAP1 POP SWAP2 SWAP1 POP JUMP JUMPDEST PUSH0 PUSH2 0x12EA PUSH2 0x12E5 PUSH2 0x12E0 DUP5 PUSH2 0xC2A JUMP JUMPDEST PUSH2 0x12C7 JUMP JUMPDEST PUSH2 0xC2A JUMP JUMPDEST SWAP1 POP SWAP2 SWAP1 POP JUMP JUMPDEST PUSH0 DUP2 SWAP1 POP SWAP2 SWAP1 POP JUMP JUMPDEST PUSH2 0x1303 DUP4 PUSH2 0x12D0 JUMP JUMPDEST PUSH2 0x1317 PUSH2 0x130F DUP3 PUSH2 0x12F1 JUMP JUMPDEST DUP5 DUP5 SLOAD PUSH2 0x1276 JUMP JUMPDEST DUP3 SSTORE POP POP POP POP JUMP JUMPDEST PUSH0 PUSH0 SWAP1 POP SWAP1 JUMP JUMPDEST PUSH2 0x132E PUSH2 0x131F JUMP JUMPDEST PUSH2 0x1339 DUP2 DUP5 DUP5 PUSH2 0x12FA JUMP JUMPDEST POP POP POP JUMP JUMPDEST JUMPDEST DUP2 DUP2 LT ISZERO PUSH2 0x135C JUMPI PUSH2 0x1351 PUSH0 DUP3 PUSH2 0x1326 JUMP JUMPDEST PUSH1 0x1 DUP2 ADD SWAP1 POP PUSH2 0x133F JUMP JUMPDEST POP POP JUMP JUMPDEST PUSH1 0x1F DUP3 GT ISZERO PUSH2 0x13A1 JUMPI PUSH2 0x1372 DUP2 PUSH2 0x1249 JUMP JUMPDEST PUSH2 0x137B DUP5 PUSH2 0x125B JUMP JUMPDEST DUP2 ADD PUSH1 0x20 DUP6 LT ISZERO PUSH2 0x138A JUMPI DUP2 SWAP1 POP JUMPDEST PUSH2 0x139E PUSH2 0x1396 DUP6 PUSH2 0x125B JUMP JUMPDEST DUP4 ADD DUP3 PUSH2 0x133E JUMP JUMPDEST POP POP JUMPDEST POP POP POP JUMP JUMPDEST PUSH0 DUP3 DUP3 SHR SWAP1 POP SWAP3 SWAP2 POP POP JUMP JUMPDEST PUSH0 PUSH2 0x13C1 PUSH0 NOT DUP5 PUSH1 0x8 MUL PUSH2 0x13A6 JUMP JUMPDEST NOT DUP1 DUP4 AND SWAP2 POP POP SWAP3 SWAP2 POP POP JUMP JUMPDEST PUSH0 PUSH2 0x13D9 DUP4 DUP4 PUSH2 0x13B2 JUMP JUMPDEST SWAP2 POP DUP3 PUSH1 0x2 MUL DUP3 OR SWAP1 POP SWAP3 SWAP2 POP POP JUMP JUMPDEST PUSH2 0x13F2 DUP3 PUSH2 0xCF1 JUMP JUMPDEST PUSH8 0xFFFFFFFFFFFFFFFF DUP2 GT ISZERO PUSH2 0x140B JUMPI PUSH2 0x140A PUSH2 0xD97 JUMP JUMPDEST JUMPDEST PUSH2 0x1415 DUP3 SLOAD PUSH2 0x11B1 JUMP JUMPDEST PUSH2 0x1420 DUP3 DUP3 DUP6 PUSH2 0x1360 JUMP JUMPDEST PUSH0 PUSH1 0x20 SWAP1 POP PUSH1 0x1F DUP4 GT PUSH1 0x1 DUP2 EQ PUSH2 0x1451 JUMPI PUSH0 DUP5 ISZERO PUSH2 0x143F JUMPI DUP3 DUP8 ADD MLOAD SWAP1 POP JUMPDEST PUSH2 0x1449 DUP6 DUP3 PUSH2 0x13CE JUMP JUMPDEST DUP7 SSTORE POP PUSH2 0x14B0 JUMP JUMPDEST PUSH1 0x1F NOT DUP5 AND PUSH2 0x145F DUP7 PUSH2 0x1249 JUMP JUMPDEST PUSH0 JUMPDEST DUP3 DUP2 LT ISZERO PUSH2 0x1486 JUMPI DUP5 DUP10 ADD MLOAD DUP3 SSTORE PUSH1 0x1 DUP3 ADD SWAP2 POP PUSH1 0x20 DUP6 ADD SWAP5 POP PUSH1 0x20 DUP2 ADD SWAP1 POP PUSH2 0x1461 JUMP JUMPDEST DUP7 DUP4 LT ISZERO PUSH2 0x14A3 JUMPI DUP5 DUP10 ADD MLOAD PUSH2 0x149F PUSH1 0x1F DUP10 AND DUP3 PUSH2 0x13B2 JUMP JUMPDEST DUP4 SSTORE POP JUMPDEST PUSH1 0x1 PUSH1 0x2 DUP9 MUL ADD DUP9 SSTORE POP POP POP JUMPDEST POP POP POP POP POP POP JUMP JUMPDEST PUSH32 0x41756374696F6E2068617320616C726561647920656E64656400000000000000 PUSH0 DUP3 ADD MSTORE POP JUMP JUMPDEST PUSH0 PUSH2 0x14EC PUSH1 0x19 DUP4 PUSH2 0xCFB JUMP JUMPDEST SWAP2 POP PUSH2 0x14F7 DUP3 PUSH2 0x14B8 JUMP JUMPDEST PUSH1 0x20 DUP3 ADD SWAP1 POP SWAP2 SWAP1 POP JUMP JUMPDEST PUSH0 PUSH1 0x20 DUP3 ADD SWAP1 POP DUP2 DUP2 SUB PUSH0 DUP4 ADD MSTORE PUSH2 0x1519 DUP2 PUSH2 0x14E0 JUMP JUMPDEST SWAP1 POP SWAP2 SWAP1 POP JUMP JUMPDEST PUSH32 0x4E487B7100000000000000000000000000000000000000000000000000000000 PUSH0 MSTORE PUSH1 0x11 PUSH1 0x4 MSTORE PUSH1 0x24 PUSH0 REVERT JUMPDEST PUSH0 PUSH2 0x1557 DUP3 PUSH2 0xC2A JUMP JUMPDEST SWAP2 POP PUSH2 0x1562 DUP4 PUSH2 0xC2A JUMP JUMPDEST SWAP3 POP DUP3 DUP3 ADD SWAP1 POP DUP1 DUP3 GT ISZERO PUSH2 0x157A JUMPI PUSH2 0x1579 PUSH2 0x1520 JUMP JUMPDEST JUMPDEST SWAP3 SWAP2 POP POP JUMP JUMPDEST PUSH32 0x41756374696F6E206973207374696C6C206F6E676F696E670000000000000000 PUSH0 DUP3 ADD MSTORE POP JUMP JUMPDEST PUSH0 PUSH2 0x15B4 PUSH1 0x18 DUP4 PUSH2 0xCFB JUMP JUMPDEST SWAP2 POP PUSH2 0x15BF DUP3 PUSH2 0x1580 JUMP JUMPDEST PUSH1 0x20 DUP3 ADD SWAP1 POP SWAP2 SWAP1 POP JUMP JUMPDEST PUSH0 PUSH1 0x20 DUP3 ADD SWAP1 POP DUP2 DUP2 SUB PUSH0 DUP4 ADD MSTORE PUSH2 0x15E1 DUP2 PUSH2 0x15A8 JUMP JUMPDEST SWAP1 POP SWAP2 SWAP1 POP JUMP INVALID LOG2 PUSH5 0x6970667358 0x22 SLT KECCAK256 NUMBER SWAP8 PUSH9 0x4453066E8D44FEDE6D 0xD2 PUSH11 0x6FEA470A7CE1BFA41AE9CC PUSH5 0x4AC067CA82 0xE4 PUSH5 0x736F6C6343 STOP ADDMOD SHR STOP CALLER "
				},
				"gasEstimates": {
					"creation": {
						"codeDepositCost": "1132400",
						"executionCost": "infinite",
						"totalCost": "infinite"
					},
					"external": {
						"addbidder(string,uint256)": "infinite",
						"auctionEnded()": "2628",
						"bid()": "infinite",
						"bidderInfo(address)": "infinite",
						"endAuction()": "infinite",
						"extendAuction(uint256)": "infinite",
						"getBidderData(address)": "infinite",
						"highestbid()": "2448",
						"highestbidder()": "2574",
						"item()": "infinite",
						"owner()": "2508",
						"timeend()": "2514"
					}
				},
				"methodIdentifiers": {
					"addbidder(string,uint256)": "6ec5177a",
					"auctionEnded()": "86433374",
					"bid()": "1998aeef",
					"bidderInfo(address)": "438f7352",
					"endAuction()": "fe67a54b",
					"extendAuction(uint256)": "ce5f9fb3",
					"getBidderData(address)": "b3beaee2",
					"highestbid()": "3ad08463",
					"highestbidder()": "dcbfb0ff",
					"item()": "f2a4a82e",
					"owner()": "8da5cb5b",
					"timeend()": "75bd1a33"
				}
			},
			"storageLayout": {
				"storage": [
					{
						"astId": 10,
						"contract": "contracts/PRACTICE/1(Basic)/Updated_auction.sol:Auction",
						"label": "_status",
						"offset": 0,
						"slot": "0",
						"type": "t_uint256"
					},
					{
						"astId": 71,
						"contract": "contracts/PRACTICE/1(Basic)/Updated_auction.sol:Auction",
						"label": "owner",
						"offset": 0,
						"slot": "1",
						"type": "t_address"
					},
					{
						"astId": 73,
						"contract": "contracts/PRACTICE/1(Basic)/Updated_auction.sol:Auction",
						"label": "auctionEnded",
						"offset": 20,
						"slot": "1",
						"type": "t_bool"
					},
					{
						"astId": 83,
						"contract": "contracts/PRACTICE/1(Basic)/Updated_auction.sol:Auction",
						"label": "bidderInfo",
						"offset": 0,
						"slot": "2",
						"type": "t_mapping(t_address,t_struct(bidder)78_storage)"
					},
					{
						"astId": 85,
						"contract": "contracts/PRACTICE/1(Basic)/Updated_auction.sol:Auction",
						"label": "timeend",
						"offset": 0,
						"slot": "3",
						"type": "t_uint256"
					},
					{
						"astId": 87,
						"contract": "contracts/PRACTICE/1(Basic)/Updated_auction.sol:Auction",
						"label": "item",
						"offset": 0,
						"slot": "4",
						"type": "t_string_storage"
					},
					{
						"astId": 89,
						"contract": "contracts/PRACTICE/1(Basic)/Updated_auction.sol:Auction",
						"label": "highestbidder",
						"offset": 0,
						"slot": "5",
						"type": "t_address"
					},
					{
						"astId": 91,
						"contract": "contracts/PRACTICE/1(Basic)/Updated_auction.sol:Auction",
						"label": "highestbid",
						"offset": 0,
						"slot": "6",
						"type": "t_uint256"
					}
				],
				"types": {
					"t_address": {
						"encoding": "inplace",
						"label": "address",
						"numberOfBytes": "20"
					},
					"t_bool": {
						"encoding": "inplace",
						"label": "bool",
						"numberOfBytes": "1"
					},
					"t_mapping(t_address,t_struct(bidder)78_storage)": {
						"encoding": "mapping",
						"key": "t_address",
						"label": "mapping(address => struct Auction.bidder)",
						"numberOfBytes": "32",
						"value": "t_struct(bidder)78_storage"
					},
					"t_string_storage": {
						"encoding": "bytes",
						"label": "string",
						"numberOfBytes": "32"
					},
					"t_struct(bidder)78_storage": {
						"encoding": "inplace",
						"label": "struct Auction.bidder",
						"members": [
							{
								"astId": 75,
								"contract": "contracts/PRACTICE/1(Basic)/Updated_auction.sol:Auction",
								"label": "name",
								"offset": 0,
								"slot": "0",
								"type": "t_string_storage"
							},
							{
								"astId": 77,
								"contract": "contracts/PRACTICE/1(Basic)/Updated_auction.sol:Auction",
								"label": "id",
								"offset": 0,
								"slot": "1",
								"type": "t_uint256"
							}
						],
						"numberOfBytes": "64"
					},
					"t_uint256": {
						"encoding": "inplace",
						"label": "uint256",
						"numberOfBytes": "32"
					}
				}
			},
			"userdoc": {
				"kind": "user",
				"methods": {},
				"version": 1
			}
		}
	}
}